{
  "contractName": "CanReclaimTokens",
  "abi": [
    {
      "anonymous": false,
      "inputs": [
        {
          "indexed": true,
          "internalType": "address",
          "name": "previousOwner",
          "type": "address"
        },
        {
          "indexed": true,
          "internalType": "address",
          "name": "newOwner",
          "type": "address"
        }
      ],
      "name": "OwnershipTransferred",
      "type": "event"
    },
    {
      "constant": false,
      "inputs": [
        {
          "internalType": "address",
          "name": "newOwner",
          "type": "address"
        }
      ],
      "name": "_directTransferOwnership",
      "outputs": [],
      "payable": false,
      "stateMutability": "nonpayable",
      "type": "function"
    },
    {
      "constant": false,
      "inputs": [],
      "name": "claimOwnership",
      "outputs": [],
      "payable": false,
      "stateMutability": "nonpayable",
      "type": "function"
    },
    {
      "constant": true,
      "inputs": [],
      "name": "isOwner",
      "outputs": [
        {
          "internalType": "bool",
          "name": "",
          "type": "bool"
        }
      ],
      "payable": false,
      "stateMutability": "view",
      "type": "function"
    },
    {
      "constant": true,
      "inputs": [],
      "name": "owner",
      "outputs": [
        {
          "internalType": "address",
          "name": "",
          "type": "address"
        }
      ],
      "payable": false,
      "stateMutability": "view",
      "type": "function"
    },
    {
      "constant": true,
      "inputs": [],
      "name": "pendingOwner",
      "outputs": [
        {
          "internalType": "address",
          "name": "",
          "type": "address"
        }
      ],
      "payable": false,
      "stateMutability": "view",
      "type": "function"
    },
    {
      "constant": false,
      "inputs": [],
      "name": "renounceOwnership",
      "outputs": [],
      "payable": false,
      "stateMutability": "nonpayable",
      "type": "function"
    },
    {
      "constant": false,
      "inputs": [
        {
          "internalType": "address",
          "name": "newOwner",
          "type": "address"
        }
      ],
      "name": "transferOwnership",
      "outputs": [],
      "payable": false,
      "stateMutability": "nonpayable",
      "type": "function"
    },
    {
      "constant": false,
      "inputs": [
        {
          "internalType": "address",
          "name": "_nextOwner",
          "type": "address"
        }
      ],
      "name": "initialize",
      "outputs": [],
      "payable": false,
      "stateMutability": "nonpayable",
      "type": "function"
    },
    {
      "constant": false,
      "inputs": [
        {
          "internalType": "address",
          "name": "_token",
          "type": "address"
        }
      ],
      "name": "blacklistRecoverableToken",
      "outputs": [],
      "payable": false,
      "stateMutability": "nonpayable",
      "type": "function"
    },
    {
      "constant": false,
      "inputs": [
        {
          "internalType": "address",
          "name": "_token",
          "type": "address"
        }
      ],
      "name": "recoverTokens",
      "outputs": [],
      "payable": false,
      "stateMutability": "nonpayable",
      "type": "function"
    }
  ],
  "bytecode": "0x6080604052610c83806100136000396000f3fe608060405234801561001057600080fd5b506004361061009e5760003560e01c80638f32d59b116100665780638f32d59b14610125578063c4d66de814610141578063e30c397814610167578063f2fde38b1461016f578063f65d901c146101955761009e565b806316114acd146100a3578063238e5bc8146100cb5780634e71e0c8146100f1578063715018a6146100f95780638da5cb5b14610101575b600080fd5b6100c9600480360360208110156100b957600080fd5b50356001600160a01b03166101bb565b005b6100c9600480360360208110156100e157600080fd5b50356001600160a01b031661032c565b6100c961037c565b6100c96103fc565b61010961048d565b604080516001600160a01b039092168252519081900360200190f35b61012d61049c565b604080519115158252519081900360200190f35b6100c96004803603602081101561015757600080fd5b50356001600160a01b03166104c2565b61010961056e565b6100c96004803603602081101561018557600080fd5b50356001600160a01b031661057d565b6100c9600480360360208110156101ab57600080fd5b50356001600160a01b031661066e565b6101c361049c565b610202576040805162461bcd60e51b81526020600482018190526024820152600080516020610bad833981519152604482015290519081900360640190fd5b6001600160a01b03811660009081526067602052604090205460ff161561025a5760405162461bcd60e51b815260040180806020018281038252602a815260200180610b83602a913960400191505060405180910390fd5b6001600160a01b03811661029a5760405133904780156108fc02916000818181858888f19350505050158015610294573d6000803e3d6000fd5b50610329565b604080516370a0823160e01b815230600482015290516103299133916001600160a01b038516916370a08231916024808301926020929190829003018186803b1580156102e657600080fd5b505afa1580156102fa573d6000803e3d6000fd5b505050506040513d602081101561031057600080fd5b50516001600160a01b038416919063ffffffff6106d916565b50565b61033461049c565b610373576040805162461bcd60e51b81526020600482018190526024820152600080516020610bad833981519152604482015290519081900360640190fd5b61032981610730565b6066546001600160a01b03166103906107d1565b6001600160a01b0316146103d55760405162461bcd60e51b815260040180806020018281038252602a815260200180610bfb602a913960400191505060405180910390fd5b6066546103ea906001600160a01b0316610730565b606680546001600160a01b0319169055565b61040461049c565b610443576040805162461bcd60e51b81526020600482018190526024820152600080516020610bad833981519152604482015290519081900360640190fd5b6033546040516000916001600160a01b0316907f8be0079c531659141344cd1fd0a4f28419497f9722a3daafe3b4186f6b6457e0908390a3603380546001600160a01b0319169055565b6033546001600160a01b031690565b6033546000906001600160a01b03166104b36107d1565b6001600160a01b031614905090565b600054610100900460ff16806104db57506104db6107d5565b806104e9575060005460ff16155b6105245760405162461bcd60e51b815260040180806020018281038252602e815260200180610bcd602e913960400191505060405180910390fd5b600054610100900460ff1615801561054f576000805460ff1961ff0019909116610100171660011790555b610558826107db565b801561056a576000805461ff00191690555b5050565b6066546001600160a01b031681565b61058561049c565b6105c4576040805162461bcd60e51b81526020600482018190526024820152600080516020610bad833981519152604482015290519081900360640190fd5b6105cc61048d565b6001600160a01b0316816001600160a01b0316141580156105fb57506066546001600160a01b03828116911614155b61064c576040805162461bcd60e51b815260206004820152601c60248201527f436c61696d61626c653a20696e76616c6964206e6577206f776e657200000000604482015290519081900360640190fd5b606680546001600160a01b0319166001600160a01b0392909216919091179055565b61067661049c565b6106b5576040805162461bcd60e51b81526020600482018190526024820152600080516020610bad833981519152604482015290519081900360640190fd5b6001600160a01b03166000908152606760205260409020805460ff19166001179055565b604080516001600160a01b038416602482015260448082018490528251808303909101815260649091019091526020810180516001600160e01b031663a9059cbb60e01b17905261072b908490610871565b505050565b6001600160a01b0381166107755760405162461bcd60e51b8152600401808060200182810382526026815260200180610b5d6026913960400191505060405180910390fd5b6033546040516001600160a01b038084169216907f8be0079c531659141344cd1fd0a4f28419497f9722a3daafe3b4186f6b6457e090600090a3603380546001600160a01b0319166001600160a01b0392909216919091179055565b3390565b303b1590565b600054610100900460ff16806107f457506107f46107d5565b80610802575060005460ff16155b61083d5760405162461bcd60e51b815260040180806020018281038252602e815260200180610bcd602e913960400191505060405180910390fd5b600054610100900460ff16158015610868576000805460ff1961ff0019909116610100171660011790555b61055882610a2f565b610883826001600160a01b0316610b20565b6108d4576040805162461bcd60e51b815260206004820152601f60248201527f5361666545524332303a2063616c6c20746f206e6f6e2d636f6e747261637400604482015290519081900360640190fd5b60006060836001600160a01b0316836040518082805190602001908083835b602083106109125780518252601f1990920191602091820191016108f3565b6001836020036101000a0380198251168184511680821785525050505050509050019150506000604051808303816000865af19150503d8060008114610974576040519150601f19603f3d011682016040523d82523d6000602084013e610979565b606091505b5091509150816109d0576040805162461bcd60e51b815260206004820181905260248201527f5361666545524332303a206c6f772d6c6576656c2063616c6c206661696c6564604482015290519081900360640190fd5b805115610a29578080602001905160208110156109ec57600080fd5b5051610a295760405162461bcd60e51b815260040180806020018281038252602a815260200180610c25602a913960400191505060405180910390fd5b50505050565b600054610100900460ff1680610a485750610a486107d5565b80610a56575060005460ff16155b610a915760405162461bcd60e51b815260040180806020018281038252602e815260200180610bcd602e913960400191505060405180910390fd5b600054610100900460ff16158015610abc576000805460ff1961ff0019909116610100171660011790555b603380546001600160a01b0319166001600160a01b0384811691909117918290556040519116906000907f8be0079c531659141344cd1fd0a4f28419497f9722a3daafe3b4186f6b6457e0908290a3801561056a576000805461ff00191690555050565b6000813f7fc5d2460186f7233c927e7db2dcc703c0e500b653ca82273b7bfad8045d85a470818114801590610b5457508115155b94935050505056fe4f776e61626c653a206e6577206f776e657220697320746865207a65726f206164647265737343616e5265636c61696d546f6b656e733a20746f6b656e206973206e6f74207265636f76657261626c654f776e61626c653a2063616c6c6572206973206e6f7420746865206f776e6572436f6e747261637420696e7374616e63652068617320616c7265616479206265656e20696e697469616c697a6564436c61696d61626c653a2063616c6c6572206973206e6f74207468652070656e64696e67206f776e65725361666545524332303a204552433230206f7065726174696f6e20646964206e6f742073756363656564a265627a7a7231582088b8ce8ea77dbb0e848e9d0c043e57a563e27b4c6165ad125e3892c592a9f52064736f6c63430005110032",
  "source": "pragma solidity 0.5.17;\n\nimport \"@openzeppelin/contracts-ethereum-package/contracts/ownership/Ownable.sol\";\nimport \"@openzeppelin/contracts-ethereum-package/contracts/token/ERC20/ERC20.sol\";\nimport \"@openzeppelin/contracts-ethereum-package/contracts/token/ERC20/SafeERC20.sol\";\nimport \"@openzeppelin/upgrades/contracts/Initializable.sol\";\n\nimport \"../Governance/Claimable.sol\";\n\ncontract CanReclaimTokens is Claimable {\n    using SafeERC20 for ERC20;\n\n    mapping(address => bool) private recoverableTokensBlacklist;\n\n    function initialize(address _nextOwner) public initializer {\n        Claimable.initialize(_nextOwner);\n    }\n\n    function blacklistRecoverableToken(address _token) public onlyOwner {\n        recoverableTokensBlacklist[_token] = true;\n    }\n\n    /// @notice Allow the owner of the contract to recover funds accidentally\n    /// sent to the contract. To withdraw ETH, the token should be set to `0x0`.\n    function recoverTokens(address _token) external onlyOwner {\n        require(\n            !recoverableTokensBlacklist[_token],\n            \"CanReclaimTokens: token is not recoverable\"\n        );\n\n        if (_token == address(0x0)) {\n            msg.sender.transfer(address(this).balance);\n        } else {\n            ERC20(_token).safeTransfer(\n                msg.sender,\n                ERC20(_token).balanceOf(address(this))\n            );\n        }\n    }\n}\n",
  "sourcePath": "/Users/jaz/Desktop/ren/dev/darknode-sol/contracts/libraries/CanReclaimTokens.sol",
  "compiler": {
    "name": "solc",
    "version": "0.5.17+commit.d19bba13.Emscripten.clang"
  },
  "schemaVersion": "3.4.3",
  "updatedAt": "2022-09-07T05:19:15.857Z",
  "devdoc": {
    "methods": {
      "isOwner()": {
        "details": "Returns true if the caller is the current owner."
      },
      "owner()": {
        "details": "Returns the address of the current owner."
      },
      "renounceOwnership()": {
        "details": "Leaves the contract without owner. It will not be possible to call `onlyOwner` functions anymore. Can only be called by the current owner.     * > Note: Renouncing ownership will leave the contract without an owner, thereby removing any functionality that is only available to the owner."
      }
    }
  },
  "userdoc": {
    "methods": {
      "recoverTokens(address)": {
        "notice": "Allow the owner of the contract to recover funds accidentally sent to the contract. To withdraw ETH, the token should be set to `0x0`."
      }
    }
  }
}