{
  "contractName": "Claimable",
  "abi": [
    {
      "anonymous": false,
      "inputs": [
        {
          "indexed": true,
          "internalType": "address",
          "name": "previousOwner",
          "type": "address"
        },
        {
          "indexed": true,
          "internalType": "address",
          "name": "newOwner",
          "type": "address"
        }
      ],
      "name": "OwnershipTransferred",
      "type": "event"
    },
    {
      "constant": true,
      "inputs": [],
      "name": "isOwner",
      "outputs": [
        {
          "internalType": "bool",
          "name": "",
          "type": "bool"
        }
      ],
      "payable": false,
      "stateMutability": "view",
      "type": "function"
    },
    {
      "constant": true,
      "inputs": [],
      "name": "owner",
      "outputs": [
        {
          "internalType": "address",
          "name": "",
          "type": "address"
        }
      ],
      "payable": false,
      "stateMutability": "view",
      "type": "function"
    },
    {
      "constant": true,
      "inputs": [],
      "name": "pendingOwner",
      "outputs": [
        {
          "internalType": "address",
          "name": "",
          "type": "address"
        }
      ],
      "payable": false,
      "stateMutability": "view",
      "type": "function"
    },
    {
      "constant": false,
      "inputs": [],
      "name": "renounceOwnership",
      "outputs": [],
      "payable": false,
      "stateMutability": "nonpayable",
      "type": "function"
    },
    {
      "constant": false,
      "inputs": [
        {
          "internalType": "address",
          "name": "_nextOwner",
          "type": "address"
        }
      ],
      "name": "initialize",
      "outputs": [],
      "payable": false,
      "stateMutability": "nonpayable",
      "type": "function"
    },
    {
      "constant": false,
      "inputs": [
        {
          "internalType": "address",
          "name": "newOwner",
          "type": "address"
        }
      ],
      "name": "transferOwnership",
      "outputs": [],
      "payable": false,
      "stateMutability": "nonpayable",
      "type": "function"
    },
    {
      "constant": false,
      "inputs": [
        {
          "internalType": "address",
          "name": "newOwner",
          "type": "address"
        }
      ],
      "name": "_directTransferOwnership",
      "outputs": [],
      "payable": false,
      "stateMutability": "nonpayable",
      "type": "function"
    },
    {
      "constant": false,
      "inputs": [],
      "name": "claimOwnership",
      "outputs": [],
      "payable": false,
      "stateMutability": "nonpayable",
      "type": "function"
    }
  ],
  "bytecode": "0x6080604052610723806100136000396000f3fe608060405234801561001057600080fd5b50600436106100885760003560e01c80638f32d59b1161005b5780638f32d59b146100e9578063c4d66de814610105578063e30c39781461012b578063f2fde38b1461013357610088565b8063238e5bc81461008d5780634e71e0c8146100b5578063715018a6146100bd5780638da5cb5b146100c5575b600080fd5b6100b3600480360360208110156100a357600080fd5b50356001600160a01b0316610159565b005b6100b36101be565b6100b361023e565b6100cd6102e1565b604080516001600160a01b039092168252519081900360200190f35b6100f16102f0565b604080519115158252519081900360200190f35b6100b36004803603602081101561011b57600080fd5b50356001600160a01b0316610316565b6100cd6103c2565b6100b36004803603602081101561014957600080fd5b50356001600160a01b03166103d1565b6101616102f0565b6101b2576040805162461bcd60e51b815260206004820181905260248201527f4f776e61626c653a2063616c6c6572206973206e6f7420746865206f776e6572604482015290519081900360640190fd5b6101bb816104d4565b50565b6066546001600160a01b03166101d2610575565b6001600160a01b0316146102175760405162461bcd60e51b815260040180806020018281038252602a8152602001806106c5602a913960400191505060405180910390fd5b60665461022c906001600160a01b03166104d4565b606680546001600160a01b0319169055565b6102466102f0565b610297576040805162461bcd60e51b815260206004820181905260248201527f4f776e61626c653a2063616c6c6572206973206e6f7420746865206f776e6572604482015290519081900360640190fd5b6033546040516000916001600160a01b0316907f8be0079c531659141344cd1fd0a4f28419497f9722a3daafe3b4186f6b6457e0908390a3603380546001600160a01b0319169055565b6033546001600160a01b031690565b6033546000906001600160a01b0316610307610575565b6001600160a01b031614905090565b600054610100900460ff168061032f575061032f610579565b8061033d575060005460ff16155b6103785760405162461bcd60e51b815260040180806020018281038252602e815260200180610697602e913960400191505060405180910390fd5b600054610100900460ff161580156103a3576000805460ff1961ff0019909116610100171660011790555b6103ac8261057f565b80156103be576000805461ff00191690555b5050565b6066546001600160a01b031681565b6103d96102f0565b61042a576040805162461bcd60e51b815260206004820181905260248201527f4f776e61626c653a2063616c6c6572206973206e6f7420746865206f776e6572604482015290519081900360640190fd5b6104326102e1565b6001600160a01b0316816001600160a01b03161415801561046157506066546001600160a01b03828116911614155b6104b2576040805162461bcd60e51b815260206004820152601c60248201527f436c61696d61626c653a20696e76616c6964206e6577206f776e657200000000604482015290519081900360640190fd5b606680546001600160a01b0319166001600160a01b0392909216919091179055565b6001600160a01b0381166105195760405162461bcd60e51b81526004018080602001828103825260268152602001806106716026913960400191505060405180910390fd5b6033546040516001600160a01b038084169216907f8be0079c531659141344cd1fd0a4f28419497f9722a3daafe3b4186f6b6457e090600090a3603380546001600160a01b0319166001600160a01b0392909216919091179055565b3390565b303b1590565b600054610100900460ff16806105985750610598610579565b806105a6575060005460ff16155b6105e15760405162461bcd60e51b815260040180806020018281038252602e815260200180610697602e913960400191505060405180910390fd5b600054610100900460ff1615801561060c576000805460ff1961ff0019909116610100171660011790555b603380546001600160a01b0319166001600160a01b0384811691909117918290556040519116906000907f8be0079c531659141344cd1fd0a4f28419497f9722a3daafe3b4186f6b6457e0908290a380156103be576000805461ff0019169055505056fe4f776e61626c653a206e6577206f776e657220697320746865207a65726f2061646472657373436f6e747261637420696e7374616e63652068617320616c7265616479206265656e20696e697469616c697a6564436c61696d61626c653a2063616c6c6572206973206e6f74207468652070656e64696e67206f776e6572a265627a7a72315820f574344cc53463d1763af7ae9d598d6c93908e6d25ba6d8ce95f70829418101764736f6c63430005110032",
  "source": "pragma solidity 0.5.17;\n\nimport \"@openzeppelin/contracts-ethereum-package/contracts/ownership/Ownable.sol\";\nimport \"@openzeppelin/upgrades/contracts/Initializable.sol\";\n\n/**\n * @title Claimable\n * @dev Extension for the Ownable contract, where the ownership needs to be claimed.\n * This allows the new owner to accept the transfer.\n */\ncontract Claimable is Initializable, Ownable {\n    address public pendingOwner;\n\n    function initialize(address _nextOwner) public initializer {\n        Ownable.initialize(_nextOwner);\n    }\n\n    modifier onlyPendingOwner() {\n        require(\n            _msgSender() == pendingOwner,\n            \"Claimable: caller is not the pending owner\"\n        );\n        _;\n    }\n\n    function transferOwnership(address newOwner) public onlyOwner {\n        require(\n            newOwner != owner() && newOwner != pendingOwner,\n            \"Claimable: invalid new owner\"\n        );\n        pendingOwner = newOwner;\n    }\n\n    // Allow skipping two-step transfer if the recipient is known to be a valid\n    // owner, for use in smart-contracts only.\n    function _directTransferOwnership(address newOwner) public onlyOwner {\n        _transferOwnership(newOwner);\n    }\n\n    function claimOwnership() public onlyPendingOwner {\n        _transferOwnership(pendingOwner);\n        delete pendingOwner;\n    }\n}\n",
  "sourcePath": "/Users/jaz/Desktop/ren/dev/darknode-sol/contracts/Governance/Claimable.sol",
  "compiler": {
    "name": "solc",
    "version": "0.5.17+commit.d19bba13.Emscripten.clang"
  },
  "schemaVersion": "3.4.3",
  "updatedAt": "2022-09-07T05:19:15.854Z",
  "devdoc": {
    "details": "Extension for the Ownable contract, where the ownership needs to be claimed. This allows the new owner to accept the transfer.",
    "methods": {
      "isOwner()": {
        "details": "Returns true if the caller is the current owner."
      },
      "owner()": {
        "details": "Returns the address of the current owner."
      },
      "renounceOwnership()": {
        "details": "Leaves the contract without owner. It will not be possible to call `onlyOwner` functions anymore. Can only be called by the current owner.     * > Note: Renouncing ownership will leave the contract without an owner, thereby removing any functionality that is only available to the owner."
      }
    },
    "title": "Claimable"
  },
  "userdoc": {
    "methods": {}
  }
}