{
  "contractName": "Claimer",
  "abi": [
    {
      "inputs": [
        {
          "internalType": "contract Claimable",
          "name": "_child",
          "type": "address"
        }
      ],
      "payable": false,
      "stateMutability": "nonpayable",
      "type": "constructor"
    },
    {
      "constant": false,
      "inputs": [
        {
          "internalType": "address",
          "name": "_newOwner",
          "type": "address"
        }
      ],
      "name": "transferStoreOwnership",
      "outputs": [],
      "payable": false,
      "stateMutability": "nonpayable",
      "type": "function"
    },
    {
      "constant": false,
      "inputs": [],
      "name": "claimStoreOwnership",
      "outputs": [],
      "payable": false,
      "stateMutability": "nonpayable",
      "type": "function"
    },
    {
      "constant": false,
      "inputs": [],
      "name": "claimTokenOwnership",
      "outputs": [],
      "payable": false,
      "stateMutability": "nonpayable",
      "type": "function"
    },
    {
      "constant": false,
      "inputs": [
        {
          "internalType": "address",
          "name": "_newOwner",
          "type": "address"
        }
      ],
      "name": "transferTokenOwnership",
      "outputs": [],
      "payable": false,
      "stateMutability": "nonpayable",
      "type": "function"
    }
  ],
  "bytecode": "0x608060405234801561001057600080fd5b506040516101dc3803806101dc8339818101604052602081101561003357600080fd5b5051600080546001600160a01b039092166001600160a01b0319909216919091179055610177806100656000396000f3fe608060405234801561001057600080fd5b506004361061004c5760003560e01c806310731a651461005157806321e6b53d1461005b5780636fd689e814610051578063c2250a991461005b575b600080fd5b610059610081565b005b6100596004803603602081101561007157600080fd5b50356001600160a01b03166100dc565b60008054604080516309ce3c1960e31b815290516001600160a01b0390921692634e71e0c89260048084019382900301818387803b1580156100c257600080fd5b505af11580156100d6573d6000803e3d6000fd5b50505050565b600080546040805163f2fde38b60e01b81526001600160a01b0385811660048301529151919092169263f2fde38b926024808201939182900301818387803b15801561012757600080fd5b505af115801561013b573d6000803e3d6000fd5b505050505056fea265627a7a72315820ce7b14cff15b7588b811fc1b17a5ecaff2ee0759d747e983cf9ad92ca7bd4fa864736f6c63430005110032",
  "source": "pragma solidity 0.5.17;\n\nimport \"../Governance/Claimable.sol\";\n\ncontract Claimer {\n    Claimable child;\n\n    constructor(Claimable _child) public {\n        child = _child;\n    }\n\n    function transferStoreOwnership(address _newOwner) external {\n        child.transferOwnership(_newOwner);\n    }\n\n    function claimStoreOwnership() external {\n        child.claimOwnership();\n    }\n\n    function claimTokenOwnership() public {\n        child.claimOwnership();\n    }\n\n    function transferTokenOwnership(address _newOwner) public {\n        child.transferOwnership(address(_newOwner));\n    }\n}\n",
  "sourcePath": "/Users/jaz/Desktop/ren/dev/darknode-sol/contracts/test/Claimer.sol",
  "compiler": {
    "name": "solc",
    "version": "0.5.17+commit.d19bba13.Emscripten.clang"
  },
  "schemaVersion": "3.4.3",
  "updatedAt": "2022-09-07T05:19:15.866Z",
  "devdoc": {
    "methods": {}
  },
  "userdoc": {
    "methods": {}
  }
}