{
  "contractName": "DarknodeRegistryStore",
  "abi": [
    {
      "inputs": [
        {
          "internalType": "string",
          "name": "_VERSION",
          "type": "string"
        },
        {
          "internalType": "contract RenToken",
          "name": "_ren",
          "type": "address"
        }
      ],
      "payable": false,
      "stateMutability": "nonpayable",
      "type": "constructor"
    },
    {
      "anonymous": false,
      "inputs": [
        {
          "indexed": true,
          "internalType": "address",
          "name": "previousOwner",
          "type": "address"
        },
        {
          "indexed": true,
          "internalType": "address",
          "name": "newOwner",
          "type": "address"
        }
      ],
      "name": "OwnershipTransferred",
      "type": "event"
    },
    {
      "constant": true,
      "inputs": [],
      "name": "VERSION",
      "outputs": [
        {
          "internalType": "string",
          "name": "",
          "type": "string"
        }
      ],
      "payable": false,
      "stateMutability": "view",
      "type": "function"
    },
    {
      "constant": false,
      "inputs": [
        {
          "internalType": "address",
          "name": "newOwner",
          "type": "address"
        }
      ],
      "name": "_directTransferOwnership",
      "outputs": [],
      "payable": false,
      "stateMutability": "nonpayable",
      "type": "function"
    },
    {
      "constant": false,
      "inputs": [
        {
          "internalType": "address",
          "name": "_token",
          "type": "address"
        }
      ],
      "name": "blacklistRecoverableToken",
      "outputs": [],
      "payable": false,
      "stateMutability": "nonpayable",
      "type": "function"
    },
    {
      "constant": false,
      "inputs": [],
      "name": "claimOwnership",
      "outputs": [],
      "payable": false,
      "stateMutability": "nonpayable",
      "type": "function"
    },
    {
      "constant": false,
      "inputs": [
        {
          "internalType": "address",
          "name": "_nextOwner",
          "type": "address"
        }
      ],
      "name": "initialize",
      "outputs": [],
      "payable": false,
      "stateMutability": "nonpayable",
      "type": "function"
    },
    {
      "constant": true,
      "inputs": [],
      "name": "isOwner",
      "outputs": [
        {
          "internalType": "bool",
          "name": "",
          "type": "bool"
        }
      ],
      "payable": false,
      "stateMutability": "view",
      "type": "function"
    },
    {
      "constant": true,
      "inputs": [],
      "name": "owner",
      "outputs": [
        {
          "internalType": "address",
          "name": "",
          "type": "address"
        }
      ],
      "payable": false,
      "stateMutability": "view",
      "type": "function"
    },
    {
      "constant": true,
      "inputs": [],
      "name": "pendingOwner",
      "outputs": [
        {
          "internalType": "address",
          "name": "",
          "type": "address"
        }
      ],
      "payable": false,
      "stateMutability": "view",
      "type": "function"
    },
    {
      "constant": false,
      "inputs": [
        {
          "internalType": "address",
          "name": "_token",
          "type": "address"
        }
      ],
      "name": "recoverTokens",
      "outputs": [],
      "payable": false,
      "stateMutability": "nonpayable",
      "type": "function"
    },
    {
      "constant": true,
      "inputs": [],
      "name": "ren",
      "outputs": [
        {
          "internalType": "contract RenToken",
          "name": "",
          "type": "address"
        }
      ],
      "payable": false,
      "stateMutability": "view",
      "type": "function"
    },
    {
      "constant": false,
      "inputs": [],
      "name": "renounceOwnership",
      "outputs": [],
      "payable": false,
      "stateMutability": "nonpayable",
      "type": "function"
    },
    {
      "constant": false,
      "inputs": [
        {
          "internalType": "address",
          "name": "newOwner",
          "type": "address"
        }
      ],
      "name": "transferOwnership",
      "outputs": [],
      "payable": false,
      "stateMutability": "nonpayable",
      "type": "function"
    },
    {
      "constant": false,
      "inputs": [
        {
          "internalType": "address",
          "name": "_darknodeID",
          "type": "address"
        },
        {
          "internalType": "address payable",
          "name": "_darknodeOperator",
          "type": "address"
        },
        {
          "internalType": "uint256",
          "name": "_bond",
          "type": "uint256"
        },
        {
          "internalType": "bytes",
          "name": "_publicKey",
          "type": "bytes"
        },
        {
          "internalType": "uint256",
          "name": "_registeredAt",
          "type": "uint256"
        },
        {
          "internalType": "uint256",
          "name": "_deregisteredAt",
          "type": "uint256"
        }
      ],
      "name": "appendDarknode",
      "outputs": [],
      "payable": false,
      "stateMutability": "nonpayable",
      "type": "function"
    },
    {
      "constant": true,
      "inputs": [],
      "name": "begin",
      "outputs": [
        {
          "internalType": "address",
          "name": "",
          "type": "address"
        }
      ],
      "payable": false,
      "stateMutability": "view",
      "type": "function"
    },
    {
      "constant": true,
      "inputs": [
        {
          "internalType": "address",
          "name": "darknodeID",
          "type": "address"
        }
      ],
      "name": "next",
      "outputs": [
        {
          "internalType": "address",
          "name": "",
          "type": "address"
        }
      ],
      "payable": false,
      "stateMutability": "view",
      "type": "function"
    },
    {
      "constant": false,
      "inputs": [
        {
          "internalType": "address",
          "name": "darknodeID",
          "type": "address"
        }
      ],
      "name": "removeDarknode",
      "outputs": [],
      "payable": false,
      "stateMutability": "nonpayable",
      "type": "function"
    },
    {
      "constant": false,
      "inputs": [
        {
          "internalType": "address",
          "name": "darknodeID",
          "type": "address"
        },
        {
          "internalType": "uint256",
          "name": "decreasedBond",
          "type": "uint256"
        }
      ],
      "name": "updateDarknodeBond",
      "outputs": [],
      "payable": false,
      "stateMutability": "nonpayable",
      "type": "function"
    },
    {
      "constant": false,
      "inputs": [
        {
          "internalType": "address",
          "name": "darknodeID",
          "type": "address"
        },
        {
          "internalType": "uint256",
          "name": "deregisteredAt",
          "type": "uint256"
        }
      ],
      "name": "updateDarknodeDeregisteredAt",
      "outputs": [],
      "payable": false,
      "stateMutability": "nonpayable",
      "type": "function"
    },
    {
      "constant": true,
      "inputs": [
        {
          "internalType": "address",
          "name": "darknodeID",
          "type": "address"
        }
      ],
      "name": "darknodeOperator",
      "outputs": [
        {
          "internalType": "address payable",
          "name": "",
          "type": "address"
        }
      ],
      "payable": false,
      "stateMutability": "view",
      "type": "function"
    },
    {
      "constant": true,
      "inputs": [
        {
          "internalType": "address",
          "name": "darknodeID",
          "type": "address"
        }
      ],
      "name": "darknodeBond",
      "outputs": [
        {
          "internalType": "uint256",
          "name": "",
          "type": "uint256"
        }
      ],
      "payable": false,
      "stateMutability": "view",
      "type": "function"
    },
    {
      "constant": true,
      "inputs": [
        {
          "internalType": "address",
          "name": "darknodeID",
          "type": "address"
        }
      ],
      "name": "darknodeRegisteredAt",
      "outputs": [
        {
          "internalType": "uint256",
          "name": "",
          "type": "uint256"
        }
      ],
      "payable": false,
      "stateMutability": "view",
      "type": "function"
    },
    {
      "constant": true,
      "inputs": [
        {
          "internalType": "address",
          "name": "darknodeID",
          "type": "address"
        }
      ],
      "name": "darknodeDeregisteredAt",
      "outputs": [
        {
          "internalType": "uint256",
          "name": "",
          "type": "uint256"
        }
      ],
      "payable": false,
      "stateMutability": "view",
      "type": "function"
    },
    {
      "constant": true,
      "inputs": [
        {
          "internalType": "address",
          "name": "darknodeID",
          "type": "address"
        }
      ],
      "name": "darknodePublicKey",
      "outputs": [
        {
          "internalType": "bytes",
          "name": "",
          "type": "bytes"
        }
      ],
      "payable": false,
      "stateMutability": "view",
      "type": "function"
    }
  ],
  "bytecode": "0x60806040523480156200001157600080fd5b50604051620023af380380620023af833981810160405260408110156200003757600080fd5b81019080805160405193929190846401000000008211156200005857600080fd5b9083019060208201858111156200006e57600080fd5b82516401000000008111828201881017156200008957600080fd5b82525081516020918201929091019080838360005b83811015620000b85781810151838201526020016200009e565b50505050905090810190601f168015620000e65780820380516001836020036101000a031916815260200191505b50604052602090810151925062000109915033906200153d6200016a821b17901c565b6200011f336200023460201b62000cac1760201c565b815162000134906068906020850190620004ae565b50606c80546001600160a01b0319166001600160a01b038381169190911791829055620001629116620002e7565b505062000550565b600054610100900460ff16806200018f57506200018f6001600160e01b036200037016565b806200019e575060005460ff16155b620001db5760405162461bcd60e51b815260040180806020018281038252602e81526020018062002381602e913960400191505060405180910390fd5b600054610100900460ff1615801562000207576000805460ff1961ff0019909116610100171660011790555b6200021d826200037760201b620019ce1760201c565b801562000230576000805461ff00191690555b5050565b600054610100900460ff1680620002595750620002596001600160e01b036200037016565b8062000268575060005460ff16155b620002a55760405162461bcd60e51b815260040180806020018281038252602e81526020018062002381602e913960400191505060405180910390fd5b600054610100900460ff16158015620002d1576000805460ff1961ff0019909116610100171660011790555b6200021d826200016a60201b6200153d1760201c565b620002fa6001600160e01b036200047916565b6200034c576040805162461bcd60e51b815260206004820181905260248201527f4f776e61626c653a2063616c6c6572206973206e6f7420746865206f776e6572604482015290519081900360640190fd5b6001600160a01b03166000908152606760205260409020805460ff19166001179055565b303b155b90565b600054610100900460ff16806200039c57506200039c6001600160e01b036200037016565b80620003ab575060005460ff16155b620003e85760405162461bcd60e51b815260040180806020018281038252602e81526020018062002381602e913960400191505060405180910390fd5b600054610100900460ff1615801562000414576000805460ff1961ff0019909116610100171660011790555b603380546001600160a01b0319166001600160a01b0384811691909117918290556040519116906000907f8be0079c531659141344cd1fd0a4f28419497f9722a3daafe3b4186f6b6457e0908290a3801562000230576000805461ff00191690555050565b6033546000906001600160a01b03166200049b6001600160e01b03620004aa16565b6001600160a01b031614905090565b3390565b828054600181600116156101000203166002900490600052602060002090601f016020900481019282601f10620004f157805160ff191683800117855562000521565b8280016001018555821562000521579182015b828111156200052157825182559160200191906001019062000504565b506200052f92915062000533565b5090565b6200037491905b808211156200052f57600081556001016200053a565b611e2180620005606000396000f3fe608060405234801561001057600080fd5b506004361061014d5760003560e01c8063a85ef579116100c3578063e30c39781161007c578063e30c3978146103de578063ee594a50146103e6578063f2fde38b14610481578063f65d901c146104a7578063fbc402fc146104cd578063ffa1ad74146104f95761014d565b8063a85ef5791461028a578063ab73e31614610320578063b68d931914610346578063c4d66de81461036c578063cad4135714610392578063e2d7c64c146103b85761014d565b806341b443921161011557806341b44392146102285780634e71e0c81461024e578063715018a6146102565780638a9b40671461025e5780638da5cb5b146102665780638f32d59b1461026e5761014d565b806301930b6e1461015257806316114acd1461018a5780631bce6ff3146101b2578063238e5bc8146101d65780633ac39d4b146101fc575b600080fd5b6101786004803603602081101561016857600080fd5b50356001600160a01b0316610501565b60408051918252519081900360200190f35b6101b0600480360360208110156101a057600080fd5b50356001600160a01b0316610569565b005b6101ba6106da565b604080516001600160a01b039092168252519081900360200190f35b6101b0600480360360208110156101ec57600080fd5b50356001600160a01b0316610733565b6101b06004803603604081101561021257600080fd5b506001600160a01b038135169060200135610783565b6101b06004803603602081101561023e57600080fd5b50356001600160a01b03166107e9565b6101b061095d565b6101b06109dd565b6101ba610a6e565b6101ba610a7d565b610276610a8c565b604080519115158252519081900360200190f35b6101b0600480360360c08110156102a057600080fd5b6001600160a01b038235811692602081013590911691604082013591908101906080810160608201356401000000008111156102db57600080fd5b8201836020820111156102ed57600080fd5b8035906020019184600183028401116401000000008311171561030f57600080fd5b919350915080359060200135610ab2565b6101ba6004803603602081101561033657600080fd5b50356001600160a01b0316610bea565b6101ba6004803603602081101561035c57600080fd5b50356001600160a01b0316610c44565b6101b06004803603602081101561038257600080fd5b50356001600160a01b0316610cac565b610178600480360360208110156103a857600080fd5b50356001600160a01b0316610d57565b610178600480360360208110156103ce57600080fd5b50356001600160a01b0316610dbf565b6101ba610e27565b61040c600480360360208110156103fc57600080fd5b50356001600160a01b0316610e36565b6040805160208082528351818301528351919283929083019185019080838360005b8381101561044657818101518382015260200161042e565b50505050905090810190601f1680156104735780820380516001836020036101000a031916815260200191505b509250505060405180910390f35b6101b06004803603602081101561049757600080fd5b50356001600160a01b0316610f2b565b6101b0600480360360208110156104bd57600080fd5b50356001600160a01b031661101c565b6101b0600480360360408110156104e357600080fd5b506001600160a01b038135169060200135611087565b61040c611223565b600061050b610a8c565b61054a576040805162461bcd60e51b81526020600482018190526024820152600080516020611d22833981519152604482015290519081900360640190fd5b506001600160a01b031660009081526069602052604090206003015490565b610571610a8c565b6105b0576040805162461bcd60e51b81526020600482018190526024820152600080516020611d22833981519152604482015290519081900360640190fd5b6001600160a01b03811660009081526067602052604090205460ff16156106085760405162461bcd60e51b815260040180806020018281038252602a815260200180611ccd602a913960400191505060405180910390fd5b6001600160a01b0381166106485760405133904780156108fc02916000818181858888f19350505050158015610642573d6000803e3d6000fd5b506106d7565b604080516370a0823160e01b815230600482015290516106d79133916001600160a01b038516916370a08231916024808301926020929190829003018186803b15801561069457600080fd5b505afa1580156106a8573d6000803e3d6000fd5b505050506040513d60208110156106be57600080fd5b50516001600160a01b038416919063ffffffff6112b116565b50565b60006106e4610a8c565b610723576040805162461bcd60e51b81526020600482018190526024820152600080516020611d22833981519152604482015290519081900360640190fd5b61072d606a611303565b90505b90565b61073b610a8c565b61077a576040805162461bcd60e51b81526020600482018190526024820152600080516020611d22833981519152604482015290519081900360640190fd5b6106d781611322565b61078b610a8c565b6107ca576040805162461bcd60e51b81526020600482018190526024820152600080516020611d22833981519152604482015290519081900360640190fd5b6001600160a01b03909116600090815260696020526040902060030155565b6107f1610a8c565b610830576040805162461bcd60e51b81526020600482018190526024820152600080516020611d22833981519152604482015290519081900360640190fd5b6001600160a01b038116600090815260696020526040812060018101805482546001600160a01b03191683559083905560028201839055600382018390559161087c6004830182611b92565b5050610889606a836113c3565b606c546001600160a01b031663a9059cbb6108a2610a7d565b836040518363ffffffff1660e01b815260040180836001600160a01b03166001600160a01b0316815260200182815260200192505050602060405180830381600087803b1580156108f257600080fd5b505af1158015610906573d6000803e3d6000fd5b505050506040513d602081101561091c57600080fd5b50516109595760405162461bcd60e51b815260040180806020018281038252602b815260200180611cf7602b913960400191505060405180910390fd5b5050565b6066546001600160a01b03166109716114a5565b6001600160a01b0316146109b65760405162461bcd60e51b815260040180806020018281038252602a815260200180611d70602a913960400191505060405180910390fd5b6066546109cb906001600160a01b0316611322565b606680546001600160a01b0319169055565b6109e5610a8c565b610a24576040805162461bcd60e51b81526020600482018190526024820152600080516020611d22833981519152604482015290519081900360640190fd5b6033546040516000916001600160a01b0316907f8be0079c531659141344cd1fd0a4f28419497f9722a3daafe3b4186f6b6457e0908390a3603380546001600160a01b0319169055565b606c546001600160a01b031681565b6033546001600160a01b031690565b6033546000906001600160a01b0316610aa36114a5565b6001600160a01b031614905090565b610aba610a8c565b610af9576040805162461bcd60e51b81526020600482018190526024820152600080516020611d22833981519152604482015290519081900360640190fd5b610b01611bd6565b6040518060a00160405280886001600160a01b0316815260200187815260200184815260200183815260200186868080601f01602080910402602001604051908101604052809392919081815260200183838082843760009201829052509390945250506001600160a01b038b8116825260696020908152604092839020855181546001600160a01b031916931692909217825584810151600183015591840151600282015560608401516003820155608084015180519495508594919350610bd1926004850192910190611c0e565b50905050610be0606a896114a9565b5050505050505050565b6000610bf4610a8c565b610c33576040805162461bcd60e51b81526020600482018190526024820152600080516020611d22833981519152604482015290519081900360640190fd5b610c3e606a836114bc565b92915050565b6000610c4e610a8c565b610c8d576040805162461bcd60e51b81526020600482018190526024820152600080516020611d22833981519152604482015290519081900360640190fd5b506001600160a01b039081166000908152606960205260409020541690565b600054610100900460ff1680610cc55750610cc5611537565b80610cd3575060005460ff16155b610d0e5760405162461bcd60e51b815260040180806020018281038252602e815260200180611d42602e913960400191505060405180910390fd5b600054610100900460ff16158015610d39576000805460ff1961ff0019909116610100171660011790555b610d428261153d565b8015610959576000805461ff00191690555050565b6000610d61610a8c565b610da0576040805162461bcd60e51b81526020600482018190526024820152600080516020611d22833981519152604482015290519081900360640190fd5b506001600160a01b031660009081526069602052604090206001015490565b6000610dc9610a8c565b610e08576040805162461bcd60e51b81526020600482018190526024820152600080516020611d22833981519152604482015290519081900360640190fd5b506001600160a01b031660009081526069602052604090206002015490565b6066546001600160a01b031681565b6060610e40610a8c565b610e7f576040805162461bcd60e51b81526020600482018190526024820152600080516020611d22833981519152604482015290519081900360640190fd5b6001600160a01b03821660009081526069602090815260409182902060040180548351601f600260001961010060018616150201909316929092049182018490048402810184019094528084529091830182828015610f1f5780601f10610ef457610100808354040283529160200191610f1f565b820191906000526020600020905b815481529060010190602001808311610f0257829003601f168201915b50505050509050919050565b610f33610a8c565b610f72576040805162461bcd60e51b81526020600482018190526024820152600080516020611d22833981519152604482015290519081900360640190fd5b610f7a610a7d565b6001600160a01b0316816001600160a01b031614158015610fa957506066546001600160a01b03828116911614155b610ffa576040805162461bcd60e51b815260206004820152601c60248201527f436c61696d61626c653a20696e76616c6964206e6577206f776e657200000000604482015290519081900360640190fd5b606680546001600160a01b0319166001600160a01b0392909216919091179055565b611024610a8c565b611063576040805162461bcd60e51b81526020600482018190526024820152600080516020611d22833981519152604482015290519081900360640190fd5b6001600160a01b03166000908152606760205260409020805460ff19166001179055565b61108f610a8c565b6110ce576040805162461bcd60e51b81526020600482018190526024820152600080516020611d22833981519152604482015290519081900360640190fd5b6001600160a01b0382166000908152606960205260409020600101548082106111285760405162461bcd60e51b8152600401808060200182810382526029815260200180611dc46029913960400191505060405180910390fd5b6001600160a01b038084166000908152606960205260409020600101839055606c541663a9059cbb611158610a7d565b611168848663ffffffff6115d316565b6040518363ffffffff1660e01b815260040180836001600160a01b03166001600160a01b0316815260200182815260200192505050602060405180830381600087803b1580156111b757600080fd5b505af11580156111cb573d6000803e3d6000fd5b505050506040513d60208110156111e157600080fd5b505161121e5760405162461bcd60e51b815260040180806020018281038252602b815260200180611cf7602b913960400191505060405180910390fd5b505050565b6068805460408051602060026001851615610100026000190190941693909304601f810184900484028201840190925281815292918301828280156112a95780601f1061127e576101008083540402835291602001916112a9565b820191906000526020600020905b81548152906001019060200180831161128c57829003601f168201915b505050505081565b604080516001600160a01b038416602482015260448082018490528251808303909101815260649091019091526020810180516001600160e01b031663a9059cbb60e01b17905261121e90849061161c565b600080805260209190915260409020600101546001600160a01b031690565b6001600160a01b0381166113675760405162461bcd60e51b8152600401808060200182810382526026815260200180611ca76026913960400191505060405180910390fd5b6033546040516001600160a01b038084169216907f8be0079c531659141344cd1fd0a4f28419497f9722a3daafe3b4186f6b6457e090600090a3603380546001600160a01b0319166001600160a01b0392909216919091179055565b6113cd82826117da565b611418576040805162461bcd60e51b8152602060048201526017602482015276131a5b9ad959131a5cdd0e881b9bdd081a5b881b1a5cdd604a1b604482015290519081900360640190fd5b6001600160a01b039081166000818152602084905260408082208054600180830180546101009384900489168088528688208401805492909a166001600160a01b03199283168117909a559887529486208054610100600160a81b03191698909302979097179091559390925281546001600160a81b031916909155825416909155018054600019019055565b3390565b610959826114b6846117f9565b8361181b565b60006114c883836117da565b611513576040805162461bcd60e51b8152602060048201526017602482015276131a5b9ad959131a5cdd0e881b9bdd081a5b881b1a5cdd604a1b604482015290519081900360640190fd5b506001600160a01b0390811660009081526020929092526040909120600101541690565b303b1590565b600054610100900460ff16806115565750611556611537565b80611564575060005460ff16155b61159f5760405162461bcd60e51b815260040180806020018281038252602e815260200180611d42602e913960400191505060405180910390fd5b600054610100900460ff161580156115ca576000805460ff1961ff0019909116610100171660011790555b610d42826119ce565b600061161583836040518060400160405280601e81526020017f536166654d6174683a207375627472616374696f6e206f766572666c6f770000815250611abf565b9392505050565b61162e826001600160a01b0316611b56565b61167f576040805162461bcd60e51b815260206004820152601f60248201527f5361666545524332303a2063616c6c20746f206e6f6e2d636f6e747261637400604482015290519081900360640190fd5b60006060836001600160a01b0316836040518082805190602001908083835b602083106116bd5780518252601f19909201916020918201910161169e565b6001836020036101000a0380198251168184511680821785525050505050509050019150506000604051808303816000865af19150503d806000811461171f576040519150601f19603f3d011682016040523d82523d6000602084013e611724565b606091505b50915091508161177b576040805162461bcd60e51b815260206004820181905260248201527f5361666545524332303a206c6f772d6c6576656c2063616c6c206661696c6564604482015290519081900360640190fd5b8051156117d45780806020019051602081101561179757600080fd5b50516117d45760405162461bcd60e51b815260040180806020018281038252602a815260200180611d9a602a913960400191505060405180910390fd5b50505050565b6001600160a01b03166000908152602091909152604090205460ff1690565b60008080526020829052604090205461010090046001600160a01b0316919050565b6001600160a01b038116611876576040805162461bcd60e51b815260206004820152601b60248201527f4c696e6b65644c6973743a20696e76616c696420616464726573730000000000604482015290519081900360640190fd5b61188083826117da565b156118d2576040805162461bcd60e51b815260206004820152601b60248201527f4c696e6b65644c6973743a20616c726561647920696e206c6973740000000000604482015290519081900360640190fd5b6118dc83836117da565b806118ee57506001600160a01b038216155b611939576040805162461bcd60e51b8152602060048201526017602482015276131a5b9ad959131a5cdd0e881b9bdd081a5b881b1a5cdd604a1b604482015290519081900360640190fd5b6001600160a01b03918216600081815260208590526040808220600190810180549587168085528385208054610100600160a81b0319908116610100988902178255818501805499909a166001600160a01b0319998a168117909a558354909816821790925596845291832080549095169386029390931790935592909252805460ff19168217905590810180549091019055565b600054610100900460ff16806119e757506119e7611537565b806119f5575060005460ff16155b611a305760405162461bcd60e51b815260040180806020018281038252602e815260200180611d42602e913960400191505060405180910390fd5b600054610100900460ff16158015611a5b576000805460ff1961ff0019909116610100171660011790555b603380546001600160a01b0319166001600160a01b0384811691909117918290556040519116906000907f8be0079c531659141344cd1fd0a4f28419497f9722a3daafe3b4186f6b6457e0908290a38015610959576000805461ff00191690555050565b60008184841115611b4e5760405162461bcd60e51b81526004018080602001828103825283818151815260200191508051906020019080838360005b83811015611b13578181015183820152602001611afb565b50505050905090810190601f168015611b405780820380516001836020036101000a031916815260200191505b509250505060405180910390fd5b505050900390565b6000813f7fc5d2460186f7233c927e7db2dcc703c0e500b653ca82273b7bfad8045d85a470818114801590611b8a57508115155b949350505050565b50805460018160011615610100020316600290046000825580601f10611bb857506106d7565b601f0160209004906000526020600020908101906106d79190611c8c565b6040518060a0016040528060006001600160a01b03168152602001600081526020016000815260200160008152602001606081525090565b828054600181600116156101000203166002900490600052602060002090601f016020900481019282601f10611c4f57805160ff1916838001178555611c7c565b82800160010185558215611c7c579182015b82811115611c7c578251825591602001919060010190611c61565b50611c88929150611c8c565b5090565b61073091905b80821115611c885760008155600101611c9256fe4f776e61626c653a206e6577206f776e657220697320746865207a65726f206164647265737343616e5265636c61696d546f6b656e733a20746f6b656e206973206e6f74207265636f76657261626c654461726b6e6f6465526567697374727953746f72653a20626f6e64207472616e73666572206661696c65644f776e61626c653a2063616c6c6572206973206e6f7420746865206f776e6572436f6e747261637420696e7374616e63652068617320616c7265616479206265656e20696e697469616c697a6564436c61696d61626c653a2063616c6c6572206973206e6f74207468652070656e64696e67206f776e65725361666545524332303a204552433230206f7065726174696f6e20646964206e6f7420737563636565644461726b6e6f6465526567697374727953746f72653a20626f6e64206e6f7420646563726561736564a265627a7a72315820f16bdf52d678500f43f9a1fc6e2b37cac4206c087c855e91394bca38bc09afb264736f6c63430005110032436f6e747261637420696e7374616e63652068617320616c7265616479206265656e20696e697469616c697a6564",
  "source": "pragma solidity 0.5.17;\n\nimport \"@openzeppelin/contracts-ethereum-package/contracts/math/SafeMath.sol\";\n\nimport \"../Governance/Claimable.sol\";\nimport \"../libraries/LinkedList.sol\";\nimport \"../RenToken/RenToken.sol\";\nimport \"../libraries/CanReclaimTokens.sol\";\n\n/// @notice This contract stores data and funds for the DarknodeRegistry\n/// contract. The data / fund logic and storage have been separated to improve\n/// upgradability.\ncontract DarknodeRegistryStore is Claimable, CanReclaimTokens {\n    using SafeMath for uint256;\n\n    string public VERSION; // Passed in as a constructor parameter.\n\n    /// @notice Darknodes are stored in the darknode struct. The owner is the\n    /// address that registered the darknode, the bond is the amount of REN that\n    /// was transferred during registration, and the public key is the\n    /// encryption key that should be used when sending sensitive information to\n    /// the darknode.\n    struct Darknode {\n        // The owner of a Darknode is the address that called the register\n        // function. The owner is the only address that is allowed to\n        // deregister the Darknode, unless the Darknode is slashed for\n        // malicious behavior.\n        address payable owner;\n        // The bond is the amount of REN submitted as a bond by the Darknode.\n        // This amount is reduced when the Darknode is slashed for malicious\n        // behavior.\n        uint256 bond;\n        // The block number at which the Darknode is considered registered.\n        uint256 registeredAt;\n        // The block number at which the Darknode is considered deregistered.\n        uint256 deregisteredAt;\n        // The public key used by this Darknode for encrypting sensitive data\n        // off chain. It is assumed that the Darknode has access to the\n        // respective private key, and that there is an agreement on the format\n        // of the public key.\n        bytes publicKey;\n    }\n\n    /// Registry data.\n    mapping(address => Darknode) private darknodeRegistry;\n    LinkedList.List private darknodes;\n\n    // RenToken.\n    RenToken public ren;\n\n    /// @notice The contract constructor.\n    ///\n    /// @param _VERSION A string defining the contract version.\n    /// @param _ren The address of the RenToken contract.\n    constructor(string memory _VERSION, RenToken _ren) public {\n        Claimable.initialize(msg.sender);\n        CanReclaimTokens.initialize(msg.sender);\n        VERSION = _VERSION;\n        ren = _ren;\n        blacklistRecoverableToken(address(ren));\n    }\n\n    /// @notice Instantiates a darknode and appends it to the darknodes\n    /// linked-list.\n    ///\n    /// @param _darknodeID The darknode's ID.\n    /// @param _darknodeOperator The darknode's owner's address.\n    /// @param _bond The darknode's bond value.\n    /// @param _publicKey The darknode's public key.\n    /// @param _registeredAt The time stamp when the darknode is registered.\n    /// @param _deregisteredAt The time stamp when the darknode is deregistered.\n    function appendDarknode(\n        address _darknodeID,\n        address payable _darknodeOperator,\n        uint256 _bond,\n        bytes calldata _publicKey,\n        uint256 _registeredAt,\n        uint256 _deregisteredAt\n    ) external onlyOwner {\n        Darknode memory darknode =\n            Darknode({\n                owner: _darknodeOperator,\n                bond: _bond,\n                publicKey: _publicKey,\n                registeredAt: _registeredAt,\n                deregisteredAt: _deregisteredAt\n            });\n        darknodeRegistry[_darknodeID] = darknode;\n        LinkedList.append(darknodes, _darknodeID);\n    }\n\n    /// @notice Returns the address of the first darknode in the store.\n    function begin() external view onlyOwner returns (address) {\n        return LinkedList.begin(darknodes);\n    }\n\n    /// @notice Returns the address of the next darknode in the store after the\n    /// given address.\n    function next(address darknodeID)\n        external\n        view\n        onlyOwner\n        returns (address)\n    {\n        return LinkedList.next(darknodes, darknodeID);\n    }\n\n    /// @notice Removes a darknode from the store and transfers its bond to the\n    /// owner of this contract.\n    function removeDarknode(address darknodeID) external onlyOwner {\n        uint256 bond = darknodeRegistry[darknodeID].bond;\n        delete darknodeRegistry[darknodeID];\n        LinkedList.remove(darknodes, darknodeID);\n        require(\n            ren.transfer(owner(), bond),\n            \"DarknodeRegistryStore: bond transfer failed\"\n        );\n    }\n\n    /// @notice Updates the bond of a darknode. The new bond must be smaller\n    /// than the previous bond of the darknode.\n    function updateDarknodeBond(address darknodeID, uint256 decreasedBond)\n        external\n        onlyOwner\n    {\n        uint256 previousBond = darknodeRegistry[darknodeID].bond;\n        require(\n            decreasedBond < previousBond,\n            \"DarknodeRegistryStore: bond not decreased\"\n        );\n        darknodeRegistry[darknodeID].bond = decreasedBond;\n        require(\n            ren.transfer(owner(), previousBond.sub(decreasedBond)),\n            \"DarknodeRegistryStore: bond transfer failed\"\n        );\n    }\n\n    /// @notice Updates the deregistration timestamp of a darknode.\n    function updateDarknodeDeregisteredAt(\n        address darknodeID,\n        uint256 deregisteredAt\n    ) external onlyOwner {\n        darknodeRegistry[darknodeID].deregisteredAt = deregisteredAt;\n    }\n\n    /// @notice Returns the owner of a given darknode.\n    function darknodeOperator(address darknodeID)\n        external\n        view\n        onlyOwner\n        returns (address payable)\n    {\n        return darknodeRegistry[darknodeID].owner;\n    }\n\n    /// @notice Returns the bond of a given darknode.\n    function darknodeBond(address darknodeID)\n        external\n        view\n        onlyOwner\n        returns (uint256)\n    {\n        return darknodeRegistry[darknodeID].bond;\n    }\n\n    /// @notice Returns the registration time of a given darknode.\n    function darknodeRegisteredAt(address darknodeID)\n        external\n        view\n        onlyOwner\n        returns (uint256)\n    {\n        return darknodeRegistry[darknodeID].registeredAt;\n    }\n\n    /// @notice Returns the deregistration time of a given darknode.\n    function darknodeDeregisteredAt(address darknodeID)\n        external\n        view\n        onlyOwner\n        returns (uint256)\n    {\n        return darknodeRegistry[darknodeID].deregisteredAt;\n    }\n\n    /// @notice Returns the encryption public key of a given darknode.\n    function darknodePublicKey(address darknodeID)\n        external\n        view\n        onlyOwner\n        returns (bytes memory)\n    {\n        return darknodeRegistry[darknodeID].publicKey;\n    }\n}\n",
  "sourcePath": "/Users/jaz/Desktop/ren/dev/darknode-sol/contracts/DarknodeRegistry/DarknodeRegistryStore.sol",
  "compiler": {
    "name": "solc",
    "version": "0.5.17+commit.d19bba13.Emscripten.clang"
  },
  "schemaVersion": "3.4.3",
  "updatedAt": "2022-09-07T05:46:11.368Z",
  "networkType": "ethereum",
  "devdoc": {
    "methods": {
      "appendDarknode(address,address,uint256,bytes,uint256,uint256)": {
        "params": {
          "_bond": "The darknode's bond value.",
          "_darknodeID": "The darknode's ID.",
          "_darknodeOperator": "The darknode's owner's address.",
          "_deregisteredAt": "The time stamp when the darknode is deregistered.",
          "_publicKey": "The darknode's public key.",
          "_registeredAt": "The time stamp when the darknode is registered."
        }
      },
      "constructor": {
        "params": {
          "_VERSION": "A string defining the contract version.",
          "_ren": "The address of the RenToken contract."
        }
      },
      "isOwner()": {
        "details": "Returns true if the caller is the current owner."
      },
      "owner()": {
        "details": "Returns the address of the current owner."
      },
      "renounceOwnership()": {
        "details": "Leaves the contract without owner. It will not be possible to call `onlyOwner` functions anymore. Can only be called by the current owner.     * > Note: Renouncing ownership will leave the contract without an owner, thereby removing any functionality that is only available to the owner."
      }
    }
  },
  "userdoc": {
    "methods": {
      "appendDarknode(address,address,uint256,bytes,uint256,uint256)": {
        "notice": "Instantiates a darknode and appends it to the darknodes linked-list. "
      },
      "begin()": {
        "notice": "Returns the address of the first darknode in the store."
      },
      "constructor": "The contract constructor. ",
      "darknodeBond(address)": {
        "notice": "Returns the bond of a given darknode."
      },
      "darknodeDeregisteredAt(address)": {
        "notice": "Returns the deregistration time of a given darknode."
      },
      "darknodeOperator(address)": {
        "notice": "Returns the owner of a given darknode."
      },
      "darknodePublicKey(address)": {
        "notice": "Returns the encryption public key of a given darknode."
      },
      "darknodeRegisteredAt(address)": {
        "notice": "Returns the registration time of a given darknode."
      },
      "next(address)": {
        "notice": "Returns the address of the next darknode in the store after the given address."
      },
      "recoverTokens(address)": {
        "notice": "Allow the owner of the contract to recover funds accidentally sent to the contract. To withdraw ETH, the token should be set to `0x0`."
      },
      "removeDarknode(address)": {
        "notice": "Removes a darknode from the store and transfers its bond to the owner of this contract."
      },
      "updateDarknodeBond(address,uint256)": {
        "notice": "Updates the bond of a darknode. The new bond must be smaller than the previous bond of the darknode."
      },
      "updateDarknodeDeregisteredAt(address,uint256)": {
        "notice": "Updates the deregistration timestamp of a darknode."
      }
    },
    "notice": "This contract stores data and funds for the DarknodeRegistry contract. The data / fund logic and storage have been separated to improve upgradability."
  }
}