{
  "contractName": "DarknodeRegistryStateV1",
  "abi": [
    {
      "constant": true,
      "inputs": [],
      "name": "VERSION",
      "outputs": [
        {
          "internalType": "string",
          "name": "",
          "type": "string"
        }
      ],
      "payable": false,
      "stateMutability": "view",
      "type": "function"
    },
    {
      "constant": true,
      "inputs": [],
      "name": "currentEpoch",
      "outputs": [
        {
          "internalType": "uint256",
          "name": "epochhash",
          "type": "uint256"
        },
        {
          "internalType": "uint256",
          "name": "blocktime",
          "type": "uint256"
        }
      ],
      "payable": false,
      "stateMutability": "view",
      "type": "function"
    },
    {
      "constant": true,
      "inputs": [],
      "name": "darknodePayment",
      "outputs": [
        {
          "internalType": "contract IDarknodePayment",
          "name": "",
          "type": "address"
        }
      ],
      "payable": false,
      "stateMutability": "view",
      "type": "function"
    },
    {
      "constant": true,
      "inputs": [],
      "name": "deregistrationInterval",
      "outputs": [
        {
          "internalType": "uint256",
          "name": "",
          "type": "uint256"
        }
      ],
      "payable": false,
      "stateMutability": "view",
      "type": "function"
    },
    {
      "constant": true,
      "inputs": [],
      "name": "minimumBond",
      "outputs": [
        {
          "internalType": "uint256",
          "name": "",
          "type": "uint256"
        }
      ],
      "payable": false,
      "stateMutability": "view",
      "type": "function"
    },
    {
      "constant": true,
      "inputs": [],
      "name": "minimumEpochInterval",
      "outputs": [
        {
          "internalType": "uint256",
          "name": "",
          "type": "uint256"
        }
      ],
      "payable": false,
      "stateMutability": "view",
      "type": "function"
    },
    {
      "constant": true,
      "inputs": [],
      "name": "minimumPodSize",
      "outputs": [
        {
          "internalType": "uint256",
          "name": "",
          "type": "uint256"
        }
      ],
      "payable": false,
      "stateMutability": "view",
      "type": "function"
    },
    {
      "constant": true,
      "inputs": [],
      "name": "nextMinimumBond",
      "outputs": [
        {
          "internalType": "uint256",
          "name": "",
          "type": "uint256"
        }
      ],
      "payable": false,
      "stateMutability": "view",
      "type": "function"
    },
    {
      "constant": true,
      "inputs": [],
      "name": "nextMinimumEpochInterval",
      "outputs": [
        {
          "internalType": "uint256",
          "name": "",
          "type": "uint256"
        }
      ],
      "payable": false,
      "stateMutability": "view",
      "type": "function"
    },
    {
      "constant": true,
      "inputs": [],
      "name": "nextMinimumPodSize",
      "outputs": [
        {
          "internalType": "uint256",
          "name": "",
          "type": "uint256"
        }
      ],
      "payable": false,
      "stateMutability": "view",
      "type": "function"
    },
    {
      "constant": true,
      "inputs": [],
      "name": "nextSlasher",
      "outputs": [
        {
          "internalType": "contract IDarknodeSlasher",
          "name": "",
          "type": "address"
        }
      ],
      "payable": false,
      "stateMutability": "view",
      "type": "function"
    },
    {
      "constant": true,
      "inputs": [],
      "name": "numDarknodes",
      "outputs": [
        {
          "internalType": "uint256",
          "name": "",
          "type": "uint256"
        }
      ],
      "payable": false,
      "stateMutability": "view",
      "type": "function"
    },
    {
      "constant": true,
      "inputs": [],
      "name": "numDarknodesNextEpoch",
      "outputs": [
        {
          "internalType": "uint256",
          "name": "",
          "type": "uint256"
        }
      ],
      "payable": false,
      "stateMutability": "view",
      "type": "function"
    },
    {
      "constant": true,
      "inputs": [],
      "name": "numDarknodesPreviousEpoch",
      "outputs": [
        {
          "internalType": "uint256",
          "name": "",
          "type": "uint256"
        }
      ],
      "payable": false,
      "stateMutability": "view",
      "type": "function"
    },
    {
      "constant": true,
      "inputs": [],
      "name": "previousEpoch",
      "outputs": [
        {
          "internalType": "uint256",
          "name": "epochhash",
          "type": "uint256"
        },
        {
          "internalType": "uint256",
          "name": "blocktime",
          "type": "uint256"
        }
      ],
      "payable": false,
      "stateMutability": "view",
      "type": "function"
    },
    {
      "constant": true,
      "inputs": [],
      "name": "ren",
      "outputs": [
        {
          "internalType": "contract RenToken",
          "name": "",
          "type": "address"
        }
      ],
      "payable": false,
      "stateMutability": "view",
      "type": "function"
    },
    {
      "constant": true,
      "inputs": [],
      "name": "slasher",
      "outputs": [
        {
          "internalType": "contract IDarknodeSlasher",
          "name": "",
          "type": "address"
        }
      ],
      "payable": false,
      "stateMutability": "view",
      "type": "function"
    },
    {
      "constant": true,
      "inputs": [],
      "name": "store",
      "outputs": [
        {
          "internalType": "contract DarknodeRegistryStore",
          "name": "",
          "type": "address"
        }
      ],
      "payable": false,
      "stateMutability": "view",
      "type": "function"
    }
  ],
  "bytecode": "0x608060405234801561001057600080fd5b506103c3806100206000396000f3fe608060405234801561001057600080fd5b50600436106101165760003560e01c806376671808116100a2578063aa7517e111610071578063aa7517e1146101ca578063b1344271146101d2578063b6b34c67146101da578063c7dbc2be146101e2578063ffa1ad74146101ea57610116565b806376671808146101aa5780638a9b4067146101b2578063975057e7146101ba57806399ddebfb146101c257610116565b806355cacda5116100e957806355cacda5146101695780635cdaab481461017157806360a22fe414610192578063702c25ee1461019a57806371740d16146101a257610116565b80630847e9fa1461011b5780631460e6031461013557806321a2ad3a1461013d578063455dc46d14610161575b600080fd5b610123610267565b60408051918252519081900360200190f35b61012361026d565b610145610273565b604080516001600160a01b039092168252519081900360200190f35b610123610282565b610123610288565b61017961028e565b6040805192835260208301919091528051918290030190f35b610123610297565b61012361029d565b6101236102a3565b6101796102a9565b6101456102b2565b6101456102c1565b6101236102d0565b6101236102d6565b6101456102dc565b6101456102eb565b6101236102fa565b6101f2610300565b6040805160208082528351818301528351919283929083019185019080838360005b8381101561022c578181015183820152602001610214565b50505050905090810190601f1680156102595780820380516001836020036101000a031916815260200191505b509250505060405180910390f35b60025481565b60015481565b6013546001600160a01b031681565b600a5481565b60065481565b600d54600e5482565b60085481565b60095481565b60035481565b600b54600c5482565b600f546001600160a01b031681565b6010546001600160a01b031681565b60075481565b60045481565b6012546001600160a01b031681565b6011546001600160a01b031681565b60055481565b6000805460408051602060026001851615610100026000190190941693909304601f810184900484028201840190925281815292918301828280156103865780601f1061035b57610100808354040283529160200191610386565b820191906000526020600020905b81548152906001019060200180831161036957829003601f168201915b50505050508156fea265627a7a72315820c648fa92cd67e5168a1450eb1158de86673741d5d3f5e70024f6993c1ef1899c64736f6c63430005110032",
  "source": "pragma solidity 0.5.17;\n\nimport \"@openzeppelin/contracts-ethereum-package/contracts/math/SafeMath.sol\";\nimport \"@openzeppelin/upgrades/contracts/upgradeability/InitializableAdminUpgradeabilityProxy.sol\";\nimport \"@openzeppelin/upgrades/contracts/Initializable.sol\";\n\nimport \"../RenToken/RenToken.sol\";\nimport \"./DarknodeRegistryStore.sol\";\nimport \"../Governance/Claimable.sol\";\nimport \"../libraries/CanReclaimTokens.sol\";\n\ninterface IDarknodePaymentStore {}\n\ninterface IDarknodePayment {\n    function changeCycle() external returns (uint256);\n\n    function store() external view returns (IDarknodePaymentStore);\n}\n\ninterface IDarknodeSlasher {}\n\ncontract DarknodeRegistryStateV1 {\n    using SafeMath for uint256;\n\n    string public VERSION; // Passed in as a constructor parameter.\n\n    /// @notice Darknode pods are shuffled after a fixed number of blocks.\n    /// An Epoch stores an epoch hash used as an (insecure) RNG seed, and the\n    /// blocknumber which restricts when the next epoch can be called.\n    struct Epoch {\n        uint256 epochhash;\n        uint256 blocktime;\n    }\n\n    uint256 public numDarknodes;\n    uint256 public numDarknodesNextEpoch;\n    uint256 public numDarknodesPreviousEpoch;\n\n    /// Variables used to parameterize behavior.\n    uint256 public minimumBond;\n    uint256 public minimumPodSize;\n    uint256 public minimumEpochInterval;\n    uint256 public deregistrationInterval;\n\n    /// When one of the above variables is modified, it is only updated when the\n    /// next epoch is called. These variables store the values for the next\n    /// epoch.\n    uint256 public nextMinimumBond;\n    uint256 public nextMinimumPodSize;\n    uint256 public nextMinimumEpochInterval;\n\n    /// The current and previous epoch.\n    Epoch public currentEpoch;\n    Epoch public previousEpoch;\n\n    /// REN ERC20 contract used to transfer bonds.\n    RenToken public ren;\n\n    /// Darknode Registry Store is the storage contract for darknodes.\n    DarknodeRegistryStore public store;\n\n    /// The Darknode Payment contract for changing cycle.\n    IDarknodePayment public darknodePayment;\n\n    /// Darknode Slasher allows darknodes to vote on bond slashing.\n    IDarknodeSlasher public slasher;\n    IDarknodeSlasher public nextSlasher;\n}\n\n/// @notice DarknodeRegistry is responsible for the registration and\n/// deregistration of Darknodes.\ncontract DarknodeRegistryLogicV1 is\n    Claimable,\n    CanReclaimTokens,\n    DarknodeRegistryStateV1\n{\n    /// @notice Emitted when a darknode is registered.\n    /// @param _darknodeOperator The owner of the darknode.\n    /// @param _darknodeID The ID of the darknode that was registered.\n    /// @param _bond The amount of REN that was transferred as bond.\n    event LogDarknodeRegistered(\n        address indexed _darknodeOperator,\n        address indexed _darknodeID,\n        uint256 _bond\n    );\n\n    /// @notice Emitted when a darknode is deregistered.\n    /// @param _darknodeOperator The owner of the darknode.\n    /// @param _darknodeID The ID of the darknode that was deregistered.\n    event LogDarknodeDeregistered(\n        address indexed _darknodeOperator,\n        address indexed _darknodeID\n    );\n\n    /// @notice Emitted when a refund has been made.\n    /// @param _darknodeOperator The owner of the darknode.\n    /// @param _amount The amount of REN that was refunded.\n    event LogDarknodeRefunded(\n        address indexed _darknodeOperator,\n        address indexed _darknodeID,\n        uint256 _amount\n    );\n\n    /// @notice Emitted when a darknode's bond is slashed.\n    /// @param _darknodeOperator The owner of the darknode.\n    /// @param _darknodeID The ID of the darknode that was slashed.\n    /// @param _challenger The address of the account that submitted the challenge.\n    /// @param _percentage The total percentage  of bond slashed.\n    event LogDarknodeSlashed(\n        address indexed _darknodeOperator,\n        address indexed _darknodeID,\n        address indexed _challenger,\n        uint256 _percentage\n    );\n\n    /// @notice Emitted when a new epoch has begun.\n    event LogNewEpoch(uint256 indexed epochhash);\n\n    /// @notice Emitted when a constructor parameter has been updated.\n    event LogMinimumBondUpdated(\n        uint256 _previousMinimumBond,\n        uint256 _nextMinimumBond\n    );\n    event LogMinimumPodSizeUpdated(\n        uint256 _previousMinimumPodSize,\n        uint256 _nextMinimumPodSize\n    );\n    event LogMinimumEpochIntervalUpdated(\n        uint256 _previousMinimumEpochInterval,\n        uint256 _nextMinimumEpochInterval\n    );\n    event LogSlasherUpdated(\n        address indexed _previousSlasher,\n        address indexed _nextSlasher\n    );\n    event LogDarknodePaymentUpdated(\n        IDarknodePayment indexed _previousDarknodePayment,\n        IDarknodePayment indexed _nextDarknodePayment\n    );\n\n    /// @notice Restrict a function to the owner that registered the darknode.\n    modifier onlyDarknodeOperator(address _darknodeID) {\n        require(\n            store.darknodeOperator(_darknodeID) == msg.sender,\n            \"DarknodeRegistry: must be darknode owner\"\n        );\n        _;\n    }\n\n    /// @notice Restrict a function to unregistered darknodes.\n    modifier onlyRefunded(address _darknodeID) {\n        require(\n            isRefunded(_darknodeID),\n            \"DarknodeRegistry: must be refunded or never registered\"\n        );\n        _;\n    }\n\n    /// @notice Restrict a function to refundable darknodes.\n    modifier onlyRefundable(address _darknodeID) {\n        require(\n            isRefundable(_darknodeID),\n            \"DarknodeRegistry: must be deregistered for at least one epoch\"\n        );\n        _;\n    }\n\n    /// @notice Restrict a function to registered nodes without a pending\n    /// deregistration.\n    modifier onlyDeregisterable(address _darknodeID) {\n        require(\n            isDeregisterable(_darknodeID),\n            \"DarknodeRegistry: must be deregisterable\"\n        );\n        _;\n    }\n\n    /// @notice Restrict a function to the Slasher contract.\n    modifier onlySlasher() {\n        require(\n            address(slasher) == msg.sender,\n            \"DarknodeRegistry: must be slasher\"\n        );\n        _;\n    }\n\n    /// @notice Restrict a function to registered nodes without a pending\n    /// deregistration.\n    modifier onlyDarknode(address _darknodeID) {\n        require(\n            isRegistered(_darknodeID),\n            \"DarknodeRegistry: invalid darknode\"\n        );\n        _;\n    }\n\n    /// @notice The contract constructor.\n    ///\n    /// @param _VERSION A string defining the contract version.\n    /// @param _renAddress The address of the RenToken contract.\n    /// @param _storeAddress The address of the DarknodeRegistryStore contract.\n    /// @param _minimumBond The minimum bond amount that can be submitted by a\n    ///        Darknode.\n    /// @param _minimumPodSize The minimum size of a Darknode pod.\n    /// @param _minimumEpochIntervalSeconds The minimum number of seconds between epochs.\n    function initialize(\n        string memory _VERSION,\n        RenToken _renAddress,\n        DarknodeRegistryStore _storeAddress,\n        uint256 _minimumBond,\n        uint256 _minimumPodSize,\n        uint256 _minimumEpochIntervalSeconds,\n        uint256 _deregistrationIntervalSeconds\n    ) public initializer {\n        Claimable.initialize(msg.sender);\n        CanReclaimTokens.initialize(msg.sender);\n        VERSION = _VERSION;\n\n        store = _storeAddress;\n        ren = _renAddress;\n\n        minimumBond = _minimumBond;\n        nextMinimumBond = minimumBond;\n\n        minimumPodSize = _minimumPodSize;\n        nextMinimumPodSize = minimumPodSize;\n\n        minimumEpochInterval = _minimumEpochIntervalSeconds;\n        nextMinimumEpochInterval = minimumEpochInterval;\n        deregistrationInterval = _deregistrationIntervalSeconds;\n\n        uint256 epochhash = uint256(blockhash(block.number - 1));\n        currentEpoch = Epoch({\n            epochhash: epochhash,\n            blocktime: block.timestamp\n        });\n        emit LogNewEpoch(epochhash);\n    }\n\n    /// @notice Register a darknode and transfer the bond to this contract.\n    /// Before registering, the bond transfer must be approved in the REN\n    /// contract. The caller must provide a public encryption key for the\n    /// darknode. The darknode will remain pending registration until the next\n    /// epoch. Only after this period can the darknode be deregistered. The\n    /// caller of this method will be stored as the owner of the darknode.\n    ///\n    /// @param _darknodeID The darknode ID that will be registered.\n    /// @param _publicKey The public key of the darknode. It is stored to allow\n    ///        other darknodes and traders to encrypt messages to the trader.\n    function register(address _darknodeID, bytes calldata _publicKey)\n        external\n        onlyRefunded(_darknodeID)\n    {\n        require(\n            _darknodeID != address(0),\n            \"DarknodeRegistry: darknode address cannot be zero\"\n        );\n\n        // Use the current minimum bond as the darknode's bond and transfer bond to store\n        require(\n            ren.transferFrom(msg.sender, address(store), minimumBond),\n            \"DarknodeRegistry: bond transfer failed\"\n        );\n\n        // Flag this darknode for registration\n        store.appendDarknode(\n            _darknodeID,\n            msg.sender,\n            minimumBond,\n            _publicKey,\n            currentEpoch.blocktime.add(minimumEpochInterval),\n            0\n        );\n\n        numDarknodesNextEpoch = numDarknodesNextEpoch.add(1);\n\n        // Emit an event.\n        emit LogDarknodeRegistered(msg.sender, _darknodeID, minimumBond);\n    }\n\n    /// @notice Deregister a darknode. The darknode will not be deregistered\n    /// until the end of the epoch. After another epoch, the bond can be\n    /// refunded by calling the refund method.\n    /// @param _darknodeID The darknode ID that will be deregistered. The caller\n    ///        of this method must be the owner of this darknode.\n    function deregister(address _darknodeID)\n        external\n        onlyDeregisterable(_darknodeID)\n        onlyDarknodeOperator(_darknodeID)\n    {\n        deregisterDarknode(_darknodeID);\n    }\n\n    /// @notice Progress the epoch if it is possible to do so. This captures\n    /// the current timestamp and current blockhash and overrides the current\n    /// epoch.\n    function epoch() external {\n        if (previousEpoch.blocktime == 0) {\n            // The first epoch must be called by the owner of the contract\n            require(\n                msg.sender == owner(),\n                \"DarknodeRegistry: not authorized to call first epoch\"\n            );\n        }\n\n        // Require that the epoch interval has passed\n        require(\n            block.timestamp >= currentEpoch.blocktime.add(minimumEpochInterval),\n            \"DarknodeRegistry: epoch interval has not passed\"\n        );\n        uint256 epochhash = uint256(blockhash(block.number - 1));\n\n        // Update the epoch hash and timestamp\n        previousEpoch = currentEpoch;\n        currentEpoch = Epoch({\n            epochhash: epochhash,\n            blocktime: block.timestamp\n        });\n\n        // Update the registry information\n        numDarknodesPreviousEpoch = numDarknodes;\n        numDarknodes = numDarknodesNextEpoch;\n\n        // If any update functions have been called, update the values now\n        if (nextMinimumBond != minimumBond) {\n            minimumBond = nextMinimumBond;\n            emit LogMinimumBondUpdated(minimumBond, nextMinimumBond);\n        }\n        if (nextMinimumPodSize != minimumPodSize) {\n            minimumPodSize = nextMinimumPodSize;\n            emit LogMinimumPodSizeUpdated(minimumPodSize, nextMinimumPodSize);\n        }\n        if (nextMinimumEpochInterval != minimumEpochInterval) {\n            minimumEpochInterval = nextMinimumEpochInterval;\n            emit LogMinimumEpochIntervalUpdated(\n                minimumEpochInterval,\n                nextMinimumEpochInterval\n            );\n        }\n        if (nextSlasher != slasher) {\n            slasher = nextSlasher;\n            emit LogSlasherUpdated(address(slasher), address(nextSlasher));\n        }\n        if (address(darknodePayment) != address(0x0)) {\n            darknodePayment.changeCycle();\n        }\n\n        // Emit an event\n        emit LogNewEpoch(epochhash);\n    }\n\n    /// @notice Allows the contract owner to initiate an ownership transfer of\n    /// the DarknodeRegistryStore.\n    /// @param _newOwner The address to transfer the ownership to.\n    function transferStoreOwnership(DarknodeRegistryLogicV1 _newOwner)\n        external\n        onlyOwner\n    {\n        store.transferOwnership(address(_newOwner));\n        _newOwner.claimStoreOwnership();\n    }\n\n    /// @notice Claims ownership of the store passed in to the constructor.\n    /// `transferStoreOwnership` must have previously been called when\n    /// transferring from another Darknode Registry.\n    function claimStoreOwnership() external {\n        store.claimOwnership();\n\n        // Sync state with new store.\n        // Note: numDarknodesPreviousEpoch is set to 0 for a newly deployed DNR.\n        (\n            numDarknodesPreviousEpoch,\n            numDarknodes,\n            numDarknodesNextEpoch\n        ) = getDarknodeCountFromEpochs();\n    }\n\n    /// @notice Allows the contract owner to update the address of the\n    /// darknode payment contract.\n    /// @param _darknodePayment The address of the Darknode Payment\n    /// contract.\n    function updateDarknodePayment(IDarknodePayment _darknodePayment)\n        external\n        onlyOwner\n    {\n        require(\n            address(_darknodePayment) != address(0x0),\n            \"DarknodeRegistry: invalid Darknode Payment address\"\n        );\n        IDarknodePayment previousDarknodePayment = darknodePayment;\n        darknodePayment = _darknodePayment;\n        emit LogDarknodePaymentUpdated(\n            previousDarknodePayment,\n            darknodePayment\n        );\n    }\n\n    /// @notice Allows the contract owner to update the minimum bond.\n    /// @param _nextMinimumBond The minimum bond amount that can be submitted by\n    ///        a darknode.\n    function updateMinimumBond(uint256 _nextMinimumBond) external onlyOwner {\n        // Will be updated next epoch\n        nextMinimumBond = _nextMinimumBond;\n    }\n\n    /// @notice Allows the contract owner to update the minimum pod size.\n    /// @param _nextMinimumPodSize The minimum size of a pod.\n    function updateMinimumPodSize(uint256 _nextMinimumPodSize)\n        external\n        onlyOwner\n    {\n        // Will be updated next epoch\n        nextMinimumPodSize = _nextMinimumPodSize;\n    }\n\n    /// @notice Allows the contract owner to update the minimum epoch interval.\n    /// @param _nextMinimumEpochInterval The minimum number of blocks between epochs.\n    function updateMinimumEpochInterval(uint256 _nextMinimumEpochInterval)\n        external\n        onlyOwner\n    {\n        // Will be updated next epoch\n        nextMinimumEpochInterval = _nextMinimumEpochInterval;\n    }\n\n    /// @notice Allow the contract owner to update the DarknodeSlasher contract\n    /// address.\n    /// @param _slasher The new slasher address.\n    function updateSlasher(IDarknodeSlasher _slasher) external onlyOwner {\n        require(\n            address(_slasher) != address(0),\n            \"DarknodeRegistry: invalid slasher address\"\n        );\n        nextSlasher = _slasher;\n    }\n\n    /// @notice Allow the DarknodeSlasher contract to slash a portion of darknode's\n    ///         bond and deregister it.\n    /// @param _guilty The guilty prover whose bond is being slashed.\n    /// @param _challenger The challenger who should receive a portion of the bond as reward.\n    /// @param _percentage The total percentage  of bond to be slashed.\n    function slash(\n        address _guilty,\n        address _challenger,\n        uint256 _percentage\n    ) external onlySlasher onlyDarknode(_guilty) {\n        require(_percentage <= 100, \"DarknodeRegistry: invalid percent\");\n\n        // If the darknode has not been deregistered then deregister it\n        if (isDeregisterable(_guilty)) {\n            deregisterDarknode(_guilty);\n        }\n\n        uint256 totalBond = store.darknodeBond(_guilty);\n        uint256 penalty = totalBond.div(100).mul(_percentage);\n        uint256 challengerReward = penalty.div(2);\n        uint256 darknodePaymentReward = penalty.sub(challengerReward);\n        if (challengerReward > 0) {\n            // Slash the bond of the failed prover\n            store.updateDarknodeBond(_guilty, totalBond.sub(penalty));\n\n            // Distribute the remaining bond into the darknode payment reward pool\n            require(\n                address(darknodePayment) != address(0x0),\n                \"DarknodeRegistry: invalid payment address\"\n            );\n            require(\n                ren.transfer(\n                    address(darknodePayment.store()),\n                    darknodePaymentReward\n                ),\n                \"DarknodeRegistry: reward transfer failed\"\n            );\n            require(\n                ren.transfer(_challenger, challengerReward),\n                \"DarknodeRegistry: reward transfer failed\"\n            );\n        }\n\n        emit LogDarknodeSlashed(\n            store.darknodeOperator(_guilty),\n            _guilty,\n            _challenger,\n            _percentage\n        );\n    }\n\n    /// @notice Refund the bond of a deregistered darknode. This will make the\n    /// darknode available for registration again. Anyone can call this function\n    /// but the bond will always be refunded to the darknode operator.\n    ///\n    /// @param _darknodeID The darknode ID that will be refunded.\n    function refund(address _darknodeID) external onlyRefundable(_darknodeID) {\n        address darknodeOperator = store.darknodeOperator(_darknodeID);\n\n        // Remember the bond amount\n        uint256 amount = store.darknodeBond(_darknodeID);\n\n        // Erase the darknode from the registry\n        store.removeDarknode(_darknodeID);\n\n        // Refund the operator by transferring REN\n        require(\n            ren.transfer(darknodeOperator, amount),\n            \"DarknodeRegistry: bond transfer failed\"\n        );\n\n        // Emit an event.\n        emit LogDarknodeRefunded(darknodeOperator, _darknodeID, amount);\n    }\n\n    /// @notice Retrieves the address of the account that registered a darknode.\n    /// @param _darknodeID The ID of the darknode to retrieve the owner for.\n    function getDarknodeOperator(address _darknodeID)\n        external\n        view\n        returns (address payable)\n    {\n        return store.darknodeOperator(_darknodeID);\n    }\n\n    /// @notice Retrieves the bond amount of a darknode in 10^-18 REN.\n    /// @param _darknodeID The ID of the darknode to retrieve the bond for.\n    function getDarknodeBond(address _darknodeID)\n        external\n        view\n        returns (uint256)\n    {\n        return store.darknodeBond(_darknodeID);\n    }\n\n    /// @notice Retrieves the encryption public key of the darknode.\n    /// @param _darknodeID The ID of the darknode to retrieve the public key for.\n    function getDarknodePublicKey(address _darknodeID)\n        external\n        view\n        returns (bytes memory)\n    {\n        return store.darknodePublicKey(_darknodeID);\n    }\n\n    /// @notice Retrieves a list of darknodes which are registered for the\n    /// current epoch.\n    /// @param _start A darknode ID used as an offset for the list. If _start is\n    ///        0x0, the first dark node will be used. _start won't be\n    ///        included it is not registered for the epoch.\n    /// @param _count The number of darknodes to retrieve starting from _start.\n    ///        If _count is 0, all of the darknodes from _start are\n    ///        retrieved. If _count is more than the remaining number of\n    ///        registered darknodes, the rest of the list will contain\n    ///        0x0s.\n    function getDarknodes(address _start, uint256 _count)\n        external\n        view\n        returns (address[] memory)\n    {\n        uint256 count = _count;\n        if (count == 0) {\n            count = numDarknodes;\n        }\n        return getDarknodesFromEpochs(_start, count, false);\n    }\n\n    /// @notice Retrieves a list of darknodes which were registered for the\n    /// previous epoch. See `getDarknodes` for the parameter documentation.\n    function getPreviousDarknodes(address _start, uint256 _count)\n        external\n        view\n        returns (address[] memory)\n    {\n        uint256 count = _count;\n        if (count == 0) {\n            count = numDarknodesPreviousEpoch;\n        }\n        return getDarknodesFromEpochs(_start, count, true);\n    }\n\n    /// @notice Returns whether a darknode is scheduled to become registered\n    /// at next epoch.\n    /// @param _darknodeID The ID of the darknode to return.\n    function isPendingRegistration(address _darknodeID)\n        public\n        view\n        returns (bool)\n    {\n        uint256 registeredAt = store.darknodeRegisteredAt(_darknodeID);\n        return registeredAt != 0 && registeredAt > currentEpoch.blocktime;\n    }\n\n    /// @notice Returns if a darknode is in the pending deregistered state. In\n    /// this state a darknode is still considered registered.\n    function isPendingDeregistration(address _darknodeID)\n        public\n        view\n        returns (bool)\n    {\n        uint256 deregisteredAt = store.darknodeDeregisteredAt(_darknodeID);\n        return deregisteredAt != 0 && deregisteredAt > currentEpoch.blocktime;\n    }\n\n    /// @notice Returns if a darknode is in the deregistered state.\n    function isDeregistered(address _darknodeID) public view returns (bool) {\n        uint256 deregisteredAt = store.darknodeDeregisteredAt(_darknodeID);\n        return deregisteredAt != 0 && deregisteredAt <= currentEpoch.blocktime;\n    }\n\n    /// @notice Returns if a darknode can be deregistered. This is true if the\n    /// darknodes is in the registered state and has not attempted to\n    /// deregister yet.\n    function isDeregisterable(address _darknodeID) public view returns (bool) {\n        uint256 deregisteredAt = store.darknodeDeregisteredAt(_darknodeID);\n        // The Darknode is currently in the registered state and has not been\n        // transitioned to the pending deregistration, or deregistered, state\n        return isRegistered(_darknodeID) && deregisteredAt == 0;\n    }\n\n    /// @notice Returns if a darknode is in the refunded state. This is true\n    /// for darknodes that have never been registered, or darknodes that have\n    /// been deregistered and refunded.\n    function isRefunded(address _darknodeID) public view returns (bool) {\n        uint256 registeredAt = store.darknodeRegisteredAt(_darknodeID);\n        uint256 deregisteredAt = store.darknodeDeregisteredAt(_darknodeID);\n        return registeredAt == 0 && deregisteredAt == 0;\n    }\n\n    /// @notice Returns if a darknode is refundable. This is true for darknodes\n    /// that have been in the deregistered state for one full epoch.\n    function isRefundable(address _darknodeID) public view returns (bool) {\n        return\n            isDeregistered(_darknodeID) &&\n            store.darknodeDeregisteredAt(_darknodeID) <=\n            (previousEpoch.blocktime - deregistrationInterval);\n    }\n\n    /// @notice Returns the registration time of a given darknode.\n    function darknodeRegisteredAt(address darknodeID)\n        external\n        view\n        returns (uint256)\n    {\n        return store.darknodeRegisteredAt(darknodeID);\n    }\n\n    /// @notice Returns the deregistration time of a given darknode.\n    function darknodeDeregisteredAt(address darknodeID)\n        external\n        view\n        returns (uint256)\n    {\n        return store.darknodeDeregisteredAt(darknodeID);\n    }\n\n    /// @notice Returns if a darknode is in the registered state.\n    function isRegistered(address _darknodeID) public view returns (bool) {\n        return isRegisteredInEpoch(_darknodeID, currentEpoch);\n    }\n\n    /// @notice Returns if a darknode was in the registered state last epoch.\n    function isRegisteredInPreviousEpoch(address _darknodeID)\n        public\n        view\n        returns (bool)\n    {\n        return isRegisteredInEpoch(_darknodeID, previousEpoch);\n    }\n\n    /// @notice Returns if a darknode was in the registered state for a given\n    /// epoch.\n    /// @param _darknodeID The ID of the darknode.\n    /// @param _epoch One of currentEpoch, previousEpoch.\n    function isRegisteredInEpoch(address _darknodeID, Epoch memory _epoch)\n        private\n        view\n        returns (bool)\n    {\n        uint256 registeredAt = store.darknodeRegisteredAt(_darknodeID);\n        uint256 deregisteredAt = store.darknodeDeregisteredAt(_darknodeID);\n        bool registered = registeredAt != 0 && registeredAt <= _epoch.blocktime;\n        bool notDeregistered = deregisteredAt == 0 ||\n            deregisteredAt > _epoch.blocktime;\n        // The Darknode has been registered and has not yet been deregistered,\n        // although it might be pending deregistration\n        return registered && notDeregistered;\n    }\n\n    /// @notice Returns a list of darknodes registered for either the current\n    /// or the previous epoch. See `getDarknodes` for documentation on the\n    /// parameters `_start` and `_count`.\n    /// @param _usePreviousEpoch If true, use the previous epoch, otherwise use\n    ///        the current epoch.\n    function getDarknodesFromEpochs(\n        address _start,\n        uint256 _count,\n        bool _usePreviousEpoch\n    ) private view returns (address[] memory) {\n        uint256 count = _count;\n        if (count == 0) {\n            count = numDarknodes;\n        }\n\n        address[] memory nodes = new address[](count);\n\n        // Begin with the first node in the list\n        uint256 n = 0;\n        address next = _start;\n        if (next == address(0)) {\n            next = store.begin();\n        }\n\n        // Iterate until all registered Darknodes have been collected\n        while (n < count) {\n            if (next == address(0)) {\n                break;\n            }\n            // Only include Darknodes that are currently registered\n            bool includeNext;\n            if (_usePreviousEpoch) {\n                includeNext = isRegisteredInPreviousEpoch(next);\n            } else {\n                includeNext = isRegistered(next);\n            }\n            if (!includeNext) {\n                next = store.next(next);\n                continue;\n            }\n            nodes[n] = next;\n            next = store.next(next);\n            n += 1;\n        }\n        return nodes;\n    }\n\n    /// Private function called by `deregister` and `slash`\n    function deregisterDarknode(address _darknodeID) private {\n        address darknodeOperator = store.darknodeOperator(_darknodeID);\n\n        // Flag the darknode for deregistration\n        store.updateDarknodeDeregisteredAt(\n            _darknodeID,\n            currentEpoch.blocktime.add(minimumEpochInterval)\n        );\n        numDarknodesNextEpoch = numDarknodesNextEpoch.sub(1);\n\n        // Emit an event\n        emit LogDarknodeDeregistered(darknodeOperator, _darknodeID);\n    }\n\n    function getDarknodeCountFromEpochs()\n        private\n        view\n        returns (\n            uint256,\n            uint256,\n            uint256\n        )\n    {\n        // Begin with the first node in the list\n        uint256 nPreviousEpoch = 0;\n        uint256 nCurrentEpoch = 0;\n        uint256 nNextEpoch = 0;\n        address next = store.begin();\n\n        // Iterate until all registered Darknodes have been collected\n        while (true) {\n            // End of darknode list.\n            if (next == address(0)) {\n                break;\n            }\n\n            if (isRegisteredInPreviousEpoch(next)) {\n                nPreviousEpoch += 1;\n            }\n\n            if (isRegistered(next)) {\n                nCurrentEpoch += 1;\n            }\n\n            // Darknode is registered and has not deregistered, or is pending\n            // becoming registered.\n            if (\n                ((isRegistered(next) && !isPendingDeregistration(next)) ||\n                    isPendingRegistration(next))\n            ) {\n                nNextEpoch += 1;\n            }\n            next = store.next(next);\n        }\n        return (nPreviousEpoch, nCurrentEpoch, nNextEpoch);\n    }\n}\n",
  "sourcePath": "/Users/jaz/Desktop/ren/dev/darknode-sol/contracts/DarknodeRegistry/DarknodeRegistryV1.sol",
  "compiler": {
    "name": "solc",
    "version": "0.5.17+commit.d19bba13.Emscripten.clang"
  },
  "schemaVersion": "3.4.3",
  "updatedAt": "2022-09-07T05:19:15.792Z",
  "devdoc": {
    "methods": {}
  },
  "userdoc": {
    "methods": {}
  }
}