{
  "contractName": "DarknodeRegistryProxy",
  "abi": [
    {
      "anonymous": false,
      "inputs": [
        {
          "indexed": false,
          "internalType": "address",
          "name": "previousAdmin",
          "type": "address"
        },
        {
          "indexed": false,
          "internalType": "address",
          "name": "newAdmin",
          "type": "address"
        }
      ],
      "name": "AdminChanged",
      "type": "event"
    },
    {
      "anonymous": false,
      "inputs": [
        {
          "indexed": true,
          "internalType": "address",
          "name": "implementation",
          "type": "address"
        }
      ],
      "name": "Upgraded",
      "type": "event"
    },
    {
      "payable": true,
      "stateMutability": "payable",
      "type": "fallback"
    },
    {
      "constant": false,
      "inputs": [],
      "name": "admin",
      "outputs": [
        {
          "internalType": "address",
          "name": "",
          "type": "address"
        }
      ],
      "payable": false,
      "stateMutability": "nonpayable",
      "type": "function"
    },
    {
      "constant": false,
      "inputs": [
        {
          "internalType": "address",
          "name": "newAdmin",
          "type": "address"
        }
      ],
      "name": "changeAdmin",
      "outputs": [],
      "payable": false,
      "stateMutability": "nonpayable",
      "type": "function"
    },
    {
      "constant": false,
      "inputs": [],
      "name": "implementation",
      "outputs": [
        {
          "internalType": "address",
          "name": "",
          "type": "address"
        }
      ],
      "payable": false,
      "stateMutability": "nonpayable",
      "type": "function"
    },
    {
      "constant": false,
      "inputs": [
        {
          "internalType": "address",
          "name": "_logic",
          "type": "address"
        },
        {
          "internalType": "address",
          "name": "_admin",
          "type": "address"
        },
        {
          "internalType": "bytes",
          "name": "_data",
          "type": "bytes"
        }
      ],
      "name": "initialize",
      "outputs": [],
      "payable": true,
      "stateMutability": "payable",
      "type": "function"
    },
    {
      "constant": false,
      "inputs": [
        {
          "internalType": "address",
          "name": "_logic",
          "type": "address"
        },
        {
          "internalType": "bytes",
          "name": "_data",
          "type": "bytes"
        }
      ],
      "name": "initialize",
      "outputs": [],
      "payable": true,
      "stateMutability": "payable",
      "type": "function"
    },
    {
      "constant": false,
      "inputs": [
        {
          "internalType": "address",
          "name": "newImplementation",
          "type": "address"
        }
      ],
      "name": "upgradeTo",
      "outputs": [],
      "payable": false,
      "stateMutability": "nonpayable",
      "type": "function"
    },
    {
      "constant": false,
      "inputs": [
        {
          "internalType": "address",
          "name": "newImplementation",
          "type": "address"
        },
        {
          "internalType": "bytes",
          "name": "data",
          "type": "bytes"
        }
      ],
      "name": "upgradeToAndCall",
      "outputs": [],
      "payable": true,
      "stateMutability": "payable",
      "type": "function"
    }
  ],
  "bytecode": "0x608060405234801561001057600080fd5b5061097c806100206000396000f3fe6080604052600436106100705760003560e01c80638f2839701161004e5780638f2839701461015e578063cf7a1d7714610191578063d1f5789414610250578063f851a4401461030657610070565b80633659cfe61461007a5780634f1ef286146100ad5780635c60da1b1461012d575b61007861031b565b005b34801561008657600080fd5b506100786004803603602081101561009d57600080fd5b50356001600160a01b0316610335565b610078600480360360408110156100c357600080fd5b6001600160a01b0382351691908101906040810160208201356401000000008111156100ee57600080fd5b82018360208201111561010057600080fd5b8035906020019184600183028401116401000000008311171561012257600080fd5b50909250905061036f565b34801561013957600080fd5b5061014261041c565b604080516001600160a01b039092168252519081900360200190f35b34801561016a57600080fd5b506100786004803603602081101561018157600080fd5b50356001600160a01b0316610459565b610078600480360360608110156101a757600080fd5b6001600160a01b0382358116926020810135909116918101906060810160408201356401000000008111156101db57600080fd5b8201836020820111156101ed57600080fd5b8035906020019184600183028401116401000000008311171561020f57600080fd5b91908080601f016020809104026020016040519081016040528093929190818152602001838380828437600092019190915250929550610513945050505050565b6100786004803603604081101561026657600080fd5b6001600160a01b03823516919081019060408101602082013564010000000081111561029157600080fd5b8201836020820111156102a357600080fd5b803590602001918460018302840111640100000000831117156102c557600080fd5b91908080601f016020809104026020016040519081016040528093929190818152602001838380828437600092019190915250929550610599945050505050565b34801561031257600080fd5b506101426106d9565b610323610704565b61033361032e610764565b610789565b565b61033d6107ad565b6001600160a01b0316336001600160a01b031614156103645761035f816107d2565b61036c565b61036c61031b565b50565b6103776107ad565b6001600160a01b0316336001600160a01b0316141561040f57610399836107d2565b6000836001600160a01b031683836040518083838082843760405192019450600093509091505080830381855af49150503d80600081146103f6576040519150601f19603f3d011682016040523d82523d6000602084013e6103fb565b606091505b505090508061040957600080fd5b50610417565b61041761031b565b505050565b60006104266107ad565b6001600160a01b0316336001600160a01b0316141561044e57610447610764565b9050610456565b61045661031b565b90565b6104616107ad565b6001600160a01b0316336001600160a01b03161415610364576001600160a01b0381166104bf5760405162461bcd60e51b81526004018080602001828103825260368152602001806108d76036913960400191505060405180910390fd5b7f7e644d79422f17c01e4894b5f4f588d331ebfa28653d42ae832dc59e38c9798f6104e86107ad565b604080516001600160a01b03928316815291841660208301528051918290030190a161035f81610812565b600061051d610764565b6001600160a01b03161461053057600080fd5b61053a8382610599565b604080517232b4b8189c9b1b97383937bc3c9730b236b4b760691b815290519081900360130190207fb53127684a568b3173ae13b9f8a6016e243e63b6e8ee1178d6a717850b5d61036000199091011461059057fe5b61041782610812565b60006105a3610764565b6001600160a01b0316146105b657600080fd5b604080517f656970313936372e70726f78792e696d706c656d656e746174696f6e000000008152905190819003601c0190207f360894a13ba1a3210667c828492db98dca3e2076cc3735a920a3ca505d382bbc6000199091011461061657fe5b61061f82610836565b8051156106d5576000826001600160a01b0316826040518082805190602001908083835b602083106106625780518252601f199092019160209182019101610643565b6001836020036101000a038019825116818451168082178552505050505050905001915050600060405180830381855af49150503d80600081146106c2576040519150601f19603f3d011682016040523d82523d6000602084013e6106c7565b606091505b505090508061041757600080fd5b5050565b60006106e36107ad565b6001600160a01b0316336001600160a01b0316141561044e576104476107ad565b61070c6107ad565b6001600160a01b0316336001600160a01b0316141561075c5760405162461bcd60e51b81526004018080602001828103825260328152602001806108a56032913960400191505060405180910390fd5b610333610333565b7f360894a13ba1a3210667c828492db98dca3e2076cc3735a920a3ca505d382bbc5490565b3660008037600080366000845af43d6000803e8080156107a8573d6000f35b3d6000fd5b7fb53127684a568b3173ae13b9f8a6016e243e63b6e8ee1178d6a717850b5d61035490565b6107db81610836565b6040516001600160a01b038216907fbc7cd75a20ee27fd9adebab32041f755214dbc6bffa90cc0225b39da2e5c2d3b90600090a250565b7fb53127684a568b3173ae13b9f8a6016e243e63b6e8ee1178d6a717850b5d610355565b61083f8161089e565b61087a5760405162461bcd60e51b815260040180806020018281038252603b81526020018061090d603b913960400191505060405180910390fd5b7f360894a13ba1a3210667c828492db98dca3e2076cc3735a920a3ca505d382bbc55565b3b15159056fe43616e6e6f742063616c6c2066616c6c6261636b2066756e6374696f6e2066726f6d207468652070726f78792061646d696e43616e6e6f74206368616e6765207468652061646d696e206f6620612070726f787920746f20746865207a65726f206164647265737343616e6e6f742073657420612070726f787920696d706c656d656e746174696f6e20746f2061206e6f6e2d636f6e74726163742061646472657373a265627a7a72315820683db5bc75052f4d74a6896afe66eb7b480ecc87ef352f73c817b36ccb6ac1d764736f6c63430005110032",
  "source": "pragma solidity 0.5.17;\n\nimport \"@openzeppelin/contracts-ethereum-package/contracts/math/SafeMath.sol\";\nimport \"@openzeppelin/contracts-ethereum-package/contracts/cryptography/ECDSA.sol\";\nimport \"@openzeppelin/upgrades/contracts/upgradeability/InitializableAdminUpgradeabilityProxy.sol\";\nimport \"@openzeppelin/upgrades/contracts/Initializable.sol\";\n\nimport \"../RenToken/RenToken.sol\";\nimport \"./DarknodeRegistryStore.sol\";\nimport \"../Governance/Claimable.sol\";\nimport \"../libraries/CanReclaimTokens.sol\";\nimport \"./DarknodeRegistryV1.sol\";\n\ncontract DarknodeRegistryStateV2 {}\n\n/// @notice DarknodeRegistry is responsible for the registration and\n/// deregistration of Darknodes.\ncontract DarknodeRegistryLogicV2 is\n    Claimable,\n    CanReclaimTokens,\n    DarknodeRegistryStateV1,\n    DarknodeRegistryStateV2\n{\n    using SafeMath for uint256;\n\n    /// @notice Emitted when a darknode is registered.\n    /// @param _darknodeOperator The owner of the darknode.\n    /// @param _darknodeID The ID of the darknode that was registered.\n    /// @param _bond The amount of REN that was transferred as bond.\n    event LogDarknodeRegistered(\n        address indexed _darknodeOperator,\n        address indexed _darknodeID,\n        uint256 _bond\n    );\n\n    /// @notice Emitted when a darknode is deregistered.\n    /// @param _darknodeOperator The owner of the darknode.\n    /// @param _darknodeID The ID of the darknode that was deregistered.\n    event LogDarknodeDeregistered(\n        address indexed _darknodeOperator,\n        address indexed _darknodeID\n    );\n\n    /// @notice Emitted when a refund has been made.\n    /// @param _darknodeOperator The owner of the darknode.\n    /// @param _darknodeID The ID of the darknode that was refunded.\n    /// @param _amount The amount of REN that was refunded.\n    event LogDarknodeRefunded(\n        address indexed _darknodeOperator,\n        address indexed _darknodeID,\n        uint256 _amount\n    );\n\n    /// @notice Emitted when a recovery has been made.\n    /// @param _darknodeOperator The owner of the darknode.\n    /// @param _darknodeID The ID of the darknode that was recovered.\n    /// @param _bondRecipient The address that received the bond.\n    /// @param _submitter The address that called the recover method.\n    event LogDarknodeRecovered(\n        address indexed _darknodeOperator,\n        address indexed _darknodeID,\n        address _bondRecipient,\n        address indexed _submitter\n    );\n\n    /// @notice Emitted when a darknode's bond is slashed.\n    /// @param _darknodeOperator The owner of the darknode.\n    /// @param _darknodeID The ID of the darknode that was slashed.\n    /// @param _challenger The address of the account that submitted the challenge.\n    /// @param _percentage The total percentage  of bond slashed.\n    event LogDarknodeSlashed(\n        address indexed _darknodeOperator,\n        address indexed _darknodeID,\n        address indexed _challenger,\n        uint256 _percentage\n    );\n\n    /// @notice Emitted when a new epoch has begun.\n    event LogNewEpoch(uint256 indexed epochhash);\n\n    /// @notice Emitted when a constructor parameter has been updated.\n    event LogMinimumBondUpdated(\n        uint256 _previousMinimumBond,\n        uint256 _nextMinimumBond\n    );\n    event LogMinimumPodSizeUpdated(\n        uint256 _previousMinimumPodSize,\n        uint256 _nextMinimumPodSize\n    );\n    event LogMinimumEpochIntervalUpdated(\n        uint256 _previousMinimumEpochInterval,\n        uint256 _nextMinimumEpochInterval\n    );\n    event LogSlasherUpdated(\n        address indexed _previousSlasher,\n        address indexed _nextSlasher\n    );\n    event LogDarknodePaymentUpdated(\n        address indexed _previousDarknodePayment,\n        address indexed _nextDarknodePayment\n    );\n\n    /// @notice Restrict a function to the owner that registered the darknode.\n    modifier onlyDarknodeOperator(address _darknodeID) {\n        require(\n            store.darknodeOperator(_darknodeID) == msg.sender,\n            \"DarknodeRegistry: must be darknode owner\"\n        );\n        _;\n    }\n\n    /// @notice Restrict a function to unregistered darknodes.\n    modifier onlyRefunded(address _darknodeID) {\n        require(\n            isRefunded(_darknodeID),\n            \"DarknodeRegistry: must be refunded or never registered\"\n        );\n        _;\n    }\n\n    /// @notice Restrict a function to refundable darknodes.\n    modifier onlyRefundable(address _darknodeID) {\n        require(\n            isRefundable(_darknodeID),\n            \"DarknodeRegistry: must be deregistered for at least one epoch\"\n        );\n        _;\n    }\n\n    /// @notice Restrict a function to registered nodes without a pending\n    /// deregistration.\n    modifier onlyDeregisterable(address _darknodeID) {\n        require(\n            isDeregisterable(_darknodeID),\n            \"DarknodeRegistry: must be deregisterable\"\n        );\n        _;\n    }\n\n    /// @notice Restrict a function to the Slasher contract.\n    modifier onlySlasher() {\n        require(\n            address(slasher) == msg.sender,\n            \"DarknodeRegistry: must be slasher\"\n        );\n        _;\n    }\n\n    /// @notice Restrict a function to registered and deregistered nodes.\n    modifier onlyDarknode(address _darknodeID) {\n        require(\n            isRegistered(_darknodeID) || isDeregistered(_darknodeID),\n            \"DarknodeRegistry: invalid darknode\"\n        );\n        _;\n    }\n\n    /// @notice The contract constructor.\n    ///\n    /// @param _VERSION A string defining the contract version.\n    /// @param _renAddress The address of the RenToken contract.\n    /// @param _storeAddress The address of the DarknodeRegistryStore contract.\n    /// @param _minimumBond The minimum bond amount that can be submitted by a\n    ///        Darknode.\n    /// @param _minimumPodSize The minimum size of a Darknode pod.\n    /// @param _minimumEpochIntervalSeconds The minimum number of seconds between epochs.\n    function initialize(\n        string memory _VERSION,\n        RenToken _renAddress,\n        DarknodeRegistryStore _storeAddress,\n        uint256 _minimumBond,\n        uint256 _minimumPodSize,\n        uint256 _minimumEpochIntervalSeconds,\n        uint256 _deregistrationIntervalSeconds\n    ) public initializer {\n        Claimable.initialize(msg.sender);\n        CanReclaimTokens.initialize(msg.sender);\n        VERSION = _VERSION;\n\n        store = _storeAddress;\n        ren = _renAddress;\n\n        minimumBond = _minimumBond;\n        nextMinimumBond = minimumBond;\n\n        minimumPodSize = _minimumPodSize;\n        nextMinimumPodSize = minimumPodSize;\n\n        minimumEpochInterval = _minimumEpochIntervalSeconds;\n        nextMinimumEpochInterval = minimumEpochInterval;\n        deregistrationInterval = _deregistrationIntervalSeconds;\n\n        uint256 epochhash = uint256(blockhash(block.number - 1));\n        currentEpoch = Epoch({\n            epochhash: epochhash,\n            blocktime: block.timestamp\n        });\n        emit LogNewEpoch(epochhash);\n    }\n\n    /// @notice Register a darknode and transfer the bond to this contract.\n    /// Before registering, the bond transfer must be approved in the REN\n    /// contract. The caller must provide a public encryption key for the\n    /// darknode. The darknode will remain pending registration until the next\n    /// epoch. Only after this period can the darknode be deregistered. The\n    /// caller of this method will be stored as the owner of the darknode.\n    ///\n    /// @param _darknodeID The darknode ID that will be registered.\n    function registerNode(address _darknodeID)\n        public\n        onlyRefunded(_darknodeID)\n    {\n        require(\n            _darknodeID != address(0),\n            \"DarknodeRegistry: darknode address cannot be zero\"\n        );\n\n        // Use the current minimum bond as the darknode's bond and transfer bond to store\n        require(\n            ren.transferFrom(msg.sender, address(store), minimumBond),\n            \"DarknodeRegistry: bond transfer failed\"\n        );\n\n        // Flag this darknode for registration\n        store.appendDarknode(\n            _darknodeID,\n            msg.sender,\n            minimumBond,\n            \"\",\n            currentEpoch.blocktime.add(minimumEpochInterval),\n            0\n        );\n\n        numDarknodesNextEpoch = numDarknodesNextEpoch.add(1);\n\n        // Emit an event.\n        emit LogDarknodeRegistered(msg.sender, _darknodeID, minimumBond);\n    }\n\n    /// @notice An alias for `registerNode` that includes the legacy public key\n    /// parameter.\n    /// @param _darknodeID The darknode ID that will be registered.\n    /// @param _publicKey Deprecated parameter - see `registerNode`.\n    function register(address _darknodeID, bytes calldata _publicKey) external {\n        return registerNode(_darknodeID);\n    }\n\n    /// @notice Register multiple darknodes and transfer the bonds to this contract.\n    /// Before registering, the bonds transfer must be approved in the REN contract.\n    /// The darknodes will remain pending registration until the next epoch. Only\n    /// after this period can the darknodes be deregistered. The caller of this method\n    /// will be stored as the owner of each darknode. If one registration fails, all\n    /// registrations fail.\n    /// @param _darknodeIDs The darknode IDs that will be registered.\n    function registerMultiple(address[] calldata _darknodeIDs) external {\n        // Save variables in memory to prevent redundant reads from storage\n        DarknodeRegistryStore _store = store;\n        Epoch memory _currentEpoch = currentEpoch;\n        uint256 nextRegisteredAt = _currentEpoch.blocktime.add(\n            minimumEpochInterval\n        );\n        uint256 _minimumBond = minimumBond;\n\n        require(\n            ren.transferFrom(\n                msg.sender,\n                address(_store),\n                _minimumBond.mul(_darknodeIDs.length)\n            ),\n            \"DarknodeRegistry: bond transfers failed\"\n        );\n\n        for (uint256 i = 0; i < _darknodeIDs.length; i++) {\n            address darknodeID = _darknodeIDs[i];\n\n            uint256 registeredAt = _store.darknodeRegisteredAt(darknodeID);\n            uint256 deregisteredAt = _store.darknodeDeregisteredAt(darknodeID);\n\n            require(\n                _isRefunded(registeredAt, deregisteredAt),\n                \"DarknodeRegistry: must be refunded or never registered\"\n            );\n\n            require(\n                darknodeID != address(0),\n                \"DarknodeRegistry: darknode address cannot be zero\"\n            );\n\n            _store.appendDarknode(\n                darknodeID,\n                msg.sender,\n                _minimumBond,\n                \"\",\n                nextRegisteredAt,\n                0\n            );\n\n            emit LogDarknodeRegistered(msg.sender, darknodeID, _minimumBond);\n        }\n\n        numDarknodesNextEpoch = numDarknodesNextEpoch.add(_darknodeIDs.length);\n    }\n\n    /// @notice Deregister a darknode. The darknode will not be deregistered\n    /// until the end of the epoch. After another epoch, the bond can be\n    /// refunded by calling the refund method.\n    /// @param _darknodeID The darknode ID that will be deregistered. The caller\n    ///        of this method must be the owner of this darknode.\n    function deregister(address _darknodeID)\n        external\n        onlyDeregisterable(_darknodeID)\n        onlyDarknodeOperator(_darknodeID)\n    {\n        deregisterDarknode(_darknodeID);\n    }\n\n    /// @notice Deregister multiple darknodes. The darknodes will not be\n    /// deregistered until the end of the epoch. After another epoch, their\n    /// bonds can be refunded by calling the refund or refundMultiple methods.\n    /// If one deregistration fails, all deregistrations fail.\n    /// @param _darknodeIDs The darknode IDs that will be deregistered. The\n    /// caller of this method must be the owner of each darknode.\n    function deregisterMultiple(address[] calldata _darknodeIDs) external {\n        // Save variables in memory to prevent redundant reads from storage\n        DarknodeRegistryStore _store = store;\n        Epoch memory _currentEpoch = currentEpoch;\n        uint256 nextDeregisteredAt = _currentEpoch.blocktime.add(\n            minimumEpochInterval\n        );\n\n        for (uint256 i = 0; i < _darknodeIDs.length; i++) {\n            address darknodeID = _darknodeIDs[i];\n\n            uint256 deregisteredAt = _store.darknodeDeregisteredAt(darknodeID);\n            bool registered = isRegisteredInEpoch(\n                _store.darknodeRegisteredAt(darknodeID),\n                deregisteredAt,\n                _currentEpoch\n            );\n\n            require(\n                _isDeregisterable(registered, deregisteredAt),\n                \"DarknodeRegistry: must be deregisterable\"\n            );\n\n            require(\n                _store.darknodeOperator(darknodeID) == msg.sender,\n                \"DarknodeRegistry: must be darknode owner\"\n            );\n\n            _store.updateDarknodeDeregisteredAt(darknodeID, nextDeregisteredAt);\n\n            emit LogDarknodeDeregistered(msg.sender, darknodeID);\n        }\n\n        numDarknodesNextEpoch = numDarknodesNextEpoch.sub(_darknodeIDs.length);\n    }\n\n    /// @notice Progress the epoch if it is possible to do so. This captures\n    /// the current timestamp and current blockhash and overrides the current\n    /// epoch.\n    function epoch() external {\n        if (previousEpoch.blocktime == 0) {\n            // The first epoch must be called by the owner of the contract\n            require(\n                msg.sender == owner(),\n                \"DarknodeRegistry: not authorized to call first epoch\"\n            );\n        }\n\n        // Require that the epoch interval has passed\n        require(\n            block.timestamp >= currentEpoch.blocktime.add(minimumEpochInterval),\n            \"DarknodeRegistry: epoch interval has not passed\"\n        );\n        uint256 epochhash = uint256(blockhash(block.number - 1));\n\n        // Update the epoch hash and timestamp\n        previousEpoch = currentEpoch;\n        currentEpoch = Epoch({\n            epochhash: epochhash,\n            blocktime: block.timestamp\n        });\n\n        // Update the registry information\n        numDarknodesPreviousEpoch = numDarknodes;\n        numDarknodes = numDarknodesNextEpoch;\n\n        // If any update functions have been called, update the values now\n        if (nextMinimumBond != minimumBond) {\n            minimumBond = nextMinimumBond;\n            emit LogMinimumBondUpdated(minimumBond, nextMinimumBond);\n        }\n        if (nextMinimumPodSize != minimumPodSize) {\n            minimumPodSize = nextMinimumPodSize;\n            emit LogMinimumPodSizeUpdated(minimumPodSize, nextMinimumPodSize);\n        }\n        if (nextMinimumEpochInterval != minimumEpochInterval) {\n            minimumEpochInterval = nextMinimumEpochInterval;\n            emit LogMinimumEpochIntervalUpdated(\n                minimumEpochInterval,\n                nextMinimumEpochInterval\n            );\n        }\n        if (nextSlasher != slasher) {\n            slasher = nextSlasher;\n            emit LogSlasherUpdated(address(slasher), address(nextSlasher));\n        }\n\n        // Emit an event\n        emit LogNewEpoch(epochhash);\n    }\n\n    /// @notice Allows the contract owner to initiate an ownership transfer of\n    /// the DarknodeRegistryStore.\n    /// @param _newOwner The address to transfer the ownership to.\n    function transferStoreOwnership(DarknodeRegistryLogicV2 _newOwner)\n        external\n        onlyOwner\n    {\n        store.transferOwnership(address(_newOwner));\n        _newOwner.claimStoreOwnership();\n    }\n\n    /// @notice Claims ownership of the store passed in to the constructor.\n    /// `transferStoreOwnership` must have previously been called when\n    /// transferring from another Darknode Registry.\n    function claimStoreOwnership() external {\n        store.claimOwnership();\n\n        // Sync state with new store.\n        // Note: numDarknodesPreviousEpoch is set to 0 for a newly deployed DNR.\n        (\n            numDarknodesPreviousEpoch,\n            numDarknodes,\n            numDarknodesNextEpoch\n        ) = getDarknodeCountFromEpochs();\n    }\n\n    /// @notice Allows the contract owner to update the minimum bond.\n    /// @param _nextMinimumBond The minimum bond amount that can be submitted by\n    ///        a darknode.\n    function updateMinimumBond(uint256 _nextMinimumBond) external onlyOwner {\n        // Will be updated next epoch\n        nextMinimumBond = _nextMinimumBond;\n    }\n\n    /// @notice Allows the contract owner to update the minimum pod size.\n    /// @param _nextMinimumPodSize The minimum size of a pod.\n    function updateMinimumPodSize(uint256 _nextMinimumPodSize)\n        external\n        onlyOwner\n    {\n        // Will be updated next epoch\n        nextMinimumPodSize = _nextMinimumPodSize;\n    }\n\n    /// @notice Allows the contract owner to update the minimum epoch interval.\n    /// @param _nextMinimumEpochInterval The minimum number of blocks between epochs.\n    function updateMinimumEpochInterval(uint256 _nextMinimumEpochInterval)\n        external\n        onlyOwner\n    {\n        // Will be updated next epoch\n        nextMinimumEpochInterval = _nextMinimumEpochInterval;\n    }\n\n    /// @notice Allow the contract owner to update the DarknodeSlasher contract\n    /// address.\n    /// @param _slasher The new slasher address.\n    function updateSlasher(IDarknodeSlasher _slasher) external onlyOwner {\n        nextSlasher = _slasher;\n    }\n\n    /// @notice Allow the DarknodeSlasher contract to slash a portion of darknode's\n    ///         bond and deregister it.\n    /// @param _guilty The guilty prover whose bond is being slashed.\n    /// @param _challenger The challenger who should receive a portion of the bond as reward.\n    /// @param _percentage The total percentage  of bond to be slashed.\n    function slash(\n        address _guilty,\n        address _challenger,\n        uint256 _percentage\n    ) external onlySlasher onlyDarknode(_guilty) {\n        require(_percentage <= 100, \"DarknodeRegistry: invalid percent\");\n\n        // If the darknode has not been deregistered then deregister it\n        if (isDeregisterable(_guilty)) {\n            deregisterDarknode(_guilty);\n        }\n\n        uint256 totalBond = store.darknodeBond(_guilty);\n        uint256 penalty = totalBond.div(100).mul(_percentage);\n        uint256 challengerReward = penalty.div(2);\n        uint256 slasherPortion = penalty.sub(challengerReward);\n        if (challengerReward > 0) {\n            // Slash the bond of the failed prover\n            store.updateDarknodeBond(_guilty, totalBond.sub(penalty));\n\n            // Forward the remaining amount to be handled by the slasher.\n            require(\n                ren.transfer(msg.sender, slasherPortion),\n                \"DarknodeRegistry: reward transfer to slasher failed\"\n            );\n            require(\n                ren.transfer(_challenger, challengerReward),\n                \"DarknodeRegistry: reward transfer to challenger failed\"\n            );\n        }\n\n        emit LogDarknodeSlashed(\n            store.darknodeOperator(_guilty),\n            _guilty,\n            _challenger,\n            _percentage\n        );\n    }\n\n    /// @notice Refund the bond of a deregistered darknode. This will make the\n    /// darknode available for registration again.\n    ///\n    /// @param _darknodeID The darknode ID that will be refunded.\n    function refund(address _darknodeID)\n        external\n        onlyRefundable(_darknodeID)\n        onlyDarknodeOperator(_darknodeID)\n    {\n        // Remember the bond amount\n        uint256 amount = store.darknodeBond(_darknodeID);\n\n        // Erase the darknode from the registry\n        store.removeDarknode(_darknodeID);\n\n        // Refund the operator by transferring REN\n        require(\n            ren.transfer(msg.sender, amount),\n            \"DarknodeRegistry: bond transfer failed\"\n        );\n\n        // Emit an event.\n        emit LogDarknodeRefunded(msg.sender, _darknodeID, amount);\n    }\n\n    /// @notice A permissioned method for refunding a darknode without the usual\n    /// delay. The operator must provide a signature of the darknode ID and the\n    /// bond recipient, but the call must come from the contract's owner. The\n    /// main use case is for when an operator's keys have been compromised,\n    /// allowing for the bonds to be recovered by the operator through the\n    /// GatewayRegistry's governance. It is expected that this process would\n    /// happen towards the end of the darknode's deregistered period, so that\n    /// a malicious operator can't use this to quickly exit their stake after\n    /// attempting an attack on the network. It's also expected that the\n    /// operator will not re-register the same darknode again.\n    function recover(\n        address _darknodeID,\n        address _bondRecipient,\n        bytes calldata _signature\n    ) external onlyOwner {\n        require(\n            isRefundable(_darknodeID) || isDeregistered(_darknodeID),\n            \"DarknodeRegistry: must be deregistered\"\n        );\n\n        address darknodeOperator = store.darknodeOperator(_darknodeID);\n\n        require(\n            ECDSA.recover(\n                keccak256(\n                    abi.encodePacked(\n                        \"\\x19Ethereum Signed Message:\\n64\",\n                        \"DarknodeRegistry.recover\",\n                        _darknodeID,\n                        _bondRecipient\n                    )\n                ),\n                _signature\n            ) == darknodeOperator,\n            \"DarknodeRegistry: invalid signature\"\n        );\n\n        // Remember the bond amount\n        uint256 amount = store.darknodeBond(_darknodeID);\n\n        // Erase the darknode from the registry\n        store.removeDarknode(_darknodeID);\n\n        // Refund the operator by transferring REN\n        require(\n            ren.transfer(_bondRecipient, amount),\n            \"DarknodeRegistry: bond transfer failed\"\n        );\n\n        // Emit an event.\n        emit LogDarknodeRefunded(darknodeOperator, _darknodeID, amount);\n        emit LogDarknodeRecovered(\n            darknodeOperator,\n            _darknodeID,\n            _bondRecipient,\n            msg.sender\n        );\n    }\n\n    /// @notice Refund the bonds of multiple deregistered darknodes. This will\n    /// make the darknodes available for registration again. If one refund fails,\n    /// all refunds fail.\n    /// @param _darknodeIDs The darknode IDs that will be refunded.\n    function refundMultiple(address[] calldata _darknodeIDs) external {\n        // Save variables in memory to prevent redundant reads from storage\n        DarknodeRegistryStore _store = store;\n        Epoch memory _currentEpoch = currentEpoch;\n        Epoch memory _previousEpoch = previousEpoch;\n        uint256 _deregistrationInterval = deregistrationInterval;\n\n        // The sum of bonds to refund\n        uint256 sum;\n\n        for (uint256 i = 0; i < _darknodeIDs.length; i++) {\n            address darknodeID = _darknodeIDs[i];\n\n            uint256 deregisteredAt = _store.darknodeDeregisteredAt(darknodeID);\n            bool deregistered = _isDeregistered(deregisteredAt, _currentEpoch);\n\n            require(\n                _isRefundable(\n                    deregistered,\n                    deregisteredAt,\n                    _previousEpoch,\n                    _deregistrationInterval\n                ),\n                \"DarknodeRegistry: must be deregistered for at least one epoch\"\n            );\n\n            require(\n                _store.darknodeOperator(darknodeID) == msg.sender,\n                \"DarknodeRegistry: must be darknode owner\"\n            );\n\n            // Remember the bond amount\n            uint256 amount = _store.darknodeBond(darknodeID);\n\n            // Erase the darknode from the registry\n            _store.removeDarknode(darknodeID);\n\n            // Emit an event\n            emit LogDarknodeRefunded(msg.sender, darknodeID, amount);\n\n            // Increment the sum of bonds to be transferred\n            sum = sum.add(amount);\n        }\n\n        // Transfer all bonds together\n        require(\n            ren.transfer(msg.sender, sum),\n            \"DarknodeRegistry: bond transfers failed\"\n        );\n    }\n\n    /// @notice Retrieves the address of the account that registered a darknode.\n    /// @param _darknodeID The ID of the darknode to retrieve the owner for.\n    function getDarknodeOperator(address _darknodeID)\n        external\n        view\n        returns (address payable)\n    {\n        return store.darknodeOperator(_darknodeID);\n    }\n\n    /// @notice Retrieves the bond amount of a darknode in 10^-18 REN.\n    /// @param _darknodeID The ID of the darknode to retrieve the bond for.\n    function getDarknodeBond(address _darknodeID)\n        external\n        view\n        returns (uint256)\n    {\n        return store.darknodeBond(_darknodeID);\n    }\n\n    /// @notice Retrieves the encryption public key of the darknode.\n    /// @param _darknodeID The ID of the darknode to retrieve the public key for.\n    function getDarknodePublicKey(address _darknodeID)\n        external\n        view\n        returns (bytes memory)\n    {\n        return store.darknodePublicKey(_darknodeID);\n    }\n\n    /// @notice Retrieves a list of darknodes which are registered for the\n    /// current epoch.\n    /// @param _start A darknode ID used as an offset for the list. If _start is\n    ///        0x0, the first dark node will be used. _start won't be\n    ///        included it is not registered for the epoch.\n    /// @param _count The number of darknodes to retrieve starting from _start.\n    ///        If _count is 0, all of the darknodes from _start are\n    ///        retrieved. If _count is more than the remaining number of\n    ///        registered darknodes, the rest of the list will contain\n    ///        0x0s.\n    function getDarknodes(address _start, uint256 _count)\n        external\n        view\n        returns (address[] memory)\n    {\n        uint256 count = _count;\n        if (count == 0) {\n            count = numDarknodes;\n        }\n        return getDarknodesFromEpochs(_start, count, false);\n    }\n\n    /// @notice Retrieves a list of darknodes which were registered for the\n    /// previous epoch. See `getDarknodes` for the parameter documentation.\n    function getPreviousDarknodes(address _start, uint256 _count)\n        external\n        view\n        returns (address[] memory)\n    {\n        uint256 count = _count;\n        if (count == 0) {\n            count = numDarknodesPreviousEpoch;\n        }\n        return getDarknodesFromEpochs(_start, count, true);\n    }\n\n    /// @notice Returns whether a darknode is scheduled to become registered\n    /// at next epoch.\n    /// @param _darknodeID The ID of the darknode to return.\n    function isPendingRegistration(address _darknodeID)\n        public\n        view\n        returns (bool)\n    {\n        uint256 registeredAt = store.darknodeRegisteredAt(_darknodeID);\n        return registeredAt != 0 && registeredAt > currentEpoch.blocktime;\n    }\n\n    /// @notice Returns if a darknode is in the pending deregistered state. In\n    /// this state a darknode is still considered registered.\n    function isPendingDeregistration(address _darknodeID)\n        public\n        view\n        returns (bool)\n    {\n        uint256 deregisteredAt = store.darknodeDeregisteredAt(_darknodeID);\n        return deregisteredAt != 0 && deregisteredAt > currentEpoch.blocktime;\n    }\n\n    /// @notice Returns if a darknode is in the deregistered state.\n    function isDeregistered(address _darknodeID) public view returns (bool) {\n        uint256 deregisteredAt = store.darknodeDeregisteredAt(_darknodeID);\n        return _isDeregistered(deregisteredAt, currentEpoch);\n    }\n\n    /// @notice Returns if a darknode can be deregistered. This is true if the\n    /// darknodes is in the registered state and has not attempted to\n    /// deregister yet.\n    function isDeregisterable(address _darknodeID) public view returns (bool) {\n        DarknodeRegistryStore _store = store;\n        uint256 deregisteredAt = _store.darknodeDeregisteredAt(_darknodeID);\n        bool registered = isRegisteredInEpoch(\n            _store.darknodeRegisteredAt(_darknodeID),\n            deregisteredAt,\n            currentEpoch\n        );\n        return _isDeregisterable(registered, deregisteredAt);\n    }\n\n    /// @notice Returns if a darknode is in the refunded state. This is true\n    /// for darknodes that have never been registered, or darknodes that have\n    /// been deregistered and refunded.\n    function isRefunded(address _darknodeID) public view returns (bool) {\n        DarknodeRegistryStore _store = store;\n        uint256 registeredAt = _store.darknodeRegisteredAt(_darknodeID);\n        uint256 deregisteredAt = _store.darknodeDeregisteredAt(_darknodeID);\n        return _isRefunded(registeredAt, deregisteredAt);\n    }\n\n    /// @notice Returns if a darknode is refundable. This is true for darknodes\n    /// that have been in the deregistered state for one full epoch.\n    function isRefundable(address _darknodeID) public view returns (bool) {\n        uint256 deregisteredAt = store.darknodeDeregisteredAt(_darknodeID);\n        bool deregistered = _isDeregistered(deregisteredAt, currentEpoch);\n\n        return\n            _isRefundable(\n                deregistered,\n                deregisteredAt,\n                previousEpoch,\n                deregistrationInterval\n            );\n    }\n\n    /// @notice Returns the registration time of a given darknode.\n    function darknodeRegisteredAt(address darknodeID)\n        external\n        view\n        returns (uint256)\n    {\n        return store.darknodeRegisteredAt(darknodeID);\n    }\n\n    /// @notice Returns the deregistration time of a given darknode.\n    function darknodeDeregisteredAt(address darknodeID)\n        external\n        view\n        returns (uint256)\n    {\n        return store.darknodeDeregisteredAt(darknodeID);\n    }\n\n    /// @notice Returns if a darknode is in the registered state.\n    function isRegistered(address _darknodeID) public view returns (bool) {\n        DarknodeRegistryStore _store = store;\n        uint256 registeredAt = _store.darknodeRegisteredAt(_darknodeID);\n        uint256 deregisteredAt = _store.darknodeDeregisteredAt(_darknodeID);\n        return isRegisteredInEpoch(registeredAt, deregisteredAt, currentEpoch);\n    }\n\n    /// @notice Returns if a darknode was in the registered state last epoch.\n    function isRegisteredInPreviousEpoch(address _darknodeID)\n        public\n        view\n        returns (bool)\n    {\n        DarknodeRegistryStore _store = store;\n        uint256 registeredAt = _store.darknodeRegisteredAt(_darknodeID);\n        uint256 deregisteredAt = _store.darknodeDeregisteredAt(_darknodeID);\n        return isRegisteredInEpoch(registeredAt, deregisteredAt, previousEpoch);\n    }\n\n    function getOperatorDarknodes(address _operator)\n        public\n        view\n        returns (address[] memory)\n    {\n        address[] memory nodesPadded = new address[](numDarknodes);\n\n        address[] memory allNodes = getDarknodesFromEpochs(\n            address(0),\n            numDarknodes,\n            false\n        );\n\n        uint256 j = 0;\n        for (uint256 i = 0; i < allNodes.length; i++) {\n            if (store.darknodeOperator(allNodes[i]) == _operator) {\n                nodesPadded[j] = (allNodes[i]);\n                j++;\n            }\n        }\n\n        address[] memory nodes = new address[](j);\n        for (uint256 i = 0; i < j; i++) {\n            nodes[i] = nodesPadded[i];\n        }\n\n        return nodes;\n    }\n\n    /// @notice Returns if a darknode was in the registered state for a given\n    /// epoch.\n    /// @param _epoch One of currentEpoch, previousEpoch.\n    function isRegisteredInEpoch(\n        uint256 _registeredAt,\n        uint256 _deregisteredAt,\n        Epoch memory _epoch\n    ) private pure returns (bool) {\n        bool registered = _registeredAt != 0 &&\n            _registeredAt <= _epoch.blocktime;\n        bool notDeregistered = _deregisteredAt == 0 ||\n            _deregisteredAt > _epoch.blocktime;\n        // The Darknode has been registered and has not yet been deregistered,\n        // although it might be pending deregistration\n        return registered && notDeregistered;\n    }\n\n    /// Private function called by `isDeregistered`, `isRefundable`, and `refundMultiple`.\n    function _isDeregistered(\n        uint256 _deregisteredAt,\n        Epoch memory _currentEpoch\n    ) private pure returns (bool) {\n        return\n            _deregisteredAt != 0 && _deregisteredAt <= _currentEpoch.blocktime;\n    }\n\n    /// Private function called by `isDeregisterable` and `deregisterMultiple`.\n    function _isDeregisterable(bool _registered, uint256 _deregisteredAt)\n        private\n        pure\n        returns (bool)\n    {\n        // The Darknode is currently in the registered state and has not been\n        // transitioned to the pending deregistration, or deregistered, state\n        return _registered && _deregisteredAt == 0;\n    }\n\n    /// Private function called by `isRefunded` and `registerMultiple`.\n    function _isRefunded(uint256 registeredAt, uint256 deregisteredAt)\n        private\n        pure\n        returns (bool)\n    {\n        return registeredAt == 0 && deregisteredAt == 0;\n    }\n\n    /// Private function called by `isRefundable` and `refundMultiple`.\n    function _isRefundable(\n        bool _deregistered,\n        uint256 _deregisteredAt,\n        Epoch memory _previousEpoch,\n        uint256 _deregistrationInterval\n    ) private pure returns (bool) {\n        return\n            _deregistered &&\n            _deregisteredAt <=\n            (_previousEpoch.blocktime - _deregistrationInterval);\n    }\n\n    /// @notice Returns a list of darknodes registered for either the current\n    /// or the previous epoch. See `getDarknodes` for documentation on the\n    /// parameters `_start` and `_count`.\n    /// @param _usePreviousEpoch If true, use the previous epoch, otherwise use\n    ///        the current epoch.\n    function getDarknodesFromEpochs(\n        address _start,\n        uint256 _count,\n        bool _usePreviousEpoch\n    ) private view returns (address[] memory) {\n        uint256 count = _count;\n        if (count == 0) {\n            count = numDarknodes;\n        }\n\n        address[] memory nodes = new address[](count);\n\n        // Begin with the first node in the list\n        uint256 n = 0;\n        address next = _start;\n        if (next == address(0)) {\n            next = store.begin();\n        }\n\n        // Iterate until all registered Darknodes have been collected\n        while (n < count) {\n            if (next == address(0)) {\n                break;\n            }\n            // Only include Darknodes that are currently registered\n            bool includeNext;\n            if (_usePreviousEpoch) {\n                includeNext = isRegisteredInPreviousEpoch(next);\n            } else {\n                includeNext = isRegistered(next);\n            }\n            if (!includeNext) {\n                next = store.next(next);\n                continue;\n            }\n            nodes[n] = next;\n            next = store.next(next);\n            n += 1;\n        }\n        return nodes;\n    }\n\n    /// Private function called by `deregister` and `slash`\n    function deregisterDarknode(address _darknodeID) private {\n        address darknodeOperator = store.darknodeOperator(_darknodeID);\n\n        // Flag the darknode for deregistration\n        store.updateDarknodeDeregisteredAt(\n            _darknodeID,\n            currentEpoch.blocktime.add(minimumEpochInterval)\n        );\n        numDarknodesNextEpoch = numDarknodesNextEpoch.sub(1);\n\n        // Emit an event\n        emit LogDarknodeDeregistered(darknodeOperator, _darknodeID);\n    }\n\n    function getDarknodeCountFromEpochs()\n        private\n        view\n        returns (\n            uint256,\n            uint256,\n            uint256\n        )\n    {\n        // Begin with the first node in the list\n        uint256 nPreviousEpoch = 0;\n        uint256 nCurrentEpoch = 0;\n        uint256 nNextEpoch = 0;\n        address next = store.begin();\n\n        // Iterate until all registered Darknodes have been collected\n        while (true) {\n            // End of darknode list.\n            if (next == address(0)) {\n                break;\n            }\n\n            if (isRegisteredInPreviousEpoch(next)) {\n                nPreviousEpoch += 1;\n            }\n\n            if (isRegistered(next)) {\n                nCurrentEpoch += 1;\n            }\n\n            // Darknode is registered and has not deregistered, or is pending\n            // becoming registered.\n            if (\n                ((isRegistered(next) && !isPendingDeregistration(next)) ||\n                    isPendingRegistration(next))\n            ) {\n                nNextEpoch += 1;\n            }\n            next = store.next(next);\n        }\n        return (nPreviousEpoch, nCurrentEpoch, nNextEpoch);\n    }\n}\n\n/* solium-disable-next-line no-empty-blocks */\ncontract DarknodeRegistryProxy is InitializableAdminUpgradeabilityProxy {\n\n}\n",
  "sourcePath": "/Users/jaz/Desktop/ren/dev/darknode-sol/contracts/DarknodeRegistry/DarknodeRegistry.sol",
  "compiler": {
    "name": "solc",
    "version": "0.5.17+commit.d19bba13.Emscripten.clang"
  },
  "schemaVersion": "3.4.3",
  "updatedAt": "2022-09-07T05:46:11.386Z",
  "networkType": "ethereum",
  "devdoc": {
    "methods": {
      "admin()": {
        "return": "The address of the proxy admin."
      },
      "changeAdmin(address)": {
        "details": "Changes the admin of the proxy. Only the current admin can call this function.",
        "params": {
          "newAdmin": "Address to transfer proxy administration to."
        }
      },
      "implementation()": {
        "return": "The address of the implementation."
      },
      "initialize(address,address,bytes)": {
        "params": {
          "_admin": "Address of the proxy administrator.",
          "_data": "Data to send as msg.data to the implementation to initialize the proxied contract. It should include the signature and the parameters of the function to be called, as described in https://solidity.readthedocs.io/en/v0.4.24/abi-spec.html#function-selector-and-argument-encoding. This parameter is optional, if no data is given the initialization call to proxied contract will be skipped.",
          "_logic": "address of the initial implementation."
        }
      },
      "initialize(address,bytes)": {
        "details": "Contract initializer.",
        "params": {
          "_data": "Data to send as msg.data to the implementation to initialize the proxied contract. It should include the signature and the parameters of the function to be called, as described in https://solidity.readthedocs.io/en/v0.4.24/abi-spec.html#function-selector-and-argument-encoding. This parameter is optional, if no data is given the initialization call to proxied contract will be skipped.",
          "_logic": "Address of the initial implementation."
        }
      },
      "upgradeTo(address)": {
        "details": "Upgrade the backing implementation of the proxy. Only the admin can call this function.",
        "params": {
          "newImplementation": "Address of the new implementation."
        }
      },
      "upgradeToAndCall(address,bytes)": {
        "details": "Upgrade the backing implementation of the proxy and call a function on the new implementation. This is useful to initialize the proxied contract.",
        "params": {
          "data": "Data to send as msg.data in the low level call. It should include the signature and the parameters of the function to be called, as described in https://solidity.readthedocs.io/en/v0.4.24/abi-spec.html#function-selector-and-argument-encoding.",
          "newImplementation": "Address of the new implementation."
        }
      }
    }
  },
  "userdoc": {
    "methods": {
      "initialize(address,address,bytes)": {
        "notice": "Contract initializer."
      }
    }
  }
}