{
  "contractName": "DarknodeRegistryV1ToV2Upgrader",
  "abi": [
    {
      "inputs": [
        {
          "internalType": "contract RenProxyAdmin",
          "name": "_renProxyAdmin",
          "type": "address"
        },
        {
          "internalType": "contract DarknodeRegistryLogicV1",
          "name": "_darknodeRegistryProxy",
          "type": "address"
        },
        {
          "internalType": "contract DarknodeRegistryLogicV2",
          "name": "_darknodeRegistryLogicV2",
          "type": "address"
        }
      ],
      "payable": false,
      "stateMutability": "nonpayable",
      "type": "constructor"
    },
    {
      "anonymous": false,
      "inputs": [
        {
          "indexed": true,
          "internalType": "address",
          "name": "previousOwner",
          "type": "address"
        },
        {
          "indexed": true,
          "internalType": "address",
          "name": "newOwner",
          "type": "address"
        }
      ],
      "name": "OwnershipTransferred",
      "type": "event"
    },
    {
      "constant": true,
      "inputs": [],
      "name": "darknodeRegistryLogicV2",
      "outputs": [
        {
          "internalType": "contract DarknodeRegistryLogicV2",
          "name": "",
          "type": "address"
        }
      ],
      "payable": false,
      "stateMutability": "view",
      "type": "function"
    },
    {
      "constant": true,
      "inputs": [],
      "name": "darknodeRegistryProxy",
      "outputs": [
        {
          "internalType": "contract DarknodeRegistryLogicV1",
          "name": "",
          "type": "address"
        }
      ],
      "payable": false,
      "stateMutability": "view",
      "type": "function"
    },
    {
      "constant": false,
      "inputs": [
        {
          "internalType": "address",
          "name": "sender",
          "type": "address"
        }
      ],
      "name": "initialize",
      "outputs": [],
      "payable": false,
      "stateMutability": "nonpayable",
      "type": "function"
    },
    {
      "constant": true,
      "inputs": [],
      "name": "isOwner",
      "outputs": [
        {
          "internalType": "bool",
          "name": "",
          "type": "bool"
        }
      ],
      "payable": false,
      "stateMutability": "view",
      "type": "function"
    },
    {
      "constant": true,
      "inputs": [],
      "name": "owner",
      "outputs": [
        {
          "internalType": "address",
          "name": "",
          "type": "address"
        }
      ],
      "payable": false,
      "stateMutability": "view",
      "type": "function"
    },
    {
      "constant": true,
      "inputs": [],
      "name": "previousAdminOwner",
      "outputs": [
        {
          "internalType": "address",
          "name": "",
          "type": "address"
        }
      ],
      "payable": false,
      "stateMutability": "view",
      "type": "function"
    },
    {
      "constant": true,
      "inputs": [],
      "name": "previousDarknodeRegistryOwner",
      "outputs": [
        {
          "internalType": "address",
          "name": "",
          "type": "address"
        }
      ],
      "payable": false,
      "stateMutability": "view",
      "type": "function"
    },
    {
      "constant": true,
      "inputs": [],
      "name": "renProxyAdmin",
      "outputs": [
        {
          "internalType": "contract RenProxyAdmin",
          "name": "",
          "type": "address"
        }
      ],
      "payable": false,
      "stateMutability": "view",
      "type": "function"
    },
    {
      "constant": false,
      "inputs": [],
      "name": "renounceOwnership",
      "outputs": [],
      "payable": false,
      "stateMutability": "nonpayable",
      "type": "function"
    },
    {
      "constant": false,
      "inputs": [
        {
          "internalType": "address",
          "name": "newOwner",
          "type": "address"
        }
      ],
      "name": "transferOwnership",
      "outputs": [],
      "payable": false,
      "stateMutability": "nonpayable",
      "type": "function"
    },
    {
      "constant": false,
      "inputs": [],
      "name": "upgrade",
      "outputs": [],
      "payable": false,
      "stateMutability": "nonpayable",
      "type": "function"
    },
    {
      "constant": false,
      "inputs": [
        {
          "internalType": "address",
          "name": "_darknodeID",
          "type": "address"
        },
        {
          "internalType": "address",
          "name": "_bondRecipient",
          "type": "address"
        },
        {
          "internalType": "bytes",
          "name": "_signature",
          "type": "bytes"
        }
      ],
      "name": "recover",
      "outputs": [],
      "payable": false,
      "stateMutability": "nonpayable",
      "type": "function"
    },
    {
      "constant": false,
      "inputs": [],
      "name": "returnDNR",
      "outputs": [],
      "payable": false,
      "stateMutability": "nonpayable",
      "type": "function"
    },
    {
      "constant": false,
      "inputs": [],
      "name": "returnProxyAdmin",
      "outputs": [],
      "payable": false,
      "stateMutability": "nonpayable",
      "type": "function"
    }
  ],
  "bytecode": "0x60806040523480156200001157600080fd5b5060405162001a9c38038062001a9c833981810160405260608110156200003757600080fd5b50805160208083015160409093015191929190620000609033906200058e620001b8821b17901c565b606680546001600160a01b038086166001600160a01b03199283161792839055606780548683169084161790556068805485831693169290921790915560408051638da5cb5b60e01b815290519290911691638da5cb5b91600480820192602092909190829003018186803b158015620000d957600080fd5b505afa158015620000ee573d6000803e3d6000fd5b505050506040513d60208110156200010557600080fd5b5051606980546001600160a01b0319166001600160a01b0392831617905560675460408051638da5cb5b60e01b815290519190921691638da5cb5b916004808301926020929190829003018186803b1580156200016157600080fd5b505afa15801562000176573d6000803e3d6000fd5b505050506040513d60208110156200018d57600080fd5b5051606a80546001600160a01b0319166001600160a01b0390921691909117905550620002c1915050565b600054610100900460ff1680620001dd5750620001dd6001600160e01b03620002bb16565b80620001ec575060005460ff16155b620002295760405162461bcd60e51b815260040180806020018281038252602e81526020018062001a6e602e913960400191505060405180910390fd5b600054610100900460ff1615801562000255576000805460ff1961ff0019909116610100171660011790555b603380546001600160a01b0319166001600160a01b0384811691909117918290556040519116906000907f8be0079c531659141344cd1fd0a4f28419497f9722a3daafe3b4186f6b6457e0908290a38015620002b7576000805461ff00191690555b5050565b303b1590565b61179d80620002d16000396000f3fe608060405234801561001057600080fd5b50600436106100ea5760003560e01c80638f32d59b1161008c578063c4d66de811610066578063c4d66de8146101f2578063d55ec69714610218578063f07e254814610220578063f2fde38b14610228576100ea565b80638f32d59b146101c65780639e83f58d146101e2578063a26875e0146101ea576100ea565b8063496e5d75116100c8578063496e5d7514610125578063702cc24f1461012d578063715018a6146101b65780638da5cb5b146101be576100ea565b806324202ebe146100ef57806328ccb9b4146100f95780632c1410af1461011d575b600080fd5b6100f761024e565b005b610101610300565b604080516001600160a01b039092168252519081900360200190f35b61010161030f565b61010161031e565b6100f76004803603606081101561014357600080fd5b6001600160a01b03823581169260208101359091169181019060608101604082013564010000000081111561017757600080fd5b82018360208201111561018957600080fd5b803590602001918460018302840111640100000000831117156101ab57600080fd5b50909250905061032d565b6100f7610421565b6101016104b2565b6101ce6104c1565b604080519115158252519081900360200190f35b6100f76104e7565b61010161057f565b6100f76004803603602081101561020857600080fd5b50356001600160a01b031661058e565b6100f7610680565b6101016113f5565b6100f76004803603602081101561023e57600080fd5b50356001600160a01b0316611404565b6102566104c1565b610295576040805162461bcd60e51b8152602060048201819052602482015260008051602061164e833981519152604482015290519081900360640190fd5b6066546069546040805163f2fde38b60e01b81526001600160a01b0392831660048201529051919092169163f2fde38b91602480830192600092919082900301818387803b1580156102e657600080fd5b505af11580156102fa573d6000803e3d6000fd5b50505050565b6068546001600160a01b031681565b606a546001600160a01b031681565b6066546001600160a01b031681565b6103356104c1565b610374576040805162461bcd60e51b8152602060048201819052602482015260008051602061164e833981519152604482015290519081900360640190fd5b60675460405163702cc24f60e01b81526001600160a01b0386811660048301908152868216602484015260606044840190815260648401869052919093169263702cc24f92889288928892889290608401848480828437600081840152601f19601f82011690508083019250505095505050505050600060405180830381600087803b15801561040357600080fd5b505af1158015610417573d6000803e3d6000fd5b5050505050505050565b6104296104c1565b610468576040805162461bcd60e51b8152602060048201819052602482015260008051602061164e833981519152604482015290519081900360640190fd5b6033546040516000916001600160a01b0316907f8be0079c531659141344cd1fd0a4f28419497f9722a3daafe3b4186f6b6457e0908390a3603380546001600160a01b0319169055565b6033546001600160a01b031690565b6033546000906001600160a01b03166104d8611457565b6001600160a01b031614905090565b6104ef6104c1565b61052e576040805162461bcd60e51b8152602060048201819052602482015260008051602061164e833981519152604482015290519081900360640190fd5b606754606a5460408051630471cb7960e31b81526001600160a01b0392831660048201529051919092169163238e5bc891602480830192600092919082900301818387803b1580156102e657600080fd5b6069546001600160a01b031681565b600054610100900460ff16806105a757506105a761145b565b806105b5575060005460ff16155b6105f05760405162461bcd60e51b815260040180806020018281038252602e81526020018061166e602e913960400191505060405180910390fd5b600054610100900460ff1615801561061b576000805460ff1961ff0019909116610100171660011790555b603380546001600160a01b0319166001600160a01b0384811691909117918290556040519116906000907f8be0079c531659141344cd1fd0a4f28419497f9722a3daafe3b4186f6b6457e0908290a3801561067c576000805461ff00191690555b5050565b6106886104c1565b6106c7576040805162461bcd60e51b8152602060048201819052602482015260008051602061164e833981519152604482015290519081900360640190fd5b60675460408051631460e60360e01b815290516000926001600160a01b031691631460e603916004808301926020929190829003018186803b15801561070c57600080fd5b505afa158015610720573d6000803e3d6000fd5b505050506040513d602081101561073657600080fd5b505160675460408051630423f4fd60e11b815290519293506000926001600160a01b0390921691630847e9fa91600480820192602092909190829003018186803b15801561078357600080fd5b505afa158015610797573d6000803e3d6000fd5b505050506040513d60208110156107ad57600080fd5b5051606754604080516338ba068b60e11b815290519293506000926001600160a01b03909216916371740d1691600480820192602092909190829003018186803b1580156107fa57600080fd5b505afa15801561080e573d6000803e3d6000fd5b505050506040513d602081101561082457600080fd5b50516067546040805163aa7517e160e01b815290519293506000926001600160a01b039092169163aa7517e191600480820192602092909190829003018186803b15801561087157600080fd5b505afa158015610885573d6000803e3d6000fd5b505050506040513d602081101561089b57600080fd5b5051606754604080516363ede15f60e11b815290519293506000926001600160a01b039092169163c7dbc2be91600480820192602092909190829003018186803b1580156108e857600080fd5b505afa1580156108fc573d6000803e3d6000fd5b505050506040513d602081101561091257600080fd5b5051606754604080516355cacda560e01b815290519293506000926001600160a01b03909216916355cacda591600480820192602092909190829003018186803b15801561095f57600080fd5b505afa158015610973573d6000803e3d6000fd5b505050506040513d602081101561098957600080fd5b5051606754604080516399ddebfb60e01b815290519293506000926001600160a01b03909216916399ddebfb91600480820192602092909190829003018186803b1580156109d657600080fd5b505afa1580156109ea573d6000803e3d6000fd5b505050506040513d6020811015610a0057600080fd5b505160675460408051638a9b406760e01b815290519293506000926001600160a01b0390921691638a9b406791600480820192602092909190829003018186803b158015610a4d57600080fd5b505afa158015610a61573d6000803e3d6000fd5b505050506040513d6020811015610a7757600080fd5b50516067546040805163975057e760e01b815290519293506000926001600160a01b039092169163975057e791600480820192602092909190829003018186803b158015610ac457600080fd5b505afa158015610ad8573d6000803e3d6000fd5b505050506040513d6020811015610aee57600080fd5b50516067546040805163b6b34c6760e01b815290519293506000926001600160a01b039092169163b6b34c6791600480820192602092909190829003018186803b158015610b3b57600080fd5b505afa158015610b4f573d6000803e3d6000fd5b505050506040513d6020811015610b6557600080fd5b5051606754604080516309ce3c1960e31b815290519293506001600160a01b0390911691634e71e0c89160048082019260009290919082900301818387803b158015610bb057600080fd5b505af1158015610bc4573d6000803e3d6000fd5b50506066546067546068546040805163266a23b160e21b81526001600160a01b0393841660048201529183166024830152519190921693506399a88ec49250604480830192600092919082900301818387803b158015610c2357600080fd5b505af1158015610c37573d6000803e3d6000fd5b50505050606760009054906101000a90046001600160a01b03166001600160a01b0316631460e6036040518163ffffffff1660e01b815260040160206040518083038186803b158015610c8957600080fd5b505afa158015610c9d573d6000803e3d6000fd5b505050506040513d6020811015610cb357600080fd5b50518a14610cf25760405162461bcd60e51b815260040180806020018281038252602f815260200180611503602f913960400191505060405180910390fd5b606760009054906101000a90046001600160a01b03166001600160a01b0316630847e9fa6040518163ffffffff1660e01b815260040160206040518083038186803b158015610d4057600080fd5b505afa158015610d54573d6000803e3d6000fd5b505050506040513d6020811015610d6a57600080fd5b50518914610da95760405162461bcd60e51b81526004018080602001828103825260388152602001806115c06038913960400191505060405180910390fd5b606760009054906101000a90046001600160a01b03166001600160a01b03166371740d166040518163ffffffff1660e01b815260040160206040518083038186803b158015610df757600080fd5b505afa158015610e0b573d6000803e3d6000fd5b505050506040513d6020811015610e2157600080fd5b50518814610e605760405162461bcd60e51b815260040180806020018281038252603c8152602001806116f4603c913960400191505060405180910390fd5b606760009054906101000a90046001600160a01b03166001600160a01b031663aa7517e16040518163ffffffff1660e01b815260040160206040518083038186803b158015610eae57600080fd5b505afa158015610ec2573d6000803e3d6000fd5b505050506040513d6020811015610ed857600080fd5b50518714610f175760405162461bcd60e51b815260040180806020018281038252602e815260200180611620602e913960400191505060405180910390fd5b606760009054906101000a90046001600160a01b03166001600160a01b031663c7dbc2be6040518163ffffffff1660e01b815260040160206040518083038186803b158015610f6557600080fd5b505afa158015610f79573d6000803e3d6000fd5b505050506040513d6020811015610f8f57600080fd5b50518614610fce5760405162461bcd60e51b81526004018080602001828103825260318152602001806115586031913960400191505060405180910390fd5b606760009054906101000a90046001600160a01b03166001600160a01b03166355cacda56040518163ffffffff1660e01b815260040160206040518083038186803b15801561101c57600080fd5b505afa158015611030573d6000803e3d6000fd5b505050506040513d602081101561104657600080fd5b505185146110855760405162461bcd60e51b81526004018080602001828103825260378152602001806115896037913960400191505060405180910390fd5b606760009054906101000a90046001600160a01b03166001600160a01b03166399ddebfb6040518163ffffffff1660e01b815260040160206040518083038186803b1580156110d357600080fd5b505afa1580156110e7573d6000803e3d6000fd5b505050506040513d60208110156110fd57600080fd5b5051841461113c5760405162461bcd60e51b81526004018080602001828103825260398152602001806117306039913960400191505060405180910390fd5b606760009054906101000a90046001600160a01b03166001600160a01b0316638a9b40676040518163ffffffff1660e01b815260040160206040518083038186803b15801561118a57600080fd5b505afa15801561119e573d6000803e3d6000fd5b505050506040513d60208110156111b457600080fd5b50516001600160a01b038481169116146111ff5760405162461bcd60e51b81526004018080602001828103825260268152602001806116ce6026913960400191505060405180910390fd5b606760009054906101000a90046001600160a01b03166001600160a01b031663975057e76040518163ffffffff1660e01b815260040160206040518083038186803b15801561124d57600080fd5b505afa158015611261573d6000803e3d6000fd5b505050506040513d602081101561127757600080fd5b50516001600160a01b038381169116146112c25760405162461bcd60e51b81526004018080602001828103825260288152602001806115f86028913960400191505060405180910390fd5b606760009054906101000a90046001600160a01b03166001600160a01b031663b6b34c676040518163ffffffff1660e01b815260040160206040518083038186803b15801561131057600080fd5b505afa158015611324573d6000803e3d6000fd5b505050506040513d602081101561133a57600080fd5b50516001600160a01b038281169116146113855760405162461bcd60e51b815260040180806020018281038252603281526020018061169c6032913960400191505060405180910390fd5b6067546040805163166273a760e31b815260006004820181905291516001600160a01b039093169263b3139d389260248084019391929182900301818387803b1580156113d157600080fd5b505af11580156113e5573d6000803e3d6000fd5b5050505050505050505050505050565b6067546001600160a01b031681565b61140c6104c1565b61144b576040805162461bcd60e51b8152602060048201819052602482015260008051602061164e833981519152604482015290519081900360640190fd5b61145481611461565b50565b3390565b303b1590565b6001600160a01b0381166114a65760405162461bcd60e51b81526004018080602001828103825260268152602001806115326026913960400191505060405180910390fd5b6033546040516001600160a01b038084169216907f8be0079c531659141344cd1fd0a4f28419497f9722a3daafe3b4186f6b6457e090600090a3603380546001600160a01b0319166001600160a01b039290921691909117905556fe4d69677261746f723a20657870656374656420276e756d4461726b6e6f64657327206e6f7420746f206368616e67654f776e61626c653a206e6577206f776e657220697320746865207a65726f20616464726573734d69677261746f723a20657870656374656420276d696e696d756d506f6453697a6527206e6f7420746f206368616e67654d69677261746f723a20657870656374656420276d696e696d756d45706f6368496e74657276616c27206e6f7420746f206368616e67654d69677261746f723a20657870656374656420276e756d4461726b6e6f6465734e65787445706f636827206e6f7420746f206368616e67654d69677261746f723a206578706563746564202773746f726527206e6f7420746f206368616e67654d69677261746f723a20657870656374656420276d696e696d756d426f6e6427206e6f7420746f206368616e67654f776e61626c653a2063616c6c6572206973206e6f7420746865206f776e6572436f6e747261637420696e7374616e63652068617320616c7265616479206265656e20696e697469616c697a65644d69677261746f723a20657870656374656420276461726b6e6f64655061796d656e7427206e6f7420746f206368616e67654d69677261746f723a206578706563746564202772656e27206e6f7420746f206368616e67654d69677261746f723a20657870656374656420276e756d4461726b6e6f64657350726576696f757345706f636827206e6f7420746f206368616e67654d69677261746f723a20657870656374656420276465726567697374726174696f6e496e74657276616c27206e6f7420746f206368616e6765a265627a7a723158202279d23c2083b8441662c9dd3a770fd205eaccf67054ee3c86eb09961091dfa564736f6c63430005110032436f6e747261637420696e7374616e63652068617320616c7265616479206265656e20696e697469616c697a6564",
  "source": "pragma solidity ^0.5.17;\n\nimport \"@openzeppelin/contracts-ethereum-package/contracts/ownership/Ownable.sol\";\n\nimport \"./DarknodeRegistry.sol\";\n\nimport \"../Governance/RenProxyAdmin.sol\";\n\ncontract DarknodeRegistryV1ToV2Upgrader is Ownable {\n    RenProxyAdmin public renProxyAdmin;\n    DarknodeRegistryLogicV1 public darknodeRegistryProxy;\n    DarknodeRegistryLogicV2 public darknodeRegistryLogicV2;\n    address public previousAdminOwner;\n    address public previousDarknodeRegistryOwner;\n\n    constructor(\n        RenProxyAdmin _renProxyAdmin,\n        DarknodeRegistryLogicV1 _darknodeRegistryProxy,\n        DarknodeRegistryLogicV2 _darknodeRegistryLogicV2\n    ) public {\n        Ownable.initialize(msg.sender);\n        renProxyAdmin = _renProxyAdmin;\n        darknodeRegistryProxy = _darknodeRegistryProxy;\n        darknodeRegistryLogicV2 = _darknodeRegistryLogicV2;\n        previousAdminOwner = renProxyAdmin.owner();\n        previousDarknodeRegistryOwner = darknodeRegistryProxy.owner();\n    }\n\n    function upgrade() public onlyOwner {\n        // Pre-checks\n        uint256 numDarknodes = darknodeRegistryProxy.numDarknodes();\n        uint256 numDarknodesNextEpoch = darknodeRegistryProxy\n            .numDarknodesNextEpoch();\n        uint256 numDarknodesPreviousEpoch = darknodeRegistryProxy\n            .numDarknodesPreviousEpoch();\n        uint256 minimumBond = darknodeRegistryProxy.minimumBond();\n        uint256 minimumPodSize = darknodeRegistryProxy.minimumPodSize();\n        uint256 minimumEpochInterval = darknodeRegistryProxy\n            .minimumEpochInterval();\n        uint256 deregistrationInterval = darknodeRegistryProxy\n            .deregistrationInterval();\n        RenToken ren = darknodeRegistryProxy.ren();\n        DarknodeRegistryStore store = darknodeRegistryProxy.store();\n        IDarknodePayment darknodePayment = darknodeRegistryProxy\n            .darknodePayment();\n\n        // Claim and update.\n        darknodeRegistryProxy.claimOwnership();\n        renProxyAdmin.upgrade(\n            AdminUpgradeabilityProxy(\n                // Cast gateway instance to payable address\n                address(uint160(address(darknodeRegistryProxy)))\n            ),\n            address(darknodeRegistryLogicV2)\n        );\n\n        // Post-checks\n        require(\n            numDarknodes == darknodeRegistryProxy.numDarknodes(),\n            \"Migrator: expected 'numDarknodes' not to change\"\n        );\n        require(\n            numDarknodesNextEpoch ==\n                darknodeRegistryProxy.numDarknodesNextEpoch(),\n            \"Migrator: expected 'numDarknodesNextEpoch' not to change\"\n        );\n        require(\n            numDarknodesPreviousEpoch ==\n                darknodeRegistryProxy.numDarknodesPreviousEpoch(),\n            \"Migrator: expected 'numDarknodesPreviousEpoch' not to change\"\n        );\n        require(\n            minimumBond == darknodeRegistryProxy.minimumBond(),\n            \"Migrator: expected 'minimumBond' not to change\"\n        );\n        require(\n            minimumPodSize == darknodeRegistryProxy.minimumPodSize(),\n            \"Migrator: expected 'minimumPodSize' not to change\"\n        );\n        require(\n            minimumEpochInterval ==\n                darknodeRegistryProxy.minimumEpochInterval(),\n            \"Migrator: expected 'minimumEpochInterval' not to change\"\n        );\n        require(\n            deregistrationInterval ==\n                darknodeRegistryProxy.deregistrationInterval(),\n            \"Migrator: expected 'deregistrationInterval' not to change\"\n        );\n        require(\n            ren == darknodeRegistryProxy.ren(),\n            \"Migrator: expected 'ren' not to change\"\n        );\n        require(\n            store == darknodeRegistryProxy.store(),\n            \"Migrator: expected 'store' not to change\"\n        );\n        require(\n            darknodePayment == darknodeRegistryProxy.darknodePayment(),\n            \"Migrator: expected 'darknodePayment' not to change\"\n        );\n\n        darknodeRegistryProxy.updateSlasher(IDarknodeSlasher(0x0));\n    }\n\n    function recover(\n        address _darknodeID,\n        address _bondRecipient,\n        bytes calldata _signature\n    ) external onlyOwner {\n        return\n            DarknodeRegistryLogicV2(address(darknodeRegistryProxy)).recover(\n                _darknodeID,\n                _bondRecipient,\n                _signature\n            );\n    }\n\n    function returnDNR() public onlyOwner {\n        darknodeRegistryProxy._directTransferOwnership(\n            previousDarknodeRegistryOwner\n        );\n    }\n\n    function returnProxyAdmin() public onlyOwner {\n        renProxyAdmin.transferOwnership(previousAdminOwner);\n    }\n}\n",
  "sourcePath": "/Users/jaz/Desktop/ren/dev/darknode-sol/contracts/DarknodeRegistry/DarknodeRegistryV1ToV2Upgrader.sol",
  "compiler": {
    "name": "solc",
    "version": "0.5.17+commit.d19bba13.Emscripten.clang"
  },
  "schemaVersion": "3.4.3",
  "updatedAt": "2022-09-07T05:46:11.450Z",
  "networkType": "ethereum",
  "devdoc": {
    "methods": {
      "initialize(address)": {
        "details": "Initializes the contract setting the deployer as the initial owner."
      },
      "isOwner()": {
        "details": "Returns true if the caller is the current owner."
      },
      "owner()": {
        "details": "Returns the address of the current owner."
      },
      "renounceOwnership()": {
        "details": "Leaves the contract without owner. It will not be possible to call `onlyOwner` functions anymore. Can only be called by the current owner.     * > Note: Renouncing ownership will leave the contract without an owner, thereby removing any functionality that is only available to the owner."
      },
      "transferOwnership(address)": {
        "details": "Transfers ownership of the contract to a new account (`newOwner`). Can only be called by the current owner."
      }
    }
  },
  "userdoc": {
    "methods": {}
  }
}