{
  "contractName": "ForceSend",
  "abi": [
    {
      "constant": false,
      "inputs": [
        {
          "internalType": "address payable",
          "name": "recipient",
          "type": "address"
        }
      ],
      "name": "send",
      "outputs": [],
      "payable": true,
      "stateMutability": "payable",
      "type": "function"
    }
  ],
  "bytecode": "0x6080604052348015600f57600080fd5b5060878061001e6000396000f3fe608060405260043610601c5760003560e01c80633e58c58c146021575b600080fd5b604460048036036020811015603557600080fd5b50356001600160a01b03166046565b005b806001600160a01b0316fffea265627a7a723158202133286d53b3ca9064f07a071930e488e4c10c0bc8f3c64a1895c18e55d0634b64736f6c63430005110032",
  "source": "pragma solidity 0.5.17;\n\ncontract ForceSend {\n    function send(address payable recipient) public payable {\n        selfdestruct(recipient);\n    }\n}\n",
  "sourcePath": "/Users/jaz/Desktop/ren/dev/darknode-sol/contracts/test/ForceSend.sol",
  "compiler": {
    "name": "solc",
    "version": "0.5.17+commit.d19bba13.Emscripten.clang"
  },
  "schemaVersion": "3.4.3",
  "updatedAt": "2022-09-07T05:19:15.867Z",
  "devdoc": {
    "methods": {}
  },
  "userdoc": {
    "methods": {}
  }
}