{
  "contractName": "LinkedListTest",
  "abi": [
    {
      "constant": true,
      "inputs": [
        {
          "internalType": "address",
          "name": "node",
          "type": "address"
        }
      ],
      "name": "isInList",
      "outputs": [
        {
          "internalType": "bool",
          "name": "",
          "type": "bool"
        }
      ],
      "payable": false,
      "stateMutability": "view",
      "type": "function"
    },
    {
      "constant": true,
      "inputs": [
        {
          "internalType": "address",
          "name": "node",
          "type": "address"
        }
      ],
      "name": "next",
      "outputs": [
        {
          "internalType": "address",
          "name": "",
          "type": "address"
        }
      ],
      "payable": false,
      "stateMutability": "view",
      "type": "function"
    },
    {
      "constant": true,
      "inputs": [
        {
          "internalType": "address",
          "name": "node",
          "type": "address"
        }
      ],
      "name": "previous",
      "outputs": [
        {
          "internalType": "address",
          "name": "",
          "type": "address"
        }
      ],
      "payable": false,
      "stateMutability": "view",
      "type": "function"
    },
    {
      "constant": true,
      "inputs": [],
      "name": "begin",
      "outputs": [
        {
          "internalType": "address",
          "name": "",
          "type": "address"
        }
      ],
      "payable": false,
      "stateMutability": "view",
      "type": "function"
    },
    {
      "constant": true,
      "inputs": [],
      "name": "end",
      "outputs": [
        {
          "internalType": "address",
          "name": "",
          "type": "address"
        }
      ],
      "payable": false,
      "stateMutability": "view",
      "type": "function"
    },
    {
      "constant": false,
      "inputs": [
        {
          "internalType": "address",
          "name": "target",
          "type": "address"
        },
        {
          "internalType": "address",
          "name": "newNode",
          "type": "address"
        }
      ],
      "name": "insertBefore",
      "outputs": [],
      "payable": false,
      "stateMutability": "nonpayable",
      "type": "function"
    },
    {
      "constant": false,
      "inputs": [
        {
          "internalType": "address",
          "name": "target",
          "type": "address"
        },
        {
          "internalType": "address",
          "name": "newNode",
          "type": "address"
        }
      ],
      "name": "insertAfter",
      "outputs": [],
      "payable": false,
      "stateMutability": "nonpayable",
      "type": "function"
    },
    {
      "constant": false,
      "inputs": [
        {
          "internalType": "address",
          "name": "node",
          "type": "address"
        }
      ],
      "name": "remove",
      "outputs": [],
      "payable": false,
      "stateMutability": "nonpayable",
      "type": "function"
    },
    {
      "constant": false,
      "inputs": [
        {
          "internalType": "address",
          "name": "newNode",
          "type": "address"
        }
      ],
      "name": "prepend",
      "outputs": [],
      "payable": false,
      "stateMutability": "nonpayable",
      "type": "function"
    },
    {
      "constant": false,
      "inputs": [
        {
          "internalType": "address",
          "name": "newNode",
          "type": "address"
        }
      ],
      "name": "append",
      "outputs": [],
      "payable": false,
      "stateMutability": "nonpayable",
      "type": "function"
    },
    {
      "constant": false,
      "inputs": [
        {
          "internalType": "address",
          "name": "node1",
          "type": "address"
        },
        {
          "internalType": "address",
          "name": "node2",
          "type": "address"
        }
      ],
      "name": "swap",
      "outputs": [],
      "payable": false,
      "stateMutability": "nonpayable",
      "type": "function"
    },
    {
      "constant": true,
      "inputs": [
        {
          "internalType": "address",
          "name": "_start",
          "type": "address"
        },
        {
          "internalType": "uint256",
          "name": "_count",
          "type": "uint256"
        }
      ],
      "name": "elements",
      "outputs": [
        {
          "internalType": "address[]",
          "name": "",
          "type": "address[]"
        }
      ],
      "payable": false,
      "stateMutability": "view",
      "type": "function"
    }
  ],
  "bytecode": "0x608060405234801561001057600080fd5b50610b64806100206000396000f3fe608060405234801561001057600080fd5b50600436106100b45760003560e01c806380cea48a1161007157806380cea48a14610203578063ab73e31614610231578063ac04f5a714610257578063e6c1beb41461027d578063efbe1c1c146102a3578063fa33bcf3146102ab576100b4565b806301a18289146100b95780631bce6ff31461013557806329092d0e1461015957806330d28aca14610181578063622d77fb146101a75780636b76484e146101d5575b600080fd5b6100e5600480360360408110156100cf57600080fd5b506001600160a01b0381351690602001356102e5565b60408051602080825283518183015283519192839290830191858101910280838360005b83811015610121578181015183820152602001610109565b505050509050019250505060405180910390f35b61013d610300565b604080516001600160a01b039092168252519081900360200190f35b61017f6004803603602081101561016f57600080fd5b50356001600160a01b0316610311565b005b61013d6004803603602081101561019757600080fd5b50356001600160a01b0316610325565b61017f600480360360408110156101bd57600080fd5b506001600160a01b038135811691602001351661033d565b61017f600480360360408110156101eb57600080fd5b506001600160a01b0381358116916020013516610353565b61017f6004803603604081101561021957600080fd5b506001600160a01b0381358116916020013516610365565b61013d6004803603602081101561024757600080fd5b50356001600160a01b0316610377565b61017f6004803603602081101561026d57600080fd5b50356001600160a01b0316610389565b61017f6004803603602081101561029357600080fd5b50356001600160a01b031661039a565b61013d6103ab565b6102d1600480360360208110156102c157600080fd5b50356001600160a01b03166103b7565b604080519115158252519081900360200190f35b60606102f96000848463ffffffff6103c916565b9392505050565b600061030c6000610531565b905090565b61032260008263ffffffff61055016565b50565b6000610337818363ffffffff61062616565b92915050565b61034f6000838363ffffffff61069716565b5050565b61034f6000838363ffffffff61084216565b61034f6000838363ffffffff61089216565b6000610337818363ffffffff610a3916565b61032260008263ffffffff610aa816565b61032260008263ffffffff610abb16565b600061030c6000610ace565b6000610337818363ffffffff610af016565b606060008211610420576040805162461bcd60e51b815260206004820152601960248201527f4c696e6b65644c6973743a20696e76616c696420636f756e7400000000000000604482015290519081900360640190fd5b61042a8484610af0565b8061043c57506001600160a01b038316155b61047b576040805162461bcd60e51b81526020600482015260176024820152600080516020610b10833981519152604482015290519081900360640190fd5b6060826040519080825280602002602001820160405280156104a7578160200160208202803883390190505b5090506000846001600160a01b0381166104c7576104c487610531565b90505b84821015610526576001600160a01b0381166104e257610526565b808383815181106104ef57fe5b60200260200101906001600160a01b031690816001600160a01b0316815250506105198782610a39565b90506001820191506104c7565b509095945050505050565b600080805260209190915260409020600101546001600160a01b031690565b61055a8282610af0565b610599576040805162461bcd60e51b81526020600482015260176024820152600080516020610b10833981519152604482015290519081900360640190fd5b6001600160a01b039081166000818152602084905260408082208054600180830180546101009384900489168088528688208401805492909a166001600160a01b03199283168117909a559887529486208054610100600160a81b03191698909302979097179091559390925281546001600160a81b031916909155825416909155018054600019019055565b60006106328383610af0565b610671576040805162461bcd60e51b81526020600482015260176024820152600080516020610b10833981519152604482015290519081900360640190fd5b506001600160a01b03908116600090815260209290925260409091205461010090041690565b6001600160a01b0381166106f2576040805162461bcd60e51b815260206004820152601b60248201527f4c696e6b65644c6973743a20696e76616c696420616464726573730000000000604482015290519081900360640190fd5b6106fc8382610af0565b1561074e576040805162461bcd60e51b815260206004820152601b60248201527f4c696e6b65644c6973743a20616c726561647920696e206c6973740000000000604482015290519081900360640190fd5b6107588383610af0565b8061076a57506001600160a01b038216155b6107a9576040805162461bcd60e51b81526020600482015260176024820152600080516020610b10833981519152604482015290519081900360640190fd5b6001600160a01b039182166000818152602085905260408082208054948616808452828420600181810180546001600160a01b03199081169098179055815461010098899004909916808902610100600160a81b03199a8b161783558454988402989099169790971790925595835290822084018054909316851790925592909252815460ff1916811790915590810180549091019055565b6001600160a01b0380821660009081526020859052604090205461010090041661086c8483610550565b610877848484610892565b6108818484610550565b61088c848285610892565b50505050565b6001600160a01b0381166108ed576040805162461bcd60e51b815260206004820152601b60248201527f4c696e6b65644c6973743a20696e76616c696420616464726573730000000000604482015290519081900360640190fd5b6108f78382610af0565b15610949576040805162461bcd60e51b815260206004820152601b60248201527f4c696e6b65644c6973743a20616c726561647920696e206c6973740000000000604482015290519081900360640190fd5b6109538383610af0565b8061096557506001600160a01b038216155b6109a4576040805162461bcd60e51b81526020600482015260176024820152600080516020610b10833981519152604482015290519081900360640190fd5b6001600160a01b03918216600081815260208590526040808220600190810180549587168085528385208054610100600160a81b0319908116610100988902178255818501805499909a166001600160a01b0319998a168117909a558354909816821790925596845291832080549095169386029390931790935592909252805460ff19168217905590810180549091019055565b6000610a458383610af0565b610a84576040805162461bcd60e51b81526020600482015260176024820152600080516020610b10833981519152604482015290519081900360640190fd5b506001600160a01b0390811660009081526020929092526040909120600101541690565b61034f82610ab584610ace565b83610892565b61034f82610ac884610531565b83610697565b60008080526020829052604090205461010090046001600160a01b0316919050565b6001600160a01b03166000908152602091909152604090205460ff169056fe4c696e6b65644c6973743a206e6f7420696e206c697374000000000000000000a265627a7a72315820766ddc96a5bdbba2c0df0d1a0fe32dfb35680643ebc2410b6e67e5d49c1abd5b64736f6c63430005110032",
  "source": "pragma solidity 0.5.17;\n\nimport \"../libraries/LinkedList.sol\";\n\n/// @notice A token that exposes the LinkedList library for testing.\ncontract LinkedListTest {\n    using LinkedList for LinkedList.List;\n\n    LinkedList.List private ll;\n\n    function isInList(address node) public view returns (bool) {\n        return ll.isInList(node);\n    }\n\n    function next(address node) public view returns (address) {\n        return ll.next(node);\n    }\n\n    function previous(address node) public view returns (address) {\n        return ll.previous(node);\n    }\n\n    function begin() public view returns (address) {\n        return ll.begin();\n    }\n\n    function end() public view returns (address) {\n        return ll.end();\n    }\n\n    function insertBefore(address target, address newNode) public {\n        ll.insertBefore(target, newNode);\n    }\n\n    function insertAfter(address target, address newNode) public {\n        ll.insertAfter(target, newNode);\n    }\n\n    function remove(address node) public {\n        ll.remove(node);\n    }\n\n    function prepend(address newNode) public {\n        ll.prepend(newNode);\n    }\n\n    function append(address newNode) public {\n        ll.append(newNode);\n    }\n\n    function swap(address node1, address node2) public {\n        ll.swap(node1, node2);\n    }\n\n    function elements(address _start, uint256 _count)\n        public\n        view\n        returns (address[] memory)\n    {\n        return ll.elements(_start, _count);\n    }\n}\n",
  "sourcePath": "/Users/jaz/Desktop/ren/dev/darknode-sol/contracts/test/LinkedListTest.sol",
  "compiler": {
    "name": "solc",
    "version": "0.5.17+commit.d19bba13.Emscripten.clang"
  },
  "schemaVersion": "3.4.3",
  "updatedAt": "2022-09-07T05:19:15.867Z",
  "devdoc": {
    "methods": {}
  },
  "userdoc": {
    "methods": {},
    "notice": "A token that exposes the LinkedList library for testing."
  }
}