{
  "contractName": "NormalToken",
  "abi": [
    {
      "inputs": [],
      "payable": false,
      "stateMutability": "nonpayable",
      "type": "constructor"
    },
    {
      "anonymous": false,
      "inputs": [
        {
          "indexed": true,
          "internalType": "address",
          "name": "owner",
          "type": "address"
        },
        {
          "indexed": true,
          "internalType": "address",
          "name": "spender",
          "type": "address"
        },
        {
          "indexed": false,
          "internalType": "uint256",
          "name": "value",
          "type": "uint256"
        }
      ],
      "name": "Approval",
      "type": "event"
    },
    {
      "anonymous": false,
      "inputs": [
        {
          "indexed": true,
          "internalType": "address",
          "name": "from",
          "type": "address"
        },
        {
          "indexed": true,
          "internalType": "address",
          "name": "to",
          "type": "address"
        },
        {
          "indexed": false,
          "internalType": "uint256",
          "name": "value",
          "type": "uint256"
        }
      ],
      "name": "Transfer",
      "type": "event"
    },
    {
      "constant": true,
      "inputs": [],
      "name": "INITIAL_SUPPLY",
      "outputs": [
        {
          "internalType": "uint256",
          "name": "",
          "type": "uint256"
        }
      ],
      "payable": false,
      "stateMutability": "view",
      "type": "function"
    },
    {
      "constant": true,
      "inputs": [
        {
          "internalType": "address",
          "name": "owner",
          "type": "address"
        },
        {
          "internalType": "address",
          "name": "spender",
          "type": "address"
        }
      ],
      "name": "allowance",
      "outputs": [
        {
          "internalType": "uint256",
          "name": "",
          "type": "uint256"
        }
      ],
      "payable": false,
      "stateMutability": "view",
      "type": "function"
    },
    {
      "constant": true,
      "inputs": [
        {
          "internalType": "address",
          "name": "account",
          "type": "address"
        }
      ],
      "name": "balanceOf",
      "outputs": [
        {
          "internalType": "uint256",
          "name": "",
          "type": "uint256"
        }
      ],
      "payable": false,
      "stateMutability": "view",
      "type": "function"
    },
    {
      "constant": true,
      "inputs": [],
      "name": "decimals",
      "outputs": [
        {
          "internalType": "uint8",
          "name": "",
          "type": "uint8"
        }
      ],
      "payable": false,
      "stateMutability": "view",
      "type": "function"
    },
    {
      "constant": false,
      "inputs": [
        {
          "internalType": "address",
          "name": "spender",
          "type": "address"
        },
        {
          "internalType": "uint256",
          "name": "subtractedValue",
          "type": "uint256"
        }
      ],
      "name": "decreaseAllowance",
      "outputs": [
        {
          "internalType": "bool",
          "name": "",
          "type": "bool"
        }
      ],
      "payable": false,
      "stateMutability": "nonpayable",
      "type": "function"
    },
    {
      "constant": false,
      "inputs": [
        {
          "internalType": "address",
          "name": "spender",
          "type": "address"
        },
        {
          "internalType": "uint256",
          "name": "addedValue",
          "type": "uint256"
        }
      ],
      "name": "increaseAllowance",
      "outputs": [
        {
          "internalType": "bool",
          "name": "",
          "type": "bool"
        }
      ],
      "payable": false,
      "stateMutability": "nonpayable",
      "type": "function"
    },
    {
      "constant": false,
      "inputs": [
        {
          "internalType": "string",
          "name": "name",
          "type": "string"
        },
        {
          "internalType": "string",
          "name": "symbol",
          "type": "string"
        },
        {
          "internalType": "uint8",
          "name": "decimals",
          "type": "uint8"
        }
      ],
      "name": "initialize",
      "outputs": [],
      "payable": false,
      "stateMutability": "nonpayable",
      "type": "function"
    },
    {
      "constant": true,
      "inputs": [],
      "name": "name",
      "outputs": [
        {
          "internalType": "string",
          "name": "",
          "type": "string"
        }
      ],
      "payable": false,
      "stateMutability": "view",
      "type": "function"
    },
    {
      "constant": true,
      "inputs": [],
      "name": "symbol",
      "outputs": [
        {
          "internalType": "string",
          "name": "",
          "type": "string"
        }
      ],
      "payable": false,
      "stateMutability": "view",
      "type": "function"
    },
    {
      "constant": true,
      "inputs": [],
      "name": "totalSupply",
      "outputs": [
        {
          "internalType": "uint256",
          "name": "",
          "type": "uint256"
        }
      ],
      "payable": false,
      "stateMutability": "view",
      "type": "function"
    },
    {
      "constant": false,
      "inputs": [
        {
          "internalType": "address",
          "name": "recipient",
          "type": "address"
        },
        {
          "internalType": "uint256",
          "name": "amount",
          "type": "uint256"
        }
      ],
      "name": "transfer",
      "outputs": [
        {
          "internalType": "bool",
          "name": "",
          "type": "bool"
        }
      ],
      "payable": false,
      "stateMutability": "nonpayable",
      "type": "function"
    },
    {
      "constant": false,
      "inputs": [
        {
          "internalType": "address",
          "name": "sender",
          "type": "address"
        },
        {
          "internalType": "address",
          "name": "recipient",
          "type": "address"
        },
        {
          "internalType": "uint256",
          "name": "amount",
          "type": "uint256"
        }
      ],
      "name": "transferFrom",
      "outputs": [
        {
          "internalType": "bool",
          "name": "",
          "type": "bool"
        }
      ],
      "payable": false,
      "stateMutability": "nonpayable",
      "type": "function"
    },
    {
      "constant": false,
      "inputs": [
        {
          "internalType": "address",
          "name": "_spender",
          "type": "address"
        },
        {
          "internalType": "uint256",
          "name": "_value",
          "type": "uint256"
        }
      ],
      "name": "approve",
      "outputs": [
        {
          "internalType": "bool",
          "name": "success",
          "type": "bool"
        }
      ],
      "payable": false,
      "stateMutability": "nonpayable",
      "type": "function"
    }
  ],
  "bytecode": "0x60806040523480156200001157600080fd5b506200006a6040518060400160405280600c81526020016b2737b936b0b6102a37b5b2b760a11b8152506040518060400160405280600381526020016213935360ea1b81525060126200009160201b6200052e1760201c565b6200008b336b033b2e3c9fd0803ce80000006001600160e01b036200018216565b62000392565b600054610100900460ff1680620000b65750620000b66001600160e01b036200028716565b80620000c5575060005460ff16155b620001025760405162461bcd60e51b815260040180806020018281038252602e81526020018062001133602e913960400191505060405180910390fd5b600054610100900460ff161580156200012e576000805460ff1961ff0019909116610100171660011790555b835162000143906068906020870190620002f0565b50825162000159906069906020860190620002f0565b50606a805460ff191660ff841617905580156200017c576000805461ff00191690555b50505050565b6001600160a01b038216620001de576040805162461bcd60e51b815260206004820152601f60248201527f45524332303a206d696e7420746f20746865207a65726f206164647265737300604482015290519081900360640190fd5b620001fa816035546200028e60201b62000b3b1790919060201c565b6035556001600160a01b0382166000908152603360209081526040909120546200022f91839062000b3b6200028e821b17901c565b6001600160a01b03831660008181526033602090815260408083209490945583518581529351929391927fddf252ad1be2c89b69c2b068fc378daa952ba7f163c4a11628f55a4df523b3ef9281900390910190a35050565b303b155b90565b600082820183811015620002e9576040805162461bcd60e51b815260206004820152601b60248201527f536166654d6174683a206164646974696f6e206f766572666c6f770000000000604482015290519081900360640190fd5b9392505050565b828054600181600116156101000203166002900490600052602060002090601f016020900481019282601f106200033357805160ff191683800117855562000363565b8280016001018555821562000363579182015b828111156200036357825182559160200191906001019062000346565b506200037192915062000375565b5090565b6200028b91905b808211156200037157600081556001016200037c565b610d9180620003a26000396000f3fe608060405234801561001057600080fd5b50600436106100cf5760003560e01c8063313ce5671161008c57806395d89b411161006657806395d89b411461038d578063a457c2d714610395578063a9059cbb146103c1578063dd62ed3e146103ed576100cf565b8063313ce5671461031d578063395093511461033b57806370a0823114610367576100cf565b806306fdde03146100d4578063095ea7b3146101515780631624f6c61461019157806318160ddd146102c557806323b872dd146102df5780632ff2e9dc14610315575b600080fd5b6100dc61041b565b6040805160208082528351818301528351919283929083019185019080838360005b838110156101165781810151838201526020016100fe565b50505050905090810190601f1680156101435780820380516001836020036101000a031916815260200191505b509250505060405180910390f35b61017d6004803603604081101561016757600080fd5b506001600160a01b0381351690602001356104b2565b604080519115158252519081900360200190f35b6102c3600480360360608110156101a757600080fd5b8101906020810181356401000000008111156101c257600080fd5b8201836020820111156101d457600080fd5b803590602001918460018302840111640100000000831117156101f657600080fd5b91908080601f016020809104026020016040519081016040528093929190818152602001838380828437600092019190915250929594936020810193503591505064010000000081111561024957600080fd5b82018360208201111561025b57600080fd5b8035906020019184600183028401116401000000008311171561027d57600080fd5b91908080601f0160208091040260200160405190810160405280939291908181526020018383808284376000920191909152509295505050903560ff16915061052e9050565b005b6102cd61060a565b60408051918252519081900360200190f35b61017d600480360360608110156102f557600080fd5b506001600160a01b03813581169160208101359091169060400135610610565b6102cd61069d565b6103256106ad565b6040805160ff9092168252519081900360200190f35b61017d6004803603604081101561035157600080fd5b506001600160a01b0381351690602001356106b6565b6102cd6004803603602081101561037d57600080fd5b50356001600160a01b0316610713565b6100dc61072e565b61017d600480360360408110156103ab57600080fd5b506001600160a01b03813516906020013561078f565b61017d600480360360408110156103d757600080fd5b506001600160a01b0381351690602001356107fd565b6102cd6004803603604081101561040357600080fd5b506001600160a01b0381358116916020013516610811565b60688054604080516020601f60026000196101006001881615020190951694909404938401819004810282018101909252828152606093909290918301828280156104a75780601f1061047c576101008083540402835291602001916104a7565b820191906000526020600020905b81548152906001019060200180831161048a57829003601f168201915b505050505090505b90565b600081158015906104cb57506104c83384610811565b15155b1561051d576040805162461bcd60e51b815260206004820152601f60248201527f617070726f766520776974682070726576696f757320616c6c6f77616e636500604482015290519081900360640190fd5b610527838361083c565b9392505050565b600054610100900460ff16806105475750610547610850565b80610555575060005460ff16155b6105905760405162461bcd60e51b815260040180806020018281038252602e815260200180610cc1602e913960400191505060405180910390fd5b600054610100900460ff161580156105bb576000805460ff1961ff0019909116610100171660011790555b83516105ce906068906020870190610b95565b5082516105e2906069906020860190610b95565b50606a805460ff191660ff84161790558015610604576000805461ff00191690555b50505050565b60355490565b600061061d848484610856565b610693846106296109b4565b61068e85604051806060016040528060288152602001610c99602891396001600160a01b038a166000908152603460205260408120906106676109b4565b6001600160a01b03168152602081019190915260400160002054919063ffffffff6109b816565b610a4f565b5060019392505050565b6b033b2e3c9fd0803ce800000081565b606a5460ff1690565b600061070a6106c36109b4565b8461068e85603460006106d46109b4565b6001600160a01b03908116825260208083019390935260409182016000908120918c16815292529020549063ffffffff610b3b16565b50600192915050565b6001600160a01b031660009081526033602052604090205490565b60698054604080516020601f60026000196101006001881615020190951694909404938401819004810282018101909252828152606093909290918301828280156104a75780601f1061047c576101008083540402835291602001916104a7565b600061070a61079c6109b4565b8461068e85604051806060016040528060258152602001610d3860259139603460006107c66109b4565b6001600160a01b03908116825260208083019390935260409182016000908120918d1681529252902054919063ffffffff6109b816565b600061070a61080a6109b4565b8484610856565b6001600160a01b03918216600090815260346020908152604080832093909416825291909152205490565b600061070a6108496109b4565b8484610a4f565b303b1590565b6001600160a01b03831661089b5760405162461bcd60e51b8152600401808060200182810382526025815260200180610cef6025913960400191505060405180910390fd5b6001600160a01b0382166108e05760405162461bcd60e51b8152600401808060200182810382526023815260200180610c2e6023913960400191505060405180910390fd5b61092381604051806060016040528060268152602001610c73602691396001600160a01b038616600090815260336020526040902054919063ffffffff6109b816565b6001600160a01b038085166000908152603360205260408082209390935590841681522054610958908263ffffffff610b3b16565b6001600160a01b0380841660008181526033602090815260409182902094909455805185815290519193928716927fddf252ad1be2c89b69c2b068fc378daa952ba7f163c4a11628f55a4df523b3ef92918290030190a3505050565b3390565b60008184841115610a475760405162461bcd60e51b81526004018080602001828103825283818151815260200191508051906020019080838360005b83811015610a0c5781810151838201526020016109f4565b50505050905090810190601f168015610a395780820380516001836020036101000a031916815260200191505b509250505060405180910390fd5b505050900390565b6001600160a01b038316610a945760405162461bcd60e51b8152600401808060200182810382526024815260200180610d146024913960400191505060405180910390fd5b6001600160a01b038216610ad95760405162461bcd60e51b8152600401808060200182810382526022815260200180610c516022913960400191505060405180910390fd5b6001600160a01b03808416600081815260346020908152604080832094871680845294825291829020859055815185815291517f8c5be1e5ebec7d5bd14f71427d1e84f3dd0314c0f7b2291e5b200ac8c7c3b9259281900390910190a3505050565b600082820183811015610527576040805162461bcd60e51b815260206004820152601b60248201527f536166654d6174683a206164646974696f6e206f766572666c6f770000000000604482015290519081900360640190fd5b828054600181600116156101000203166002900490600052602060002090601f016020900481019282601f10610bd657805160ff1916838001178555610c03565b82800160010185558215610c03579182015b82811115610c03578251825591602001919060010190610be8565b50610c0f929150610c13565b5090565b6104af91905b80821115610c0f5760008155600101610c1956fe45524332303a207472616e7366657220746f20746865207a65726f206164647265737345524332303a20617070726f766520746f20746865207a65726f206164647265737345524332303a207472616e7366657220616d6f756e7420657863656564732062616c616e636545524332303a207472616e7366657220616d6f756e74206578636565647320616c6c6f77616e6365436f6e747261637420696e7374616e63652068617320616c7265616479206265656e20696e697469616c697a656445524332303a207472616e736665722066726f6d20746865207a65726f206164647265737345524332303a20617070726f76652066726f6d20746865207a65726f206164647265737345524332303a2064656372656173656420616c6c6f77616e63652062656c6f77207a65726fa265627a7a72315820feb15e8b19e92588e89c8b0571b70dafa9ea47bb6b34700ee9ef49ce753866c764736f6c63430005110032436f6e747261637420696e7374616e63652068617320616c7265616479206265656e20696e697469616c697a6564",
  "source": "pragma solidity 0.5.17;\n\nimport \"@openzeppelin/contracts-ethereum-package/contracts/token/ERC20/ERC20.sol\";\nimport \"@openzeppelin/contracts-ethereum-package/contracts/token/ERC20/ERC20Detailed.sol\";\n\ncontract NormalToken is ERC20, ERC20Detailed {\n    string private constant _name = \"Normal Token\";\n    string private constant _symbol = \"NML\";\n    uint8 private constant _decimals = 18;\n\n    uint256 public constant INITIAL_SUPPLY =\n        1000000000 * 10**uint256(_decimals);\n\n    constructor() public {\n        ERC20Detailed.initialize(_name, _symbol, _decimals);\n        _mint(msg.sender, INITIAL_SUPPLY);\n    }\n\n    function approve(address _spender, uint256 _value)\n        public\n        returns (bool success)\n    {\n        if ((_value != 0) && (allowance(msg.sender, _spender) != 0))\n            revert(\"approve with previous allowance\");\n\n        return super.approve(_spender, _value);\n    }\n}\n",
  "sourcePath": "/Users/jaz/Desktop/ren/dev/darknode-sol/contracts/test/tokens/NormalToken.sol",
  "compiler": {
    "name": "solc",
    "version": "0.5.17+commit.d19bba13.Emscripten.clang"
  },
  "schemaVersion": "3.4.3",
  "updatedAt": "2022-09-07T05:19:15.890Z",
  "devdoc": {
    "methods": {
      "allowance(address,address)": {
        "details": "See {IERC20-allowance}."
      },
      "balanceOf(address)": {
        "details": "See {IERC20-balanceOf}."
      },
      "decimals()": {
        "details": "Returns the number of decimals used to get its user representation. For example, if `decimals` equals `2`, a balance of `505` tokens should be displayed to a user as `5,05` (`505 / 10 ** 2`).     * Tokens usually opt for a value of 18, imitating the relationship between Ether and Wei.     * NOTE: This information is only used for _display_ purposes: it in no way affects any of the arithmetic of the contract, including {IERC20-balanceOf} and {IERC20-transfer}."
      },
      "decreaseAllowance(address,uint256)": {
        "details": "Atomically decreases the allowance granted to `spender` by the caller.     * This is an alternative to {approve} that can be used as a mitigation for problems described in {IERC20-approve}.     * Emits an {Approval} event indicating the updated allowance.     * Requirements:     * - `spender` cannot be the zero address. - `spender` must have allowance for the caller of at least `subtractedValue`."
      },
      "increaseAllowance(address,uint256)": {
        "details": "Atomically increases the allowance granted to `spender` by the caller.     * This is an alternative to {approve} that can be used as a mitigation for problems described in {IERC20-approve}.     * Emits an {Approval} event indicating the updated allowance.     * Requirements:     * - `spender` cannot be the zero address."
      },
      "initialize(string,string,uint8)": {
        "details": "Sets the values for `name`, `symbol`, and `decimals`. All three of these values are immutable: they can only be set once during construction."
      },
      "name()": {
        "details": "Returns the name of the token."
      },
      "symbol()": {
        "details": "Returns the symbol of the token, usually a shorter version of the name."
      },
      "totalSupply()": {
        "details": "See {IERC20-totalSupply}."
      },
      "transfer(address,uint256)": {
        "details": "See {IERC20-transfer}.     * Requirements:     * - `recipient` cannot be the zero address. - the caller must have a balance of at least `amount`."
      },
      "transferFrom(address,address,uint256)": {
        "details": "See {IERC20-transferFrom}.     * Emits an {Approval} event indicating the updated allowance. This is not required by the EIP. See the note at the beginning of {ERC20};     * Requirements: - `sender` and `recipient` cannot be the zero address. - `sender` must have a balance of at least `amount`. - the caller must have allowance for `sender`'s tokens of at least `amount`."
      }
    }
  },
  "userdoc": {
    "methods": {}
  }
}