{
  "contractName": "PaymentToken",
  "abi": [
    {
      "inputs": [
        {
          "internalType": "string",
          "name": "symbol",
          "type": "string"
        }
      ],
      "payable": false,
      "stateMutability": "nonpayable",
      "type": "constructor"
    },
    {
      "anonymous": false,
      "inputs": [
        {
          "indexed": true,
          "internalType": "address",
          "name": "owner",
          "type": "address"
        },
        {
          "indexed": true,
          "internalType": "address",
          "name": "spender",
          "type": "address"
        },
        {
          "indexed": false,
          "internalType": "uint256",
          "name": "value",
          "type": "uint256"
        }
      ],
      "name": "Approval",
      "type": "event"
    },
    {
      "anonymous": false,
      "inputs": [
        {
          "indexed": false,
          "internalType": "address",
          "name": "account",
          "type": "address"
        }
      ],
      "name": "Paused",
      "type": "event"
    },
    {
      "anonymous": false,
      "inputs": [
        {
          "indexed": true,
          "internalType": "address",
          "name": "account",
          "type": "address"
        }
      ],
      "name": "PauserAdded",
      "type": "event"
    },
    {
      "anonymous": false,
      "inputs": [
        {
          "indexed": true,
          "internalType": "address",
          "name": "account",
          "type": "address"
        }
      ],
      "name": "PauserRemoved",
      "type": "event"
    },
    {
      "anonymous": false,
      "inputs": [
        {
          "indexed": true,
          "internalType": "address",
          "name": "from",
          "type": "address"
        },
        {
          "indexed": true,
          "internalType": "address",
          "name": "to",
          "type": "address"
        },
        {
          "indexed": false,
          "internalType": "uint256",
          "name": "value",
          "type": "uint256"
        }
      ],
      "name": "Transfer",
      "type": "event"
    },
    {
      "anonymous": false,
      "inputs": [
        {
          "indexed": false,
          "internalType": "address",
          "name": "account",
          "type": "address"
        }
      ],
      "name": "Unpaused",
      "type": "event"
    },
    {
      "constant": true,
      "inputs": [],
      "name": "INITIAL_SUPPLY",
      "outputs": [
        {
          "internalType": "uint256",
          "name": "",
          "type": "uint256"
        }
      ],
      "payable": false,
      "stateMutability": "view",
      "type": "function"
    },
    {
      "constant": false,
      "inputs": [
        {
          "internalType": "address",
          "name": "account",
          "type": "address"
        }
      ],
      "name": "addPauser",
      "outputs": [],
      "payable": false,
      "stateMutability": "nonpayable",
      "type": "function"
    },
    {
      "constant": true,
      "inputs": [
        {
          "internalType": "address",
          "name": "owner",
          "type": "address"
        },
        {
          "internalType": "address",
          "name": "spender",
          "type": "address"
        }
      ],
      "name": "allowance",
      "outputs": [
        {
          "internalType": "uint256",
          "name": "",
          "type": "uint256"
        }
      ],
      "payable": false,
      "stateMutability": "view",
      "type": "function"
    },
    {
      "constant": false,
      "inputs": [
        {
          "internalType": "address",
          "name": "spender",
          "type": "address"
        },
        {
          "internalType": "uint256",
          "name": "value",
          "type": "uint256"
        }
      ],
      "name": "approve",
      "outputs": [
        {
          "internalType": "bool",
          "name": "",
          "type": "bool"
        }
      ],
      "payable": false,
      "stateMutability": "nonpayable",
      "type": "function"
    },
    {
      "constant": true,
      "inputs": [
        {
          "internalType": "address",
          "name": "account",
          "type": "address"
        }
      ],
      "name": "balanceOf",
      "outputs": [
        {
          "internalType": "uint256",
          "name": "",
          "type": "uint256"
        }
      ],
      "payable": false,
      "stateMutability": "view",
      "type": "function"
    },
    {
      "constant": false,
      "inputs": [
        {
          "internalType": "uint256",
          "name": "amount",
          "type": "uint256"
        }
      ],
      "name": "burn",
      "outputs": [],
      "payable": false,
      "stateMutability": "nonpayable",
      "type": "function"
    },
    {
      "constant": false,
      "inputs": [
        {
          "internalType": "address",
          "name": "account",
          "type": "address"
        },
        {
          "internalType": "uint256",
          "name": "amount",
          "type": "uint256"
        }
      ],
      "name": "burnFrom",
      "outputs": [],
      "payable": false,
      "stateMutability": "nonpayable",
      "type": "function"
    },
    {
      "constant": true,
      "inputs": [],
      "name": "decimals",
      "outputs": [
        {
          "internalType": "uint8",
          "name": "",
          "type": "uint8"
        }
      ],
      "payable": false,
      "stateMutability": "view",
      "type": "function"
    },
    {
      "constant": false,
      "inputs": [
        {
          "internalType": "address",
          "name": "spender",
          "type": "address"
        },
        {
          "internalType": "uint256",
          "name": "subtractedValue",
          "type": "uint256"
        }
      ],
      "name": "decreaseAllowance",
      "outputs": [
        {
          "internalType": "bool",
          "name": "",
          "type": "bool"
        }
      ],
      "payable": false,
      "stateMutability": "nonpayable",
      "type": "function"
    },
    {
      "constant": false,
      "inputs": [
        {
          "internalType": "address",
          "name": "spender",
          "type": "address"
        },
        {
          "internalType": "uint256",
          "name": "addedValue",
          "type": "uint256"
        }
      ],
      "name": "increaseAllowance",
      "outputs": [
        {
          "internalType": "bool",
          "name": "",
          "type": "bool"
        }
      ],
      "payable": false,
      "stateMutability": "nonpayable",
      "type": "function"
    },
    {
      "constant": false,
      "inputs": [
        {
          "internalType": "string",
          "name": "name",
          "type": "string"
        },
        {
          "internalType": "string",
          "name": "symbol",
          "type": "string"
        },
        {
          "internalType": "uint8",
          "name": "decimals",
          "type": "uint8"
        }
      ],
      "name": "initialize",
      "outputs": [],
      "payable": false,
      "stateMutability": "nonpayable",
      "type": "function"
    },
    {
      "constant": false,
      "inputs": [
        {
          "internalType": "address",
          "name": "sender",
          "type": "address"
        }
      ],
      "name": "initialize",
      "outputs": [],
      "payable": false,
      "stateMutability": "nonpayable",
      "type": "function"
    },
    {
      "constant": true,
      "inputs": [
        {
          "internalType": "address",
          "name": "account",
          "type": "address"
        }
      ],
      "name": "isPauser",
      "outputs": [
        {
          "internalType": "bool",
          "name": "",
          "type": "bool"
        }
      ],
      "payable": false,
      "stateMutability": "view",
      "type": "function"
    },
    {
      "constant": true,
      "inputs": [],
      "name": "name",
      "outputs": [
        {
          "internalType": "string",
          "name": "",
          "type": "string"
        }
      ],
      "payable": false,
      "stateMutability": "view",
      "type": "function"
    },
    {
      "constant": false,
      "inputs": [],
      "name": "pause",
      "outputs": [],
      "payable": false,
      "stateMutability": "nonpayable",
      "type": "function"
    },
    {
      "constant": true,
      "inputs": [],
      "name": "paused",
      "outputs": [
        {
          "internalType": "bool",
          "name": "",
          "type": "bool"
        }
      ],
      "payable": false,
      "stateMutability": "view",
      "type": "function"
    },
    {
      "constant": false,
      "inputs": [],
      "name": "renouncePauser",
      "outputs": [],
      "payable": false,
      "stateMutability": "nonpayable",
      "type": "function"
    },
    {
      "constant": true,
      "inputs": [],
      "name": "symbol",
      "outputs": [
        {
          "internalType": "string",
          "name": "",
          "type": "string"
        }
      ],
      "payable": false,
      "stateMutability": "view",
      "type": "function"
    },
    {
      "constant": true,
      "inputs": [],
      "name": "totalSupply",
      "outputs": [
        {
          "internalType": "uint256",
          "name": "",
          "type": "uint256"
        }
      ],
      "payable": false,
      "stateMutability": "view",
      "type": "function"
    },
    {
      "constant": false,
      "inputs": [
        {
          "internalType": "address",
          "name": "to",
          "type": "address"
        },
        {
          "internalType": "uint256",
          "name": "value",
          "type": "uint256"
        }
      ],
      "name": "transfer",
      "outputs": [
        {
          "internalType": "bool",
          "name": "",
          "type": "bool"
        }
      ],
      "payable": false,
      "stateMutability": "nonpayable",
      "type": "function"
    },
    {
      "constant": false,
      "inputs": [
        {
          "internalType": "address",
          "name": "from",
          "type": "address"
        },
        {
          "internalType": "address",
          "name": "to",
          "type": "address"
        },
        {
          "internalType": "uint256",
          "name": "value",
          "type": "uint256"
        }
      ],
      "name": "transferFrom",
      "outputs": [
        {
          "internalType": "bool",
          "name": "",
          "type": "bool"
        }
      ],
      "payable": false,
      "stateMutability": "nonpayable",
      "type": "function"
    },
    {
      "constant": false,
      "inputs": [],
      "name": "unpause",
      "outputs": [],
      "payable": false,
      "stateMutability": "nonpayable",
      "type": "function"
    }
  ],
  "bytecode": "0x60806040523480156200001157600080fd5b506040516200214e3803806200214e833981810160405260208110156200003757600080fd5b81019080805160405193929190846401000000008211156200005857600080fd5b9083019060208201858111156200006e57600080fd5b82516401000000008111828201881017156200008957600080fd5b82525081516020918201929091019080838360005b83811015620000b85781810151838201526020016200009e565b50505050905090810190601f168015620000e65780820380516001836020036101000a031916815260200191505b5060405250505062000103336200014460201b62000b9a1760201c565b6200011c818260126200020e60201b620006601760201c565b6200013d336b033b2e3c9fd0803ce80000006001600160e01b036200030216565b506200081a565b600054610100900460ff1680620001695750620001696001600160e01b036200040716565b8062000178575060005460ff16155b620001b55760405162461bcd60e51b815260040180806020018281038252602e81526020018062002120602e913960400191505060405180910390fd5b600054610100900460ff16158015620001e1576000805460ff1961ff0019909116610100171660011790555b620001f7826200040e60201b620010411760201c565b80156200020a576000805461ff00191690555b5050565b600054610100900460ff1680620002335750620002336001600160e01b036200040716565b8062000242575060005460ff16155b6200027f5760405162461bcd60e51b815260040180806020018281038252602e81526020018062002120602e913960400191505060405180910390fd5b600054610100900460ff16158015620002ab576000805460ff1961ff0019909116610100171660011790555b8351620002c19061013290602087019062000778565b508251620002d89061013390602086019062000778565b50610134805460ff191660ff84161790558015620002fc576000805461ff00191690555b50505050565b6001600160a01b0382166200035e576040805162461bcd60e51b815260206004820152601f60248201527f45524332303a206d696e7420746f20746865207a65726f206164647265737300604482015290519081900360640190fd5b6200037a81603554620004e160201b620013d71790919060201c565b6035556001600160a01b038216600090815260336020908152604090912054620003af918390620013d7620004e1821b17901c565b6001600160a01b03831660008181526033602090815260408083209490945583518581529351929391927fddf252ad1be2c89b69c2b068fc378daa952ba7f163c4a11628f55a4df523b3ef9281900390910190a35050565b303b155b90565b600054610100900460ff1680620004335750620004336001600160e01b036200040716565b8062000442575060005460ff16155b6200047f5760405162461bcd60e51b815260040180806020018281038252602e81526020018062002120602e913960400191505060405180910390fd5b600054610100900460ff16158015620004ab576000805460ff1961ff0019909116610100171660011790555b620004c1826200054360201b6200155b1760201c565b609b805460ff1916905580156200020a576000805461ff00191690555050565b6000828201838110156200053c576040805162461bcd60e51b815260206004820152601b60248201527f536166654d6174683a206164646974696f6e206f766572666c6f770000000000604482015290519081900360640190fd5b9392505050565b600054610100900460ff1680620005685750620005686001600160e01b036200040716565b8062000577575060005460ff16155b620005b45760405162461bcd60e51b815260040180806020018281038252602e81526020018062002120602e913960400191505060405180910390fd5b600054610100900460ff16158015620005e0576000805460ff1961ff0019909116610100171660011790555b620005f4826001600160e01b036200060d16565b620001f757620001f7826001600160e01b036200063016565b60006200062a8260686200068260201b62000e741790919060201c565b92915050565b6200064b816068620006eb60201b620014da1790919060201c565b6040516001600160a01b038216907f6719d08c1888103bea251a4ed56406bd0c3e69723c8a1686e017e7bbe159b6f890600090a250565b60006001600160a01b038216620006cb5760405162461bcd60e51b8152600401808060200182810382526022815260200180620020fe6022913960400191505060405180910390fd5b506001600160a01b03166000908152602091909152604090205460ff1690565b6200070082826001600160e01b036200068216565b1562000753576040805162461bcd60e51b815260206004820152601f60248201527f526f6c65733a206163636f756e7420616c72656164792068617320726f6c6500604482015290519081900360640190fd5b6001600160a01b0316600090815260209190915260409020805460ff19166001179055565b828054600181600116156101000203166002900490600052602060002090601f016020900481019282601f10620007bb57805160ff1916838001178555620007eb565b82800160010185558215620007eb579182015b82811115620007eb578251825591602001919060010190620007ce565b50620007f9929150620007fd565b5090565b6200040b91905b80821115620007f9576000815560010162000804565b6118d4806200082a6000396000f3fe608060405234801561001057600080fd5b50600436106101425760003560e01c80635c975abb116100b85780638456cb591161007c5780638456cb59146104ad57806395d89b41146104b5578063a457c2d7146104bd578063a9059cbb146104e9578063c4d66de814610515578063dd62ed3e1461053b57610142565b80635c975abb146104255780636ef8d66d1461042d57806370a082311461043557806379cc67901461045b57806382dc1ec41461048757610142565b80632ff2e9dc1161010a5780632ff2e9dc14610388578063313ce5671461039057806339509351146103ae5780633f4ba83a146103da57806342966c68146103e257806346fbf68e146103ff57610142565b806306fdde0314610147578063095ea7b3146101c45780631624f6c61461020457806318160ddd1461033857806323b872dd14610352575b600080fd5b61014f610569565b6040805160208082528351818301528351919283929083019185019080838360005b83811015610189578181015183820152602001610171565b50505050905090810190601f1680156101b65780820380516001836020036101000a031916815260200191505b509250505060405180910390f35b6101f0600480360360408110156101da57600080fd5b506001600160a01b038135169060200135610601565b604080519115158252519081900360200190f35b6103366004803603606081101561021a57600080fd5b81019060208101813564010000000081111561023557600080fd5b82018360208201111561024757600080fd5b8035906020019184600183028401116401000000008311171561026957600080fd5b91908080601f01602080910402602001604051908101604052809392919081815260200183838082843760009201919091525092959493602081019350359150506401000000008111156102bc57600080fd5b8201836020820111156102ce57600080fd5b803590602001918460018302840111640100000000831117156102f057600080fd5b91908080601f0160208091040260200160405190810160405280939291908181526020018383808284376000920191909152509295505050903560ff1691506106609050565b005b61034061073f565b60408051918252519081900360200190f35b6101f06004803603606081101561036857600080fd5b506001600160a01b03813581169160208101359091169060400135610745565b6103406107a6565b6103986107b6565b6040805160ff9092168252519081900360200190f35b6101f0600480360360408110156103c457600080fd5b506001600160a01b0381351690602001356107c0565b610336610818565b610336600480360360208110156103f857600080fd5b5035610901565b6101f06004803603602081101561041557600080fd5b50356001600160a01b0316610915565b6101f061092e565b610336610937565b6103406004803603602081101561044b57600080fd5b50356001600160a01b0316610949565b6103366004803603604081101561047157600080fd5b506001600160a01b038135169060200135610964565b6103366004803603602081101561049d57600080fd5b50356001600160a01b0316610972565b6103366109c1565b61014f610a88565b6101f0600480360360408110156104d357600080fd5b506001600160a01b038135169060200135610aea565b6101f0600480360360408110156104ff57600080fd5b506001600160a01b038135169060200135610b42565b6103366004803603602081101561052b57600080fd5b50356001600160a01b0316610b9a565b6103406004803603604081101561055157600080fd5b506001600160a01b0381358116916020013516610c45565b6101328054604080516020601f60026000196101006001881615020190951694909404938401819004810282018101909252828152606093909290918301828280156105f65780601f106105cb576101008083540402835291602001916105f6565b820191906000526020600020905b8154815290600101906020018083116105d957829003601f168201915b505050505090505b90565b609b5460009060ff161561064f576040805162461bcd60e51b815260206004820152601060248201526f14185d5cd8589b194e881c185d5cd95960821b604482015290519081900360640190fd5b6106598383610c70565b9392505050565b600054610100900460ff16806106795750610679610c8d565b80610687575060005460ff16155b6106c25760405162461bcd60e51b815260040180806020018281038252602e8152602001806117bf602e913960400191505060405180910390fd5b600054610100900460ff161580156106ed576000805460ff1961ff0019909116610100171660011790555b8351610701906101329060208701906115fe565b508251610716906101339060208601906115fe565b50610134805460ff191660ff84161790558015610739576000805461ff00191690555b50505050565b60355490565b609b5460009060ff1615610793576040805162461bcd60e51b815260206004820152601060248201526f14185d5cd8589b194e881c185d5cd95960821b604482015290519081900360640190fd5b61079e848484610c93565b949350505050565b6b033b2e3c9fd0803ce800000081565b6101345460ff1690565b609b5460009060ff161561080e576040805162461bcd60e51b815260206004820152601060248201526f14185d5cd8589b194e881c185d5cd95960821b604482015290519081900360640190fd5b6106598383610d20565b610828610823610d74565b610915565b6108635760405162461bcd60e51b81526004018080602001828103825260308152602001806116dc6030913960400191505060405180910390fd5b609b5460ff166108b1576040805162461bcd60e51b815260206004820152601460248201527314185d5cd8589b194e881b9bdd081c185d5cd95960621b604482015290519081900360640190fd5b609b805460ff191690557f5db9ee0a495bf2e6ff9c91a7834c1ba4fdd244a5e8aa4e537bd38aeae4b073aa6108e4610d74565b604080516001600160a01b039092168252519081900360200190a1565b61091261090c610d74565b82610d78565b50565b600061092860688363ffffffff610e7416565b92915050565b609b5460ff1690565b610947610942610d74565b610edb565b565b6001600160a01b031660009081526033602052604090205490565b61096e8282610f23565b5050565b61097d610823610d74565b6109b85760405162461bcd60e51b81526004018080602001828103825260308152602001806116dc6030913960400191505060405180910390fd5b61091281610f77565b6109cc610823610d74565b610a075760405162461bcd60e51b81526004018080602001828103825260308152602001806116dc6030913960400191505060405180910390fd5b609b5460ff1615610a52576040805162461bcd60e51b815260206004820152601060248201526f14185d5cd8589b194e881c185d5cd95960821b604482015290519081900360640190fd5b609b805460ff191660011790557f62e78cea01bee320cd4e420270b5ea74000d11b0c9f74754ebdbfc544b05a2586108e4610d74565b6101338054604080516020601f60026000196101006001881615020190951694909404938401819004810282018101909252828152606093909290918301828280156105f65780601f106105cb576101008083540402835291602001916105f6565b609b5460009060ff1615610b38576040805162461bcd60e51b815260206004820152601060248201526f14185d5cd8589b194e881c185d5cd95960821b604482015290519081900360640190fd5b6106598383610fbf565b609b5460009060ff1615610b90576040805162461bcd60e51b815260206004820152601060248201526f14185d5cd8589b194e881c185d5cd95960821b604482015290519081900360640190fd5b610659838361102d565b600054610100900460ff1680610bb35750610bb3610c8d565b80610bc1575060005460ff16155b610bfc5760405162461bcd60e51b815260040180806020018281038252602e8152602001806117bf602e913960400191505060405180910390fd5b600054610100900460ff16158015610c27576000805460ff1961ff0019909116610100171660011790555b610c3082611041565b801561096e576000805461ff00191690555050565b6001600160a01b03918216600090815260346020908152604080832093909416825291909152205490565b6000610c84610c7d610d74565b84846110f6565b50600192915050565b303b1590565b6000610ca08484846111e2565b610d1684610cac610d74565b610d1185604051806060016040528060288152602001611775602891396001600160a01b038a16600090815260346020526040812090610cea610d74565b6001600160a01b03168152602081019190915260400160002054919063ffffffff61134016565b6110f6565b5060019392505050565b6000610c84610d2d610d74565b84610d118560346000610d3e610d74565b6001600160a01b03908116825260208083019390935260409182016000908120918c16815292529020549063ffffffff6113d716565b3390565b6001600160a01b038216610dbd5760405162461bcd60e51b81526004018080602001828103825260218152602001806118116021913960400191505060405180910390fd5b610e00816040518060600160405280602281526020016116ba602291396001600160a01b038516600090815260336020526040902054919063ffffffff61134016565b6001600160a01b038316600090815260336020526040902055603554610e2c908263ffffffff61143116565b6035556040805182815290516000916001600160a01b038516917fddf252ad1be2c89b69c2b068fc378daa952ba7f163c4a11628f55a4df523b3ef9181900360200190a35050565b60006001600160a01b038216610ebb5760405162461bcd60e51b815260040180806020018281038252602281526020018061179d6022913960400191505060405180910390fd5b506001600160a01b03166000908152602091909152604090205460ff1690565b610eec60688263ffffffff61147316565b6040516001600160a01b038216907fcd265ebaf09df2871cc7bd4133404a235ba12eff2041bb89d9c714a2621c7c7e90600090a250565b610f2d8282610d78565b61096e82610f39610d74565b610d11846040518060600160405280602481526020016117ed602491396001600160a01b038816600090815260346020526040812090610cea610d74565b610f8860688263ffffffff6114da16565b6040516001600160a01b038216907f6719d08c1888103bea251a4ed56406bd0c3e69723c8a1686e017e7bbe159b6f890600090a250565b6000610c84610fcc610d74565b84610d118560405180606001604052806025815260200161187b6025913960346000610ff6610d74565b6001600160a01b03908116825260208083019390935260409182016000908120918d1681529252902054919063ffffffff61134016565b6000610c8461103a610d74565b84846111e2565b600054610100900460ff168061105a575061105a610c8d565b80611068575060005460ff16155b6110a35760405162461bcd60e51b815260040180806020018281038252602e8152602001806117bf602e913960400191505060405180910390fd5b600054610100900460ff161580156110ce576000805460ff1961ff0019909116610100171660011790555b6110d78261155b565b609b805460ff19169055801561096e576000805461ff00191690555050565b6001600160a01b03831661113b5760405162461bcd60e51b81526004018080602001828103825260248152602001806118576024913960400191505060405180910390fd5b6001600160a01b0382166111805760405162461bcd60e51b815260040180806020018281038252602281526020018061170c6022913960400191505060405180910390fd5b6001600160a01b03808416600081815260346020908152604080832094871680845294825291829020859055815185815291517f8c5be1e5ebec7d5bd14f71427d1e84f3dd0314c0f7b2291e5b200ac8c7c3b9259281900390910190a3505050565b6001600160a01b0383166112275760405162461bcd60e51b81526004018080602001828103825260258152602001806118326025913960400191505060405180910390fd5b6001600160a01b03821661126c5760405162461bcd60e51b81526004018080602001828103825260238152602001806116976023913960400191505060405180910390fd5b6112af8160405180606001604052806026815260200161172e602691396001600160a01b038616600090815260336020526040902054919063ffffffff61134016565b6001600160a01b0380851660009081526033602052604080822093909355908416815220546112e4908263ffffffff6113d716565b6001600160a01b0380841660008181526033602090815260409182902094909455805185815290519193928716927fddf252ad1be2c89b69c2b068fc378daa952ba7f163c4a11628f55a4df523b3ef92918290030190a3505050565b600081848411156113cf5760405162461bcd60e51b81526004018080602001828103825283818151815260200191508051906020019080838360005b8381101561139457818101518382015260200161137c565b50505050905090810190601f1680156113c15780820380516001836020036101000a031916815260200191505b509250505060405180910390fd5b505050900390565b600082820183811015610659576040805162461bcd60e51b815260206004820152601b60248201527f536166654d6174683a206164646974696f6e206f766572666c6f770000000000604482015290519081900360640190fd5b600061065983836040518060400160405280601e81526020017f536166654d6174683a207375627472616374696f6e206f766572666c6f770000815250611340565b61147d8282610e74565b6114b85760405162461bcd60e51b81526004018080602001828103825260218152602001806117546021913960400191505060405180910390fd5b6001600160a01b0316600090815260209190915260409020805460ff19169055565b6114e48282610e74565b15611536576040805162461bcd60e51b815260206004820152601f60248201527f526f6c65733a206163636f756e7420616c72656164792068617320726f6c6500604482015290519081900360640190fd5b6001600160a01b0316600090815260209190915260409020805460ff19166001179055565b600054610100900460ff16806115745750611574610c8d565b80611582575060005460ff16155b6115bd5760405162461bcd60e51b815260040180806020018281038252602e8152602001806117bf602e913960400191505060405180910390fd5b600054610100900460ff161580156115e8576000805460ff1961ff0019909116610100171660011790555b6115f182610915565b610c3057610c3082610f77565b828054600181600116156101000203166002900490600052602060002090601f016020900481019282601f1061163f57805160ff191683800117855561166c565b8280016001018555821561166c579182015b8281111561166c578251825591602001919060010190611651565b5061167892915061167c565b5090565b6105fe91905b80821115611678576000815560010161168256fe45524332303a207472616e7366657220746f20746865207a65726f206164647265737345524332303a206275726e20616d6f756e7420657863656564732062616c616e6365506175736572526f6c653a2063616c6c657220646f6573206e6f742068617665207468652050617573657220726f6c6545524332303a20617070726f766520746f20746865207a65726f206164647265737345524332303a207472616e7366657220616d6f756e7420657863656564732062616c616e6365526f6c65733a206163636f756e7420646f6573206e6f74206861766520726f6c6545524332303a207472616e7366657220616d6f756e74206578636565647320616c6c6f77616e6365526f6c65733a206163636f756e7420697320746865207a65726f2061646472657373436f6e747261637420696e7374616e63652068617320616c7265616479206265656e20696e697469616c697a656445524332303a206275726e20616d6f756e74206578636565647320616c6c6f77616e636545524332303a206275726e2066726f6d20746865207a65726f206164647265737345524332303a207472616e736665722066726f6d20746865207a65726f206164647265737345524332303a20617070726f76652066726f6d20746865207a65726f206164647265737345524332303a2064656372656173656420616c6c6f77616e63652062656c6f77207a65726fa265627a7a72315820881eb42b0c36205089e1f27534e0366cdc5c900c119a0883fd272481f540098c64736f6c63430005110032526f6c65733a206163636f756e7420697320746865207a65726f2061646472657373436f6e747261637420696e7374616e63652068617320616c7265616479206265656e20696e697469616c697a6564",
  "source": "pragma solidity 0.5.17;\n\nimport \"@openzeppelin/contracts-ethereum-package/contracts/token/ERC20/ERC20Detailed.sol\";\nimport \"@openzeppelin/contracts-ethereum-package/contracts/token/ERC20/ERC20Pausable.sol\";\nimport \"@openzeppelin/contracts-ethereum-package/contracts/token/ERC20/ERC20Burnable.sol\";\n\ncontract PaymentToken is ERC20Pausable, ERC20Burnable, ERC20Detailed {\n    uint8 private constant _decimals = 18;\n\n    uint256 public constant INITIAL_SUPPLY =\n        1000000000 * 10**uint256(_decimals);\n\n    constructor(string memory symbol) public {\n        ERC20Pausable.initialize(msg.sender);\n        ERC20Detailed.initialize(symbol, symbol, _decimals);\n        _mint(msg.sender, INITIAL_SUPPLY);\n    }\n}\n",
  "sourcePath": "/Users/jaz/Desktop/ren/dev/darknode-sol/contracts/test/tokens/PaymentToken.sol",
  "compiler": {
    "name": "solc",
    "version": "0.5.17+commit.d19bba13.Emscripten.clang"
  },
  "schemaVersion": "3.4.3",
  "updatedAt": "2022-09-07T05:19:15.892Z",
  "devdoc": {
    "methods": {
      "allowance(address,address)": {
        "details": "See {IERC20-allowance}."
      },
      "balanceOf(address)": {
        "details": "See {IERC20-balanceOf}."
      },
      "burn(uint256)": {
        "details": "Destroys `amount` tokens from the caller.     * See {ERC20-_burn}."
      },
      "burnFrom(address,uint256)": {
        "details": "See {ERC20-_burnFrom}."
      },
      "decimals()": {
        "details": "Returns the number of decimals used to get its user representation. For example, if `decimals` equals `2`, a balance of `505` tokens should be displayed to a user as `5,05` (`505 / 10 ** 2`).     * Tokens usually opt for a value of 18, imitating the relationship between Ether and Wei.     * NOTE: This information is only used for _display_ purposes: it in no way affects any of the arithmetic of the contract, including {IERC20-balanceOf} and {IERC20-transfer}."
      },
      "initialize(string,string,uint8)": {
        "details": "Sets the values for `name`, `symbol`, and `decimals`. All three of these values are immutable: they can only be set once during construction."
      },
      "name()": {
        "details": "Returns the name of the token."
      },
      "pause()": {
        "details": "Called by a pauser to pause, triggers stopped state."
      },
      "paused()": {
        "details": "Returns true if the contract is paused, and false otherwise."
      },
      "symbol()": {
        "details": "Returns the symbol of the token, usually a shorter version of the name."
      },
      "totalSupply()": {
        "details": "See {IERC20-totalSupply}."
      },
      "unpause()": {
        "details": "Called by a pauser to unpause, returns to normal state."
      }
    }
  },
  "userdoc": {
    "methods": {}
  }
}