{
  "contractName": "RenProxyAdmin",
  "abi": [
    {
      "anonymous": false,
      "inputs": [
        {
          "indexed": true,
          "internalType": "address",
          "name": "previousOwner",
          "type": "address"
        },
        {
          "indexed": true,
          "internalType": "address",
          "name": "newOwner",
          "type": "address"
        }
      ],
      "name": "OwnershipTransferred",
      "type": "event"
    },
    {
      "constant": false,
      "inputs": [
        {
          "internalType": "contract AdminUpgradeabilityProxy",
          "name": "proxy",
          "type": "address"
        },
        {
          "internalType": "address",
          "name": "newAdmin",
          "type": "address"
        }
      ],
      "name": "changeProxyAdmin",
      "outputs": [],
      "payable": false,
      "stateMutability": "nonpayable",
      "type": "function"
    },
    {
      "constant": true,
      "inputs": [
        {
          "internalType": "contract AdminUpgradeabilityProxy",
          "name": "proxy",
          "type": "address"
        }
      ],
      "name": "getProxyAdmin",
      "outputs": [
        {
          "internalType": "address",
          "name": "",
          "type": "address"
        }
      ],
      "payable": false,
      "stateMutability": "view",
      "type": "function"
    },
    {
      "constant": true,
      "inputs": [
        {
          "internalType": "contract AdminUpgradeabilityProxy",
          "name": "proxy",
          "type": "address"
        }
      ],
      "name": "getProxyImplementation",
      "outputs": [
        {
          "internalType": "address",
          "name": "",
          "type": "address"
        }
      ],
      "payable": false,
      "stateMutability": "view",
      "type": "function"
    },
    {
      "constant": true,
      "inputs": [],
      "name": "isOwner",
      "outputs": [
        {
          "internalType": "bool",
          "name": "",
          "type": "bool"
        }
      ],
      "payable": false,
      "stateMutability": "view",
      "type": "function"
    },
    {
      "constant": true,
      "inputs": [],
      "name": "owner",
      "outputs": [
        {
          "internalType": "address",
          "name": "",
          "type": "address"
        }
      ],
      "payable": false,
      "stateMutability": "view",
      "type": "function"
    },
    {
      "constant": false,
      "inputs": [],
      "name": "renounceOwnership",
      "outputs": [],
      "payable": false,
      "stateMutability": "nonpayable",
      "type": "function"
    },
    {
      "constant": false,
      "inputs": [
        {
          "internalType": "address",
          "name": "newOwner",
          "type": "address"
        }
      ],
      "name": "transferOwnership",
      "outputs": [],
      "payable": false,
      "stateMutability": "nonpayable",
      "type": "function"
    },
    {
      "constant": false,
      "inputs": [
        {
          "internalType": "contract AdminUpgradeabilityProxy",
          "name": "proxy",
          "type": "address"
        },
        {
          "internalType": "address",
          "name": "implementation",
          "type": "address"
        }
      ],
      "name": "upgrade",
      "outputs": [],
      "payable": false,
      "stateMutability": "nonpayable",
      "type": "function"
    },
    {
      "constant": false,
      "inputs": [
        {
          "internalType": "contract AdminUpgradeabilityProxy",
          "name": "proxy",
          "type": "address"
        },
        {
          "internalType": "address",
          "name": "implementation",
          "type": "address"
        },
        {
          "internalType": "bytes",
          "name": "data",
          "type": "bytes"
        }
      ],
      "name": "upgradeAndCall",
      "outputs": [],
      "payable": true,
      "stateMutability": "payable",
      "type": "function"
    }
  ],
  "bytecode": "0x60806040819052600080546001600160a01b03191633178082556001600160a01b0316917f8be0079c531659141344cd1fd0a4f28419497f9722a3daafe3b4186f6b6457e0908290a36106d5806100576000396000f3fe6080604052600436106100865760003560e01c80638f32d59b116100595780638f32d59b146101415780639623609d1461016a57806399a88ec414610229578063f2fde38b14610264578063f3b7dead1461029757610086565b8063204e1c7a1461008b578063715018a6146100da5780637eff275e146100f15780638da5cb5b1461012c575b600080fd5b34801561009757600080fd5b506100be600480360360208110156100ae57600080fd5b50356001600160a01b03166102ca565b604080516001600160a01b039092168252519081900360200190f35b3480156100e657600080fd5b506100ef61035c565b005b3480156100fd57600080fd5b506100ef6004803603604081101561011457600080fd5b506001600160a01b03813581169160200135166103b7565b34801561013857600080fd5b506100be61043c565b34801561014d57600080fd5b5061015661044b565b604080519115158252519081900360200190f35b6100ef6004803603606081101561018057600080fd5b6001600160a01b0382358116926020810135909116918101906060810160408201356401000000008111156101b457600080fd5b8201836020820111156101c657600080fd5b803590602001918460018302840111640100000000831117156101e857600080fd5b91908080601f01602080910402602001604051908101604052809392919081815260200183838082843760009201919091525092955061045c945050505050565b34801561023557600080fd5b506100ef6004803603604081101561024c57600080fd5b506001600160a01b038135811691602001351661054d565b34801561027057600080fd5b506100ef6004803603602081101561028757600080fd5b50356001600160a01b03166105b6565b3480156102a357600080fd5b506100be600480360360208110156102ba57600080fd5b50356001600160a01b03166105d3565b6000806060836001600160a01b03166040518080635c60da1b60e01b8152506004019050600060405180830381855afa9150503d8060008114610329576040519150601f19603f3d011682016040523d82523d6000602084013e61032e565b606091505b50915091508161033d57600080fd5b80806020019051602081101561035257600080fd5b5051949350505050565b61036461044b565b61036d57600080fd5b600080546040516001600160a01b03909116907f8be0079c531659141344cd1fd0a4f28419497f9722a3daafe3b4186f6b6457e0908390a3600080546001600160a01b0319169055565b6103bf61044b565b6103c857600080fd5b816001600160a01b0316638f283970826040518263ffffffff1660e01b815260040180826001600160a01b03166001600160a01b03168152602001915050600060405180830381600087803b15801561042057600080fd5b505af1158015610434573d6000803e3d6000fd5b505050505050565b6000546001600160a01b031690565b6000546001600160a01b0316331490565b61046461044b565b61046d57600080fd5b826001600160a01b0316634f1ef2863484846040518463ffffffff1660e01b815260040180836001600160a01b03166001600160a01b0316815260200180602001828103825283818151815260200191508051906020019080838360005b838110156104e35781810151838201526020016104cb565b50505050905090810190601f1680156105105780820380516001836020036101000a031916815260200191505b5093505050506000604051808303818588803b15801561052f57600080fd5b505af1158015610543573d6000803e3d6000fd5b5050505050505050565b61055561044b565b61055e57600080fd5b816001600160a01b0316633659cfe6826040518263ffffffff1660e01b815260040180826001600160a01b03166001600160a01b03168152602001915050600060405180830381600087803b15801561042057600080fd5b6105be61044b565b6105c757600080fd5b6105d081610632565b50565b6000806060836001600160a01b031660405180806303e1469160e61b8152506004019050600060405180830381855afa9150503d8060008114610329576040519150601f19603f3d011682016040523d82523d6000602084013e61032e565b6001600160a01b03811661064557600080fd5b600080546040516001600160a01b03808516939216917f8be0079c531659141344cd1fd0a4f28419497f9722a3daafe3b4186f6b6457e091a3600080546001600160a01b0319166001600160a01b039290921691909117905556fea265627a7a72315820dff73d44c907cd66cf290546caa48a7a971a1c813ca08f23ee74f2f638f2716764736f6c63430005110032",
  "source": "pragma solidity 0.5.17;\n\nimport \"@openzeppelin/upgrades/contracts/upgradeability/ProxyAdmin.sol\";\n\n/**\n * @title RenProxyAdmin\n * @dev Proxies restrict the proxy's owner from calling functions from the\n * delegate contract logic. The ProxyAdmin contract allows single account to be\n * the governance address of both the proxy and the delegate contract logic.\n */\n/* solium-disable-next-line no-empty-blocks */\ncontract RenProxyAdmin is ProxyAdmin {\n\n}\n",
  "sourcePath": "/Users/jaz/Desktop/ren/dev/darknode-sol/contracts/Governance/RenProxyAdmin.sol",
  "compiler": {
    "name": "solc",
    "version": "0.5.17+commit.d19bba13.Emscripten.clang"
  },
  "schemaVersion": "3.4.3",
  "updatedAt": "2022-09-07T05:46:11.457Z",
  "networkType": "ethereum",
  "devdoc": {
    "details": "Proxies restrict the proxy's owner from calling functions from the delegate contract logic. The ProxyAdmin contract allows single account to be the governance address of both the proxy and the delegate contract logic.",
    "methods": {
      "changeProxyAdmin(address,address)": {
        "details": "Changes the admin of a proxy.",
        "params": {
          "newAdmin": "Address to transfer proxy administration to.",
          "proxy": "Proxy to change admin."
        }
      },
      "getProxyAdmin(address)": {
        "details": "Returns the admin of a proxy. Only the admin can query it.",
        "return": "The address of the current admin of the proxy."
      },
      "getProxyImplementation(address)": {
        "details": "Returns the current implementation of a proxy. This is needed because only the proxy admin can query it.",
        "return": "The address of the current implementation of the proxy."
      },
      "isOwner()": {
        "return": "true if `msg.sender` is the owner of the contract."
      },
      "owner()": {
        "return": "the address of the owner."
      },
      "renounceOwnership()": {
        "details": "Allows the current owner to relinquish control of the contract."
      },
      "transferOwnership(address)": {
        "details": "Allows the current owner to transfer control of the contract to a newOwner.",
        "params": {
          "newOwner": "The address to transfer ownership to."
        }
      },
      "upgrade(address,address)": {
        "details": "Upgrades a proxy to the newest implementation of a contract.",
        "params": {
          "implementation": "the address of the Implementation.",
          "proxy": "Proxy to be upgraded."
        }
      },
      "upgradeAndCall(address,address,bytes)": {
        "details": "Upgrades a proxy to the newest implementation of a contract and forwards a function call to it. This is useful to initialize the proxied contract.",
        "params": {
          "data": "Data to send as msg.data in the low level call. It should include the signature and the parameters of the function to be called, as described in https://solidity.readthedocs.io/en/v0.4.24/abi-spec.html#function-selector-and-argument-encoding.",
          "implementation": "Address of the Implementation.",
          "proxy": "Proxy to be upgraded."
        }
      }
    },
    "title": "RenProxyAdmin"
  },
  "userdoc": {
    "methods": {
      "renounceOwnership()": {
        "notice": "Renouncing to ownership will leave the contract without an owner. It will not be possible to call the functions with the `onlyOwner` modifier anymore."
      }
    }
  }
}