{
  "contractName": "RFT_StandardToken",
  "abi": [
    {
      "anonymous": false,
      "inputs": [
        {
          "indexed": true,
          "internalType": "address",
          "name": "_owner",
          "type": "address"
        },
        {
          "indexed": true,
          "internalType": "address",
          "name": "_spender",
          "type": "address"
        },
        {
          "indexed": false,
          "internalType": "uint256",
          "name": "_value",
          "type": "uint256"
        }
      ],
      "name": "Approval",
      "type": "event"
    },
    {
      "anonymous": false,
      "inputs": [
        {
          "indexed": true,
          "internalType": "address",
          "name": "_from",
          "type": "address"
        },
        {
          "indexed": true,
          "internalType": "address",
          "name": "_to",
          "type": "address"
        },
        {
          "indexed": false,
          "internalType": "uint256",
          "name": "_value",
          "type": "uint256"
        }
      ],
      "name": "Transfer",
      "type": "event"
    },
    {
      "constant": true,
      "inputs": [],
      "name": "totalSupply",
      "outputs": [
        {
          "internalType": "uint256",
          "name": "",
          "type": "uint256"
        }
      ],
      "payable": false,
      "stateMutability": "view",
      "type": "function"
    },
    {
      "constant": false,
      "inputs": [
        {
          "internalType": "address",
          "name": "_to",
          "type": "address"
        },
        {
          "internalType": "uint256",
          "name": "_value",
          "type": "uint256"
        }
      ],
      "name": "transfer",
      "outputs": [
        {
          "internalType": "bool",
          "name": "success",
          "type": "bool"
        }
      ],
      "payable": false,
      "stateMutability": "nonpayable",
      "type": "function"
    },
    {
      "constant": false,
      "inputs": [
        {
          "internalType": "address",
          "name": "_from",
          "type": "address"
        },
        {
          "internalType": "address",
          "name": "_to",
          "type": "address"
        },
        {
          "internalType": "uint256",
          "name": "_value",
          "type": "uint256"
        }
      ],
      "name": "transferFrom",
      "outputs": [
        {
          "internalType": "bool",
          "name": "success",
          "type": "bool"
        }
      ],
      "payable": false,
      "stateMutability": "nonpayable",
      "type": "function"
    },
    {
      "constant": true,
      "inputs": [
        {
          "internalType": "address",
          "name": "_owner",
          "type": "address"
        }
      ],
      "name": "balanceOf",
      "outputs": [
        {
          "internalType": "uint256",
          "name": "balance",
          "type": "uint256"
        }
      ],
      "payable": false,
      "stateMutability": "view",
      "type": "function"
    },
    {
      "constant": false,
      "inputs": [
        {
          "internalType": "address",
          "name": "_spender",
          "type": "address"
        },
        {
          "internalType": "uint256",
          "name": "_value",
          "type": "uint256"
        }
      ],
      "name": "approve",
      "outputs": [
        {
          "internalType": "bool",
          "name": "success",
          "type": "bool"
        }
      ],
      "payable": false,
      "stateMutability": "nonpayable",
      "type": "function"
    },
    {
      "constant": true,
      "inputs": [
        {
          "internalType": "address",
          "name": "_owner",
          "type": "address"
        },
        {
          "internalType": "address",
          "name": "_spender",
          "type": "address"
        }
      ],
      "name": "allowance",
      "outputs": [
        {
          "internalType": "uint256",
          "name": "remaining",
          "type": "uint256"
        }
      ],
      "payable": false,
      "stateMutability": "view",
      "type": "function"
    }
  ],
  "bytecode": "0x608060405234801561001057600080fd5b506103e5806100206000396000f3fe608060405234801561001057600080fd5b50600436106100625760003560e01c8063095ea7b31461006757806318160ddd146100a757806323b872dd146100c157806370a08231146100f7578063a9059cbb1461011d578063dd62ed3e14610149575b600080fd5b6100936004803603604081101561007d57600080fd5b506001600160a01b038135169060200135610177565b604080519115158252519081900360200190f35b6100af6101de565b60408051918252519081900360200190f35b610093600480360360608110156100d757600080fd5b506001600160a01b038135811691602081013590911690604001356101e4565b6100af6004803603602081101561010d57600080fd5b50356001600160a01b03166102d1565b6100936004803603604081101561013357600080fd5b506001600160a01b0381351690602001356102ec565b6100af6004803603604081101561015f57600080fd5b506001600160a01b0381358116916020013516610385565b3360008181526002602090815260408083206001600160a01b038716808552908352818420869055815186815291519394909390927f8c5be1e5ebec7d5bd14f71427d1e84f3dd0314c0f7b2291e5b200ac8c7c3b925928290030190a35060015b92915050565b60005481565b6001600160a01b038316600090815260016020526040812054821180159061022f57506001600160a01b03841660009081526002602090815260408083203384529091529020548211155b801561023b5750600082115b156102c6576001600160a01b03808416600081815260016020908152604080832080548801905593881680835284832080548890039055600282528483203384528252918490208054879003905583518681529351929391927fddf252ad1be2c89b69c2b068fc378daa952ba7f163c4a11628f55a4df523b3ef9281900390910190a35060016102ca565b5060005b9392505050565b6001600160a01b031660009081526001602052604090205490565b33600090815260016020526040812054821180159061030b5750600082115b1561037d57336000818152600160209081526040808320805487900390556001600160a01b03871680845292819020805487019055805186815290519293927fddf252ad1be2c89b69c2b068fc378daa952ba7f163c4a11628f55a4df523b3ef929181900390910190a35060016101d8565b5060006101d8565b6001600160a01b0391821660009081526002602090815260408083209390941682529190915220549056fea265627a7a723158207543d0d31259f89b767ba97b1bbf9eb0b701daf64b1b12a1056f15c0b6e7bd3664736f6c63430005110032",
  "source": "pragma solidity 0.5.17;\n\ncontract RFT_Token {\n    uint256 public totalSupply;\n\n    function balanceOf(address _owner) public view returns (uint256 balance);\n\n    function transfer(address _to, uint256 _value)\n        public\n        returns (bool success);\n\n    function transferFrom(\n        address _from,\n        address _to,\n        uint256 _value\n    ) public returns (bool success);\n\n    function approve(address _spender, uint256 _value)\n        public\n        returns (bool success);\n\n    function allowance(address _owner, address _spender)\n        public\n        view\n        returns (uint256 remaining);\n\n    event Transfer(address indexed _from, address indexed _to, uint256 _value);\n    event Approval(\n        address indexed _owner,\n        address indexed _spender,\n        uint256 _value\n    );\n}\n\ncontract RFT_StandardToken is RFT_Token {\n    function transfer(address _to, uint256 _value)\n        public\n        returns (bool success)\n    {\n        if (balances[msg.sender] >= _value && _value > 0) {\n            balances[msg.sender] -= _value;\n            balances[_to] += _value;\n            emit Transfer(msg.sender, _to, _value);\n            return true;\n        } else {\n            return false;\n        }\n    }\n\n    function transferFrom(\n        address _from,\n        address _to,\n        uint256 _value\n    ) public returns (bool success) {\n        if (\n            balances[_from] >= _value &&\n            allowed[_from][msg.sender] >= _value &&\n            _value > 0\n        ) {\n            balances[_to] += _value;\n            balances[_from] -= _value;\n            allowed[_from][msg.sender] -= _value;\n            emit Transfer(_from, _to, _value);\n            return true;\n        } else {\n            return false;\n        }\n    }\n\n    function balanceOf(address _owner) public view returns (uint256 balance) {\n        return balances[_owner];\n    }\n\n    function approve(address _spender, uint256 _value)\n        public\n        returns (bool success)\n    {\n        allowed[msg.sender][_spender] = _value;\n        emit Approval(msg.sender, _spender, _value);\n        return true;\n    }\n\n    function allowance(address _owner, address _spender)\n        public\n        view\n        returns (uint256 remaining)\n    {\n        return allowed[_owner][_spender];\n    }\n\n    mapping(address => uint256) balances;\n    mapping(address => mapping(address => uint256)) allowed;\n}\n\ncontract ReturnsFalseToken is RFT_StandardToken {\n    string public constant name = \"Returns False Token\";\n    string public constant symbol = \"RFT\";\n    uint8 public constant decimals = 18;\n    uint256 public constant INITIAL_SUPPLY = 1000000000 * 10**uint256(decimals);\n\n    constructor() public {\n        totalSupply = INITIAL_SUPPLY;\n        balances[msg.sender] = INITIAL_SUPPLY;\n    }\n\n    function approve(address _spender, uint256 _value)\n        public\n        returns (bool success)\n    {\n        if ((_value != 0) && (allowed[msg.sender][_spender] != 0)) return false;\n\n        return super.approve(_spender, _value);\n    }\n}\n",
  "sourcePath": "/Users/jaz/Desktop/ren/dev/darknode-sol/contracts/test/tokens/ReturnsFalseToken.sol",
  "compiler": {
    "name": "solc",
    "version": "0.5.17+commit.d19bba13.Emscripten.clang"
  },
  "schemaVersion": "3.4.3",
  "updatedAt": "2022-09-07T05:19:15.893Z",
  "devdoc": {
    "methods": {}
  },
  "userdoc": {
    "methods": {}
  }
}