{
  "contractName": "SelfDestructingToken",
  "abi": [
    {
      "inputs": [],
      "payable": false,
      "stateMutability": "nonpayable",
      "type": "constructor"
    },
    {
      "anonymous": false,
      "inputs": [
        {
          "indexed": true,
          "internalType": "address",
          "name": "owner",
          "type": "address"
        },
        {
          "indexed": true,
          "internalType": "address",
          "name": "spender",
          "type": "address"
        },
        {
          "indexed": false,
          "internalType": "uint256",
          "name": "value",
          "type": "uint256"
        }
      ],
      "name": "Approval",
      "type": "event"
    },
    {
      "anonymous": false,
      "inputs": [
        {
          "indexed": true,
          "internalType": "address",
          "name": "previousOwner",
          "type": "address"
        },
        {
          "indexed": true,
          "internalType": "address",
          "name": "newOwner",
          "type": "address"
        }
      ],
      "name": "OwnershipTransferred",
      "type": "event"
    },
    {
      "anonymous": false,
      "inputs": [
        {
          "indexed": true,
          "internalType": "address",
          "name": "from",
          "type": "address"
        },
        {
          "indexed": true,
          "internalType": "address",
          "name": "to",
          "type": "address"
        },
        {
          "indexed": false,
          "internalType": "uint256",
          "name": "value",
          "type": "uint256"
        }
      ],
      "name": "Transfer",
      "type": "event"
    },
    {
      "constant": true,
      "inputs": [],
      "name": "INITIAL_SUPPLY",
      "outputs": [
        {
          "internalType": "uint256",
          "name": "",
          "type": "uint256"
        }
      ],
      "payable": false,
      "stateMutability": "view",
      "type": "function"
    },
    {
      "constant": true,
      "inputs": [
        {
          "internalType": "address",
          "name": "owner",
          "type": "address"
        },
        {
          "internalType": "address",
          "name": "spender",
          "type": "address"
        }
      ],
      "name": "allowance",
      "outputs": [
        {
          "internalType": "uint256",
          "name": "",
          "type": "uint256"
        }
      ],
      "payable": false,
      "stateMutability": "view",
      "type": "function"
    },
    {
      "constant": false,
      "inputs": [
        {
          "internalType": "address",
          "name": "spender",
          "type": "address"
        },
        {
          "internalType": "uint256",
          "name": "amount",
          "type": "uint256"
        }
      ],
      "name": "approve",
      "outputs": [
        {
          "internalType": "bool",
          "name": "",
          "type": "bool"
        }
      ],
      "payable": false,
      "stateMutability": "nonpayable",
      "type": "function"
    },
    {
      "constant": true,
      "inputs": [
        {
          "internalType": "address",
          "name": "account",
          "type": "address"
        }
      ],
      "name": "balanceOf",
      "outputs": [
        {
          "internalType": "uint256",
          "name": "",
          "type": "uint256"
        }
      ],
      "payable": false,
      "stateMutability": "view",
      "type": "function"
    },
    {
      "constant": true,
      "inputs": [],
      "name": "decimals",
      "outputs": [
        {
          "internalType": "uint8",
          "name": "",
          "type": "uint8"
        }
      ],
      "payable": false,
      "stateMutability": "view",
      "type": "function"
    },
    {
      "constant": false,
      "inputs": [
        {
          "internalType": "address",
          "name": "spender",
          "type": "address"
        },
        {
          "internalType": "uint256",
          "name": "subtractedValue",
          "type": "uint256"
        }
      ],
      "name": "decreaseAllowance",
      "outputs": [
        {
          "internalType": "bool",
          "name": "",
          "type": "bool"
        }
      ],
      "payable": false,
      "stateMutability": "nonpayable",
      "type": "function"
    },
    {
      "constant": false,
      "inputs": [
        {
          "internalType": "address",
          "name": "spender",
          "type": "address"
        },
        {
          "internalType": "uint256",
          "name": "addedValue",
          "type": "uint256"
        }
      ],
      "name": "increaseAllowance",
      "outputs": [
        {
          "internalType": "bool",
          "name": "",
          "type": "bool"
        }
      ],
      "payable": false,
      "stateMutability": "nonpayable",
      "type": "function"
    },
    {
      "constant": false,
      "inputs": [
        {
          "internalType": "string",
          "name": "name",
          "type": "string"
        },
        {
          "internalType": "string",
          "name": "symbol",
          "type": "string"
        },
        {
          "internalType": "uint8",
          "name": "decimals",
          "type": "uint8"
        }
      ],
      "name": "initialize",
      "outputs": [],
      "payable": false,
      "stateMutability": "nonpayable",
      "type": "function"
    },
    {
      "constant": false,
      "inputs": [
        {
          "internalType": "address",
          "name": "sender",
          "type": "address"
        }
      ],
      "name": "initialize",
      "outputs": [],
      "payable": false,
      "stateMutability": "nonpayable",
      "type": "function"
    },
    {
      "constant": true,
      "inputs": [],
      "name": "isOwner",
      "outputs": [
        {
          "internalType": "bool",
          "name": "",
          "type": "bool"
        }
      ],
      "payable": false,
      "stateMutability": "view",
      "type": "function"
    },
    {
      "constant": true,
      "inputs": [],
      "name": "name",
      "outputs": [
        {
          "internalType": "string",
          "name": "",
          "type": "string"
        }
      ],
      "payable": false,
      "stateMutability": "view",
      "type": "function"
    },
    {
      "constant": true,
      "inputs": [],
      "name": "owner",
      "outputs": [
        {
          "internalType": "address",
          "name": "",
          "type": "address"
        }
      ],
      "payable": false,
      "stateMutability": "view",
      "type": "function"
    },
    {
      "constant": false,
      "inputs": [],
      "name": "renounceOwnership",
      "outputs": [],
      "payable": false,
      "stateMutability": "nonpayable",
      "type": "function"
    },
    {
      "constant": true,
      "inputs": [],
      "name": "symbol",
      "outputs": [
        {
          "internalType": "string",
          "name": "",
          "type": "string"
        }
      ],
      "payable": false,
      "stateMutability": "view",
      "type": "function"
    },
    {
      "constant": true,
      "inputs": [],
      "name": "totalSupply",
      "outputs": [
        {
          "internalType": "uint256",
          "name": "",
          "type": "uint256"
        }
      ],
      "payable": false,
      "stateMutability": "view",
      "type": "function"
    },
    {
      "constant": false,
      "inputs": [
        {
          "internalType": "address",
          "name": "recipient",
          "type": "address"
        },
        {
          "internalType": "uint256",
          "name": "amount",
          "type": "uint256"
        }
      ],
      "name": "transfer",
      "outputs": [
        {
          "internalType": "bool",
          "name": "",
          "type": "bool"
        }
      ],
      "payable": false,
      "stateMutability": "nonpayable",
      "type": "function"
    },
    {
      "constant": false,
      "inputs": [
        {
          "internalType": "address",
          "name": "sender",
          "type": "address"
        },
        {
          "internalType": "address",
          "name": "recipient",
          "type": "address"
        },
        {
          "internalType": "uint256",
          "name": "amount",
          "type": "uint256"
        }
      ],
      "name": "transferFrom",
      "outputs": [
        {
          "internalType": "bool",
          "name": "",
          "type": "bool"
        }
      ],
      "payable": false,
      "stateMutability": "nonpayable",
      "type": "function"
    },
    {
      "constant": false,
      "inputs": [
        {
          "internalType": "address",
          "name": "newOwner",
          "type": "address"
        }
      ],
      "name": "transferOwnership",
      "outputs": [],
      "payable": false,
      "stateMutability": "nonpayable",
      "type": "function"
    },
    {
      "constant": false,
      "inputs": [],
      "name": "destruct",
      "outputs": [],
      "payable": false,
      "stateMutability": "nonpayable",
      "type": "function"
    }
  ],
  "bytecode": "0x60806040523480156200001157600080fd5b506200007b6040518060400160405280601681526020017f53656c66204465737472756374696e6720546f6b656e000000000000000000008152506040518060400160405280600381526020016214d11560ea1b8152506012620000b860201b620005a91760201c565b6200009133620001a960201b620009b71760201c565b620000b2336b033b2e3c9fd0803ce80000006001600160e01b03620002ac16565b620004bc565b600054610100900460ff1680620000dd5750620000dd6001600160e01b03620003b116565b80620000ec575060005460ff16155b620001295760405162461bcd60e51b815260040180806020018281038252602e81526020018062001614602e913960400191505060405180910390fd5b600054610100900460ff1615801562000155576000805460ff1961ff0019909116610100171660011790555b83516200016a9060689060208701906200041a565b508251620001809060699060208601906200041a565b50606a805460ff191660ff84161790558015620001a3576000805461ff00191690555b50505050565b600054610100900460ff1680620001ce5750620001ce6001600160e01b03620003b116565b80620001dd575060005460ff16155b6200021a5760405162461bcd60e51b815260040180806020018281038252602e81526020018062001614602e913960400191505060405180910390fd5b600054610100900460ff1615801562000246576000805460ff1961ff0019909116610100171660011790555b609d80546001600160a01b0319166001600160a01b0384811691909117918290556040519116906000907f8be0079c531659141344cd1fd0a4f28419497f9722a3daafe3b4186f6b6457e0908290a38015620002a8576000805461ff00191690555b5050565b6001600160a01b03821662000308576040805162461bcd60e51b815260206004820152601f60248201527f45524332303a206d696e7420746f20746865207a65726f206164647265737300604482015290519081900360640190fd5b6200032481603554620003b860201b62000e241790919060201c565b6035556001600160a01b0382166000908152603360209081526040909120546200035991839062000e24620003b8821b17901c565b6001600160a01b03831660008181526033602090815260408083209490945583518581529351929391927fddf252ad1be2c89b69c2b068fc378daa952ba7f163c4a11628f55a4df523b3ef9281900390910190a35050565b303b155b90565b60008282018381101562000413576040805162461bcd60e51b815260206004820152601b60248201527f536166654d6174683a206164646974696f6e206f766572666c6f770000000000604482015290519081900360640190fd5b9392505050565b828054600181600116156101000203166002900490600052602060002090601f016020900481019282601f106200045d57805160ff19168380011785556200048d565b828001600101855582156200048d579182015b828111156200048d57825182559160200191906001019062000470565b506200049b9291506200049f565b5090565b620003b591905b808211156200049b5760008155600101620004a6565b61114880620004cc6000396000f3fe608060405234801561001057600080fd5b50600436106101215760003560e01c806370a08231116100ad578063a457c2d711610071578063a457c2d714610423578063a9059cbb1461044f578063c4d66de81461047b578063dd62ed3e146104a1578063f2fde38b146104cf57610121565b806370a08231146103c1578063715018a6146103e75780638da5cb5b146103ef5780638f32d59b1461041357806395d89b411461041b57610121565b806323b872dd116100f457806323b872dd146103315780632b68b9c6146103675780632ff2e9dc1461036f578063313ce56714610377578063395093511461039557610121565b806306fdde0314610126578063095ea7b3146101a35780631624f6c6146101e357806318160ddd14610317575b600080fd5b61012e6104f5565b6040805160208082528351818301528351919283929083019185019080838360005b83811015610168578181015183820152602001610150565b50505050905090810190601f1680156101955780820380516001836020036101000a031916815260200191505b509250505060405180910390f35b6101cf600480360360408110156101b957600080fd5b506001600160a01b03813516906020013561058c565b604080519115158252519081900360200190f35b610315600480360360608110156101f957600080fd5b81019060208101813564010000000081111561021457600080fd5b82018360208201111561022657600080fd5b8035906020019184600183028401116401000000008311171561024857600080fd5b91908080601f016020809104026020016040519081016040528093929190818152602001838380828437600092019190915250929594936020810193503591505064010000000081111561029b57600080fd5b8201836020820111156102ad57600080fd5b803590602001918460018302840111640100000000831117156102cf57600080fd5b91908080601f0160208091040260200160405190810160405280939291908181526020018383808284376000920191909152509295505050903560ff1691506105a99050565b005b61031f610685565b60408051918252519081900360200190f35b6101cf6004803603606081101561034757600080fd5b506001600160a01b0381358116916020810135909116906040013561068b565b610315610718565b61031f610774565b61037f610784565b6040805160ff9092168252519081900360200190f35b6101cf600480360360408110156103ab57600080fd5b506001600160a01b03813516906020013561078d565b61031f600480360360208110156103d757600080fd5b50356001600160a01b03166107e1565b6103156107fc565b6103f761089f565b604080516001600160a01b039092168252519081900360200190f35b6101cf6108ae565b61012e6108d4565b6101cf6004803603604081101561043957600080fd5b506001600160a01b038135169060200135610935565b6101cf6004803603604081101561046557600080fd5b506001600160a01b0381351690602001356109a3565b6103156004803603602081101561049157600080fd5b50356001600160a01b03166109b7565b61031f600480360360408110156104b757600080fd5b506001600160a01b0381358116916020013516610aa9565b610315600480360360208110156104e557600080fd5b50356001600160a01b0316610ad4565b60688054604080516020601f60026000196101006001881615020190951694909404938401819004810282018101909252828152606093909290918301828280156105815780601f1061055657610100808354040283529160200191610581565b820191906000526020600020905b81548152906001019060200180831161056457829003601f168201915b505050505090505b90565b60006105a0610599610b39565b8484610b3d565b50600192915050565b600054610100900460ff16806105c257506105c2610c29565b806105d0575060005460ff16155b61060b5760405162461bcd60e51b815260040180806020018281038252602e815260200180611078602e913960400191505060405180910390fd5b600054610100900460ff16158015610636576000805460ff1961ff0019909116610100171660011790555b8351610649906068906020870190610f26565b50825161065d906069906020860190610f26565b50606a805460ff191660ff8416179055801561067f576000805461ff00191690555b50505050565b60355490565b6000610698848484610c2f565b61070e846106a4610b39565b61070985604051806060016040528060288152602001611050602891396001600160a01b038a166000908152603460205260408120906106e2610b39565b6001600160a01b03168152602081019190915260400160002054919063ffffffff610d8d16565b610b3d565b5060019392505050565b6107206108ae565b610771576040805162461bcd60e51b815260206004820181905260248201527f4f776e61626c653a2063616c6c6572206973206e6f7420746865206f776e6572604482015290519081900360640190fd5b33ff5b6b033b2e3c9fd0803ce800000081565b606a5460ff1690565b60006105a061079a610b39565b8461070985603460006107ab610b39565b6001600160a01b03908116825260208083019390935260409182016000908120918c16815292529020549063ffffffff610e2416565b6001600160a01b031660009081526033602052604090205490565b6108046108ae565b610855576040805162461bcd60e51b815260206004820181905260248201527f4f776e61626c653a2063616c6c6572206973206e6f7420746865206f776e6572604482015290519081900360640190fd5b609d546040516000916001600160a01b0316907f8be0079c531659141344cd1fd0a4f28419497f9722a3daafe3b4186f6b6457e0908390a3609d80546001600160a01b0319169055565b609d546001600160a01b031690565b609d546000906001600160a01b03166108c5610b39565b6001600160a01b031614905090565b60698054604080516020601f60026000196101006001881615020190951694909404938401819004810282018101909252828152606093909290918301828280156105815780601f1061055657610100808354040283529160200191610581565b60006105a0610942610b39565b84610709856040518060600160405280602581526020016110ef602591396034600061096c610b39565b6001600160a01b03908116825260208083019390935260409182016000908120918d1681529252902054919063ffffffff610d8d16565b60006105a06109b0610b39565b8484610c2f565b600054610100900460ff16806109d057506109d0610c29565b806109de575060005460ff16155b610a195760405162461bcd60e51b815260040180806020018281038252602e815260200180611078602e913960400191505060405180910390fd5b600054610100900460ff16158015610a44576000805460ff1961ff0019909116610100171660011790555b609d80546001600160a01b0319166001600160a01b0384811691909117918290556040519116906000907f8be0079c531659141344cd1fd0a4f28419497f9722a3daafe3b4186f6b6457e0908290a38015610aa5576000805461ff00191690555b5050565b6001600160a01b03918216600090815260346020908152604080832093909416825291909152205490565b610adc6108ae565b610b2d576040805162461bcd60e51b815260206004820181905260248201527f4f776e61626c653a2063616c6c6572206973206e6f7420746865206f776e6572604482015290519081900360640190fd5b610b3681610e85565b50565b3390565b6001600160a01b038316610b825760405162461bcd60e51b81526004018080602001828103825260248152602001806110cb6024913960400191505060405180910390fd5b6001600160a01b038216610bc75760405162461bcd60e51b81526004018080602001828103825260228152602001806110086022913960400191505060405180910390fd5b6001600160a01b03808416600081815260346020908152604080832094871680845294825291829020859055815185815291517f8c5be1e5ebec7d5bd14f71427d1e84f3dd0314c0f7b2291e5b200ac8c7c3b9259281900390910190a3505050565b303b1590565b6001600160a01b038316610c745760405162461bcd60e51b81526004018080602001828103825260258152602001806110a66025913960400191505060405180910390fd5b6001600160a01b038216610cb95760405162461bcd60e51b8152600401808060200182810382526023815260200180610fbf6023913960400191505060405180910390fd5b610cfc8160405180606001604052806026815260200161102a602691396001600160a01b038616600090815260336020526040902054919063ffffffff610d8d16565b6001600160a01b038085166000908152603360205260408082209390935590841681522054610d31908263ffffffff610e2416565b6001600160a01b0380841660008181526033602090815260409182902094909455805185815290519193928716927fddf252ad1be2c89b69c2b068fc378daa952ba7f163c4a11628f55a4df523b3ef92918290030190a3505050565b60008184841115610e1c5760405162461bcd60e51b81526004018080602001828103825283818151815260200191508051906020019080838360005b83811015610de1578181015183820152602001610dc9565b50505050905090810190601f168015610e0e5780820380516001836020036101000a031916815260200191505b509250505060405180910390fd5b505050900390565b600082820183811015610e7e576040805162461bcd60e51b815260206004820152601b60248201527f536166654d6174683a206164646974696f6e206f766572666c6f770000000000604482015290519081900360640190fd5b9392505050565b6001600160a01b038116610eca5760405162461bcd60e51b8152600401808060200182810382526026815260200180610fe26026913960400191505060405180910390fd5b609d546040516001600160a01b038084169216907f8be0079c531659141344cd1fd0a4f28419497f9722a3daafe3b4186f6b6457e090600090a3609d80546001600160a01b0319166001600160a01b0392909216919091179055565b828054600181600116156101000203166002900490600052602060002090601f016020900481019282601f10610f6757805160ff1916838001178555610f94565b82800160010185558215610f94579182015b82811115610f94578251825591602001919060010190610f79565b50610fa0929150610fa4565b5090565b61058991905b80821115610fa05760008155600101610faa56fe45524332303a207472616e7366657220746f20746865207a65726f20616464726573734f776e61626c653a206e6577206f776e657220697320746865207a65726f206164647265737345524332303a20617070726f766520746f20746865207a65726f206164647265737345524332303a207472616e7366657220616d6f756e7420657863656564732062616c616e636545524332303a207472616e7366657220616d6f756e74206578636565647320616c6c6f77616e6365436f6e747261637420696e7374616e63652068617320616c7265616479206265656e20696e697469616c697a656445524332303a207472616e736665722066726f6d20746865207a65726f206164647265737345524332303a20617070726f76652066726f6d20746865207a65726f206164647265737345524332303a2064656372656173656420616c6c6f77616e63652062656c6f77207a65726fa265627a7a72315820d6201d51941764fc722d77ab0e5601b8da625f21bfbcf7b96467df80977f9d6664736f6c63430005110032436f6e747261637420696e7374616e63652068617320616c7265616479206265656e20696e697469616c697a6564",
  "source": "pragma solidity 0.5.17;\n\nimport \"@openzeppelin/contracts-ethereum-package/contracts/ownership/Ownable.sol\";\nimport \"@openzeppelin/contracts-ethereum-package/contracts/token/ERC20/ERC20.sol\";\nimport \"@openzeppelin/contracts-ethereum-package/contracts/token/ERC20/ERC20Detailed.sol\";\n\n/// @notice A test ERC20 token that can destroy itself.\ncontract SelfDestructingToken is ERC20, ERC20Detailed, Ownable {\n    string private constant _name = \"Self Destructing Token\";\n    string private constant _symbol = \"SDT\";\n    uint8 private constant _decimals = 18;\n\n    uint256 public constant INITIAL_SUPPLY =\n        1000000000 * 10**uint256(_decimals);\n\n    /// @notice The SelfDestructingToken Constructor.\n    constructor() public {\n        ERC20Detailed.initialize(_name, _symbol, _decimals);\n        Ownable.initialize(msg.sender);\n        _mint(msg.sender, INITIAL_SUPPLY);\n    }\n\n    function destruct() public onlyOwner {\n        selfdestruct(msg.sender);\n    }\n}\n",
  "sourcePath": "/Users/jaz/Desktop/ren/dev/darknode-sol/contracts/test/tokens/SelfDestructingToken.sol",
  "compiler": {
    "name": "solc",
    "version": "0.5.17+commit.d19bba13.Emscripten.clang"
  },
  "schemaVersion": "3.4.3",
  "updatedAt": "2022-09-07T05:19:15.906Z",
  "devdoc": {
    "methods": {
      "allowance(address,address)": {
        "details": "See {IERC20-allowance}."
      },
      "approve(address,uint256)": {
        "details": "See {IERC20-approve}.     * Requirements:     * - `spender` cannot be the zero address."
      },
      "balanceOf(address)": {
        "details": "See {IERC20-balanceOf}."
      },
      "decimals()": {
        "details": "Returns the number of decimals used to get its user representation. For example, if `decimals` equals `2`, a balance of `505` tokens should be displayed to a user as `5,05` (`505 / 10 ** 2`).     * Tokens usually opt for a value of 18, imitating the relationship between Ether and Wei.     * NOTE: This information is only used for _display_ purposes: it in no way affects any of the arithmetic of the contract, including {IERC20-balanceOf} and {IERC20-transfer}."
      },
      "decreaseAllowance(address,uint256)": {
        "details": "Atomically decreases the allowance granted to `spender` by the caller.     * This is an alternative to {approve} that can be used as a mitigation for problems described in {IERC20-approve}.     * Emits an {Approval} event indicating the updated allowance.     * Requirements:     * - `spender` cannot be the zero address. - `spender` must have allowance for the caller of at least `subtractedValue`."
      },
      "increaseAllowance(address,uint256)": {
        "details": "Atomically increases the allowance granted to `spender` by the caller.     * This is an alternative to {approve} that can be used as a mitigation for problems described in {IERC20-approve}.     * Emits an {Approval} event indicating the updated allowance.     * Requirements:     * - `spender` cannot be the zero address."
      },
      "initialize(address)": {
        "details": "Initializes the contract setting the deployer as the initial owner."
      },
      "initialize(string,string,uint8)": {
        "details": "Sets the values for `name`, `symbol`, and `decimals`. All three of these values are immutable: they can only be set once during construction."
      },
      "isOwner()": {
        "details": "Returns true if the caller is the current owner."
      },
      "name()": {
        "details": "Returns the name of the token."
      },
      "owner()": {
        "details": "Returns the address of the current owner."
      },
      "renounceOwnership()": {
        "details": "Leaves the contract without owner. It will not be possible to call `onlyOwner` functions anymore. Can only be called by the current owner.     * > Note: Renouncing ownership will leave the contract without an owner, thereby removing any functionality that is only available to the owner."
      },
      "symbol()": {
        "details": "Returns the symbol of the token, usually a shorter version of the name."
      },
      "totalSupply()": {
        "details": "See {IERC20-totalSupply}."
      },
      "transfer(address,uint256)": {
        "details": "See {IERC20-transfer}.     * Requirements:     * - `recipient` cannot be the zero address. - the caller must have a balance of at least `amount`."
      },
      "transferFrom(address,address,uint256)": {
        "details": "See {IERC20-transferFrom}.     * Emits an {Approval} event indicating the updated allowance. This is not required by the EIP. See the note at the beginning of {ERC20};     * Requirements: - `sender` and `recipient` cannot be the zero address. - `sender` must have a balance of at least `amount`. - the caller must have allowance for `sender`'s tokens of at least `amount`."
      },
      "transferOwnership(address)": {
        "details": "Transfers ownership of the contract to a new account (`newOwner`). Can only be called by the current owner."
      }
    }
  },
  "userdoc": {
    "methods": {
      "constructor": "The SelfDestructingToken Constructor."
    },
    "notice": "A test ERC20 token that can destroy itself."
  }
}