{
  "contractName": "ShifterRegistry",
  "abi": [
    {
      "constant": false,
      "inputs": [],
      "name": "claimOwnership",
      "outputs": [],
      "payable": false,
      "stateMutability": "nonpayable",
      "type": "function"
    },
    {
      "constant": false,
      "inputs": [],
      "name": "renounceOwnership",
      "outputs": [],
      "payable": false,
      "stateMutability": "nonpayable",
      "type": "function"
    },
    {
      "constant": true,
      "inputs": [],
      "name": "owner",
      "outputs": [
        {
          "name": "",
          "type": "address"
        }
      ],
      "payable": false,
      "stateMutability": "view",
      "type": "function"
    },
    {
      "constant": true,
      "inputs": [],
      "name": "isOwner",
      "outputs": [
        {
          "name": "",
          "type": "bool"
        }
      ],
      "payable": false,
      "stateMutability": "view",
      "type": "function"
    },
    {
      "constant": false,
      "inputs": [
        {
          "name": "newOwner",
          "type": "address"
        }
      ],
      "name": "transferOwnership",
      "outputs": [],
      "payable": false,
      "stateMutability": "nonpayable",
      "type": "function"
    },
    {
      "anonymous": false,
      "inputs": [
        {
          "indexed": false,
          "name": "_symbol",
          "type": "string"
        },
        {
          "indexed": true,
          "name": "_indexedSymbol",
          "type": "string"
        },
        {
          "indexed": true,
          "name": "_tokenAddress",
          "type": "address"
        },
        {
          "indexed": true,
          "name": "_shifterAddress",
          "type": "address"
        }
      ],
      "name": "LogShifterRegistered",
      "type": "event"
    },
    {
      "anonymous": false,
      "inputs": [
        {
          "indexed": false,
          "name": "_symbol",
          "type": "string"
        },
        {
          "indexed": true,
          "name": "_indexedSymbol",
          "type": "string"
        },
        {
          "indexed": true,
          "name": "_tokenAddress",
          "type": "address"
        },
        {
          "indexed": true,
          "name": "_shifterAddress",
          "type": "address"
        }
      ],
      "name": "LogShifterDeregistered",
      "type": "event"
    },
    {
      "anonymous": false,
      "inputs": [
        {
          "indexed": true,
          "name": "_tokenAddress",
          "type": "address"
        },
        {
          "indexed": true,
          "name": "_currentShifterAddress",
          "type": "address"
        },
        {
          "indexed": true,
          "name": "_newShifterAddress",
          "type": "address"
        }
      ],
      "name": "LogShifterUpdated",
      "type": "event"
    },
    {
      "constant": false,
      "inputs": [
        {
          "name": "previousOwner",
          "type": "address",
          "indexed": true
        },
        {
          "name": "newOwner",
          "type": "address",
          "indexed": true
        }
      ],
      "name": "OwnershipTransferred",
      "outputs": [],
      "payable": false,
      "stateMutability": "nonpayable",
      "type": "event",
      "anonymous": false
    },
    {
      "constant": false,
      "inputs": [
        {
          "name": "_tokenAddress",
          "type": "address"
        },
        {
          "name": "_shifterAddress",
          "type": "address"
        }
      ],
      "name": "setShifter",
      "outputs": [],
      "payable": false,
      "stateMutability": "nonpayable",
      "type": "function"
    },
    {
      "constant": false,
      "inputs": [
        {
          "name": "_tokenAddress",
          "type": "address"
        },
        {
          "name": "_newShifterAddress",
          "type": "address"
        }
      ],
      "name": "updateShifter",
      "outputs": [
        {
          "name": "",
          "type": "address[]"
        }
      ],
      "payable": false,
      "stateMutability": "nonpayable",
      "type": "function"
    },
    {
      "constant": false,
      "inputs": [
        {
          "name": "_symbol",
          "type": "string"
        },
        {
          "name": "_count",
          "type": "uint256"
        }
      ],
      "name": "removeShifter",
      "outputs": [
        {
          "name": "",
          "type": "address[]"
        }
      ],
      "payable": false,
      "stateMutability": "nonpayable",
      "type": "function"
    },
    {
      "constant": true,
      "inputs": [
        {
          "name": "_start",
          "type": "address"
        },
        {
          "name": "_count",
          "type": "uint256"
        }
      ],
      "name": "getShifters",
      "outputs": [
        {
          "name": "",
          "type": "address[]"
        }
      ],
      "payable": false,
      "stateMutability": "view",
      "type": "function"
    },
    {
      "constant": true,
      "inputs": [
        {
          "name": "_start",
          "type": "address"
        },
        {
          "name": "_count",
          "type": "uint256"
        }
      ],
      "name": "getShiftedTokens",
      "outputs": [
        {
          "name": "",
          "type": "address[]"
        }
      ],
      "payable": false,
      "stateMutability": "view",
      "type": "function"
    },
    {
      "constant": true,
      "inputs": [
        {
          "name": "_tokenAddress",
          "type": "address"
        }
      ],
      "name": "getShifterByToken",
      "outputs": [
        {
          "name": "",
          "type": "address"
        }
      ],
      "payable": false,
      "stateMutability": "view",
      "type": "function"
    },
    {
      "constant": true,
      "inputs": [
        {
          "name": "_tokenSymbol",
          "type": "string"
        }
      ],
      "name": "getShifterBySymbol",
      "outputs": [
        {
          "name": "",
          "type": "address"
        }
      ],
      "payable": false,
      "stateMutability": "view",
      "type": "function"
    },
    {
      "constant": true,
      "inputs": [
        {
          "name": "_tokenSymbol",
          "type": "string"
        }
      ],
      "name": "getTokenBySymbol",
      "outputs": [
        {
          "name": "",
          "type": "address"
        }
      ],
      "payable": false,
      "stateMutability": "view",
      "type": "function"
    }
  ],
  "bytecode": "0x6080604081905260006002819055600180546001600160a01b0319163317908190556001600160a01b0316917f8be0079c531659141344cd1fd0a4f28419497f9722a3daafe3b4186f6b6457e0908290a36112c68061005f6000396000f3fe608060405234801561001057600080fd5b50600436106100cf5760003560e01c8063a47c84bd1161008c578063be1bca1911610066578063be1bca19146102d2578063deeb2efe14610300578063efa74f1f1461032c578063f2fde38b1461039a576100cf565b8063a47c84bd146101ba578063a904d13d14610236578063ac5b1ba914610264576100cf565b806328c4f410146100d45780634e71e0c814610116578063715018a6146101205780638da5cb5b146101285780638f32d59b1461013057806392a29e301461014c575b600080fd5b6100fa600480360360208110156100ea57600080fd5b50356001600160a01b03166103c0565b604080516001600160a01b039092168252519081900360200190f35b61011e6103de565b005b61011e6104a5565b6100fa610539565b610138610548565b604080519115158252519081900360200190f35b6100fa6004803603602081101561016257600080fd5b810190602081018135600160201b81111561017c57600080fd5b82018360208201111561018e57600080fd5b803590602001918460018302840111600160201b831117156101af57600080fd5b509092509050610559565b6101e6600480360360408110156101d057600080fd5b506001600160a01b0381351690602001356105a9565b60408051602080825283518183015283519192839290830191858101910280838360005b8381101561022257818101518382015260200161020a565b505050509050019250505060405180910390f35b61011e6004803603604081101561024c57600080fd5b506001600160a01b0381358116916020013516610676565b61011e6004803603602081101561027a57600080fd5b810190602081018135600160201b81111561029457600080fd5b8201836020820111156102a657600080fd5b803590602001918460018302840111600160201b831117156102c757600080fd5b509092509050610ace565b61011e600480360360408110156102e857600080fd5b506001600160a01b0381358116916020013516610cca565b6101e66004803603604081101561031657600080fd5b506001600160a01b038135169060200135610df9565b6100fa6004803603602081101561034257600080fd5b810190602081018135600160201b81111561035c57600080fd5b82018360208201111561036e57600080fd5b803590602001918460018302840111600160201b8311171561038f57600080fd5b509092509050610ebb565b61011e600480360360208110156103b057600080fd5b50356001600160a01b0316610ef5565b6001600160a01b039081166000908152600560205260409020541690565b6000546001600160a01b031633146104405760408051600160e51b62461bcd02815260206004820152601f60248201527f63616c6c6572206973206e6f74207468652070656e64696e67206f776e657200604482015290519081900360640190fd5b600080546001546040516001600160a01b039283169392909116917f8be0079c531659141344cd1fd0a4f28419497f9722a3daafe3b4186f6b6457e091a360008054600180546001600160a01b03199081166001600160a01b03841617909155169055565b6104ad610548565b6104ef5760408051600160e51b62461bcd028152602060048201526017602482015260008051602061127b833981519152604482015290519081900360640190fd5b6001546040516000916001600160a01b0316907f8be0079c531659141344cd1fd0a4f28419497f9722a3daafe3b4186f6b6457e0908390a3600180546001600160a01b0319169055565b6001546001600160a01b031690565b6001546001600160a01b0316331490565b60006005600060068585604051808383808284379190910194855250506040805160209481900385019020546001600160a01b039081168652938501959095525050910160002054169392505050565b60606000826105bb57506002546105be565b50815b6060816040519080825280602002602001820160405280156105ea578160200160208202803883390190505b5090506000856001600160a01b03811661060b576106086004610f61565b90505b8382101561066b576001600160a01b0381166106265761066b565b8083838151811061063357fe5b60200260200101906001600160a01b031690816001600160a01b03168152505061065e600482610f80565b905060018201915061060b565b509095945050505050565b61067e610548565b6106c05760408051600160e51b62461bcd028152602060048201526017602482015260008051602061127b833981519152604482015290519081900360640190fd5b6106cb600382610ff5565b156107205760408051600160e51b62461bcd02815260206004820152601a60248201527f7368696674657220616c72656164792072656769737465726564000000000000604482015290519081900360640190fd5b6001600160a01b0382811660009081526005602052604090205416156107905760408051600160e51b62461bcd02815260206004820152601860248201527f746f6b656e20616c726561647920726567697374657265640000000000000000604482015290519081900360640190fd5b6060826001600160a01b03166395d89b416040518163ffffffff1660e01b815260040160006040518083038186803b1580156107cb57600080fd5b505afa1580156107df573d6000803e3d6000fd5b505050506040513d6000823e601f3d908101601f19168201604052602081101561080857600080fd5b810190808051600160201b81111561081f57600080fd5b8201602081018481111561083257600080fd5b8151600160201b81118282018710171561084b57600080fd5b5050929190505050905060006001600160a01b03166006826040518082805190602001908083835b602083106108925780518252601f199092019160209182019101610873565b51815160209384036101000a60001901801990921691161790529201948552506040519384900301909220546001600160a01b031692909214915061092390505760408051600160e51b62461bcd02815260206004820152601960248201527f73796d626f6c20616c7265616479207265676973746572656400000000000000604482015290519081900360640190fd5b61092e600383611014565b610939600484611014565b826006826040518082805190602001908083835b6020831061096c5780518252601f19909201916020918201910161094d565b51815160209384036101000a600019018019909216911617905292019485525060408051948590038201852080546001600160a01b03199081166001600160a01b0398891617909155898716600081815260058552929092208054909116968916968717905560028054600101905586519094879450925082918401908083835b60208310610a0c5780518252601f1990920191602091820191016109ed565b51815160209384036101000a60001901801990921691161790526040805192909401829003822081835289518383015289519096507fad1b5a1f09ea4cf872d9274b59cccba2c4fb43f92eaf5a54b705449417adce1e95508994929350839283019185019080838360005b83811015610a8f578181015183820152602001610a77565b50505050905090810190601f168015610abc5780820380516001836020036101000a031916815260200191505b509250505060405180910390a4505050565b610ad6610548565b610b185760408051600160e51b62461bcd028152602060048201526017602482015260008051602061127b833981519152604482015290519081900360640190fd5b6000600683836040518083838082843791909101948552505060405192839003602001909220546001600160a01b03169250505080610ba15760408051600160e51b62461bcd02815260206004820152601560248201527f73796d626f6c206e6f7420726567697374657265640000000000000000000000604482015290519081900360640190fd5b6001600160a01b0380821660009081526005602052604080822080546001600160a01b03198116909155905192169160069086908690808383808284379190910194855250506040519283900360200190922080546001600160a01b03949094166001600160a01b03199094169390931790925550610c23905060038261102b565b610c2e60048361102b565b600280546000190190556040516001600160a01b038083169190841690869086908083838082843760408051939091018390038320602080855284018c905295507f7fa2fe506a0201656c1d87a8927899ad716ebd71b23fdabce40b56ae2205696394508b93508a92915081908101848480828437600083820152604051601f909101601f19169092018290039550909350505050a450505050565b610cd2610548565b610d145760408051600160e51b62461bcd028152602060048201526017602482015260008051602061127b833981519152604482015290519081900360640190fd5b6001600160a01b038083166000908152600560205260409020541680610d845760408051600160e51b62461bcd02815260206004820152601460248201527f746f6b656e206e6f742072656769737465726564000000000000000000000000604482015290519081900360640190fd5b610d8f60038261102b565b610d9a600383611014565b6001600160a01b0383811660008181526005602052604080822080546001600160a01b03191687861690811790915590519093851692917f78ef5fc29fe65855a5352e3954d6839f596542b47b3aeb40b84596358d06f09a91a4505050565b6060600082610e0b5750600254610e0e565b50815b606081604051908082528060200260200182016040528015610e3a578160200160208202803883390190505b5090506000856001600160a01b038116610e5b57610e586003610f61565b90505b8382101561066b576001600160a01b038116610e765761066b565b80838381518110610e8357fe5b60200260200101906001600160a01b031690816001600160a01b031681525050610eae600382610f80565b9050600182019150610e5b565b6000600683836040518083838082843791909101948552505060405192839003602001909220546001600160a01b03169250505092915050565b610efd610548565b610f3f5760408051600160e51b62461bcd028152602060048201526017602482015260008051602061127b833981519152604482015290519081900360640190fd5b600080546001600160a01b0319166001600160a01b0392909216919091179055565b600080805260209190915260409020600101546001600160a01b031690565b6000610f8c8383610ff5565b610fd15760408051600160e51b62461bcd02815260206004820152600b6024820152600160aa1b6a1b9bdd081a5b881b1a5cdd02604482015290519081900360640190fd5b506001600160a01b0390811660009081526020929092526040909120600101541690565b6001600160a01b03166000908152602091909152604090205460ff1690565b611027826110218461110d565b8361112f565b5050565b6110358282610ff5565b61107a5760408051600160e51b62461bcd02815260206004820152600b6024820152600160aa1b6a1b9bdd081a5b881b1a5cdd02604482015290519081900360640190fd5b6001600160a01b03811661108d57611027565b6001600160a01b0390811660008181526020939093526040808420805460018083018054610100938490048816808a52868a209093018054919098166001600160a01b031991821681179098559688529387208054610100600160a81b031916919092021790559190935280546001600160a81b03191690558154169055565b60008080526020829052604090205461010090046001600160a01b0316919050565b6111398382610ff5565b1561118e5760408051600160e51b62461bcd02815260206004820152600f60248201527f616c726561647920696e206c6973740000000000000000000000000000000000604482015290519081900360640190fd5b6111988383610ff5565b806111aa57506001600160a01b038216155b6111ef5760408051600160e51b62461bcd02815260206004820152600b6024820152600160aa1b6a1b9bdd081a5b881b1a5cdd02604482015290519081900360640190fd5b6001600160a01b0391821660008181526020949094526040808520600190810180549486168088528388208054610100600160a81b03199081166101009788021782558185018054989099166001600160a01b031998891681179099558354909716821790925595875291862080549094169285029290921790925591909252815460ff191617905556fe63616c6c6572206973206e6f7420746865206f776e6572000000000000000000a165627a7a72305820506a1764ad4ad97bd59a174c7a90c4fccb082dad9a775e7ed4ef82d875bfcdf90029",
  "source": "pragma solidity ^0.5.8;\n\nimport \"../libraries/Claimable.sol\";\nimport \"./ERC20Shifted.sol\";\n\nimport \"../libraries/LinkedList.sol\";\n\n/// @notice ShifterRegistry is a mapping from assets to their associated\n/// ERC20Shifted and Shifter contracts.\ncontract ShifterRegistry is Claimable {\n\n    /// @dev The symbol is included twice because strings have to be hashed\n    /// first in order to be used as a log index/topic.\n    event LogShifterRegistered(string _symbol, string indexed _indexedSymbol, address indexed _tokenAddress, address indexed _shifterAddress);\n    event LogShifterDeregistered(string _symbol, string indexed _indexedSymbol, address indexed _tokenAddress, address indexed _shifterAddress);\n    event LogShifterUpdated(address indexed _tokenAddress, address indexed _currentShifterAddress, address indexed _newShifterAddress);\n\n    /// @notice The number of shifters registered\n    uint256 numShifters = 0;\n\n    /// @notice A list of shifter contracts\n    LinkedList.List private shifterList;\n\n    /// @notice A list of shifted token contracts\n    LinkedList.List private shiftedTokenList;\n\n    /// @notice A map of token addresses to canonical shifter addresses\n    mapping (address=>address) private shifterByToken;\n\n    /// @notice A map of token symbols to canonical shifter addresses\n    mapping (string=>address) private tokenBySymbol;\n\n    /// @notice Allow the owner to set the shifter address for a given\n    ///         ERC20Shifted token contract.\n    ///\n    /// @param _tokenAddress The address of the ERC20Shifted token contract.\n    /// @param _shifterAddress The address of the Shifter contract.\n    function setShifter(address _tokenAddress, address _shifterAddress) external onlyOwner {\n        // Check that token, shifter and symbol haven't already been registered\n        require(!LinkedList.isInList(shifterList, _shifterAddress), \"shifter already registered\");\n        require(shifterByToken[_tokenAddress] == address(0x0), \"token already registered\");\n        string memory symbol = ERC20Shifted(_tokenAddress).symbol();\n        require(tokenBySymbol[symbol] == address(0x0), \"symbol already registered\");\n\n        // Add to list of shifters\n        LinkedList.append(shifterList, _shifterAddress);\n        \n        // Add to list of shifted tokens\n        LinkedList.append(shiftedTokenList, _tokenAddress);\n\n        tokenBySymbol[symbol] = _tokenAddress;\n        shifterByToken[_tokenAddress] = _shifterAddress;\n        numShifters += 1;\n\n        emit LogShifterRegistered(symbol, symbol, _tokenAddress, _shifterAddress);\n    }\n\n    /// @notice Allow the owner to update the shifter address for a given\n    ///         ERC20Shifted token contract.\n    ///\n    /// @param _tokenAddress The address of the ERC20Shifted token contract.\n    /// @param _newShifterAddress The updated address of the Shifter contract.\n    function updateShifter(address _tokenAddress, address _newShifterAddress) external onlyOwner {\n        // Check that token, shifter are registered\n        address currentShifter = shifterByToken[_tokenAddress];\n        require(shifterByToken[_tokenAddress] != address(0x0), \"token not registered\");\n\n        // Remove to list of shifters\n        LinkedList.remove(shifterList, currentShifter);\n        \n        // Add to list of shifted tokens\n        LinkedList.append(shifterList, _newShifterAddress);\n\n        shifterByToken[_tokenAddress] = _newShifterAddress;\n\n        emit LogShifterUpdated(_tokenAddress, currentShifter, _newShifterAddress);\n    }\n\n    /// @notice Allows the owner to remove the shifter address for a given\n    ///         ERC20shifter token contract.\n    ///\n    /// @param _symbol The symbol of the token to deregister.\n    function removeShifter(string calldata _symbol) external onlyOwner {\n        // Look up token address\n        address tokenAddress = tokenBySymbol[_symbol];\n        require(tokenAddress != address(0x0), \"symbol not registered\");\n\n        // Look up shifter address\n        address shifterAddress = shifterByToken[tokenAddress];\n\n        // Remove token and shifter\n        shifterByToken[tokenAddress] = address(0x0);\n        tokenBySymbol[_symbol] = address(0x0);\n        LinkedList.remove(shifterList, shifterAddress);\n        LinkedList.remove(shiftedTokenList, tokenAddress);\n        numShifters -= 1;\n\n        emit LogShifterDeregistered(_symbol, _symbol, tokenAddress, shifterAddress);\n    }\n\n    /// @dev To get all the registered shifters use count = 0.\n    function getShifters(address _start, uint256 _count) external view returns (address[] memory) {\n        uint256 count;\n        if (_count == 0) {\n            count = numShifters;\n        } else {\n            count = _count;\n        }\n        \n        address[] memory shifters = new address[](count);\n\n        // Begin with the first node in the list\n        uint256 n = 0;\n        address next = _start;\n        if (next == address(0)) {\n            next = LinkedList.begin(shifterList);\n        }\n\n        while (n < count) {\n            if (next == address(0)) {\n                break;\n            }\n            shifters[n] = next;\n            next = LinkedList.next(shifterList, next);\n            n += 1;\n        }\n        return shifters;\n    }\n\n    /// @dev To get all the registered shifted tokens use count = 0.\n    function getShiftedTokens(address _start, uint256 _count) external view returns (address[] memory) {\n        uint256 count;\n        if (_count == 0) {\n            count = numShifters;\n        } else {\n            count = _count;\n        }\n\n        address[] memory shiftedTokens = new address[](count);\n\n        // Begin with the first node in the list\n        uint256 n = 0;\n        address next = _start;\n        if (next == address(0)) {\n            next = LinkedList.begin(shiftedTokenList);\n        }\n\n        while (n < count) {\n            if (next == address(0)) {\n                break;\n            }\n            shiftedTokens[n] = next;\n            next = LinkedList.next(shiftedTokenList, next);\n            n += 1;\n        }\n        return shiftedTokens;\n    }\n\n    /// @notice Returns the Shifter address for the given ERC20Shifted token\n    ///         contract address.\n    ///\n    /// @param _tokenAddress The address of the ERC20Shifted token contract.\n    function getShifterByToken(address _tokenAddress) external view returns (address) {\n        return shifterByToken[_tokenAddress];\n    }\n\n    /// @notice Returns the Shifter address for the given ERC20Shifted token\n    ///         symbol.\n    ///\n    /// @param _tokenSymbol The symbol of the ERC20Shifted token contract.\n    function getShifterBySymbol(string calldata _tokenSymbol) external view returns (address) {\n        return shifterByToken[tokenBySymbol[_tokenSymbol]];\n    }\n\n    /// @notice Returns the ERC20Shifted address for the given token symbol.\n    ///\n    /// @param _tokenSymbol The symbol of the ERC20Shifted token contract to\n    ///        lookup.\n    function getTokenBySymbol(string calldata _tokenSymbol) external view returns (address) {\n        return tokenBySymbol[_tokenSymbol];\n    }\n}",
  "sourcePath": "/home/noah/github/renproject/darknode-sol/contracts/Shifter/ShifterRegistry.sol",
  "compiler": {
    "name": "solc",
    "version": "0.5.8+commit.23d335f2.Emscripten.clang"
  },
  "schemaVersion": "3.0.9",
  "updatedAt": "2019-06-26T03:47:34.226Z",
  "devdoc": {
    "methods": {
      "claimOwnership()": {
        "details": "Allows the pendingOwner address to finalize the transfer."
      },
      "getShifterBySymbol(string)": {
        "params": {
          "_tokenSymbol": "The symbol of the ERC20Shifted token contract."
        }
      },
      "getShifterByToken(address)": {
        "params": {
          "_tokenAddress": "The address of the ERC20Shifted token contract."
        }
      },
      "getTokenBySymbol(string)": {
        "params": {
          "_tokenSymbol": "The symbol of the ERC20Shifted token contract to        lookup."
        }
      },
      "isOwner()": {
        "return": "true if `msg.sender` is the owner of the contract."
      },
      "owner()": {
        "return": "the address of the owner."
      },
      "removeShifter(string)": {
        "params": {
          "_symbol": "The symbol of the token to deregister."
        }
      },
      "renounceOwnership()": {
        "details": "Allows the current owner to relinquish control of the contract. It will not be possible to call the functions with the `onlyOwner` modifier anymore."
      },
      "setShifter(address,address)": {
        "params": {
          "_shifterAddress": "The address of the Shifter contract.",
          "_tokenAddress": "The address of the ERC20Shifted token contract."
        }
      },
      "transferOwnership(address)": {
        "details": "Allows the current owner to set the pendingOwner address.",
        "params": {
          "newOwner": "The address to transfer ownership to."
        }
      },
      "getShiftedTokens(address,uint256)": {
        "details": "To get all the registered shifted tokens use count = 0."
      },
      "getShifters(address,uint256)": {
        "details": "To get all the registered shifters use count = 0."
      },
      "updateShifter(address,address)": {
        "params": {
          "_newShifterAddress": "The updated address of the Shifter contract.",
          "_tokenAddress": "The address of the ERC20Shifted token contract."
        }
      }
    }
  },
  "userdoc": {
    "methods": {
      "getShifterBySymbol(string)": {
        "notice": "Returns the Shifter address for the given ERC20Shifted token         symbol. "
      },
      "getShifterByToken(address)": {
        "notice": "Returns the Shifter address for the given ERC20Shifted token         contract address. "
      },
      "getTokenBySymbol(string)": {
        "notice": "Returns the ERC20Shifted address for the given token symbol. "
      },
      "removeShifter(string)": {
        "notice": "Allows the owner to remove the shifter address for a given         ERC20shifter token contract. "
      },
      "renounceOwnership()": {
        "notice": "Renouncing ownership will leave the contract without an owner, thereby removing any functionality that is only available to the owner."
      },
      "setShifter(address,address)": {
        "notice": "Allow the owner to set the shifter address for a given         ERC20Shifted token contract. "
      },
      "updateShifter(address,address)": {
        "notice": "Allow the owner to update the shifter address for a given         ERC20Shifted token contract. "
      }
    },
    "notice": "ShifterRegistry is a mapping from assets to their associated ERC20Shifted and Shifter contracts."
  }
}