{
  "contractName": "BTCConfirmationlessShifter",
  "abi": [
    {
      "inputs": [
        {
          "internalType": "contract IShifterRegistry",
          "name": "_shifterRegistry",
          "type": "address"
        }
      ],
      "payable": false,
      "stateMutability": "nonpayable",
      "type": "constructor"
    },
    {
      "anonymous": false,
      "inputs": [
        {
          "indexed": true,
          "internalType": "address",
          "name": "_targetContract",
          "type": "address"
        },
        {
          "indexed": true,
          "internalType": "bytes32",
          "name": "_nHash",
          "type": "bytes32"
        },
        {
          "indexed": false,
          "internalType": "uint256",
          "name": "_confirmationFee",
          "type": "uint256"
        },
        {
          "indexed": false,
          "internalType": "uint256",
          "name": "_amount",
          "type": "uint256"
        },
        {
          "indexed": false,
          "internalType": "bool",
          "name": "withSignature",
          "type": "bool"
        }
      ],
      "name": "LogShiftInConfirmationless",
      "type": "event"
    },
    {
      "constant": false,
      "inputs": [
        {
          "internalType": "uint256",
          "name": "_confirmationFee",
          "type": "uint256"
        },
        {
          "internalType": "address",
          "name": "_targetContract",
          "type": "address"
        },
        {
          "internalType": "bytes",
          "name": "_targetCallBeforeNHash",
          "type": "bytes"
        },
        {
          "internalType": "bytes",
          "name": "_targetCallAfterNHash",
          "type": "bytes"
        },
        {
          "internalType": "uint256",
          "name": "_amount",
          "type": "uint256"
        },
        {
          "internalType": "bytes32",
          "name": "_nHash",
          "type": "bytes32"
        },
        {
          "internalType": "bytes",
          "name": "_sig",
          "type": "bytes"
        }
      ],
      "name": "composeShiftIn",
      "outputs": [],
      "payable": false,
      "stateMutability": "nonpayable",
      "type": "function"
    },
    {
      "constant": true,
      "inputs": [
        {
          "internalType": "bytes32",
          "name": "",
          "type": "bytes32"
        }
      ],
      "name": "nHashAmount",
      "outputs": [
        {
          "internalType": "uint256",
          "name": "",
          "type": "uint256"
        }
      ],
      "payable": false,
      "stateMutability": "view",
      "type": "function"
    },
    {
      "constant": true,
      "inputs": [
        {
          "internalType": "bytes32",
          "name": "",
          "type": "bytes32"
        }
      ],
      "name": "nHashShifted",
      "outputs": [
        {
          "internalType": "bool",
          "name": "",
          "type": "bool"
        }
      ],
      "payable": false,
      "stateMutability": "view",
      "type": "function"
    },
    {
      "constant": true,
      "inputs": [
        {
          "internalType": "uint256",
          "name": "_confirmationFee",
          "type": "uint256"
        },
        {
          "internalType": "uint256",
          "name": "_amount",
          "type": "uint256"
        },
        {
          "internalType": "bytes32",
          "name": "_nHash",
          "type": "bytes32"
        }
      ],
      "name": "nonceIdentifier",
      "outputs": [
        {
          "internalType": "bytes32",
          "name": "",
          "type": "bytes32"
        }
      ],
      "payable": false,
      "stateMutability": "pure",
      "type": "function"
    },
    {
      "constant": true,
      "inputs": [
        {
          "internalType": "bytes32",
          "name": "",
          "type": "bytes32"
        }
      ],
      "name": "provider",
      "outputs": [
        {
          "internalType": "address",
          "name": "",
          "type": "address"
        }
      ],
      "payable": false,
      "stateMutability": "view",
      "type": "function"
    },
    {
      "constant": false,
      "inputs": [
        {
          "internalType": "bytes32",
          "name": "",
          "type": "bytes32"
        },
        {
          "internalType": "uint256",
          "name": "",
          "type": "uint256"
        },
        {
          "internalType": "bytes32",
          "name": "_nHash",
          "type": "bytes32"
        },
        {
          "internalType": "bytes",
          "name": "",
          "type": "bytes"
        }
      ],
      "name": "shiftIn",
      "outputs": [
        {
          "internalType": "uint256",
          "name": "",
          "type": "uint256"
        }
      ],
      "payable": false,
      "stateMutability": "nonpayable",
      "type": "function"
    },
    {
      "constant": true,
      "inputs": [],
      "name": "shiftInFee",
      "outputs": [
        {
          "internalType": "uint256",
          "name": "",
          "type": "uint256"
        }
      ],
      "payable": false,
      "stateMutability": "view",
      "type": "function"
    },
    {
      "constant": true,
      "inputs": [],
      "name": "shifterRegistry",
      "outputs": [
        {
          "internalType": "contract IShifterRegistry",
          "name": "",
          "type": "address"
        }
      ],
      "payable": false,
      "stateMutability": "view",
      "type": "function"
    },
    {
      "constant": true,
      "inputs": [],
      "name": "tokenSymbol",
      "outputs": [
        {
          "internalType": "string",
          "name": "",
          "type": "string"
        }
      ],
      "payable": false,
      "stateMutability": "view",
      "type": "function"
    }
  ],
  "bytecode": "0x60806040523480156200001157600080fd5b50604051620019c8380380620019c8833981810160405260208110156200003757600080fd5b5051604080518082019091526004808252637a42544360e01b60208301908152600080546001600160a01b0319166001600160a01b03861617905583929183918391620000879160019162000093565b50505050505062000138565b828054600181600116156101000203166002900490600052602060002090601f016020900481019282601f10620000d657805160ff191683800117855562000106565b8280016001018555821562000106579182015b8281111562000106578251825591602001919060010190620000e9565b506200011492915062000118565b5090565b6200013591905b808211156200011457600081556001016200011f565b90565b61188080620001486000396000f3fe608060405234801561001057600080fd5b50600436106100935760003560e01c80637b61c320116100665780637b61c32014610302578063962d9e2e1461037f578063bb4a1d8c146103a8578063dfe03d321461045f578063e6a12ca91461046757610093565b80631eb34f90146100985780632fd71bb2146100c957806367b802a2146100f85780637472a05b14610131575b600080fd5b6100b5600480360360208110156100ae57600080fd5b503561046f565b604080519115158252519081900360200190f35b6100e6600480360360208110156100df57600080fd5b5035610484565b60408051918252519081900360200190f35b6101156004803603602081101561010e57600080fd5b5035610496565b604080516001600160a01b039092168252519081900360200190f35b610300600480360360e081101561014757600080fd5b8135916001600160a01b0360208201351691810190606081016040820135600160201b81111561017657600080fd5b82018360208201111561018857600080fd5b803590602001918460018302840111600160201b831117156101a957600080fd5b91908080601f0160208091040260200160405190810160405280939291908181526020018383808284376000920191909152509295949360208101935035915050600160201b8111156101fb57600080fd5b82018360208201111561020d57600080fd5b803590602001918460018302840111600160201b8311171561022e57600080fd5b91908080601f0160208091040260200160405190810160405280939291908181526020018383808284376000920191909152509295843595602086013595919450925060608101915060400135600160201b81111561028c57600080fd5b82018360208201111561029e57600080fd5b803590602001918460018302840111600160201b831117156102bf57600080fd5b91908080601f0160208091040260200160405190810160405280939291908181526020018383808284376000920191909152509295506104b1945050505050565b005b61030a611298565b6040805160208082528351818301528351919283929083019185019080838360005b8381101561034457818101518382015260200161032c565b50505050905090810190601f1680156103715780820380516001836020036101000a031916815260200191505b509250505060405180910390f35b6100e66004803603606081101561039557600080fd5b5080359060208101359060400135611325565b6100e6600480360360808110156103be57600080fd5b81359160208101359160408201359190810190608081016060820135600160201b8111156103eb57600080fd5b8201836020820111156103fd57600080fd5b803590602001918460018302840111600160201b8311171561041e57600080fd5b91908080601f01602080910402602001604051908101604052809392919081815260200183838082843760009201919091525092955061135c945050505050565b6100e66113d6565b610115611536565b60026020526000908152604090205460ff1681565b60036020526000908152604090205481565b6004602052600090815260409020546001600160a01b031681565b60006004816104c18a8787611325565b81526020810191909152604001600020546001600160a01b0316146109815760008787878760405160200180858152602001846001600160a01b03166001600160a01b031681526020018060200180602001838103835285818151815260200191508051906020019080838360005b83811015610548578181015183820152602001610530565b50505050905090810190601f1680156105755780820380516001836020036101000a031916815260200191505b50838103825284518152845160209182019186019080838360005b838110156105a8578181015183820152602001610590565b50505050905090810190601f1680156105d55780820380516001836020036101000a031916815260200191505b5060408051601f198184030181529082905280516020918201206000805463092a29e360e41b8552600485019384526001805460026000198284161561010002019091160460248701819052939d50919b506001600160a01b031699506392a29e309850965090945084935060449091019150849080156106975780601f1061066c57610100808354040283529160200191610697565b820191906000526020600020905b81548152906001019060200180831161067a57829003601f168201915b50509250505060206040518083038186803b1580156106b557600080fd5b505afa1580156106c9573d6000803e3d6000fd5b505050506040513d60208110156106df57600080fd5b5051604051632ed2876360e21b81526004810184815260248201889052604482018790526080606483019081528651608484015286516001600160a01b039094169363bb4a1d8c9387938b938b938b9360a40190602085019080838360005b8381101561075657818101518382015260200161073e565b50505050905090810190601f1680156107835780820380516001836020036101000a031916815260200191505b5095505050505050602060405180830381600087803b1580156107a557600080fd5b505af11580156107b9573d6000803e3d6000fd5b505050506040513d60208110156107cf57600080fd5b505160005460405163efa74f1f60e01b815260206004820190815260018054600260001982841615610100020190911604602484018190529495506001600160a01b039093169363efa74f1f93928291604490910190849080156108745780601f1061084957610100808354040283529160200191610874565b820191906000526020600020905b81548152906001019060200180831161085757829003601f168201915b50509250505060206040518083038186803b15801561089257600080fd5b505afa1580156108a6573d6000803e3d6000fd5b505050506040513d60208110156108bc57600080fd5b50516001600160a01b031663a9059cbb600460006108db8d8a8a611325565b815260200190815260200160002060009054906101000a90046001600160a01b0316836040518363ffffffff1660e01b815260040180836001600160a01b03166001600160a01b0316815260200182815260200192505050602060405180830381600087803b15801561094d57600080fd5b505af1158015610961573d6000803e3d6000fd5b505050506040513d602081101561097757600080fd5b5061128f92505050565b600082815260026020528151610cf0576000805460405163092a29e360e41b815260206004820190815260018054600260001982841615610100020190911604602484018190526001600160a01b03909416936392a29e3093919291829160449091019084908015610a345780601f10610a0957610100808354040283529160200191610a34565b820191906000526020600020905b815481529060010190602001808311610a1757829003601f168201915b50509250505060206040518083038186803b158015610a5257600080fd5b505afa158015610a66573d6000803e3d6000fd5b505050506040513d6020811015610a7c57600080fd5b505160408051636ff01e9960e11b815290516001600160a01b039092169163dfe03d3291600480820192602092909190829003018186803b158015610ac057600080fd5b505afa158015610ad4573d6000803e3d6000fd5b505050506040513d6020811015610aea57600080fd5b505190506000610b12612710610b06888563ffffffff61154516565b9063ffffffff6115a716565b9050610b3481610b28888d63ffffffff6115e916565b9063ffffffff6115e916565b60005460405163efa74f1f60e01b815260206004820190815260018054600260001982841615610100020190911604602484018190529497506001600160a01b039093169363efa74f1f9392829160449091019084908015610bd75780601f10610bac57610100808354040283529160200191610bd7565b820191906000526020600020905b815481529060010190602001808311610bba57829003601f168201915b50509250505060206040518083038186803b158015610bf557600080fd5b505afa158015610c09573d6000803e3d6000fd5b505050506040513d6020811015610c1f57600080fd5b5051604080516323b872dd60e01b81523360048201526001600160a01b038c8116602483015260448201879052915191909216916323b872dd9160648083019260209291908290030181600087803b158015610c7a57600080fd5b505af1158015610c8e573d6000803e3d6000fd5b505050506040513d6020811015610ca457600080fd5b5033905060046000610cb78d8a8a611325565b815260200190815260200160002060006101000a8154816001600160a01b0302191690836001600160a01b03160217905550505061114e565b60008888888860405160200180858152602001846001600160a01b03166001600160a01b031681526020018060200180602001838103835285818151815260200191508051906020019080838360005b83811015610d58578181015183820152602001610d40565b50505050905090810190601f168015610d855780820380516001836020036101000a031916815260200191505b50838103825284518152845160209182019186019080838360005b83811015610db8578181015183820152602001610da0565b50505050905090810190601f168015610de55780820380516001836020036101000a031916815260200191505b5060408051601f1981840301815290829052805160209182012060005463092a29e360e41b8452600484019283526001805460026000198284161561010002019091160460248601819052929c506001600160a01b039091169a506392a29e3099509750909550859450604490910192508591508015610ea65780601f10610e7b57610100808354040283529160200191610ea6565b820191906000526020600020905b815481529060010190602001808311610e8957829003601f168201915b50509250505060206040518083038186803b158015610ec457600080fd5b505afa158015610ed8573d6000803e3d6000fd5b505050506040513d6020811015610eee57600080fd5b5051604051632ed2876360e21b81526004810183815260248201889052604482018790526080606483019081528651608484015286516001600160a01b039094169363bb4a1d8c9386938b938b938b9360a40190602085019080838360005b83811015610f65578181015183820152602001610f4d565b50505050905090810190601f168015610f925780820380516001836020036101000a031916815260200191505b5095505050505050602060405180830381600087803b158015610fb457600080fd5b505af1158015610fc8573d6000803e3d6000fd5b505050506040513d6020811015610fde57600080fd5b505160005460405163efa74f1f60e01b815260206004820190815260018054600260001982841615610100020190911604602484018190529496506001600160a01b039093169363efa74f1f93928291604490910190849080156110835780601f1061105857610100808354040283529160200191611083565b820191906000526020600020905b81548152906001019060200180831161106657829003601f168201915b50509250505060206040518083038186803b1580156110a157600080fd5b505afa1580156110b5573d6000803e3d6000fd5b505050506040513d60208110156110cb57600080fd5b50516040805163a9059cbb60e01b81526001600160a01b038b81166004830152602482018690529151919092169163a9059cbb9160448083019260209291908290030181600087803b15801561112057600080fd5b505af1158015611134573d6000803e3d6000fd5b505050506040513d602081101561114a57600080fd5b5050505b8151604080518a815260208101879052911515828201525184916001600160a01b038a16917f1b30fdc189d3c3eb63b257ae525e247105d5c296a7c4ddf02ddf8297a593b5cf9181900360600190a36000838152600260209081526040808320805460ff19166001179055600382529182902083905590518751606092899287928a92918201918291908601908083835b602083106111fe5780518252601f1990920191602091820191016111df565b51815160209384036101000a60001901801990921691161790529201858152845190830192850191508083835b6020831061124a5780518252601f19909201916020918201910161122b565b6001836020036101000a0380198251168184511680821785525050505050509050019350505050604051602081830303815290604052905061128c888261162b565b50505b50505050505050565b60018054604080516020600284861615610100026000190190941693909304601f8101849004840282018401909252818152929183018282801561131d5780601f106112f25761010080835404028352916020019161131d565b820191906000526020600020905b81548152906001019060200180831161130057829003601f168201915b505050505081565b6040805160208082019590955280820193909352606080840192909252805180840390920182526080909201909152805191012090565b60008281526002602052604081205460ff166113bf576040805162461bcd60e51b815260206004820152601b60248201527f7368696674206861736e2774206265656e207375626d69747465640000000000604482015290519081900360640190fd5b505060009081526003602052604090205492915050565b6000805460405163092a29e360e41b815260206004820190815260018054600260001982841615610100020190911604602484018190526001600160a01b03909416936392a29e30939192918291604490910190849080156114795780601f1061144e57610100808354040283529160200191611479565b820191906000526020600020905b81548152906001019060200180831161145c57829003601f168201915b50509250505060206040518083038186803b15801561149757600080fd5b505afa1580156114ab573d6000803e3d6000fd5b505050506040513d60208110156114c157600080fd5b505160408051636ff01e9960e11b815290516001600160a01b039092169163dfe03d3291600480820192602092909190829003018186803b15801561150557600080fd5b505afa158015611519573d6000803e3d6000fd5b505050506040513d602081101561152f57600080fd5b5051905090565b6000546001600160a01b031681565b600082611554575060006115a1565b8282028284828161156157fe5b041461159e5760405162461bcd60e51b815260040180806020018281038252602181526020018061182b6021913960400191505060405180910390fd5b90505b92915050565b600061159e83836040518060400160405280601a81526020017f536166654d6174683a206469766973696f6e206279207a65726f00000000000081525061176b565b600061159e83836040518060400160405280601e81526020017f536166654d6174683a207375627472616374696f6e206f766572666c6f7700008152506117d0565b60006060836001600160a01b0316836040518082805190602001908083835b602083106116695780518252601f19909201916020918201910161164a565b6001836020036101000a0380198251168184511680821785525050505050509050019150506000604051808303816000865af19150503d80600081146116cb576040519150601f19603f3d011682016040523d82523d6000602084013e6116d0565b606091505b509150915081156116e2575050611767565b8060405162461bcd60e51b81526004018080602001828103825283818151815260200191508051906020019080838360005b8381101561172c578181015183820152602001611714565b50505050905090810190601f1680156117595780820380516001836020036101000a031916815260200191505b509250505060405180910390fd5b5050565b600081836117ba5760405162461bcd60e51b815260206004820181815283516024840152835190928392604490910191908501908083836000831561172c578181015183820152602001611714565b5060008385816117c657fe5b0495945050505050565b600081848411156118225760405162461bcd60e51b815260206004820181815283516024840152835190928392604490910191908501908083836000831561172c578181015183820152602001611714565b50505090039056fe536166654d6174683a206d756c7469706c69636174696f6e206f766572666c6f77a265627a7a723158207a17ae6e8a6bd7a8e01fed23ee55070ddd916e67503b34f97b7c92601c69d5b864736f6c63430005100032",
  "source": "pragma solidity 0.5.16;\n\nimport \"@openzeppelin/contracts/math/SafeMath.sol\";\n\nimport \"../IShifter.sol\";\nimport \"../IShifterRegistry.sol\";\nimport \"./ComposableShifter.sol\";\n\n/// @notice ConfirmationlessShifter is a wrapper around Shifter which allows\n/// anyone to provide shifted tokens for a contract call to speed up an asset\n/// being shifted in to Ethereum, in exchange for a fee.\n/// If no RenVM mint signature is provided, then the tokens are taken from the\n/// msg.sender. When the signature is eventually ready, the tokens are refunded\n/// to the original msg.sender.\n/// If the confirmationless provider lies about the amount or the fee, then they\n/// forfeit being refunded once the signature is available.\n/// In order to be compatible with the ConfirmationlessShifter, an adapter\n/// just needs to:\n///   1. accept a `IInShifter _shifter` as the first parameter to its\n/// shift-in function.\n///   2. be able to handle the same nHash twice (in case a malicious provider\n///      submits the wrong amount)\n///   3. Not validate the signature or the original `_amount` parameter\n///      - the amount should instead be returned from calling `shiftIn` on the\n///      shifter.\ncontract ConfirmationlessShifter is ComposableShifter {\n    using SafeMath for uint256;\n\n    constructor(IShifterRegistry _shifterRegistry, string memory _tokenSymbol)\n        public\n        ComposableShifter(_shifterRegistry, _tokenSymbol)\n    {}\n\n    event LogShiftInConfirmationless(\n        address indexed _targetContract,\n        bytes32 indexed _nHash,\n        uint256 _confirmationFee,\n        uint256 _amount,\n        bool withSignature\n    );\n\n    uint256 constant BIPS_DENOMINATOR = 10000;\n\n    mapping(bytes32 => address) public provider;\n\n    function nonceIdentifier(\n        uint256 _confirmationFee,\n        uint256 _amount,\n        bytes32 _nHash\n    ) public pure returns (bytes32) {\n        return keccak256(abi.encode(_confirmationFee, _amount, _nHash));\n    }\n\n    function composeShiftIn(\n        uint256 _confirmationFee,\n        address _targetContract,\n        bytes memory _targetCallBeforeNHash,\n        bytes memory _targetCallAfterNHash,\n        // Shifter parameters\n        uint256 _amount,\n        bytes32 _nHash,\n        bytes memory _sig\n    ) public {\n        // Refund confirmationless provider\n        if (\n            provider[nonceIdentifier(_confirmationFee, _amount, _nHash)] !=\n            address(0x0)\n        ) {\n            bytes32 payloadHash = keccak256(\n                abi.encode(\n                    _confirmationFee,\n                    _targetContract,\n                    _targetCallBeforeNHash,\n                    _targetCallAfterNHash\n                )\n            );\n\n            uint256 amount = shifterRegistry\n                .getShifterBySymbol(tokenSymbol)\n                .shiftIn(payloadHash, _amount, _nHash, _sig);\n\n            shifterRegistry.getTokenBySymbol(tokenSymbol).transfer(\n                provider[nonceIdentifier(_confirmationFee, _amount, _nHash)],\n                amount\n            );\n        } else {\n            uint256 amount;\n\n            if (nHashShifted[_nHash]) {\n                // TODO: Generate new nHash.\n            }\n\n            if (_sig.length == 0) {\n                // Call contract using confirmationless provider's allowance\n\n                uint256 shiftFee = shifterRegistry\n                    .getShifterBySymbol(tokenSymbol)\n                    .shiftInFee();\n\n                uint256 absoluteFee = _amount.mul(shiftFee).div(\n                    BIPS_DENOMINATOR\n                );\n\n                amount = _amount.sub(_confirmationFee).sub(absoluteFee);\n                shifterRegistry.getTokenBySymbol(tokenSymbol).transferFrom(\n                    msg.sender,\n                    _targetContract,\n                    amount\n                );\n                provider[nonceIdentifier(\n                    _confirmationFee,\n                    _amount,\n                    _nHash\n                )] = msg.sender;\n            } else {\n                // Shift in directly - no providers where involved.\n\n                bytes32 payloadHash = keccak256(\n                    abi.encode(\n                        _confirmationFee,\n                        _targetContract,\n                        _targetCallBeforeNHash,\n                        _targetCallAfterNHash\n                    )\n                );\n\n                amount = shifterRegistry\n                    .getShifterBySymbol(tokenSymbol)\n                    .shiftIn(payloadHash, _amount, _nHash, _sig);\n\n                shifterRegistry.getTokenBySymbol(tokenSymbol).transfer(\n                    _targetContract,\n                    amount\n                );\n            }\n\n            emit LogShiftInConfirmationless(\n                _targetContract,\n                _nHash,\n                _confirmationFee,\n                _amount,\n                _sig.length > 0\n            );\n\n            nHashShifted[_nHash] = true;\n            nHashAmount[_nHash] = amount;\n\n            bytes memory _targetCall = abi.encodePacked(\n                _targetCallBeforeNHash,\n                _nHash,\n                _targetCallAfterNHash\n            );\n\n            return forwardCallAndReturn(_targetContract, _targetCall);\n        }\n    }\n}\n\n/// @dev Used to track deployments in Truffle.\ncontract BTCConfirmationlessShifter is ConfirmationlessShifter {\n    constructor(IShifterRegistry _shifterRegistry)\n        public\n        ConfirmationlessShifter(_shifterRegistry, \"zBTC\")\n    {}\n}\n",
  "sourcePath": "/home/noah/github/renproject/darknode-sol/contracts/Shifter/adapters/ConfirmationlessShifter.sol",
  "compiler": {
    "name": "solc",
    "version": "0.5.16+commit.9c3226ce.Emscripten.clang"
  },
  "schemaVersion": "3.0.23",
  "updatedAt": "2020-02-24T01:44:00.911Z",
  "networkType": "ethereum",
  "devdoc": {
    "details": "Used to track deployments in Truffle.",
    "methods": {}
  },
  "userdoc": {
    "methods": {}
  }
}