{
  "contractName": "BTCShifter",
  "abi": [
    {
      "constant": false,
      "inputs": [
        {
          "name": "_nextMintAuthority",
          "type": "address"
        }
      ],
      "name": "updateMintAuthority",
      "outputs": [],
      "payable": false,
      "stateMutability": "nonpayable",
      "type": "function"
    },
    {
      "constant": false,
      "inputs": [],
      "name": "claimTokenOwnership",
      "outputs": [],
      "payable": false,
      "stateMutability": "nonpayable",
      "type": "function"
    },
    {
      "constant": true,
      "inputs": [
        {
          "name": "_signedMessageHash",
          "type": "bytes32"
        },
        {
          "name": "_sig",
          "type": "bytes"
        },
        {
          "name": "_nHash",
          "type": "bytes32"
        },
        {
          "name": "_sig",
          "type": "bytes"
        },
        {
          "name": "_pHash",
          "type": "bytes32"
        }
      ],
      "name": "feeRecipient",
      "outputs": [
        {
          "name": "",
          "type": "address"
        }
      ],
      "payable": false,
      "stateMutability": "view",
      "type": "function"
    },
    {
      "constant": true,
      "inputs": [
        {
          "name": "_to",
          "type": "address"
        },
        {
          "name": "_amount",
          "type": "uint256"
        },
        {
          "name": "_nHash",
          "type": "bytes32"
        },
        {
          "name": "_sig",
          "type": "bytes"
        },
        {
          "name": "_pHash",
          "type": "bytes32"
        }
      ],
      "name": "nextShifter",
      "outputs": [
        {
          "name": "",
          "type": "address"
        }
      ],
      "payable": false,
      "stateMutability": "view",
      "type": "function"
    },
    {
      "constant": true,
      "inputs": [
        {
          "name": "_pHash",
          "type": "bytes32"
        },
        {
          "name": "_amount",
          "type": "uint256"
        },
        {
          "name": "_to",
          "type": "address"
        },
        {
          "name": "_nHash",
          "type": "bytes32"
        }
      ],
      "name": "hashForSignature",
      "outputs": [
        {
          "name": "",
          "type": "bytes32"
        }
      ],
      "payable": false,
      "stateMutability": "view",
      "type": "function"
    },
    {
      "constant": true,
      "inputs": [
        {
          "name": "",
          "type": "bytes32"
        },
        {
          "name": "_nHash",
          "type": "bytes32"
        },
        {
          "name": "_sig",
          "type": "bytes"
        },
        {
          "name": "_pHash",
          "type": "bytes32"
        }
      ],
      "name": "status",
      "outputs": [
        {
          "name": "",
          "type": "bool"
        }
      ],
      "payable": false,
      "stateMutability": "view",
      "type": "function"
    },
    {
      "constant": false,
      "inputs": [
        {
          "name": "",
          "type": "bytes32"
        }
      ],
      "name": "renounceOwnership",
      "outputs": [
        {
          "name": "",
          "type": "address"
        }
      ],
      "payable": false,
      "stateMutability": "nonpayable",
      "type": "function"
    },
    {
      "constant": false,
      "inputs": [
        {
          "name": "_to",
          "type": "bytes"
        },
        {
          "name": "_amount",
          "type": "uint256"
        },
        {
          "name": "_nHash",
          "type": "bytes32"
        },
        {
          "name": "_pHash",
          "type": "bytes32"
        }
      ],
      "name": "shiftOut",
      "outputs": [
        {
          "name": "",
          "type": "uint256"
        }
      ],
      "payable": false,
      "stateMutability": "nonpayable",
      "type": "function"
    },
    {
      "constant": true,
      "inputs": [
        {
          "name": "_to",
          "type": "address"
        },
        {
          "name": "_amount",
          "type": "uint256"
        },
        {
          "name": "_nHash",
          "type": "bytes32"
        },
        {
          "name": "_pHash",
          "type": "bytes32"
        }
      ],
      "name": "owner",
      "outputs": [
        {
          "name": "",
          "type": "address"
        }
      ],
      "payable": false,
      "stateMutability": "view",
      "type": "function"
    },
    {
      "constant": true,
      "inputs": [
        {
          "name": "_to",
          "type": "bytes"
        },
        {
          "name": "_amount",
          "type": "uint256"
        }
      ],
      "name": "isOwner",
      "outputs": [
        {
          "name": "",
          "type": "bool"
        }
      ],
      "payable": false,
      "stateMutability": "view",
      "type": "function"
    },
    {
      "constant": true,
      "inputs": [
        {
          "name": "_to",
          "type": "bytes"
        },
        {
          "name": "_amount",
          "type": "uint256"
        }
      ],
      "name": "mintAuthority",
      "outputs": [
        {
          "name": "",
          "type": "address"
        }
      ],
      "payable": false,
      "stateMutability": "view",
      "type": "function"
    },
    {
      "constant": false,
      "inputs": [
        {
          "name": "_pHash",
          "type": "bytes32"
        },
        {
          "name": "_amount",
          "type": "uint256"
        },
        {
          "name": "_to",
          "type": "address"
        },
        {
          "name": "_nHash",
          "type": "bytes32"
        },
        {
          "name": "_sig",
          "type": "bytes"
        }
      ],
      "name": "forwardShiftIn",
      "outputs": [
        {
          "name": "",
          "type": "uint256"
        }
      ],
      "payable": false,
      "stateMutability": "nonpayable",
      "type": "function"
    },
    {
      "constant": true,
      "inputs": [],
      "name": "nextShiftID",
      "outputs": [
        {
          "name": "",
          "type": "uint256"
        }
      ],
      "payable": false,
      "stateMutability": "view",
      "type": "function"
    },
    {
      "constant": true,
      "inputs": [
        {
          "name": "",
          "type": "address"
        }
      ],
      "name": "authorizedWrapper",
      "outputs": [
        {
          "name": "",
          "type": "bool"
        }
      ],
      "payable": false,
      "stateMutability": "view",
      "type": "function"
    },
    {
      "constant": false,
      "inputs": [
        {
          "name": "_pHash",
          "type": "bytes32"
        },
        {
          "name": "_amount",
          "type": "uint256"
        },
        {
          "name": "_nHash",
          "type": "bytes32"
        },
        {
          "name": "_sig",
          "type": "bytes"
        }
      ],
      "name": "shiftIn",
      "outputs": [
        {
          "name": "",
          "type": "uint256"
        }
      ],
      "payable": false,
      "stateMutability": "nonpayable",
      "type": "function"
    },
    {
      "constant": true,
      "inputs": [
        {
          "name": "_signedMessageHash",
          "type": "bytes32"
        },
        {
          "name": "_sig",
          "type": "bytes"
        }
      ],
      "name": "verifySignature",
      "outputs": [
        {
          "name": "",
          "type": "bool"
        }
      ],
      "payable": false,
      "stateMutability": "view",
      "type": "function"
    },
    {
      "constant": true,
      "inputs": [
        {
          "name": "_signedMessageHash",
          "type": "bytes32"
        },
        {
          "name": "_sig",
          "type": "bytes"
        }
      ],
      "name": "fee",
      "outputs": [
        {
          "name": "",
          "type": "uint16"
        }
      ],
      "payable": false,
      "stateMutability": "view",
      "type": "function"
    },
    {
      "constant": false,
      "inputs": [
        {
          "name": "_nextShifter",
          "type": "address"
        }
      ],
      "name": "upgradeShifter",
      "outputs": [
        {
          "name": "",
          "type": "uint16"
        }
      ],
      "payable": false,
      "stateMutability": "nonpayable",
      "type": "function"
    },
    {
      "constant": false,
      "inputs": [
        {
          "name": "_nextFeeRecipient",
          "type": "address"
        }
      ],
      "name": "updateFeeRecipient",
      "outputs": [],
      "payable": false,
      "stateMutability": "nonpayable",
      "type": "function"
    },
    {
      "constant": false,
      "inputs": [
        {
          "name": "newOwner",
          "type": "address"
        }
      ],
      "name": "transferOwnership",
      "outputs": [],
      "payable": false,
      "stateMutability": "nonpayable",
      "type": "function"
    },
    {
      "constant": false,
      "inputs": [
        {
          "name": "_from",
          "type": "address"
        },
        {
          "name": "_to",
          "type": "bytes"
        },
        {
          "name": "_amount",
          "type": "uint256"
        }
      ],
      "name": "forwardShiftOut",
      "outputs": [
        {
          "name": "",
          "type": "uint256"
        }
      ],
      "payable": false,
      "stateMutability": "nonpayable",
      "type": "function"
    },
    {
      "constant": true,
      "inputs": [
        {
          "name": "_from",
          "type": "address"
        },
        {
          "name": "_to",
          "type": "bytes"
        },
        {
          "name": "_amount",
          "type": "uint256"
        }
      ],
      "name": "token",
      "outputs": [
        {
          "name": "",
          "type": "address"
        }
      ],
      "payable": false,
      "stateMutability": "view",
      "type": "function"
    },
    {
      "inputs": [
        {
          "name": "_previousShifter",
          "type": "address"
        },
        {
          "name": "_token",
          "type": "address"
        },
        {
          "name": "_feeRecipient",
          "type": "address"
        },
        {
          "name": "_mintAuthority",
          "type": "address"
        },
        {
          "name": "_fee",
          "type": "uint16"
        }
      ],
      "payable": false,
      "stateMutability": "nonpayable",
      "type": "constructor",
      "constant": true,
      "name": "token",
      "outputs": [
        {
          "name": "",
          "type": "address"
        }
      ]
    },
    {
      "anonymous": false,
      "inputs": [
        {
          "indexed": true,
          "name": "_to",
          "type": "address"
        },
        {
          "indexed": false,
          "name": "_amount",
          "type": "uint256"
        },
        {
          "indexed": true,
          "name": "_shiftID",
          "type": "uint256"
        },
        {
          "name": "_mintAuthority",
          "type": "address"
        },
        {
          "name": "_fee",
          "type": "uint16"
        }
      ],
      "name": "LogShiftIn",
      "type": "event",
      "payable": false,
      "stateMutability": "nonpayable"
    },
    {
      "anonymous": false,
      "inputs": [
        {
          "indexed": false,
          "name": "_to",
          "type": "bytes"
        },
        {
          "indexed": false,
          "name": "_amount",
          "type": "uint256"
        },
        {
          "indexed": true,
          "name": "_shiftID",
          "type": "uint256"
        },
        {
          "indexed": true,
          "name": "_indexedTo",
          "type": "bytes"
        }
      ],
      "name": "LogShiftOut",
      "type": "event"
    },
    {
      "anonymous": false,
      "inputs": [
        {
          "indexed": true,
          "name": "previousOwner",
          "type": "address"
        },
        {
          "indexed": true,
          "name": "newOwner",
          "type": "address"
        },
        {
          "indexed": true,
          "name": "_shiftID",
          "type": "uint256"
        }
      ],
      "name": "OwnershipTransferred",
      "type": "event"
    },
    {
      "anonymous": false,
      "inputs": [
        {
          "indexed": true,
          "name": "previousOwner",
          "type": "address"
        },
        {
          "indexed": true,
          "name": "newOwner",
          "type": "address"
        }
      ],
      "name": "OwnershipTransferred",
      "type": "event"
    }
  ],
  "bytecode": "0x6080604052600060075534801561001557600080fd5b5060405160a080611a98833981018060405260a081101561003557600080fd5b50805160208201516040808401516060850151608090950151600080546001600160a01b03191633178082559351959694959294939192879287928792879287926001600160a01b0391909116917f8be0079c531659141344cd1fd0a4f28419497f9722a3daafe3b4186f6b6457e0908290a36001600160a01b039485166000908152600260205260409020805460ff19166001179055600380549486166001600160a01b03199586161790556004805492861692851692909217909155600580549290941661ffff9091167401000000000000000000000000000000000000000002600160a01b61ffff0219909216919091179091161790555050505050611955806101436000396000f3fe608060405234801561001057600080fd5b50600436106101425760003560e01c8063a760dc2c116100b8578063ddca3f431161007c578063ddca3f4314610539578063ef4b41b914610558578063f160d3691461057e578063f2fde38b146105a4578063fbc8d09e146105ca578063fc0c546a1461068057610142565b8063a760dc2c146102e4578063ab595e0c146103a9578063b7f24131146103b1578063bb4a1d8c146103d7578063daca6f781461048e57610142565b806352ad0d5e1161010a57806352ad0d5e146101ed578063715018a61461021e5780638723c377146102265780638da5cb5b146102cc5780638f32d59b146102d45780639340b21e146102dc57610142565b80630130a33b1461014757806310731a651461016f57806346904840146101775780634ebc490c1461019b5780635219a566146101a3575b600080fd5b61016d6004803603602081101561015d57600080fd5b50356001600160a01b0316610688565b005b61016d6106f4565b61017f61075e565b604080516001600160a01b039092168252519081900360200190f35b61017f61076d565b6101db600480360360808110156101b957600080fd5b508035906020810135906001600160a01b03604082013516906060013561077c565b60408051918252519081900360200190f35b61020a6004803603602081101561020357600080fd5b503561087e565b604080519115158252519081900360200190f35b61016d610893565b6101db6004803603604081101561023c57600080fd5b810190602081018135600160201b81111561025657600080fd5b82018360208201111561026857600080fd5b803590602001918460018302840111600160201b8311171561028957600080fd5b91908080601f0160208091040260200160405190810160405280939291908181526020018383808284376000920191909152509295505091359250610927915050565b61017f61093d565b61020a61094c565b61017f61095d565b6101db600480360360a08110156102fa57600080fd5b8135916020810135916001600160a01b036040830135169160608101359181019060a081016080820135600160201b81111561033557600080fd5b82018360208201111561034757600080fd5b803590602001918460018302840111600160201b8311171561036857600080fd5b91908080601f01602080910402602001604051908101604052809392919081815260200183838082843760009201919091525092955061096c945050505050565b6101db6109d6565b61020a600480360360208110156103c757600080fd5b50356001600160a01b03166109dc565b6101db600480360360808110156103ed57600080fd5b81359160208101359160408201359190810190608081016060820135600160201b81111561041a57600080fd5b82018360208201111561042c57600080fd5b803590602001918460018302840111600160201b8311171561044d57600080fd5b91908080601f0160208091040260200160405190810160405280939291908181526020018383808284376000920191909152509295506109f1945050505050565b61020a600480360360408110156104a457600080fd5b81359190810190604081016020820135600160201b8111156104c557600080fd5b8201836020820111156104d757600080fd5b803590602001918460018302840111600160201b831117156104f857600080fd5b91908080601f016020809104026020016040519081016040528093929190818152602001838380828437600092019190915250929550610a00945050505050565b610541610a24565b6040805161ffff9092168252519081900360200190f35b61016d6004803603602081101561056e57600080fd5b50356001600160a01b0316610a35565b61016d6004803603602081101561059457600080fd5b50356001600160a01b0316610c39565b61016d600480360360208110156105ba57600080fd5b50356001600160a01b0316610ca5565b6101db600480360360608110156105e057600080fd5b6001600160a01b038235169190810190604081016020820135600160201b81111561060a57600080fd5b82018360208201111561061c57600080fd5b803590602001918460018302840111600160201b8311171561063d57600080fd5b91908080601f0160208091040260200160405190810160405280939291908181526020018383808284376000920191909152509295505091359250610cf8915050565b61017f610d5e565b61069061094c565b6106d25760408051600160e51b62461bcd02815260206004820181905260248201526000805160206118b6833981519152604482015290519081900360640190fd5b600480546001600160a01b0319166001600160a01b0392909216919091179055565b600360009054906101000a90046001600160a01b03166001600160a01b0316634e71e0c86040518163ffffffff1660e01b8152600401600060405180830381600087803b15801561074457600080fd5b505af1158015610758573d6000803e3d6000fd5b50505050565b6005546001600160a01b031681565b6001546001600160a01b031681565b6001546000906001600160a01b0316156108285760015460408051600160e11b63290cd2b302815260048101889052602481018790526001600160a01b0386811660448301526064820186905291519190921691635219a566916084808301926020929190829003018186803b1580156107f557600080fd5b505afa158015610809573d6000803e3d6000fd5b505050506040513d602081101561081f57600080fd5b50519050610876565b506003546040805160208082018890528183018790526001600160a01b039384166060830152928516608082015260a08082018590528251808303909101815260c090910190915280519101205b949350505050565b60066020526000908152604090205460ff1681565b61089b61094c565b6108dd5760408051600160e51b62461bcd02815260206004820181905260248201526000805160206118b6833981519152604482015290519081900360640190fd5b600080546040516001600160a01b03909116907f8be0079c531659141344cd1fd0a4f28419497f9722a3daafe3b4186f6b6457e0908390a3600080546001600160a01b0319169055565b6000610934338484610d6d565b90505b92915050565b6000546001600160a01b031690565b6000546001600160a01b0316331490565b6004546001600160a01b031681565b3360009081526002602052604081205460ff166109bd57604051600160e51b62461bcd0281526004018080602001828103825260288152602001806117fb6028913960400191505060405180910390fd5b6109ca8686868686611113565b90505b95945050505050565b60075481565b60026020526000908152604090205460ff1681565b60006109cd8585338686611113565b6000610a0c838361149c565b6004546001600160a01b039182169116149392505050565b600554600160a01b900461ffff1681565b610a3d61094c565b610a7f5760408051600160e51b62461bcd02815260206004820181905260248201526000805160206118b6833981519152604482015290519081900360640190fd5b600180546001600160a01b0319166001600160a01b038316908117909155610b615760035460408051600160e01b638da5cb5b028152905130926001600160a01b031691638da5cb5b916004808301926020929190829003018186803b158015610ae857600080fd5b505afa158015610afc573d6000803e3d6000fd5b505050506040513d6020811015610b1257600080fd5b50516001600160a01b031614610b5c57604051600160e51b62461bcd0281526004018080602001828103825260318152602001806118f96031913960400191505060405180910390fd5b610c36565b60035460015460408051600160e01b63f2fde38b0281526001600160a01b0392831660048201529051919092169163f2fde38b91602480830192600092919082900301818387803b158015610bb557600080fd5b505af1158015610bc9573d6000803e3d6000fd5b50505050600160009054906101000a90046001600160a01b03166001600160a01b03166310731a656040518163ffffffff1660e01b8152600401600060405180830381600087803b158015610c1d57600080fd5b505af1158015610c31573d6000803e3d6000fd5b505050505b50565b610c4161094c565b610c835760408051600160e51b62461bcd02815260206004820181905260248201526000805160206118b6833981519152604482015290519081900360640190fd5b600580546001600160a01b0319166001600160a01b0392909216919091179055565b610cad61094c565b610cef5760408051600160e51b62461bcd02815260206004820181905260248201526000805160206118b6833981519152604482015290519081900360640190fd5b610c368161162e565b3360009081526002602052604081205460ff16610d4957604051600160e51b62461bcd02815260040180806020018281038252602881526020018061186d6028913960400191505060405180910390fd5b610d54848484610d6d565b90505b9392505050565b6003546001600160a01b031681565b6001546000906001600160a01b031615610e7e57600154604051600160e11b637de4684f0281526001600160a01b038681166004830190815260448301869052606060248401908152875160648501528751929094169363fbc8d09e9389938993899390929091608490910190602086019080838360005b83811015610dfd578181015183820152602001610de5565b50505050905090810190601f168015610e2a5780820380516001836020036101000a031916815260200191505b50945050505050602060405180830381600087803b158015610e4b57600080fd5b505af1158015610e5f573d6000803e3d6000fd5b505050506040513d6020811015610e7557600080fd5b50519050610d57565b8251610ed45760408051600160e51b62461bcd02815260206004820152601360248201527f746f206164647265737320697320656d70747900000000000000000000000000604482015290519081900360640190fd5b600554600090610f049061271090610ef8908690600160a01b900461ffff166116d1565b9063ffffffff61172d16565b60035460408051600160e21b632770a7eb0281526001600160a01b038981166004830152602482018890529151939450911691639dc29fac9160448082019260009290919082900301818387803b158015610f5e57600080fd5b505af1158015610f72573d6000803e3d6000fd5b505060035460055460408051600160e01b6340c10f190281526001600160a01b0392831660048201526024810187905290519190921693506340c10f199250604480830192600092919082900301818387803b158015610fd157600080fd5b505af1158015610fe5573d6000803e3d6000fd5b505050506000610ffe828561179a90919063ffffffff16565b9050846040518082805190602001908083835b602083106110305780518252601f199092019160209182019101611011565b6001836020036101000a03801982511681845116808217855250505050505090500191505060405180910390206007547f2275318eaeb892d338c6737eebf5f31747c1eab22b63ccbc00cd93d4e785c11687846040518080602001838152602001828103825284818151815260200191508051906020019080838360005b838110156110c65781810151838201526020016110ae565b50505050905090810190601f1680156110f35780820380516001836020036101000a031916815260200191505b50935050505060405180910390a360078054600101905595945050505050565b6001546000906001600160a01b03161561123357600154604051600160e21b6329d8370b02815260048101888152602482018890526001600160a01b0387811660448401526064830187905260a060848401908152865160a48501528651919094169363a760dc2c938b938b938b938b938b939260c490910190602085019080838360005b838110156111b0578181015183820152602001611198565b50505050905090810190601f1680156111dd5780820380516001836020036101000a031916815260200191505b509650505050505050602060405180830381600087803b15801561120057600080fd5b505af1158015611214573d6000803e3d6000fd5b505050506040513d602081101561122a57600080fd5b505190506109cd565b60006112418787878761077c565b60008181526006602052604090205490915060ff16156112ab5760408051600160e51b62461bcd02815260206004820152601860248201527f6e6f6e6365206861736820616c7265616479207370656e740000000000000000604482015290519081900360640190fd5b6112b58184610a00565b6113095760408051600160e51b62461bcd02815260206004820152601160248201527f696e76616c6964207369676e6174757265000000000000000000000000000000604482015290519081900360640190fd5b6000818152600660205260408120805460ff1916600117905560055461134a9061271090610ef8908a9061ffff600160a01b9091041663ffffffff6116d116565b9050600061135e888363ffffffff61179a16565b60035460408051600160e01b6340c10f190281526001600160a01b038b811660048301526024820185905291519394509116916340c10f199160448082019260009290919082900301818387803b1580156113b857600080fd5b505af11580156113cc573d6000803e3d6000fd5b505060035460055460408051600160e01b6340c10f190281526001600160a01b0392831660048201526024810188905290519190921693506340c10f199250604480830192600092919082900301818387803b15801561142b57600080fd5b505af115801561143f573d6000803e3d6000fd5b50505050600754876001600160a01b03167fd79c73d5d7701ff70ab30939dd980af7276ff21617d890ff2ce150f3b5ea3d94836040518082815260200191505060405180910390a360078054600101905598975050505050505050565b600081516041146114f75760408051600160e51b62461bcd02815260206004820152601d60248201527f7369676e61747572652773206c656e67746820697320696e76616c6964000000604482015290519081900360640190fd5b60208201516040830151606084015160001a7f7fffffffffffffffffffffffffffffff5d576e7357a4501ddfe92f46681b20a082111561156b57604051600160e51b62461bcd0281526004018080602001828103825260238152602001806118d66023913960400191505060405180910390fd5b8060ff16601b1415801561158357508060ff16601c14155b156115c257604051600160e51b62461bcd0281526004018080602001828103825260248152602001806118236024913960400191505060405180910390fd5b6040805160008152602080820180845289905260ff8416828401526060820186905260808201859052915160019260a0808401939192601f1981019281900390910190855afa158015611619573d6000803e3d6000fd5b5050604051601f190151979650505050505050565b6001600160a01b03811661167657604051600160e51b62461bcd0281526004018080602001828103825260268152602001806118476026913960400191505060405180910390fd5b600080546040516001600160a01b03808516939216917f8be0079c531659141344cd1fd0a4f28419497f9722a3daafe3b4186f6b6457e091a3600080546001600160a01b0319166001600160a01b0392909216919091179055565b6000826116e057506000610937565b828202828482816116ed57fe5b041461093457604051600160e51b62461bcd0281526004018080602001828103825260218152602001806118956021913960400191505060405180910390fd5b60008082116117865760408051600160e51b62461bcd02815260206004820152601a60248201527f536166654d6174683a206469766973696f6e206279207a65726f000000000000604482015290519081900360640190fd5b600082848161179157fe5b04949350505050565b6000828211156117f45760408051600160e51b62461bcd02815260206004820152601e60248201527f536166654d6174683a207375627472616374696f6e206f766572666c6f770000604482015290519081900360640190fd5b5090039056fe6e6f7420617574686f72697a656420746f206d696e74206f6e20626568616c66206f6620757365727369676e6174756572652773207620697320696e207468652077726f6e672072616e67654f776e61626c653a206e6577206f776e657220697320746865207a65726f20616464726573736e6f7420617574686f72697a656420746f206275726e206f6e20626568616c66206f662075736572536166654d6174683a206d756c7469706c69636174696f6e206f766572666c6f774f776e61626c653a2063616c6c6572206973206e6f7420746865206f776e65727369676e61747572652773207320697320696e207468652077726f6e672072616e676563616c6c6572206973206e6f7420746865206f776e6572206f6620746f6b656e20746f2072657365742075706772616465a165627a7a723058201d45b62025f00dd2148e715285e88ae72733f9c6ccba3f8d395f74e290f424ee0029",
  "source": "pragma solidity ^0.5.8;\n\nimport \"openzeppelin-solidity/contracts/math/SafeMath.sol\";\nimport \"openzeppelin-solidity/contracts/ownership/Ownable.sol\";\nimport \"openzeppelin-solidity/contracts/cryptography/ECDSA.sol\";\n\nimport \"./ERC20Shifted.sol\";\n\n/// @notice Shifter handles verifying mint and burn requests. A mintAuthority\n/// approves new assets to be minted by providing a digital signature. An owner\n/// of an asset can request for it to be burnt.\ncontract Shifter is Ownable {\n    using SafeMath for uint256;\n\n    /// @notice Shifter can be upgraded by setting a `nextShifter`.\n    /// This upgradability pattern is not as sophisticated as a DelegateProxy,\n    /// but is less error prone. It's downsides are higher gas fees when using\n    /// the old address, and every function needing to forward the call,\n    /// including storage getters.\n    address public nextShifter;\n\n    uint256 constant bipsDenominator = 10000;\n\n    /// @notice A set of contracts that can call burn on behalf of a user\n    mapping (address=>bool) public authorizedWrapper;\n\n    /// @notice Each Shifter token is tied to a specific shifted token.\n    ERC20Shifted public token;\n\n    /// @notice The mintAuthority is an address that can sign mint requests.\n    address public mintAuthority;\n\n    /// @notice When tokens a burnt, a portion of the tokens are forwarded to\n    /// a fee recipient.\n    address public feeRecipient;\n\n    /// @notice The burning fee in bips.\n    uint16 public fee;\n\n    /// @notice Each nHash can only be seen once.\n    mapping (bytes32=>bool) public status;\n\n    // LogShiftIn and LogShiftOut contain a unique `shiftID` that identifies\n    // the mint or burn event.\n    uint256 public nextShiftID = 0;\n    event LogShiftIn(address indexed _to, uint256 _amount, uint256 indexed _shiftID);\n    event LogShiftOut(bytes _to, uint256 _amount, uint256 indexed _shiftID, bytes indexed _indexedTo);\n\n    /// @param _previousShifter An optional contract that can burn and mint on\n    ///        behalf of users. This is required for the contract's\n    ///        upgradability.\n    /// @param _token The ERC20Shifted this Shifter is responsible for.\n    /// @param _feeRecipient The recipient of burning and minting fees.\n    /// @param _mintAuthority The address of the key that can sign mint\n    ///        requests.\n    /// @param _fee The amount subtracted each burn and mint request and\n    ///        forwarded to the feeRecipient. In BIPS.\n    constructor(address _previousShifter, ERC20Shifted _token, address _feeRecipient, address _mintAuthority, uint16 _fee) public {\n        authorizedWrapper[_previousShifter] = true;\n        token = _token;\n        mintAuthority = _mintAuthority;\n        fee = _fee;\n        feeRecipient = _feeRecipient;\n    }\n\n    // Public functions ////////////////////////////////////////////////////////\n\n    /// @notice Claims ownership of the token passed in to the constructor.\n    ///         `transferStoreOwnership` must have previously been called.\n    ///         Anyone can call this function.\n    function claimTokenOwnership() public {\n        token.claimOwnership();\n    }\n\n    /// @notice Allow the mint authority to update the fee recipient.\n    ///\n    /// @param _nextMintAuthority The address to start paying fees to.\n    function updateMintAuthority(address _nextMintAuthority) public onlyOwner {\n        mintAuthority = _nextMintAuthority;\n    }\n\n    /// @notice Allow the mint authority to update the fee recipient.\n    ///\n    /// @param _nextFeeRecipient The address to start paying fees to.\n    function updateFeeRecipient(address _nextFeeRecipient) public onlyOwner {\n        feeRecipient = _nextFeeRecipient;\n    }\n\n    /// @notice Allows the mint authority to initiate an ownership transfer of\n    ///         the token.\n    ///\n    /// @param _nextShifter The address to transfer the ownership to, or 0x0.\n    function upgradeShifter(address _nextShifter) public onlyOwner {\n        nextShifter = _nextShifter;\n\n        if (_nextShifter == address(0x0)) {\n            require(token.owner() == address(this), \"caller is not the owner of token to reset upgrade\");\n        } else {\n            token.transferOwnership(address(nextShifter));\n            Shifter(nextShifter).claimTokenOwnership();\n        }\n    }\n\n    /// @notice shiftIn mints tokens after taking a fee for the `_feeRecipient`.\n    ///\n    /// @param _pHash (payload hash) The hash of the payload associated with the\n    ///        shift.\n    /// @param _amount The amount of the token being shifted int, in its\n    ///        smallest value. (e.g. satoshis for BTC)\n    /// @param _nHash (nonce hash) The hash of the nonce, amount and pHash.\n    /// @param _sig The signature of the hash of the following values:\n    ///        (pHash, amount, msg.sender, nHash), signed by the mintAuthority.\n    function shiftIn(bytes32 _pHash, uint256 _amount, bytes32 _nHash, bytes memory _sig) public returns (uint256) {\n        // Use msg.sender as the _to address\n        return _shiftIn(_pHash, _amount, msg.sender, _nHash, _sig);\n    }\n\n    /// @notice Callable by the previous Shifter if it has been upgraded.\n    function forwardShiftIn(bytes32 _pHash, uint256 _amount, address _to, bytes32 _nHash, bytes memory _sig) public returns (uint256) {\n        require(authorizedWrapper[msg.sender], \"not authorized to mint on behalf of user\");\n        return _shiftIn(_pHash, _amount, _to, _nHash, _sig);\n    }\n\n    /// @notice shiftOut burns tokens after taking a fee for the `_feeRecipient`.\n    ///\n    /// @param _to The address to receive the unshifted digital asset. The\n    ///        format of this address should be of the destination chain.\n    ///        For example, when shifting out to Bitcoin, _to should be a\n    ///        Bitcoin address.\n    /// @param _amount The amount of the token being shifted out, in its\n    ///        smallest value. (e.g. satoshis for BTC)\n    function shiftOut(bytes memory _to, uint256 _amount) public returns (uint256) {\n        return _shiftOut(msg.sender, _to, _amount);\n    }\n\n    /// @notice Callable by the previous Shifter if it has been upgraded.\n    function forwardShiftOut(address _from, bytes memory _to, uint256 _amount) public returns (uint256) {\n        require(authorizedWrapper[msg.sender], \"not authorized to burn on behalf of user\");\n        return _shiftOut(_from, _to, _amount);\n    }\n\n    /// @notice verifySignature checks the the provided signature matches the provided\n    /// parameters.\n    function verifySignature(bytes32 _signedMessageHash, bytes memory _sig) public view returns (bool) {\n        return mintAuthority == ECDSA.recover(_signedMessageHash, _sig);\n    }\n\n    /// @notice hashForSignature hashes the parameters so that they can be signed.\n    function hashForSignature(bytes32 _pHash, uint256 _amount, address _to, bytes32 _nHash) public view returns (bytes32) {\n        // Check if the contract has been upgraded and forward the call\n        if (nextShifter != address(0x0)) {\n            return Shifter(nextShifter).hashForSignature(_pHash, _amount, _to, _nHash);\n        }\n\n        return keccak256(abi.encode(_pHash, _amount, address(token), _to, _nHash));\n    }\n\n    // Internal functions //////////////////////////////////////////////////////\n\n    /// @notice _shiftIn mints new tokens after verifying the signature and\n    /// transfers the tokens to `_to`.\n    /// The `_to` parameter is set by `shiftIn` or `forwardShiftIn`.\n    function _shiftIn(bytes32 _pHash, uint256 _amount, address _to, bytes32 _nHash, bytes memory _sig) internal returns (uint256) {\n        // Check if the contract has been upgraded and forward the call\n        if (nextShifter != address(0x0)) {\n            return Shifter(nextShifter).forwardShiftIn(_pHash, _amount, _to, _nHash, _sig);\n        }\n\n        // Verify signature\n        bytes32 signedMessageHash = hashForSignature(_pHash, _amount, _to, _nHash);\n        require(status[signedMessageHash] == false, \"nonce hash already spent\");\n        require(verifySignature(signedMessageHash, _sig), \"invalid signature\");\n        status[signedMessageHash] = true;\n\n        // Mint `amount - fee` for the recipient and mint `fee` for the minter\n        uint256 absoluteFee = (_amount.mul(fee)).div(bipsDenominator);\n        uint256 receivedAmount = _amount.sub(absoluteFee);\n        token.mint(_to, receivedAmount);\n        token.mint(feeRecipient, absoluteFee);\n\n        // Emit a log with a unique shift ID\n        emit LogShiftIn(_to, receivedAmount, nextShiftID);\n        nextShiftID += 1;\n\n        return receivedAmount;\n    }\n\n    /// The `_from` parameter is set by `shiftOut` or `forwardShiftOut`.\n    function _shiftOut(address _from, bytes memory _to, uint256 _amount) internal returns (uint256) {\n        // Check if the contract has been upgraded and forward the call\n        if (nextShifter != address(0x0)) {\n            return Shifter(nextShifter).forwardShiftOut(_from, _to, _amount);\n        }\n\n        // The recipient must not be empty. Better validation is possible,\n        // but would need to be customized for each destination ledger.\n        require(_to.length != 0, \"to address is empty\");\n\n        // Burn full amount and mint fee\n        uint256 absoluteFee = (_amount.mul(fee)).div(bipsDenominator);\n        token.burn(_from, _amount);\n        token.mint(feeRecipient, absoluteFee);\n\n        // Emit a log with a unique shift ID\n        uint256 receivedValue = _amount.sub(absoluteFee);\n        emit LogShiftOut(_to, receivedValue, nextShiftID, _to);\n        nextShiftID += 1;\n\n        return receivedValue;\n    }\n}\n\n/// @dev The following are not necessary for deploying BTCShifter or ZECShifter\n/// contracts, but are used to track deployments.\n\n/* solium-disable no-empty-blocks */\ncontract BTCShifter is Shifter {\n    constructor(address _previousShifter, ERC20Shifted _token, address _feeRecipient, address _mintAuthority, uint16 _fee)\n        Shifter(_previousShifter, _token, _feeRecipient, _mintAuthority, _fee) public {\n    }\n}\n\ncontract ZECShifter is Shifter {\n    constructor(address _previousShifter, ERC20Shifted _token, address _feeRecipient, address _mintAuthority, uint16 _fee)\n        Shifter(_previousShifter, _token, _feeRecipient, _mintAuthority, _fee) public {\n    }\n}",
  "sourcePath": "/home/noah/github/renproject/darknode-sol/contracts/Shifter/Shifter.sol",
  "compiler": {
    "name": "solc",
    "version": "0.5.8+commit.23d335f2.Emscripten.clang"
  },
  "schemaVersion": "3.0.9",
  "updatedAt": "2019-06-24T07:12:25.029Z",
  "devdoc": {
    "details": "The following are not necessary for deploying BTCShifter or ZECShifter contracts, but are used to track deployments.",
    "methods": {
      "isOwner()": {
        "details": "Returns true if the caller is the current owner."
      },
      "owner()": {
        "details": "Returns the address of the current owner."
      },
      "renounceOwnership()": {
        "details": "Leaves the contract without owner. It will not be possible to call `onlyOwner` functions anymore. Can only be called by the current owner.     * > Note: Renouncing ownership will leave the contract without an owner, thereby removing any functionality that is only available to the owner."
      },
      "shiftIn(uint256,bytes32,bytes,bytes32)": {
        "params": {
          "_amount": "The amount of the token being shifted int, in its        smallest value. (e.g. satoshis for BTC)",
          "_nHash": "(nonce hash) The hash of the nonce, amount and pHash.",
          "_pHash": "(payload hash) The hash of the payload associated with the        shift.",
          "_sig": "The signature of the hash of the following values:        (msg.sender, amount, nHash, pHash), signed by the mintAuthority."
        }
      },
      "shiftOut(bytes,uint256)": {
        "params": {
          "_amount": "The amount of the token being shifted out, in its        smallest value. (e.g. satoshis for BTC)",
          "_to": "The address to receive the unshifted digital asset. The        format of this address should be of the destination chain.        For example, when shifting out to Bitcoin, _to should be a        Bitcoin address."
        }
      },
      "transferOwnership(address)": {
        "details": "Transfers ownership of the contract to a new account (`newOwner`). Can only be called by the current owner."
      },
      "updateFeeRecipient(address)": {
        "params": {
          "_nextFeeRecipient": "The address to start paying fees to."
        }
      },
      "updateMintAuthority(address)": {
        "params": {
          "_nextMintAuthority": "The address to start paying fees to."
        }
      },
      "upgradeShifter(address)": {
        "params": {
          "_nextShifter": "The address to transfer the ownership to, or 0x0."
        }
      },
      "shiftIn(bytes32,uint256,bytes32,bytes)": {
        "params": {
          "_amount": "The amount of the token being shifted int, in its        smallest value. (e.g. satoshis for BTC)",
          "_nHash": "(nonce hash) The hash of the nonce, amount and pHash.",
          "_pHash": "(payload hash) The hash of the payload associated with the        shift.",
          "_sig": "The signature of the hash of the following values:        (pHash, amount, msg.sender, nHash), signed by the mintAuthority."
        }
      }
    }
  },
  "userdoc": {
    "methods": {
      "claimTokenOwnership()": {
        "notice": "Claims ownership of the token passed in to the constructor.         `transferStoreOwnership` must have previously been called.         Anyone can call this function."
      },
      "forwardShiftIn(address,uint256,bytes32,bytes,bytes32)": {
        "notice": "Callable by the previous Shifter if it has been upgraded."
      },
      "forwardShiftOut(address,bytes,uint256)": {
        "notice": "Callable by the previous Shifter if it has been upgraded."
      },
      "hashForSignature(address,uint256,bytes32,bytes32)": {
        "notice": "hashForSignature hashes the parameters so that they can be signed."
      },
      "shiftIn(uint256,bytes32,bytes,bytes32)": {
        "notice": "shiftIn mints tokens after taking a fee for the `_feeRecipient`. "
      },
      "shiftOut(bytes,uint256)": {
        "notice": "shiftOut burns tokens after taking a fee for the `_feeRecipient`. "
      },
      "updateFeeRecipient(address)": {
        "notice": "Allow the mint authority to update the fee recipient. "
      },
      "updateMintAuthority(address)": {
        "notice": "Allow the mint authority to update the fee recipient. "
      },
      "upgradeShifter(address)": {
        "notice": "Allows the mint authority to initiate an ownership transfer of         the token. "
      },
      "verifySignature(bytes32,bytes)": {
        "notice": "verifySignature checks the the provided signature matches the provided parameters."
      },
      "forwardShiftIn(bytes32,uint256,address,bytes32,bytes)": {
        "notice": "Callable by the previous Shifter if it has been upgraded."
      },
      "hashForSignature(bytes32,uint256,address,bytes32)": {
        "notice": "hashForSignature hashes the parameters so that they can be signed."
      },
      "shiftIn(bytes32,uint256,bytes32,bytes)": {
        "notice": "shiftIn mints tokens after taking a fee for the `_feeRecipient`. "
      }
    }
  }
}