{
  "contractName": "BTCShifter",
  "abi": [
    {
      "constant": false,
      "inputs": [
        {
          "name": "_nextMintAuthority",
          "type": "address"
        }
      ],
      "name": "updateMintAuthority",
      "outputs": [],
      "payable": false,
      "stateMutability": "nonpayable",
      "type": "function"
    },
    {
      "constant": false,
      "inputs": [],
      "name": "claimTokenOwnership",
      "outputs": [],
      "payable": false,
      "stateMutability": "nonpayable",
      "type": "function"
    },
    {
      "constant": false,
      "inputs": [
        {
          "name": "_nextFee",
          "type": "uint16"
        },
        {
          "name": "_sig",
          "type": "bytes"
        },
        {
          "name": "_nHash",
          "type": "bytes32"
        },
        {
          "name": "_sig",
          "type": "bytes"
        },
        {
          "name": "_pHash",
          "type": "bytes32"
        }
      ],
      "name": "updateFee",
      "outputs": [
        {
          "name": "",
          "type": "address"
        }
      ],
      "payable": false,
      "stateMutability": "nonpayable",
      "type": "function"
    },
    {
      "constant": true,
      "inputs": [
        {
          "name": "_to",
          "type": "address"
        },
        {
          "name": "_amount",
          "type": "uint256"
        },
        {
          "name": "_nHash",
          "type": "bytes32"
        },
        {
          "name": "_sig",
          "type": "bytes"
        },
        {
          "name": "_pHash",
          "type": "bytes32"
        }
      ],
      "name": "feeRecipient",
      "outputs": [
        {
          "name": "",
          "type": "address"
        }
      ],
      "payable": false,
      "stateMutability": "view",
      "type": "function"
    },
    {
      "constant": true,
      "inputs": [
        {
          "name": "_pHash",
          "type": "bytes32"
        },
        {
          "name": "_amount",
          "type": "uint256"
        },
        {
          "name": "_to",
          "type": "address"
        },
        {
          "name": "_nHash",
          "type": "bytes32"
        }
      ],
      "name": "nextShifter",
      "outputs": [
        {
          "name": "",
          "type": "address"
        }
      ],
      "payable": false,
      "stateMutability": "view",
      "type": "function"
    },
    {
      "constant": true,
      "inputs": [
        {
          "name": "_pHash",
          "type": "bytes32"
        },
        {
          "name": "_amount",
          "type": "uint256"
        },
        {
          "name": "_to",
          "type": "address"
        },
        {
          "name": "_nHash",
          "type": "bytes32"
        }
      ],
      "name": "hashForSignature",
      "outputs": [
        {
          "name": "",
          "type": "bytes32"
        }
      ],
      "payable": false,
      "stateMutability": "view",
      "type": "function"
    },
    {
      "constant": true,
      "inputs": [
        {
          "name": "",
          "type": "bytes32"
        }
      ],
      "name": "status",
      "outputs": [
        {
          "name": "",
          "type": "bool"
        }
      ],
      "payable": false,
      "stateMutability": "view",
      "type": "function"
    },
    {
      "constant": true,
      "inputs": [
        {
          "name": "_to",
          "type": "bytes"
        },
        {
          "name": "_amount",
          "type": "uint256"
        },
        {
          "name": "_nHash",
          "type": "bytes32"
        },
        {
          "name": "_pHash",
          "type": "bytes32"
        }
      ],
      "name": "version",
      "outputs": [
        {
          "name": "",
          "type": "uint8"
        }
      ],
      "payable": false,
      "stateMutability": "view",
      "type": "function"
    },
    {
      "constant": false,
      "inputs": [
        {
          "name": "_to",
          "type": "address"
        },
        {
          "name": "_amount",
          "type": "uint256"
        },
        {
          "name": "_nHash",
          "type": "bytes32"
        },
        {
          "name": "_pHash",
          "type": "bytes32"
        }
      ],
      "name": "renounceOwnership",
      "outputs": [
        {
          "name": "",
          "type": "address"
        }
      ],
      "payable": false,
      "stateMutability": "nonpayable",
      "type": "function"
    },
    {
      "constant": false,
      "inputs": [
        {
          "name": "_to",
          "type": "bytes"
        },
        {
          "name": "_amount",
          "type": "uint256"
        }
      ],
      "name": "shiftOut",
      "outputs": [
        {
          "name": "",
          "type": "uint256"
        }
      ],
      "payable": false,
      "stateMutability": "nonpayable",
      "type": "function"
    },
    {
      "constant": true,
      "inputs": [
        {
          "name": "_to",
          "type": "bytes"
        },
        {
          "name": "_amount",
          "type": "uint256"
        }
      ],
      "name": "owner",
      "outputs": [
        {
          "name": "",
          "type": "address"
        }
      ],
      "payable": false,
      "stateMutability": "view",
      "type": "function"
    },
    {
      "constant": true,
      "inputs": [
        {
          "name": "_pHash",
          "type": "bytes32"
        },
        {
          "name": "_amount",
          "type": "uint256"
        },
        {
          "name": "_to",
          "type": "address"
        },
        {
          "name": "_nHash",
          "type": "bytes32"
        },
        {
          "name": "_sig",
          "type": "bytes"
        }
      ],
      "name": "isOwner",
      "outputs": [
        {
          "name": "",
          "type": "bool"
        }
      ],
      "payable": false,
      "stateMutability": "view",
      "type": "function"
    },
    {
      "constant": true,
      "inputs": [],
      "name": "mintAuthority",
      "outputs": [
        {
          "name": "",
          "type": "address"
        }
      ],
      "payable": false,
      "stateMutability": "view",
      "type": "function"
    },
    {
      "constant": false,
      "inputs": [
        {
          "name": "_pHash",
          "type": "bytes32"
        },
        {
          "name": "_amount",
          "type": "uint256"
        },
        {
          "name": "_to",
          "type": "address"
        },
        {
          "name": "_nHash",
          "type": "bytes32"
        },
        {
          "name": "_sig",
          "type": "bytes"
        }
      ],
      "name": "forwardShiftIn",
      "outputs": [
        {
          "name": "",
          "type": "uint256"
        }
      ],
      "payable": false,
      "stateMutability": "nonpayable",
      "type": "function"
    },
    {
      "constant": true,
      "inputs": [
        {
          "name": "_pHash",
          "type": "bytes32"
        },
        {
          "name": "_amount",
          "type": "uint256"
        },
        {
          "name": "_nHash",
          "type": "bytes32"
        },
        {
          "name": "_sig",
          "type": "bytes"
        }
      ],
      "name": "nextShiftID",
      "outputs": [
        {
          "name": "",
          "type": "uint256"
        }
      ],
      "payable": false,
      "stateMutability": "view",
      "type": "function"
    },
    {
      "constant": true,
      "inputs": [
        {
          "name": "",
          "type": "address"
        },
        {
          "name": "_sig",
          "type": "bytes"
        }
      ],
      "name": "authorizedWrapper",
      "outputs": [
        {
          "name": "",
          "type": "bool"
        }
      ],
      "payable": false,
      "stateMutability": "view",
      "type": "function"
    },
    {
      "constant": false,
      "inputs": [
        {
          "name": "_pHash",
          "type": "bytes32"
        },
        {
          "name": "_amount",
          "type": "uint256"
        },
        {
          "name": "_nHash",
          "type": "bytes32"
        },
        {
          "name": "_sig",
          "type": "bytes"
        }
      ],
      "name": "shiftIn",
      "outputs": [
        {
          "name": "",
          "type": "uint256"
        }
      ],
      "payable": false,
      "stateMutability": "nonpayable",
      "type": "function"
    },
    {
      "constant": true,
      "inputs": [
        {
          "name": "_signedMessageHash",
          "type": "bytes32"
        },
        {
          "name": "_sig",
          "type": "bytes"
        }
      ],
      "name": "verifySignature",
      "outputs": [
        {
          "name": "",
          "type": "bool"
        }
      ],
      "payable": false,
      "stateMutability": "view",
      "type": "function"
    },
    {
      "constant": true,
      "inputs": [
        {
          "name": "_nextFeeRecipient",
          "type": "address"
        }
      ],
      "name": "fee",
      "outputs": [
        {
          "name": "",
          "type": "uint16"
        }
      ],
      "payable": false,
      "stateMutability": "view",
      "type": "function"
    },
    {
      "constant": false,
      "inputs": [
        {
          "name": "_nextShifter",
          "type": "address"
        }
      ],
      "name": "upgradeShifter",
      "outputs": [],
      "payable": false,
      "stateMutability": "nonpayable",
      "type": "function"
    },
    {
      "constant": false,
      "inputs": [
        {
          "name": "_nextFeeRecipient",
          "type": "address"
        },
        {
          "name": "_to",
          "type": "bytes"
        },
        {
          "name": "_amount",
          "type": "uint256"
        }
      ],
      "name": "updateFeeRecipient",
      "outputs": [
        {
          "name": "",
          "type": "uint256"
        }
      ],
      "payable": false,
      "stateMutability": "nonpayable",
      "type": "function"
    },
    {
      "constant": false,
      "inputs": [
        {
          "name": "newOwner",
          "type": "address"
        },
        {
          "name": "_to",
          "type": "bytes"
        },
        {
          "name": "_amount",
          "type": "uint256"
        }
      ],
      "name": "transferOwnership",
      "outputs": [
        {
          "name": "",
          "type": "address"
        }
      ],
      "payable": false,
      "stateMutability": "nonpayable",
      "type": "function"
    },
    {
      "inputs": [
        {
          "name": "_from",
          "type": "address"
        },
        {
          "name": "_to",
          "type": "bytes"
        },
        {
          "name": "_amount",
          "type": "uint256"
        },
        {
          "name": "_mintAuthority",
          "type": "address"
        },
        {
          "name": "_fee",
          "type": "uint16"
        }
      ],
      "payable": false,
      "stateMutability": "nonpayable",
      "type": "function",
      "constant": false,
      "name": "forwardShiftOut",
      "outputs": [
        {
          "name": "",
          "type": "uint256"
        }
      ]
    },
    {
      "anonymous": false,
      "inputs": [
        {
          "indexed": true,
          "name": "_to",
          "type": "address"
        },
        {
          "indexed": false,
          "name": "_amount",
          "type": "uint256"
        },
        {
          "indexed": true,
          "name": "_shiftID",
          "type": "uint256"
        },
        {
          "name": "_mintAuthority",
          "type": "address"
        },
        {
          "name": "_fee",
          "type": "uint16"
        }
      ],
      "name": "token",
      "type": "function",
      "payable": false,
      "stateMutability": "view",
      "constant": true,
      "outputs": [
        {
          "name": "",
          "type": "address"
        }
      ]
    },
    {
      "anonymous": false,
      "inputs": [
        {
          "indexed": false,
          "name": "_previousShifter",
          "type": "address"
        },
        {
          "indexed": false,
          "name": "_token",
          "type": "address"
        },
        {
          "indexed": true,
          "name": "_feeRecipient",
          "type": "address"
        },
        {
          "indexed": true,
          "name": "_mintAuthority",
          "type": "address"
        },
        {
          "name": "_fee",
          "type": "uint16"
        }
      ],
      "name": "LogShiftOut",
      "type": "constructor",
      "payable": false,
      "stateMutability": "nonpayable"
    },
    {
      "anonymous": false,
      "inputs": [
        {
          "indexed": true,
          "name": "_to",
          "type": "address"
        },
        {
          "indexed": false,
          "name": "_amount",
          "type": "uint256"
        },
        {
          "indexed": true,
          "name": "_shiftID",
          "type": "uint256"
        }
      ],
      "name": "LogShiftIn",
      "type": "event"
    },
    {
      "anonymous": false,
      "inputs": [
        {
          "indexed": false,
          "name": "_to",
          "type": "bytes"
        },
        {
          "indexed": false,
          "name": "_amount",
          "type": "uint256"
        },
        {
          "indexed": true,
          "name": "_shiftID",
          "type": "uint256"
        },
        {
          "indexed": true,
          "name": "_indexedTo",
          "type": "bytes"
        }
      ],
      "name": "LogShiftOut",
      "type": "event"
    },
    {
      "anonymous": false,
      "inputs": [
        {
          "indexed": true,
          "name": "previousOwner",
          "type": "address"
        },
        {
          "indexed": true,
          "name": "newOwner",
          "type": "address"
        }
      ],
      "name": "OwnershipTransferred",
      "type": "event"
    }
  ],
  "bytecode": "0x608060405260008054600160a01b60ff021916740100000000000000000000000000000000000000001781556007553480156200003b57600080fd5b5060405160a08062002247833981018060405260a08110156200005d57600080fd5b50805160208201516040808401516060850151608090950151600080546001600160a01b03191633178082559351959694959294939192879287928792879287926001600160a01b0391909116917f8be0079c531659141344cd1fd0a4f28419497f9722a3daafe3b4186f6b6457e0908290a36001600160a01b0385811660009081526002602090815260409091208054600160ff19909116179055600380546001600160a01b031990811688851617909155600480549091169285169290921790915560058054600160a01b61ffff0219167401000000000000000000000000000000000000000061ffff8516021790556200016090849062000170811b901c565b5050505050505050505062000295565b620001806200028460201b60201c565b620001ec57604080517f08c379a000000000000000000000000000000000000000000000000000000000815260206004820181905260248201527f4f776e61626c653a2063616c6c6572206973206e6f7420746865206f776e6572604482015290519081900360640190fd5b6001600160a01b0381166200026257604080517f08c379a000000000000000000000000000000000000000000000000000000000815260206004820152601b60248201527f66656520726563697069656e742063616e6e6f74206265203078300000000000604482015290519081900360640190fd5b600580546001600160a01b0319166001600160a01b0392909216919091179055565b6000546001600160a01b0316331490565b611fa280620002a56000396000f3fe608060405234801561001057600080fd5b50600436106101585760003560e01c80639340b21e116100c3578063ddca3f431161007c578063ddca3f431461058e578063ef4b41b9146105ad578063f160d369146105d3578063f2fde38b146105f9578063fbc8d09e1461061f578063fc0c546a146106d557610158565b80639340b21e14610331578063a760dc2c14610339578063ab595e0c146103fe578063b7f2413114610406578063bb4a1d8c1461042c578063daca6f78146104e357610158565b806352ad0d5e1161011557806352ad0d5e1461022457806354fd4d5014610255578063715018a6146102735780638723c3771461027b5780638da5cb5b146103215780638f32d59b1461032957610158565b80630130a33b1461015d57806310731a65146101855780632c6cda931461018d57806346904840146101ae5780634ebc490c146101d25780635219a566146101da575b600080fd5b6101836004803603602081101561017357600080fd5b50356001600160a01b03166106dd565b005b610183610749565b610183600480360360208110156101a357600080fd5b503561ffff166107b3565b6101b6610830565b604080516001600160a01b039092168252519081900360200190f35b6101b661083f565b610212600480360360808110156101f057600080fd5b508035906020810135906001600160a01b03604082013516906060013561084e565b60408051918252519081900360200190f35b6102416004803603602081101561023a57600080fd5b5035610950565b604080519115158252519081900360200190f35b61025d610965565b6040805160ff9092168252519081900360200190f35b610183610975565b6102126004803603604081101561029157600080fd5b810190602081018135600160201b8111156102ab57600080fd5b8201836020820111156102bd57600080fd5b803590602001918460018302840111600160201b831117156102de57600080fd5b91908080601f0160208091040260200160405190810160405280939291908181526020018383808284376000920191909152509295505091359250610a09915050565b6101b6610a1f565b610241610a2e565b6101b6610a3f565b610212600480360360a081101561034f57600080fd5b8135916020810135916001600160a01b036040830135169160608101359181019060a081016080820135600160201b81111561038a57600080fd5b82018360208201111561039c57600080fd5b803590602001918460018302840111600160201b831117156103bd57600080fd5b91908080601f016020809104026020016040519081016040528093929190818152602001838380828437600092019190915250929550610a4e945050505050565b610212610ab8565b6102416004803603602081101561041c57600080fd5b50356001600160a01b0316610abe565b6102126004803603608081101561044257600080fd5b81359160208101359160408201359190810190608081016060820135600160201b81111561046f57600080fd5b82018360208201111561048157600080fd5b803590602001918460018302840111600160201b831117156104a257600080fd5b91908080601f016020809104026020016040519081016040528093929190818152602001838380828437600092019190915250929550610ad3945050505050565b610241600480360360408110156104f957600080fd5b81359190810190604081016020820135600160201b81111561051a57600080fd5b82018360208201111561052c57600080fd5b803590602001918460018302840111600160201b8311171561054d57600080fd5b91908080601f016020809104026020016040519081016040528093929190818152602001838380828437600092019190915250929550610ae2945050505050565b610596610b06565b6040805161ffff9092168252519081900360200190f35b610183600480360360208110156105c357600080fd5b50356001600160a01b0316610b17565b610183600480360360208110156105e957600080fd5b50356001600160a01b0316610d1b565b6101836004803603602081101561060f57600080fd5b50356001600160a01b0316610de5565b6102126004803603606081101561063557600080fd5b6001600160a01b038235169190810190604081016020820135600160201b81111561065f57600080fd5b82018360208201111561067157600080fd5b803590602001918460018302840111600160201b8311171561069257600080fd5b91908080601f0160208091040260200160405190810160405280939291908181526020018383808284376000920191909152509295505091359250610e38915050565b6101b6610e9e565b6106e5610a2e565b6107275760408051600160e51b62461bcd0281526020600482018190526024820152600080516020611f03833981519152604482015290519081900360640190fd5b600480546001600160a01b0319166001600160a01b0392909216919091179055565b600360009054906101000a90046001600160a01b03166001600160a01b0316634e71e0c86040518163ffffffff1660e01b8152600401600060405180830381600087803b15801561079957600080fd5b505af11580156107ad573d6000803e3d6000fd5b50505050565b6107bb610a2e565b6107fd5760408051600160e51b62461bcd0281526020600482018190526024820152600080516020611f03833981519152604482015290519081900360640190fd5b6005805461ffff909216600160a01b0275ffff000000000000000000000000000000000000000019909216919091179055565b6005546001600160a01b031681565b6001546001600160a01b031681565b6001546000906001600160a01b0316156108fa5760015460408051600160e11b63290cd2b302815260048101889052602481018790526001600160a01b0386811660448301526064820186905291519190921691635219a566916084808301926020929190829003018186803b1580156108c757600080fd5b505afa1580156108db573d6000803e3d6000fd5b505050506040513d60208110156108f157600080fd5b50519050610948565b506003546040805160208082018890528183018790526001600160a01b039384166060830152928516608082015260a08082018590528251808303909101815260c090910190915280519101205b949350505050565b60066020526000908152604090205460ff1681565b600054600160a01b900460ff1681565b61097d610a2e565b6109bf5760408051600160e51b62461bcd0281526020600482018190526024820152600080516020611f03833981519152604482015290519081900360640190fd5b600080546040516001600160a01b03909116907f8be0079c531659141344cd1fd0a4f28419497f9722a3daafe3b4186f6b6457e0908390a3600080546001600160a01b0319169055565b6000610a16338484610ead565b90505b92915050565b6000546001600160a01b031690565b6000546001600160a01b0316331490565b6004546001600160a01b031681565b3360009081526002602052604081205460ff16610a9f57604051600160e51b62461bcd028152600401808060200182810382526028815260200180611e486028913960400191505060405180910390fd5b610aac8686868686611253565b90505b95945050505050565b60075481565b60026020526000908152604090205460ff1681565b6000610aaf8585338686611253565b6000610aee8383611692565b6004546001600160a01b039182169116149392505050565b600554600160a01b900461ffff1681565b610b1f610a2e565b610b615760408051600160e51b62461bcd0281526020600482018190526024820152600080516020611f03833981519152604482015290519081900360640190fd5b600180546001600160a01b0319166001600160a01b038316908117909155610c435760035460408051600160e01b638da5cb5b028152905130926001600160a01b031691638da5cb5b916004808301926020929190829003018186803b158015610bca57600080fd5b505afa158015610bde573d6000803e3d6000fd5b505050506040513d6020811015610bf457600080fd5b50516001600160a01b031614610c3e57604051600160e51b62461bcd028152600401808060200182810382526031815260200180611f466031913960400191505060405180910390fd5b610d18565b60035460015460408051600160e01b63f2fde38b0281526001600160a01b0392831660048201529051919092169163f2fde38b91602480830192600092919082900301818387803b158015610c9757600080fd5b505af1158015610cab573d6000803e3d6000fd5b50505050600160009054906101000a90046001600160a01b03166001600160a01b03166310731a656040518163ffffffff1660e01b8152600401600060405180830381600087803b158015610cff57600080fd5b505af1158015610d13573d6000803e3d6000fd5b505050505b50565b610d23610a2e565b610d655760408051600160e51b62461bcd0281526020600482018190526024820152600080516020611f03833981519152604482015290519081900360640190fd5b6001600160a01b038116610dc35760408051600160e51b62461bcd02815260206004820152601b60248201527f66656520726563697069656e742063616e6e6f74206265203078300000000000604482015290519081900360640190fd5b600580546001600160a01b0319166001600160a01b0392909216919091179055565b610ded610a2e565b610e2f5760408051600160e51b62461bcd0281526020600482018190526024820152600080516020611f03833981519152604482015290519081900360640190fd5b610d1881611824565b3360009081526002602052604081205460ff16610e8957604051600160e51b62461bcd028152600401808060200182810382526028815260200180611eba6028913960400191505060405180910390fd5b610e94848484610ead565b90505b9392505050565b6003546001600160a01b031681565b6001546000906001600160a01b031615610fbe57600154604051600160e11b637de4684f0281526001600160a01b038681166004830190815260448301869052606060248401908152875160648501528751929094169363fbc8d09e9389938993899390929091608490910190602086019080838360005b83811015610f3d578181015183820152602001610f25565b50505050905090810190601f168015610f6a5780820380516001836020036101000a031916815260200191505b50945050505050602060405180830381600087803b158015610f8b57600080fd5b505af1158015610f9f573d6000803e3d6000fd5b505050506040513d6020811015610fb557600080fd5b50519050610e97565b82516110145760408051600160e51b62461bcd02815260206004820152601360248201527f746f206164647265737320697320656d70747900000000000000000000000000604482015290519081900360640190fd5b6005546000906110449061271090611038908690600160a01b900461ffff166118c7565b9063ffffffff61192316565b60035460408051600160e21b632770a7eb0281526001600160a01b038981166004830152602482018890529151939450911691639dc29fac9160448082019260009290919082900301818387803b15801561109e57600080fd5b505af11580156110b2573d6000803e3d6000fd5b505060035460055460408051600160e01b6340c10f190281526001600160a01b0392831660048201526024810187905290519190921693506340c10f199250604480830192600092919082900301818387803b15801561111157600080fd5b505af1158015611125573d6000803e3d6000fd5b50505050600061113e828561199090919063ffffffff16565b9050846040518082805190602001908083835b602083106111705780518252601f199092019160209182019101611151565b6001836020036101000a03801982511681845116808217855250505050505090500191505060405180910390206007547f2275318eaeb892d338c6737eebf5f31747c1eab22b63ccbc00cd93d4e785c11687846040518080602001838152602001828103825284818151815260200191508051906020019080838360005b838110156112065781810151838201526020016111ee565b50505050905090810190601f1680156112335780820380516001836020036101000a031916815260200191505b50935050505060405180910390a360078054600101905595945050505050565b6001546000906001600160a01b03161561137357600154604051600160e21b6329d8370b02815260048101888152602482018890526001600160a01b0387811660448401526064830187905260a060848401908152865160a48501528651919094169363a760dc2c938b938b938b938b938b939260c490910190602085019080838360005b838110156112f05781810151838201526020016112d8565b50505050905090810190601f16801561131d5780820380516001836020036101000a031916815260200191505b509650505050505050602060405180830381600087803b15801561134057600080fd5b505af1158015611354573d6000803e3d6000fd5b505050506040513d602081101561136a57600080fd5b50519050610aaf565b60006113818787878761084e565b60008181526006602052604090205490915060ff16156113eb5760408051600160e51b62461bcd02815260206004820152601860248201527f6e6f6e6365206861736820616c7265616479207370656e740000000000000000604482015290519081900360640190fd5b6113f58184610ae2565b6114ff576114786040518060400160405280601a81526020017f696e76616c6964207369676e6174757265202d20686173683a2000000000000081525061143b836119f0565b6040518060400160405280600a8152602001600160b51b690161039b4b3b732b91d10281525061147361146e8689611692565b611b71565b611cf6565b604051600160e51b62461bcd0281526004018080602001828103825283818151815260200191508051906020019080838360005b838110156114c45781810151838201526020016114ac565b50505050905090810190601f1680156114f15780820380516001836020036101000a031916815260200191505b509250505060405180910390fd5b6000818152600660205260408120805460ff191660011790556005546115409061271090611038908a9061ffff600160a01b9091041663ffffffff6118c716565b90506000611554888363ffffffff61199016565b60035460408051600160e01b6340c10f190281526001600160a01b038b811660048301526024820185905291519394509116916340c10f199160448082019260009290919082900301818387803b1580156115ae57600080fd5b505af11580156115c2573d6000803e3d6000fd5b505060035460055460408051600160e01b6340c10f190281526001600160a01b0392831660048201526024810188905290519190921693506340c10f199250604480830192600092919082900301818387803b15801561162157600080fd5b505af1158015611635573d6000803e3d6000fd5b50505050600754876001600160a01b03167fd79c73d5d7701ff70ab30939dd980af7276ff21617d890ff2ce150f3b5ea3d94836040518082815260200191505060405180910390a360078054600101905598975050505050505050565b600081516041146116ed5760408051600160e51b62461bcd02815260206004820152601d60248201527f7369676e61747572652773206c656e67746820697320696e76616c6964000000604482015290519081900360640190fd5b60208201516040830151606084015160001a7f7fffffffffffffffffffffffffffffff5d576e7357a4501ddfe92f46681b20a082111561176157604051600160e51b62461bcd028152600401808060200182810382526023815260200180611f236023913960400191505060405180910390fd5b8060ff16601b1415801561177957508060ff16601c14155b156117b857604051600160e51b62461bcd028152600401808060200182810382526024815260200180611e706024913960400191505060405180910390fd5b6040805160008152602080820180845289905260ff8416828401526060820186905260808201859052915160019260a0808401939192601f1981019281900390910190855afa15801561180f573d6000803e3d6000fd5b5050604051601f190151979650505050505050565b6001600160a01b03811661186c57604051600160e51b62461bcd028152600401808060200182810382526026815260200180611e946026913960400191505060405180910390fd5b600080546040516001600160a01b03808516939216917f8be0079c531659141344cd1fd0a4f28419497f9722a3daafe3b4186f6b6457e091a3600080546001600160a01b0319166001600160a01b0392909216919091179055565b6000826118d657506000610a19565b828202828482816118e357fe5b0414610a1657604051600160e51b62461bcd028152600401808060200182810382526021815260200180611ee26021913960400191505060405180910390fd5b600080821161197c5760408051600160e51b62461bcd02815260206004820152601a60248201527f536166654d6174683a206469766973696f6e206279207a65726f000000000000604482015290519081900360640190fd5b600082848161198757fe5b04949350505050565b6000828211156119ea5760408051600160e51b62461bcd02815260206004820152601e60248201527f536166654d6174683a207375627472616374696f6e206f766572666c6f770000604482015290519081900360640190fd5b50900390565b60408051808201825260108152600160811b6f181899199a1a9b1b9c1cb0b131b232b302602082015281516042808252608082019093526060928492918491602082018180388339019050509050600160fc1b60030281600081518110611a5357fe5b60200101906001600160f81b031916908160001a905350600160fb1b600f0281600181518110611a7f57fe5b60200101906001600160f81b031916908160001a90535060005b6020811015611b6857826004858360208110611ab157fe5b1a60f81b6001600160f81b031916901c60f81c60ff1681518110611ad157fe5b602001015160f81c60f81b828260020260020181518110611aee57fe5b60200101906001600160f81b031916908160001a90535082848260208110611b1257fe5b1a60f81b600f60f81b1660f81c60ff1681518110611b2c57fe5b602001015160f81c60f81b828260020260030181518110611b4957fe5b60200101906001600160f81b031916908160001a905350600101611a99565b50949350505050565b60408051808201825260108152600160811b6f181899199a1a9b1b9c1cb0b131b232b30260208201528151602a80825260608281019094526001600160a01b03851692918491602082018180388339019050509050600160fc1b60030281600081518110611bdb57fe5b60200101906001600160f81b031916908160001a905350600160fb1b600f0281600181518110611c0757fe5b60200101906001600160f81b031916908160001a90535060005b6014811015611b68578260048583600c0160208110611c3c57fe5b1a60f81b6001600160f81b031916901c60f81c60ff1681518110611c5c57fe5b602001015160f81c60f81b828260020260020181518110611c7957fe5b60200101906001600160f81b031916908160001a905350828482600c0160208110611ca057fe5b1a60f81b600f60f81b1660f81c60ff1681518110611cba57fe5b602001015160f81c60f81b828260020260030181518110611cd757fe5b60200101906001600160f81b031916908160001a905350600101611c21565b6060848484846040516020018085805190602001908083835b60208310611d2e5780518252601f199092019160209182019101611d0f565b51815160209384036101000a600019018019909216911617905287519190930192870191508083835b60208310611d765780518252601f199092019160209182019101611d57565b51815160209384036101000a600019018019909216911617905286519190930192860191508083835b60208310611dbe5780518252601f199092019160209182019101611d9f565b51815160209384036101000a600019018019909216911617905285519190930192850191508083835b60208310611e065780518252601f199092019160209182019101611de7565b6001836020036101000a038019825116818451168082178552505050505050905001945050505050604051602081830303815290604052905094935050505056fe6e6f7420617574686f72697a656420746f206d696e74206f6e20626568616c66206f6620757365727369676e6174756572652773207620697320696e207468652077726f6e672072616e67654f776e61626c653a206e6577206f776e657220697320746865207a65726f20616464726573736e6f7420617574686f72697a656420746f206275726e206f6e20626568616c66206f662075736572536166654d6174683a206d756c7469706c69636174696f6e206f766572666c6f774f776e61626c653a2063616c6c6572206973206e6f7420746865206f776e65727369676e61747572652773207320697320696e207468652077726f6e672072616e676563616c6c6572206973206e6f7420746865206f776e6572206f6620746f6b656e20746f2072657365742075706772616465a165627a7a7230582004fb5abeb0d0a6c1ae6c7ecd98756b7d5aef55d4867036936ed0d5a4cc631c050029",
  "source": "pragma solidity ^0.5.8;\n\nimport \"openzeppelin-solidity/contracts/math/SafeMath.sol\";\nimport \"openzeppelin-solidity/contracts/ownership/Ownable.sol\";\nimport \"openzeppelin-solidity/contracts/cryptography/ECDSA.sol\";\n\nimport \"../libraries/String.sol\";\nimport \"./ERC20Shifted.sol\";\n\n/// @notice Shifter handles verifying mint and burn requests. A mintAuthority\n/// approves new assets to be minted by providing a digital signature. An owner\n/// of an asset can request for it to be burnt.\ncontract Shifter is Ownable {\n    using SafeMath for uint256;\n\n    uint8 public version = 1;\n\n    /// @notice Shifter can be upgraded by setting a `nextShifter`.\n    /// This upgradability pattern is not as sophisticated as a DelegateProxy,\n    /// but is less error prone. It's downsides are higher gas fees when using\n    /// the old address, and every function needing to forward the call,\n    /// including storage getters.\n    address public nextShifter;\n\n    uint256 constant bipsDenominator = 10000;\n\n    /// @notice A set of contracts that can call burn on behalf of a user\n    mapping (address=>bool) public authorizedWrapper;\n\n    /// @notice Each Shifter token is tied to a specific shifted token.\n    ERC20Shifted public token;\n\n    /// @notice The mintAuthority is an address that can sign mint requests.\n    address public mintAuthority;\n\n    /// @dev feeRecipient is assumed to be an address (or a contract) that can \n    /// accept erc20 payments it cannot be 0x0.\n    /// @notice When tokens are mint or burnt, a portion of the tokens are \n    /// forwarded to a fee recipient.\n    address public feeRecipient;\n\n    /// @notice The minting and burning fee in bips.\n    uint16 public fee;\n\n    /// @notice Each nHash can only be seen once.\n    mapping (bytes32=>bool) public status;\n\n    // LogShiftIn and LogShiftOut contain a unique `shiftID` that identifies\n    // the mint or burn event.\n    uint256 public nextShiftID = 0;\n\n    event LogShiftIn(address indexed _to, uint256 _amount, uint256 indexed _shiftID);\n    event LogShiftOut(bytes _to, uint256 _amount, uint256 indexed _shiftID, bytes indexed _indexedTo);\n\n    /// @param _previousShifter An optional contract that can burn and mint on\n    ///        behalf of users. This is required for the contract's\n    ///        upgradability.\n    /// @param _token The ERC20Shifted this Shifter is responsible for.\n    /// @param _feeRecipient The recipient of burning and minting fees.\n    /// @param _mintAuthority The address of the key that can sign mint\n    ///        requests.\n    /// @param _fee The amount subtracted each burn and mint request and\n    ///        forwarded to the feeRecipient. In BIPS.\n    constructor(address _previousShifter, ERC20Shifted _token, address _feeRecipient, address _mintAuthority, uint16 _fee) public {\n        authorizedWrapper[_previousShifter] = true;\n        token = _token;\n        mintAuthority = _mintAuthority;\n        fee = _fee;\n        updateFeeRecipient(_feeRecipient);\n    }\n\n    // Public functions ////////////////////////////////////////////////////////\n\n    /// @notice Claims ownership of the token passed in to the constructor.\n    ///         `transferStoreOwnership` must have previously been called.\n    ///         Anyone can call this function.\n    function claimTokenOwnership() public {\n        token.claimOwnership();\n    }\n\n    /// @notice Allow the mint authority to update the fee recipient.\n    ///\n    /// @param _nextMintAuthority The address to start paying fees to.\n    function updateMintAuthority(address _nextMintAuthority) public onlyOwner {\n        mintAuthority = _nextMintAuthority;\n    }\n\n    /// @notice Allow the mint authority to update the fee recipient.\n    ///\n    /// @param _nextFeeRecipient The address to start paying fees to.\n    function updateFeeRecipient(address _nextFeeRecipient) public onlyOwner {\n        // ShiftIn and ShiftOut will fail if the feeRecipient is 0x0\n        require(_nextFeeRecipient != address(0x0), \"fee recipient cannot be 0x0\");\n\n        feeRecipient = _nextFeeRecipient;\n    }\n\n    /// @notice Allow the mint authority to update the fee.\n    ///\n    /// @param _nextFee The new fee for minting and burning.\n    function updateFee(uint16 _nextFee) public onlyOwner {\n        fee = _nextFee;\n    }\n\n    /// @notice Allows the mint authority to initiate an ownership transfer of\n    ///         the token.\n    ///\n    /// @param _nextShifter The address to transfer the ownership to, or 0x0.\n    function upgradeShifter(address _nextShifter) public onlyOwner {\n        nextShifter = _nextShifter;\n\n        if (_nextShifter == address(0x0)) {\n            require(token.owner() == address(this), \"caller is not the owner of token to reset upgrade\");\n        } else {\n            token.transferOwnership(address(nextShifter));\n            Shifter(nextShifter).claimTokenOwnership();\n        }\n    }\n\n    /// @notice shiftIn mints tokens after taking a fee for the `_feeRecipient`.\n    ///\n    /// @param _pHash (payload hash) The hash of the payload associated with the\n    ///        shift.\n    /// @param _amount The amount of the token being shifted int, in its\n    ///        smallest value. (e.g. satoshis for BTC)\n    /// @param _nHash (nonce hash) The hash of the nonce, amount and pHash.\n    /// @param _sig The signature of the hash of the following values:\n    ///        (pHash, amount, msg.sender, nHash), signed by the mintAuthority.\n    function shiftIn(bytes32 _pHash, uint256 _amount, bytes32 _nHash, bytes memory _sig) public returns (uint256) {\n        // Use msg.sender as the _to address\n        return _shiftIn(_pHash, _amount, msg.sender, _nHash, _sig);\n    }\n\n    /// @notice Callable by the previous Shifter if it has been upgraded.\n    function forwardShiftIn(bytes32 _pHash, uint256 _amount, address _to, bytes32 _nHash, bytes memory _sig) public returns (uint256) {\n        require(authorizedWrapper[msg.sender], \"not authorized to mint on behalf of user\");\n        return _shiftIn(_pHash, _amount, _to, _nHash, _sig);\n    }\n\n    /// @notice shiftOut burns tokens after taking a fee for the `_feeRecipient`.\n    ///\n    /// @param _to The address to receive the unshifted digital asset. The\n    ///        format of this address should be of the destination chain.\n    ///        For example, when shifting out to Bitcoin, _to should be a\n    ///        Bitcoin address.\n    /// @param _amount The amount of the token being shifted out, in its\n    ///        smallest value. (e.g. satoshis for BTC)\n    function shiftOut(bytes memory _to, uint256 _amount) public returns (uint256) {\n        return _shiftOut(msg.sender, _to, _amount);\n    }\n\n    /// @notice Callable by the previous Shifter if it has been upgraded.\n    function forwardShiftOut(address _from, bytes memory _to, uint256 _amount) public returns (uint256) {\n        require(authorizedWrapper[msg.sender], \"not authorized to burn on behalf of user\");\n        return _shiftOut(_from, _to, _amount);\n    }\n\n    /// @notice verifySignature checks the the provided signature matches the provided\n    /// parameters.\n    function verifySignature(bytes32 _signedMessageHash, bytes memory _sig) public view returns (bool) {\n        return mintAuthority == ECDSA.recover(_signedMessageHash, _sig);\n    }\n\n    /// @notice hashForSignature hashes the parameters so that they can be signed.\n    function hashForSignature(bytes32 _pHash, uint256 _amount, address _to, bytes32 _nHash) public view returns (bytes32) {\n        // Check if the contract has been upgraded and forward the call\n        if (nextShifter != address(0x0)) {\n            return Shifter(nextShifter).hashForSignature(_pHash, _amount, _to, _nHash);\n        }\n\n        return keccak256(abi.encode(_pHash, _amount, address(token), _to, _nHash));\n    }\n\n    // Internal functions //////////////////////////////////////////////////////\n\n    /// @notice _shiftIn mints new tokens after verifying the signature and\n    /// transfers the tokens to `_to`.\n    /// The `_to` parameter is set by `shiftIn` or `forwardShiftIn`.\n    function _shiftIn(bytes32 _pHash, uint256 _amount, address _to, bytes32 _nHash, bytes memory _sig) internal returns (uint256) {\n        // Check if the contract has been upgraded and forward the call\n        if (nextShifter != address(0x0)) {\n            return Shifter(nextShifter).forwardShiftIn(_pHash, _amount, _to, _nHash, _sig);\n        }\n\n        // Verify signature\n        bytes32 signedMessageHash = hashForSignature(_pHash, _amount, _to, _nHash);\n        require(status[signedMessageHash] == false, \"nonce hash already spent\");\n        if (!verifySignature(signedMessageHash, _sig)) {\n            // Return a detailed string containing the hash and recovered\n            // signer. This is a costly operation but is only run in the revert\n            // branch.\n            revert(\n                String.add4(\n                    \"invalid signature - hash: \",\n                    String.fromBytes32(signedMessageHash),\n                    \", signer: \",\n                    String.fromAddress(ECDSA.recover(signedMessageHash, _sig))\n                )\n            );\n        }\n        status[signedMessageHash] = true;\n\n        // Mint `amount - fee` for the recipient and mint `fee` for the minter\n        uint256 absoluteFee = (_amount.mul(fee)).div(bipsDenominator);\n        uint256 receivedAmount = _amount.sub(absoluteFee);\n        token.mint(_to, receivedAmount);\n        token.mint(feeRecipient, absoluteFee);\n\n        // Emit a log with a unique shift ID\n        emit LogShiftIn(_to, receivedAmount, nextShiftID);\n        nextShiftID += 1;\n\n        return receivedAmount;\n    }\n\n    /// The `_from` parameter is set by `shiftOut` or `forwardShiftOut`.\n    function _shiftOut(address _from, bytes memory _to, uint256 _amount) internal returns (uint256) {\n        // Check if the contract has been upgraded and forward the call\n        if (nextShifter != address(0x0)) {\n            return Shifter(nextShifter).forwardShiftOut(_from, _to, _amount);\n        }\n\n        // The recipient must not be empty. Better validation is possible,\n        // but would need to be customized for each destination ledger.\n        require(_to.length != 0, \"to address is empty\");\n\n        // Burn full amount and mint fee\n        uint256 absoluteFee = (_amount.mul(fee)).div(bipsDenominator);\n        token.burn(_from, _amount);\n        token.mint(feeRecipient, absoluteFee);\n\n        // Emit a log with a unique shift ID\n        uint256 receivedValue = _amount.sub(absoluteFee);\n        emit LogShiftOut(_to, receivedValue, nextShiftID, _to);\n        nextShiftID += 1;\n\n        return receivedValue;\n    }\n}\n\n/// @dev The following are not necessary for deploying BTCShifter or ZECShifter\n/// contracts, but are used to track deployments.\ncontract BTCShifter is Shifter {\n    constructor(address _previousShifter, ERC20Shifted _token, address _feeRecipient, address _mintAuthority, uint16 _fee)\n        Shifter(_previousShifter, _token, _feeRecipient, _mintAuthority, _fee) public {\n    }\n}\n\ncontract ZECShifter is Shifter {\n    constructor(address _previousShifter, ERC20Shifted _token, address _feeRecipient, address _mintAuthority, uint16 _fee)\n        Shifter(_previousShifter, _token, _feeRecipient, _mintAuthority, _fee) public {\n    }\n}",
  "sourcePath": "/home/noah/github/renproject/darknode-sol/contracts/Shifter/Shifter.sol",
  "compiler": {
    "name": "solc",
    "version": "0.5.8+commit.23d335f2.Emscripten.clang"
  },
  "schemaVersion": "3.0.9",
  "updatedAt": "2019-06-26T02:34:45.604Z",
  "devdoc": {
    "details": "The following are not necessary for deploying BTCShifter or ZECShifter contracts, but are used to track deployments.",
    "methods": {
      "isOwner()": {
        "details": "Returns true if the caller is the current owner."
      },
      "owner()": {
        "details": "Returns the address of the current owner."
      },
      "renounceOwnership()": {
        "details": "Leaves the contract without owner. It will not be possible to call `onlyOwner` functions anymore. Can only be called by the current owner.     * > Note: Renouncing ownership will leave the contract without an owner, thereby removing any functionality that is only available to the owner."
      },
      "shiftIn(uint256,bytes32,bytes,bytes32)": {
        "params": {
          "_amount": "The amount of the token being shifted int, in its        smallest value. (e.g. satoshis for BTC)",
          "_nHash": "(nonce hash) The hash of the nonce, amount and pHash.",
          "_pHash": "(payload hash) The hash of the payload associated with the        shift.",
          "_sig": "The signature of the hash of the following values:        (msg.sender, amount, nHash, pHash), signed by the mintAuthority."
        }
      },
      "shiftOut(bytes,uint256)": {
        "params": {
          "_amount": "The amount of the token being shifted out, in its        smallest value. (e.g. satoshis for BTC)",
          "_to": "The address to receive the unshifted digital asset. The        format of this address should be of the destination chain.        For example, when shifting out to Bitcoin, _to should be a        Bitcoin address."
        }
      },
      "transferOwnership(address)": {
        "details": "Transfers ownership of the contract to a new account (`newOwner`). Can only be called by the current owner."
      },
      "updateFeeRecipient(address)": {
        "params": {
          "_nextFeeRecipient": "The address to start paying fees to."
        }
      },
      "updateMintAuthority(address)": {
        "params": {
          "_nextMintAuthority": "The address to start paying fees to."
        }
      },
      "upgradeShifter(address)": {
        "params": {
          "_nextShifter": "The address to transfer the ownership to, or 0x0."
        }
      },
      "shiftIn(bytes32,uint256,bytes32,bytes)": {
        "params": {
          "_amount": "The amount of the token being shifted int, in its        smallest value. (e.g. satoshis for BTC)",
          "_nHash": "(nonce hash) The hash of the nonce, amount and pHash.",
          "_pHash": "(payload hash) The hash of the payload associated with the        shift.",
          "_sig": "The signature of the hash of the following values:        (pHash, amount, msg.sender, nHash), signed by the mintAuthority."
        }
      },
      "updateFee(uint16)": {
        "params": {
          "_nextFee": "The new fee for minting and burning."
        }
      }
    }
  },
  "userdoc": {
    "methods": {
      "claimTokenOwnership()": {
        "notice": "Claims ownership of the token passed in to the constructor.         `transferStoreOwnership` must have previously been called.         Anyone can call this function."
      },
      "forwardShiftIn(address,uint256,bytes32,bytes,bytes32)": {
        "notice": "Callable by the previous Shifter if it has been upgraded."
      },
      "forwardShiftOut(address,bytes,uint256)": {
        "notice": "Callable by the previous Shifter if it has been upgraded."
      },
      "hashForSignature(address,uint256,bytes32,bytes32)": {
        "notice": "hashForSignature hashes the parameters so that they can be signed."
      },
      "shiftIn(uint256,bytes32,bytes,bytes32)": {
        "notice": "shiftIn mints tokens after taking a fee for the `_feeRecipient`. "
      },
      "shiftOut(bytes,uint256)": {
        "notice": "shiftOut burns tokens after taking a fee for the `_feeRecipient`. "
      },
      "updateFeeRecipient(address)": {
        "notice": "Allow the mint authority to update the fee recipient. "
      },
      "updateMintAuthority(address)": {
        "notice": "Allow the mint authority to update the fee recipient. "
      },
      "upgradeShifter(address)": {
        "notice": "Allows the mint authority to initiate an ownership transfer of         the token. "
      },
      "verifySignature(bytes32,bytes)": {
        "notice": "verifySignature checks the the provided signature matches the provided parameters."
      },
      "forwardShiftIn(bytes32,uint256,address,bytes32,bytes)": {
        "notice": "Callable by the previous Shifter if it has been upgraded."
      },
      "hashForSignature(bytes32,uint256,address,bytes32)": {
        "notice": "hashForSignature hashes the parameters so that they can be signed."
      },
      "shiftIn(bytes32,uint256,bytes32,bytes)": {
        "notice": "shiftIn mints tokens after taking a fee for the `_feeRecipient`. "
      },
      "updateFee(uint16)": {
        "notice": "Allow the mint authority to update the fee. "
      }
    }
  }
}