{
  "contractName": "DarknodePaymentStore",
  "abi": [
    {
      "constant": true,
      "inputs": [
        {
          "name": "",
          "type": "address"
        }
      ],
      "name": "lockedBalances",
      "outputs": [
        {
          "name": "",
          "type": "uint256"
        }
      ],
      "payable": false,
      "stateMutability": "view",
      "type": "function"
    },
    {
      "constant": true,
      "inputs": [],
      "name": "darknodeWhitelistLength",
      "outputs": [
        {
          "name": "",
          "type": "uint256"
        }
      ],
      "payable": false,
      "stateMutability": "view",
      "type": "function"
    },
    {
      "constant": true,
      "inputs": [
        {
          "name": "",
          "type": "address"
        }
      ],
      "name": "darknodeBlacklist",
      "outputs": [
        {
          "name": "",
          "type": "uint256"
        }
      ],
      "payable": false,
      "stateMutability": "view",
      "type": "function"
    },
    {
      "constant": false,
      "inputs": [],
      "name": "claimOwnership",
      "outputs": [],
      "payable": false,
      "stateMutability": "nonpayable",
      "type": "function"
    },
    {
      "constant": true,
      "inputs": [
        {
          "name": "",
          "type": "address"
        },
        {
          "name": "",
          "type": "address"
        }
      ],
      "name": "darknodeBalances",
      "outputs": [
        {
          "name": "",
          "type": "uint256"
        }
      ],
      "payable": false,
      "stateMutability": "view",
      "type": "function"
    },
    {
      "constant": false,
      "inputs": [],
      "name": "renounceOwnership",
      "outputs": [],
      "payable": false,
      "stateMutability": "nonpayable",
      "type": "function"
    },
    {
      "constant": true,
      "inputs": [],
      "name": "owner",
      "outputs": [
        {
          "name": "",
          "type": "address"
        }
      ],
      "payable": false,
      "stateMutability": "view",
      "type": "function"
    },
    {
      "constant": true,
      "inputs": [],
      "name": "isOwner",
      "outputs": [
        {
          "name": "",
          "type": "bool"
        }
      ],
      "payable": false,
      "stateMutability": "view",
      "type": "function"
    },
    {
      "constant": true,
      "inputs": [
        {
          "name": "",
          "type": "address"
        }
      ],
      "name": "darknodeWhitelist",
      "outputs": [
        {
          "name": "",
          "type": "uint256"
        }
      ],
      "payable": false,
      "stateMutability": "view",
      "type": "function"
    },
    {
      "constant": false,
      "inputs": [
        {
          "name": "newOwner",
          "type": "address"
        }
      ],
      "name": "transferOwnership",
      "outputs": [],
      "payable": false,
      "stateMutability": "nonpayable",
      "type": "function"
    },
    {
      "constant": true,
      "inputs": [],
      "name": "ETHEREUM",
      "outputs": [
        {
          "name": "",
          "type": "address"
        }
      ],
      "payable": false,
      "stateMutability": "view",
      "type": "function"
    },
    {
      "constant": true,
      "inputs": [],
      "name": "VERSION",
      "outputs": [
        {
          "name": "",
          "type": "string"
        }
      ],
      "payable": false,
      "stateMutability": "view",
      "type": "function"
    },
    {
      "inputs": [
        {
          "name": "_VERSION",
          "type": "string"
        }
      ],
      "payable": false,
      "stateMutability": "nonpayable",
      "type": "constructor"
    },
    {
      "payable": true,
      "stateMutability": "payable",
      "type": "fallback"
    },
    {
      "anonymous": false,
      "inputs": [
        {
          "indexed": true,
          "name": "previousOwner",
          "type": "address"
        },
        {
          "indexed": true,
          "name": "newOwner",
          "type": "address"
        }
      ],
      "name": "OwnershipTransferred",
      "type": "event"
    },
    {
      "constant": true,
      "inputs": [
        {
          "name": "_darknode",
          "type": "address"
        }
      ],
      "name": "isBlacklisted",
      "outputs": [
        {
          "name": "",
          "type": "bool"
        }
      ],
      "payable": false,
      "stateMutability": "view",
      "type": "function"
    },
    {
      "constant": true,
      "inputs": [
        {
          "name": "_darknode",
          "type": "address"
        }
      ],
      "name": "isWhitelisted",
      "outputs": [
        {
          "name": "",
          "type": "bool"
        }
      ],
      "payable": false,
      "stateMutability": "view",
      "type": "function"
    },
    {
      "constant": true,
      "inputs": [
        {
          "name": "_token",
          "type": "address"
        }
      ],
      "name": "totalBalance",
      "outputs": [
        {
          "name": "",
          "type": "uint256"
        }
      ],
      "payable": false,
      "stateMutability": "view",
      "type": "function"
    },
    {
      "constant": true,
      "inputs": [
        {
          "name": "_token",
          "type": "address"
        }
      ],
      "name": "availableBalance",
      "outputs": [
        {
          "name": "",
          "type": "uint256"
        }
      ],
      "payable": false,
      "stateMutability": "view",
      "type": "function"
    },
    {
      "constant": false,
      "inputs": [
        {
          "name": "_darknode",
          "type": "address"
        }
      ],
      "name": "blacklist",
      "outputs": [],
      "payable": false,
      "stateMutability": "nonpayable",
      "type": "function"
    },
    {
      "constant": false,
      "inputs": [
        {
          "name": "_darknode",
          "type": "address"
        }
      ],
      "name": "whitelist",
      "outputs": [],
      "payable": false,
      "stateMutability": "nonpayable",
      "type": "function"
    },
    {
      "constant": false,
      "inputs": [
        {
          "name": "_darknode",
          "type": "address"
        },
        {
          "name": "_token",
          "type": "address"
        },
        {
          "name": "_amount",
          "type": "uint256"
        }
      ],
      "name": "incrementDarknodeBalance",
      "outputs": [],
      "payable": false,
      "stateMutability": "nonpayable",
      "type": "function"
    },
    {
      "constant": false,
      "inputs": [
        {
          "name": "_darknode",
          "type": "address"
        },
        {
          "name": "_token",
          "type": "address"
        },
        {
          "name": "_amount",
          "type": "uint256"
        },
        {
          "name": "_recipient",
          "type": "address"
        }
      ],
      "name": "transfer",
      "outputs": [],
      "payable": false,
      "stateMutability": "nonpayable",
      "type": "function"
    }
  ],
  "bytecode": "0x60806040523480156200001157600080fd5b50604051620013a7380380620013a7833981018060405260208110156200003757600080fd5b8101908080516401000000008111156200005057600080fd5b820160208101848111156200006457600080fd5b81516401000000008111828201871017156200007f57600080fd5b5050600180546001600160a01b0319163317908190556040519194506001600160a01b03169250600091507f8be0079c531659141344cd1fd0a4f28419497f9722a3daafe3b4186f6b6457e0908290a38051620000e4906002906020840190620000ec565b505062000191565b828054600181600116156101000203166002900490600052602060002090601f016020900481019282601f106200012f57805160ff19168380011785556200015f565b828001600101855582156200015f579182015b828111156200015f57825182559160200191906001019062000142565b506200016d92915062000171565b5090565b6200018e91905b808211156200016d576000815560010162000178565b90565b61120680620001a16000396000f3fe60806040526004361061011f5760003560e01c80639a4d6f3b116100a0578063f7cdf47c11610064578063f7cdf47c146103e2578063f9ce7813146103f7578063f9f92be414610440578063fe575a8714610473578063ffa1ad74146104a65761011f565b80639a4d6f3b146102d35780639b19251a14610306578063a0821be314610339578063d23b90a51461036c578063f2fde38b146103af5761011f565b80636eacd398116100e75780636eacd3981461020a57806370324b771461023d578063715018a6146102785780638da5cb5b1461028d5780638f32d59b146102be5761011f565b80630483a7f6146101215780631fc6fe8e146101665780633af32abf1461017b5780634c89d726146101c25780634e71e0c8146101f5575b005b34801561012d57600080fd5b506101546004803603602081101561014457600080fd5b50356001600160a01b0316610530565b60408051918252519081900360200190f35b34801561017257600080fd5b50610154610542565b34801561018757600080fd5b506101ae6004803603602081101561019e57600080fd5b50356001600160a01b0316610548565b604080519115158252519081900360200190f35b3480156101ce57600080fd5b50610154600480360360208110156101e557600080fd5b50356001600160a01b0316610569565b34801561020157600080fd5b5061011f61057b565b34801561021657600080fd5b506101546004803603602081101561022d57600080fd5b50356001600160a01b0316610642565b34801561024957600080fd5b506101546004803603604081101561026057600080fd5b506001600160a01b03813581169160200135166106ed565b34801561028457600080fd5b5061011f61070a565b34801561029957600080fd5b506102a26107a3565b604080516001600160a01b039092168252519081900360200190f35b3480156102ca57600080fd5b506101ae6107b2565b3480156102df57600080fd5b50610154600480360360208110156102f657600080fd5b50356001600160a01b03166107c3565b34801561031257600080fd5b5061011f6004803603602081101561032957600080fd5b50356001600160a01b03166107d5565b34801561034557600080fd5b506101546004803603602081101561035c57600080fd5b50356001600160a01b0316610905565b34801561037857600080fd5b5061011f6004803603606081101561038f57600080fd5b506001600160a01b0381358116916020810135909116906040013561093d565b3480156103bb57600080fd5b5061011f600480360360208110156103d257600080fd5b50356001600160a01b0316610ade565b3480156103ee57600080fd5b506102a2610b4f565b34801561040357600080fd5b5061011f6004803603608081101561041a57600080fd5b506001600160a01b03813581169160208101358216916040820135916060013516610b67565b34801561044c57600080fd5b5061011f6004803603602081101561046357600080fd5b50356001600160a01b0316610d3f565b34801561047f57600080fd5b506101ae6004803603602081101561049657600080fd5b50356001600160a01b0316610e49565b3480156104b257600080fd5b506104bb610e66565b6040805160208082528351818301528351919283929083019185019080838360005b838110156104f55781810151838201526020016104dd565b50505050905090810190601f1680156105225780820380516001836020036101000a031916815260200191505b509250505060405180910390f35b60056020526000908152604090205481565b60035481565b6001600160a01b03811660009081526007602052604090205415155b919050565b60066020526000908152604090205481565b6000546001600160a01b031633146105dd5760408051600160e51b62461bcd02815260206004820152601560248201527f6d7573742062652070656e64696e67206f776e65720000000000000000000000604482015290519081900360640190fd5b600080546001546040516001600160a01b039283169392909116917f8be0079c531659141344cd1fd0a4f28419497f9722a3daafe3b4186f6b6457e091a360008054600180546001600160a01b03199081166001600160a01b03841617909155169055565b60006001600160a01b03821673eeeeeeeeeeeeeeeeeeeeeeeeeeeeeeeeeeeeeeee141561067157503031610564565b60408051600160e01b6370a0823102815230600482015290516001600160a01b038416916370a08231916024808301926020929190829003018186803b1580156106ba57600080fd5b505afa1580156106ce573d6000803e3d6000fd5b505050506040513d60208110156106e457600080fd5b50519050610564565b600460209081526000928352604080842090915290825290205481565b6107126107b2565b6107595760408051600160e51b62461bcd02815260206004820152600d6024820152600160991b6c36bab9ba1031329037bbb732b902604482015290519081900360640190fd5b6001546040516000916001600160a01b0316907f8be0079c531659141344cd1fd0a4f28419497f9722a3daafe3b4186f6b6457e0908390a3600180546001600160a01b0319169055565b6001546001600160a01b031690565b6001546001600160a01b0316331490565b60076020526000908152604090205481565b6107dd6107b2565b6108245760408051600160e51b62461bcd02815260206004820152600d6024820152600160991b6c36bab9ba1031329037bbb732b902604482015290519081900360640190fd5b61082d81610e49565b156108825760408051600160e51b62461bcd02815260206004820152601760248201527f6461726b6e6f646520697320626c61636b6c6973746564000000000000000000604482015290519081900360640190fd5b61088b81610548565b156108e05760408051600160e51b62461bcd02815260206004820152601c60248201527f6461726b6e6f646520616c72656164792077686974656c697374656400000000604482015290519081900360640190fd5b6001600160a01b03166000908152600760205260409020429055600380546001019055565b6001600160a01b0381166000908152600560205260408120546109379061092b84610642565b9063ffffffff610ef116565b92915050565b6109456107b2565b61098c5760408051600160e51b62461bcd02815260206004820152600d6024820152600160991b6c36bab9ba1031329037bbb732b902604482015290519081900360640190fd5b600081116109e45760408051600160e51b62461bcd02815260206004820152600e60248201527f696e76616c696420616d6f756e74000000000000000000000000000000000000604482015290519081900360640190fd5b806109ee83610905565b1015610a445760408051600160e51b62461bcd02815260206004820152601d60248201527f696e73756666696369656e7420636f6e74726163742062616c616e6365000000604482015290519081900360640190fd5b6001600160a01b03808416600090815260046020908152604080832093861683529290522054610a7a908263ffffffff610f5116565b6001600160a01b0380851660009081526004602090815260408083209387168352928152828220939093556005909252902054610abd908263ffffffff610f5116565b6001600160a01b039092166000908152600560205260409020919091555050565b610ae66107b2565b610b2d5760408051600160e51b62461bcd02815260206004820152600d6024820152600160991b6c36bab9ba1031329037bbb732b902604482015290519081900360640190fd5b600080546001600160a01b0319166001600160a01b0392909216919091179055565b73eeeeeeeeeeeeeeeeeeeeeeeeeeeeeeeeeeeeeeee81565b610b6f6107b2565b610bb65760408051600160e51b62461bcd02815260206004820152600d6024820152600160991b6c36bab9ba1031329037bbb732b902604482015290519081900360640190fd5b6001600160a01b03808516600090815260046020908152604080832093871683529290522054821115610c335760408051600160e51b62461bcd02815260206004820152601d60248201527f696e73756666696369656e74206461726b6e6f64652062616c616e6365000000604482015290519081900360640190fd5b6001600160a01b03808516600090815260046020908152604080832093871683529290522054610c69908363ffffffff610ef116565b6001600160a01b0380861660009081526004602090815260408083209388168352928152828220939093556005909252902054610cac908363ffffffff610ef116565b6001600160a01b03841660008181526005602052604090209190915573eeeeeeeeeeeeeeeeeeeeeeeeeeeeeeeeeeeeeeee1415610d1f576040516001600160a01b0382169083156108fc029084906000818181858888f19350505050158015610d19573d6000803e3d6000fd5b50610d39565b610d396001600160a01b038416828463ffffffff610fb516565b50505050565b610d476107b2565b610d8e5760408051600160e51b62461bcd02815260206004820152600d6024820152600160991b6c36bab9ba1031329037bbb732b902604482015290519081900360640190fd5b610d9781610e49565b15610dec5760408051600160e51b62461bcd02815260206004820152601c60248201527f6461726b6e6f646520616c726561647920626c61636b6c697374656400000000604482015290519081900360640190fd5b6001600160a01b0381166000908152600660205260409020429055610e1081610548565b15610e46576001600160a01b038116600090815260076020526040812055600354610e4290600163ffffffff610ef116565b6003555b50565b6001600160a01b0316600090815260066020526040902054151590565b6002805460408051602060018416156101000260001901909316849004601f81018490048402820184019092528181529291830182828015610ee95780601f10610ebe57610100808354040283529160200191610ee9565b820191906000526020600020905b815481529060010190602001808311610ecc57829003601f168201915b505050505081565b600082821115610f4b5760408051600160e51b62461bcd02815260206004820152601e60248201527f536166654d6174683a207375627472616374696f6e206f766572666c6f770000604482015290519081900360640190fd5b50900390565b600082820183811015610fae5760408051600160e51b62461bcd02815260206004820152601b60248201527f536166654d6174683a206164646974696f6e206f766572666c6f770000000000604482015290519081900360640190fd5b9392505050565b604080516001600160a01b038416602482015260448082018490528251808303909101815260649091019091526020810180516001600160e01b0316600160e01b63a9059cbb0217905261100a90849061100f565b505050565b611021826001600160a01b03166111d4565b6110755760408051600160e51b62461bcd02815260206004820152600f60248201527f746f6b656e206e6f7420666f756e640000000000000000000000000000000000604482015290519081900360640190fd5b60006060836001600160a01b0316836040518082805190602001908083835b602083106110b35780518252601f199092019160209182019101611094565b6001836020036101000a0380198251168184511680821785525050505050509050019150506000604051808303816000865af19150503d8060008114611115576040519150601f19603f3d011682016040523d82523d6000602084013e61111a565b606091505b50915091508161116b5760408051600160e51b62461bcd02815260206004820152601160248201526001607a1b701d1bdad95b8818d85b1b0819985a5b195902604482015290519081900360640190fd5b805115610d395780806020019051602081101561118757600080fd5b5051610d395760408051600160e51b62461bcd02815260206004820152601160248201526001607a1b701d1bdad95b8818d85b1b0819985a5b195902604482015290519081900360640190fd5b3b15159056fea165627a7a723058203788d1588fc781d2ed5f553981e0ed257a14d31609de51f6e3666d232cbe5f090029",
  "source": "pragma solidity ^0.5.8;\n\nimport \"openzeppelin-solidity/contracts/math/SafeMath.sol\";\nimport \"openzeppelin-solidity/contracts/token/ERC20/ERC20.sol\";\n\nimport \"../libraries/Claimable.sol\";\nimport \"../libraries/CompatibleERC20Functions.sol\";\nimport \"../DarknodeRegistry/DarknodeRegistry.sol\";\n\n/// @notice DarknodePaymentStore is responsible for tracking black/whitelisted\n///         darknodes as well as the balances which have been allocated to the\n///         darknodes. It is also responsible for holding the tokens to be paid\n///         out to darknodes.\ncontract DarknodePaymentStore is Claimable {\n    using SafeMath for uint256;\n    using CompatibleERC20Functions for ERC20;\n\n    string public VERSION; // Passed in as a constructor parameter.\n\n    /// @notice The special address for Ether.\n    address constant public ETHEREUM = 0xEeeeeEeeeEeEeeEeEeEeeEEEeeeeEeeeeeeeEEeE;\n\n    /// @notice The size of the whitelist\n    uint256 public darknodeWhitelistLength;\n\n    /// @notice Mapping of darknode -> token -> balance\n    mapping(address => mapping(address => uint256)) public darknodeBalances;\n\n    /// @notice Mapping of token -> lockedAmount\n    mapping(address => uint256) public lockedBalances;\n\n    /// @notice mapping of darknode -> blacklistTimestamp\n    mapping(address => uint256) public darknodeBlacklist;\n\n    /// @notice mapping of darknode -> whitelistTimestamp\n    mapping(address => uint256) public darknodeWhitelist;\n\n    /// @notice The contract constructor.\n    ///\n    /// @param _VERSION A string defining the contract version.\n    constructor(\n        string memory _VERSION\n    ) public {\n        VERSION = _VERSION;\n    }\n\n    /// @notice Allow direct payments to be made to the DarknodePaymentStore.\n    function () external payable {\n    }\n\n    /// @notice Checks to see if a darknode is blacklisted\n    ///\n    /// @param _darknode The address of the darknode\n    /// @return true if the darknode is blacklisted\n    function isBlacklisted(address _darknode) public view returns (bool) {\n        return darknodeBlacklist[_darknode] != 0;\n    }\n\n    /// @notice Checks to see if a darknode is whitelisted\n    ///\n    /// @param _darknode The address of the darknode\n    /// @return true if the darknode is whitelisted\n    function isWhitelisted(address _darknode) public view returns (bool) {\n        return darknodeWhitelist[_darknode] != 0;\n    }\n\n    /// @notice Get the total balance of the contract for a particular token\n    ///\n    /// @param _token The token to check balance of\n    /// @return The total balance of the contract\n    function totalBalance(address _token) public view returns (uint256) {\n        if (_token == ETHEREUM) {\n            return address(this).balance;\n        } else {\n            return ERC20(_token).balanceOf(address(this));\n        }\n    }\n\n    /// @notice Get the available balance of the contract for a particular token\n    ///         This is the free amount which has not yet been allocated to\n    ///         darknodes.\n    ///\n    /// @param _token The token to check balance of\n    /// @return The available balance of the contract\n    function availableBalance(address _token) public view returns (uint256) {\n        return totalBalance(_token).sub(lockedBalances[_token]);\n    }\n\n    /// @notice Blacklists a darknode from participating in reward allocation.\n    ///         If the darknode is whitelisted, it is removed from the whitelist\n    ///         and the number of whitelisted nodes is decreased.\n    ///\n    /// @param _darknode The address of the darknode to blacklist\n    function blacklist(address _darknode) external onlyOwner {\n        require(!isBlacklisted(_darknode), \"darknode already blacklisted\");\n        darknodeBlacklist[_darknode] = block.timestamp;\n\n        // Unwhitelist if necessary\n        if (isWhitelisted(_darknode)) {\n            darknodeWhitelist[_darknode] = 0;\n            // Use SafeMath when subtracting to avoid underflows\n            darknodeWhitelistLength = darknodeWhitelistLength.sub(1);\n        }\n    }\n\n    /// @notice Whitelists a darknode allowing it to participate in reward\n    ///         allocation.\n    ///\n    /// @param _darknode The address of the darknode to whitelist\n    function whitelist(address _darknode) external onlyOwner {\n        require(!isBlacklisted(_darknode), \"darknode is blacklisted\");\n        require(!isWhitelisted(_darknode), \"darknode already whitelisted\");\n\n        darknodeWhitelist[_darknode] = block.timestamp;\n        darknodeWhitelistLength++;\n    }\n\n    /// @notice Increments the amount of funds allocated to a particular\n    ///         darknode.\n    ///\n    /// @param _darknode The address of the darknode to increase balance of\n    /// @param _token The token which the balance should be incremented\n    /// @param _amount The amount that the balance should be incremented by\n    function incrementDarknodeBalance(address _darknode, address _token, uint256 _amount) external onlyOwner {\n        require(_amount > 0, \"invalid amount\");\n        require(availableBalance(_token) >= _amount, \"insufficient contract balance\");\n\n        darknodeBalances[_darknode][_token] = darknodeBalances[_darknode][_token].add(_amount);\n        lockedBalances[_token] = lockedBalances[_token].add(_amount);\n    }\n\n    /// @notice Transfers an amount out of balance to a specified address\n    ///\n    /// @param _darknode The address of the darknode\n    /// @param _token Which token to transfer\n    /// @param _amount The amount to transfer\n    /// @param _recipient The address to withdraw it to\n    function transfer(address _darknode, address _token, uint256 _amount, address payable _recipient) external onlyOwner {\n        require(darknodeBalances[_darknode][_token] >= _amount, \"insufficient darknode balance\");\n        darknodeBalances[_darknode][_token] = darknodeBalances[_darknode][_token].sub(_amount);\n        lockedBalances[_token] = lockedBalances[_token].sub(_amount);\n\n        if (_token == ETHEREUM) {\n            _recipient.transfer(_amount);\n        } else {\n            ERC20(_token).safeTransfer(_recipient, _amount);\n        }\n    }\n\n}\n",
  "sourcePath": "/home/noah/github/renproject/darknode-sol/contracts/DarknodePayment/DarknodePaymentStore.sol",
  "compiler": {
    "name": "solc",
    "version": "0.5.8+commit.23d335f2.Emscripten.clang"
  },
  "schemaVersion": "3.0.11",
  "updatedAt": "2019-06-14T05:46:17.801Z",
  "devdoc": {
    "methods": {
      "availableBalance(address)": {
        "params": {
          "_token": "The token to check balance of"
        },
        "return": "The available balance of the contract"
      },
      "blacklist(address)": {
        "params": {
          "_darknode": "The address of the darknode to blacklist"
        }
      },
      "claimOwnership()": {
        "details": "Allows the pendingOwner address to finalize the transfer."
      },
      "constructor": {
        "params": {
          "_VERSION": "A string defining the contract version."
        }
      },
      "incrementDarknodeBalance(address,address,uint256)": {
        "params": {
          "_amount": "The amount that the balance should be incremented by",
          "_darknode": "The address of the darknode to increase balance of",
          "_token": "The token which the balance should be incremented"
        }
      },
      "isBlacklisted(address)": {
        "params": {
          "_darknode": "The address of the darknode"
        },
        "return": "true if the darknode is blacklisted"
      },
      "isOwner()": {
        "return": "true if `msg.sender` is the owner of the contract."
      },
      "isWhitelisted(address)": {
        "params": {
          "_darknode": "The address of the darknode"
        },
        "return": "true if the darknode is whitelisted"
      },
      "owner()": {
        "return": "the address of the owner."
      },
      "renounceOwnership()": {
        "details": "Allows the current owner to relinquish control of the contract. It will not be possible to call the functions with the `onlyOwner` modifier anymore."
      },
      "totalBalance(address)": {
        "params": {
          "_token": "The token to check balance of"
        },
        "return": "The total balance of the contract"
      },
      "transfer(address,address,uint256,address)": {
        "params": {
          "_amount": "The amount to transfer",
          "_darknode": "The address of the darknode",
          "_recipient": "The address to withdraw it to",
          "_token": "Which token to transfer"
        }
      },
      "transferOwnership(address)": {
        "details": "Allows the current owner to set the pendingOwner address.",
        "params": {
          "newOwner": "The address to transfer ownership to."
        }
      },
      "whitelist(address)": {
        "params": {
          "_darknode": "The address of the darknode to whitelist"
        }
      }
    }
  },
  "userdoc": {
    "methods": {
      "availableBalance(address)": {
        "notice": "Get the available balance of the contract for a particular token         This is the free amount which has not yet been allocated to         darknodes. "
      },
      "blacklist(address)": {
        "notice": "Blacklists a darknode from participating in reward allocation.         If the darknode is whitelisted, it is removed from the whitelist         and the number of whitelisted nodes is decreased. "
      },
      "constructor": "The contract constructor. ",
      "incrementDarknodeBalance(address,address,uint256)": {
        "notice": "Increments the amount of funds allocated to a particular         darknode. "
      },
      "isBlacklisted(address)": {
        "notice": "Checks to see if a darknode is blacklisted "
      },
      "isWhitelisted(address)": {
        "notice": "Checks to see if a darknode is whitelisted "
      },
      "renounceOwnership()": {
        "notice": "Renouncing ownership will leave the contract without an owner, thereby removing any functionality that is only available to the owner."
      },
      "totalBalance(address)": {
        "notice": "Get the total balance of the contract for a particular token "
      },
      "transfer(address,address,uint256,address)": {
        "notice": "Transfers an amount out of balance to a specified address "
      },
      "whitelist(address)": {
        "notice": "Whitelists a darknode allowing it to participate in reward         allocation. "
      }
    },
    "notice": "DarknodePaymentStore is responsible for tracking black/whitelisted         darknodes as well as the balances which have been allocated to the         darknodes. It is also responsible for holding the tokens to be paid         out to darknodes."
  }
}