{
  "contractName": "DarknodeRegistry",
  "abi": [
    {
      "constant": true,
      "inputs": [],
      "name": "numDarknodesNextEpoch",
      "outputs": [
        {
          "name": "",
          "type": "uint256"
        }
      ],
      "payable": false,
      "stateMutability": "view",
      "type": "function"
    },
    {
      "constant": true,
      "inputs": [],
      "name": "numDarknodes",
      "outputs": [
        {
          "name": "",
          "type": "uint256"
        }
      ],
      "payable": false,
      "stateMutability": "view",
      "type": "function"
    },
    {
      "constant": true,
      "inputs": [],
      "name": "nextSlasher",
      "outputs": [
        {
          "name": "",
          "type": "address"
        }
      ],
      "payable": false,
      "stateMutability": "view",
      "type": "function"
    },
    {
      "constant": true,
      "inputs": [],
      "name": "nextMinimumEpochInterval",
      "outputs": [
        {
          "name": "",
          "type": "uint256"
        }
      ],
      "payable": false,
      "stateMutability": "view",
      "type": "function"
    },
    {
      "constant": true,
      "inputs": [],
      "name": "minimumEpochInterval",
      "outputs": [
        {
          "name": "",
          "type": "uint256"
        }
      ],
      "payable": false,
      "stateMutability": "view",
      "type": "function"
    },
    {
      "constant": true,
      "inputs": [],
      "name": "previousEpoch",
      "outputs": [
        {
          "name": "epochhash",
          "type": "uint256"
        },
        {
          "name": "blocknumber",
          "type": "uint256"
        }
      ],
      "payable": false,
      "stateMutability": "view",
      "type": "function"
    },
    {
      "constant": true,
      "inputs": [],
      "name": "nextMinimumBond",
      "outputs": [
        {
          "name": "",
          "type": "uint256"
        }
      ],
      "payable": false,
      "stateMutability": "view",
      "type": "function"
    },
    {
      "constant": true,
      "inputs": [],
      "name": "nextMinimumPodSize",
      "outputs": [
        {
          "name": "",
          "type": "uint256"
        }
      ],
      "payable": false,
      "stateMutability": "view",
      "type": "function"
    },
    {
      "constant": false,
      "inputs": [],
      "name": "renounceOwnership",
      "outputs": [],
      "payable": false,
      "stateMutability": "nonpayable",
      "type": "function"
    },
    {
      "constant": true,
      "inputs": [],
      "name": "numDarknodesPreviousEpoch",
      "outputs": [
        {
          "name": "",
          "type": "uint256"
        }
      ],
      "payable": false,
      "stateMutability": "view",
      "type": "function"
    },
    {
      "constant": true,
      "inputs": [],
      "name": "currentEpoch",
      "outputs": [
        {
          "name": "epochhash",
          "type": "uint256"
        },
        {
          "name": "blocknumber",
          "type": "uint256"
        }
      ],
      "payable": false,
      "stateMutability": "view",
      "type": "function"
    },
    {
      "constant": true,
      "inputs": [],
      "name": "ren",
      "outputs": [
        {
          "name": "",
          "type": "address"
        }
      ],
      "payable": false,
      "stateMutability": "view",
      "type": "function"
    },
    {
      "constant": true,
      "inputs": [],
      "name": "owner",
      "outputs": [
        {
          "name": "",
          "type": "address"
        }
      ],
      "payable": false,
      "stateMutability": "view",
      "type": "function"
    },
    {
      "constant": true,
      "inputs": [],
      "name": "isOwner",
      "outputs": [
        {
          "name": "",
          "type": "bool"
        }
      ],
      "payable": false,
      "stateMutability": "view",
      "type": "function"
    },
    {
      "constant": true,
      "inputs": [],
      "name": "store",
      "outputs": [
        {
          "name": "",
          "type": "address"
        }
      ],
      "payable": false,
      "stateMutability": "view",
      "type": "function"
    },
    {
      "constant": true,
      "inputs": [],
      "name": "minimumBond",
      "outputs": [
        {
          "name": "",
          "type": "uint256"
        }
      ],
      "payable": false,
      "stateMutability": "view",
      "type": "function"
    },
    {
      "constant": true,
      "inputs": [],
      "name": "slasher",
      "outputs": [
        {
          "name": "",
          "type": "address"
        }
      ],
      "payable": false,
      "stateMutability": "view",
      "type": "function"
    },
    {
      "constant": true,
      "inputs": [],
      "name": "minimumPodSize",
      "outputs": [
        {
          "name": "",
          "type": "uint256"
        }
      ],
      "payable": false,
      "stateMutability": "view",
      "type": "function"
    },
    {
      "constant": false,
      "inputs": [
        {
          "name": "newOwner",
          "type": "address"
        }
      ],
      "name": "transferOwnership",
      "outputs": [],
      "payable": false,
      "stateMutability": "nonpayable",
      "type": "function"
    },
    {
      "constant": true,
      "inputs": [],
      "name": "VERSION",
      "outputs": [
        {
          "name": "",
          "type": "string"
        }
      ],
      "payable": false,
      "stateMutability": "view",
      "type": "function"
    },
    {
      "inputs": [
        {
          "name": "_VERSION",
          "type": "string"
        },
        {
          "name": "_renAddress",
          "type": "address"
        },
        {
          "name": "_storeAddress",
          "type": "address"
        },
        {
          "name": "_minimumBond",
          "type": "uint256"
        },
        {
          "name": "_minimumPodSize",
          "type": "uint256"
        },
        {
          "name": "_minimumEpochInterval",
          "type": "uint256"
        }
      ],
      "payable": false,
      "stateMutability": "nonpayable",
      "type": "constructor"
    },
    {
      "anonymous": false,
      "inputs": [
        {
          "indexed": true,
          "name": "_darknodeID",
          "type": "address"
        },
        {
          "indexed": false,
          "name": "_bond",
          "type": "uint256"
        }
      ],
      "name": "LogDarknodeRegistered",
      "type": "event"
    },
    {
      "anonymous": false,
      "inputs": [
        {
          "indexed": true,
          "name": "_darknodeID",
          "type": "address"
        }
      ],
      "name": "LogDarknodeDeregistered",
      "type": "event"
    },
    {
      "anonymous": false,
      "inputs": [
        {
          "indexed": true,
          "name": "_owner",
          "type": "address"
        },
        {
          "indexed": false,
          "name": "_amount",
          "type": "uint256"
        }
      ],
      "name": "LogDarknodeOwnerRefunded",
      "type": "event"
    },
    {
      "anonymous": false,
      "inputs": [
        {
          "indexed": true,
          "name": "epochhash",
          "type": "uint256"
        }
      ],
      "name": "LogNewEpoch",
      "type": "event"
    },
    {
      "anonymous": false,
      "inputs": [
        {
          "indexed": false,
          "name": "previousMinimumBond",
          "type": "uint256"
        },
        {
          "indexed": false,
          "name": "nextMinimumBond",
          "type": "uint256"
        }
      ],
      "name": "LogMinimumBondUpdated",
      "type": "event"
    },
    {
      "anonymous": false,
      "inputs": [
        {
          "indexed": false,
          "name": "previousMinimumPodSize",
          "type": "uint256"
        },
        {
          "indexed": false,
          "name": "nextMinimumPodSize",
          "type": "uint256"
        }
      ],
      "name": "LogMinimumPodSizeUpdated",
      "type": "event"
    },
    {
      "anonymous": false,
      "inputs": [
        {
          "indexed": false,
          "name": "previousMinimumEpochInterval",
          "type": "uint256"
        },
        {
          "indexed": false,
          "name": "nextMinimumEpochInterval",
          "type": "uint256"
        }
      ],
      "name": "LogMinimumEpochIntervalUpdated",
      "type": "event"
    },
    {
      "anonymous": false,
      "inputs": [
        {
          "indexed": false,
          "name": "previousSlasher",
          "type": "address"
        },
        {
          "indexed": false,
          "name": "nextSlasher",
          "type": "address"
        }
      ],
      "name": "LogSlasherUpdated",
      "type": "event"
    },
    {
      "anonymous": false,
      "inputs": [
        {
          "indexed": true,
          "name": "previousOwner",
          "type": "address"
        },
        {
          "indexed": true,
          "name": "newOwner",
          "type": "address"
        }
      ],
      "name": "OwnershipTransferred",
      "type": "event"
    },
    {
      "constant": false,
      "inputs": [
        {
          "name": "_darknodeID",
          "type": "address"
        },
        {
          "name": "_publicKey",
          "type": "bytes"
        }
      ],
      "name": "register",
      "outputs": [],
      "payable": false,
      "stateMutability": "nonpayable",
      "type": "function"
    },
    {
      "constant": false,
      "inputs": [
        {
          "name": "_darknodeID",
          "type": "address"
        }
      ],
      "name": "deregister",
      "outputs": [],
      "payable": false,
      "stateMutability": "nonpayable",
      "type": "function"
    },
    {
      "constant": false,
      "inputs": [],
      "name": "epoch",
      "outputs": [],
      "payable": false,
      "stateMutability": "nonpayable",
      "type": "function"
    },
    {
      "constant": false,
      "inputs": [
        {
          "name": "_newOwner",
          "type": "address"
        }
      ],
      "name": "transferStoreOwnership",
      "outputs": [],
      "payable": false,
      "stateMutability": "nonpayable",
      "type": "function"
    },
    {
      "constant": false,
      "inputs": [],
      "name": "claimStoreOwnership",
      "outputs": [],
      "payable": false,
      "stateMutability": "nonpayable",
      "type": "function"
    },
    {
      "constant": false,
      "inputs": [
        {
          "name": "_nextMinimumBond",
          "type": "uint256"
        }
      ],
      "name": "updateMinimumBond",
      "outputs": [],
      "payable": false,
      "stateMutability": "nonpayable",
      "type": "function"
    },
    {
      "constant": false,
      "inputs": [
        {
          "name": "_nextMinimumPodSize",
          "type": "uint256"
        }
      ],
      "name": "updateMinimumPodSize",
      "outputs": [],
      "payable": false,
      "stateMutability": "nonpayable",
      "type": "function"
    },
    {
      "constant": false,
      "inputs": [
        {
          "name": "_nextMinimumEpochInterval",
          "type": "uint256"
        }
      ],
      "name": "updateMinimumEpochInterval",
      "outputs": [],
      "payable": false,
      "stateMutability": "nonpayable",
      "type": "function"
    },
    {
      "constant": false,
      "inputs": [
        {
          "name": "_slasher",
          "type": "address"
        }
      ],
      "name": "updateSlasher",
      "outputs": [],
      "payable": false,
      "stateMutability": "nonpayable",
      "type": "function"
    },
    {
      "constant": false,
      "inputs": [
        {
          "name": "_prover",
          "type": "address"
        },
        {
          "name": "_challenger1",
          "type": "address"
        },
        {
          "name": "_challenger2",
          "type": "address"
        }
      ],
      "name": "slash",
      "outputs": [],
      "payable": false,
      "stateMutability": "nonpayable",
      "type": "function"
    },
    {
      "constant": false,
      "inputs": [
        {
          "name": "_darknodeID",
          "type": "address"
        }
      ],
      "name": "refund",
      "outputs": [],
      "payable": false,
      "stateMutability": "nonpayable",
      "type": "function"
    },
    {
      "constant": true,
      "inputs": [
        {
          "name": "_darknodeID",
          "type": "address"
        }
      ],
      "name": "getDarknodeOwner",
      "outputs": [
        {
          "name": "",
          "type": "address"
        }
      ],
      "payable": false,
      "stateMutability": "view",
      "type": "function"
    },
    {
      "constant": true,
      "inputs": [
        {
          "name": "_darknodeID",
          "type": "address"
        }
      ],
      "name": "getDarknodeBond",
      "outputs": [
        {
          "name": "",
          "type": "uint256"
        }
      ],
      "payable": false,
      "stateMutability": "view",
      "type": "function"
    },
    {
      "constant": true,
      "inputs": [
        {
          "name": "_darknodeID",
          "type": "address"
        }
      ],
      "name": "getDarknodePublicKey",
      "outputs": [
        {
          "name": "",
          "type": "bytes"
        }
      ],
      "payable": false,
      "stateMutability": "view",
      "type": "function"
    },
    {
      "constant": true,
      "inputs": [
        {
          "name": "_start",
          "type": "address"
        },
        {
          "name": "_count",
          "type": "uint256"
        }
      ],
      "name": "getDarknodes",
      "outputs": [
        {
          "name": "",
          "type": "address[]"
        }
      ],
      "payable": false,
      "stateMutability": "view",
      "type": "function"
    },
    {
      "constant": true,
      "inputs": [
        {
          "name": "_start",
          "type": "address"
        },
        {
          "name": "_count",
          "type": "uint256"
        }
      ],
      "name": "getPreviousDarknodes",
      "outputs": [
        {
          "name": "",
          "type": "address[]"
        }
      ],
      "payable": false,
      "stateMutability": "view",
      "type": "function"
    },
    {
      "constant": true,
      "inputs": [
        {
          "name": "_darknodeID",
          "type": "address"
        }
      ],
      "name": "isPendingRegistration",
      "outputs": [
        {
          "name": "",
          "type": "bool"
        }
      ],
      "payable": false,
      "stateMutability": "view",
      "type": "function"
    },
    {
      "constant": true,
      "inputs": [
        {
          "name": "_darknodeID",
          "type": "address"
        }
      ],
      "name": "isPendingDeregistration",
      "outputs": [
        {
          "name": "",
          "type": "bool"
        }
      ],
      "payable": false,
      "stateMutability": "view",
      "type": "function"
    },
    {
      "constant": true,
      "inputs": [
        {
          "name": "_darknodeID",
          "type": "address"
        }
      ],
      "name": "isDeregistered",
      "outputs": [
        {
          "name": "",
          "type": "bool"
        }
      ],
      "payable": false,
      "stateMutability": "view",
      "type": "function"
    },
    {
      "constant": true,
      "inputs": [
        {
          "name": "_darknodeID",
          "type": "address"
        }
      ],
      "name": "isDeregisterable",
      "outputs": [
        {
          "name": "",
          "type": "bool"
        }
      ],
      "payable": false,
      "stateMutability": "view",
      "type": "function"
    },
    {
      "constant": true,
      "inputs": [
        {
          "name": "_darknodeID",
          "type": "address"
        }
      ],
      "name": "isRefunded",
      "outputs": [
        {
          "name": "",
          "type": "bool"
        }
      ],
      "payable": false,
      "stateMutability": "view",
      "type": "function"
    },
    {
      "constant": true,
      "inputs": [
        {
          "name": "_darknodeID",
          "type": "address"
        }
      ],
      "name": "isRefundable",
      "outputs": [
        {
          "name": "",
          "type": "bool"
        }
      ],
      "payable": false,
      "stateMutability": "view",
      "type": "function"
    },
    {
      "constant": true,
      "inputs": [
        {
          "name": "_darknodeID",
          "type": "address"
        }
      ],
      "name": "isRegistered",
      "outputs": [
        {
          "name": "",
          "type": "bool"
        }
      ],
      "payable": false,
      "stateMutability": "view",
      "type": "function"
    },
    {
      "constant": true,
      "inputs": [
        {
          "name": "_darknodeID",
          "type": "address"
        }
      ],
      "name": "isRegisteredInPreviousEpoch",
      "outputs": [
        {
          "name": "",
          "type": "bool"
        }
      ],
      "payable": false,
      "stateMutability": "view",
      "type": "function"
    }
  ],
  "bytecode": "0x60806040523480156200001157600080fd5b506040516200296c3803806200296c833981018060405260c08110156200003757600080fd5b8101908080516401000000008111156200005057600080fd5b820160208101848111156200006457600080fd5b81516401000000008111828201871017156200007f57600080fd5b505060208201516040808401516060850151608086015160a090960151600080546001600160a01b0319163317808255945196995094975091959094909391926001600160a01b031691907f8be0079c531659141344cd1fd0a4f28419497f9722a3daafe3b4186f6b6457e0908290a385516200010490600190602089019062000188565b50601080546001600160a01b039586166001600160a01b031991821617909155600f805496909516951694909417909255600581905560085560068190556009556007819055600a555060408051808201909152436000198101408083526020909201819052600b91909155600c556000600281905560038190556004556200022d565b828054600181600116156101000203166002900490600052602060002090601f016020900481019282601f10620001cb57805160ff1916838001178555620001fb565b82800160010185558215620001fb579182015b82811115620001fb578251825591602001919060010190620001de565b50620002099291506200020d565b5090565b6200022a91905b8082111562000209576000815560010162000214565b90565b61272f806200023d6000396000f3fe608060405234801561001057600080fd5b50600436106102745760003560e01c80638020fc1f11610151578063b3139d38116100c3578063e187892511610087578063e18789251461073e578063ec5325c114610764578063f2fde38b14610790578063fa89401a146107b6578063ffa1ad74146107dc578063ffc9152e146107e457610274565b8063b3139d381461069e578063ba0f5b20146106c4578063c2250a99146106ea578063c3c5a54714610710578063c7dbc2be1461073657610274565b80638da5cb5b116101155780638da5cb5b1461066e5780638f32d59b14610676578063900cf0cf1461067e578063975057e714610686578063aa7517e11461068e578063b13442711461069657610274565b80638020fc1f1461056257806380a0c4611461058857806384ac33ec146105a557806384d2688c146105cb5780638a9b40671461066657610274565b8063563bf264116101ea5780636fd689e8116101ae5780636fd689e814610514578063702c25ee1461051c578063715018a61461052457806371740d161461052c57806376671808146105345780637be266da1461053c57610274565b8063563bf264146104705780635aebd1cb146104a85780635cdaab48146104ce57806360a22fe4146104ef57806363b851b9146104f757610274565b806321a2ad3a1161023c57806321a2ad3a1461033657806324b8fbf61461033e578063303ee989146103be57806343846074146103e4578063455dc46d1461046057806355cacda51461046857610274565b8063040fa051146102795780630847e9fa146102b35780630ff9aafe146102cd5780631460e603146102ec5780631cedf8a3146102f4575b600080fd5b61029f6004803603602081101561028f57600080fd5b50356001600160a01b031661080a565b604080519115158252519081900360200190f35b6102bb6108a1565b60408051918252519081900360200190f35b6102ea600480360360208110156102e357600080fd5b50356108a7565b005b6102bb6108f6565b61031a6004803603602081101561030a57600080fd5b50356001600160a01b03166108fc565b604080516001600160a01b039092168252519081900360200190f35b61031a610982565b6102ea6004803603604081101561035457600080fd5b6001600160a01b03823516919081019060408101602082013564010000000081111561037f57600080fd5b82018360208201111561039157600080fd5b803590602001918460018302840111640100000000831117156103b357600080fd5b509092509050610991565b61029f600480360360208110156103d457600080fd5b50356001600160a01b0316610c12565b610410600480360360408110156103fa57600080fd5b506001600160a01b038135169060200135610c63565b60408051602080825283518183015283519192839290830191858101910280838360005b8381101561044c578181015183820152602001610434565b505050509050019250505060405180910390f35b6102bb610c84565b6102bb610c8a565b6102ea6004803603606081101561048657600080fd5b506001600160a01b038135811691602081013582169160409091013516610c90565b61029f600480360360208110156104be57600080fd5b50356001600160a01b03166110b6565b6104d661114f565b6040805192835260208301919091528051918290030190f35b6102bb611158565b6102ea6004803603602081101561050d57600080fd5b503561115e565b6102ea6111ad565b6102bb611261565b6102ea611267565b6102bb6112fb565b6104d6611301565b61029f6004803603602081101561055257600080fd5b50356001600160a01b031661130a565b61029f6004803603602081101561057857600080fd5b50356001600160a01b031661132f565b6102ea6004803603602081101561059e57600080fd5b50356113c3565b6102ea600480360360208110156105bb57600080fd5b50356001600160a01b0316611412565b6105f1600480360360208110156105e157600080fd5b50356001600160a01b0316611559565b6040805160208082528351818301528351919283929083019185019080838360005b8381101561062b578181015183820152602001610613565b50505050905090810190601f1680156106585780820380516001836020036101000a031916815260200191505b509250505060405180910390f35b61031a61163b565b61031a61164a565b61029f611659565b6102ea61166a565b61031a61191d565b6102bb61192c565b61031a611932565b6102ea600480360360208110156106b457600080fd5b50356001600160a01b0316611941565b6102bb600480360360208110156106da57600080fd5b50356001600160a01b0316611a0b565b6102ea6004803603602081101561070057600080fd5b50356001600160a01b0316611a5f565b61029f6004803603602081101561072657600080fd5b50356001600160a01b0316611b0e565b6102bb611b33565b61029f6004803603602081101561075457600080fd5b50356001600160a01b0316611b39565b6104106004803603604081101561077a57600080fd5b506001600160a01b038135169060200135611bcf565b6102ea600480360360208110156107a657600080fd5b50356001600160a01b0316611be8565b6102ea600480360360208110156107cc57600080fd5b50356001600160a01b0316611c3e565b6105f1611f11565b61029f600480360360208110156107fa57600080fd5b50356001600160a01b0316611f9e565b60105460408051600160e21b6338b5f1930281526001600160a01b03848116600483015291516000938493169163e2d7c64c916024808301926020929190829003018186803b15801561085c57600080fd5b505afa158015610870573d6000803e3d6000fd5b505050506040513d602081101561088657600080fd5b50519050801580159061089a5750600c5481115b9392505050565b60035481565b6108af611659565b6108f15760408051600160e51b62461bcd02815260206004820181905260248201526000805160206126e4833981519152604482015290519081900360640190fd5b600855565b60025481565b60105460408051600160e01b63a30788150281526001600160a01b0384811660048301529151600093929092169163a307881591602480820192602092909190829003018186803b15801561095057600080fd5b505afa158015610964573d6000803e3d6000fd5b505050506040513d602081101561097a57600080fd5b505192915050565b6012546001600160a01b031681565b8261099b81611f9e565b6109d957604051600160e51b62461bcd02815260040180806020018281038252602481526020018061266f6024913960400191505060405180910390fd5b600554600f5460105460408051600160e01b6323b872dd0281523360048201526001600160a01b03928316602482015260448101859052905191909216916323b872dd9160648083019260209291908290030181600087803b158015610a3e57600080fd5b505af1158015610a52573d6000803e3d6000fd5b505050506040513d6020811015610a6857600080fd5b5051610abe5760408051600160e51b62461bcd02815260206004820152601460248201527f626f6e64207472616e73666572206661696c6564000000000000000000000000604482015290519081900360640190fd5b601054600754600c546001600160a01b039092169163a85ef579918891339186918a918a91610af29163ffffffff6120b016565b60006040518863ffffffff1660e01b815260040180886001600160a01b03166001600160a01b03168152602001876001600160a01b03166001600160a01b03168152602001868152602001806020018481526020018381526020018281038252868682818152602001925080828437600081840152601f19601f82011690508083019250505098505050505050505050600060405180830381600087803b158015610b9c57600080fd5b505af1158015610bb0573d6000803e3d6000fd5b5050600354610bc992509050600163ffffffff6120b016565b6003556040805182815290516001600160a01b038716917fd2819ba4c736158371edf0be38fd8d1fc435609832e392f118c4c79160e5bd7b919081900360200190a25050505050565b60105460408051600160e11b62c985b70281526001600160a01b0384811660048301529151600093849316916301930b6e916024808301926020929190829003018186803b15801561085c57600080fd5b60608180610c7057506004545b610c7c8482600161210d565b949350505050565b600a5481565b60075481565b6011546001600160a01b03163314610cf25760408051600160e51b62461bcd02815260206004820152600f60248201527f6d75737420626520736c61736865720000000000000000000000000000000000604482015290519081900360640190fd5b60105460408051600160e01b63cad413570281526001600160a01b0386811660048301529151600093600293169163cad41357916024808301926020929190829003018186803b158015610d4557600080fd5b505afa158015610d59573d6000803e3d6000fd5b505050506040513d6020811015610d6f57600080fd5b505181610d7857fe5b049050600060048260105460408051600160e21b633ef100bf0281526001600160a01b038a81166004830152602482018890529151949093049450169163fbc402fc9160448082019260009290919082900301818387803b158015610ddc57600080fd5b505af1158015610df0573d6000803e3d6000fd5b50505050610dfd85611b39565b15610e0b57610e0b85612348565b600f5460105460408051600160e01b63a30788150281526001600160a01b03888116600483015291519382169363a9059cbb939092169163a307881591602480820192602092909190829003018186803b158015610e6857600080fd5b505afa158015610e7c573d6000803e3d6000fd5b505050506040513d6020811015610e9257600080fd5b50516040805163ffffffff841660e01b81526001600160a01b039092166004830152602482018590525160448083019260209291908290030181600087803b158015610edd57600080fd5b505af1158015610ef1573d6000803e3d6000fd5b505050506040513d6020811015610f0757600080fd5b5051610f5d5760408051600160e51b62461bcd02815260206004820152601660248201527f726577617264207472616e73666572206661696c656400000000000000000000604482015290519081900360640190fd5b600f5460105460408051600160e01b63a30788150281526001600160a01b03878116600483015291519382169363a9059cbb939092169163a307881591602480820192602092909190829003018186803b158015610fba57600080fd5b505afa158015610fce573d6000803e3d6000fd5b505050506040513d6020811015610fe457600080fd5b50516040805163ffffffff841660e01b81526001600160a01b039092166004830152602482018590525160448083019260209291908290030181600087803b15801561102f57600080fd5b505af1158015611043573d6000803e3d6000fd5b505050506040513d602081101561105957600080fd5b50516110af5760408051600160e51b62461bcd02815260206004820152601660248201527f726577617264207472616e73666572206661696c656400000000000000000000604482015290519081900360640190fd5b5050505050565b60006110c18261132f565b80156111495750600e5460105460408051600160e11b62c985b70281526001600160a01b038681166004830152915191909216916301930b6e916024808301926020929190829003018186803b15801561111a57600080fd5b505afa15801561112e573d6000803e3d6000fd5b505050506040513d602081101561114457600080fd5b505111155b92915050565b600d54600e5482565b60085481565b611166611659565b6111a85760408051600160e51b62461bcd02815260206004820181905260248201526000805160206126e4833981519152604482015290519081900360640190fd5b600a55565b6111b5611659565b6111f75760408051600160e51b62461bcd02815260206004820181905260248201526000805160206126e4833981519152604482015290519081900360640190fd5b601060009054906101000a90046001600160a01b03166001600160a01b0316634e71e0c86040518163ffffffff1660e01b8152600401600060405180830381600087803b15801561124757600080fd5b505af115801561125b573d6000803e3d6000fd5b50505050565b60095481565b61126f611659565b6112b15760408051600160e51b62461bcd02815260206004820181905260248201526000805160206126e4833981519152604482015290519081900360640190fd5b600080546040516001600160a01b03909116907f8be0079c531659141344cd1fd0a4f28419497f9722a3daafe3b4186f6b6457e0908390a3600080546001600160a01b0319169055565b60045481565b600b54600c5482565b60408051808201909152600d548152600e54602082015260009061114990839061242a565b60105460408051600160e11b62c985b70281526001600160a01b0384811660048301529151600093849316916301930b6e916024808301926020929190829003018186803b15801561138057600080fd5b505afa158015611394573d6000803e3d6000fd5b505050506040513d60208110156113aa57600080fd5b50519050801580159061089a5750600c54101592915050565b6113cb611659565b61140d5760408051600160e51b62461bcd02815260206004820181905260248201526000805160206126e4833981519152604482015290519081900360640190fd5b600955565b8061141c81611b39565b6114705760408051600160e51b62461bcd02815260206004820152601660248201527f6d757374206265206465726567697374657261626c6500000000000000000000604482015290519081900360640190fd5b60105460408051600160e01b63a30788150281526001600160a01b038086166004830152915185933393169163a3078815916024808301926020929190829003018186803b1580156114c157600080fd5b505afa1580156114d5573d6000803e3d6000fd5b505050506040513d60208110156114eb57600080fd5b50516001600160a01b03161461154b5760408051600160e51b62461bcd02815260206004820152601660248201527f6d757374206265206461726b6e6f6465206f776e657200000000000000000000604482015290519081900360640190fd5b61155483612348565b505050565b60105460408051600160e41b630ee594a50281526001600160a01b0384811660048301529151606093929092169163ee594a5091602480820192600092909190829003018186803b1580156115ad57600080fd5b505afa1580156115c1573d6000803e3d6000fd5b505050506040513d6000823e601f3d908101601f1916820160405260208110156115ea57600080fd5b81019080805164010000000081111561160257600080fd5b8201602081018481111561161557600080fd5b815164010000000081118282018710171561162f57600080fd5b50909695505050505050565b600f546001600160a01b031681565b6000546001600160a01b031690565b6000546001600160a01b0316331490565b600e546116e15761167961164a565b6001600160a01b0316336001600160a01b0316146116e15760408051600160e51b62461bcd02815260206004820152601d60248201527f6e6f7420617574686f72697a6564202866697273742065706f63687329000000604482015290519081900360640190fd5b600754600c546116f69163ffffffff6120b016565b43101561174d5760408051600160e51b62461bcd02815260206004820152601d60248201527f65706f636820696e74657276616c20686173206e6f7420706173736564000000604482015290519081900360640190fd5b600b8054600d55600c8054600e556040805180820190915243600019810140808352602090920181905292819055919055600280546004556003549055600554600854146117d957600854600581905560408051828152602081019290925280517f7c77c94944e9e4e5b0d46f1297127d060020792687cd743401d782346c68f6559281900390910190a15b6006546009541461182857600954600681905560408051828152602081019290925280517f6d520e46e5714982ddf8cb6216bcb3e1c1d5b79d337afc305335f819394f5d6a9281900390910190a15b600754600a541461187757600a54600781905560408051828152602081019290925280517fb218cde2730b79a0667ddf869466ee66a12ef56fe65fa4986a590f8a7108c9de9281900390910190a15b6011546012546001600160a01b039081169116146118ef57601254601180546001600160a01b0319166001600160a01b039283169081179182905560408051929093168252602082015281517f933228a1c3ba8fadd3ce47a9db5b898be647f89af99ba7c1b9a655f59ea306c8929181900390910190a15b60405181907faf2fc4796f2932ce294c3684deffe5098d3ef65dc2dd64efa80ef94eed88b01e90600090a250565b6010546001600160a01b031681565b60055481565b6011546001600160a01b031681565b611949611659565b61198b5760408051600160e51b62461bcd02815260206004820181905260248201526000805160206126e4833981519152604482015290519081900360640190fd5b6001600160a01b0381166119e95760408051600160e51b62461bcd02815260206004820152601760248201527f696e76616c696420736c61736865722061646472657373000000000000000000604482015290519081900360640190fd5b601280546001600160a01b0319166001600160a01b0392909216919091179055565b60105460408051600160e01b63cad413570281526001600160a01b0384811660048301529151600093929092169163cad4135791602480820192602092909190829003018186803b15801561095057600080fd5b611a67611659565b611aa95760408051600160e51b62461bcd02815260206004820181905260248201526000805160206126e4833981519152604482015290519081900360640190fd5b60105460408051600160e01b63f2fde38b0281526001600160a01b0384811660048301529151919092169163f2fde38b91602480830192600092919082900301818387803b158015611afa57600080fd5b505af11580156110af573d6000803e3d6000fd5b60408051808201909152600b548152600c54602082015260009061114990839061242a565b60065481565b60105460408051600160e11b62c985b70281526001600160a01b0384811660048301529151600093849316916301930b6e916024808301926020929190829003018186803b158015611b8a57600080fd5b505afa158015611b9e573d6000803e3d6000fd5b505050506040513d6020811015611bb457600080fd5b50519050611bc183611b0e565b801561089a57501592915050565b60608180611bdc57506002545b610c7c8482600061210d565b611bf0611659565b611c325760408051600160e51b62461bcd02815260206004820181905260248201526000805160206126e4833981519152604482015290519081900360640190fd5b611c3b8161256b565b50565b80611c48816110b6565b611c8657604051600160e51b62461bcd02815260040180806020018281038252602b8152602001806126b9602b913960400191505060405180910390fd5b60105460408051600160e01b63a30788150281526001600160a01b0385811660048301529151600093929092169163a307881591602480820192602092909190829003018186803b158015611cda57600080fd5b505afa158015611cee573d6000803e3d6000fd5b505050506040513d6020811015611d0457600080fd5b505160105460408051600160e01b63cad413570281526001600160a01b0387811660048301529151939450600093919092169163cad41357916024808301926020929190829003018186803b158015611d5c57600080fd5b505afa158015611d70573d6000803e3d6000fd5b505050506040513d6020811015611d8657600080fd5b505160105460408051600160e11b6320da21c90281526001600160a01b03888116600483015291519394509116916341b443929160248082019260009290919082900301818387803b158015611ddb57600080fd5b505af1158015611def573d6000803e3d6000fd5b5050600f5460408051600160e01b63a9059cbb0281526001600160a01b03878116600483015260248201879052915191909216935063a9059cbb925060448083019260209291908290030181600087803b158015611e4c57600080fd5b505af1158015611e60573d6000803e3d6000fd5b505050506040513d6020811015611e7657600080fd5b5051611ecc5760408051600160e51b62461bcd02815260206004820152601460248201527f626f6e64207472616e73666572206661696c6564000000000000000000000000604482015290519081900360640190fd5b6040805182815290516001600160a01b038416917f96ab9e56c79eee4a72db6e2879cbfbecdba5c65b411f4861824e66b89df19764919081900360200190a250505050565b60018054604080516020600284861615610100026000190190941693909304601f81018490048402820184019092528181529291830182828015611f965780601f10611f6b57610100808354040283529160200191611f96565b820191906000526020600020905b815481529060010190602001808311611f7957829003601f168201915b505050505081565b60105460408051600160e21b6338b5f1930281526001600160a01b03848116600483015291516000938493169163e2d7c64c916024808301926020929190829003018186803b158015611ff057600080fd5b505afa158015612004573d6000803e3d6000fd5b505050506040513d602081101561201a57600080fd5b505160105460408051600160e11b62c985b70281526001600160a01b038781166004830152915193945060009391909216916301930b6e916024808301926020929190829003018186803b15801561207157600080fd5b505afa158015612085573d6000803e3d6000fd5b505050506040513d602081101561209b57600080fd5b5051905081158015610c7c5750159392505050565b60008282018381101561089a5760408051600160e51b62461bcd02815260206004820152601b60248201527f536166654d6174683a206164646974696f6e206f766572666c6f770000000000604482015290519081900360640190fd5b6060828061211a57506002545b606081604051908082528060200260200182016040528015612146578160200160208202803883390190505b5090506000866001600160a01b0381166121d757601060009054906101000a90046001600160a01b03166001600160a01b0316631bce6ff36040518163ffffffff1660e01b815260040160206040518083038186803b1580156121a857600080fd5b505afa1580156121bc573d6000803e3d6000fd5b505050506040513d60208110156121d257600080fd5b505190505b8382101561162f576001600160a01b0381166121f25761162f565b6000861561220a576122038261130a565b9050612216565b61221382611b0e565b90505b806122a05760105460408051600160e11b6355b9f18b0281526001600160a01b0385811660048301529151919092169163ab73e316916024808301926020929190829003018186803b15801561226b57600080fd5b505afa15801561227f573d6000803e3d6000fd5b505050506040513d602081101561229557600080fd5b505191506121d79050565b818484815181106122ad57fe5b6001600160a01b0392831660209182029290920181019190915260105460408051600160e11b6355b9f18b02815286851660048201529051919093169263ab73e316926024808301939192829003018186803b15801561230c57600080fd5b505afa158015612320573d6000803e3d6000fd5b505050506040513d602081101561233657600080fd5b50516001939093019291506121d79050565b601054600754600c546001600160a01b0390921691633ac39d4b9184916123749163ffffffff6120b016565b6040518363ffffffff1660e01b815260040180836001600160a01b03166001600160a01b0316815260200182815260200192505050600060405180830381600087803b1580156123c357600080fd5b505af11580156123d7573d6000803e3d6000fd5b50506003546123f092509050600163ffffffff61260e16565b6003556040516001600160a01b038216907f2dc89de5703d2c341a22ebfc7c4d3f197e5e1f0c19bc2e1135f387163cb927e490600090a250565b60105460408051600160e21b6338b5f1930281526001600160a01b03858116600483015291516000938493169163e2d7c64c916024808301926020929190829003018186803b15801561247c57600080fd5b505afa158015612490573d6000803e3d6000fd5b505050506040513d60208110156124a657600080fd5b505160105460408051600160e11b62c985b70281526001600160a01b038881166004830152915193945060009391909216916301930b6e916024808301926020929190829003018186803b1580156124fd57600080fd5b505afa158015612511573d6000803e3d6000fd5b505050506040513d602081101561252757600080fd5b5051905060008215801590612540575084602001518311155b905060008215806125545750856020015183115b90508180156125605750805b979650505050505050565b6001600160a01b0381166125b357604051600160e51b62461bcd0281526004018080602001828103825260268152602001806126936026913960400191505060405180910390fd5b600080546040516001600160a01b03808516939216917f8be0079c531659141344cd1fd0a4f28419497f9722a3daafe3b4186f6b6457e091a3600080546001600160a01b0319166001600160a01b0392909216919091179055565b6000828211156126685760408051600160e51b62461bcd02815260206004820152601e60248201527f536166654d6174683a207375627472616374696f6e206f766572666c6f770000604482015290519081900360640190fd5b5090039056fe6d75737420626520726566756e646564206f72206e6576657220726567697374657265644f776e61626c653a206e6577206f776e657220697320746865207a65726f20616464726573736d7573742062652064657265676973746572656420666f72206174206c65617374206f6e652065706f63684f776e61626c653a2063616c6c6572206973206e6f7420746865206f776e6572a165627a7a72305820bab9bc785683948abe894b52a6d8c5b82d299fe93f8343f8a65874c30c9cfecb0029",
  "source": "pragma solidity ^0.5.8;\n\nimport \"openzeppelin-solidity/contracts/ownership/Ownable.sol\";\nimport \"openzeppelin-solidity/contracts/math/SafeMath.sol\";\n\nimport \"../RenToken/RenToken.sol\";\nimport \"../DarknodeSlasher/DarknodeSlasher.sol\";\nimport \"./DarknodeRegistryStore.sol\";\n\n/// @notice DarknodeRegistry is responsible for the registration and\n/// deregistration of Darknodes.\ncontract DarknodeRegistry is Ownable {\n    using SafeMath for uint256;\n\n    string public VERSION; // Passed in as a constructor parameter.\n\n    /// @notice Darknode pods are shuffled after a fixed number of blocks.\n    /// An Epoch stores an epoch hash used as an (insecure) RNG seed, and the\n    /// blocknumber which restricts when the next epoch can be called.\n    struct Epoch {\n        uint256 epochhash;\n        uint256 blocknumber;\n    }\n\n    uint256 public numDarknodes;\n    uint256 public numDarknodesNextEpoch;\n    uint256 public numDarknodesPreviousEpoch;\n\n    /// Variables used to parameterize behavior.\n    uint256 public minimumBond;\n    uint256 public minimumPodSize;\n    uint256 public minimumEpochInterval;\n\n    /// When one of the above variables is modified, it is only updated when the\n    /// next epoch is called. These variables store the values for the next epoch.\n    uint256 public nextMinimumBond;\n    uint256 public nextMinimumPodSize;\n    uint256 public nextMinimumEpochInterval;\n\n    /// The current and previous epoch\n    Epoch public currentEpoch;\n    Epoch public previousEpoch;\n\n    /// Republic ERC20 token contract used to transfer bonds.\n    RenToken public ren;\n\n    /// Darknode Registry Store is the storage contract for darknodes.\n    DarknodeRegistryStore public store;\n\n    /// Darknode Slasher allows darknodes to vote on bond slashing.\n    DarknodeSlasher public slasher;\n    DarknodeSlasher public nextSlasher;\n\n    /// @notice Emitted when a darknode is registered.\n    /// @param _darknodeID The darknode ID that was registered.\n    /// @param _bond The amount of REN that was transferred as bond.\n    event LogDarknodeRegistered(address indexed _darknodeID, uint256 _bond);\n\n    /// @notice Emitted when a darknode is deregistered.\n    /// @param _darknodeID The darknode ID that was deregistered.\n    event LogDarknodeDeregistered(address indexed _darknodeID);\n\n    /// @notice Emitted when a refund has been made.\n    /// @param _owner The address that was refunded.\n    /// @param _amount The amount of REN that was refunded.\n    event LogDarknodeOwnerRefunded(address indexed _owner, uint256 _amount);\n\n    /// @notice Emitted when a new epoch has begun.\n    event LogNewEpoch(uint256 indexed epochhash);\n\n    /// @notice Emitted when a constructor parameter has been updated.\n    event LogMinimumBondUpdated(uint256 previousMinimumBond, uint256 nextMinimumBond);\n    event LogMinimumPodSizeUpdated(uint256 previousMinimumPodSize, uint256 nextMinimumPodSize);\n    event LogMinimumEpochIntervalUpdated(uint256 previousMinimumEpochInterval, uint256 nextMinimumEpochInterval);\n    event LogSlasherUpdated(address previousSlasher, address nextSlasher);\n\n    /// @notice Only allow the owner that registered the darknode to pass.\n    modifier onlyDarknodeOwner(address _darknodeID) {\n        require(store.darknodeOwner(_darknodeID) == msg.sender, \"must be darknode owner\");\n        _;\n    }\n\n    /// @notice Only allow unregistered darknodes.\n    modifier onlyRefunded(address _darknodeID) {\n        require(isRefunded(_darknodeID), \"must be refunded or never registered\");\n        _;\n    }\n\n    /// @notice Only allow refundable darknodes.\n    modifier onlyRefundable(address _darknodeID) {\n        require(isRefundable(_darknodeID), \"must be deregistered for at least one epoch\");\n        _;\n    }\n\n    /// @notice Only allowed registered nodes without a pending deregistration to\n    /// deregister\n    modifier onlyDeregisterable(address _darknodeID) {\n        require(isDeregisterable(_darknodeID), \"must be deregisterable\");\n        _;\n    }\n\n    /// @notice Only allow the Slasher contract.\n    modifier onlySlasher() {\n        require(address(slasher) == msg.sender, \"must be slasher\");\n        _;\n    }\n\n    /// @notice The contract constructor.\n    ///\n    /// @param _VERSION A string defining the contract version.\n    /// @param _renAddress The address of the RenToken contract.\n    /// @param _storeAddress The address of the DarknodeRegistryStore contract.\n    /// @param _minimumBond The minimum bond amount that can be submitted by a\n    ///        Darknode.\n    /// @param _minimumPodSize The minimum size of a Darknode pod.\n    /// @param _minimumEpochInterval The minimum number of blocks between\n    ///        epochs.\n    constructor(\n        string memory _VERSION,\n        RenToken _renAddress,\n        DarknodeRegistryStore _storeAddress,\n        uint256 _minimumBond,\n        uint256 _minimumPodSize,\n        uint256 _minimumEpochInterval\n    ) public {\n        VERSION = _VERSION;\n\n        store = _storeAddress;\n        ren = _renAddress;\n\n        minimumBond = _minimumBond;\n        nextMinimumBond = minimumBond;\n\n        minimumPodSize = _minimumPodSize;\n        nextMinimumPodSize = minimumPodSize;\n\n        minimumEpochInterval = _minimumEpochInterval;\n        nextMinimumEpochInterval = minimumEpochInterval;\n\n        currentEpoch = Epoch({\n            epochhash: uint256(blockhash(block.number - 1)),\n            blocknumber: block.number\n        });\n        numDarknodes = 0;\n        numDarknodesNextEpoch = 0;\n        numDarknodesPreviousEpoch = 0;\n    }\n\n    /// @notice Register a darknode and transfer the bond to this contract.\n    /// Before registering, the bond transfer must be approved in the REN\n    /// contract. The caller must provide a public encryption key for the\n    /// darknode. The darknode will remain pending registration until the next\n    /// epoch. Only after this period can the darknode be deregistered. The\n    /// caller of this method will be stored as the owner of the darknode.\n    ///\n    /// @param _darknodeID The darknode ID that will be registered.\n    /// @param _publicKey The public key of the darknode. It is stored to allow\n    ///        other darknodes and traders to encrypt messages to the trader.\n    function register(address _darknodeID, bytes calldata _publicKey) external onlyRefunded(_darknodeID) {\n        // Use the current minimum bond as the darknode's bond.\n        uint256 bond = minimumBond;\n\n        // Transfer bond to store\n        require(ren.transferFrom(msg.sender, address(store), bond), \"bond transfer failed\");\n\n        // Flag this darknode for registration\n        store.appendDarknode(\n            _darknodeID,\n            msg.sender,\n            bond,\n            _publicKey,\n            currentEpoch.blocknumber.add(minimumEpochInterval),\n            0\n        );\n\n        numDarknodesNextEpoch = numDarknodesNextEpoch.add(1);\n\n        // Emit an event.\n        emit LogDarknodeRegistered(_darknodeID, bond);\n    }\n\n    /// @notice Deregister a darknode. The darknode will not be deregistered\n    /// until the end of the epoch. After another epoch, the bond can be\n    /// refunded by calling the refund method.\n    /// @param _darknodeID The darknode ID that will be deregistered. The caller\n    ///        of this method store.darknodeRegisteredAt(_darknodeID) must be\n    //         the owner of this darknode.\n    function deregister(address _darknodeID) external onlyDeregisterable(_darknodeID) onlyDarknodeOwner(_darknodeID) {\n        deregisterDarknode(_darknodeID);\n    }\n\n    /// @notice Progress the epoch if it is possible to do so. This captures\n    /// the current timestamp and current blockhash and overrides the current\n    /// epoch.\n    function epoch() external {\n        if (previousEpoch.blocknumber == 0) {\n            // The first epoch must be called by the owner of the contract\n            require(msg.sender == owner(), \"not authorized (first epochs)\");\n        }\n\n        // Require that the epoch interval has passed\n        require(block.number >= currentEpoch.blocknumber.add(minimumEpochInterval), \"epoch interval has not passed\");\n        uint256 epochhash = uint256(blockhash(block.number - 1));\n\n        // Update the epoch hash and timestamp\n        previousEpoch = currentEpoch;\n        currentEpoch = Epoch({\n            epochhash: epochhash,\n            blocknumber: block.number\n        });\n\n        // Update the registry information\n        numDarknodesPreviousEpoch = numDarknodes;\n        numDarknodes = numDarknodesNextEpoch;\n\n        // If any update functions have been called, update the values now\n        if (nextMinimumBond != minimumBond) {\n            minimumBond = nextMinimumBond;\n            emit LogMinimumBondUpdated(minimumBond, nextMinimumBond);\n        }\n        if (nextMinimumPodSize != minimumPodSize) {\n            minimumPodSize = nextMinimumPodSize;\n            emit LogMinimumPodSizeUpdated(minimumPodSize, nextMinimumPodSize);\n        }\n        if (nextMinimumEpochInterval != minimumEpochInterval) {\n            minimumEpochInterval = nextMinimumEpochInterval;\n            emit LogMinimumEpochIntervalUpdated(minimumEpochInterval, nextMinimumEpochInterval);\n        }\n        if (nextSlasher != slasher) {\n            slasher = nextSlasher;\n            emit LogSlasherUpdated(address(slasher), address(nextSlasher));\n        }\n\n        // Emit an event\n        emit LogNewEpoch(epochhash);\n    }\n\n    /// @notice Allows the contract owner to initiate an ownership transfer of\n    /// the DarknodeRegistryStore. \n    /// @param _newOwner The address to transfer the ownership to.\n    function transferStoreOwnership(address _newOwner) external onlyOwner {\n        store.transferOwnership(_newOwner);\n    }\n\n    /// @notice Claims ownership of the store passed in to the constructor.\n    /// `transferStoreOwnership` must have previously been called when\n    /// transferring from another Darknode Registry.\n    function claimStoreOwnership() external onlyOwner {\n        store.claimOwnership();\n    }\n\n    /// @notice Allows the contract owner to update the minimum bond.\n    /// @param _nextMinimumBond The minimum bond amount that can be submitted by\n    ///        a darknode.\n    function updateMinimumBond(uint256 _nextMinimumBond) external onlyOwner {\n        // Will be updated next epoch\n        nextMinimumBond = _nextMinimumBond;\n    }\n\n    /// @notice Allows the contract owner to update the minimum pod size.\n    /// @param _nextMinimumPodSize The minimum size of a pod.\n    function updateMinimumPodSize(uint256 _nextMinimumPodSize) external onlyOwner {\n        // Will be updated next epoch\n        nextMinimumPodSize = _nextMinimumPodSize;\n    }\n\n    /// @notice Allows the contract owner to update the minimum epoch interval.\n    /// @param _nextMinimumEpochInterval The minimum number of blocks between epochs.\n    function updateMinimumEpochInterval(uint256 _nextMinimumEpochInterval) external onlyOwner {\n        // Will be updated next epoch\n        nextMinimumEpochInterval = _nextMinimumEpochInterval;\n    }\n\n    /// @notice Allow the contract owner to update the DarknodeSlasher contract\n    /// address.\n    /// @param _slasher The new slasher address.\n    function updateSlasher(DarknodeSlasher _slasher) external onlyOwner {\n        require(address(_slasher) != address(0), \"invalid slasher address\");\n        nextSlasher = _slasher;\n    }\n\n    /// @notice Allow the DarknodeSlasher contract to slash half of a darknode's\n    /// bond and deregister it. The bond is distributed as follows:\n    ///   1/2 is kept by the guilty prover\n    ///   1/8 is rewarded to the first challenger\n    ///   1/8 is rewarded to the second challenger\n    ///   1/4 becomes unassigned\n    /// @param _prover The guilty prover whose bond is being slashed\n    /// @param _challenger1 The first of the two darknodes who submitted the challenge\n    /// @param _challenger2 The second of the two darknodes who submitted the challenge\n    function slash(address _prover, address _challenger1, address _challenger2)\n        external\n        onlySlasher\n    {\n        uint256 penalty = store.darknodeBond(_prover) / 2;\n        uint256 reward = penalty / 4;\n\n        // Slash the bond of the failed prover in half\n        store.updateDarknodeBond(_prover, penalty);\n\n        // If the darknode has not been deregistered then deregister it\n        if (isDeregisterable(_prover)) {\n            deregisterDarknode(_prover);\n        }\n\n        // Reward the challengers with less than the penalty so that it is not\n        // worth challenging yourself\n        require(ren.transfer(store.darknodeOwner(_challenger1), reward), \"reward transfer failed\");\n        require(ren.transfer(store.darknodeOwner(_challenger2), reward), \"reward transfer failed\");\n    }\n\n    /// @notice Refund the bond of a deregistered darknode. This will make the\n    /// darknode available for registration again. Anyone can call this function\n    /// but the bond will always be refunded to the darknode owner.\n    ///\n    /// @param _darknodeID The darknode ID that will be refunded. The caller\n    ///        of this method must be the owner of this darknode.\n    function refund(address _darknodeID) external onlyRefundable(_darknodeID) {\n        address darknodeOwner = store.darknodeOwner(_darknodeID);\n\n        // Remember the bond amount\n        uint256 amount = store.darknodeBond(_darknodeID);\n\n        // Erase the darknode from the registry\n        store.removeDarknode(_darknodeID);\n\n        // Refund the owner by transferring REN\n        require(ren.transfer(darknodeOwner, amount), \"bond transfer failed\");\n\n        // Emit an event.\n        emit LogDarknodeOwnerRefunded(darknodeOwner, amount);\n    }\n\n    /// @notice Retrieves the address of the account that registered a darknode.\n    /// @param _darknodeID The ID of the darknode to retrieve the owner for.\n    function getDarknodeOwner(address _darknodeID) external view returns (address payable) {\n        return store.darknodeOwner(_darknodeID);\n    }\n\n    /// @notice Retrieves the bond amount of a darknode in 10^-18 REN.\n    /// @param _darknodeID The ID of the darknode to retrieve the bond for.\n    function getDarknodeBond(address _darknodeID) external view returns (uint256) {\n        return store.darknodeBond(_darknodeID);\n    }\n\n    /// @notice Retrieves the encryption public key of the darknode.\n    /// @param _darknodeID The ID of the darknode to retrieve the public key for.\n    function getDarknodePublicKey(address _darknodeID) external view returns (bytes memory) {\n        return store.darknodePublicKey(_darknodeID);\n    }\n\n    /// @notice Retrieves a list of darknodes which are registered for the\n    /// current epoch.\n    /// @param _start A darknode ID used as an offset for the list. If _start is\n    ///        0x0, the first dark node will be used. _start won't be\n    ///        included it is not registered for the epoch.\n    /// @param _count The number of darknodes to retrieve starting from _start.\n    ///        If _count is 0, all of the darknodes from _start are\n    ///        retrieved. If _count is more than the remaining number of\n    ///        registered darknodes, the rest of the list will contain\n    ///        0x0s.\n    function getDarknodes(address _start, uint256 _count) external view returns (address[] memory) {\n        uint256 count = _count;\n        if (count == 0) {\n            count = numDarknodes;\n        }\n        return getDarknodesFromEpochs(_start, count, false);\n    }\n\n    /// @notice Retrieves a list of darknodes which were registered for the\n    /// previous epoch. See `getDarknodes` for the parameter documentation.\n    function getPreviousDarknodes(address _start, uint256 _count) external view returns (address[] memory) {\n        uint256 count = _count;\n        if (count == 0) {\n            count = numDarknodesPreviousEpoch;\n        }\n        return getDarknodesFromEpochs(_start, count, true);\n    }\n\n    /// @notice Returns whether a darknode is scheduled to become registered\n    /// at next epoch.\n    /// @param _darknodeID The ID of the darknode to return\n    function isPendingRegistration(address _darknodeID) external view returns (bool) {\n        uint256 registeredAt = store.darknodeRegisteredAt(_darknodeID);\n        return registeredAt != 0 && registeredAt > currentEpoch.blocknumber;\n    }\n\n    /// @notice Returns if a darknode is in the pending deregistered state. In\n    /// this state a darknode is still considered registered.\n    function isPendingDeregistration(address _darknodeID) external view returns (bool) {\n        uint256 deregisteredAt = store.darknodeDeregisteredAt(_darknodeID);\n        return deregisteredAt != 0 && deregisteredAt > currentEpoch.blocknumber;\n    }\n\n    /// @notice Returns if a darknode is in the deregistered state.\n    function isDeregistered(address _darknodeID) public view returns (bool) {\n        uint256 deregisteredAt = store.darknodeDeregisteredAt(_darknodeID);\n        return deregisteredAt != 0 && deregisteredAt <= currentEpoch.blocknumber;\n    }\n\n    /// @notice Returns if a darknode can be deregistered. This is true if the\n    /// darknodes is in the registered state and has not attempted to\n    /// deregister yet.\n    function isDeregisterable(address _darknodeID) public view returns (bool) {\n        uint256 deregisteredAt = store.darknodeDeregisteredAt(_darknodeID);\n        // The Darknode is currently in the registered state and has not been\n        // transitioned to the pending deregistration, or deregistered, state\n        return isRegistered(_darknodeID) && deregisteredAt == 0;\n    }\n\n    /// @notice Returns if a darknode is in the refunded state. This is true\n    /// for darknodes that have never been registered, or darknodes that have\n    /// been deregistered and refunded.\n    function isRefunded(address _darknodeID) public view returns (bool) {\n        uint256 registeredAt = store.darknodeRegisteredAt(_darknodeID);\n        uint256 deregisteredAt = store.darknodeDeregisteredAt(_darknodeID);\n        return registeredAt == 0 && deregisteredAt == 0;\n    }\n\n    /// @notice Returns if a darknode is refundable. This is true for darknodes\n    /// that have been in the deregistered state for one full epoch.\n    function isRefundable(address _darknodeID) public view returns (bool) {\n        return isDeregistered(_darknodeID) && store.darknodeDeregisteredAt(_darknodeID) <= previousEpoch.blocknumber;\n    }\n\n    /// @notice Returns if a darknode is in the registered state.\n    function isRegistered(address _darknodeID) public view returns (bool) {\n        return isRegisteredInEpoch(_darknodeID, currentEpoch);\n    }\n\n    /// @notice Returns if a darknode was in the registered state last epoch.\n    function isRegisteredInPreviousEpoch(address _darknodeID) public view returns (bool) {\n        return isRegisteredInEpoch(_darknodeID, previousEpoch);\n    }\n\n    /// @notice Returns if a darknode was in the registered state for a given\n    /// epoch.\n    /// @param _darknodeID The ID of the darknode\n    /// @param _epoch One of currentEpoch, previousEpoch\n    function isRegisteredInEpoch(address _darknodeID, Epoch memory _epoch) private view returns (bool) {\n        uint256 registeredAt = store.darknodeRegisteredAt(_darknodeID);\n        uint256 deregisteredAt = store.darknodeDeregisteredAt(_darknodeID);\n        bool registered = registeredAt != 0 && registeredAt <= _epoch.blocknumber;\n        bool notDeregistered = deregisteredAt == 0 || deregisteredAt > _epoch.blocknumber;\n        // The Darknode has been registered and has not yet been deregistered,\n        // although it might be pending deregistration\n        return registered && notDeregistered;\n    }\n\n    /// @notice Returns a list of darknodes registered for either the current\n    /// or the previous epoch. See `getDarknodes` for documentation on the\n    /// parameters `_start` and `_count`.\n    /// @param _usePreviousEpoch If true, use the previous epoch, otherwise use\n    ///        the current epoch.\n    function getDarknodesFromEpochs(address _start, uint256 _count, bool _usePreviousEpoch) private view returns (address[] memory) {\n        uint256 count = _count;\n        if (count == 0) {\n            count = numDarknodes;\n        }\n\n        address[] memory nodes = new address[](count);\n\n        // Begin with the first node in the list\n        uint256 n = 0;\n        address next = _start;\n        if (next == address(0)) {\n            next = store.begin();\n        }\n\n        // Iterate until all registered Darknodes have been collected\n        while (n < count) {\n            if (next == address(0)) {\n                break;\n            }\n            // Only include Darknodes that are currently registered\n            bool includeNext;\n            if (_usePreviousEpoch) {\n                includeNext = isRegisteredInPreviousEpoch(next);\n            } else {\n                includeNext = isRegistered(next);\n            }\n            if (!includeNext) {\n                next = store.next(next);\n                continue;\n            }\n            nodes[n] = next;\n            next = store.next(next);\n            n += 1;\n        }\n        return nodes;\n    }\n\n    /// Private function called by `deregister` and `slash`\n    function deregisterDarknode(address _darknodeID) private {\n        // Flag the darknode for deregistration\n        store.updateDarknodeDeregisteredAt(_darknodeID, currentEpoch.blocknumber.add(minimumEpochInterval));\n        numDarknodesNextEpoch = numDarknodesNextEpoch.sub(1);\n\n        // Emit an event\n        emit LogDarknodeDeregistered(_darknodeID);\n    }\n}\n",
  "sourcePath": "/home/noah/github/renproject/darknode-sol/contracts/DarknodeRegistry/DarknodeRegistry.sol",
  "compiler": {
    "name": "solc",
    "version": "0.5.8+commit.23d335f2.Emscripten.clang"
  },
  "schemaVersion": "3.0.11",
  "updatedAt": "2019-06-14T05:46:17.819Z",
  "devdoc": {
    "methods": {
      "constructor": {
        "params": {
          "_VERSION": "A string defining the contract version.",
          "_minimumBond": "The minimum bond amount that can be submitted by a        Darknode.",
          "_minimumEpochInterval": "The minimum number of blocks between        epochs.",
          "_minimumPodSize": "The minimum size of a Darknode pod.",
          "_renAddress": "The address of the RenToken contract.",
          "_storeAddress": "The address of the DarknodeRegistryStore contract."
        }
      },
      "deregister(address)": {
        "params": {
          "_darknodeID": "The darknode ID that will be deregistered. The caller        of this method store.darknodeRegisteredAt(_darknodeID) must be"
        }
      },
      "getDarknodeBond(address)": {
        "params": {
          "_darknodeID": "The ID of the darknode to retrieve the bond for."
        }
      },
      "getDarknodeOwner(address)": {
        "params": {
          "_darknodeID": "The ID of the darknode to retrieve the owner for."
        }
      },
      "getDarknodePublicKey(address)": {
        "params": {
          "_darknodeID": "The ID of the darknode to retrieve the public key for."
        }
      },
      "getDarknodes(address,uint256)": {
        "params": {
          "_count": "The number of darknodes to retrieve starting from _start.        If _count is 0, all of the darknodes from _start are        retrieved. If _count is more than the remaining number of        registered darknodes, the rest of the list will contain        0x0s.",
          "_start": "A darknode ID used as an offset for the list. If _start is        0x0, the first dark node will be used. _start won't be        included it is not registered for the epoch."
        }
      },
      "isOwner()": {
        "details": "Returns true if the caller is the current owner."
      },
      "isPendingRegistration(address)": {
        "params": {
          "_darknodeID": "The ID of the darknode to return"
        }
      },
      "owner()": {
        "details": "Returns the address of the current owner."
      },
      "refund(address)": {
        "params": {
          "_darknodeID": "The darknode ID that will be refunded. The caller        of this method must be the owner of this darknode."
        }
      },
      "register(address,bytes)": {
        "params": {
          "_darknodeID": "The darknode ID that will be registered.",
          "_publicKey": "The public key of the darknode. It is stored to allow        other darknodes and traders to encrypt messages to the trader."
        }
      },
      "renounceOwnership()": {
        "details": "Leaves the contract without owner. It will not be possible to call `onlyOwner` functions anymore. Can only be called by the current owner.     * > Note: Renouncing ownership will leave the contract without an owner, thereby removing any functionality that is only available to the owner."
      },
      "slash(address,address,address)": {
        "params": {
          "_challenger1": "The first of the two darknodes who submitted the challenge",
          "_challenger2": "The second of the two darknodes who submitted the challenge",
          "_prover": "The guilty prover whose bond is being slashed"
        }
      },
      "transferOwnership(address)": {
        "details": "Transfers ownership of the contract to a new account (`newOwner`). Can only be called by the current owner."
      },
      "transferStoreOwnership(address)": {
        "params": {
          "_newOwner": "The address to transfer the ownership to."
        }
      },
      "updateMinimumBond(uint256)": {
        "params": {
          "_nextMinimumBond": "The minimum bond amount that can be submitted by        a darknode."
        }
      },
      "updateMinimumEpochInterval(uint256)": {
        "params": {
          "_nextMinimumEpochInterval": "The minimum number of blocks between epochs."
        }
      },
      "updateMinimumPodSize(uint256)": {
        "params": {
          "_nextMinimumPodSize": "The minimum size of a pod."
        }
      },
      "updateSlasher(address)": {
        "params": {
          "_slasher": "The new slasher address."
        }
      }
    }
  },
  "userdoc": {
    "methods": {
      "claimStoreOwnership()": {
        "notice": "Claims ownership of the store passed in to the constructor. `transferStoreOwnership` must have previously been called when transferring from another Darknode Registry."
      },
      "constructor": "The contract constructor. ",
      "deregister(address)": {
        "notice": "Deregister a darknode. The darknode will not be deregistered until the end of the epoch. After another epoch, the bond can be refunded by calling the refund method."
      },
      "epoch()": {
        "notice": "Progress the epoch if it is possible to do so. This captures the current timestamp and current blockhash and overrides the current epoch."
      },
      "getDarknodeBond(address)": {
        "notice": "Retrieves the bond amount of a darknode in 10^-18 REN."
      },
      "getDarknodeOwner(address)": {
        "notice": "Retrieves the address of the account that registered a darknode."
      },
      "getDarknodePublicKey(address)": {
        "notice": "Retrieves the encryption public key of the darknode."
      },
      "getDarknodes(address,uint256)": {
        "notice": "Retrieves a list of darknodes which are registered for the current epoch."
      },
      "getPreviousDarknodes(address,uint256)": {
        "notice": "Retrieves a list of darknodes which were registered for the previous epoch. See `getDarknodes` for the parameter documentation."
      },
      "isDeregisterable(address)": {
        "notice": "Returns if a darknode can be deregistered. This is true if the darknodes is in the registered state and has not attempted to deregister yet."
      },
      "isDeregistered(address)": {
        "notice": "Returns if a darknode is in the deregistered state."
      },
      "isPendingDeregistration(address)": {
        "notice": "Returns if a darknode is in the pending deregistered state. In this state a darknode is still considered registered."
      },
      "isPendingRegistration(address)": {
        "notice": "Returns whether a darknode is scheduled to become registered at next epoch."
      },
      "isRefundable(address)": {
        "notice": "Returns if a darknode is refundable. This is true for darknodes that have been in the deregistered state for one full epoch."
      },
      "isRefunded(address)": {
        "notice": "Returns if a darknode is in the refunded state. This is true for darknodes that have never been registered, or darknodes that have been deregistered and refunded."
      },
      "isRegistered(address)": {
        "notice": "Returns if a darknode is in the registered state."
      },
      "isRegisteredInPreviousEpoch(address)": {
        "notice": "Returns if a darknode was in the registered state last epoch."
      },
      "refund(address)": {
        "notice": "Refund the bond of a deregistered darknode. This will make the darknode available for registration again. Anyone can call this function but the bond will always be refunded to the darknode owner. "
      },
      "register(address,bytes)": {
        "notice": "Register a darknode and transfer the bond to this contract. Before registering, the bond transfer must be approved in the REN contract. The caller must provide a public encryption key for the darknode. The darknode will remain pending registration until the next epoch. Only after this period can the darknode be deregistered. The caller of this method will be stored as the owner of the darknode. "
      },
      "slash(address,address,address)": {
        "notice": "Allow the DarknodeSlasher contract to slash half of a darknode's bond and deregister it. The bond is distributed as follows:   1/2 is kept by the guilty prover   1/8 is rewarded to the first challenger   1/8 is rewarded to the second challenger   1/4 becomes unassigned"
      },
      "transferStoreOwnership(address)": {
        "notice": "Allows the contract owner to initiate an ownership transfer of the DarknodeRegistryStore. "
      },
      "updateMinimumBond(uint256)": {
        "notice": "Allows the contract owner to update the minimum bond."
      },
      "updateMinimumEpochInterval(uint256)": {
        "notice": "Allows the contract owner to update the minimum epoch interval."
      },
      "updateMinimumPodSize(uint256)": {
        "notice": "Allows the contract owner to update the minimum pod size."
      },
      "updateSlasher(address)": {
        "notice": "Allow the contract owner to update the DarknodeSlasher contract address."
      }
    },
    "notice": "DarknodeRegistry is responsible for the registration and deregistration of Darknodes."
  }
}