{
  "contractName": "ProtocolLogic",
  "abi": [
    {
      "constant": true,
      "inputs": [],
      "name": "owner",
      "outputs": [
        {
          "internalType": "address",
          "name": "",
          "type": "address"
        }
      ],
      "payable": false,
      "stateMutability": "view",
      "type": "function"
    },
    {
      "constant": false,
      "inputs": [
        {
          "internalType": "address",
          "name": "_owner",
          "type": "address"
        }
      ],
      "name": "initialize",
      "outputs": [],
      "payable": false,
      "stateMutability": "nonpayable",
      "type": "function"
    },
    {
      "constant": true,
      "inputs": [],
      "name": "darknodeRegistry",
      "outputs": [
        {
          "internalType": "contract DarknodeRegistry",
          "name": "",
          "type": "address"
        }
      ],
      "payable": false,
      "stateMutability": "view",
      "type": "function"
    },
    {
      "constant": true,
      "inputs": [],
      "name": "darknodeRegistryStore",
      "outputs": [
        {
          "internalType": "contract DarknodeRegistryStore",
          "name": "",
          "type": "address"
        }
      ],
      "payable": false,
      "stateMutability": "view",
      "type": "function"
    },
    {
      "constant": true,
      "inputs": [],
      "name": "renToken",
      "outputs": [
        {
          "internalType": "contract RenToken",
          "name": "",
          "type": "address"
        }
      ],
      "payable": false,
      "stateMutability": "view",
      "type": "function"
    },
    {
      "constant": true,
      "inputs": [],
      "name": "darknodePayment",
      "outputs": [
        {
          "internalType": "contract DarknodePayment",
          "name": "",
          "type": "address"
        }
      ],
      "payable": false,
      "stateMutability": "view",
      "type": "function"
    },
    {
      "constant": true,
      "inputs": [],
      "name": "darknodePaymentStore",
      "outputs": [
        {
          "internalType": "contract DarknodePaymentStore",
          "name": "",
          "type": "address"
        }
      ],
      "payable": false,
      "stateMutability": "view",
      "type": "function"
    },
    {
      "constant": true,
      "inputs": [],
      "name": "darknodeSlasher",
      "outputs": [
        {
          "internalType": "contract DarknodeSlasher",
          "name": "",
          "type": "address"
        }
      ],
      "payable": false,
      "stateMutability": "view",
      "type": "function"
    },
    {
      "constant": true,
      "inputs": [],
      "name": "shifterRegistry",
      "outputs": [
        {
          "internalType": "contract ShifterRegistry",
          "name": "",
          "type": "address"
        }
      ],
      "payable": false,
      "stateMutability": "view",
      "type": "function"
    },
    {
      "constant": true,
      "inputs": [
        {
          "internalType": "address",
          "name": "_start",
          "type": "address"
        },
        {
          "internalType": "uint256",
          "name": "_count",
          "type": "uint256"
        }
      ],
      "name": "getShifters",
      "outputs": [
        {
          "internalType": "address[]",
          "name": "",
          "type": "address[]"
        }
      ],
      "payable": false,
      "stateMutability": "view",
      "type": "function"
    },
    {
      "constant": true,
      "inputs": [
        {
          "internalType": "address",
          "name": "_start",
          "type": "address"
        },
        {
          "internalType": "uint256",
          "name": "_count",
          "type": "uint256"
        }
      ],
      "name": "getShiftedTokens",
      "outputs": [
        {
          "internalType": "address[]",
          "name": "",
          "type": "address[]"
        }
      ],
      "payable": false,
      "stateMutability": "view",
      "type": "function"
    },
    {
      "constant": true,
      "inputs": [
        {
          "internalType": "address",
          "name": "_tokenAddress",
          "type": "address"
        }
      ],
      "name": "getShifterByToken",
      "outputs": [
        {
          "internalType": "contract IShifter",
          "name": "",
          "type": "address"
        }
      ],
      "payable": false,
      "stateMutability": "view",
      "type": "function"
    },
    {
      "constant": true,
      "inputs": [
        {
          "internalType": "string",
          "name": "_tokenSymbol",
          "type": "string"
        }
      ],
      "name": "getShifterBySymbol",
      "outputs": [
        {
          "internalType": "contract IShifter",
          "name": "",
          "type": "address"
        }
      ],
      "payable": false,
      "stateMutability": "view",
      "type": "function"
    },
    {
      "constant": true,
      "inputs": [
        {
          "internalType": "string",
          "name": "_tokenSymbol",
          "type": "string"
        }
      ],
      "name": "getTokenBySymbol",
      "outputs": [
        {
          "internalType": "address",
          "name": "",
          "type": "address"
        }
      ],
      "payable": false,
      "stateMutability": "view",
      "type": "function"
    },
    {
      "constant": false,
      "inputs": [
        {
          "internalType": "contract DarknodeRegistry",
          "name": "_newDarknodeRegistry",
          "type": "address"
        }
      ],
      "name": "_updateDarknodeRegistry",
      "outputs": [],
      "payable": false,
      "stateMutability": "nonpayable",
      "type": "function"
    },
    {
      "constant": false,
      "inputs": [
        {
          "internalType": "contract ShifterRegistry",
          "name": "_newShifterRegistry",
          "type": "address"
        }
      ],
      "name": "_updateShifterRegistry",
      "outputs": [],
      "payable": false,
      "stateMutability": "nonpayable",
      "type": "function"
    }
  ],
  "bytecode": "0x608060405234801561001057600080fd5b50610aae806100206000396000f3fe608060405234801561001057600080fd5b50600436106101005760003560e01c8063a47c84bd11610097578063c4d66de811610066578063c4d66de8146102b9578063deeb2efe146102df578063e6a12ca91461030b578063efa74f1f1461031357610100565b8063a47c84bd14610225578063b6b34c67146102a1578063bcfe9fe5146102a9578063c4259606146102b157610100565b80638da5cb5b116100d35780638da5cb5b1461019d57806392a29e30146101a5578063981a58e9146102155780639e45e0d01461021d57610100565b8063179091a41461010557806328c4f4101461012d57806334246f9b1461016f578063715a613214610177575b600080fd5b61012b6004803603602081101561011b57600080fd5b50356001600160a01b0316610383565b005b6101536004803603602081101561014357600080fd5b50356001600160a01b0316610404565b604080516001600160a01b039092168252519081900360200190f35b610153610495565b61012b6004803603602081101561018d57600080fd5b50356001600160a01b0316610508565b610153610589565b610153600480360360208110156101bb57600080fd5b8101906020810181356401000000008111156101d657600080fd5b8201836020820111156101e857600080fd5b8035906020019184600183028401116401000000008311171561020a57600080fd5b509092509050610598565b610153610643565b610153610685565b6102516004803603604081101561023b57600080fd5b506001600160a01b038135169060200135610694565b60408051602080825283518183015283519192839290830191858101910280838360005b8381101561028d578181015183820152602001610275565b505050509050019250505060405180910390f35b6101536107cc565b610153610847565b610153610851565b61012b600480360360208110156102cf57600080fd5b50356001600160a01b0316610896565b610251600480360360408110156102f557600080fd5b506001600160a01b038135169060200135610954565b6101536109bb565b6101536004803603602081101561032957600080fd5b81019060208101813564010000000081111561034457600080fd5b82018360208201111561035657600080fd5b8035906020019184600183028401116401000000008311171561037857600080fd5b5090925090506109ca565b6033546001600160a01b031633146103e2576040805162461bcd60e51b815260206004820181905260248201527f4f776e61626c653a2063616c6c6572206973206e6f7420746865206f776e6572604482015290519081900360640190fd5b603480546001600160a01b0319166001600160a01b0392909216919091179055565b600061040e6109bb565b6001600160a01b03166328c4f410836040518263ffffffff1660e01b815260040180826001600160a01b03166001600160a01b0316815260200191505060206040518083038186803b15801561046357600080fd5b505afa158015610477573d6000803e3d6000fd5b505050506040513d602081101561048d57600080fd5b505192915050565b600061049f610685565b6001600160a01b0316638a9b40676040518163ffffffff1660e01b815260040160206040518083038186803b1580156104d757600080fd5b505afa1580156104eb573d6000803e3d6000fd5b505050506040513d602081101561050157600080fd5b5051905090565b6033546001600160a01b03163314610567576040805162461bcd60e51b815260206004820181905260248201527f4f776e61626c653a2063616c6c6572206973206e6f7420746865206f776e6572604482015290519081900360640190fd5b603580546001600160a01b0319166001600160a01b0392909216919091179055565b6033546001600160a01b031681565b60006105a26109bb565b6001600160a01b03166392a29e3084846040518363ffffffff1660e01b815260040180806020018281038252848482818152602001925080828437600083820152604051601f909101601f191690920195506020945090925050508083038186803b15801561061057600080fd5b505afa158015610624573d6000803e3d6000fd5b505050506040513d602081101561063a57600080fd5b50519392505050565b600061064d610685565b6001600160a01b031663975057e76040518163ffffffff1660e01b815260040160206040518083038186803b1580156104d757600080fd5b6034546001600160a01b031690565b606061069e6109bb565b6001600160a01b031663a47c84bd84846040518363ffffffff1660e01b815260040180836001600160a01b03166001600160a01b031681526020018281526020019250505060006040518083038186803b1580156106fb57600080fd5b505afa15801561070f573d6000803e3d6000fd5b505050506040513d6000823e601f3d908101601f19168201604052602081101561073857600080fd5b810190808051604051939291908464010000000082111561075857600080fd5b90830190602082018581111561076d57600080fd5b825186602082028301116401000000008211171561078a57600080fd5b82525081516020918201928201910280838360005b838110156107b757818101518382015260200161079f565b50505050905001604052505050905092915050565b60006108426107d9610685565b6001600160a01b031663b6b34c676040518163ffffffff1660e01b815260040160206040518083038186803b15801561081157600080fd5b505afa158015610825573d6000803e3d6000fd5b505050506040513d602081101561083b57600080fd5b5051610a42565b905090565b600061064d6107cc565b600061084261085e610685565b6001600160a01b031663b13442716040518163ffffffff1660e01b815260040160206040518083038186803b15801561081157600080fd5b600054610100900460ff16806108af57506108af610a45565b806108bd575060005460ff16155b6108f85760405162461bcd60e51b815260040180806020018281038252602e815260200180610a4c602e913960400191505060405180910390fd5b600054610100900460ff16158015610923576000805460ff1961ff0019909116610100171660011790555b603380546001600160a01b0319166001600160a01b0384161790558015610950576000805461ff00191690555b5050565b606061095e6109bb565b6001600160a01b031663deeb2efe84846040518363ffffffff1660e01b815260040180836001600160a01b03166001600160a01b031681526020018281526020019250505060006040518083038186803b1580156106fb57600080fd5b6035546001600160a01b031690565b60006109d46109bb565b6001600160a01b031663efa74f1f84846040518363ffffffff1660e01b815260040180806020018281038252848482818152602001925080828437600083820152604051601f909101601f191690920195506020945090925050508083038186803b15801561061057600080fd5b90565b303b159056fe436f6e747261637420696e7374616e63652068617320616c7265616479206265656e20696e697469616c697a6564a265627a7a7231582064760005b04ae8ec9c0cc9066d0e37d3ae9769f75940778ba031f7f90192ad4464736f6c634300050c0032",
  "source": "pragma solidity 0.5.12;\n\nimport \"@openzeppelin/upgrades/contracts/Initializable.sol\";\n\nimport \"../DarknodePayment/DarknodePayment.sol\";\nimport \"../DarknodePayment/DarknodePaymentStore.sol\";\nimport \"../DarknodeRegistry/DarknodeRegistry.sol\";\nimport \"../DarknodeRegistry/DarknodeRegistryStore.sol\";\nimport \"../DarknodeSlasher/DarknodeSlasher.sol\";\nimport \"../RenToken/RenToken.sol\";\nimport \"../Shifter/Shifter.sol\";\nimport \"../Shifter/ShifterRegistry.sol\";\nimport \"./ProtocolStorage.sol\";\n\n/// @notice ProtocolLogic implements the getter functions for the Protocol proxy\n/// as well as onlyOwner functions for updating the values in ProtocolStorage.\ncontract ProtocolLogic is Initializable, ProtocolStorage {\n\n    modifier onlyOwner() {\n         require(msg.sender == owner, \"Ownable: caller is not the owner\");\n        _;\n    }\n\n    function initialize(address _owner) public initializer {\n        owner = _owner;\n    }\n\n    // Darknode contracts\n\n    function darknodeRegistry() public view returns (DarknodeRegistry) {\n        return ProtocolStorage._darknodeRegistry;\n    }\n\n    function darknodeRegistryStore() public view returns (DarknodeRegistryStore) {\n        return darknodeRegistry().store();\n    }\n\n    function renToken() public view returns (RenToken) {\n        return darknodeRegistry().ren();\n    }\n\n    function darknodePayment() public view returns (DarknodePayment) {\n        return DarknodePayment(_payableAddress(address(darknodeRegistry().darknodePayment())));\n    }\n\n    function darknodePaymentStore() public view returns (DarknodePaymentStore) {\n        return darknodePayment().store();\n    }\n\n    function darknodeSlasher() public view returns (DarknodeSlasher) {\n        return DarknodeSlasher(_payableAddress(address(darknodeRegistry().slasher())));\n    }\n\n    // Shifter contracts\n\n    function shifterRegistry() public view returns (ShifterRegistry) {\n        return ProtocolStorage._shifterRegistry;\n    }\n\n    function getShifters(address _start, uint256 _count) external view returns (address[] memory) {\n        return shifterRegistry().getShifters(_start, _count);\n    }\n\n    function getShiftedTokens(address _start, uint256 _count) external view returns (address[] memory) {\n        return shifterRegistry().getShiftedTokens(_start, _count);\n    }\n\n    function getShifterByToken(address _tokenAddress) external view returns (IShifter) {\n        return shifterRegistry().getShifterByToken(_tokenAddress);\n    }\n\n    function getShifterBySymbol(string calldata _tokenSymbol) external view returns (IShifter) {\n        return shifterRegistry().getShifterBySymbol(_tokenSymbol);\n    }\n\n    function getTokenBySymbol(string calldata _tokenSymbol) external view returns (address) {\n        return shifterRegistry().getTokenBySymbol(_tokenSymbol);\n    }\n\n    // Only owner //////////////////////////////////////////////////////////////\n\n    /// @notice Update the address of DarknodeRegistry. This could affect the\n    /// addresses of DarknodeRegistryStore, DarknodePayment,\n    /// DarknodePaymentStore and DarknodeSlasher.\n    function _updateDarknodeRegistry(DarknodeRegistry _newDarknodeRegistry) public onlyOwner {\n        ProtocolStorage._darknodeRegistry = _newDarknodeRegistry;\n    }\n\n    /// @notice Update the address of ShifterRegistry. This could affect the\n    /// addresses of all of the shifters and shifted tokens.\n    function _updateShifterRegistry(ShifterRegistry _newShifterRegistry) public onlyOwner {\n        ProtocolStorage._shifterRegistry = _newShifterRegistry;\n    }\n\n    // Internal functions //////////////////////////////////////////////////////\n\n    // Cast an address to a payable address\n    function _payableAddress(address a) internal pure returns (address payable) {\n        return address(uint160(address(a)));\n    }\n}\n",
  "sourcePath": "/home/noah/github/renproject/darknode-sol/contracts/Protocol/ProtocolLogic.sol",
  "compiler": {
    "name": "solc",
    "version": "0.5.12+commit.7709ece9.Emscripten.clang"
  },
  "schemaVersion": "3.0.20",
  "updatedAt": "2020-01-15T23:59:30.868Z",
  "networkType": "ethereum",
  "devdoc": {
    "methods": {}
  },
  "userdoc": {
    "methods": {
      "_updateDarknodeRegistry(address)": {
        "notice": "Update the address of DarknodeRegistry. This could affect the addresses of DarknodeRegistryStore, DarknodePayment, DarknodePaymentStore and DarknodeSlasher."
      },
      "_updateShifterRegistry(address)": {
        "notice": "Update the address of ShifterRegistry. This could affect the addresses of all of the shifters and shifted tokens."
      }
    },
    "notice": "ProtocolLogic implements the getter functions for the Protocol proxy as well as onlyOwner functions for updating the values in ProtocolStorage."
  }
}