{
  "contractName": "ShifterRegistry",
  "abi": [
    {
      "constant": false,
      "inputs": [],
      "name": "claimOwnership",
      "outputs": [],
      "payable": false,
      "stateMutability": "nonpayable",
      "type": "function"
    },
    {
      "constant": false,
      "inputs": [],
      "name": "renounceOwnership",
      "outputs": [],
      "payable": false,
      "stateMutability": "nonpayable",
      "type": "function"
    },
    {
      "constant": true,
      "inputs": [],
      "name": "owner",
      "outputs": [
        {
          "name": "",
          "type": "address"
        }
      ],
      "payable": false,
      "stateMutability": "view",
      "type": "function"
    },
    {
      "constant": true,
      "inputs": [],
      "name": "isOwner",
      "outputs": [
        {
          "name": "",
          "type": "bool"
        }
      ],
      "payable": false,
      "stateMutability": "view",
      "type": "function"
    },
    {
      "constant": false,
      "inputs": [
        {
          "name": "newOwner",
          "type": "address"
        }
      ],
      "name": "transferOwnership",
      "outputs": [],
      "payable": false,
      "stateMutability": "nonpayable",
      "type": "function"
    },
    {
      "anonymous": false,
      "inputs": [
        {
          "indexed": true,
          "name": "previousOwner",
          "type": "address"
        },
        {
          "indexed": true,
          "name": "newOwner",
          "type": "address"
        }
      ],
      "name": "OwnershipTransferred",
      "type": "event"
    },
    {
      "constant": false,
      "inputs": [
        {
          "name": "_tokenAddress",
          "type": "address"
        },
        {
          "name": "_shifterAddress",
          "type": "address"
        }
      ],
      "name": "setShifter",
      "outputs": [],
      "payable": false,
      "stateMutability": "nonpayable",
      "type": "function"
    },
    {
      "constant": true,
      "inputs": [
        {
          "name": "_tokenAddress",
          "type": "address"
        }
      ],
      "name": "getShifter",
      "outputs": [
        {
          "name": "",
          "type": "address"
        }
      ],
      "payable": false,
      "stateMutability": "view",
      "type": "function"
    },
    {
      "constant": true,
      "inputs": [
        {
          "name": "_tokenSymbol",
          "type": "string"
        }
      ],
      "name": "getShifterBySymbol",
      "outputs": [
        {
          "name": "",
          "type": "address"
        }
      ],
      "payable": false,
      "stateMutability": "view",
      "type": "function"
    }
  ],
  "bytecode": "0x60806040819052600180546001600160a01b0319163317908190556001600160a01b0316906000907f8be0079c531659141344cd1fd0a4f28419497f9722a3daafe3b4186f6b6457e0908290a36105f18061005b6000396000f3fe608060405234801561001057600080fd5b50600436106100885760003560e01c80638f32d59b1161005b5780638f32d59b146100e957806392a29e3014610105578063a904d13d14610175578063f2fde38b146101a357610088565b806322101d1f1461008d5780634e71e0c8146100cf578063715018a6146100d95780638da5cb5b146100e1575b600080fd5b6100b3600480360360208110156100a357600080fd5b50356001600160a01b03166101c9565b604080516001600160a01b039092168252519081900360200190f35b6100d76101e7565b005b6100d76102ae565b6100b3610347565b6100f1610356565b604080519115158252519081900360200190f35b6100b36004803603602081101561011b57600080fd5b81019060208101813564010000000081111561013657600080fd5b82018360208201111561014857600080fd5b8035906020019184600183028401116401000000008311171561016a57600080fd5b509092509050610367565b6100d76004803603604081101561018b57600080fd5b506001600160a01b03813581169160200135166103a1565b6100d7600480360360208110156101b957600080fd5b50356001600160a01b0316610554565b6001600160a01b039081166000908152600260205260409020541690565b6000546001600160a01b031633146102495760408051600160e51b62461bcd02815260206004820152601560248201527f6d7573742062652070656e64696e67206f776e65720000000000000000000000604482015290519081900360640190fd5b600080546001546040516001600160a01b039283169392909116917f8be0079c531659141344cd1fd0a4f28419497f9722a3daafe3b4186f6b6457e091a360008054600180546001600160a01b03199081166001600160a01b03841617909155169055565b6102b6610356565b6102fd5760408051600160e51b62461bcd02815260206004820152600d6024820152600160991b6c36bab9ba1031329037bbb732b902604482015290519081900360640190fd5b6001546040516000916001600160a01b0316907f8be0079c531659141344cd1fd0a4f28419497f9722a3daafe3b4186f6b6457e0908390a3600180546001600160a01b0319169055565b6001546001600160a01b031690565b6001546001600160a01b0316331490565b6000600383836040518083838082843791909101948552505060405192839003602001909220546001600160a01b03169250505092915050565b6103a9610356565b6103f05760408051600160e51b62461bcd02815260206004820152600d6024820152600160991b6c36bab9ba1031329037bbb732b902604482015290519081900360640190fd5b806003836001600160a01b03166395d89b416040518163ffffffff1660e01b815260040160006040518083038186803b15801561042c57600080fd5b505afa158015610440573d6000803e3d6000fd5b505050506040513d6000823e601f3d908101601f19168201604052602081101561046957600080fd5b81019080805164010000000081111561048157600080fd5b8201602081018481111561049457600080fd5b81516401000000008111828201871017156104ae57600080fd5b50509291905050506040518082805190602001908083835b602083106104e55780518252601f1990920191602091820191016104c6565b51815160209384036101000a60001901801990921691161790529201948552506040805194859003820190942080546001600160a01b03199081166001600160a01b03978816179091559685166000908152600290915292909220805490951693909216929092179092555050565b61055c610356565b6105a35760408051600160e51b62461bcd02815260206004820152600d6024820152600160991b6c36bab9ba1031329037bbb732b902604482015290519081900360640190fd5b600080546001600160a01b0319166001600160a01b039290921691909117905556fea165627a7a72305820eaa12383249a984da476df20544118d43e13d50ea7c85f1cb4f56b4b7c004e690029",
  "source": "pragma solidity ^0.5.8;\n\nimport \"../libraries/Claimable.sol\";\nimport \"./ERC20Shifted.sol\";\n\ncontract ShifterRegistry is Claimable {\n    /// @notice A map of token addresses to canonical shifter addresses\n    mapping (address=>address) private shifters;\n\n    /// @notice A map of token symbols to canonical shifter addresses\n    mapping (string=>address) private shiftersBySymbols;\n\n    /// @notice Allow the owner to update shifter address for a given\n    ///         ERC20Shifted token contract.\n    /// @param _tokenAddress The address of the ERC20Shifted token contract.\n    /// @param _shifterAddress The address of the Shifter contract.\n    function setShifter(address _tokenAddress, address _shifterAddress) external onlyOwner {\n        shiftersBySymbols[ERC20Shifted(_tokenAddress).symbol()] = _shifterAddress;\n        shifters[_tokenAddress] = _shifterAddress;\n    }\n\n    /// @notice Returns the Shifter address for the given ERC20Shifted token\n    ///         contract address.\n    /// @param _tokenAddress The address of the ERC20Shifted token contract.\n    function getShifter(address _tokenAddress) external view returns (address) {\n        return shifters[_tokenAddress];\n    }\n\n    /// @notice Returns the Shifter address for the given ERC20Shifted token\n    ///         symbol.\n    /// @param _tokenSymbol The symbol of the ERC20Shifted token contract.\n    function getShifterBySymbol(string calldata _tokenSymbol) external view returns (address) {\n        return shiftersBySymbols[_tokenSymbol];\n    }\n}",
  "sourcePath": "/home/noah/github/renproject/darknode-sol/contracts/Shifter/ShifterRegistry.sol",
  "compiler": {
    "name": "solc",
    "version": "0.5.8+commit.23d335f2.Emscripten.clang"
  },
  "schemaVersion": "3.0.9",
  "updatedAt": "2019-06-20T01:21:48.579Z",
  "devdoc": {
    "methods": {
      "claimOwnership()": {
        "details": "Allows the pendingOwner address to finalize the transfer."
      },
      "getShifter(address)": {
        "params": {
          "_tokenAddress": "The address of the ERC20Shifted token contract."
        }
      },
      "getShifterBySymbol(string)": {
        "params": {
          "_tokenSymbol": "The symbol of the ERC20Shifted token contract."
        }
      },
      "isOwner()": {
        "return": "true if `msg.sender` is the owner of the contract."
      },
      "owner()": {
        "return": "the address of the owner."
      },
      "renounceOwnership()": {
        "details": "Allows the current owner to relinquish control of the contract. It will not be possible to call the functions with the `onlyOwner` modifier anymore."
      },
      "setShifter(address,address)": {
        "params": {
          "_shifterAddress": "The address of the Shifter contract.",
          "_tokenAddress": "The address of the ERC20Shifted token contract."
        }
      },
      "transferOwnership(address)": {
        "details": "Allows the current owner to set the pendingOwner address.",
        "params": {
          "newOwner": "The address to transfer ownership to."
        }
      }
    }
  },
  "userdoc": {
    "methods": {
      "getShifter(address)": {
        "notice": "Returns the Shifter address for the given ERC20Shifted token         contract address."
      },
      "getShifterBySymbol(string)": {
        "notice": "Returns the Shifter address for the given ERC20Shifted token         symbol."
      },
      "renounceOwnership()": {
        "notice": "Renouncing ownership will leave the contract without an owner, thereby removing any functionality that is only available to the owner."
      },
      "setShifter(address,address)": {
        "notice": "Allow the owner to update shifter address for a given         ERC20Shifted token contract."
      }
    }
  }
}