{
  "contractName": "ShifterRegistry",
  "abi": [
    {
      "constant": false,
      "inputs": [],
      "name": "claimOwnership",
      "outputs": [],
      "payable": false,
      "stateMutability": "nonpayable",
      "type": "function"
    },
    {
      "constant": false,
      "inputs": [],
      "name": "renounceOwnership",
      "outputs": [],
      "payable": false,
      "stateMutability": "nonpayable",
      "type": "function"
    },
    {
      "constant": true,
      "inputs": [],
      "name": "owner",
      "outputs": [
        {
          "name": "",
          "type": "address"
        }
      ],
      "payable": false,
      "stateMutability": "view",
      "type": "function"
    },
    {
      "constant": true,
      "inputs": [],
      "name": "isOwner",
      "outputs": [
        {
          "name": "",
          "type": "bool"
        }
      ],
      "payable": false,
      "stateMutability": "view",
      "type": "function"
    },
    {
      "constant": false,
      "inputs": [
        {
          "name": "newOwner",
          "type": "address"
        }
      ],
      "name": "transferOwnership",
      "outputs": [],
      "payable": false,
      "stateMutability": "nonpayable",
      "type": "function"
    },
    {
      "anonymous": false,
      "inputs": [
        {
          "indexed": false,
          "name": "_symbol",
          "type": "string"
        },
        {
          "indexed": true,
          "name": "_indexedSymbol",
          "type": "string"
        },
        {
          "indexed": true,
          "name": "_tokenAddress",
          "type": "address"
        },
        {
          "indexed": true,
          "name": "_shifterAddress",
          "type": "address"
        }
      ],
      "name": "LogShifterRegistered",
      "type": "event"
    },
    {
      "anonymous": false,
      "inputs": [
        {
          "indexed": false,
          "name": "_symbol",
          "type": "string"
        },
        {
          "indexed": true,
          "name": "_indexedSymbol",
          "type": "string"
        },
        {
          "indexed": true,
          "name": "_tokenAddress",
          "type": "address"
        },
        {
          "indexed": true,
          "name": "_shifterAddress",
          "type": "address"
        }
      ],
      "name": "LogShifterDeregistered",
      "type": "event"
    },
    {
      "anonymous": false,
      "inputs": [
        {
          "indexed": true,
          "name": "previousOwner",
          "type": "address"
        },
        {
          "indexed": true,
          "name": "newOwner",
          "type": "address"
        }
      ],
      "name": "OwnershipTransferred",
      "type": "event"
    },
    {
      "constant": false,
      "inputs": [
        {
          "name": "_tokenAddress",
          "type": "address"
        },
        {
          "name": "_shifterAddress",
          "type": "address"
        }
      ],
      "name": "setShifter",
      "outputs": [],
      "payable": false,
      "stateMutability": "nonpayable",
      "type": "function"
    },
    {
      "constant": false,
      "inputs": [
        {
          "name": "_symbol",
          "type": "string"
        }
      ],
      "name": "removeShifter",
      "outputs": [],
      "payable": false,
      "stateMutability": "nonpayable",
      "type": "function"
    },
    {
      "constant": true,
      "inputs": [
        {
          "name": "_start",
          "type": "address"
        },
        {
          "name": "_count",
          "type": "uint256"
        }
      ],
      "name": "getShifters",
      "outputs": [
        {
          "name": "",
          "type": "address[]"
        }
      ],
      "payable": false,
      "stateMutability": "view",
      "type": "function"
    },
    {
      "constant": true,
      "inputs": [
        {
          "name": "_tokenAddress",
          "type": "address"
        }
      ],
      "name": "getShifterByToken",
      "outputs": [
        {
          "name": "",
          "type": "address"
        }
      ],
      "payable": false,
      "stateMutability": "view",
      "type": "function"
    },
    {
      "constant": true,
      "inputs": [
        {
          "name": "_tokenSymbol",
          "type": "string"
        }
      ],
      "name": "getShifterBySymbol",
      "outputs": [
        {
          "name": "",
          "type": "address"
        }
      ],
      "payable": false,
      "stateMutability": "view",
      "type": "function"
    },
    {
      "constant": true,
      "inputs": [
        {
          "name": "_tokenSymbol",
          "type": "string"
        }
      ],
      "name": "getTokenBySymbol",
      "outputs": [
        {
          "name": "",
          "type": "address"
        }
      ],
      "payable": false,
      "stateMutability": "view",
      "type": "function"
    }
  ],
  "bytecode": "0x60806040819052600180546001600160a01b0319163317908190556001600160a01b0316906000907f8be0079c531659141344cd1fd0a4f28419497f9722a3daafe3b4186f6b6457e0908290a36110198061005b6000396000f3fe608060405234801561001057600080fd5b50600436106100a95760003560e01c806392a29e301161007157806392a29e3014610126578063a904d13d14610194578063ac5b1ba9146101c2578063deeb2efe14610230578063efa74f1f146102ac578063f2fde38b1461031a576100a9565b806328c4f410146100ae5780634e71e0c8146100f0578063715018a6146100fa5780638da5cb5b146101025780638f32d59b1461010a575b600080fd5b6100d4600480360360208110156100c457600080fd5b50356001600160a01b0316610340565b604080516001600160a01b039092168252519081900360200190f35b6100f861035e565b005b6100f8610425565b6100d46104b9565b6101126104c8565b604080519115158252519081900360200190f35b6100d46004803603602081101561013c57600080fd5b810190602081018135600160201b81111561015657600080fd5b82018360208201111561016857600080fd5b803590602001918460018302840111600160201b8311171561018957600080fd5b5090925090506104d9565b6100f8600480360360408110156101aa57600080fd5b506001600160a01b0381358116916020013516610529565b6100f8600480360360208110156101d857600080fd5b810190602081018135600160201b8111156101f257600080fd5b82018360208201111561020457600080fd5b803590602001918460018302840111600160201b8311171561022557600080fd5b50909250905061096d565b61025c6004803603604081101561024657600080fd5b506001600160a01b038135169060200135610b56565b60408051602080825283518183015283519192839290830191858101910280838360005b83811015610298578181015183820152602001610280565b505050509050019250505060405180910390f35b6100d4600480360360208110156102c257600080fd5b810190602081018135600160201b8111156102dc57600080fd5b8201836020820111156102ee57600080fd5b803590602001918460018302840111600160201b8311171561030f57600080fd5b509092509050610c0e565b6100f86004803603602081101561033057600080fd5b50356001600160a01b0316610c48565b6001600160a01b039081166000908152600360205260409020541690565b6000546001600160a01b031633146103c05760408051600160e51b62461bcd02815260206004820152601f60248201527f63616c6c6572206973206e6f74207468652070656e64696e67206f776e657200604482015290519081900360640190fd5b600080546001546040516001600160a01b039283169392909116917f8be0079c531659141344cd1fd0a4f28419497f9722a3daafe3b4186f6b6457e091a360008054600180546001600160a01b03199081166001600160a01b03841617909155169055565b61042d6104c8565b61046f5760408051600160e51b62461bcd0281526020600482015260176024820152600080516020610fce833981519152604482015290519081900360640190fd5b6001546040516000916001600160a01b0316907f8be0079c531659141344cd1fd0a4f28419497f9722a3daafe3b4186f6b6457e0908390a3600180546001600160a01b0319169055565b6001546001600160a01b031690565b6001546001600160a01b0316331490565b60006003600060048585604051808383808284379190910194855250506040805160209481900385019020546001600160a01b039081168652938501959095525050910160002054169392505050565b6105316104c8565b6105735760408051600160e51b62461bcd0281526020600482015260176024820152600080516020610fce833981519152604482015290519081900360640190fd5b61057e600282610cb4565b156105d35760408051600160e51b62461bcd02815260206004820152601a60248201527f7368696674657220616c72656164792072656769737465726564000000000000604482015290519081900360640190fd5b6001600160a01b0382811660009081526003602052604090205416156106435760408051600160e51b62461bcd02815260206004820152601860248201527f746f6b656e20616c726561647920726567697374657265640000000000000000604482015290519081900360640190fd5b6060826001600160a01b03166395d89b416040518163ffffffff1660e01b815260040160006040518083038186803b15801561067e57600080fd5b505afa158015610692573d6000803e3d6000fd5b505050506040513d6000823e601f3d908101601f1916820160405260208110156106bb57600080fd5b810190808051600160201b8111156106d257600080fd5b820160208101848111156106e557600080fd5b8151600160201b8111828201871017156106fe57600080fd5b5050929190505050905060006001600160a01b03166004826040518082805190602001908083835b602083106107455780518252601f199092019160209182019101610726565b51815160209384036101000a60001901801990921691161790529201948552506040519384900301909220546001600160a01b03169290921491506107d690505760408051600160e51b62461bcd02815260206004820152601960248201527f73796d626f6c20616c7265616479207265676973746572656400000000000000604482015290519081900360640190fd5b6107e1600283610cd3565b826004826040518082805190602001908083835b602083106108145780518252601f1990920191602091820191016107f5565b51815160209384036101000a600019018019909216911617905292019485525060408051948590038201852080546001600160a01b03199081166001600160a01b0398891617909155898716600081815260038552929092208054909116968916968717905586519094879450925082918401908083835b602083106108ab5780518252601f19909201916020918201910161088c565b51815160209384036101000a60001901801990921691161790526040805192909401829003822081835289518383015289519096507fad1b5a1f09ea4cf872d9274b59cccba2c4fb43f92eaf5a54b705449417adce1e95508994929350839283019185019080838360005b8381101561092e578181015183820152602001610916565b50505050905090810190601f16801561095b5780820380516001836020036101000a031916815260200191505b509250505060405180910390a4505050565b6109756104c8565b6109b75760408051600160e51b62461bcd0281526020600482015260176024820152600080516020610fce833981519152604482015290519081900360640190fd5b6000600483836040518083838082843791909101948552505060405192839003602001909220546001600160a01b03169250505080610a405760408051600160e51b62461bcd02815260206004820152601560248201527f73796d626f6c206e6f7420726567697374657265640000000000000000000000604482015290519081900360640190fd5b6001600160a01b0380821660009081526003602052604080822080546001600160a01b03198116909155905192169160049086908690808383808284379190910194855250506040519283900360200190922080546001600160a01b03949094166001600160a01b03199094169390931790925550610ac29050600282610cea565b806001600160a01b0316826001600160a01b031685856040518083838082843760408051939091018390038320602080855284018c905295507f7fa2fe506a0201656c1d87a8927899ad716ebd71b23fdabce40b56ae2205696394508b93508a92915081908101848480828437600083820152604051601f909101601f19169092018290039550909350505050a450505050565b60608082604051908082528060200260200182016040528015610b83578160200160208202803883390190505b5090506000846001600160a01b038116610ba457610ba16002610dcc565b90505b84821015610c04576001600160a01b038116610bbf57610c04565b80838381518110610bcc57fe5b60200260200101906001600160a01b031690816001600160a01b031681525050610bf7600282610deb565b9050600182019150610ba4565b5090949350505050565b6000600483836040518083838082843791909101948552505060405192839003602001909220546001600160a01b03169250505092915050565b610c506104c8565b610c925760408051600160e51b62461bcd0281526020600482015260176024820152600080516020610fce833981519152604482015290519081900360640190fd5b600080546001600160a01b0319166001600160a01b0392909216919091179055565b6001600160a01b03166000908152602091909152604090205460ff1690565b610ce682610ce084610e60565b83610e82565b5050565b610cf48282610cb4565b610d395760408051600160e51b62461bcd02815260206004820152600b6024820152600160aa1b6a1b9bdd081a5b881b1a5cdd02604482015290519081900360640190fd5b6001600160a01b038116610d4c57610ce6565b6001600160a01b0390811660008181526020939093526040808420805460018083018054610100938490048816808a52868a209093018054919098166001600160a01b031991821681179098559688529387208054610100600160a81b031916919092021790559190935280546001600160a81b03191690558154169055565b600080805260209190915260409020600101546001600160a01b031690565b6000610df78383610cb4565b610e3c5760408051600160e51b62461bcd02815260206004820152600b6024820152600160aa1b6a1b9bdd081a5b881b1a5cdd02604482015290519081900360640190fd5b506001600160a01b0390811660009081526020929092526040909120600101541690565b60008080526020829052604090205461010090046001600160a01b0316919050565b610e8c8382610cb4565b15610ee15760408051600160e51b62461bcd02815260206004820152600f60248201527f616c726561647920696e206c6973740000000000000000000000000000000000604482015290519081900360640190fd5b610eeb8383610cb4565b80610efd57506001600160a01b038216155b610f425760408051600160e51b62461bcd02815260206004820152600b6024820152600160aa1b6a1b9bdd081a5b881b1a5cdd02604482015290519081900360640190fd5b6001600160a01b0391821660008181526020949094526040808520600190810180549486168088528388208054610100600160a81b03199081166101009788021782558185018054989099166001600160a01b031998891681179099558354909716821790925595875291862080549094169285029290921790925591909252815460ff191617905556fe63616c6c6572206973206e6f7420746865206f776e6572000000000000000000a165627a7a72305820a66f8010f5a5c7c3affc495077fefed021eef01784ecab9ce42d5107f7690e160029",
  "source": "pragma solidity ^0.5.8;\n\nimport \"../libraries/Claimable.sol\";\nimport \"./ERC20Shifted.sol\";\n\nimport \"../libraries/LinkedList.sol\";\n\n/// @notice ShifterRegistry is a mapping from assets to their associated\n/// ERC20Shifted and Shifter contracts.\ncontract ShifterRegistry is Claimable {\n\n    /// @dev The symbol is included twice because strings have to be hashed\n    /// first in order to be used as a log index/topic.\n    event LogShifterRegistered(string _symbol, string indexed _indexedSymbol, address indexed _tokenAddress, address indexed _shifterAddress);\n    event LogShifterDeregistered(string _symbol, string indexed _indexedSymbol, address indexed _tokenAddress, address indexed _shifterAddress);\n\n    /// @notice A list of shifter contracts\n    LinkedList.List private shifterList;\n\n    /// @notice A map of token addresses to canonical shifter addresses\n    mapping (address=>address) private shifterByToken;\n\n    /// @notice A map of token symbols to canonical shifter addresses\n    mapping (string=>address) private tokenBySymbol;\n\n    /// @notice Allow the owner to set the shifter address for a given\n    ///         ERC20Shifted token contract.\n    ///\n    /// @param _tokenAddress The address of the ERC20Shifted token contract.\n    /// @param _shifterAddress The address of the Shifter contract.\n    function setShifter(address _tokenAddress, address _shifterAddress) external onlyOwner {\n        // Check that token, shifter and symbol haven't already been registered\n        require(!LinkedList.isInList(shifterList, _shifterAddress), \"shifter already registered\");\n        require(shifterByToken[_tokenAddress] == address(0x0), \"token already registered\");\n        string memory symbol = ERC20Shifted(_tokenAddress).symbol();\n        require(tokenBySymbol[symbol] == address(0x0), \"symbol already registered\");\n\n        // Add to list of shifters\n        LinkedList.append(shifterList, _shifterAddress);\n\n        tokenBySymbol[symbol] = _tokenAddress;\n        shifterByToken[_tokenAddress] = _shifterAddress;\n\n        emit LogShifterRegistered(symbol, symbol, _tokenAddress, _shifterAddress);\n    }\n\n    /// @notice Allows the owner to remove the shifter address for a given\n    ///         ERC20shifter token contract.\n    ///\n    /// @param _symbol The symbol of the token to deregister.\n    function removeShifter(string calldata _symbol) external onlyOwner {\n        // Look up token address\n        address tokenAddress = tokenBySymbol[_symbol];\n        require(tokenAddress != address(0x0), \"symbol not registered\");\n\n        // Look up shifter address\n        address shifterAddress = shifterByToken[tokenAddress];\n\n        // Remove token and shifter\n        shifterByToken[tokenAddress] = address(0x0);\n        tokenBySymbol[_symbol] = address(0x0);\n        LinkedList.remove(shifterList, shifterAddress);\n\n        emit LogShifterDeregistered(_symbol, _symbol, tokenAddress, shifterAddress);\n    }\n\n    function getShifters(address _start, uint256 _count) external view returns (address[] memory) {\n        address[] memory shifters = new address[](_count);\n\n        // Begin with the first node in the list\n        uint256 n = 0;\n        address next = _start;\n        if (next == address(0)) {\n            next = LinkedList.begin(shifterList);\n        }\n\n        while (n < _count) {\n            if (next == address(0)) {\n                break;\n            }\n            shifters[n] = next;\n            next = LinkedList.next(shifterList, next);\n            n += 1;\n        }\n        return shifters;\n    }\n\n    /// @notice Returns the Shifter address for the given ERC20Shifted token\n    ///         contract address.\n    ///\n    /// @param _tokenAddress The address of the ERC20Shifted token contract.\n    function getShifterByToken(address _tokenAddress) external view returns (address) {\n        return shifterByToken[_tokenAddress];\n    }\n\n    /// @notice Returns the Shifter address for the given ERC20Shifted token\n    ///         symbol.\n    ///\n    /// @param _tokenSymbol The symbol of the ERC20Shifted token contract.\n    function getShifterBySymbol(string calldata _tokenSymbol) external view returns (address) {\n        return shifterByToken[tokenBySymbol[_tokenSymbol]];\n    }\n\n    /// @notice Returns the ERC20Shifted address for the given token symbol.\n    ///\n    /// @param _tokenSymbol The symbol of the ERC20Shifted token contract to\n    ///        lookup.\n    function getTokenBySymbol(string calldata _tokenSymbol) external view returns (address) {\n        return tokenBySymbol[_tokenSymbol];\n    }\n}",
  "sourcePath": "/home/noah/github/renproject/darknode-sol/contracts/Shifter/ShifterRegistry.sol",
  "compiler": {
    "name": "solc",
    "version": "0.5.8+commit.23d335f2.Emscripten.clang"
  },
  "schemaVersion": "3.0.11",
  "updatedAt": "2019-06-22T00:04:57.711Z",
  "devdoc": {
    "methods": {
      "claimOwnership()": {
        "details": "Allows the pendingOwner address to finalize the transfer."
      },
      "getShifterBySymbol(string)": {
        "params": {
          "_tokenSymbol": "The symbol of the ERC20Shifted token contract."
        }
      },
      "getShifterByToken(address)": {
        "params": {
          "_tokenAddress": "The address of the ERC20Shifted token contract."
        }
      },
      "getTokenBySymbol(string)": {
        "params": {
          "_tokenSymbol": "The symbol of the ERC20Shifted token contract to        lookup."
        }
      },
      "isOwner()": {
        "return": "true if `msg.sender` is the owner of the contract."
      },
      "owner()": {
        "return": "the address of the owner."
      },
      "removeShifter(string)": {
        "params": {
          "_symbol": "The symbol of the token to deregister."
        }
      },
      "renounceOwnership()": {
        "details": "Allows the current owner to relinquish control of the contract. It will not be possible to call the functions with the `onlyOwner` modifier anymore."
      },
      "setShifter(address,address)": {
        "params": {
          "_shifterAddress": "The address of the Shifter contract.",
          "_tokenAddress": "The address of the ERC20Shifted token contract."
        }
      },
      "transferOwnership(address)": {
        "details": "Allows the current owner to set the pendingOwner address.",
        "params": {
          "newOwner": "The address to transfer ownership to."
        }
      }
    }
  },
  "userdoc": {
    "methods": {
      "getShifterBySymbol(string)": {
        "notice": "Returns the Shifter address for the given ERC20Shifted token         symbol. "
      },
      "getShifterByToken(address)": {
        "notice": "Returns the Shifter address for the given ERC20Shifted token         contract address. "
      },
      "getTokenBySymbol(string)": {
        "notice": "Returns the ERC20Shifted address for the given token symbol. "
      },
      "removeShifter(string)": {
        "notice": "Allows the owner to remove the shifter address for a given         ERC20shifter token contract. "
      },
      "renounceOwnership()": {
        "notice": "Renouncing ownership will leave the contract without an owner, thereby removing any functionality that is only available to the owner."
      },
      "setShifter(address,address)": {
        "notice": "Allow the owner to set the shifter address for a given         ERC20Shifted token contract. "
      }
    },
    "notice": "ShifterRegistry is a mapping from assets to their associated ERC20Shifted and Shifter contracts."
  }
}