{
  "contractName": "zBTC",
  "abi": [
    {
      "constant": true,
      "inputs": [],
      "name": "name",
      "outputs": [
        {
          "name": "",
          "type": "string"
        }
      ],
      "payable": false,
      "stateMutability": "view",
      "type": "function"
    },
    {
      "constant": false,
      "inputs": [
        {
          "name": "spender",
          "type": "address"
        },
        {
          "name": "value",
          "type": "uint256"
        }
      ],
      "name": "approve",
      "outputs": [
        {
          "name": "",
          "type": "bool"
        }
      ],
      "payable": false,
      "stateMutability": "nonpayable",
      "type": "function"
    },
    {
      "constant": true,
      "inputs": [],
      "name": "totalSupply",
      "outputs": [
        {
          "name": "",
          "type": "uint256"
        }
      ],
      "payable": false,
      "stateMutability": "view",
      "type": "function"
    },
    {
      "constant": false,
      "inputs": [
        {
          "name": "sender",
          "type": "address"
        },
        {
          "name": "recipient",
          "type": "address"
        },
        {
          "name": "amount",
          "type": "uint256"
        }
      ],
      "name": "transferFrom",
      "outputs": [
        {
          "name": "",
          "type": "bool"
        }
      ],
      "payable": false,
      "stateMutability": "nonpayable",
      "type": "function"
    },
    {
      "constant": true,
      "inputs": [],
      "name": "decimals",
      "outputs": [
        {
          "name": "",
          "type": "uint8"
        }
      ],
      "payable": false,
      "stateMutability": "view",
      "type": "function"
    },
    {
      "constant": false,
      "inputs": [
        {
          "name": "spender",
          "type": "address"
        },
        {
          "name": "addedValue",
          "type": "uint256"
        }
      ],
      "name": "increaseAllowance",
      "outputs": [
        {
          "name": "",
          "type": "bool"
        }
      ],
      "payable": false,
      "stateMutability": "nonpayable",
      "type": "function"
    },
    {
      "constant": false,
      "inputs": [
        {
          "name": "_to",
          "type": "address"
        },
        {
          "name": "_amount",
          "type": "uint256"
        }
      ],
      "name": "mint",
      "outputs": [],
      "payable": false,
      "stateMutability": "nonpayable",
      "type": "function"
    },
    {
      "constant": false,
      "inputs": [],
      "name": "claimOwnership",
      "outputs": [],
      "payable": false,
      "stateMutability": "nonpayable",
      "type": "function"
    },
    {
      "constant": true,
      "inputs": [
        {
          "name": "account",
          "type": "address"
        }
      ],
      "name": "balanceOf",
      "outputs": [
        {
          "name": "",
          "type": "uint256"
        }
      ],
      "payable": false,
      "stateMutability": "view",
      "type": "function"
    },
    {
      "constant": false,
      "inputs": [],
      "name": "renounceOwnership",
      "outputs": [],
      "payable": false,
      "stateMutability": "nonpayable",
      "type": "function"
    },
    {
      "constant": true,
      "inputs": [],
      "name": "owner",
      "outputs": [
        {
          "name": "",
          "type": "address"
        }
      ],
      "payable": false,
      "stateMutability": "view",
      "type": "function"
    },
    {
      "constant": true,
      "inputs": [],
      "name": "isOwner",
      "outputs": [
        {
          "name": "",
          "type": "bool"
        }
      ],
      "payable": false,
      "stateMutability": "view",
      "type": "function"
    },
    {
      "constant": true,
      "inputs": [],
      "name": "symbol",
      "outputs": [
        {
          "name": "",
          "type": "string"
        }
      ],
      "payable": false,
      "stateMutability": "view",
      "type": "function"
    },
    {
      "constant": false,
      "inputs": [
        {
          "name": "_from",
          "type": "address"
        },
        {
          "name": "_amount",
          "type": "uint256"
        }
      ],
      "name": "burn",
      "outputs": [],
      "payable": false,
      "stateMutability": "nonpayable",
      "type": "function"
    },
    {
      "constant": false,
      "inputs": [
        {
          "name": "spender",
          "type": "address"
        },
        {
          "name": "subtractedValue",
          "type": "uint256"
        }
      ],
      "name": "decreaseAllowance",
      "outputs": [
        {
          "name": "",
          "type": "bool"
        }
      ],
      "payable": false,
      "stateMutability": "nonpayable",
      "type": "function"
    },
    {
      "constant": false,
      "inputs": [
        {
          "name": "recipient",
          "type": "address"
        },
        {
          "name": "amount",
          "type": "uint256"
        }
      ],
      "name": "transfer",
      "outputs": [
        {
          "name": "",
          "type": "bool"
        }
      ],
      "payable": false,
      "stateMutability": "nonpayable",
      "type": "function"
    },
    {
      "constant": true,
      "inputs": [
        {
          "name": "owner",
          "type": "address"
        },
        {
          "name": "spender",
          "type": "address"
        }
      ],
      "name": "allowance",
      "outputs": [
        {
          "name": "",
          "type": "uint256"
        }
      ],
      "payable": false,
      "stateMutability": "view",
      "type": "function"
    },
    {
      "constant": false,
      "inputs": [
        {
          "name": "newOwner",
          "type": "address"
        }
      ],
      "name": "transferOwnership",
      "outputs": [],
      "payable": false,
      "stateMutability": "nonpayable",
      "type": "function"
    },
    {
      "anonymous": false,
      "inputs": [
        {
          "indexed": true,
          "name": "previousOwner",
          "type": "address"
        },
        {
          "indexed": true,
          "name": "newOwner",
          "type": "address"
        }
      ],
      "name": "OwnershipTransferred",
      "type": "event"
    },
    {
      "anonymous": false,
      "inputs": [
        {
          "indexed": true,
          "name": "from",
          "type": "address"
        },
        {
          "indexed": true,
          "name": "to",
          "type": "address"
        },
        {
          "indexed": false,
          "name": "value",
          "type": "uint256"
        }
      ],
      "name": "Transfer",
      "type": "event"
    },
    {
      "anonymous": false,
      "inputs": [
        {
          "indexed": true,
          "name": "owner",
          "type": "address"
        },
        {
          "indexed": true,
          "name": "spender",
          "type": "address"
        },
        {
          "indexed": false,
          "name": "value",
          "type": "uint256"
        }
      ],
      "name": "Approval",
      "type": "event"
    }
  ],
  "bytecode": "0x600b60808181527f536869667465642042544300000000000000000000000000000000000000000060a0908152610100604052600460c09081527f7a4254430000000000000000000000000000000000000000000000000000000060e0529192600891849184918491610074916003916100f4565b5081516100889060049060208501906100f4565b506005805460ff90921660ff199092169190911790555050600680546001600160a01b0319163317908190556040516001600160a01b0391909116906000907f8be0079c531659141344cd1fd0a4f28419497f9722a3daafe3b4186f6b6457e0908290a350505061018f565b828054600181600116156101000203166002900490600052602060002090601f016020900481019282601f1061013557805160ff1916838001178555610162565b82800160010185558215610162579182015b82811115610162578251825591602001919060010190610147565b5061016e929150610172565b5090565b61018c91905b8082111561016e5760008155600101610178565b90565b610e8b8061019e6000396000f3fe608060405234801561001057600080fd5b50600436106101165760003560e01c8063715018a6116100a25780639dc29fac116100715780639dc29fac1461030a578063a457c2d714610336578063a9059cbb14610362578063dd62ed3e1461038e578063f2fde38b146103bc57610116565b8063715018a6146102ce5780638da5cb5b146102d65780638f32d59b146102fa57806395d89b411461030257610116565b8063313ce567116100e9578063313ce56714610228578063395093511461024657806340c10f19146102725780634e71e0c8146102a057806370a08231146102a857610116565b806306fdde031461011b578063095ea7b31461019857806318160ddd146101d857806323b872dd146101f2575b600080fd5b6101236103e2565b6040805160208082528351818301528351919283929083019185019080838360005b8381101561015d578181015183820152602001610145565b50505050905090810190601f16801561018a5780820380516001836020036101000a031916815260200191505b509250505060405180910390f35b6101c4600480360360408110156101ae57600080fd5b506001600160a01b038135169060200135610478565b604080519115158252519081900360200190f35b6101e061048e565b60408051918252519081900360200190f35b6101c46004803603606081101561020857600080fd5b506001600160a01b03813581169160208101359091169060400135610494565b6102306104eb565b6040805160ff9092168252519081900360200190f35b6101c46004803603604081101561025c57600080fd5b506001600160a01b0381351690602001356104f4565b61029e6004803603604081101561028857600080fd5b506001600160a01b038135169060200135610530565b005b61029e61058d565b6101e0600480360360208110156102be57600080fd5b50356001600160a01b031661066a565b61029e610685565b6102de61071e565b604080516001600160a01b039092168252519081900360200190f35b6101c461072d565b61012361073e565b61029e6004803603604081101561032057600080fd5b506001600160a01b03813516906020013561079f565b6101c46004803603604081101561034c57600080fd5b506001600160a01b0381351690602001356107f8565b6101c46004803603604081101561037857600080fd5b506001600160a01b038135169060200135610834565b6101e0600480360360408110156103a457600080fd5b506001600160a01b0381358116916020013516610841565b61029e600480360360208110156103d257600080fd5b50356001600160a01b031661086c565b60038054604080516020601f600260001961010060018816150201909516949094049384018190048102820181019092528281526060939092909183018282801561046e5780601f106104435761010080835404028352916020019161046e565b820191906000526020600020905b81548152906001019060200180831161045157829003601f168201915b5050505050905090565b60006104853384846108e3565b50600192915050565b60025490565b60006104a18484846109d5565b6001600160a01b0384166000908152600160209081526040808320338085529252909120546104e19186916104dc908663ffffffff610b1d16565b6108e3565b5060019392505050565b60055460ff1690565b3360008181526001602090815260408083206001600160a01b038716845290915281205490916104859185906104dc908663ffffffff610b7d16565b61053861072d565b61057f5760408051600160e51b62461bcd02815260206004820152600d6024820152600160991b6c36bab9ba1031329037bbb732b902604482015290519081900360640190fd5b6105898282610be1565b5050565b60055461010090046001600160a01b031633146105f45760408051600160e51b62461bcd02815260206004820152601560248201527f6d7573742062652070656e64696e67206f776e65720000000000000000000000604482015290519081900360640190fd5b6005546006546040516101009092046001600160a01b03908116929116907f8be0079c531659141344cd1fd0a4f28419497f9722a3daafe3b4186f6b6457e090600090a360058054600680546001600160a01b0319166001600160a01b03610100840416179055610100600160a81b0319169055565b6001600160a01b031660009081526020819052604090205490565b61068d61072d565b6106d45760408051600160e51b62461bcd02815260206004820152600d6024820152600160991b6c36bab9ba1031329037bbb732b902604482015290519081900360640190fd5b6006546040516000916001600160a01b0316907f8be0079c531659141344cd1fd0a4f28419497f9722a3daafe3b4186f6b6457e0908390a3600680546001600160a01b0319169055565b6006546001600160a01b031690565b6006546001600160a01b0316331490565b60048054604080516020601f600260001961010060018816150201909516949094049384018190048102820181019092528281526060939092909183018282801561046e5780601f106104435761010080835404028352916020019161046e565b6107a761072d565b6107ee5760408051600160e51b62461bcd02815260206004820152600d6024820152600160991b6c36bab9ba1031329037bbb732b902604482015290519081900360640190fd5b6105898282610cd4565b3360008181526001602090815260408083206001600160a01b038716845290915281205490916104859185906104dc908663ffffffff610b1d16565b60006104853384846109d5565b6001600160a01b03918216600090815260016020908152604080832093909416825291909152205490565b61087461072d565b6108bb5760408051600160e51b62461bcd02815260206004820152600d6024820152600160991b6c36bab9ba1031329037bbb732b902604482015290519081900360640190fd5b600580546001600160a01b0390921661010002610100600160a81b0319909216919091179055565b6001600160a01b03831661092b57604051600160e51b62461bcd028152600401808060200182810382526024815260200180610e3c6024913960400191505060405180910390fd5b6001600160a01b03821661097357604051600160e51b62461bcd028152600401808060200182810382526022815260200180610dd46022913960400191505060405180910390fd5b6001600160a01b03808416600081815260016020908152604080832094871680845294825291829020859055815185815291517f8c5be1e5ebec7d5bd14f71427d1e84f3dd0314c0f7b2291e5b200ac8c7c3b9259281900390910190a3505050565b6001600160a01b038316610a1d57604051600160e51b62461bcd028152600401808060200182810382526025815260200180610e176025913960400191505060405180910390fd5b6001600160a01b038216610a6557604051600160e51b62461bcd028152600401808060200182810382526023815260200180610db16023913960400191505060405180910390fd5b6001600160a01b038316600090815260208190526040902054610a8e908263ffffffff610b1d16565b6001600160a01b038085166000908152602081905260408082209390935590841681522054610ac3908263ffffffff610b7d16565b6001600160a01b038084166000818152602081815260409182902094909455805185815290519193928716927fddf252ad1be2c89b69c2b068fc378daa952ba7f163c4a11628f55a4df523b3ef92918290030190a3505050565b600082821115610b775760408051600160e51b62461bcd02815260206004820152601e60248201527f536166654d6174683a207375627472616374696f6e206f766572666c6f770000604482015290519081900360640190fd5b50900390565b600082820183811015610bda5760408051600160e51b62461bcd02815260206004820152601b60248201527f536166654d6174683a206164646974696f6e206f766572666c6f770000000000604482015290519081900360640190fd5b9392505050565b6001600160a01b038216610c3f5760408051600160e51b62461bcd02815260206004820152601f60248201527f45524332303a206d696e7420746f20746865207a65726f206164647265737300604482015290519081900360640190fd5b600254610c52908263ffffffff610b7d16565b6002556001600160a01b038216600090815260208190526040902054610c7e908263ffffffff610b7d16565b6001600160a01b0383166000818152602081815260408083209490945583518581529351929391927fddf252ad1be2c89b69c2b068fc378daa952ba7f163c4a11628f55a4df523b3ef9281900390910190a35050565b6001600160a01b038216610d1c57604051600160e51b62461bcd028152600401808060200182810382526021815260200180610df66021913960400191505060405180910390fd5b600254610d2f908263ffffffff610b1d16565b6002556001600160a01b038216600090815260208190526040902054610d5b908263ffffffff610b1d16565b6001600160a01b038316600081815260208181526040808320949094558351858152935191937fddf252ad1be2c89b69c2b068fc378daa952ba7f163c4a11628f55a4df523b3ef929081900390910190a3505056fe45524332303a207472616e7366657220746f20746865207a65726f206164647265737345524332303a20617070726f766520746f20746865207a65726f206164647265737345524332303a206275726e2066726f6d20746865207a65726f206164647265737345524332303a207472616e736665722066726f6d20746865207a65726f206164647265737345524332303a20617070726f76652066726f6d20746865207a65726f2061646472657373a165627a7a723058205c19f4830f6dbc065e98307702258d05fe1c9de6f0686ba087ff86db0a6a873f0029",
  "source": "pragma solidity ^0.5.8;\n\nimport \"openzeppelin-solidity/contracts/token/ERC20/ERC20.sol\";\nimport \"openzeppelin-solidity/contracts/token/ERC20/ERC20Detailed.sol\";\n\nimport \"../libraries/Claimable.sol\";\n\ncontract ERC20Shifted is ERC20, ERC20Detailed, Claimable {\n    constructor(string memory _name, string memory _symbol, uint8 _decimals) public ERC20Detailed(_name, _symbol, _decimals) {\n    }\n\n    function burn(address _from, uint256 _amount) public onlyOwner {\n        _burn(_from, _amount);\n    }\n\n    function mint(address _to, uint256 _amount) public onlyOwner {\n        _mint(_to, _amount);\n    }\n}\n\n/* solium-disable-next-line no-empty-blocks */\ncontract zBTC is ERC20Shifted(\"Shifted BTC\", \"zBTC\", 8) {}\n\n/* solium-disable-next-line no-empty-blocks */\ncontract zZEC is ERC20Shifted(\"Shifted ZEC\", \"zZEC\", 8) {}\n",
  "sourcePath": "/home/noah/github/renproject/darknode-sol/contracts/Shifter/ERC20Shifted.sol",
  "compiler": {
    "name": "solc",
    "version": "0.5.8+commit.23d335f2.Emscripten.clang"
  },
  "schemaVersion": "3.0.9",
  "updatedAt": "2019-06-20T01:21:48.599Z",
  "devdoc": {
    "methods": {
      "allowance(address,address)": {
        "details": "See `IERC20.allowance`."
      },
      "approve(address,uint256)": {
        "details": "See `IERC20.approve`.     * Requirements:     * - `spender` cannot be the zero address."
      },
      "balanceOf(address)": {
        "details": "See `IERC20.balanceOf`."
      },
      "claimOwnership()": {
        "details": "Allows the pendingOwner address to finalize the transfer."
      },
      "decimals()": {
        "details": "Returns the number of decimals used to get its user representation. For example, if `decimals` equals `2`, a balance of `505` tokens should be displayed to a user as `5,05` (`505 / 10 ** 2`).     * Tokens usually opt for a value of 18, imitating the relationship between Ether and Wei.     * > Note that this information is only used for _display_ purposes: it in no way affects any of the arithmetic of the contract, including `IERC20.balanceOf` and `IERC20.transfer`."
      },
      "decreaseAllowance(address,uint256)": {
        "details": "Atomically decreases the allowance granted to `spender` by the caller.     * This is an alternative to `approve` that can be used as a mitigation for problems described in `IERC20.approve`.     * Emits an `Approval` event indicating the updated allowance.     * Requirements:     * - `spender` cannot be the zero address. - `spender` must have allowance for the caller of at least `subtractedValue`."
      },
      "increaseAllowance(address,uint256)": {
        "details": "Atomically increases the allowance granted to `spender` by the caller.     * This is an alternative to `approve` that can be used as a mitigation for problems described in `IERC20.approve`.     * Emits an `Approval` event indicating the updated allowance.     * Requirements:     * - `spender` cannot be the zero address."
      },
      "isOwner()": {
        "return": "true if `msg.sender` is the owner of the contract."
      },
      "name()": {
        "details": "Returns the name of the token."
      },
      "owner()": {
        "return": "the address of the owner."
      },
      "renounceOwnership()": {
        "details": "Allows the current owner to relinquish control of the contract. It will not be possible to call the functions with the `onlyOwner` modifier anymore."
      },
      "symbol()": {
        "details": "Returns the symbol of the token, usually a shorter version of the name."
      },
      "totalSupply()": {
        "details": "See `IERC20.totalSupply`."
      },
      "transfer(address,uint256)": {
        "details": "See `IERC20.transfer`.     * Requirements:     * - `recipient` cannot be the zero address. - the caller must have a balance of at least `amount`."
      },
      "transferFrom(address,address,uint256)": {
        "details": "See `IERC20.transferFrom`.     * Emits an `Approval` event indicating the updated allowance. This is not required by the EIP. See the note at the beginning of `ERC20`;     * Requirements: - `sender` and `recipient` cannot be the zero address. - `sender` must have a balance of at least `value`. - the caller must have allowance for `sender`'s tokens of at least `amount`."
      },
      "transferOwnership(address)": {
        "details": "Allows the current owner to set the pendingOwner address.",
        "params": {
          "newOwner": "The address to transfer ownership to."
        }
      }
    }
  },
  "userdoc": {
    "methods": {
      "renounceOwnership()": {
        "notice": "Renouncing ownership will leave the contract without an owner, thereby removing any functionality that is only available to the owner."
      }
    }
  }
}