{
  "contractName": "ZECShifter",
  "abi": [
    {
      "constant": false,
      "inputs": [
        {
          "name": "_nextMintAuthority",
          "type": "address"
        }
      ],
      "name": "updateMintAuthority",
      "outputs": [],
      "payable": false,
      "stateMutability": "nonpayable",
      "type": "function"
    },
    {
      "constant": false,
      "inputs": [],
      "name": "claimTokenOwnership",
      "outputs": [],
      "payable": false,
      "stateMutability": "nonpayable",
      "type": "function"
    },
    {
      "constant": false,
      "inputs": [
        {
          "name": "_to",
          "type": "address"
        },
        {
          "name": "_amount",
          "type": "uint256"
        },
        {
          "name": "_nHash",
          "type": "bytes32"
        },
        {
          "name": "_sig",
          "type": "bytes"
        },
        {
          "name": "_pHash",
          "type": "bytes32"
        }
      ],
      "name": "forwardShiftIn",
      "outputs": [
        {
          "name": "",
          "type": "uint256"
        }
      ],
      "payable": false,
      "stateMutability": "nonpayable",
      "type": "function"
    },
    {
      "constant": true,
      "inputs": [],
      "name": "feeRecipient",
      "outputs": [
        {
          "name": "",
          "type": "address"
        }
      ],
      "payable": false,
      "stateMutability": "view",
      "type": "function"
    },
    {
      "constant": false,
      "inputs": [
        {
          "name": "_amount",
          "type": "uint256"
        },
        {
          "name": "_nHash",
          "type": "bytes32"
        },
        {
          "name": "_sig",
          "type": "bytes"
        },
        {
          "name": "_pHash",
          "type": "bytes32"
        }
      ],
      "name": "shiftIn",
      "outputs": [
        {
          "name": "",
          "type": "uint256"
        }
      ],
      "payable": false,
      "stateMutability": "nonpayable",
      "type": "function"
    },
    {
      "constant": true,
      "inputs": [],
      "name": "nextShifter",
      "outputs": [
        {
          "name": "",
          "type": "address"
        }
      ],
      "payable": false,
      "stateMutability": "view",
      "type": "function"
    },
    {
      "constant": true,
      "inputs": [
        {
          "name": "",
          "type": "bytes32"
        }
      ],
      "name": "status",
      "outputs": [
        {
          "name": "",
          "type": "bool"
        }
      ],
      "payable": false,
      "stateMutability": "view",
      "type": "function"
    },
    {
      "constant": true,
      "inputs": [
        {
          "name": "_to",
          "type": "address"
        },
        {
          "name": "_amount",
          "type": "uint256"
        },
        {
          "name": "_nHash",
          "type": "bytes32"
        },
        {
          "name": "_pHash",
          "type": "bytes32"
        }
      ],
      "name": "hashForSignature",
      "outputs": [
        {
          "name": "",
          "type": "bytes32"
        }
      ],
      "payable": false,
      "stateMutability": "view",
      "type": "function"
    },
    {
      "constant": false,
      "inputs": [],
      "name": "renounceOwnership",
      "outputs": [],
      "payable": false,
      "stateMutability": "nonpayable",
      "type": "function"
    },
    {
      "constant": false,
      "inputs": [
        {
          "name": "_to",
          "type": "bytes"
        },
        {
          "name": "_amount",
          "type": "uint256"
        }
      ],
      "name": "shiftOut",
      "outputs": [
        {
          "name": "",
          "type": "uint256"
        }
      ],
      "payable": false,
      "stateMutability": "nonpayable",
      "type": "function"
    },
    {
      "constant": true,
      "inputs": [],
      "name": "owner",
      "outputs": [
        {
          "name": "",
          "type": "address"
        }
      ],
      "payable": false,
      "stateMutability": "view",
      "type": "function"
    },
    {
      "constant": true,
      "inputs": [],
      "name": "isOwner",
      "outputs": [
        {
          "name": "",
          "type": "bool"
        }
      ],
      "payable": false,
      "stateMutability": "view",
      "type": "function"
    },
    {
      "constant": true,
      "inputs": [],
      "name": "mintAuthority",
      "outputs": [
        {
          "name": "",
          "type": "address"
        }
      ],
      "payable": false,
      "stateMutability": "view",
      "type": "function"
    },
    {
      "constant": true,
      "inputs": [],
      "name": "nextShiftID",
      "outputs": [
        {
          "name": "",
          "type": "uint256"
        }
      ],
      "payable": false,
      "stateMutability": "view",
      "type": "function"
    },
    {
      "constant": true,
      "inputs": [
        {
          "name": "",
          "type": "address"
        }
      ],
      "name": "authorizedWrapper",
      "outputs": [
        {
          "name": "",
          "type": "bool"
        }
      ],
      "payable": false,
      "stateMutability": "view",
      "type": "function"
    },
    {
      "constant": true,
      "inputs": [
        {
          "name": "_signedMessageHash",
          "type": "bytes32"
        },
        {
          "name": "_sig",
          "type": "bytes"
        }
      ],
      "name": "verifySignature",
      "outputs": [
        {
          "name": "",
          "type": "bool"
        }
      ],
      "payable": false,
      "stateMutability": "view",
      "type": "function"
    },
    {
      "constant": true,
      "inputs": [],
      "name": "fee",
      "outputs": [
        {
          "name": "",
          "type": "uint16"
        }
      ],
      "payable": false,
      "stateMutability": "view",
      "type": "function"
    },
    {
      "constant": false,
      "inputs": [
        {
          "name": "_nextShifter",
          "type": "address"
        }
      ],
      "name": "upgradeShifter",
      "outputs": [],
      "payable": false,
      "stateMutability": "nonpayable",
      "type": "function"
    },
    {
      "constant": false,
      "inputs": [
        {
          "name": "_nextFeeRecipient",
          "type": "address"
        }
      ],
      "name": "updateFeeRecipient",
      "outputs": [],
      "payable": false,
      "stateMutability": "nonpayable",
      "type": "function"
    },
    {
      "constant": false,
      "inputs": [
        {
          "name": "newOwner",
          "type": "address"
        }
      ],
      "name": "transferOwnership",
      "outputs": [],
      "payable": false,
      "stateMutability": "nonpayable",
      "type": "function"
    },
    {
      "constant": false,
      "inputs": [
        {
          "name": "_from",
          "type": "address"
        },
        {
          "name": "_to",
          "type": "bytes"
        },
        {
          "name": "_amount",
          "type": "uint256"
        }
      ],
      "name": "forwardShiftOut",
      "outputs": [
        {
          "name": "",
          "type": "uint256"
        }
      ],
      "payable": false,
      "stateMutability": "nonpayable",
      "type": "function"
    },
    {
      "constant": true,
      "inputs": [],
      "name": "token",
      "outputs": [
        {
          "name": "",
          "type": "address"
        }
      ],
      "payable": false,
      "stateMutability": "view",
      "type": "function"
    },
    {
      "inputs": [
        {
          "name": "_previousShifter",
          "type": "address"
        },
        {
          "name": "_token",
          "type": "address"
        },
        {
          "name": "_feeRecipient",
          "type": "address"
        },
        {
          "name": "_mintAuthority",
          "type": "address"
        },
        {
          "name": "_fee",
          "type": "uint16"
        }
      ],
      "payable": false,
      "stateMutability": "nonpayable",
      "type": "constructor"
    },
    {
      "anonymous": false,
      "inputs": [
        {
          "indexed": true,
          "name": "_to",
          "type": "address"
        },
        {
          "indexed": false,
          "name": "_amount",
          "type": "uint256"
        },
        {
          "indexed": true,
          "name": "_shiftID",
          "type": "uint256"
        }
      ],
      "name": "LogShiftIn",
      "type": "event"
    },
    {
      "anonymous": false,
      "inputs": [
        {
          "indexed": true,
          "name": "_to",
          "type": "bytes"
        },
        {
          "indexed": false,
          "name": "_amount",
          "type": "uint256"
        },
        {
          "indexed": true,
          "name": "_shiftID",
          "type": "uint256"
        }
      ],
      "name": "LogShiftOut",
      "type": "event"
    },
    {
      "anonymous": false,
      "inputs": [
        {
          "indexed": true,
          "name": "previousOwner",
          "type": "address"
        },
        {
          "indexed": true,
          "name": "newOwner",
          "type": "address"
        }
      ],
      "name": "OwnershipTransferred",
      "type": "event"
    }
  ],
  "bytecode": "0x6080604052600060075534801561001557600080fd5b5060405160a0806117a9833981018060405260a081101561003557600080fd5b50805160208201516040808401516060850151608090950151600080546001600160a01b03191633178082559351959694959294939192879287928792879287926001600160a01b0391909116917f8be0079c531659141344cd1fd0a4f28419497f9722a3daafe3b4186f6b6457e0908290a36001600160a01b039485166000908152600260205260409020805460ff19166001179055600380549486166001600160a01b03199586161790556004805492861692851692909217909155600580549290941661ffff9091167401000000000000000000000000000000000000000002600160a01b61ffff0219909216919091179091161790555050505050611666806101436000396000f3fe608060405234801561001057600080fd5b50600436106101425760003560e01c80638f32d59b116100b8578063ddca3f431161007c578063ddca3f4314610531578063ef4b41b914610550578063f160d36914610576578063f2fde38b1461059c578063fbc8d09e146105c2578063fc0c546a1461067857610142565b80638f32d59b146104485780639340b21e14610450578063ab595e0c14610458578063b7f2413114610460578063daca6f781461048657610142565b80634ebc490c1161010a5780634ebc490c1461032157806352ad0d5e146103295780636cd841181461035a578063715018a6146103925780638723c3771461039a5780638da5cb5b1461044057610142565b80630130a33b1461014757806310731a651461016f5780631d6eaf4714610177578063469048401461024b5780634c7dd4d61461026f575b600080fd5b61016d6004803603602081101561015d57600080fd5b50356001600160a01b0316610680565b005b61016d6106ec565b610239600480360360a081101561018d57600080fd5b6001600160a01b038235169160208101359160408201359190810190608081016060820135600160201b8111156101c357600080fd5b8201836020820111156101d557600080fd5b803590602001918460018302840111600160201b831117156101f657600080fd5b91908080601f0160208091040260200160405190810160405280939291908181526020018383808284376000920191909152509295505091359250610756915050565b60408051918252519081900360200190f35b6102536107c0565b604080516001600160a01b039092168252519081900360200190f35b6102396004803603608081101561028557600080fd5b813591602081013591810190606081016040820135600160201b8111156102ab57600080fd5b8201836020820111156102bd57600080fd5b803590602001918460018302840111600160201b831117156102de57600080fd5b91908080601f01602080910402602001604051908101604052809392919081815260200183838082843760009201919091525092955050913592506107cf915050565b6102536107e9565b6103466004803603602081101561033f57600080fd5b50356107f8565b604080519115158252519081900360200190f35b6102396004803603608081101561037057600080fd5b506001600160a01b03813516906020810135906040810135906060013561080d565b61016d610910565b610239600480360360408110156103b057600080fd5b810190602081018135600160201b8111156103ca57600080fd5b8201836020820111156103dc57600080fd5b803590602001918460018302840111600160201b831117156103fd57600080fd5b91908080601f01602080910402602001604051908101604052809392919081815260200183838082843760009201919091525092955050913592506109a4915050565b6102536109ba565b6103466109c9565b6102536109da565b6102396109e9565b6103466004803603602081101561047657600080fd5b50356001600160a01b03166109ef565b6103466004803603604081101561049c57600080fd5b81359190810190604081016020820135600160201b8111156104bd57600080fd5b8201836020820111156104cf57600080fd5b803590602001918460018302840111600160201b831117156104f057600080fd5b91908080601f016020809104026020016040519081016040528093929190818152602001838380828437600092019190915250929550610a04945050505050565b610539610a28565b6040805161ffff9092168252519081900360200190f35b61016d6004803603602081101561056657600080fd5b50356001600160a01b0316610a39565b61016d6004803603602081101561058c57600080fd5b50356001600160a01b0316610c3d565b61016d600480360360208110156105b257600080fd5b50356001600160a01b0316610ca9565b610239600480360360608110156105d857600080fd5b6001600160a01b038235169190810190604081016020820135600160201b81111561060257600080fd5b82018360208201111561061457600080fd5b803590602001918460018302840111600160201b8311171561063557600080fd5b91908080601f0160208091040260200160405190810160405280939291908181526020018383808284376000920191909152509295505091359250610cfc915050565b610253610d62565b6106886109c9565b6106ca5760408051600160e51b62461bcd02815260206004820181905260248201526000805160206115ea833981519152604482015290519081900360640190fd5b600480546001600160a01b0319166001600160a01b0392909216919091179055565b600360009054906101000a90046001600160a01b03166001600160a01b0316634e71e0c86040518163ffffffff1660e01b8152600401600060405180830381600087803b15801561073c57600080fd5b505af1158015610750573d6000803e3d6000fd5b50505050565b3360009081526002602052604081205460ff166107a757604051600160e51b62461bcd0281526004018080602001828103825260288152602001806115746028913960400191505060405180910390fd5b6107b48686868686610d71565b90505b95945050505050565b6005546001600160a01b031681565b60006107de3386868686610d71565b90505b949350505050565b6001546001600160a01b031681565b60066020526000908152604090205460ff1681565b6001546000906001600160a01b0316156108b95760015460408051600160e31b630d9b08230281526001600160a01b03888116600483015260248201889052604482018790526064820186905291519190921691636cd84118916084808301926020929190829003018186803b15801561088657600080fd5b505afa15801561089a573d6000803e3d6000fd5b505050506040513d60208110156108b057600080fd5b505190506107e1565b50600354604080516001600160a01b0392831660208083019190915296909216828201526060820194909452608081019290925260a0808301919091528251808303909101815260c0909101909152805191012090565b6109186109c9565b61095a5760408051600160e51b62461bcd02815260206004820181905260248201526000805160206115ea833981519152604482015290519081900360640190fd5b600080546040516001600160a01b03909116907f8be0079c531659141344cd1fd0a4f28419497f9722a3daafe3b4186f6b6457e0908390a3600080546001600160a01b0319169055565b60006109b13384846110da565b90505b92915050565b6000546001600160a01b031690565b6000546001600160a01b0316331490565b6004546001600160a01b031681565b60075481565b60026020526000908152604090205460ff1681565b6000610a1083836113e2565b6004546001600160a01b039182169116149392505050565b600554600160a01b900461ffff1681565b610a416109c9565b610a835760408051600160e51b62461bcd02815260206004820181905260248201526000805160206115ea833981519152604482015290519081900360640190fd5b600180546001600160a01b0319166001600160a01b038316908117909155610b655760035460408051600160e01b638da5cb5b028152905130926001600160a01b031691638da5cb5b916004808301926020929190829003018186803b158015610aec57600080fd5b505afa158015610b00573d6000803e3d6000fd5b505050506040513d6020811015610b1657600080fd5b50516001600160a01b031614610b6057604051600160e51b62461bcd02815260040180806020018281038252603181526020018061160a6031913960400191505060405180910390fd5b610c3a565b60035460015460408051600160e01b63f2fde38b0281526001600160a01b0392831660048201529051919092169163f2fde38b91602480830192600092919082900301818387803b158015610bb957600080fd5b505af1158015610bcd573d6000803e3d6000fd5b50505050600160009054906101000a90046001600160a01b03166001600160a01b03166310731a656040518163ffffffff1660e01b8152600401600060405180830381600087803b158015610c2157600080fd5b505af1158015610c35573d6000803e3d6000fd5b505050505b50565b610c456109c9565b610c875760408051600160e51b62461bcd02815260206004820181905260248201526000805160206115ea833981519152604482015290519081900360640190fd5b600580546001600160a01b0319166001600160a01b0392909216919091179055565b610cb16109c9565b610cf35760408051600160e51b62461bcd02815260206004820181905260248201526000805160206115ea833981519152604482015290519081900360640190fd5b610c3a816114d0565b3360009081526002602052604081205460ff16610d4d57604051600160e51b62461bcd0281526004018080602001828103825260288152602001806115c26028913960400191505060405180910390fd5b610d588484846110da565b90505b9392505050565b6003546001600160a01b031681565b6001546000906001600160a01b031615610e9257600154604051600160e01b631d6eaf470281526001600160a01b038881166004830190815260248301899052604483018890526084830186905260a060648401908152875160a485015287519290941693631d6eaf47938b938b938b938b938b9360c490910190602086019080838360005b83811015610e0f578181015183820152602001610df7565b50505050905090810190601f168015610e3c5780820380516001836020036101000a031916815260200191505b509650505050505050602060405180830381600087803b158015610e5f57600080fd5b505af1158015610e73573d6000803e3d6000fd5b505050506040513d6020811015610e8957600080fd5b505190506107b7565b6000610ea08787878661080d565b60008181526006602052604090205490915060ff1615610f0a5760408051600160e51b62461bcd02815260206004820152601860248201527f6e6f6e6365206861736820616c7265616479207370656e740000000000000000604482015290519081900360640190fd5b610f148185610a04565b610f685760408051600160e51b62461bcd02815260206004820152601160248201527f696e76616c6964207369676e6174757265000000000000000000000000000000604482015290519081900360640190fd5b6000818152600660205260408120805460ff191660011790556005546127109061ffff600160a01b90910416880260035460408051600160e01b6340c10f190281526001600160a01b038d8116600483015294909304808c03602485015290519094509216916340c10f199160448082019260009290919082900301818387803b158015610ff557600080fd5b505af1158015611009573d6000803e3d6000fd5b505060035460055460408051600160e01b6340c10f190281526001600160a01b0392831660048201526024810187905290519190921693506340c10f199250604480830192600092919082900301818387803b15801561106857600080fd5b505af115801561107c573d6000803e3d6000fd5b50505050600754886001600160a01b03167fd79c73d5d7701ff70ab30939dd980af7276ff21617d890ff2ce150f3b5ea3d94896040518082815260200191505060405180910390a36007805460010190559095039695505050505050565b6001546000906001600160a01b0316156111eb57600154604051600160e11b637de4684f0281526001600160a01b038681166004830190815260448301869052606060248401908152875160648501528751929094169363fbc8d09e9389938993899390929091608490910190602086019080838360005b8381101561116a578181015183820152602001611152565b50505050905090810190601f1680156111975780820380516001836020036101000a031916815260200191505b50945050505050602060405180830381600087803b1580156111b857600080fd5b505af11580156111cc573d6000803e3d6000fd5b505050506040513d60208110156111e257600080fd5b50519050610d5b565b82516112415760408051600160e51b62461bcd02815260206004820152601360248201527f746f206164647265737320697320656d70747900000000000000000000000000604482015290519081900360640190fd5b60055460009061271090600160a01b900461ffff16840260035460408051600160e21b632770a7eb0281526001600160a01b038a811660048301526024820189905291519490930494501691639dc29fac9160448082019260009290919082900301818387803b1580156112b457600080fd5b505af11580156112c8573d6000803e3d6000fd5b505060035460055460408051600160e01b6340c10f190281526001600160a01b0392831660048201526024810187905290519190921693506340c10f199250604480830192600092919082900301818387803b15801561132757600080fd5b505af115801561133b573d6000803e3d6000fd5b50505050600754846040518082805190602001908083835b602083106113725780518252601f199092019160209182019101611353565b51815160209384036101000a600019018019909216911617905260408051929094018290038220888b03835293519395507f1005efb915fb4efa25ffd0757ae0c14b27112a87bbfd7547daf01830cd49930994509083900301919050a36007805460010190559091039392505050565b600081516041146113f5575060006109b4565b60208201516040830151606084015160001a7f7fffffffffffffffffffffffffffffff5d576e7357a4501ddfe92f46681b20a082111561143b57600093505050506109b4565b8060ff16601b1415801561145357508060ff16601c14155b1561146457600093505050506109b4565b6040805160008152602080820180845289905260ff8416828401526060820186905260808201859052915160019260a0808401939192601f1981019281900390910190855afa1580156114bb573d6000803e3d6000fd5b5050604051601f190151979650505050505050565b6001600160a01b03811661151857604051600160e51b62461bcd02815260040180806020018281038252602681526020018061159c6026913960400191505060405180910390fd5b600080546040516001600160a01b03808516939216917f8be0079c531659141344cd1fd0a4f28419497f9722a3daafe3b4186f6b6457e091a3600080546001600160a01b0319166001600160a01b039290921691909117905556fe6e6f7420617574686f72697a656420746f206d696e74206f6e20626568616c66206f6620757365724f776e61626c653a206e6577206f776e657220697320746865207a65726f20616464726573736e6f7420617574686f72697a656420746f206275726e206f6e20626568616c66206f6620757365724f776e61626c653a2063616c6c6572206973206e6f7420746865206f776e657263616c6c6572206973206e6f7420746865206f776e6572206f6620746f6b656e20746f2072657365742075706772616465a165627a7a72305820cf7001871a75e1745511c776ab2ee8910d7e378b510e644a0c08aaec0fcb34d20029",
  "source": "pragma solidity ^0.5.8;\n\nimport \"openzeppelin-solidity/contracts/ownership/Ownable.sol\";\nimport \"openzeppelin-solidity/contracts/cryptography/ECDSA.sol\";\n\nimport \"./ERC20Shifted.sol\";\n\n/// @notice Shifter handles verifying mint and burn requests. A mintAuthority\n/// approves new assets to be minted by providing a digital signature. An owner\n/// of an asset can request for it to be burnt.\ncontract Shifter is Ownable {\n\n    /// @notice Shifter can be upgraded by setting a `nextShifter`.\n    /// This upgradability pattern is not as sophisticated as a DelegateProxy,\n    /// but is less error prone. It's downsides are higher gas fees when using\n    /// the old address, and every function needing to forward the call,\n    /// including storage getters.\n    address public nextShifter;\n\n    uint256 constant bipsDenominator = 10000;\n\n    /// @notice A set of contracts that can call burn on behalf of a user\n    mapping (address=>bool) public authorizedWrapper;\n\n    /// @notice Each Shifter token is tied to a specific shifted token.\n    ERC20Shifted public token;\n\n    /// @notice The mintAuthority is an address that can sign mint requests.\n    address public mintAuthority;\n\n    /// @notice When tokens a burnt, a portion of the tokens are forwarded to\n    /// a fee recipient.\n    address public feeRecipient;\n\n    /// @notice The burning fee in bips.\n    uint16 public fee;\n\n    /// @notice Each nHash can only be seen once.\n    mapping (bytes32=>bool) public status;\n\n    // LogShiftIn and LogShiftOut contain a unique `shiftID` that identifies\n    // the mint or burn event.\n    uint256 public nextShiftID = 0;\n    event LogShiftIn(address indexed _to, uint256 _amount, uint256 indexed _shiftID);\n    event LogShiftOut(bytes indexed _to, uint256 _amount, uint256 indexed _shiftID);\n\n    /// @param _previousShifter An optional contract that can burn and mint on\n    ///        behalf of users. This is required for the contract's\n    ///        upgradability.\n    /// @param _token The ERC20Shifted this Shifter is responsible for.\n    /// @param _feeRecipient The recipient of burning and minting fees.\n    /// @param _mintAuthority The address of the key that can sign mint\n    ///        requests.\n    /// @param _fee The amount subtracted each burn and mint request and\n    ///        forwarded to the feeRecipient. In BIPS.\n    constructor(address _previousShifter, ERC20Shifted _token, address _feeRecipient, address _mintAuthority, uint16 _fee) public {\n        authorizedWrapper[_previousShifter] = true;\n        token = _token;\n        mintAuthority = _mintAuthority;\n        fee = _fee;\n        feeRecipient = _feeRecipient;\n    }\n\n    // Public functions ////////////////////////////////////////////////////////\n\n    /// @notice Claims ownership of the token passed in to the constructor.\n    ///         `transferStoreOwnership` must have previously been called.\n    ///         Anyone can call this function.\n    function claimTokenOwnership() public {\n        token.claimOwnership();\n    }\n\n    /// @notice Allow the mint authority to update the fee recipient.\n    ///\n    /// @param _nextMintAuthority The address to start paying fees to.\n    function updateMintAuthority(address _nextMintAuthority) public onlyOwner {\n        mintAuthority = _nextMintAuthority;\n    }\n\n    /// @notice Allow the mint authority to update the fee recipient.\n    ///\n    /// @param _nextFeeRecipient The address to start paying fees to.\n    function updateFeeRecipient(address _nextFeeRecipient) public onlyOwner {\n        feeRecipient = _nextFeeRecipient;\n    }\n\n    /// @notice Allows the mint authority to initiate an ownership transfer of\n    ///         the token.\n    ///\n    /// @param _nextShifter The address to transfer the ownership to, or 0x0.\n    function upgradeShifter(address _nextShifter) public onlyOwner {\n        nextShifter = _nextShifter;\n\n        if (_nextShifter == address(0x0)) {\n            require(token.owner() == address(this), \"caller is not the owner of token to reset upgrade\");\n        } else {\n            token.transferOwnership(address(nextShifter));\n            Shifter(nextShifter).claimTokenOwnership();\n        }\n    }\n\n    /// @notice shiftIn mints tokens after taking a fee for the `_feeRecipient`.\n    ///\n    /// @param _amount The amount of the token being shifted int, in its\n    ///        smallest value. (e.g. satoshis for BTC)\n    /// @param _nHash (nonce hash) The hash of the nonce, amount and pHash.\n    /// @param _pHash (payload hash) The hash of the payload associated with the\n    ///        shift.\n    /// @param _sig The signature of the hash of the following values:\n    ///        (msg.sender, amount, nHash, pHash), signed by the mintAuthority.\n    function shiftIn(uint256 _amount, bytes32 _nHash, bytes memory _sig, bytes32 _pHash) public returns (uint256) {\n        return _shiftIn(msg.sender, _amount, _nHash, _sig, _pHash);\n    }\n\n    /// @notice Callable by the previous Shifter if it has been upgraded.\n    function forwardShiftIn(address _to, uint256 _amount, bytes32 _nHash, bytes memory _sig, bytes32 _pHash) public returns (uint256) {\n        require(authorizedWrapper[msg.sender], \"not authorized to mint on behalf of user\");\n        return _shiftIn(_to, _amount, _nHash, _sig, _pHash);\n    }\n\n    /// @notice shiftOut burns tokens after taking a fee for the `_feeRecipient`.\n    ///\n    /// @param _to The address to receive the unshifted digital asset. The\n    ///        format of this address should be of the destination chain.\n    ///        For example, when shifting out to Bitcoin, _to should be a\n    ///        Bitcoin address.\n    /// @param _amount The amount of the token being shifted out, in its\n    ///        smallest value. (e.g. satoshis for BTC)\n    function shiftOut(bytes memory _to, uint256 _amount) public returns (uint256) {\n        return _shiftOut(msg.sender, _to, _amount);\n    }\n\n    /// @notice Callable by the previous Shifter if it has been upgraded.\n    function forwardShiftOut(address _from, bytes memory _to, uint256 _amount) public returns (uint256) {\n        require(authorizedWrapper[msg.sender], \"not authorized to burn on behalf of user\");\n        return _shiftOut(_from, _to, _amount);\n    }\n\n    /// @notice verifySignature checks the the provided signature matches the provided\n    /// parameters.\n    function verifySignature(bytes32 _signedMessageHash, bytes memory _sig) public view returns (bool) {\n        return mintAuthority == ECDSA.recover(_signedMessageHash, _sig);\n    }\n\n    /// @notice hashForSignature hashes the parameters so that they can be signed.\n    function hashForSignature(address _to, uint256 _amount, bytes32 _nHash, bytes32 _pHash) public view returns (bytes32) {\n        // Check if the contract has been upgraded and forward the call\n        if (nextShifter != address(0x0)) {\n            return Shifter(nextShifter).hashForSignature(_to, _amount, _nHash, _pHash);\n        }\n\n        return keccak256(abi.encode(address(token), _to, _amount, _nHash, _pHash));\n    }\n\n    // Internal functions //////////////////////////////////////////////////////\n\n    /// @notice shiftIn mints new tokens after verifying the signature and\n    /// transfers the tokens to `_to`.\n    function _shiftIn(address _to, uint256 _amount, bytes32 _nHash, bytes memory _sig, bytes32 _pHash) internal returns (uint256) {\n        // Check if the contract has been upgraded and forward the call\n        if (nextShifter != address(0x0)) {\n            return Shifter(nextShifter).forwardShiftIn(_to, _amount, _nHash, _sig, _pHash);\n        }\n\n        // Verify signature\n        bytes32 signedMessageHash = hashForSignature(_to, _amount, _nHash, _pHash);\n        require(status[signedMessageHash] == false, \"nonce hash already spent\");\n        require(verifySignature(signedMessageHash, _sig), \"invalid signature\");\n        status[signedMessageHash] = true;\n\n        // Mint `amount - fee` for the recipient and mint `fee` for the minter\n        uint256 absoluteFee = (_amount * fee)/bipsDenominator;\n        token.mint(_to, _amount-absoluteFee);\n        token.mint(feeRecipient, absoluteFee);\n\n        // Emit a log with a unique shift ID\n        emit LogShiftIn(_to, _amount, nextShiftID);\n        nextShiftID += 1;\n\n        return _amount-absoluteFee;\n    }\n\n    function _shiftOut(address _from, bytes memory _to, uint256 _amount) internal returns (uint256) {\n        // Check if the contract has been upgraded and forward the call\n        if (nextShifter != address(0x0)) {\n            return Shifter(nextShifter).forwardShiftOut(_from, _to, _amount);\n        }\n\n        // The recipient must not be empty. Better validation is possible,\n        // but would need to be customized for each destination ledger.\n        require(_to.length != 0, \"to address is empty\");\n\n        // Burn full amount and mint fee\n        uint256 absoluteFee = (_amount * fee)/bipsDenominator;\n        token.burn(_from, _amount);\n        token.mint(feeRecipient, absoluteFee);\n\n        // Emit a log with a unique shift ID\n        emit LogShiftOut(_to, _amount-absoluteFee, nextShiftID);\n        nextShiftID += 1;\n\n        return _amount-absoluteFee;\n    }\n}\n\n/// @dev The following are not necessary for deploying BTCShifter or ZECShifter\n/// contracts, but are used to track deployments.\n\n/* solium-disable no-empty-blocks */\ncontract BTCShifter is Shifter {\n    constructor(address _previousShifter, ERC20Shifted _token, address _feeRecipient, address _mintAuthority, uint16 _fee)\n        Shifter(_previousShifter, _token, _feeRecipient, _mintAuthority, _fee) public {\n    }\n}\n\ncontract ZECShifter is Shifter {\n    constructor(address _previousShifter, ERC20Shifted _token, address _feeRecipient, address _mintAuthority, uint16 _fee)\n        Shifter(_previousShifter, _token, _feeRecipient, _mintAuthority, _fee) public {\n    }\n}",
  "sourcePath": "/home/noah/github/renproject/darknode-sol/contracts/Shifter/Shifter.sol",
  "compiler": {
    "name": "solc",
    "version": "0.5.8+commit.23d335f2.Emscripten.clang"
  },
  "schemaVersion": "3.0.11",
  "updatedAt": "2019-06-22T00:04:57.728Z",
  "devdoc": {
    "methods": {
      "isOwner()": {
        "details": "Returns true if the caller is the current owner."
      },
      "owner()": {
        "details": "Returns the address of the current owner."
      },
      "renounceOwnership()": {
        "details": "Leaves the contract without owner. It will not be possible to call `onlyOwner` functions anymore. Can only be called by the current owner.     * > Note: Renouncing ownership will leave the contract without an owner, thereby removing any functionality that is only available to the owner."
      },
      "shiftIn(uint256,bytes32,bytes,bytes32)": {
        "params": {
          "_amount": "The amount of the token being shifted int, in its        smallest value. (e.g. satoshis for BTC)",
          "_nHash": "(nonce hash) The hash of the nonce, amount and pHash.",
          "_pHash": "(payload hash) The hash of the payload associated with the        shift.",
          "_sig": "The signature of the hash of the following values:        (msg.sender, amount, nHash, pHash), signed by the mintAuthority."
        }
      },
      "shiftOut(bytes,uint256)": {
        "params": {
          "_amount": "The amount of the token being shifted out, in its        smallest value. (e.g. satoshis for BTC)",
          "_to": "The address to receive the unshifted digital asset. The        format of this address should be of the destination chain.        For example, when shifting out to Bitcoin, _to should be a        Bitcoin address."
        }
      },
      "transferOwnership(address)": {
        "details": "Transfers ownership of the contract to a new account (`newOwner`). Can only be called by the current owner."
      },
      "updateFeeRecipient(address)": {
        "params": {
          "_nextFeeRecipient": "The address to start paying fees to."
        }
      },
      "updateMintAuthority(address)": {
        "params": {
          "_nextMintAuthority": "The address to start paying fees to."
        }
      },
      "upgradeShifter(address)": {
        "params": {
          "_nextShifter": "The address to transfer the ownership to, or 0x0."
        }
      }
    }
  },
  "userdoc": {
    "methods": {
      "claimTokenOwnership()": {
        "notice": "Claims ownership of the token passed in to the constructor.         `transferStoreOwnership` must have previously been called.         Anyone can call this function."
      },
      "forwardShiftIn(address,uint256,bytes32,bytes,bytes32)": {
        "notice": "Callable by the previous Shifter if it has been upgraded."
      },
      "forwardShiftOut(address,bytes,uint256)": {
        "notice": "Callable by the previous Shifter if it has been upgraded."
      },
      "hashForSignature(address,uint256,bytes32,bytes32)": {
        "notice": "hashForSignature hashes the parameters so that they can be signed."
      },
      "shiftIn(uint256,bytes32,bytes,bytes32)": {
        "notice": "shiftIn mints tokens after taking a fee for the `_feeRecipient`. "
      },
      "shiftOut(bytes,uint256)": {
        "notice": "shiftOut burns tokens after taking a fee for the `_feeRecipient`. "
      },
      "updateFeeRecipient(address)": {
        "notice": "Allow the mint authority to update the fee recipient. "
      },
      "updateMintAuthority(address)": {
        "notice": "Allow the mint authority to update the fee recipient. "
      },
      "upgradeShifter(address)": {
        "notice": "Allows the mint authority to initiate an ownership transfer of         the token. "
      },
      "verifySignature(bytes32,bytes)": {
        "notice": "verifySignature checks the the provided signature matches the provided parameters."
      }
    }
  }
}