{
  "contractName": "ZECShifter",
  "abi": [
    {
      "constant": false,
      "inputs": [],
      "name": "claimTokenOwnership",
      "outputs": [],
      "payable": false,
      "stateMutability": "nonpayable",
      "type": "function"
    },
    {
      "constant": true,
      "inputs": [],
      "name": "pendingNextShifter",
      "outputs": [
        {
          "name": "",
          "type": "address"
        }
      ],
      "payable": false,
      "stateMutability": "view",
      "type": "function"
    },
    {
      "constant": true,
      "inputs": [],
      "name": "previousShifter",
      "outputs": [
        {
          "name": "",
          "type": "address"
        }
      ],
      "payable": false,
      "stateMutability": "view",
      "type": "function"
    },
    {
      "constant": true,
      "inputs": [],
      "name": "feeRecipient",
      "outputs": [
        {
          "name": "",
          "type": "address"
        }
      ],
      "payable": false,
      "stateMutability": "view",
      "type": "function"
    },
    {
      "constant": true,
      "inputs": [],
      "name": "nextShifter",
      "outputs": [
        {
          "name": "",
          "type": "address"
        }
      ],
      "payable": false,
      "stateMutability": "view",
      "type": "function"
    },
    {
      "constant": false,
      "inputs": [
        {
          "name": "_to",
          "type": "bytes"
        },
        {
          "name": "_amount",
          "type": "uint256"
        }
      ],
      "name": "shiftOut",
      "outputs": [
        {
          "name": "",
          "type": "uint256"
        }
      ],
      "payable": false,
      "stateMutability": "nonpayable",
      "type": "function"
    },
    {
      "constant": true,
      "inputs": [],
      "name": "mintAuthority",
      "outputs": [
        {
          "name": "",
          "type": "address"
        }
      ],
      "payable": false,
      "stateMutability": "view",
      "type": "function"
    },
    {
      "constant": false,
      "inputs": [
        {
          "name": "_to",
          "type": "address"
        },
        {
          "name": "_amount",
          "type": "uint256"
        },
        {
          "name": "_nonce",
          "type": "bytes32"
        },
        {
          "name": "_commitment",
          "type": "bytes32"
        },
        {
          "name": "_sig",
          "type": "bytes"
        }
      ],
      "name": "shiftIn",
      "outputs": [
        {
          "name": "",
          "type": "uint256"
        }
      ],
      "payable": false,
      "stateMutability": "nonpayable",
      "type": "function"
    },
    {
      "constant": true,
      "inputs": [],
      "name": "shifterUpgradeTime",
      "outputs": [
        {
          "name": "",
          "type": "uint256"
        }
      ],
      "payable": false,
      "stateMutability": "view",
      "type": "function"
    },
    {
      "constant": true,
      "inputs": [
        {
          "name": "",
          "type": "bytes32"
        },
        {
          "name": "",
          "type": "bytes32"
        }
      ],
      "name": "status",
      "outputs": [
        {
          "name": "",
          "type": "uint8"
        }
      ],
      "payable": false,
      "stateMutability": "view",
      "type": "function"
    },
    {
      "constant": true,
      "inputs": [
        {
          "name": "_to",
          "type": "address"
        },
        {
          "name": "_amount",
          "type": "uint256"
        },
        {
          "name": "_nonce",
          "type": "bytes32"
        },
        {
          "name": "_commitment",
          "type": "bytes32"
        }
      ],
      "name": "sigHash",
      "outputs": [
        {
          "name": "",
          "type": "bytes32"
        }
      ],
      "payable": false,
      "stateMutability": "view",
      "type": "function"
    },
    {
      "constant": true,
      "inputs": [],
      "name": "fee",
      "outputs": [
        {
          "name": "",
          "type": "uint16"
        }
      ],
      "payable": false,
      "stateMutability": "view",
      "type": "function"
    },
    {
      "constant": false,
      "inputs": [
        {
          "name": "_nextShifter",
          "type": "address"
        }
      ],
      "name": "upgradeShifter",
      "outputs": [],
      "payable": false,
      "stateMutability": "nonpayable",
      "type": "function"
    },
    {
      "constant": false,
      "inputs": [
        {
          "name": "_nextFeeRecipient",
          "type": "address"
        }
      ],
      "name": "updateFeeRecipient",
      "outputs": [],
      "payable": false,
      "stateMutability": "nonpayable",
      "type": "function"
    },
    {
      "constant": true,
      "inputs": [
        {
          "name": "_to",
          "type": "address"
        },
        {
          "name": "_amount",
          "type": "uint256"
        },
        {
          "name": "_nonce",
          "type": "bytes32"
        },
        {
          "name": "_commitment",
          "type": "bytes32"
        },
        {
          "name": "_sig",
          "type": "bytes"
        }
      ],
      "name": "verifySig",
      "outputs": [
        {
          "name": "",
          "type": "bool"
        }
      ],
      "payable": false,
      "stateMutability": "view",
      "type": "function"
    },
    {
      "constant": false,
      "inputs": [
        {
          "name": "_from",
          "type": "address"
        },
        {
          "name": "_to",
          "type": "bytes"
        },
        {
          "name": "_amount",
          "type": "uint256"
        }
      ],
      "name": "forwardShiftOut",
      "outputs": [
        {
          "name": "",
          "type": "uint256"
        }
      ],
      "payable": false,
      "stateMutability": "nonpayable",
      "type": "function"
    },
    {
      "constant": true,
      "inputs": [],
      "name": "token",
      "outputs": [
        {
          "name": "",
          "type": "address"
        }
      ],
      "payable": false,
      "stateMutability": "view",
      "type": "function"
    },
    {
      "inputs": [
        {
          "name": "_previousShifter",
          "type": "address"
        },
        {
          "name": "_token",
          "type": "address"
        },
        {
          "name": "_feeRecipient",
          "type": "address"
        },
        {
          "name": "_mintAuthority",
          "type": "address"
        },
        {
          "name": "_fee",
          "type": "uint16"
        }
      ],
      "payable": false,
      "stateMutability": "nonpayable",
      "type": "constructor"
    },
    {
      "anonymous": false,
      "inputs": [
        {
          "indexed": true,
          "name": "_to",
          "type": "address"
        },
        {
          "indexed": false,
          "name": "_amount",
          "type": "uint256"
        }
      ],
      "name": "LogShiftIn",
      "type": "event"
    },
    {
      "anonymous": false,
      "inputs": [
        {
          "indexed": true,
          "name": "_to",
          "type": "bytes"
        },
        {
          "indexed": false,
          "name": "_amount",
          "type": "uint256"
        },
        {
          "indexed": false,
          "name": "_fee",
          "type": "uint256"
        }
      ],
      "name": "LogShiftOut",
      "type": "event"
    }
  ],
  "bytecode": "0x608060405234801561001057600080fd5b5060405160a0806113a8833981018060405260a081101561003057600080fd5b508051602082015160408301516060840151608090940151600080546001600160a01b039586166001600160a01b03199182161790915560048054948616948216949094179093556005805495851695841695909517909455600680549390911661ffff9094167401000000000000000000000000000000000000000002600160a01b61ffff021990931692909217169190911790556112d3806100d56000396000f3fe608060405234801561001057600080fd5b506004361061010b5760003560e01c8063b07da532116100a2578063ef4b41b911610071578063ef4b41b914610381578063f160d369146103a7578063f1669014146103cd578063fbc8d09e146104a6578063fc0c546a1461055c5761010b565b8063b07da532146102db578063d6582828146102e3578063dd3412991461032a578063ddca3f43146103625761010b565b80634ebc490c116100de5780634ebc490c1461014e5780638723c377146101565780639340b21e1461020e5780639989cae0146102165761010b565b806310731a65146101105780631f0e95fd1461011a5780631fac34781461013e5780634690484014610146575b600080fd5b610118610564565b005b6101226105c4565b604080516001600160a01b039092168252519081900360200190f35b6101226105d3565b6101226105e2565b6101226105f1565b6101fc6004803603604081101561016c57600080fd5b810190602081018135600160201b81111561018657600080fd5b82018360208201111561019857600080fd5b803590602001918460018302840111600160201b831117156101b957600080fd5b91908080601f0160208091040260200160405190810160405280939291908181526020018383808284376000920191909152509295505091359250610600915050565b60408051918252519081900360200190f35b610122610614565b6101fc600480360360a081101561022c57600080fd5b6001600160a01b038235169160208101359160408201359160608101359181019060a081016080820135600160201b81111561026757600080fd5b82018360208201111561027957600080fd5b803590602001918460018302840111600160201b8311171561029a57600080fd5b91908080601f016020809104026020016040519081016040528093929190818152602001838380828437600092019190915250929550610623945050505050565b6101fc61098e565b610306600480360360408110156102f957600080fd5b5080359060200135610994565b6040518082600181111561031657fe5b60ff16815260200191505060405180910390f35b6101fc6004803603608081101561034057600080fd5b506001600160a01b0381351690602081013590604081013590606001356109b4565b61036a610ab9565b6040805161ffff9092168252519081900360200190f35b6101186004803603602081101561039757600080fd5b50356001600160a01b0316610aca565b610118600480360360208110156103bd57600080fd5b50356001600160a01b0316610d2c565b610492600480360360a08110156103e357600080fd5b6001600160a01b038235169160208101359160408201359160608101359181019060a081016080820135600160201b81111561041e57600080fd5b82018360208201111561043057600080fd5b803590602001918460018302840111600160201b8311171561045157600080fd5b91908080601f016020809104026020016040519081016040528093929190818152602001838380828437600092019190915250929550610da4945050505050565b604080519115158252519081900360200190f35b6101fc600480360360608110156104bc57600080fd5b6001600160a01b038235169190810190604081016020820135600160201b8111156104e657600080fd5b8201836020820111156104f857600080fd5b803590602001918460018302840111600160201b8311171561051957600080fd5b91908080601f0160208091040260200160405190810160405280939291908181526020018383808284376000920191909152509295505091359250610f47915050565b610122610f9f565b6004805460408051600160e31b6309ce3c1902815290516001600160a01b0390921692634e71e0c892828201926000929082900301818387803b1580156105aa57600080fd5b505af11580156105be573d6000803e3d6000fd5b50505050565b6002546001600160a01b031681565b6000546001600160a01b031681565b6006546001600160a01b031681565b6001546001600160a01b031681565b600061060d338484610fae565b9392505050565b6005546001600160a01b031681565b6001546000906001600160a01b03161561074457600154604051600160e51b6304cc4e570281526001600160a01b038881166004830190815260248301899052604483018890526064830187905260a060848401908152865160a485015286519290941693639989cae0938b938b938b938b938b9360c490910190602085019080838360005b838110156106c15781810151838201526020016106a9565b50505050905090810190601f1680156106ee5780820380516001836020036101000a031916815260200191505b509650505050505050602060405180830381600087803b15801561071157600080fd5b505af1158015610725573d6000803e3d6000fd5b505050506040513d602081101561073b57600080fd5b50519050610985565b600083815260076020908152604080832087845290915281205460ff16600181111561076c57fe5b146107c15760408051600160e51b62461bcd02815260206004820152601860248201527f636f6d6d69746d656e7420616c7265616479207370656e740000000000000000604482015290519081900360640190fd5b6107ce8686868686610da4565b6108225760408051600160e51b62461bcd02815260206004820152601160248201527f696e76616c6964207369676e6174757265000000000000000000000000000000604482015290519081900360640190fd5b60065460008481526007602090815260408083208884529091528082208054600160ff19909116179055600480548251600160e01b6340c10f190281526001600160a01b038c811693820193909352612710600160a01b90960461ffff168b0295909504808b036024870152925192949116926340c10f199260448084019382900301818387803b1580156108b657600080fd5b505af11580156108ca573d6000803e3d6000fd5b50506004805460065460408051600160e01b6340c10f190281526001600160a01b03928316948101949094526024840187905251911693506340c10f199250604480830192600092919082900301818387803b15801561092957600080fd5b505af115801561093d573d6000803e3d6000fd5b50506040805189815290516001600160a01b038b1693507ff89a75676dcf4b7cbfd83ca6f4e95f061c9ec4bd99fed33b8578df1d578898bc92509081900360200190a2850390505b95945050505050565b60035481565b600760209081526000928352604080842090915290825290205460ff1681565b6001546000906001600160a01b031615610a605760015460408051600160e01b63dd3412990281526001600160a01b0388811660048301526024820188905260448201879052606482018690529151919092169163dd341299916084808301926020929190829003018186803b158015610a2d57600080fd5b505afa158015610a41573d6000803e3d6000fd5b505050506040513d6020811015610a5757600080fd5b50519050610ab1565b50600454604080516001600160a01b0392831660208083019190915292871681830152606081018690526080810185905260a08082018590528251808303909101815260c090910190915280519101205b949350505050565b600654600160a01b900461ffff1681565b6005546001600160a01b03163314610b205760408051600160e51b62461bcd02815260206004820152600e6024820152600160921b6d1b9bdd08185d5d1a1bdc9a5e995902604482015290519081900360640190fd5b6002546001600160a01b038281169116148015610b3f57506003544210155b15610d0457600254600180546001600160a01b0319166001600160a01b039283161790558116610c2a576004805460408051600160e01b638da5cb5b028152905130936001600160a01b0390931692638da5cb5b92808201926020929091829003018186803b158015610bb157600080fd5b505afa158015610bc5573d6000803e3d6000fd5b505050506040513d6020811015610bdb57600080fd5b50516001600160a01b031614610c2557604051600160e51b62461bcd0281526004018080602001828103825260278152602001806112606027913960400191505060405180910390fd5b610cff565b6004805460015460408051600160e01b63f2fde38b0281526001600160a01b03928316948101949094525191169163f2fde38b91602480830192600092919082900301818387803b158015610c7e57600080fd5b505af1158015610c92573d6000803e3d6000fd5b50505050600160009054906101000a90046001600160a01b03166001600160a01b03166310731a656040518163ffffffff1660e01b8152600401600060405180830381600087803b158015610ce657600080fd5b505af1158015610cfa573d6000803e3d6000fd5b505050505b610d29565b620151804201600355600280546001600160a01b0319166001600160a01b0383161790555b50565b6005546001600160a01b03163314610d825760408051600160e51b62461bcd02815260206004820152600e6024820152600160921b6d1b9bdd08185d5d1a1bdc9a5e995902604482015290519081900360640190fd5b600680546001600160a01b0319166001600160a01b0392909216919091179055565b6001546000906001600160a01b031615610ea457600154604051600160e21b633c59a4050281526001600160a01b038881166004830190815260248301899052604483018890526064830187905260a060848401908152865160a48501528651929094169363f1669014938b938b938b938b938b9360c490910190602085019080838360005b83811015610e42578181015183820152602001610e2a565b50505050905090810190601f168015610e6f5780820380516001836020036101000a031916815260200191505b50965050505050505060206040518083038186803b158015610e9057600080fd5b505afa158015610725573d6000803e3d6000fd5b60208201516040830151606084015160001a6001610ec48a8a8a8a6109b4565b82858560405160008152602001604052604051808581526020018460ff1660ff1681526020018381526020018281526020019450505050506020604051602081039080840390855afa158015610f1e573d6000803e3d6000fd5b5050604051601f1901516005546001600160a01b039182169116149a9950505050505050505050565b600080546001600160a01b03163314610f9457604051600160e51b62461bcd0281526004018080602001828103825260218152602001806112876021913960400191505060405180910390fd5b610ab1848484610fae565b6004546001600160a01b031681565b6001546000906001600160a01b0316156110bf57600154604051600160e11b637de4684f0281526001600160a01b038681166004830190815260448301869052606060248401908152875160648501528751929094169363fbc8d09e9389938993899390929091608490910190602086019080838360005b8381101561103e578181015183820152602001611026565b50505050905090810190601f16801561106b5780820380516001836020036101000a031916815260200191505b50945050505050602060405180830381600087803b15801561108c57600080fd5b505af11580156110a0573d6000803e3d6000fd5b505050506040513d60208110156110b657600080fd5b5051905061060d565b60065460009061271090600160a01b900461ffff1684026004805460408051600160e21b632770a7eb0281526001600160a01b038b8116948201949094526024810189905290519490930494501691639dc29fac9160448082019260009290919082900301818387803b15801561113557600080fd5b505af1158015611149573d6000803e3d6000fd5b50506004805460065460408051600160e01b6340c10f190281526001600160a01b03928316948101949094526024840187905251911693506340c10f199250604480830192600092919082900301818387803b1580156111a857600080fd5b505af11580156111bc573d6000803e3d6000fd5b50505050836040518082805190602001908083835b602083106111f05780518252601f1990920191602091820191016111d1565b51815160001960209485036101000a0190811690199190911617905260408051949092018490038420878a03855290840187905281519095507f1005efb915fb4efa25ffd0757ae0c14b27112a87bbfd7547daf01830cd49930994509283900301919050a2909103939250505056fe6d757374206265206f776e6572206f6620746f6b656e20746f20726573657420757067726164656d7573742062652070726576696f7573205368696674657220636f6e7472616374a165627a7a72305820476cc49dffb8a9bcdbb6d2a578d4353aa1155886f1d9d52713428620c4307e140029",
  "source": "pragma solidity ^0.5.8;\n\nimport \"./ERC20Shifted.sol\";\n\ncontract Shifter {\n    /// @notice Shifter can be upgraded by setting a `nextShifter`. The\n    /// forwarding address is only set after a delay has passed.\n    /// This upgradability pattern is not as sophisticated as a DelegateProxy,\n    /// but is less error prone. It's downsides are higher gas fees when using\n    /// the old address, and every function needing to forward the call,\n    /// including storage getters.\n    address public previousShifter;\n    address public nextShifter;\n    address public pendingNextShifter;\n    uint256 public shifterUpgradeTime;\n    uint256 constant shifterUpgradeDelay = 1 days;\n\n    /// @notice Each Shifter token is tied to a specific shifted token.\n    ERC20Shifted public token;\n\n    /// @notice The mintAuthority is an address that can sign mint requests.\n    address public mintAuthority;\n\n    /// @notice When tokens a burnt, a portion of the tokens are forwarded to\n    /// a fee recipient.\n    address public feeRecipient;\n\n    /// @notice The burning fee in bips.\n    uint16 public fee;\n\n    /// @notice Each commitment-hash can only be seen once.\n    enum ShiftResult { New, Spent }\n    mapping (bytes32=>mapping (bytes32=>ShiftResult)) public status;\n\n    event LogShiftIn(address indexed _to, uint256 _amount);\n    event LogShiftOut(bytes indexed _to, uint256 _amount, uint256 _fee);\n\n    constructor(address _previousShifter, ERC20Shifted _token, address _feeRecipient, address _mintAuthority, uint16 _fee) public {\n        previousShifter = _previousShifter;\n        token = _token;\n        mintAuthority = _mintAuthority;\n        fee = _fee;\n        feeRecipient = _feeRecipient;\n    }\n\n    /// @notice Claims ownership of the token passed in to the constructor.\n    ///         `transferStoreOwnership` must have previously been called.\n    ///         Anyone can call this function.\n    function claimTokenOwnership() public {\n        token.claimOwnership();\n    }\n\n    /// @notice Allow the mint authority to update the fee recipient.\n    /// @param _nextFeeRecipient The address to start paying fees to.\n    function updateFeeRecipient(address _nextFeeRecipient) public {\n        require(msg.sender == mintAuthority, \"not authorized\");\n\n        feeRecipient = _nextFeeRecipient;\n    }\n\n    /// @notice Allows the mint authority to initiate an ownership transfer of\n    ///         the token.\n    /// @param _nextShifter The address to transfer the ownership to, or 0x0.\n    function upgradeShifter(address _nextShifter) public {\n        require(msg.sender == mintAuthority, \"not authorized\");\n\n        /* solium-disable-next-line security/no-block-members */\n        if (_nextShifter == pendingNextShifter && block.timestamp >= shifterUpgradeTime) {\n            // If the delay has passed and the next shifter isn't been changed,\n            // transfer the token to the next shifter and start pointing to it.\n\n            nextShifter = pendingNextShifter;\n\n            if (_nextShifter == address(0x0)) {\n                require(token.owner() == address(this), \"must be owner of token to reset upgrade\");\n            } else {\n                token.transferOwnership(address(nextShifter));\n                Shifter(nextShifter).claimTokenOwnership();\n            }\n        } else {\n            // Start a timer so allow the shifter to be upgraded.\n\n            /* solium-disable-next-line security/no-block-members */\n            shifterUpgradeTime = block.timestamp + shifterUpgradeDelay;\n            pendingNextShifter = _nextShifter;\n        }\n    }\n\n    /// @notice shiftIn mints new tokens after verifying the signature and\n    /// transfers the tokens to `_to`.\n    function shiftIn(\n        address _to,\n        uint256 _amount,\n        bytes32 _nonce,\n        bytes32 _commitment,\n        bytes memory _sig\n    ) public returns (uint256) {\n        if (nextShifter != address(0x0)) {return Shifter(nextShifter).shiftIn(_to, _amount, _nonce, _commitment, _sig);}\n\n        require(status[_commitment][_nonce] == ShiftResult.New, \"commitment already spent\");\n        require(verifySig(_to, _amount, _nonce, _commitment, _sig), \"invalid signature\");\n        uint256 absoluteFee = (_amount * fee)/10000;\n        status[_commitment][_nonce] = ShiftResult.Spent;\n        token.mint(_to, _amount-absoluteFee);\n        token.mint(feeRecipient, absoluteFee);\n        emit LogShiftIn(_to, _amount);\n        return _amount-absoluteFee;\n    }\n\n    /// @notice shiftOut burns tokens after taking a fee for the `_feeRecipient`.\n    function shiftOut(bytes memory _to, uint256 _amount) public returns (uint256) {\n        return _shiftOut(msg.sender, _to, _amount);\n    }\n\n    /// @notice Callable by the previous Shifter if it has been upgraded.\n    function forwardShiftOut(address _from, bytes memory _to, uint256 _amount) public returns (uint256) {\n        require(msg.sender == address(previousShifter), \"must be previous Shifter contract\");\n        return _shiftOut(_from, _to, _amount);\n    }\n\n    function _shiftOut(address _from, bytes memory _to, uint256 _amount) internal returns (uint256) {\n        if (nextShifter != address(0x0)) {return Shifter(nextShifter).forwardShiftOut(_from, _to, _amount);}\n\n        uint256 absoluteFee = (_amount * fee)/10000;\n\n        // Burn full amount and mint fee\n        token.burn(_from, _amount);\n        token.mint(feeRecipient, absoluteFee);\n\n        emit LogShiftOut(_to, _amount-absoluteFee, absoluteFee);\n        return _amount-absoluteFee;\n    }\n\n    /// @notice verifySig checks the the provided signature matches the provided\n    /// parameters.\n    function verifySig(address _to, uint256 _amount, bytes32 _nonce, bytes32 _commitment, bytes memory _sig) public view returns (bool) {\n        if (nextShifter != address(0x0)) {return Shifter(nextShifter).verifySig(_to, _amount, _nonce, _commitment, _sig);}\n\n        bytes32 r;\n        bytes32 s;\n        uint8 v;\n        /* solium-disable-next-line */ /* solhint-disable-next-line */\n        assembly {\n            r := mload(add(_sig, 0x20))\n            s := mload(add(_sig, 0x40))\n            v := byte(0, mload(add(_sig, 0x60)))\n        }\n\n        return mintAuthority == ecrecover(sigHash(_to, _amount, _nonce, _commitment), v, r, s);\n    }\n\n    /// @notice sigHash hashes the parameters so that they can be signed.\n    function sigHash(address _to, uint256 _amount, bytes32 _nonce, bytes32 _commitment) public view returns (bytes32) {\n        if (nextShifter != address(0x0)) {return Shifter(nextShifter).sigHash(_to, _amount, _nonce, _commitment);}\n        return keccak256(abi.encode(address(token), _to, _amount, _nonce, _commitment));\n    }\n}\n\n/* solium-disable no-empty-blocks */\ncontract BTCShifter is Shifter {\n    constructor(address _previousShifter, ERC20Shifted _token, address _feeRecipient, address _mintAuthority, uint16 _fee)\n        Shifter(_previousShifter, _token, _feeRecipient, _mintAuthority, _fee) public {\n    }\n}\n\ncontract ZECShifter is Shifter {\n    constructor(address _previousShifter, ERC20Shifted _token, address _feeRecipient, address _mintAuthority, uint16 _fee)\n        Shifter(_previousShifter, _token, _feeRecipient, _mintAuthority, _fee) public {\n    }\n}",
  "sourcePath": "/home/noah/github/renproject/darknode-sol/contracts/RenShift/Shifter.sol",
  "compiler": {
    "name": "solc",
    "version": "0.5.8+commit.23d335f2.Emscripten.clang"
  },
  "schemaVersion": "3.0.11",
  "updatedAt": "2019-06-14T05:48:13.629Z",
  "devdoc": {
    "methods": {
      "updateFeeRecipient(address)": {
        "params": {
          "_nextFeeRecipient": "The address to start paying fees to."
        }
      },
      "upgradeShifter(address)": {
        "params": {
          "_nextShifter": "The address to transfer the ownership to, or 0x0."
        }
      }
    }
  },
  "userdoc": {
    "methods": {
      "claimTokenOwnership()": {
        "notice": "Claims ownership of the token passed in to the constructor.         `transferStoreOwnership` must have previously been called.         Anyone can call this function."
      },
      "forwardShiftOut(address,bytes,uint256)": {
        "notice": "Callable by the previous Shifter if it has been upgraded."
      },
      "shiftIn(address,uint256,bytes32,bytes32,bytes)": {
        "notice": "shiftIn mints new tokens after verifying the signature and transfers the tokens to `_to`."
      },
      "shiftOut(bytes,uint256)": {
        "notice": "shiftOut burns tokens after taking a fee for the `_feeRecipient`."
      },
      "sigHash(address,uint256,bytes32,bytes32)": {
        "notice": "sigHash hashes the parameters so that they can be signed."
      },
      "updateFeeRecipient(address)": {
        "notice": "Allow the mint authority to update the fee recipient."
      },
      "upgradeShifter(address)": {
        "notice": "Allows the mint authority to initiate an ownership transfer of         the token."
      },
      "verifySig(address,uint256,bytes32,bytes32,bytes)": {
        "notice": "verifySig checks the the provided signature matches the provided parameters."
      }
    }
  }
}