{
  "contractName": "ZECShifter",
  "abi": [
    {
      "inputs": [
        {
          "internalType": "contract ERC20Shifted",
          "name": "_token",
          "type": "address"
        },
        {
          "internalType": "address",
          "name": "_feeRecipient",
          "type": "address"
        },
        {
          "internalType": "address",
          "name": "_mintAuthority",
          "type": "address"
        },
        {
          "internalType": "uint16",
          "name": "_shiftInFee",
          "type": "uint16"
        },
        {
          "internalType": "uint16",
          "name": "_shiftOutFee",
          "type": "uint16"
        },
        {
          "internalType": "uint256",
          "name": "_minShiftOutAmount",
          "type": "uint256"
        }
      ],
      "payable": false,
      "stateMutability": "nonpayable",
      "type": "constructor"
    },
    {
      "anonymous": false,
      "inputs": [
        {
          "indexed": true,
          "internalType": "address",
          "name": "_to",
          "type": "address"
        },
        {
          "indexed": false,
          "internalType": "uint256",
          "name": "_amount",
          "type": "uint256"
        },
        {
          "indexed": true,
          "internalType": "uint256",
          "name": "_shiftID",
          "type": "uint256"
        },
        {
          "indexed": true,
          "internalType": "bytes32",
          "name": "_signedMessageHash",
          "type": "bytes32"
        }
      ],
      "name": "LogShiftIn",
      "type": "event"
    },
    {
      "anonymous": false,
      "inputs": [
        {
          "indexed": false,
          "internalType": "bytes",
          "name": "_to",
          "type": "bytes"
        },
        {
          "indexed": false,
          "internalType": "uint256",
          "name": "_amount",
          "type": "uint256"
        },
        {
          "indexed": true,
          "internalType": "uint256",
          "name": "_shiftID",
          "type": "uint256"
        },
        {
          "indexed": true,
          "internalType": "bytes",
          "name": "_indexedTo",
          "type": "bytes"
        }
      ],
      "name": "LogShiftOut",
      "type": "event"
    },
    {
      "anonymous": false,
      "inputs": [
        {
          "indexed": true,
          "internalType": "address",
          "name": "previousOwner",
          "type": "address"
        },
        {
          "indexed": true,
          "internalType": "address",
          "name": "newOwner",
          "type": "address"
        }
      ],
      "name": "OwnershipTransferred",
      "type": "event"
    },
    {
      "constant": false,
      "inputs": [
        {
          "internalType": "address",
          "name": "_token",
          "type": "address"
        }
      ],
      "name": "blacklistRecoverableToken",
      "outputs": [],
      "payable": false,
      "stateMutability": "nonpayable",
      "type": "function"
    },
    {
      "constant": false,
      "inputs": [],
      "name": "claimOwnership",
      "outputs": [],
      "payable": false,
      "stateMutability": "nonpayable",
      "type": "function"
    },
    {
      "constant": false,
      "inputs": [],
      "name": "claimTokenOwnership",
      "outputs": [],
      "payable": false,
      "stateMutability": "nonpayable",
      "type": "function"
    },
    {
      "constant": true,
      "inputs": [],
      "name": "feeRecipient",
      "outputs": [
        {
          "internalType": "address",
          "name": "",
          "type": "address"
        }
      ],
      "payable": false,
      "stateMutability": "view",
      "type": "function"
    },
    {
      "constant": true,
      "inputs": [
        {
          "internalType": "bytes32",
          "name": "_pHash",
          "type": "bytes32"
        },
        {
          "internalType": "uint256",
          "name": "_amount",
          "type": "uint256"
        },
        {
          "internalType": "address",
          "name": "_to",
          "type": "address"
        },
        {
          "internalType": "bytes32",
          "name": "_nHash",
          "type": "bytes32"
        }
      ],
      "name": "hashForSignature",
      "outputs": [
        {
          "internalType": "bytes32",
          "name": "",
          "type": "bytes32"
        }
      ],
      "payable": false,
      "stateMutability": "view",
      "type": "function"
    },
    {
      "constant": true,
      "inputs": [],
      "name": "isOwner",
      "outputs": [
        {
          "internalType": "bool",
          "name": "",
          "type": "bool"
        }
      ],
      "payable": false,
      "stateMutability": "view",
      "type": "function"
    },
    {
      "constant": true,
      "inputs": [],
      "name": "minShiftAmount",
      "outputs": [
        {
          "internalType": "uint256",
          "name": "",
          "type": "uint256"
        }
      ],
      "payable": false,
      "stateMutability": "view",
      "type": "function"
    },
    {
      "constant": true,
      "inputs": [],
      "name": "mintAuthority",
      "outputs": [
        {
          "internalType": "address",
          "name": "",
          "type": "address"
        }
      ],
      "payable": false,
      "stateMutability": "view",
      "type": "function"
    },
    {
      "constant": true,
      "inputs": [],
      "name": "nextShiftID",
      "outputs": [
        {
          "internalType": "uint256",
          "name": "",
          "type": "uint256"
        }
      ],
      "payable": false,
      "stateMutability": "view",
      "type": "function"
    },
    {
      "constant": true,
      "inputs": [],
      "name": "owner",
      "outputs": [
        {
          "internalType": "address",
          "name": "",
          "type": "address"
        }
      ],
      "payable": false,
      "stateMutability": "view",
      "type": "function"
    },
    {
      "constant": true,
      "inputs": [],
      "name": "pendingOwner",
      "outputs": [
        {
          "internalType": "address",
          "name": "",
          "type": "address"
        }
      ],
      "payable": false,
      "stateMutability": "view",
      "type": "function"
    },
    {
      "constant": false,
      "inputs": [
        {
          "internalType": "address",
          "name": "_token",
          "type": "address"
        }
      ],
      "name": "recoverTokens",
      "outputs": [],
      "payable": false,
      "stateMutability": "nonpayable",
      "type": "function"
    },
    {
      "constant": false,
      "inputs": [],
      "name": "renounceOwnership",
      "outputs": [],
      "payable": false,
      "stateMutability": "nonpayable",
      "type": "function"
    },
    {
      "constant": false,
      "inputs": [
        {
          "internalType": "bytes32",
          "name": "_pHash",
          "type": "bytes32"
        },
        {
          "internalType": "uint256",
          "name": "_amount",
          "type": "uint256"
        },
        {
          "internalType": "bytes32",
          "name": "_nHash",
          "type": "bytes32"
        },
        {
          "internalType": "bytes",
          "name": "_sig",
          "type": "bytes"
        }
      ],
      "name": "shiftIn",
      "outputs": [
        {
          "internalType": "uint256",
          "name": "",
          "type": "uint256"
        }
      ],
      "payable": false,
      "stateMutability": "nonpayable",
      "type": "function"
    },
    {
      "constant": true,
      "inputs": [],
      "name": "shiftInFee",
      "outputs": [
        {
          "internalType": "uint16",
          "name": "",
          "type": "uint16"
        }
      ],
      "payable": false,
      "stateMutability": "view",
      "type": "function"
    },
    {
      "constant": false,
      "inputs": [
        {
          "internalType": "bytes",
          "name": "_to",
          "type": "bytes"
        },
        {
          "internalType": "uint256",
          "name": "_amount",
          "type": "uint256"
        }
      ],
      "name": "shiftOut",
      "outputs": [
        {
          "internalType": "uint256",
          "name": "",
          "type": "uint256"
        }
      ],
      "payable": false,
      "stateMutability": "nonpayable",
      "type": "function"
    },
    {
      "constant": true,
      "inputs": [],
      "name": "shiftOutFee",
      "outputs": [
        {
          "internalType": "uint16",
          "name": "",
          "type": "uint16"
        }
      ],
      "payable": false,
      "stateMutability": "view",
      "type": "function"
    },
    {
      "constant": true,
      "inputs": [
        {
          "internalType": "bytes32",
          "name": "",
          "type": "bytes32"
        }
      ],
      "name": "status",
      "outputs": [
        {
          "internalType": "bool",
          "name": "",
          "type": "bool"
        }
      ],
      "payable": false,
      "stateMutability": "view",
      "type": "function"
    },
    {
      "constant": true,
      "inputs": [],
      "name": "token",
      "outputs": [
        {
          "internalType": "contract ERC20Shifted",
          "name": "",
          "type": "address"
        }
      ],
      "payable": false,
      "stateMutability": "view",
      "type": "function"
    },
    {
      "constant": false,
      "inputs": [
        {
          "internalType": "address",
          "name": "newOwner",
          "type": "address"
        }
      ],
      "name": "transferOwnership",
      "outputs": [],
      "payable": false,
      "stateMutability": "nonpayable",
      "type": "function"
    },
    {
      "constant": false,
      "inputs": [
        {
          "internalType": "contract Shifter",
          "name": "_nextTokenOwner",
          "type": "address"
        }
      ],
      "name": "transferTokenOwnership",
      "outputs": [],
      "payable": false,
      "stateMutability": "nonpayable",
      "type": "function"
    },
    {
      "constant": false,
      "inputs": [
        {
          "internalType": "address",
          "name": "_nextFeeRecipient",
          "type": "address"
        }
      ],
      "name": "updateFeeRecipient",
      "outputs": [],
      "payable": false,
      "stateMutability": "nonpayable",
      "type": "function"
    },
    {
      "constant": false,
      "inputs": [
        {
          "internalType": "uint256",
          "name": "_minShiftOutAmount",
          "type": "uint256"
        }
      ],
      "name": "updateMinimumShiftOutAmount",
      "outputs": [],
      "payable": false,
      "stateMutability": "nonpayable",
      "type": "function"
    },
    {
      "constant": false,
      "inputs": [
        {
          "internalType": "address",
          "name": "_nextMintAuthority",
          "type": "address"
        }
      ],
      "name": "updateMintAuthority",
      "outputs": [],
      "payable": false,
      "stateMutability": "nonpayable",
      "type": "function"
    },
    {
      "constant": false,
      "inputs": [
        {
          "internalType": "uint16",
          "name": "_nextFee",
          "type": "uint16"
        }
      ],
      "name": "updateShiftInFee",
      "outputs": [],
      "payable": false,
      "stateMutability": "nonpayable",
      "type": "function"
    },
    {
      "constant": false,
      "inputs": [
        {
          "internalType": "uint16",
          "name": "_nextFee",
          "type": "uint16"
        }
      ],
      "name": "updateShiftOutFee",
      "outputs": [],
      "payable": false,
      "stateMutability": "nonpayable",
      "type": "function"
    },
    {
      "constant": true,
      "inputs": [
        {
          "internalType": "bytes32",
          "name": "_signedMessageHash",
          "type": "bytes32"
        },
        {
          "internalType": "bytes",
          "name": "_sig",
          "type": "bytes"
        }
      ],
      "name": "verifySignature",
      "outputs": [
        {
          "internalType": "bool",
          "name": "",
          "type": "bool"
        }
      ],
      "payable": false,
      "stateMutability": "view",
      "type": "function"
    },
    {
      "constant": true,
      "inputs": [],
      "name": "version",
      "outputs": [
        {
          "internalType": "uint8",
          "name": "",
          "type": "uint8"
        }
      ],
      "payable": false,
      "stateMutability": "view",
      "type": "function"
    }
  ],
  "bytecode": "0x60806040526003805460ff1916600217905560006009553480156200002357600080fd5b506040516200275838038062002758833981810160405260c08110156200004957600080fd5b508051602082015160408301516060840151608085015160a09095015193949293919290918585858585856000620000896001600160e01b036200016116565b600080546001600160a01b0319166001600160a01b0383169081178255604051929350917f8be0079c531659141344cd1fd0a4f28419497f9722a3daafe3b4186f6b6457e0908290a3506004819055600580546001600160a01b0388166001600160a01b03199091161790556007805461ffff848116600160b01b0261ffff60b01b19918716600160a01b0261ffff60a01b1990931692909217161790556200013b846001600160e01b036200016516565b6200014f856001600160e01b036200022216565b5050505050505050505050506200030e565b3390565b620001786001600160e01b03620002df16565b620001b9576040805162461bcd60e51b8152602060048201819052602482015260008051602062002714833981519152604482015290519081900360640190fd5b6001600160a01b038116620002005760405162461bcd60e51b8152600401808060200182810382526034815260200180620026e06034913960400191505060405180910390fd5b600680546001600160a01b0319166001600160a01b0392909216919091179055565b620002356001600160e01b03620002df16565b62000276576040805162461bcd60e51b8152602060048201819052602482015260008051602062002714833981519152604482015290519081900360640190fd5b6001600160a01b038116620002bd5760405162461bcd60e51b8152600401808060200182810382526024815260200180620027346024913960400191505060405180910390fd5b600780546001600160a01b0319166001600160a01b0392909216919091179055565b600080546001600160a01b0316620002ff6001600160e01b036200016116565b6001600160a01b031614905090565b6123c2806200031e6000396000f3fe608060405234801561001057600080fd5b50600436106101c45760003560e01c80638f32d59b116100f9578063dfe03d3211610097578063f160d36911610071578063f160d369146105d6578063f2fde38b146105fc578063f65d901c14610622578063fc0c546a14610648576101c4565b8063dfe03d32146105a9578063e30c3978146105b1578063e58732a7146105b9576101c4565b8063a2f6ed8c116100d3578063a2f6ed8c1461041a578063ab595e0c1461043b578063bb4a1d8c14610443578063daca6f78146104fc576101c4565b80638f32d59b146103eb5780639340b21e146103f35780639d5d4cd8146103fb576101c4565b80635219a56611610166578063715018a611610140578063715018a61461032b5780638723c3771461033357806387c0b881146103db5780638da5cb5b146103e3576101c4565b80635219a5661461029257806352ad0d5e146102dc57806354fd4d501461030d576101c4565b806321e6b53d116101a257806321e6b53d1461021f57806324a5309e1461024557806346904840146102665780634e71e0c81461028a576101c4565b80630130a33b146101c957806310731a65146101f157806316114acd146101f9575b600080fd5b6101ef600480360360208110156101df57600080fd5b50356001600160a01b0316610650565b005b6101ef6106fe565b6101ef6004803603602081101561020f57600080fd5b50356001600160a01b0316610768565b6101ef6004803603602081101561023557600080fd5b50356001600160a01b03166108d9565b6101ef6004803603602081101561025b57600080fd5b503561ffff166109dc565b61026e610a45565b604080516001600160a01b039092168252519081900360200190f35b6101ef610a54565b6102ca600480360360808110156102a857600080fd5b508035906020810135906001600160a01b036040820135169060600135610ad4565b60408051918252519081900360200190f35b6102f9600480360360208110156102f257600080fd5b5035610b24565b604080519115158252519081900360200190f35b610315610b39565b6040805160ff9092168252519081900360200190f35b6101ef610b42565b6102ca6004803603604081101561034957600080fd5b81019060208101813564010000000081111561036457600080fd5b82018360208201111561037657600080fd5b8035906020019184600183028401116401000000008311171561039857600080fd5b91908080601f0160208091040260200160405190810160405280939291908181526020018383808284376000920191909152509295505091359250610bd3915050565b6102ca610ea6565b61026e610eac565b6102f9610ebb565b61026e610edf565b610403610eee565b6040805161ffff9092168252519081900360200190f35b6101ef6004803603602081101561043057600080fd5b503561ffff16610eff565b6102ca610f68565b6102ca6004803603608081101561045957600080fd5b8135916020810135916040820135919081019060808101606082013564010000000081111561048757600080fd5b82018360208201111561049957600080fd5b803590602001918460018302840111640100000000831117156104bb57600080fd5b91908080601f016020809104026020016040519081016040528093929190818152602001838380828437600092019190915250929550610f6e945050505050565b6102f96004803603604081101561051257600080fd5b8135919081019060408101602082013564010000000081111561053457600080fd5b82018360208201111561054657600080fd5b8035906020019184600183028401116401000000008311171561056857600080fd5b91908080601f016020809104026020016040519081016040528093929190818152602001838380828437600092019190915250929550611295945050505050565b6104036112b9565b61026e6112ca565b6101ef600480360360208110156105cf57600080fd5b50356112d9565b6101ef600480360360208110156105ec57600080fd5b50356001600160a01b0316611325565b6101ef6004803603602081101561061257600080fd5b50356001600160a01b03166113d3565b6101ef6004803603602081101561063857600080fd5b50356001600160a01b03166114c4565b61026e61152f565b610658610ebb565b610697576040805162461bcd60e51b8152602060048201819052602482015260008051602061228b833981519152604482015290519081900360640190fd5b6001600160a01b0381166106dc5760405162461bcd60e51b81526004018080602001828103825260348152602001806121636034913960400191505060405180910390fd5b600680546001600160a01b0319166001600160a01b0392909216919091179055565b600560009054906101000a90046001600160a01b03166001600160a01b0316634e71e0c86040518163ffffffff1660e01b8152600401600060405180830381600087803b15801561074e57600080fd5b505af1158015610762573d6000803e3d6000fd5b50505050565b610770610ebb565b6107af576040805162461bcd60e51b8152602060048201819052602482015260008051602061228b833981519152604482015290519081900360640190fd5b6001600160a01b03811660009081526002602052604090205460ff16156108075760405162461bcd60e51b815260040180806020018281038252602a8152602001806121e0602a913960400191505060405180910390fd5b6001600160a01b0381166108475760405133904780156108fc02916000818181858888f19350505050158015610841573d6000803e3d6000fd5b506108d6565b604080516370a0823160e01b815230600482015290516108d69133916001600160a01b038516916370a08231916024808301926020929190829003018186803b15801561089357600080fd5b505afa1580156108a7573d6000803e3d6000fd5b505050506040513d60208110156108bd57600080fd5b50516001600160a01b038416919063ffffffff61153e16565b50565b6108e1610ebb565b610920576040805162461bcd60e51b8152602060048201819052602482015260008051602061228b833981519152604482015290519081900360640190fd5b6005546040805163f2fde38b60e01b81526001600160a01b0384811660048301529151919092169163f2fde38b91602480830192600092919082900301818387803b15801561096e57600080fd5b505af1158015610982573d6000803e3d6000fd5b50505050806001600160a01b03166310731a656040518163ffffffff1660e01b8152600401600060405180830381600087803b1580156109c157600080fd5b505af11580156109d5573d6000803e3d6000fd5b5050505050565b6109e4610ebb565b610a23576040805162461bcd60e51b8152602060048201819052602482015260008051602061228b833981519152604482015290519081900360640190fd5b6007805461ffff909216600160a01b0261ffff60a01b19909216919091179055565b6007546001600160a01b031681565b6001546001600160a01b0316610a68611595565b6001600160a01b031614610aad5760405162461bcd60e51b815260040180806020018281038252602a8152602001806122ab602a913960400191505060405180910390fd5b600154610ac2906001600160a01b0316611599565b600180546001600160a01b0319169055565b60055460408051602080820197909752808201959095526001600160a01b0391821660608601529216608084015260a0808401919091528151808403909101815260c09092019052805191012090565b60086020526000908152604090205460ff1681565b60035460ff1681565b610b4a610ebb565b610b89576040805162461bcd60e51b8152602060048201819052602482015260008051602061228b833981519152604482015290519081900360640190fd5b600080546040516001600160a01b03909116907f8be0079c531659141344cd1fd0a4f28419497f9722a3daafe3b4186f6b6457e0908390a3600080546001600160a01b0319169055565b6000825160001415610c2c576040805162461bcd60e51b815260206004820152601c60248201527f536869667465723a20746f206164647265737320697320656d70747900000000604482015290519081900360640190fd5b600454821015610c6d5760405162461bcd60e51b815260040180806020018281038252603881526020018061220a6038913960400191505060405180910390fd5b600754600090610c9d9061271090610c91908690600160b01b900461ffff16611639565b9063ffffffff61169916565b60055460408051632770a7eb60e21b81523360048201526024810187905290519293506001600160a01b0390911691639dc29fac9160448082019260009290919082900301818387803b158015610cf357600080fd5b505af1158015610d07573d6000803e3d6000fd5b5050600554600754604080516340c10f1960e01b81526001600160a01b0392831660048201526024810187905290519190921693506340c10f199250604480830192600092919082900301818387803b158015610d6357600080fd5b505af1158015610d77573d6000803e3d6000fd5b505050506000610d9082856116db90919063ffffffff16565b9050846040518082805190602001908083835b60208310610dc25780518252601f199092019160209182019101610da3565b6001836020036101000a03801982511681845116808217855250505050505090500191505060405180910390206009547f2275318eaeb892d338c6737eebf5f31747c1eab22b63ccbc00cd93d4e785c11687846040518080602001838152602001828103825284818151815260200191508051906020019080838360005b83811015610e58578181015183820152602001610e40565b50505050905090810190601f168015610e855780820380516001836020036101000a031916815260200191505b50935050505060405180910390a36009805460010190559150505b92915050565b60045481565b6000546001600160a01b031690565b600080546001600160a01b0316610ed0611595565b6001600160a01b031614905090565b6006546001600160a01b031681565b600754600160b01b900461ffff1681565b610f07610ebb565b610f46576040805162461bcd60e51b8152602060048201819052602482015260008051602061228b833981519152604482015290519081900360640190fd5b6007805461ffff909216600160b01b0261ffff60b01b19909216919091179055565b60095481565b600080610f7d86863387610ad4565b60008181526008602052604090205490915060ff1615610fce5760405162461bcd60e51b815260040180806020018281038252602181526020018061236d6021913960400191505060405180910390fd5b610fd88184611295565b6111125761108e604051806060016040528060238152602001612197602391396110018861171d565b6040518060400160405280600a8152602001690161030b6b7bab73a1d160b51b81525061102d8961188b565b6040518060400160405280600e81526020016d0161036b9b39739b2b73232b91d160951b81525061105d3361194c565b6040518060400160405280600a815260200169016102fb72430b9b41d160b51b8152506110898c61171d565b611abf565b60405162461bcd60e51b81526004018080602001828103825283818151815260200191508051906020019080838360005b838110156110d75781810151838201526020016110bf565b50505050905090810190601f1680156111045780820380516001836020036101000a031916815260200191505b509250505060405180910390fd5b6000818152600860205260408120805460ff191660011790556007546111539061271090610c9190899061ffff600160a01b9091041663ffffffff61163916565b90506000611167878363ffffffff6116db16565b600554604080516340c10f1960e01b81523360048201526024810184905290519293506001600160a01b03909116916340c10f199160448082019260009290919082900301818387803b1580156111bd57600080fd5b505af11580156111d1573d6000803e3d6000fd5b5050600554600754604080516340c10f1960e01b81526001600160a01b0392831660048201526024810188905290519190921693506340c10f199250604480830192600092919082900301818387803b15801561122d57600080fd5b505af1158015611241573d6000803e3d6000fd5b505060095460408051858152905187945091925033917f66519073cf8fb3a91e4ee5a511c26928b523e9641f0aed760af126159fb375029181900360200190a4600980546001019055979650505050505050565b60006112a18383611d3c565b6006546001600160a01b039182169116149392505050565b600754600160a01b900461ffff1681565b6001546001600160a01b031681565b6112e1610ebb565b611320576040805162461bcd60e51b8152602060048201819052602482015260008051602061228b833981519152604482015290519081900360640190fd5b600455565b61132d610ebb565b61136c576040805162461bcd60e51b8152602060048201819052602482015260008051602061228b833981519152604482015290519081900360640190fd5b6001600160a01b0381166113b15760405162461bcd60e51b815260040180806020018281038252602481526020018061231f6024913960400191505060405180910390fd5b600780546001600160a01b0319166001600160a01b0392909216919091179055565b6113db610ebb565b61141a576040805162461bcd60e51b8152602060048201819052602482015260008051602061228b833981519152604482015290519081900360640190fd5b611422610eac565b6001600160a01b0316816001600160a01b03161415801561145157506001546001600160a01b03828116911614155b6114a2576040805162461bcd60e51b815260206004820152601c60248201527f436c61696d61626c653a20696e76616c6964206e6577206f776e657200000000604482015290519081900360640190fd5b600180546001600160a01b0319166001600160a01b0392909216919091179055565b6114cc610ebb565b61150b576040805162461bcd60e51b8152602060048201819052602482015260008051602061228b833981519152604482015290519081900360640190fd5b6001600160a01b03166000908152600260205260409020805460ff19166001179055565b6005546001600160a01b031681565b604080516001600160a01b038416602482015260448082018490528251808303909101815260649091019091526020810180516001600160e01b031663a9059cbb60e01b179052611590908490611eaf565b505050565b3390565b6001600160a01b0381166115de5760405162461bcd60e51b81526004018080602001828103825260268152602001806121ba6026913960400191505060405180910390fd5b600080546040516001600160a01b03808516939216917f8be0079c531659141344cd1fd0a4f28419497f9722a3daafe3b4186f6b6457e091a3600080546001600160a01b0319166001600160a01b0392909216919091179055565b60008261164857506000610ea0565b8282028284828161165557fe5b04146116925760405162461bcd60e51b815260040180806020018281038252602181526020018061226a6021913960400191505060405180910390fd5b9392505050565b600061169283836040518060400160405280601a81526020017f536166654d6174683a206469766973696f6e206279207a65726f000000000000815250612067565b600061169283836040518060400160405280601e81526020017f536166654d6174683a207375627472616374696f6e206f766572666c6f7700008152506120cc565b604080518082018252601081526f181899199a1a9b1b9c1cb0b131b232b360811b60208201528151604280825260808201909352606092839190602082018180388339019050509050600360fc1b8160008151811061177857fe5b60200101906001600160f81b031916908160001a905350600f60fb1b816001815181106117a157fe5b60200101906001600160f81b031916908160001a90535060005b6020811015611881578260048683602081106117d357fe5b1a60f81b6001600160f81b031916901c60f81c60ff16815181106117f357fe5b602001015160f81c60f81b82826002026002018151811061181057fe5b60200101906001600160f81b031916908160001a9053508285826020811061183457fe5b825191901a600f1690811061184557fe5b602001015160f81c60f81b82826002026003018151811061186257fe5b60200101906001600160f81b031916908160001a9053506001016117bb565b509150505b919050565b6060816118b057506040805180820190915260018152600360fc1b6020820152611886565b8160005b81156118c857600101600a820491506118b4565b6060816040519080825280601f01601f1916602001820160405280156118f5576020820181803883390190505b50905060001982015b851561194357600a860660300160f81b8282806001900393508151811061192157fe5b60200101906001600160f81b031916908160001a905350600a860495506118fe565b50949350505050565b604080518082018252601081526f181899199a1a9b1b9c1cb0b131b232b360811b60208201528151602a80825260608281019094526001600160a01b03851692918491602082018180388339019050509050600360fc1b816000815181106119b057fe5b60200101906001600160f81b031916908160001a905350600f60fb1b816001815181106119d957fe5b60200101906001600160f81b031916908160001a90535060005b6014811015611943578260048583600c0160208110611a0e57fe5b1a60f81b6001600160f81b031916901c60f81c60ff1681518110611a2e57fe5b602001015160f81c60f81b828260020260020181518110611a4b57fe5b60200101906001600160f81b031916908160001a905350828482600c0160208110611a7257fe5b825191901a600f16908110611a8357fe5b602001015160f81c60f81b828260020260030181518110611aa057fe5b60200101906001600160f81b031916908160001a9053506001016119f3565b606088888888888888886040516020018089805190602001908083835b60208310611afb5780518252601f199092019160209182019101611adc565b51815160209384036101000a60001901801990921691161790528b5191909301928b0191508083835b60208310611b435780518252601f199092019160209182019101611b24565b51815160209384036101000a60001901801990921691161790528a5191909301928a0191508083835b60208310611b8b5780518252601f199092019160209182019101611b6c565b51815160209384036101000a600019018019909216911617905289519190930192890191508083835b60208310611bd35780518252601f199092019160209182019101611bb4565b51815160209384036101000a600019018019909216911617905288519190930192880191508083835b60208310611c1b5780518252601f199092019160209182019101611bfc565b51815160209384036101000a600019018019909216911617905287519190930192870191508083835b60208310611c635780518252601f199092019160209182019101611c44565b51815160209384036101000a600019018019909216911617905286519190930192860191508083835b60208310611cab5780518252601f199092019160209182019101611c8c565b51815160209384036101000a600019018019909216911617905285519190930192850191508083835b60208310611cf35780518252601f199092019160209182019101611cd4565b6001836020036101000a03801982511681845116808217855250505050505090500198505050505050505050604051602081830303815290604052905098975050505050505050565b60008151604114611d7e5760405162461bcd60e51b81526004018080602001828103825260228152602001806122d56022913960400191505060405180910390fd5b60208201516040830151606084015160001a7f7fffffffffffffffffffffffffffffff5d576e7357a4501ddfe92f46681b20a0821115611def5760405162461bcd60e51b81526004018080602001828103825260288152602001806122f76028913960400191505060405180910390fd5b8060ff16601b14158015611e0757508060ff16601c14155b15611e435760405162461bcd60e51b81526004018080602001828103825260288152602001806122426028913960400191505060405180910390fd5b6040805160008152602080820180845289905260ff8416828401526060820186905260808201859052915160019260a0808401939192601f1981019281900390910190855afa158015611e9a573d6000803e3d6000fd5b5050604051601f190151979650505050505050565b611ec1826001600160a01b0316612126565b611f12576040805162461bcd60e51b815260206004820152601f60248201527f5361666545524332303a2063616c6c20746f206e6f6e2d636f6e747261637400604482015290519081900360640190fd5b60006060836001600160a01b0316836040518082805190602001908083835b60208310611f505780518252601f199092019160209182019101611f31565b6001836020036101000a0380198251168184511680821785525050505050509050019150506000604051808303816000865af19150503d8060008114611fb2576040519150601f19603f3d011682016040523d82523d6000602084013e611fb7565b606091505b50915091508161200e576040805162461bcd60e51b815260206004820181905260248201527f5361666545524332303a206c6f772d6c6576656c2063616c6c206661696c6564604482015290519081900360640190fd5b8051156107625780806020019051602081101561202a57600080fd5b50516107625760405162461bcd60e51b815260040180806020018281038252602a815260200180612343602a913960400191505060405180910390fd5b600081836120b65760405162461bcd60e51b81526020600482018181528351602484015283519092839260449091019190850190808383600083156110d75781810151838201526020016110bf565b5060008385816120c257fe5b0495945050505050565b6000818484111561211e5760405162461bcd60e51b81526020600482018181528351602484015283519092839260449091019190850190808383600083156110d75781810151838201526020016110bf565b505050900390565b6000813f7fc5d2460186f7233c927e7db2dcc703c0e500b653ca82273b7bfad8045d85a47081811480159061215a57508115155b94935050505056fe536869667465723a206d696e74417574686f726974792063616e6e6f742062652073657420746f2061646472657373207a65726f536869667465723a20696e76616c6964207369676e61747572652e2070486173683a204f776e61626c653a206e6577206f776e657220697320746865207a65726f206164647265737343616e5265636c61696d546f6b656e733a20746f6b656e206973206e6f74207265636f76657261626c65536869667465723a20616d6f756e74206973206c657373207468616e20746865206d696e696d756d2073686966744f757420616d6f756e7445434453413a207369676e61747572652e7620697320696e207468652077726f6e672072616e6765536166654d6174683a206d756c7469706c69636174696f6e206f766572666c6f774f776e61626c653a2063616c6c6572206973206e6f7420746865206f776e6572436c61696d61626c653a2063616c6c6572206973206e6f74207468652070656e64696e67206f776e657245434453413a207369676e6174757265206c656e67746820697320696e76616c696445434453413a207369676e61747572652e7320697320696e207468652077726f6e672072616e6765536869667465723a2066656520726563697069656e742063616e6e6f74206265203078305361666545524332303a204552433230206f7065726174696f6e20646964206e6f742073756363656564536869667465723a206e6f6e6365206861736820616c7265616479207370656e74a265627a7a72315820d05f8125b8dff5953cdf496fd2a42d01be9e35f796c5806b419f47e3eaac806964736f6c63430005100032536869667465723a206d696e74417574686f726974792063616e6e6f742062652073657420746f2061646472657373207a65726f4f776e61626c653a2063616c6c6572206973206e6f7420746865206f776e6572536869667465723a2066656520726563697069656e742063616e6e6f7420626520307830",
  "source": "pragma solidity 0.5.16;\n\nimport \"@openzeppelin/contracts/math/SafeMath.sol\";\nimport \"@openzeppelin/contracts/ownership/Ownable.sol\";\nimport \"@openzeppelin/contracts/cryptography/ECDSA.sol\";\n\nimport \"../libraries/Claimable.sol\";\nimport \"../libraries/String.sol\";\nimport \"./ERC20Shifted.sol\";\nimport \"./IShifter.sol\";\nimport \"../libraries/CanReclaimTokens.sol\";\n\n/// @notice Shifter handles verifying mint and burn requests. A mintAuthority\n/// approves new assets to be minted by providing a digital signature. An owner\n/// of an asset can request for it to be burnt.\ncontract Shifter is IShifter, Claimable, CanReclaimTokens {\n    using SafeMath for uint256;\n\n    uint8 public version = 2;\n\n    uint256 constant BIPS_DENOMINATOR = 10000;\n    uint256 public minShiftAmount;\n\n    /// @notice Each Shifter token is tied to a specific shifted token.\n    ERC20Shifted public token;\n\n    /// @notice The mintAuthority is an address that can sign mint requests.\n    address public mintAuthority;\n\n    /// @dev feeRecipient is assumed to be an address (or a contract) that can\n    /// accept erc20 payments it cannot be 0x0.\n    /// @notice When tokens are mint or burnt, a portion of the tokens are\n    /// forwarded to a fee recipient.\n    address public feeRecipient;\n\n    /// @notice The shiftIn fee in bips.\n    uint16 public shiftInFee;\n\n    /// @notice The shiftOut fee in bips.\n    uint16 public shiftOutFee;\n\n    /// @notice Each nHash can only be seen once.\n    mapping(bytes32 => bool) public status;\n\n    // LogShiftIn and LogShiftOut contain a unique `shiftID` that identifies\n    // the mint or burn event.\n    uint256 public nextShiftID = 0;\n\n    event LogShiftIn(\n        address indexed _to,\n        uint256 _amount,\n        uint256 indexed _shiftID,\n        bytes32 indexed _signedMessageHash\n    );\n    event LogShiftOut(\n        bytes _to,\n        uint256 _amount,\n        uint256 indexed _shiftID,\n        bytes indexed _indexedTo\n    );\n\n    /// @param _token The ERC20Shifted this Shifter is responsible for.\n    /// @param _feeRecipient The recipient of burning and minting fees.\n    /// @param _mintAuthority The address of the key that can sign mint\n    ///        requests.\n    /// @param _shiftInFee The amount subtracted each shiftIn request and\n    ///        forwarded to the feeRecipient. In BIPS.\n    /// @param _shiftOutFee The amount subtracted each shiftOut request and\n    ///        forwarded to the feeRecipient. In BIPS.\n    constructor(\n        ERC20Shifted _token,\n        address _feeRecipient,\n        address _mintAuthority,\n        uint16 _shiftInFee,\n        uint16 _shiftOutFee,\n        uint256 _minShiftOutAmount\n    ) public {\n        minShiftAmount = _minShiftOutAmount;\n        token = _token;\n        shiftInFee = _shiftInFee;\n        shiftOutFee = _shiftOutFee;\n        updateMintAuthority(_mintAuthority);\n        updateFeeRecipient(_feeRecipient);\n    }\n\n    // Public functions ////////////////////////////////////////////////////////\n\n    /// @notice Claims ownership of the token passed in to the constructor.\n    /// `transferStoreOwnership` must have previously been called.\n    /// Anyone can call this function.\n    function claimTokenOwnership() public {\n        token.claimOwnership();\n    }\n\n    /// @notice Allow the owner to update the owner of the ERC20Shifted token.\n    function transferTokenOwnership(Shifter _nextTokenOwner) public onlyOwner {\n        token.transferOwnership(address(_nextTokenOwner));\n        _nextTokenOwner.claimTokenOwnership();\n    }\n\n    /// @notice Allow the owner to update the fee recipient.\n    ///\n    /// @param _nextMintAuthority The address to start paying fees to.\n    function updateMintAuthority(address _nextMintAuthority) public onlyOwner {\n        require(\n            _nextMintAuthority != address(0),\n            \"Shifter: mintAuthority cannot be set to address zero\"\n        );\n        mintAuthority = _nextMintAuthority;\n    }\n\n    /// @notice Allow the owner to update the minimum shiftOut amount.\n    ///\n    /// @param _minShiftOutAmount The new min shiftOut amount.\n    function updateMinimumShiftOutAmount(uint256 _minShiftOutAmount)\n        public\n        onlyOwner\n    {\n        minShiftAmount = _minShiftOutAmount;\n    }\n\n    /// @notice Allow the owner to update the fee recipient.\n    ///\n    /// @param _nextFeeRecipient The address to start paying fees to.\n    function updateFeeRecipient(address _nextFeeRecipient) public onlyOwner {\n        // ShiftIn and ShiftOut will fail if the feeRecipient is 0x0\n        require(\n            _nextFeeRecipient != address(0x0),\n            \"Shifter: fee recipient cannot be 0x0\"\n        );\n\n        feeRecipient = _nextFeeRecipient;\n    }\n\n    /// @notice Allow the owner to update the shiftIn fee.\n    ///\n    /// @param _nextFee The new fee for minting and burning.\n    function updateShiftInFee(uint16 _nextFee) public onlyOwner {\n        shiftInFee = _nextFee;\n    }\n\n    /// @notice Allow the owner to update the shiftOut fee.\n    ///\n    /// @param _nextFee The new fee for minting and burning.\n    function updateShiftOutFee(uint16 _nextFee) public onlyOwner {\n        shiftOutFee = _nextFee;\n    }\n\n    /// @notice shiftIn mints tokens after taking a fee for the `_feeRecipient`.\n    ///\n    /// @param _pHash (payload hash) The hash of the payload associated with the\n    ///        shift.\n    /// @param _amount The amount of the token being shifted int, in its\n    ///        smallest value. (e.g. satoshis for BTC)\n    /// @param _nHash (nonce hash) The hash of the nonce, amount and pHash.\n    /// @param _sig The signature of the hash of the following values:\n    ///        (pHash, amount, msg.sender, nHash), signed by the mintAuthority.\n    function shiftIn(\n        bytes32 _pHash,\n        uint256 _amount,\n        bytes32 _nHash,\n        bytes memory _sig\n    ) public returns (uint256) {\n        // Verify signature\n        bytes32 signedMessageHash = hashForSignature(\n            _pHash,\n            _amount,\n            msg.sender,\n            _nHash\n        );\n        require(\n            status[signedMessageHash] == false,\n            \"Shifter: nonce hash already spent\"\n        );\n        if (!verifySignature(signedMessageHash, _sig)) {\n            // Return a detailed string containing the hash and recovered\n            // signer. This is somewhat costly but is only run in the revert\n            // branch.\n            revert(\n                String.add8(\n                    \"Shifter: invalid signature. pHash: \",\n                    String.fromBytes32(_pHash),\n                    \", amount: \",\n                    String.fromUint(_amount),\n                    \", msg.sender: \",\n                    String.fromAddress(msg.sender),\n                    \", _nHash: \",\n                    String.fromBytes32(_nHash)\n                )\n            );\n        }\n        status[signedMessageHash] = true;\n\n        // Mint `amount - fee` for the recipient and mint `fee` for the minter\n        uint256 absoluteFee = _amount.mul(shiftInFee).div(BIPS_DENOMINATOR);\n        uint256 receivedAmount = _amount.sub(absoluteFee);\n        token.mint(msg.sender, receivedAmount);\n        token.mint(feeRecipient, absoluteFee);\n\n        // Emit a log with a unique shift ID\n        emit LogShiftIn(\n            msg.sender,\n            receivedAmount,\n            nextShiftID,\n            signedMessageHash\n        );\n        nextShiftID += 1;\n\n        return receivedAmount;\n    }\n\n    /// @notice shiftOut burns tokens after taking a fee for the `_feeRecipient`.\n    ///\n    /// @param _to The address to receive the unshifted digital asset. The\n    ///        format of this address should be of the destination chain.\n    ///        For example, when shifting out to Bitcoin, _to should be a\n    ///        Bitcoin address.\n    /// @param _amount The amount of the token being shifted out, in its\n    ///        smallest value. (e.g. satoshis for BTC)\n    function shiftOut(bytes memory _to, uint256 _amount)\n        public\n        returns (uint256)\n    {\n        // The recipient must not be empty. Better validation is possible,\n        // but would need to be customized for each destination ledger.\n        require(_to.length != 0, \"Shifter: to address is empty\");\n        require(\n            _amount >= minShiftAmount,\n            \"Shifter: amount is less than the minimum shiftOut amount\"\n        );\n\n        // Burn full amount and mint fee\n        uint256 absoluteFee = _amount.mul(shiftOutFee).div(BIPS_DENOMINATOR);\n        token.burn(msg.sender, _amount);\n        token.mint(feeRecipient, absoluteFee);\n\n        // Emit a log with a unique shift ID\n        uint256 receivedValue = _amount.sub(absoluteFee);\n        emit LogShiftOut(_to, receivedValue, nextShiftID, _to);\n        nextShiftID += 1;\n\n        return receivedValue;\n    }\n\n    /// @notice verifySignature checks the the provided signature matches the provided\n    /// parameters.\n    function verifySignature(bytes32 _signedMessageHash, bytes memory _sig)\n        public\n        view\n        returns (bool)\n    {\n        return mintAuthority == ECDSA.recover(_signedMessageHash, _sig);\n    }\n\n    /// @notice hashForSignature hashes the parameters so that they can be signed.\n    function hashForSignature(\n        bytes32 _pHash,\n        uint256 _amount,\n        address _to,\n        bytes32 _nHash\n    ) public view returns (bytes32) {\n        return\n            keccak256(abi.encode(_pHash, _amount, address(token), _to, _nHash));\n    }\n}\n\n/// @dev The following are not necessary for deploying BTCShifter or ZECShifter\n/// contracts, but are used to track deployments.\ncontract BTCShifter is Shifter {\n    constructor(\n        ERC20Shifted _token,\n        address _feeRecipient,\n        address _mintAuthority,\n        uint16 _shiftInFee,\n        uint16 _shiftOutFee,\n        uint256 _minShiftOutAmount\n    )\n        public\n        Shifter(\n            _token,\n            _feeRecipient,\n            _mintAuthority,\n            _shiftInFee,\n            _shiftOutFee,\n            _minShiftOutAmount\n        )\n    {}\n}\n\ncontract ZECShifter is Shifter {\n    constructor(\n        ERC20Shifted _token,\n        address _feeRecipient,\n        address _mintAuthority,\n        uint16 _shiftInFee,\n        uint16 _shiftOutFee,\n        uint256 _minShiftOutAmount\n    )\n        public\n        Shifter(\n            _token,\n            _feeRecipient,\n            _mintAuthority,\n            _shiftInFee,\n            _shiftOutFee,\n            _minShiftOutAmount\n        )\n    {}\n}\n\ncontract BCHShifter is Shifter {\n    constructor(\n        ERC20Shifted _token,\n        address _feeRecipient,\n        address _mintAuthority,\n        uint16 _shiftInFee,\n        uint16 _shiftOutFee,\n        uint256 _minShiftOutAmount\n    )\n        public\n        Shifter(\n            _token,\n            _feeRecipient,\n            _mintAuthority,\n            _shiftInFee,\n            _shiftOutFee,\n            _minShiftOutAmount\n        )\n    {}\n}\n",
  "sourcePath": "/home/noah/github/renproject/darknode-sol/contracts/Shifter/Shifter.sol",
  "compiler": {
    "name": "solc",
    "version": "0.5.16+commit.9c3226ce.Emscripten.clang"
  },
  "schemaVersion": "3.0.23",
  "updatedAt": "2020-02-24T01:44:00.868Z",
  "networkType": "ethereum",
  "devdoc": {
    "methods": {
      "isOwner()": {
        "details": "Returns true if the caller is the current owner."
      },
      "owner()": {
        "details": "Returns the address of the current owner."
      },
      "renounceOwnership()": {
        "details": "Leaves the contract without owner. It will not be possible to call `onlyOwner` functions anymore. Can only be called by the current owner.     * NOTE: Renouncing ownership will leave the contract without an owner, thereby removing any functionality that is only available to the owner."
      },
      "shiftIn(bytes32,uint256,bytes32,bytes)": {
        "params": {
          "_amount": "The amount of the token being shifted int, in its        smallest value. (e.g. satoshis for BTC)",
          "_nHash": "(nonce hash) The hash of the nonce, amount and pHash.",
          "_pHash": "(payload hash) The hash of the payload associated with the        shift.",
          "_sig": "The signature of the hash of the following values:        (pHash, amount, msg.sender, nHash), signed by the mintAuthority."
        }
      },
      "shiftOut(bytes,uint256)": {
        "params": {
          "_amount": "The amount of the token being shifted out, in its        smallest value. (e.g. satoshis for BTC)",
          "_to": "The address to receive the unshifted digital asset. The        format of this address should be of the destination chain.        For example, when shifting out to Bitcoin, _to should be a        Bitcoin address."
        }
      },
      "updateFeeRecipient(address)": {
        "params": {
          "_nextFeeRecipient": "The address to start paying fees to."
        }
      },
      "updateMinimumShiftOutAmount(uint256)": {
        "params": {
          "_minShiftOutAmount": "The new min shiftOut amount."
        }
      },
      "updateMintAuthority(address)": {
        "params": {
          "_nextMintAuthority": "The address to start paying fees to."
        }
      },
      "updateShiftInFee(uint16)": {
        "params": {
          "_nextFee": "The new fee for minting and burning."
        }
      },
      "updateShiftOutFee(uint16)": {
        "params": {
          "_nextFee": "The new fee for minting and burning."
        }
      }
    }
  },
  "userdoc": {
    "methods": {
      "claimTokenOwnership()": {
        "notice": "Claims ownership of the token passed in to the constructor. `transferStoreOwnership` must have previously been called. Anyone can call this function."
      },
      "hashForSignature(bytes32,uint256,address,bytes32)": {
        "notice": "hashForSignature hashes the parameters so that they can be signed."
      },
      "recoverTokens(address)": {
        "notice": "Allow the owner of the contract to recover funds accidentally sent to the contract. To withdraw ETH, the token should be set to `0x0`."
      },
      "shiftIn(bytes32,uint256,bytes32,bytes)": {
        "notice": "shiftIn mints tokens after taking a fee for the `_feeRecipient`. "
      },
      "shiftOut(bytes,uint256)": {
        "notice": "shiftOut burns tokens after taking a fee for the `_feeRecipient`. "
      },
      "transferTokenOwnership(address)": {
        "notice": "Allow the owner to update the owner of the ERC20Shifted token."
      },
      "updateFeeRecipient(address)": {
        "notice": "Allow the owner to update the fee recipient. "
      },
      "updateMinimumShiftOutAmount(uint256)": {
        "notice": "Allow the owner to update the minimum shiftOut amount. "
      },
      "updateMintAuthority(address)": {
        "notice": "Allow the owner to update the fee recipient. "
      },
      "updateShiftInFee(uint16)": {
        "notice": "Allow the owner to update the shiftIn fee. "
      },
      "updateShiftOutFee(uint16)": {
        "notice": "Allow the owner to update the shiftOut fee. "
      },
      "verifySignature(bytes32,bytes)": {
        "notice": "verifySignature checks the the provided signature matches the provided parameters."
      }
    }
  }
}