{
  "contractName": "ZECShifter",
  "abi": [
    {
      "constant": false,
      "inputs": [],
      "name": "claimTokenOwnership",
      "outputs": [],
      "payable": false,
      "stateMutability": "nonpayable",
      "type": "function"
    },
    {
      "constant": false,
      "inputs": [
        {
          "name": "_amount",
          "type": "uint256"
        },
        {
          "name": "_nHash",
          "type": "bytes32"
        },
        {
          "name": "_pHash",
          "type": "bytes32"
        },
        {
          "name": "_sig",
          "type": "bytes"
        }
      ],
      "name": "shiftIn",
      "outputs": [
        {
          "name": "",
          "type": "uint256"
        }
      ],
      "payable": false,
      "stateMutability": "nonpayable",
      "type": "function"
    },
    {
      "constant": true,
      "inputs": [],
      "name": "pendingNextShifter",
      "outputs": [
        {
          "name": "",
          "type": "address"
        }
      ],
      "payable": false,
      "stateMutability": "view",
      "type": "function"
    },
    {
      "constant": true,
      "inputs": [],
      "name": "feeRecipient",
      "outputs": [
        {
          "name": "",
          "type": "address"
        }
      ],
      "payable": false,
      "stateMutability": "view",
      "type": "function"
    },
    {
      "constant": true,
      "inputs": [],
      "name": "nextShifter",
      "outputs": [
        {
          "name": "",
          "type": "address"
        }
      ],
      "payable": false,
      "stateMutability": "view",
      "type": "function"
    },
    {
      "constant": true,
      "inputs": [
        {
          "name": "",
          "type": "bytes32"
        }
      ],
      "name": "status",
      "outputs": [
        {
          "name": "",
          "type": "bool"
        }
      ],
      "payable": false,
      "stateMutability": "view",
      "type": "function"
    },
    {
      "constant": false,
      "inputs": [
        {
          "name": "_to",
          "type": "address"
        },
        {
          "name": "_amount",
          "type": "uint256"
        },
        {
          "name": "_nHash",
          "type": "bytes32"
        },
        {
          "name": "_pHash",
          "type": "bytes32"
        },
        {
          "name": "_sig",
          "type": "bytes"
        }
      ],
      "name": "forwardShiftIn",
      "outputs": [
        {
          "name": "",
          "type": "uint256"
        }
      ],
      "payable": false,
      "stateMutability": "nonpayable",
      "type": "function"
    },
    {
      "constant": false,
      "inputs": [
        {
          "name": "_to",
          "type": "bytes"
        },
        {
          "name": "_amount",
          "type": "uint256"
        }
      ],
      "name": "shiftOut",
      "outputs": [
        {
          "name": "",
          "type": "uint256"
        }
      ],
      "payable": false,
      "stateMutability": "nonpayable",
      "type": "function"
    },
    {
      "constant": true,
      "inputs": [],
      "name": "mintAuthority",
      "outputs": [
        {
          "name": "",
          "type": "address"
        }
      ],
      "payable": false,
      "stateMutability": "view",
      "type": "function"
    },
    {
      "constant": false,
      "inputs": [
        {
          "name": "_wrapper",
          "type": "address"
        },
        {
          "name": "authorized",
          "type": "bool"
        }
      ],
      "name": "authorizeWrapper",
      "outputs": [],
      "payable": false,
      "stateMutability": "nonpayable",
      "type": "function"
    },
    {
      "constant": true,
      "inputs": [],
      "name": "nextShiftID",
      "outputs": [
        {
          "name": "",
          "type": "uint256"
        }
      ],
      "payable": false,
      "stateMutability": "view",
      "type": "function"
    },
    {
      "constant": true,
      "inputs": [],
      "name": "shifterUpgradeTime",
      "outputs": [
        {
          "name": "",
          "type": "uint256"
        }
      ],
      "payable": false,
      "stateMutability": "view",
      "type": "function"
    },
    {
      "constant": true,
      "inputs": [
        {
          "name": "",
          "type": "address"
        }
      ],
      "name": "authorizedWrapper",
      "outputs": [
        {
          "name": "",
          "type": "bool"
        }
      ],
      "payable": false,
      "stateMutability": "view",
      "type": "function"
    },
    {
      "constant": true,
      "inputs": [
        {
          "name": "_to",
          "type": "address"
        },
        {
          "name": "_amount",
          "type": "uint256"
        },
        {
          "name": "_nHash",
          "type": "bytes32"
        },
        {
          "name": "_pHash",
          "type": "bytes32"
        }
      ],
      "name": "sigHash",
      "outputs": [
        {
          "name": "",
          "type": "bytes32"
        }
      ],
      "payable": false,
      "stateMutability": "view",
      "type": "function"
    },
    {
      "constant": true,
      "inputs": [],
      "name": "fee",
      "outputs": [
        {
          "name": "",
          "type": "uint16"
        }
      ],
      "payable": false,
      "stateMutability": "view",
      "type": "function"
    },
    {
      "constant": false,
      "inputs": [
        {
          "name": "_nextShifter",
          "type": "address"
        }
      ],
      "name": "upgradeShifter",
      "outputs": [],
      "payable": false,
      "stateMutability": "nonpayable",
      "type": "function"
    },
    {
      "constant": false,
      "inputs": [
        {
          "name": "_nextFeeRecipient",
          "type": "address"
        }
      ],
      "name": "updateFeeRecipient",
      "outputs": [],
      "payable": false,
      "stateMutability": "nonpayable",
      "type": "function"
    },
    {
      "constant": true,
      "inputs": [
        {
          "name": "_to",
          "type": "address"
        },
        {
          "name": "_amount",
          "type": "uint256"
        },
        {
          "name": "_nHash",
          "type": "bytes32"
        },
        {
          "name": "_pHash",
          "type": "bytes32"
        },
        {
          "name": "_sig",
          "type": "bytes"
        }
      ],
      "name": "verifySig",
      "outputs": [
        {
          "name": "",
          "type": "bool"
        }
      ],
      "payable": false,
      "stateMutability": "view",
      "type": "function"
    },
    {
      "constant": false,
      "inputs": [
        {
          "name": "_from",
          "type": "address"
        },
        {
          "name": "_to",
          "type": "bytes"
        },
        {
          "name": "_amount",
          "type": "uint256"
        }
      ],
      "name": "forwardShiftOut",
      "outputs": [
        {
          "name": "",
          "type": "uint256"
        }
      ],
      "payable": false,
      "stateMutability": "nonpayable",
      "type": "function"
    },
    {
      "constant": true,
      "inputs": [],
      "name": "token",
      "outputs": [
        {
          "name": "",
          "type": "address"
        }
      ],
      "payable": false,
      "stateMutability": "view",
      "type": "function"
    },
    {
      "inputs": [
        {
          "name": "_previousShifter",
          "type": "address"
        },
        {
          "name": "_token",
          "type": "address"
        },
        {
          "name": "_feeRecipient",
          "type": "address"
        },
        {
          "name": "_mintAuthority",
          "type": "address"
        },
        {
          "name": "_fee",
          "type": "uint16"
        }
      ],
      "payable": false,
      "stateMutability": "nonpayable",
      "type": "constructor"
    },
    {
      "anonymous": false,
      "inputs": [
        {
          "indexed": true,
          "name": "_to",
          "type": "address"
        },
        {
          "indexed": false,
          "name": "_amount",
          "type": "uint256"
        },
        {
          "indexed": true,
          "name": "_shiftID",
          "type": "uint256"
        }
      ],
      "name": "LogShiftIn",
      "type": "event"
    },
    {
      "anonymous": false,
      "inputs": [
        {
          "indexed": true,
          "name": "_to",
          "type": "bytes"
        },
        {
          "indexed": false,
          "name": "_amount",
          "type": "uint256"
        },
        {
          "indexed": true,
          "name": "_shiftID",
          "type": "uint256"
        }
      ],
      "name": "LogShiftOut",
      "type": "event"
    }
  ],
  "bytecode": "0x6080604052600060085534801561001557600080fd5b5060405160a080611674833981018060405260a081101561003557600080fd5b50805160208083015160408085015160608601516080909601516001600160a01b039586166000908152600390955291909320805460ff19166001179055600480549285166001600160a01b03199384161790556005805495851695831695909517909455600680549390921661ffff9094167401000000000000000000000000000000000000000002600160a01b61ffff02199093169290921790911691909117905561158c806100e86000396000f3fe608060405234801561001057600080fd5b506004361061012c5760003560e01c8063ab595e0c116100ad578063ef4b41b911610071578063ef4b41b914610497578063f160d369146104bd578063f1669014146104e3578063fbc8d09e146105a8578063fc0c546a1461065e5761012c565b8063ab595e0c1461040a578063b07da53214610412578063b7f241311461041a578063dd34129914610440578063ddca3f43146104785761012c565b806352ad0d5e116100f457806352ad0d5e1461023857806371d92229146102695780638723c3771461032e5780639340b21e146103d45780639ce018c5146103dc5761012c565b806310731a65146101315780631ac945b81461013b5780631f0e95fd1461020457806346904840146102285780634ebc490c14610230575b600080fd5b610139610666565b005b6101f26004803603608081101561015157600080fd5b81359160208101359160408201359190810190608081016060820135600160201b81111561017e57600080fd5b82018360208201111561019057600080fd5b803590602001918460018302840111600160201b831117156101b157600080fd5b91908080601f0160208091040260200160405190810160405280939291908181526020018383808284376000920191909152509295506106c6945050505050565b60408051918252519081900360200190f35b61020c6106e0565b604080516001600160a01b039092168252519081900360200190f35b61020c6106ef565b61020c6106fe565b6102556004803603602081101561024e57600080fd5b503561070d565b604080519115158252519081900360200190f35b6101f2600480360360a081101561027f57600080fd5b6001600160a01b038235169160208101359160408201359160608101359181019060a081016080820135600160201b8111156102ba57600080fd5b8201836020820111156102cc57600080fd5b803590602001918460018302840111600160201b831117156102ed57600080fd5b91908080601f016020809104026020016040519081016040528093929190818152602001838380828437600092019190915250929550610722945050505050565b6101f26004803603604081101561034457600080fd5b810190602081018135600160201b81111561035e57600080fd5b82018360208201111561037057600080fd5b803590602001918460018302840111600160201b8311171561039157600080fd5b91908080601f016020809104026020016040519081016040528093929190818152602001838380828437600092019190915250929550509135925061078c915050565b61020c6107a0565b610139600480360360408110156103f257600080fd5b506001600160a01b03813516906020013515156107af565b6101f261083c565b6101f2610842565b6102556004803603602081101561043057600080fd5b50356001600160a01b0316610848565b6101f26004803603608081101561045657600080fd5b506001600160a01b03813516906020810135906040810135906060013561085d565b61048061095e565b6040805161ffff9092168252519081900360200190f35b610139600480360360208110156104ad57600080fd5b50356001600160a01b031661096f565b610139600480360360208110156104d357600080fd5b50356001600160a01b0316610bd0565b610255600480360360a08110156104f957600080fd5b6001600160a01b038235169160208101359160408201359160608101359181019060a081016080820135600160201b81111561053457600080fd5b82018360208201111561054657600080fd5b803590602001918460018302840111600160201b8311171561056757600080fd5b91908080601f016020809104026020016040519081016040528093929190818152602001838380828437600092019190915250929550610c54945050505050565b6101f2600480360360608110156105be57600080fd5b6001600160a01b038235169190810190604081016020820135600160201b8111156105e857600080fd5b8201836020820111156105fa57600080fd5b803590602001918460018302840111600160201b8311171561061b57600080fd5b91908080601f0160208091040260200160405190810160405280939291908181526020018383808284376000920191909152509295505091359250610e28915050565b61020c610e84565b6004805460408051600160e31b6309ce3c1902815290516001600160a01b0390921692634e71e0c892828201926000929082900301818387803b1580156106ac57600080fd5b505af11580156106c0573d6000803e3d6000fd5b50505050565b60006106d53386868686610e93565b90505b949350505050565b6001546001600160a01b031681565b6006546001600160a01b031681565b6000546001600160a01b031681565b60076020526000908152604090205460ff1681565b3360009081526003602052604081205460ff1661077357604051600160e51b62461bcd0281526004018080602001828103825260288152602001806114ea6028913960400191505060405180910390fd5b6107808686868686610e93565b90505b95945050505050565b60006107993384846111e0565b9392505050565b6005546001600160a01b031681565b6005546001600160a01b031633146108115760408051600160e51b62461bcd02815260206004820152601660248201527f6d757374206265206d696e7420617574686f7269747900000000000000000000604482015290519081900360640190fd5b6001600160a01b03919091166000908152600360205260409020805460ff1916911515919091179055565b60085481565b60025481565b60036020526000908152604090205460ff1681565b600080546001600160a01b0316156109075760005460408051600160e01b63dd3412990281526001600160a01b0388811660048301526024820188905260448201879052606482018690529151919092169163dd341299916084808301926020929190829003018186803b1580156108d457600080fd5b505afa1580156108e8573d6000803e3d6000fd5b505050506040513d60208110156108fe57600080fd5b505190506106d8565b50600454604080516001600160a01b0392831660208083019190915296909216828201526060820194909452608081019290925260a0808301919091528251808303909101815260c0909101909152805191012090565b600654600160a01b900461ffff1681565b6005546001600160a01b031633146109d15760408051600160e51b62461bcd02815260206004820152601660248201527f6d757374206265206d696e7420617574686f7269747900000000000000000000604482015290519081900360640190fd5b6001546001600160a01b0382811691161480156109f057506002544210155b15610ba857600154600080546001600160a01b0319166001600160a01b039283161790558116610adb576004805460408051600160e01b638da5cb5b028152905130936001600160a01b0390931692638da5cb5b92808201926020929091829003018186803b158015610a6257600080fd5b505afa158015610a76573d6000803e3d6000fd5b505050506040513d6020811015610a8c57600080fd5b50516001600160a01b031614610ad657604051600160e51b62461bcd0281526004018080602001828103825260278152602001806115126027913960400191505060405180910390fd5b610ba3565b600480546000805460408051600160e01b63f2fde38b0281526001600160a01b03928316958101959095525192169263f2fde38b926024808301939282900301818387803b158015610b2c57600080fd5b505af1158015610b40573d6000803e3d6000fd5b50506000805460408051600160e01b6310731a6502815290516001600160a01b0390921694506310731a659350600480820193929182900301818387803b158015610b8a57600080fd5b505af1158015610b9e573d6000803e3d6000fd5b505050505b610bcd565b620151804201600255600180546001600160a01b0319166001600160a01b0383161790555b50565b6005546001600160a01b03163314610c325760408051600160e51b62461bcd02815260206004820152601660248201527f6d757374206265206d696e7420617574686f7269747900000000000000000000604482015290519081900360640190fd5b600680546001600160a01b0319166001600160a01b0392909216919091179055565b600080546001600160a01b031615610d85576000809054906101000a90046001600160a01b03166001600160a01b031663f166901487878787876040518663ffffffff1660e01b815260040180866001600160a01b03166001600160a01b0316815260200185815260200184815260200183815260200180602001828103825283818151815260200191508051906020019080838360005b83811015610d04578181015183820152602001610cec565b50505050905090810190601f168015610d315780820380516001836020036101000a031916815260200191505b50965050505050505060206040518083038186803b158015610d5257600080fd5b505afa158015610d66573d6000803e3d6000fd5b505050506040513d6020811015610d7c57600080fd5b50519050610783565b60208201516040830151606084015160001a6001610da58a8a8a8a61085d565b82858560405160008152602001604052604051808581526020018460ff1660ff1681526020018381526020018281526020019450505050506020604051602081039080840390855afa158015610dff573d6000803e3d6000fd5b5050604051601f1901516005546001600160a01b039182169116149a9950505050505050505050565b3360009081526003602052604081205460ff16610e7957604051600160e51b62461bcd0281526004018080602001828103825260288152602001806115396028913960400191505060405180910390fd5b6106d88484846111e0565b6004546001600160a01b031681565b600080546001600160a01b031615610fa7576000809054906101000a90046001600160a01b03166001600160a01b03166371d9222987878787876040518663ffffffff1660e01b815260040180866001600160a01b03166001600160a01b0316815260200185815260200184815260200183815260200180602001828103825283818151815260200191508051906020019080838360005b83811015610f43578181015183820152602001610f2b565b50505050905090810190601f168015610f705780820380516001836020036101000a031916815260200191505b509650505050505050602060405180830381600087803b158015610f9357600080fd5b505af1158015610d66573d6000803e3d6000fd5b60008481526007602052604090205460ff161561100e5760408051600160e51b62461bcd02815260206004820152601860248201527f6e6f6e6365206861736820616c7265616479207370656e740000000000000000604482015290519081900360640190fd5b61101b8686868686610c54565b61106f5760408051600160e51b62461bcd02815260206004820152601160248201527f696e76616c6964207369676e6174757265000000000000000000000000000000604482015290519081900360640190fd5b60065460009061271090600160a01b900461ffff168702600087815260076020526040808220805460ff19166001179055600480548251600160e01b6340c10f190281526001600160a01b038e81169382019390935295909404808c0360248701529151919550909216926340c10f19926044808301939282900301818387803b1580156110fc57600080fd5b505af1158015611110573d6000803e3d6000fd5b50506004805460065460408051600160e01b6340c10f190281526001600160a01b03928316948101949094526024840187905251911693506340c10f199250604480830192600092919082900301818387803b15801561116f57600080fd5b505af1158015611183573d6000803e3d6000fd5b50505050600854876001600160a01b03167fd79c73d5d7701ff70ab30939dd980af7276ff21617d890ff2ce150f3b5ea3d94886040518082815260200191505060405180910390a360088054600101905590940395945050505050565b600080546001600160a01b0316156112ef5760008054604051600160e11b637de4684f0281526001600160a01b038781166004830190815260448301879052606060248401908152885160648501528851929094169463fbc8d09e948a948a948a94936084909201916020870191908190849084905b8381101561126e578181015183820152602001611256565b50505050905090810190601f16801561129b5780820380516001836020036101000a031916815260200191505b50945050505050602060405180830381600087803b1580156112bc57600080fd5b505af11580156112d0573d6000803e3d6000fd5b505050506040513d60208110156112e657600080fd5b50519050610799565b82516113455760408051600160e51b62461bcd02815260206004820152601360248201527f746f206164647265737320697320656d70747900000000000000000000000000604482015290519081900360640190fd5b60065460009061271090600160a01b900461ffff1684026004805460408051600160e21b632770a7eb0281526001600160a01b038b8116948201949094526024810189905290519490930494501691639dc29fac9160448082019260009290919082900301818387803b1580156113bb57600080fd5b505af11580156113cf573d6000803e3d6000fd5b50506004805460065460408051600160e01b6340c10f190281526001600160a01b03928316948101949094526024840187905251911693506340c10f199250604480830192600092919082900301818387803b15801561142e57600080fd5b505af1158015611442573d6000803e3d6000fd5b50505050600854846040518082805190602001908083835b602083106114795780518252601f19909201916020918201910161145a565b51815160209384036101000a600019018019909216911617905260408051929094018290038220888b03835293519395507f1005efb915fb4efa25ffd0757ae0c14b27112a87bbfd7547daf01830cd49930994509083900301919050a3600880546001019055909103939250505056fe6e6f7420617574686f72697a656420746f206d696e74206f6e20626568616c66206f6620757365726d757374206265206f776e6572206f6620746f6b656e20746f20726573657420757067726164656e6f7420617574686f72697a656420746f206275726e206f6e20626568616c66206f662075736572a165627a7a72305820ff965a52e7f986490e5d39f63492b8c600859754b61f152b8bd39205ee062afa0029",
  "source": "pragma solidity ^0.5.8;\n\nimport \"./ERC20Shifted.sol\";\n\ncontract Shifter {\n    /// @notice Shifter can be upgraded by setting a `nextShifter`. The\n    /// forwarding address is only set after a delay has passed.\n    /// This upgradability pattern is not as sophisticated as a DelegateProxy,\n    /// but is less error prone. It's downsides are higher gas fees when using\n    /// the old address, and every function needing to forward the call,\n    /// including storage getters.\n    address public nextShifter;\n    address public pendingNextShifter;\n    uint256 public shifterUpgradeTime;\n    uint256 constant shifterUpgradeDelay = 0.5 days + 0.5 days;\n\n    /// @notice A set of contracts that can call burn on behalf of a user\n    mapping (address=>bool) public authorizedWrapper;\n\n    /// @notice Each Shifter token is tied to a specific shifted token.\n    ERC20Shifted public token;\n\n    /// @notice The mintAuthority is an address that can sign mint requests.\n    address public mintAuthority;\n\n    /// @notice When tokens a burnt, a portion of the tokens are forwarded to\n    /// a fee recipient.\n    address public feeRecipient;\n\n    /// @notice The burning fee in bips.\n    uint16 public fee;\n\n    /// @notice Each nHash can only be seen once.\n    mapping (bytes32=>bool) public status;\n\n    uint256 public nextShiftID = 0;\n\n    event LogShiftIn(address indexed _to, uint256 _amount, uint256 indexed _shiftID);\n    event LogShiftOut(bytes indexed _to, uint256 _amount, uint256 indexed _shiftID);\n\n    /// @notice Only allow the Darknode Payment contract.\n    modifier onlyMintAuthority() {\n        require(msg.sender == mintAuthority, \"must be mint authority\");\n        _;\n    }\n\n    constructor(address _previousShifter, ERC20Shifted _token, address _feeRecipient, address _mintAuthority, uint16 _fee) public {\n        authorizedWrapper[_previousShifter] = true;\n        token = _token;\n        mintAuthority = _mintAuthority;\n        fee = _fee;\n        feeRecipient = _feeRecipient;\n    }\n\n    /// @notice Claims ownership of the token passed in to the constructor.\n    ///         `transferStoreOwnership` must have previously been called.\n    ///         Anyone can call this function.\n    function claimTokenOwnership() public {\n        token.claimOwnership();\n    }\n\n    function authorizeWrapper(address _wrapper, bool authorized) public onlyMintAuthority {\n        authorizedWrapper[_wrapper] = authorized;\n    }\n\n    /// @notice Allow the mint authority to update the fee recipient.\n    /// @param _nextFeeRecipient The address to start paying fees to.\n    function updateFeeRecipient(address _nextFeeRecipient) public onlyMintAuthority {\n        feeRecipient = _nextFeeRecipient;\n    }\n\n    /// @notice Allows the mint authority to initiate an ownership transfer of\n    ///         the token.\n    /// @param _nextShifter The address to transfer the ownership to, or 0x0.\n    function upgradeShifter(address _nextShifter) public onlyMintAuthority {\n        /* solium-disable-next-line security/no-block-members */\n        if (_nextShifter == pendingNextShifter && block.timestamp >= shifterUpgradeTime) {\n            // If the delay has passed and the next shifter isn't been changed,\n            // transfer the token to the next shifter and start pointing to it.\n\n            nextShifter = pendingNextShifter;\n\n            if (_nextShifter == address(0x0)) {\n                require(token.owner() == address(this), \"must be owner of token to reset upgrade\");\n            } else {\n                token.transferOwnership(address(nextShifter));\n                Shifter(nextShifter).claimTokenOwnership();\n            }\n        } else {\n            // Start a timer so allow the shifter to be upgraded.\n\n            /* solium-disable-next-line security/no-block-members */\n            shifterUpgradeTime = block.timestamp + shifterUpgradeDelay;\n            pendingNextShifter = _nextShifter;\n        }\n    }\n\n    /// @notice shiftOut burns tokens after taking a fee for the `_feeRecipient`.\n    function shiftIn(uint256 _amount, bytes32 _nHash, bytes32 _pHash, bytes memory _sig) public returns (uint256) {\n        return _shiftIn(msg.sender, _amount, _nHash, _pHash, _sig);\n    }\n\n    /// @notice Callable by the previous Shifter if it has been upgraded.\n    function forwardShiftIn(address _to, uint256 _amount, bytes32 _nHash, bytes32 _pHash, bytes memory _sig) public returns (uint256) {\n        require(authorizedWrapper[msg.sender], \"not authorized to mint on behalf of user\");\n        return _shiftIn(_to, _amount, _nHash, _pHash, _sig);\n    }\n\n    /// @notice shiftIn mints new tokens after verifying the signature and\n    /// transfers the tokens to `_to`.\n    function _shiftIn(address _to, uint256 _amount, bytes32 _nHash, bytes32 _pHash, bytes memory _sig) internal returns (uint256) {\n        if (nextShifter != address(0x0)) {return Shifter(nextShifter).forwardShiftIn(_to, _amount, _nHash, _pHash, _sig);}\n\n        require(status[_nHash] == false, \"nonce hash already spent\");\n        require(verifySig(_to, _amount, _nHash, _pHash, _sig), \"invalid signature\");\n        uint256 absoluteFee = (_amount * fee)/10000;\n        status[_nHash] = true;\n        token.mint(_to, _amount-absoluteFee);\n        token.mint(feeRecipient, absoluteFee);\n        emit LogShiftIn(_to, _amount, nextShiftID);\n        nextShiftID += 1;\n        return _amount-absoluteFee;\n    }\n\n    /// @notice shiftOut burns tokens after taking a fee for the `_feeRecipient`.\n    function shiftOut(bytes memory _to, uint256 _amount) public returns (uint256) {\n        return _shiftOut(msg.sender, _to, _amount);\n    }\n\n    /// @notice Callable by the previous Shifter if it has been upgraded.\n    function forwardShiftOut(address _from, bytes memory _to, uint256 _amount) public returns (uint256) {\n        require(authorizedWrapper[msg.sender], \"not authorized to burn on behalf of user\");\n        return _shiftOut(_from, _to, _amount);\n    }\n\n    function _shiftOut(address _from, bytes memory _to, uint256 _amount) internal returns (uint256) {\n        if (nextShifter != address(0x0)) {return Shifter(nextShifter).forwardShiftOut(_from, _to, _amount);}\n        require(_to.length != 0, \"to address is empty\");\n\n        uint256 absoluteFee = (_amount * fee)/10000;\n\n        // Burn full amount and mint fee\n        token.burn(_from, _amount);\n        token.mint(feeRecipient, absoluteFee);\n\n        emit LogShiftOut(_to, _amount-absoluteFee, nextShiftID);\n        nextShiftID += 1;\n        return _amount-absoluteFee;\n    }\n\n    /// @notice verifySig checks the the provided signature matches the provided\n    /// parameters.\n    function verifySig(address _to, uint256 _amount, bytes32 _nHash, bytes32 _pHash, bytes memory _sig) public view returns (bool) {\n        if (nextShifter != address(0x0)) {return Shifter(nextShifter).verifySig(_to, _amount, _nHash, _pHash, _sig);}\n\n        bytes32 r;\n        bytes32 s;\n        uint8 v;\n        /* solium-disable-next-line */ /* solhint-disable-next-line */\n        assembly {\n            r := mload(add(_sig, 0x20))\n            s := mload(add(_sig, 0x40))\n            v := byte(0, mload(add(_sig, 0x60)))\n        }\n\n        return mintAuthority == ecrecover(sigHash(_to, _amount, _nHash, _pHash), v, r, s);\n    }\n\n    /// @notice sigHash hashes the parameters so that they can be signed.\n    function sigHash(address _to, uint256 _amount, bytes32 _nHash, bytes32 _pHash) public view returns (bytes32) {\n        if (nextShifter != address(0x0)) {return Shifter(nextShifter).sigHash(_to, _amount, _nHash, _pHash);}\n        return keccak256(abi.encode(address(token), _to, _amount, _nHash, _pHash));\n    }\n}\n\n/* solium-disable no-empty-blocks */\ncontract BTCShifter is Shifter {\n    constructor(address _previousShifter, ERC20Shifted _token, address _feeRecipient, address _mintAuthority, uint16 _fee)\n        Shifter(_previousShifter, _token, _feeRecipient, _mintAuthority, _fee) public {\n    }\n}\n\ncontract ZECShifter is Shifter {\n    constructor(address _previousShifter, ERC20Shifted _token, address _feeRecipient, address _mintAuthority, uint16 _fee)\n        Shifter(_previousShifter, _token, _feeRecipient, _mintAuthority, _fee) public {\n    }\n}",
  "sourcePath": "/home/noah/github/renproject/darknode-sol/contracts/Shifter/Shifter.sol",
  "compiler": {
    "name": "solc",
    "version": "0.5.8+commit.23d335f2.Emscripten.clang"
  },
  "schemaVersion": "3.0.9",
  "updatedAt": "2019-06-20T01:21:48.614Z",
  "devdoc": {
    "methods": {
      "updateFeeRecipient(address)": {
        "params": {
          "_nextFeeRecipient": "The address to start paying fees to."
        }
      },
      "upgradeShifter(address)": {
        "params": {
          "_nextShifter": "The address to transfer the ownership to, or 0x0."
        }
      }
    }
  },
  "userdoc": {
    "methods": {
      "claimTokenOwnership()": {
        "notice": "Claims ownership of the token passed in to the constructor.         `transferStoreOwnership` must have previously been called.         Anyone can call this function."
      },
      "forwardShiftIn(address,uint256,bytes32,bytes32,bytes)": {
        "notice": "Callable by the previous Shifter if it has been upgraded."
      },
      "forwardShiftOut(address,bytes,uint256)": {
        "notice": "Callable by the previous Shifter if it has been upgraded."
      },
      "shiftIn(uint256,bytes32,bytes32,bytes)": {
        "notice": "shiftOut burns tokens after taking a fee for the `_feeRecipient`."
      },
      "shiftOut(bytes,uint256)": {
        "notice": "shiftOut burns tokens after taking a fee for the `_feeRecipient`."
      },
      "sigHash(address,uint256,bytes32,bytes32)": {
        "notice": "sigHash hashes the parameters so that they can be signed."
      },
      "updateFeeRecipient(address)": {
        "notice": "Allow the mint authority to update the fee recipient."
      },
      "upgradeShifter(address)": {
        "notice": "Allows the mint authority to initiate an ownership transfer of         the token."
      },
      "verifySig(address,uint256,bytes32,bytes32,bytes)": {
        "notice": "verifySig checks the the provided signature matches the provided parameters."
      }
    }
  }
}