{
  "contractName": "DarknodeSlasher",
  "abi": [
    {
      "constant": false,
      "inputs": [],
      "name": "renounceOwnership",
      "outputs": [],
      "payable": false,
      "stateMutability": "nonpayable",
      "type": "function"
    },
    {
      "constant": true,
      "inputs": [],
      "name": "owner",
      "outputs": [
        {
          "name": "",
          "type": "address"
        }
      ],
      "payable": false,
      "stateMutability": "view",
      "type": "function"
    },
    {
      "constant": true,
      "inputs": [],
      "name": "isOwner",
      "outputs": [
        {
          "name": "",
          "type": "bool"
        }
      ],
      "payable": false,
      "stateMutability": "view",
      "type": "function"
    },
    {
      "constant": true,
      "inputs": [],
      "name": "darknodeRegistry",
      "outputs": [
        {
          "name": "",
          "type": "address"
        }
      ],
      "payable": false,
      "stateMutability": "view",
      "type": "function"
    },
    {
      "constant": false,
      "inputs": [
        {
          "name": "newOwner",
          "type": "address"
        }
      ],
      "name": "transferOwnership",
      "outputs": [],
      "payable": false,
      "stateMutability": "nonpayable",
      "type": "function"
    },
    {
      "inputs": [
        {
          "name": "_darknodeRegistry",
          "type": "address"
        }
      ],
      "payable": false,
      "stateMutability": "nonpayable",
      "type": "constructor"
    },
    {
      "anonymous": false,
      "inputs": [
        {
          "indexed": true,
          "name": "previousOwner",
          "type": "address"
        },
        {
          "indexed": true,
          "name": "newOwner",
          "type": "address"
        }
      ],
      "name": "OwnershipTransferred",
      "type": "event"
    },
    {
      "constant": false,
      "inputs": [
        {
          "name": "_prover",
          "type": "address"
        },
        {
          "name": "_challenger1",
          "type": "address"
        },
        {
          "name": "_challenger2",
          "type": "address"
        }
      ],
      "name": "slash",
      "outputs": [],
      "payable": false,
      "stateMutability": "nonpayable",
      "type": "function"
    }
  ],
  "bytecode": "0x608060405234801561001057600080fd5b506040516020806104cd8339810180604052602081101561003057600080fd5b5051600080546001600160a01b03191633178082556040516001600160a01b039190911691907f8be0079c531659141344cd1fd0a4f28419497f9722a3daafe3b4186f6b6457e0908290a3600180546001600160a01b0319166001600160a01b0392909216919091179055610423806100aa6000396000f3fe608060405234801561001057600080fd5b50600436106100625760003560e01c8063563bf26414610067578063715018a6146100a15780638da5cb5b146100a95780638f32d59b146100cd5780639e45e0d0146100e9578063f2fde38b146100f1575b600080fd5b61009f6004803603606081101561007d57600080fd5b506001600160a01b038135811691602081013582169160409091013516610117565b005b61009f6101f1565b6100b1610297565b604080516001600160a01b039092168252519081900360200190f35b6100d56102a6565b604080519115158252519081900360200190f35b6100b16102b7565b61009f6004803603602081101561010757600080fd5b50356001600160a01b03166102c6565b61011f6102a6565b6101735760408051600160e51b62461bcd02815260206004820181905260248201527f4f776e61626c653a2063616c6c6572206973206e6f7420746865206f776e6572604482015290519081900360640190fd5b60015460408051600160e21b63158efc990281526001600160a01b038681166004830152858116602483015284811660448301529151919092169163563bf26491606480830192600092919082900301818387803b1580156101d457600080fd5b505af11580156101e8573d6000803e3d6000fd5b50505050505050565b6101f96102a6565b61024d5760408051600160e51b62461bcd02815260206004820181905260248201527f4f776e61626c653a2063616c6c6572206973206e6f7420746865206f776e6572604482015290519081900360640190fd5b600080546040516001600160a01b03909116907f8be0079c531659141344cd1fd0a4f28419497f9722a3daafe3b4186f6b6457e0908390a3600080546001600160a01b0319169055565b6000546001600160a01b031690565b6000546001600160a01b0316331490565b6001546001600160a01b031681565b6102ce6102a6565b6103225760408051600160e51b62461bcd02815260206004820181905260248201527f4f776e61626c653a2063616c6c6572206973206e6f7420746865206f776e6572604482015290519081900360640190fd5b61032b8161032e565b50565b6001600160a01b03811661037657604051600160e51b62461bcd0281526004018080602001828103825260268152602001806103d26026913960400191505060405180910390fd5b600080546040516001600160a01b03808516939216917f8be0079c531659141344cd1fd0a4f28419497f9722a3daafe3b4186f6b6457e091a3600080546001600160a01b0319166001600160a01b039290921691909117905556fe4f776e61626c653a206e6577206f776e657220697320746865207a65726f2061646472657373a165627a7a7230582066c840b24a8492e829fec80aa06fcf6fddceb3c18d9407e4e5604f9b773ac7e30029",
  "source": "pragma solidity ^0.5.8;\n\nimport \"openzeppelin-solidity/contracts/ownership/Ownable.sol\";\n\nimport \"../DarknodeRegistry/DarknodeRegistry.sol\";\n\n/// @notice DarknodeSlasher will become a voting system for darknodes to\n/// deregister other misbehaving darknodes.\n/// Right now, it is a placeholder.\ncontract DarknodeSlasher is Ownable {\n\n    DarknodeRegistry public darknodeRegistry;\n\n    constructor(DarknodeRegistry _darknodeRegistry) public {\n        darknodeRegistry = _darknodeRegistry;\n    }\n\n    function slash(address _prover, address _challenger1, address _challenger2)\n        external\n        onlyOwner\n    {\n        darknodeRegistry.slash(_prover, _challenger1, _challenger2);\n    }\n}\n",
  "sourcePath": "/home/noah/github/renproject/darknode-sol/contracts/DarknodeSlasher/DarknodeSlasher.sol",
  "compiler": {
    "name": "solc",
    "version": "0.5.8+commit.23d335f2.Emscripten.clang"
  },
  "schemaVersion": "3.0.11",
  "updatedAt": "2019-07-16T00:46:30.131Z",
  "devdoc": {
    "methods": {
      "isOwner()": {
        "details": "Returns true if the caller is the current owner."
      },
      "owner()": {
        "details": "Returns the address of the current owner."
      },
      "renounceOwnership()": {
        "details": "Leaves the contract without owner. It will not be possible to call `onlyOwner` functions anymore. Can only be called by the current owner.     * > Note: Renouncing ownership will leave the contract without an owner, thereby removing any functionality that is only available to the owner."
      },
      "transferOwnership(address)": {
        "details": "Transfers ownership of the contract to a new account (`newOwner`). Can only be called by the current owner."
      }
    }
  },
  "userdoc": {
    "methods": {},
    "notice": "DarknodeSlasher will become a voting system for darknodes to deregister other misbehaving darknodes. Right now, it is a placeholder."
  }
}