{
  "contractName": "DarknodePayment",
  "abi": [
    {
      "constant": true,
      "inputs": [
        {
          "name": "",
          "type": "address"
        }
      ],
      "name": "previousCycleRewardShare",
      "outputs": [
        {
          "name": "",
          "type": "uint256"
        }
      ],
      "payable": false,
      "stateMutability": "view",
      "type": "function"
    },
    {
      "constant": true,
      "inputs": [],
      "name": "cycleStartTime",
      "outputs": [
        {
          "name": "",
          "type": "uint256"
        }
      ],
      "payable": false,
      "stateMutability": "view",
      "type": "function"
    },
    {
      "constant": true,
      "inputs": [
        {
          "name": "",
          "type": "uint256"
        }
      ],
      "name": "pendingTokens",
      "outputs": [
        {
          "name": "",
          "type": "address"
        }
      ],
      "payable": false,
      "stateMutability": "view",
      "type": "function"
    },
    {
      "constant": true,
      "inputs": [],
      "name": "cycleDuration",
      "outputs": [
        {
          "name": "",
          "type": "uint256"
        }
      ],
      "payable": false,
      "stateMutability": "view",
      "type": "function"
    },
    {
      "constant": false,
      "inputs": [],
      "name": "renounceOwnership",
      "outputs": [],
      "payable": false,
      "stateMutability": "nonpayable",
      "type": "function"
    },
    {
      "constant": true,
      "inputs": [],
      "name": "shareCount",
      "outputs": [
        {
          "name": "",
          "type": "uint256"
        }
      ],
      "payable": false,
      "stateMutability": "view",
      "type": "function"
    },
    {
      "constant": true,
      "inputs": [
        {
          "name": "",
          "type": "address"
        },
        {
          "name": "",
          "type": "uint256"
        }
      ],
      "name": "rewardClaimed",
      "outputs": [
        {
          "name": "",
          "type": "bool"
        }
      ],
      "payable": false,
      "stateMutability": "view",
      "type": "function"
    },
    {
      "constant": true,
      "inputs": [],
      "name": "owner",
      "outputs": [
        {
          "name": "",
          "type": "address"
        }
      ],
      "payable": false,
      "stateMutability": "view",
      "type": "function"
    },
    {
      "constant": true,
      "inputs": [],
      "name": "isOwner",
      "outputs": [
        {
          "name": "",
          "type": "bool"
        }
      ],
      "payable": false,
      "stateMutability": "view",
      "type": "function"
    },
    {
      "constant": true,
      "inputs": [
        {
          "name": "",
          "type": "address"
        }
      ],
      "name": "unclaimedRewards",
      "outputs": [
        {
          "name": "",
          "type": "uint256"
        }
      ],
      "payable": false,
      "stateMutability": "view",
      "type": "function"
    },
    {
      "constant": true,
      "inputs": [],
      "name": "store",
      "outputs": [
        {
          "name": "",
          "type": "address"
        }
      ],
      "payable": false,
      "stateMutability": "view",
      "type": "function"
    },
    {
      "constant": true,
      "inputs": [
        {
          "name": "",
          "type": "uint256"
        }
      ],
      "name": "registeredTokens",
      "outputs": [
        {
          "name": "",
          "type": "address"
        }
      ],
      "payable": false,
      "stateMutability": "view",
      "type": "function"
    },
    {
      "constant": true,
      "inputs": [],
      "name": "darknodeRegistry",
      "outputs": [
        {
          "name": "",
          "type": "address"
        }
      ],
      "payable": false,
      "stateMutability": "view",
      "type": "function"
    },
    {
      "constant": true,
      "inputs": [],
      "name": "currentCycle",
      "outputs": [
        {
          "name": "",
          "type": "uint256"
        }
      ],
      "payable": false,
      "stateMutability": "view",
      "type": "function"
    },
    {
      "constant": true,
      "inputs": [],
      "name": "blacklister",
      "outputs": [
        {
          "name": "",
          "type": "address"
        }
      ],
      "payable": false,
      "stateMutability": "view",
      "type": "function"
    },
    {
      "constant": true,
      "inputs": [
        {
          "name": "",
          "type": "address"
        }
      ],
      "name": "registeredTokenIndex",
      "outputs": [
        {
          "name": "",
          "type": "uint256"
        }
      ],
      "payable": false,
      "stateMutability": "view",
      "type": "function"
    },
    {
      "constant": true,
      "inputs": [],
      "name": "cycleTimeout",
      "outputs": [
        {
          "name": "",
          "type": "uint256"
        }
      ],
      "payable": false,
      "stateMutability": "view",
      "type": "function"
    },
    {
      "constant": true,
      "inputs": [],
      "name": "previousCycle",
      "outputs": [
        {
          "name": "",
          "type": "uint256"
        }
      ],
      "payable": false,
      "stateMutability": "view",
      "type": "function"
    },
    {
      "constant": false,
      "inputs": [
        {
          "name": "newOwner",
          "type": "address"
        }
      ],
      "name": "transferOwnership",
      "outputs": [],
      "payable": false,
      "stateMutability": "nonpayable",
      "type": "function"
    },
    {
      "constant": true,
      "inputs": [],
      "name": "ETHEREUM",
      "outputs": [
        {
          "name": "",
          "type": "address"
        }
      ],
      "payable": false,
      "stateMutability": "view",
      "type": "function"
    },
    {
      "constant": true,
      "inputs": [],
      "name": "VERSION",
      "outputs": [
        {
          "name": "",
          "type": "string"
        }
      ],
      "payable": false,
      "stateMutability": "view",
      "type": "function"
    },
    {
      "inputs": [
        {
          "name": "_VERSION",
          "type": "string"
        },
        {
          "name": "_darknodeRegistry",
          "type": "address"
        },
        {
          "name": "_darknodePaymentStore",
          "type": "address"
        },
        {
          "name": "_cycleDurationSeconds",
          "type": "uint256"
        }
      ],
      "payable": false,
      "stateMutability": "nonpayable",
      "type": "constructor"
    },
    {
      "payable": true,
      "stateMutability": "payable",
      "type": "fallback"
    },
    {
      "anonymous": false,
      "inputs": [
        {
          "indexed": true,
          "name": "_darknode",
          "type": "address"
        },
        {
          "indexed": false,
          "name": "_time",
          "type": "uint256"
        }
      ],
      "name": "LogDarknodeBlacklisted",
      "type": "event"
    },
    {
      "anonymous": false,
      "inputs": [
        {
          "indexed": true,
          "name": "_darknode",
          "type": "address"
        },
        {
          "indexed": false,
          "name": "_time",
          "type": "uint256"
        }
      ],
      "name": "LogDarknodeWhitelisted",
      "type": "event"
    },
    {
      "anonymous": false,
      "inputs": [
        {
          "indexed": true,
          "name": "_darknode",
          "type": "address"
        },
        {
          "indexed": false,
          "name": "_cycle",
          "type": "uint256"
        }
      ],
      "name": "LogDarknodeClaim",
      "type": "event"
    },
    {
      "anonymous": false,
      "inputs": [
        {
          "indexed": true,
          "name": "_payer",
          "type": "address"
        },
        {
          "indexed": false,
          "name": "_amount",
          "type": "uint256"
        },
        {
          "indexed": false,
          "name": "_token",
          "type": "address"
        }
      ],
      "name": "LogPaymentReceived",
      "type": "event"
    },
    {
      "anonymous": false,
      "inputs": [
        {
          "indexed": true,
          "name": "_payee",
          "type": "address"
        },
        {
          "indexed": false,
          "name": "_value",
          "type": "uint256"
        },
        {
          "indexed": false,
          "name": "_token",
          "type": "address"
        }
      ],
      "name": "LogDarknodeWithdrew",
      "type": "event"
    },
    {
      "anonymous": false,
      "inputs": [
        {
          "indexed": false,
          "name": "_newCycle",
          "type": "uint256"
        },
        {
          "indexed": false,
          "name": "_lastCycle",
          "type": "uint256"
        },
        {
          "indexed": false,
          "name": "_cycleTimeout",
          "type": "uint256"
        }
      ],
      "name": "LogNewCycle",
      "type": "event"
    },
    {
      "anonymous": false,
      "inputs": [
        {
          "indexed": false,
          "name": "_newDuration",
          "type": "uint256"
        },
        {
          "indexed": false,
          "name": "_oldDuration",
          "type": "uint256"
        }
      ],
      "name": "LogCycleDurationChanged",
      "type": "event"
    },
    {
      "anonymous": false,
      "inputs": [
        {
          "indexed": false,
          "name": "_newBlacklister",
          "type": "address"
        },
        {
          "indexed": false,
          "name": "_oldBlacklister",
          "type": "address"
        }
      ],
      "name": "LogBlacklisterChanged",
      "type": "event"
    },
    {
      "anonymous": false,
      "inputs": [
        {
          "indexed": false,
          "name": "_token",
          "type": "address"
        }
      ],
      "name": "LogTokenRegistered",
      "type": "event"
    },
    {
      "anonymous": false,
      "inputs": [
        {
          "indexed": false,
          "name": "_token",
          "type": "address"
        }
      ],
      "name": "LogTokenDeregistered",
      "type": "event"
    },
    {
      "anonymous": false,
      "inputs": [
        {
          "indexed": true,
          "name": "previousOwner",
          "type": "address"
        },
        {
          "indexed": true,
          "name": "newOwner",
          "type": "address"
        }
      ],
      "name": "OwnershipTransferred",
      "type": "event"
    },
    {
      "constant": false,
      "inputs": [
        {
          "name": "_darknode",
          "type": "address"
        },
        {
          "name": "_token",
          "type": "address"
        }
      ],
      "name": "withdraw",
      "outputs": [],
      "payable": false,
      "stateMutability": "nonpayable",
      "type": "function"
    },
    {
      "constant": false,
      "inputs": [
        {
          "name": "_darknode",
          "type": "address"
        },
        {
          "name": "_tokens",
          "type": "address[]"
        }
      ],
      "name": "withdrawMultiple",
      "outputs": [],
      "payable": false,
      "stateMutability": "nonpayable",
      "type": "function"
    },
    {
      "constant": true,
      "inputs": [
        {
          "name": "_token",
          "type": "address"
        }
      ],
      "name": "currentCycleRewardPool",
      "outputs": [
        {
          "name": "",
          "type": "uint256"
        }
      ],
      "payable": false,
      "stateMutability": "view",
      "type": "function"
    },
    {
      "constant": true,
      "inputs": [
        {
          "name": "_darknodeID",
          "type": "address"
        },
        {
          "name": "_token",
          "type": "address"
        }
      ],
      "name": "darknodeBalances",
      "outputs": [
        {
          "name": "",
          "type": "uint256"
        }
      ],
      "payable": false,
      "stateMutability": "view",
      "type": "function"
    },
    {
      "constant": false,
      "inputs": [],
      "name": "changeCycle",
      "outputs": [
        {
          "name": "",
          "type": "uint256"
        }
      ],
      "payable": false,
      "stateMutability": "nonpayable",
      "type": "function"
    },
    {
      "constant": false,
      "inputs": [
        {
          "name": "_value",
          "type": "uint256"
        },
        {
          "name": "_token",
          "type": "address"
        }
      ],
      "name": "deposit",
      "outputs": [],
      "payable": true,
      "stateMutability": "payable",
      "type": "function"
    },
    {
      "constant": false,
      "inputs": [
        {
          "name": "_darknode",
          "type": "address"
        }
      ],
      "name": "claim",
      "outputs": [],
      "payable": false,
      "stateMutability": "nonpayable",
      "type": "function"
    },
    {
      "constant": false,
      "inputs": [
        {
          "name": "_darknode",
          "type": "address"
        }
      ],
      "name": "blacklist",
      "outputs": [],
      "payable": false,
      "stateMutability": "nonpayable",
      "type": "function"
    },
    {
      "constant": false,
      "inputs": [
        {
          "name": "_token",
          "type": "address"
        }
      ],
      "name": "registerToken",
      "outputs": [],
      "payable": false,
      "stateMutability": "nonpayable",
      "type": "function"
    },
    {
      "constant": false,
      "inputs": [
        {
          "name": "_token",
          "type": "address"
        }
      ],
      "name": "deregisterToken",
      "outputs": [],
      "payable": false,
      "stateMutability": "nonpayable",
      "type": "function"
    },
    {
      "constant": false,
      "inputs": [
        {
          "name": "_addr",
          "type": "address"
        }
      ],
      "name": "updateBlacklister",
      "outputs": [],
      "payable": false,
      "stateMutability": "nonpayable",
      "type": "function"
    },
    {
      "constant": false,
      "inputs": [
        {
          "name": "_durationSeconds",
          "type": "uint256"
        }
      ],
      "name": "updateCycleDuration",
      "outputs": [],
      "payable": false,
      "stateMutability": "nonpayable",
      "type": "function"
    },
    {
      "constant": false,
      "inputs": [
        {
          "name": "_newOwner",
          "type": "address"
        }
      ],
      "name": "transferStoreOwnership",
      "outputs": [],
      "payable": false,
      "stateMutability": "nonpayable",
      "type": "function"
    },
    {
      "constant": false,
      "inputs": [],
      "name": "claimStoreOwnership",
      "outputs": [],
      "payable": false,
      "stateMutability": "nonpayable",
      "type": "function"
    }
  ],
  "bytecode": "0x60806040523480156200001157600080fd5b5060405162002b4838038062002b48833981018060405260808110156200003757600080fd5b8101908080516401000000008111156200005057600080fd5b820160208101848111156200006457600080fd5b81516401000000008111828201871017156200007f57600080fd5b50506020820151604080840151606090940151600080546001600160a01b03191633178082559251949750929550926001600160a01b039190911691907f8be0079c531659141344cd1fd0a4f28419497f9722a3daafe3b4186f6b6457e0908290a38351620000f6906001906020870190620001e6565b50600280546001600160a01b038086166001600160a01b0319928316179092556003805492851692821692909217909155600e82905560048054909116331790554360055542600d8190556200015c9082620022076200016a602090811b91909117901c565b600f55506200028b92505050565b600082820183811015620001df57604080517f08c379a000000000000000000000000000000000000000000000000000000000815260206004820152601b60248201527f536166654d6174683a206164646974696f6e206f766572666c6f770000000000604482015290519081900360640190fd5b9392505050565b828054600181600116156101000203166002900490600052602060002090601f016020900481019282601f106200022957805160ff191683800117855562000259565b8280016001018555821562000259579182015b82811115620002595782518255916020019190600101906200023c565b50620002679291506200026b565b5090565b6200028891905b8082111562000267576000815560010162000272565b90565b6128ad806200029b6000396000f3fe6080604052600436106102045760003560e01c80639a0ba2ea11610118578063c2250a99116100a0578063f75adff81161006f578063f75adff814610713578063f7cdf47c146107a0578063f940e385146107b5578063f9f92be4146107f0578063ffa1ad741461082357610204565b8063c2250a9914610665578063e311481514610698578063e80b2b3d146106ad578063f2fde38b146106e057610204565b8063bab2af1d116100e7578063bab2af1d146105c0578063bab2f552146105f3578063bd10243014610608578063bfdce1991461061d578063c0470bb31461065057610204565b80639a0ba2ea146105395780639e45e0d014610563578063ad38bf2214610578578063b3a2af69146105ab57610204565b806370324b771161019b57806383b781881161016a57806383b781881461047a5780638da5cb5b146104c75780638f32d59b146104dc578063949813b8146104f1578063975057e71461052457610204565b806370324b77146103eb578063715018a61461042657806374c9ea821461043b5780637f03864b1461046557610204565b8063352fc85f116101d7578063352fc85f1461034f5780635bec4cb4146103955780636e553f65146103aa5780636fd689e8146103d657610204565b806305cf47441461028d57806309824a80146102d25780631e83409a14610307578063335e536c1461033a575b6003546040516001600160a01b03909116903480156108fc02916000818181858888f1935050505015801561023d573d6000803e3d6000fd5b506040805134815273eeeeeeeeeeeeeeeeeeeeeeeeeeeeeeeeeeeeeeee6020820152815133927fea0e59b45b3d900359e312f5e429275ec827a5e4e2430e1610a1c678cd6cd2e2928290030190a2005b34801561029957600080fd5b506102c0600480360360208110156102b057600080fd5b50356001600160a01b03166108ad565b60408051918252519081900360200190f35b3480156102de57600080fd5b50610305600480360360208110156102f557600080fd5b50356001600160a01b03166108bf565b005b34801561031357600080fd5b506103056004803603602081101561032a57600080fd5b50356001600160a01b0316610a4d565b34801561034657600080fd5b506102c0610dd3565b34801561035b57600080fd5b506103796004803603602081101561037257600080fd5b5035610dd9565b604080516001600160a01b039092168252519081900360200190f35b3480156103a157600080fd5b506102c0610e00565b610305600480360360408110156103c057600080fd5b50803590602001356001600160a01b0316610e06565b3480156103e257600080fd5b50610305610f87565b3480156103f757600080fd5b506102c06004803603604081101561040e57600080fd5b506001600160a01b038135811691602001351661103b565b34801561043257600080fd5b506103056110ca565b34801561044757600080fd5b506103056004803603602081101561045e57600080fd5b503561115e565b34801561047157600080fd5b506102c06111ef565b34801561048657600080fd5b506104b36004803603604081101561049d57600080fd5b506001600160a01b0381351690602001356111f5565b604080519115158252519081900360200190f35b3480156104d357600080fd5b50610379611215565b3480156104e857600080fd5b506104b3611225565b3480156104fd57600080fd5b506102c06004803603602081101561051457600080fd5b50356001600160a01b0316611236565b34801561053057600080fd5b50610379611248565b34801561054557600080fd5b506103796004803603602081101561055c57600080fd5b5035611257565b34801561056f57600080fd5b50610379611264565b34801561058457600080fd5b506103056004803603602081101561059b57600080fd5b50356001600160a01b0316611273565b3480156105b757600080fd5b506102c0611385565b3480156105cc57600080fd5b50610305600480360360208110156105e357600080fd5b50356001600160a01b0316611570565b3480156105ff57600080fd5b506102c0611633565b34801561061457600080fd5b50610379611639565b34801561062957600080fd5b506102c06004803603602081101561064057600080fd5b50356001600160a01b0316611648565b34801561065c57600080fd5b506102c061165a565b34801561067157600080fd5b506103056004803603602081101561068857600080fd5b50356001600160a01b0316611660565b3480156106a457600080fd5b506102c0611716565b3480156106b957600080fd5b506102c0600480360360208110156106d057600080fd5b50356001600160a01b031661171c565b3480156106ec57600080fd5b506103056004803603602081101561070357600080fd5b50356001600160a01b03166117be565b34801561071f57600080fd5b506103056004803603604081101561073657600080fd5b6001600160a01b03823516919081019060408101602082013564010000000081111561076157600080fd5b82018360208201111561077357600080fd5b8035906020019184602083028401116401000000008311171561079557600080fd5b509092509050611811565b3480156107ac57600080fd5b50610379611849565b3480156107c157600080fd5b50610305600480360360408110156107d857600080fd5b506001600160a01b0381358116916020013516611861565b3480156107fc57600080fd5b506103056004803603602081101561081357600080fd5b50356001600160a01b0316611aee565b34801561082f57600080fd5b50610838611ccf565b6040805160208082528351818301528351919283929083019185019080838360005b8381101561087257818101518382015260200161085a565b50505050905090810190601f16801561089f5780820380516001836020036101000a031916815260200191505b509250505060405180910390f35b600c6020526000908152604090205481565b6108c7611225565b6109095760408051600160e51b62461bcd0281526020600482018190526024820152600080516020612862833981519152604482015290519081900360640190fd5b6001600160a01b0381166000908152600a6020526040902054156109775760408051600160e51b62461bcd02815260206004820152601860248201527f746f6b656e20616c726561647920726567697374657265640000000000000000604482015290519081900360640190fd5b60085460005b818110156109f957826001600160a01b03166008828154811061099c57fe5b6000918252602090912001546001600160a01b031614156109f157604051600160e51b62461bcd0281526004018080602001828103825260228152602001806128406022913960400191505060405180910390fd5b60010161097d565b5050600880546001810182556000919091527ff3f7a9fe364faab93b216da50a3214154f22a0a2b415b23a84c8169e8b636ee30180546001600160a01b0319166001600160a01b0392909216919091179055565b60025460408051600160e01b63c3c5a5470281526001600160a01b03808516600483015291518493929092169163c3c5a54791602480820192602092909190829003018186803b158015610aa057600080fd5b505afa158015610ab4573d6000803e3d6000fd5b505050506040513d6020811015610aca57600080fd5b5051610b205760408051600160e51b62461bcd02815260206004820152601a60248201527f6461726b6e6f6465206973206e6f742072656769737465726564000000000000604482015290519081900360640190fd5b60035460408051600160e01b63fe575a870281526001600160a01b03808616600483015291518593929092169163fe575a8791602480820192602092909190829003018186803b158015610b7357600080fd5b505afa158015610b87573d6000803e3d6000fd5b505050506040513d6020811015610b9d57600080fd5b505115610bf45760408051600160e51b62461bcd02815260206004820152601760248201527f6461726b6e6f646520697320626c61636b6c6973746564000000000000000000604482015290519081900360640190fd5b60035460408051600160e01b639a4d6f3b0281526001600160a01b03868116600483015291516000939290921691639a4d6f3b91602480820192602092909190829003018186803b158015610c4857600080fd5b505afa158015610c5c573d6000803e3d6000fd5b505050506040513d6020811015610c7257600080fd5b5051905080610d295760035460408051600160e11b634d8c928d0281526001600160a01b03878116600483015291519190921691639b19251a91602480830192600092919082900301818387803b158015610ccc57600080fd5b505af1158015610ce0573d6000803e3d6000fd5b50506040805142815290516001600160a01b03881693507f7634be097aa1800f447c3ae3ffe9444f1bc44a98bd2c1e986c1883f9f645f2b692509081900360200190a250610dce565b600d548110610d825760408051600160e51b62461bcd02815260206004820152601b60248201527f63616e6e6f7420636c61696d20666f722074686973206379636c650000000000604482015290519081900360640190fd5b610d8b84611d5c565b60065460408051918252516001600160a01b038616917f99c5ad5c5f898b30039b8cc54b8c0e6eb423e49bfc965a5999ebad131984e40d919081900360200190a2505b505050565b600d5481565b60088181548110610de657fe5b6000918252602090912001546001600160a01b0316905081565b600e5481565b60006001600160a01b03821673eeeeeeeeeeeeeeeeeeeeeeeeeeeeeeeeeeeeeeee1415610ec557348314610e845760408051600160e51b62461bcd02815260206004820152601860248201527f6d69736d617463686564206465706f7369742076616c75650000000000000000604482015290519081900360640190fd5b5060035460405134916001600160a01b03169082156108fc029083906000818181858888f19350505050158015610ebf573d6000803e3d6000fd5b50610f40565b3415610f1b5760408051600160e51b62461bcd02815260206004820152601960248201527f756e6578706563746564206574686572207472616e7366657200000000000000604482015290519081900360640190fd5b600354610f3d906001600160a01b03848116913391168663ffffffff611f2416565b90505b604080518281526001600160a01b0384166020820152815133927fea0e59b45b3d900359e312f5e429275ec827a5e4e2430e1610a1c678cd6cd2e2928290030190a2505050565b610f8f611225565b610fd15760408051600160e51b62461bcd0281526020600482018190526024820152600080516020612862833981519152604482015290519081900360640190fd5b600360009054906101000a90046001600160a01b03166001600160a01b0316634e71e0c86040518163ffffffff1660e01b8152600401600060405180830381600087803b15801561102157600080fd5b505af1158015611035573d6000803e3d6000fd5b50505050565b60035460408051600160e01b6370324b770281526001600160a01b0385811660048301528481166024830152915160009392909216916370324b7791604480820192602092909190829003018186803b15801561109757600080fd5b505afa1580156110ab573d6000803e3d6000fd5b505050506040513d60208110156110c157600080fd5b50519392505050565b6110d2611225565b6111145760408051600160e51b62461bcd0281526020600482018190526024820152600080516020612862833981519152604482015290519081900360640190fd5b600080546040516001600160a01b03909116907f8be0079c531659141344cd1fd0a4f28419497f9722a3daafe3b4186f6b6457e0908390a3600080546001600160a01b0319169055565b611166611225565b6111a85760408051600160e51b62461bcd0281526020600482018190526024820152600080516020612862833981519152604482015290519081900360640190fd5b600e805490829055604080518381526020810183905281517f59cbd678a801fd313f133a5efc6be7aee2814b07d41c9d9fb72f91197b2f9d4a929181900390910190a15050565b60075481565b601060209081526000928352604080842090915290825290205460ff1681565b6000546001600160a01b03165b90565b6000546001600160a01b0316331490565b600b6020526000908152604090205481565b6003546001600160a01b031681565b60098181548110610de657fe5b6002546001600160a01b031681565b61127b611225565b6112bd5760408051600160e51b62461bcd0281526020600482018190526024820152600080516020612862833981519152604482015290519081900360640190fd5b6001600160a01b03811661131b5760408051600160e51b62461bcd02815260206004820152601860248201527f696e76616c696420636f6e747261637420616464726573730000000000000000604482015290519081900360640190fd5b600454604080516001600160a01b038085168252909216602083015280517fef549604431567c0cd1b94ebc91fed6cf5cd907f6ff0b63aa1d475dcf8d4901c9281900390910190a1600480546001600160a01b0319166001600160a01b0392909216919091179055565b6000600f544210156113e15760408051600160e51b62461bcd02815260206004820152601b60248201527f63616e6e6f74206379636c65207965743a20746f6f206561726c790000000000604482015290519081900360640190fd5b60055443141561143b5760408051600160e51b62461bcd02815260206004820152600c60248201527f6e6f206e657720626c6f636b0000000000000000000000000000000000000000604482015290519081900360640190fd5b60095460005b8181101561147b576114736009828154811061145957fe5b6000918252602090912001546001600160a01b031661210f565b600101611441565b506005805460065543905542600d819055600e5461149f919063ffffffff61220716565b600f5560035460408051600160e11b630fe37f4702815290516001600160a01b0390921691631fc6fe8e91600480820192602092909190829003018186803b1580156114ea57600080fd5b505afa1580156114fe573d6000803e3d6000fd5b505050506040513d602081101561151457600080fd5b505160075561152161226b565b600554600654600f5460408051938452602084019290925282820152517f6611b6f4e1fb92277f863eca934cba1c2d6987070d73762b72b942720bfe43a29181900360600190a1505060055490565b611578611225565b6115ba5760408051600160e51b62461bcd0281526020600482018190526024820152600080516020612862833981519152604482015290519081900360640190fd5b6001600160a01b0381166000908152600a60205260409020546116275760408051600160e51b62461bcd02815260206004820152601460248201527f746f6b656e206e6f742072656769737465726564000000000000000000000000604482015290519081900360640190fd5b6116308161233c565b50565b60055481565b6004546001600160a01b031681565b600a6020526000908152604090205481565b600f5481565b611668611225565b6116aa5760408051600160e51b62461bcd0281526020600482018190526024820152600080516020612862833981519152604482015290519081900360640190fd5b60035460408051600160e01b63f2fde38b0281526001600160a01b0384811660048301529151919092169163f2fde38b91602480830192600092919082900301818387803b1580156116fb57600080fd5b505af115801561170f573d6000803e3d6000fd5b5050505050565b60065481565b6001600160a01b038082166000818152600b60209081526040808320546003548251600160e01b63a0821be30281526004810196909652915193956117b895919492169263a0821be392602480840193829003018186803b15801561178057600080fd5b505afa158015611794573d6000803e3d6000fd5b505050506040513d60208110156117aa57600080fd5b50519063ffffffff61245716565b92915050565b6117c6611225565b6118085760408051600160e51b62461bcd0281526020600482018190526024820152600080516020612862833981519152604482015290519081900360640190fd5b611630816124b7565b60005b81811015611035576118418484848481811061182c57fe5b905060200201356001600160a01b0316611861565b600101611814565b73eeeeeeeeeeeeeeeeeeeeeeeeeeeeeeeeeeeeeeee81565b60025460408051600160e01b631cedf8a30281526001600160a01b03858116600483015291516000939290921691631cedf8a391602480820192602092909190829003018186803b1580156118b557600080fd5b505afa1580156118c9573d6000803e3d6000fd5b505050506040513d60208110156118df57600080fd5b505190506001600160a01b0381166119415760408051600160e51b62461bcd02815260206004820152601660248201527f696e76616c6964206461726b6e6f6465206f776e657200000000000000000000604482015290519081900360640190fd5b60035460408051600160e01b6370324b770281526001600160a01b0386811660048301528581166024830152915160009392909216916370324b7791604480820192602092909190829003018186803b15801561199d57600080fd5b505afa1580156119b1573d6000803e3d6000fd5b505050506040513d60208110156119c757600080fd5b5051905080611a205760408051600160e51b62461bcd02815260206004820152601360248201527f6e6f7468696e6720746f20776974686472617700000000000000000000000000604482015290519081900360640190fd5b60035460408051600160e01b63f9ce78130281526001600160a01b03878116600483015286811660248301526044820185905285811660648301529151919092169163f9ce781391608480830192600092919082900301818387803b158015611a8857600080fd5b505af1158015611a9c573d6000803e3d6000fd5b5050604080518481526001600160a01b038781166020830152825190891694507fe1f157c0881b2e477dca89772b158029611366b8e7dc8be4f6f308fa7a0aa02893509081900390910190a250505050565b6004546001600160a01b03163314611b505760408051600160e51b62461bcd02815260206004820152600f60248201527f6e6f7420426c61636b6c69737465720000000000000000000000000000000000604482015290519081900360640190fd5b60025460408051600160e01b63c3c5a5470281526001600160a01b03808516600483015291518493929092169163c3c5a54791602480820192602092909190829003018186803b158015611ba357600080fd5b505afa158015611bb7573d6000803e3d6000fd5b505050506040513d6020811015611bcd57600080fd5b5051611c235760408051600160e51b62461bcd02815260206004820152601a60248201527f6461726b6e6f6465206973206e6f742072656769737465726564000000000000604482015290519081900360640190fd5b60035460408051600160e21b633e7e4af90281526001600160a01b0385811660048301529151919092169163f9f92be491602480830192600092919082900301818387803b158015611c7457600080fd5b505af1158015611c88573d6000803e3d6000fd5b50506040805142815290516001600160a01b03861693507fd2b847810d644004679c7a8d5f5188fe2b12b6f34dba8501760d99232fa9b7bc92509081900360200190a25050565b60018054604080516020600284861615610100026000190190941693909304601f81018490048402820184019092528181529291830182828015611d545780601f10611d2957610100808354040283529160200191611d54565b820191906000526020600020905b815481529060010190602001808311611d3757829003601f168201915b505050505081565b6001600160a01b0381166000908152601060209081526040808320600654845290915290205460ff1615611dda5760408051600160e51b62461bcd02815260206004820152601660248201527f72657761726420616c726561647920636c61696d656400000000000000000000604482015290519081900360640190fd5b6001600160a01b038116600090815260106020908152604080832060065484529091528120805460ff19166001179055600954905b81811015610dce57600060098281548110611e2657fe5b60009182526020808320909101546001600160a01b0316808352600c90915260409091205490915015611f1b576001600160a01b0381166000908152600c6020908152604080832054600b90925290912054611e879163ffffffff61245716565b6001600160a01b038083166000818152600b6020908152604080832095909555600354600c909152848220548551600160e01b63d23b90a50281528a86166004820152602481019490945260448401529351939092169263d23b90a59260648084019391929182900301818387803b158015611f0257600080fd5b505af1158015611f16573d6000803e3d6000fd5b505050505b50600101611e0f565b600080856001600160a01b03166370a08231856040518263ffffffff1660e01b815260040180826001600160a01b03166001600160a01b0316815260200191505060206040518083038186803b158015611f7d57600080fd5b505afa158015611f91573d6000803e3d6000fd5b505050506040513d6020811015611fa757600080fd5b5051604080516001600160a01b0388811660248301528716604482015260648082018790528251808303909101815260849091019091526020810180516001600160e01b0316600160e01b6323b872dd0217905290915061200990879061255a565b61201161271f565b6120655760408051600160e51b62461bcd02815260206004820152601360248201527f7472616e7366657246726f6d206661696c656400000000000000000000000000604482015290519081900360640190fd5b6000866001600160a01b03166370a08231866040518263ffffffff1660e01b815260040180826001600160a01b03166001600160a01b0316815260200191505060206040518083038186803b1580156120bd57600080fd5b505afa1580156120d1573d6000803e3d6000fd5b505050506040513d60208110156120e757600080fd5b50519050612104846120ff838563ffffffff61245716565b612753565b979650505050505050565b600754612141576001600160a01b0381166000908152600b60209081526040808320839055600c909152812055611630565b60035460408051600160e01b63a0821be30281526001600160a01b0384811660048301529151919092169163a0821be3916024808301926020929190829003018186803b15801561219157600080fd5b505afa1580156121a5573d6000803e3d6000fd5b505050506040513d60208110156121bb57600080fd5b50516001600160a01b0382166000908152600b602052604090208190556007546121eb919063ffffffff61276916565b6001600160a01b0382166000908152600c602052604090205550565b6000828201838110156122645760408051600160e51b62461bcd02815260206004820152601b60248201527f536166654d6174683a206164646974696f6e206f766572666c6f770000000000604482015290519081900360640190fd5b9392505050565b60085460005b8181101561232a5760006008828154811061228857fe5b6000918252602080832090910154600980546001810182557f6e1540171b6c0c960b71a7020d9f60077f6af931a8bbf590da0223dacf75c7af0180546001600160a01b0319166001600160a01b03909316928317905554818452600a835260409384902055825181815292519093507fd780ddbc43f0c4efd61c5ca1bc8eeee3368abfb1f97aa7355da9f8bf8431c8ae9281900390910190a150600101612271565b5060006123386008826127dc565b5050565b600980546000919061235590600163ffffffff61245716565b8154811061235f57fe5b60009182526020808320909101546001600160a01b038581168452600a90925260408320549116925061239990600163ffffffff61245716565b905081600982815481106123a957fe5b600091825260208083209190910180546001600160a01b0319166001600160a01b039485161790558583168252600a905260408082205492851682529020556009546123f6906001612457565b6124016009826127dc565b506001600160a01b0383166000818152600a6020908152604080832092909255815192835290517fe46f21bb6906b7d69a6c06d5662a2b6c1c59d134cd7b1235babdb1a70a4b436a9281900390910190a1505050565b6000828211156124b15760408051600160e51b62461bcd02815260206004820152601e60248201527f536166654d6174683a207375627472616374696f6e206f766572666c6f770000604482015290519081900360640190fd5b50900390565b6001600160a01b0381166124ff57604051600160e51b62461bcd02815260040180806020018281038252602681526020018061281a6026913960400191505060405180910390fd5b600080546040516001600160a01b03808516939216917f8be0079c531659141344cd1fd0a4f28419497f9722a3daafe3b4186f6b6457e091a3600080546001600160a01b0319166001600160a01b0392909216919091179055565b61256c826001600160a01b03166127d6565b6125c05760408051600160e51b62461bcd02815260206004820152600f60248201527f746f6b656e206e6f7420666f756e640000000000000000000000000000000000604482015290519081900360640190fd5b60006060836001600160a01b0316836040518082805190602001908083835b602083106125fe5780518252601f1990920191602091820191016125df565b6001836020036101000a0380198251168184511680821785525050505050509050019150506000604051808303816000865af19150503d8060008114612660576040519150601f19603f3d011682016040523d82523d6000602084013e612665565b606091505b5091509150816126b65760408051600160e51b62461bcd02815260206004820152601160248201526001607a1b701d1bdad95b8818d85b1b0819985a5b195902604482015290519081900360640190fd5b805115611035578080602001905160208110156126d257600080fd5b50516110355760408051600160e51b62461bcd02815260206004820152601160248201526001607a1b701d1bdad95b8818d85b1b0819985a5b195902604482015290519081900360640190fd5b6000803d8015612736576020811461273f5761274b565b6001915061274b565b60206000803e60005191505b501515905090565b60008183106127625781612264565b5090919050565b60008082116127c25760408051600160e51b62461bcd02815260206004820152601a60248201527f536166654d6174683a206469766973696f6e206279207a65726f000000000000604482015290519081900360640190fd5b60008284816127cd57fe5b04949350505050565b3b151590565b815481835581811115610dce57600083815260209020610dce91810190830161122291905b808211156128155760008155600101612801565b509056fe4f776e61626c653a206e6577206f776e657220697320746865207a65726f2061646472657373746f6b656e20616c72656164792070656e64696e6720726567697374726174696f6e4f776e61626c653a2063616c6c6572206973206e6f7420746865206f776e6572a165627a7a72305820b09be68cbc93dd6791f672fb84489172de5ab08d82093f834649ac27077dab7a0029",
  "source": "pragma solidity ^0.5.8;\n\nimport \"openzeppelin-solidity/contracts/ownership/Ownable.sol\";\nimport \"openzeppelin-solidity/contracts/math/SafeMath.sol\";\nimport \"openzeppelin-solidity/contracts/token/ERC20/ERC20.sol\";\n\nimport \"../libraries/CompatibleERC20Functions.sol\";\nimport \"../DarknodeRegistry/DarknodeRegistry.sol\";\nimport \"./DarknodePaymentStore.sol\";\n\n/// @notice DarknodePayment is responsible for paying off darknodes for their\n///         computation.\ncontract DarknodePayment is Ownable {\n    using SafeMath for uint256;\n    using CompatibleERC20Functions for ERC20;\n\n    string public VERSION; // Passed in as a constructor parameter.\n\n    /// @notice The special address for Ether.\n    address constant public ETHEREUM = 0xEeeeeEeeeEeEeeEeEeEeeEEEeeeeEeeeeeeeEEeE;\n\n    DarknodeRegistry public darknodeRegistry; // Passed in as a constructor parameter.\n\n    /// @notice DarknodePaymentStore is the storage contract for darknode\n    ///         payments.\n    DarknodePaymentStore public store; // Passed in as a constructor parameter.\n\n    /// @notice The address that can call blacklist()\n    address public blacklister;\n\n    uint256 public currentCycle;\n    uint256 public previousCycle;\n\n    /// @notice The number of whitelisted darknodes this cycle\n    uint256 public shareCount;\n\n    /// @notice The list of tokens that will be registered next cycle.\n    ///         We only update the shareCount at the change of cycle to\n    ///         prevent the number of shares from changing.\n    address[] public pendingTokens;\n\n    /// @notice The list of tokens which are already registered and rewards can\n    ///         be claimed for.\n    address[] public registeredTokens;\n\n    /// @notice Mapping from token -> index. Index starts from 1. 0 means not in\n    ///         list.\n    mapping(address => uint256) public registeredTokenIndex;\n\n    /// @notice Mapping from token -> amount.\n    ///         The amount of rewards allocated for all darknodes to claim into\n    ///         their account.\n    mapping(address => uint256) public unclaimedRewards;\n\n    /// @notice Mapping from token -> amount.\n    ///         The amount of rewards allocated for each darknode.\n    mapping(address => uint256) public previousCycleRewardShare;\n\n    /// @notice The time that the current cycle started.\n    uint256 public cycleStartTime;\n\n    /// @notice The minimum duration that the current cycle must go for.\n    uint256 public cycleDuration;\n\n    /// @notice The earliest timestamp that changeCycle() can be called.\n    uint256 public cycleTimeout;\n\n    /// @notice Mapping of darknode -> cycle -> already_claimed\n    ///         Used to keep track of which darknodes have already claimed their\n    ///         rewards.\n    mapping(address => mapping(uint256 => bool)) public rewardClaimed;\n\n    /// @notice Emitted when a darknode is blacklisted from receiving rewards\n    /// @param _darknode The address of the darknode which was blacklisted\n    /// @param _time The time at which the darknode was blacklisted\n    event LogDarknodeBlacklisted(address indexed _darknode, uint256 _time);\n\n    /// @notice Emitted when a darknode is whitelisted to receive rewards\n    /// @param _darknode The address of the darknode which was whitelisted\n    /// @param _time The time at which the darknode was whitelisted\n    event LogDarknodeWhitelisted(address indexed _darknode, uint256 _time);\n\n    /// @notice Emitted when a darknode claims their share of reward\n    /// @param _darknode The darknode which claimed\n    /// @param _cycle The cycle that the darknode claimed for\n    event LogDarknodeClaim(address indexed _darknode, uint256 _cycle);\n\n    /// @notice Emitted when someone pays the DarknodePayment contract\n    /// @param _payer The darknode which claimed\n    /// @param _amount The cycle that the darknode claimed for\n    /// @param _token The address of the token that was transferred\n    event LogPaymentReceived(address indexed _payer, uint256 _amount, address _token);\n\n    /// @notice Emitted when a darknode calls withdraw\n    /// @param _payee The address of the darknode which withdrew\n    /// @param _value The amount of DAI withdrawn\n    /// @param _token The address of the token that was withdrawn\n    event LogDarknodeWithdrew(address indexed _payee, uint256 _value, address _token);\n\n    /// @notice Emitted when a new cycle happens\n    /// @param _newCycle The new, current cycle\n    /// @param _lastCycle The previous cycle\n    /// @param _cycleTimeout The earliest a new cycle can be called\n    event LogNewCycle(uint256 _newCycle, uint256 _lastCycle, uint256 _cycleTimeout);\n\n    /// @notice Emitted when the cycle duration changes\n    /// @param _newDuration The new duration\n    /// @param _oldDuration The old duration\n    event LogCycleDurationChanged(uint256 _newDuration, uint256 _oldDuration);\n\n    /// @notice Emitted when the Blacklister contract changes\n    /// @param _newBlacklister The new Blacklister\n    /// @param _oldBlacklister The old Blacklister\n    event LogBlacklisterChanged(address _newBlacklister, address _oldBlacklister);\n\n    /// @notice Emitted when a new token is registered\n    /// @param _token The token that was registered\n    event LogTokenRegistered(address _token);\n\n    /// @notice Emitted when a token is deregistered\n    /// @param _token The token that was deregistered\n    event LogTokenDeregistered(address _token);\n\n    /// @notice Restrict a function registered dark nodes to call a function.\n    modifier onlyDarknode(address _darknode) {\n        require(darknodeRegistry.isRegistered(_darknode), \"darknode is not registered\");\n        _;\n    }\n\n    /// @notice Restrict a function the blacklister.\n    modifier onlyBlacklister() {\n        require(blacklister == msg.sender, \"not Blacklister\");\n        _;\n    }\n\n    /// @notice Restrict a function darknodes which haven't been blacklisted\n    modifier notBlacklisted(address _darknode) {\n        require(!store.isBlacklisted(_darknode), \"darknode is blacklisted\");\n        _;\n    }\n\n    /// @notice The contract constructor. Starts the current cycle using the\n    ///         time of deploy.\n    ///\n    /// @param _VERSION A string defining the contract version.\n    /// @param _darknodeRegistry The address of the DarknodeRegistry contract\n    /// @param _darknodePaymentStore The address of the DarknodePaymentStore\n    ///        contract\n    /// @param _cycleDurationSeconds The minimum time before a new cycle can occur in seconds\n    constructor(\n        string memory _VERSION,\n        DarknodeRegistry _darknodeRegistry,\n        DarknodePaymentStore _darknodePaymentStore,\n        uint256 _cycleDurationSeconds\n    ) public {\n        VERSION = _VERSION;\n        darknodeRegistry = _darknodeRegistry;\n        store = _darknodePaymentStore;\n        cycleDuration = _cycleDurationSeconds;\n        // Default the blacklister to owner\n        blacklister = msg.sender;\n\n        // Start the current cycle\n        currentCycle = block.number;\n        cycleStartTime = block.timestamp;\n        cycleTimeout = cycleStartTime.add(cycleDuration);\n    }\n\n    /// @notice Transfers the funds allocated to the darknode to the darknode\n    ///         owner.\n    ///\n    /// @param _darknode The address of the darknode\n    /// @param _token Which token to transfer\n    function withdraw(address _darknode, address _token) public {\n        address payable darknodeOwner = darknodeRegistry.getDarknodeOwner(_darknode);\n        require(darknodeOwner != address(0x0), \"invalid darknode owner\");\n\n        uint256 amount = store.darknodeBalances(_darknode, _token);\n        require(amount > 0, \"nothing to withdraw\");\n\n        store.transfer(_darknode, _token, amount, darknodeOwner);\n        emit LogDarknodeWithdrew(_darknode, amount, _token);\n    }\n\n    function withdrawMultiple(address _darknode, address[] calldata _tokens) external {\n        for (uint i = 0; i < _tokens.length; i++) {\n            withdraw(_darknode, _tokens[i]);\n        }\n    }\n\n    /// @notice Forward all payments to the DarknodePaymentStore.\n    function () external payable {\n        address(store).transfer(msg.value);\n        emit LogPaymentReceived(msg.sender, msg.value, ETHEREUM);\n    }\n\n    /// @notice The current balance of the contract available as reward for the\n    ///         current cycle\n    function currentCycleRewardPool(address _token) external view returns (uint256) {\n        return store.availableBalance(_token).sub(unclaimedRewards[_token]);\n    }\n\n    function darknodeBalances(address _darknodeID, address _token) external view returns (uint256) {\n        return store.darknodeBalances(_darknodeID, _token);\n    }\n\n    /// @notice Changes the current cycle.\n    function changeCycle() external returns (uint256) {\n        require(now >= cycleTimeout, \"cannot cycle yet: too early\");\n        require(block.number != currentCycle, \"no new block\");\n\n        // Snapshot balances for the past cycle\n        uint arrayLength = registeredTokens.length;\n        for (uint i = 0; i < arrayLength; i++) {\n            _snapshotBalance(registeredTokens[i]);\n        }\n\n        // Start a new cycle\n        previousCycle = currentCycle;\n        currentCycle = block.number;\n        cycleStartTime = block.timestamp;\n        cycleTimeout = cycleStartTime.add(cycleDuration);\n\n        // Update the share size for next cycle\n        shareCount = store.darknodeWhitelistLength();\n        // Update the list of registeredTokens\n        _updateTokenList();\n\n        emit LogNewCycle(currentCycle, previousCycle, cycleTimeout);\n        return currentCycle;\n    }\n\n    /// @notice Deposits token into the contract to be paid to the Darknodes\n    ///\n    /// @param _value The amount of token deposit in the token's smallest unit.\n    /// @param _token The token address\n    function deposit(uint256 _value, address _token) external payable {\n        uint256 receivedValue;\n        if (_token == ETHEREUM) {\n            require(_value == msg.value, \"mismatched deposit value\");\n            receivedValue = msg.value;\n            address(store).transfer(msg.value);\n        } else {\n            require(msg.value == 0, \"unexpected ether transfer\");\n            // Forward the funds to the store\n            receivedValue = ERC20(_token).safeTransferFromWithFees(msg.sender, address(store), _value);\n        }\n        emit LogPaymentReceived(msg.sender, receivedValue, _token);\n    }\n\n    /// @notice Claims the rewards allocated to the darknode last cycle and\n    ///         increments the darknode balances. Whitelists the darknode if it\n    ///         hasn't already been whitelisted. If a darknode does not call\n    ///         claim() then the rewards for the previous cycle is lost.\n    ///\n    /// @param _darknode The address of the darknode to claim\n    function claim(address _darknode) external onlyDarknode(_darknode) notBlacklisted(_darknode) {\n        uint256 whitelistedTime = store.darknodeWhitelist(_darknode);\n\n        // The darknode hasn't been whitelisted before\n        if (whitelistedTime == 0) {\n            store.whitelist(_darknode);\n            emit LogDarknodeWhitelisted(_darknode, now);\n            return;\n        }\n\n        require(whitelistedTime < cycleStartTime, \"cannot claim for this cycle\");\n\n        // Claim share of rewards allocated for last cycle\n        _claimDarknodeReward(_darknode);\n        emit LogDarknodeClaim(_darknode, previousCycle);\n    }\n\n    /// @notice Blacklists a darknode from participating in rewards.\n    ///\n    /// @param _darknode The address of the darknode to blacklist\n    function blacklist(address _darknode) external onlyBlacklister onlyDarknode(_darknode) {\n        store.blacklist(_darknode);\n        emit LogDarknodeBlacklisted(_darknode, now);\n    }\n\n    /// @notice Adds tokens to be payable. Registration is pending until next\n    ///         cycle.\n    ///\n    /// @param _token The address of the token to be registered.\n    function registerToken(address _token) external onlyOwner {\n        require(registeredTokenIndex[_token] == 0, \"token already registered\");\n        uint arrayLength = pendingTokens.length;\n        for (uint i = 0; i < arrayLength; i++) {\n            require(pendingTokens[i] != _token, \"token already pending registration\");\n        }\n        pendingTokens.push(_token);\n    }\n\n    /// @notice Removes a token from the list of supported tokens.\n    ///         Deregistration is pending until next cycle.\n    ///\n    /// @param _token The address of the token to be deregistered.\n    function deregisterToken(address _token) external onlyOwner {\n        require(registeredTokenIndex[_token] > 0, \"token not registered\");\n        _deregisterToken(_token);\n    }\n\n    /// @notice Updates the Blacklister contract address.\n    ///\n    /// @param _addr The new Blacklister contract address.\n    function updateBlacklister(address _addr) external onlyOwner {\n        require(_addr != address(0), \"invalid contract address\");\n        emit LogBlacklisterChanged(_addr, blacklister);\n        blacklister = _addr;\n    }\n\n    /// @notice Updates cycle duration\n    ///\n    /// @param _durationSeconds The amount of time (in seconds) that should have\n    ///        passed before a new cycle can be called.\n    function updateCycleDuration(uint256 _durationSeconds) external onlyOwner {\n        uint256 oldDuration = cycleDuration;\n        cycleDuration = _durationSeconds;\n        emit LogCycleDurationChanged(cycleDuration, oldDuration);\n    }\n\n    /// @notice Allows the contract owner to initiate an ownership transfer of\n    ///         the DarknodePaymentStore.\n    ///\n    /// @param _newOwner The address to transfer the ownership to.\n    function transferStoreOwnership(address _newOwner) external onlyOwner {\n        store.transferOwnership(_newOwner);\n    }\n\n    /// @notice Claims ownership of the store passed in to the constructor.\n    ///         `transferStoreOwnership` must have previously been called when\n    ///         transferring from another DarknodePaymentStore.\n    function claimStoreOwnership() external onlyOwner {\n        store.claimOwnership();\n    }\n\n    /// @notice Claims the darknode reward for all registered tokens into\n    ///         darknodeBalances in the DarknodePaymentStore.\n    ///         Rewards can only be claimed once per cycle.\n    ///\n    /// @param _darknode The address to the darknode to claim rewards for\n    function _claimDarknodeReward(address _darknode) private {\n        require(!rewardClaimed[_darknode][previousCycle], \"reward already claimed\");\n        rewardClaimed[_darknode][previousCycle] = true;\n        uint arrayLength = registeredTokens.length;\n        for (uint i = 0; i < arrayLength; i++) {\n            address token = registeredTokens[i];\n\n            // Only increment balance if shares were allocated last cycle\n            if (previousCycleRewardShare[token] > 0) {\n                unclaimedRewards[token] = unclaimedRewards[token].sub(previousCycleRewardShare[token]);\n                store.incrementDarknodeBalance(_darknode, token, previousCycleRewardShare[token]);\n            }\n        }\n    }\n\n    /// @notice Snapshots the current balance of the tokens, for all registered\n    ///         tokens.\n    ///\n    /// @param _token The address the token to snapshot.\n    function _snapshotBalance(address _token) private {\n        if (shareCount == 0) {\n            unclaimedRewards[_token] = 0;\n            previousCycleRewardShare[_token] = 0;\n        } else {\n            // Lock up the current balance for darknode reward allocation\n            unclaimedRewards[_token] = store.availableBalance(_token);\n            previousCycleRewardShare[_token] = unclaimedRewards[_token].div(shareCount);\n        }\n    }\n\n    /// @notice Deregisters a token, removing it from the list of\n    ///         registeredTokens.\n    ///\n    /// @param _token The address of the token to deregister.\n    function _deregisterToken(address _token) private {\n        address lastToken = registeredTokens[registeredTokens.length.sub(1)];\n        uint256 deletedTokenIndex = registeredTokenIndex[_token].sub(1);\n        // Move the last token to _token's position and update it's index\n        registeredTokens[deletedTokenIndex] = lastToken;\n        registeredTokenIndex[lastToken] = registeredTokenIndex[_token];\n        // Decreasing the length will clean up the storage for us\n        // So we don't need to manually delete the element\n        registeredTokens.length = registeredTokens.length.sub(1);\n        registeredTokenIndex[_token] = 0;\n\n        emit LogTokenDeregistered(_token);\n    }\n\n    /// @notice Updates the list of registeredTokens adding tokens that are to be registered.\n    ///         The list of tokens that are pending registration are emptied afterwards.\n    function _updateTokenList() private {\n        // Register tokens\n        uint arrayLength = pendingTokens.length;\n        for (uint i = 0; i < arrayLength; i++) {\n            address token = pendingTokens[i];\n            registeredTokens.push(token);\n            registeredTokenIndex[token] = registeredTokens.length;\n            emit LogTokenRegistered(token);\n        }\n        pendingTokens.length = 0;\n    }\n\n}\n",
  "sourcePath": "/home/noah/github/renproject/darknode-sol/contracts/DarknodePayment/DarknodePayment.sol",
  "compiler": {
    "name": "solc",
    "version": "0.5.8+commit.23d335f2.Emscripten.clang"
  },
  "schemaVersion": "3.0.11",
  "updatedAt": "2019-07-16T00:47:45.144Z",
  "devdoc": {
    "methods": {
      "blacklist(address)": {
        "params": {
          "_darknode": "The address of the darknode to blacklist"
        }
      },
      "claim(address)": {
        "params": {
          "_darknode": "The address of the darknode to claim"
        }
      },
      "constructor": {
        "params": {
          "_VERSION": "A string defining the contract version.",
          "_cycleDurationSeconds": "The minimum time before a new cycle can occur in seconds",
          "_darknodePaymentStore": "The address of the DarknodePaymentStore        contract",
          "_darknodeRegistry": "The address of the DarknodeRegistry contract"
        }
      },
      "deposit(uint256,address)": {
        "params": {
          "_token": "The token address",
          "_value": "The amount of token deposit in the token's smallest unit."
        }
      },
      "deregisterToken(address)": {
        "params": {
          "_token": "The address of the token to be deregistered."
        }
      },
      "isOwner()": {
        "details": "Returns true if the caller is the current owner."
      },
      "owner()": {
        "details": "Returns the address of the current owner."
      },
      "registerToken(address)": {
        "params": {
          "_token": "The address of the token to be registered."
        }
      },
      "renounceOwnership()": {
        "details": "Leaves the contract without owner. It will not be possible to call `onlyOwner` functions anymore. Can only be called by the current owner.     * > Note: Renouncing ownership will leave the contract without an owner, thereby removing any functionality that is only available to the owner."
      },
      "transferOwnership(address)": {
        "details": "Transfers ownership of the contract to a new account (`newOwner`). Can only be called by the current owner."
      },
      "transferStoreOwnership(address)": {
        "params": {
          "_newOwner": "The address to transfer the ownership to."
        }
      },
      "updateBlacklister(address)": {
        "params": {
          "_addr": "The new Blacklister contract address."
        }
      },
      "updateCycleDuration(uint256)": {
        "params": {
          "_durationSeconds": "The amount of time (in seconds) that should have        passed before a new cycle can be called."
        }
      },
      "withdraw(address,address)": {
        "params": {
          "_darknode": "The address of the darknode",
          "_token": "Which token to transfer"
        }
      }
    }
  },
  "userdoc": {
    "methods": {
      "blacklist(address)": {
        "notice": "Blacklists a darknode from participating in rewards. "
      },
      "changeCycle()": {
        "notice": "Changes the current cycle."
      },
      "claim(address)": {
        "notice": "Claims the rewards allocated to the darknode last cycle and         increments the darknode balances. Whitelists the darknode if it         hasn't already been whitelisted. If a darknode does not call         claim() then the rewards for the previous cycle is lost. "
      },
      "claimStoreOwnership()": {
        "notice": "Claims ownership of the store passed in to the constructor.         `transferStoreOwnership` must have previously been called when         transferring from another DarknodePaymentStore."
      },
      "constructor": "The contract constructor. Starts the current cycle using the         time of deploy. ",
      "currentCycleRewardPool(address)": {
        "notice": "The current balance of the contract available as reward for the         current cycle"
      },
      "deposit(uint256,address)": {
        "notice": "Deposits token into the contract to be paid to the Darknodes "
      },
      "deregisterToken(address)": {
        "notice": "Removes a token from the list of supported tokens.         Deregistration is pending until next cycle. "
      },
      "registerToken(address)": {
        "notice": "Adds tokens to be payable. Registration is pending until next         cycle. "
      },
      "transferStoreOwnership(address)": {
        "notice": "Allows the contract owner to initiate an ownership transfer of         the DarknodePaymentStore. "
      },
      "updateBlacklister(address)": {
        "notice": "Updates the Blacklister contract address. "
      },
      "updateCycleDuration(uint256)": {
        "notice": "Updates cycle duration "
      },
      "withdraw(address,address)": {
        "notice": "Transfers the funds allocated to the darknode to the darknode         owner. "
      }
    },
    "notice": "DarknodePayment is responsible for paying off darknodes for their         computation."
  }
}