{
  "contractName": "ZECShifter",
  "abi": [
    {
      "constant": false,
      "inputs": [
        {
          "name": "_nextMintAuthority",
          "type": "address"
        }
      ],
      "name": "updateMintAuthority",
      "outputs": [],
      "payable": false,
      "stateMutability": "nonpayable",
      "type": "function"
    },
    {
      "constant": false,
      "inputs": [],
      "name": "claimTokenOwnership",
      "outputs": [],
      "payable": false,
      "stateMutability": "nonpayable",
      "type": "function"
    },
    {
      "constant": false,
      "inputs": [
        {
          "name": "_nextTokenOwner",
          "type": "address"
        }
      ],
      "name": "transferTokenOwnership",
      "outputs": [],
      "payable": false,
      "stateMutability": "nonpayable",
      "type": "function"
    },
    {
      "constant": false,
      "inputs": [
        {
          "name": "_nextFee",
          "type": "uint16"
        }
      ],
      "name": "updateFee",
      "outputs": [],
      "payable": false,
      "stateMutability": "nonpayable",
      "type": "function"
    },
    {
      "constant": true,
      "inputs": [],
      "name": "feeRecipient",
      "outputs": [
        {
          "name": "",
          "type": "address"
        }
      ],
      "payable": false,
      "stateMutability": "view",
      "type": "function"
    },
    {
      "constant": true,
      "inputs": [
        {
          "name": "_pHash",
          "type": "bytes32"
        },
        {
          "name": "_amount",
          "type": "uint256"
        },
        {
          "name": "_to",
          "type": "address"
        },
        {
          "name": "_nHash",
          "type": "bytes32"
        }
      ],
      "name": "hashForSignature",
      "outputs": [
        {
          "name": "",
          "type": "bytes32"
        }
      ],
      "payable": false,
      "stateMutability": "view",
      "type": "function"
    },
    {
      "constant": true,
      "inputs": [
        {
          "name": "",
          "type": "bytes32"
        }
      ],
      "name": "status",
      "outputs": [
        {
          "name": "",
          "type": "bool"
        }
      ],
      "payable": false,
      "stateMutability": "view",
      "type": "function"
    },
    {
      "constant": true,
      "inputs": [],
      "name": "version",
      "outputs": [
        {
          "name": "",
          "type": "uint8"
        }
      ],
      "payable": false,
      "stateMutability": "view",
      "type": "function"
    },
    {
      "constant": false,
      "inputs": [],
      "name": "renounceOwnership",
      "outputs": [],
      "payable": false,
      "stateMutability": "nonpayable",
      "type": "function"
    },
    {
      "constant": false,
      "inputs": [
        {
          "name": "_to",
          "type": "bytes"
        },
        {
          "name": "_amount",
          "type": "uint256"
        }
      ],
      "name": "shiftOut",
      "outputs": [
        {
          "name": "",
          "type": "uint256"
        }
      ],
      "payable": false,
      "stateMutability": "nonpayable",
      "type": "function"
    },
    {
      "constant": true,
      "inputs": [],
      "name": "owner",
      "outputs": [
        {
          "name": "",
          "type": "address"
        }
      ],
      "payable": false,
      "stateMutability": "view",
      "type": "function"
    },
    {
      "constant": true,
      "inputs": [],
      "name": "isOwner",
      "outputs": [
        {
          "name": "",
          "type": "bool"
        }
      ],
      "payable": false,
      "stateMutability": "view",
      "type": "function"
    },
    {
      "constant": true,
      "inputs": [],
      "name": "mintAuthority",
      "outputs": [
        {
          "name": "",
          "type": "address"
        }
      ],
      "payable": false,
      "stateMutability": "view",
      "type": "function"
    },
    {
      "constant": true,
      "inputs": [],
      "name": "nextShiftID",
      "outputs": [
        {
          "name": "",
          "type": "uint256"
        }
      ],
      "payable": false,
      "stateMutability": "view",
      "type": "function"
    },
    {
      "constant": false,
      "inputs": [
        {
          "name": "_pHash",
          "type": "bytes32"
        },
        {
          "name": "_amount",
          "type": "uint256"
        },
        {
          "name": "_nHash",
          "type": "bytes32"
        },
        {
          "name": "_sig",
          "type": "bytes"
        }
      ],
      "name": "shiftIn",
      "outputs": [
        {
          "name": "",
          "type": "uint256"
        }
      ],
      "payable": false,
      "stateMutability": "nonpayable",
      "type": "function"
    },
    {
      "constant": true,
      "inputs": [
        {
          "name": "_signedMessageHash",
          "type": "bytes32"
        },
        {
          "name": "_sig",
          "type": "bytes"
        }
      ],
      "name": "verifySignature",
      "outputs": [
        {
          "name": "",
          "type": "bool"
        }
      ],
      "payable": false,
      "stateMutability": "view",
      "type": "function"
    },
    {
      "constant": true,
      "inputs": [],
      "name": "fee",
      "outputs": [
        {
          "name": "",
          "type": "uint16"
        }
      ],
      "payable": false,
      "stateMutability": "view",
      "type": "function"
    },
    {
      "constant": false,
      "inputs": [
        {
          "name": "_nextFeeRecipient",
          "type": "address"
        }
      ],
      "name": "updateFeeRecipient",
      "outputs": [],
      "payable": false,
      "stateMutability": "nonpayable",
      "type": "function"
    },
    {
      "constant": false,
      "inputs": [
        {
          "name": "newOwner",
          "type": "address"
        }
      ],
      "name": "transferOwnership",
      "outputs": [],
      "payable": false,
      "stateMutability": "nonpayable",
      "type": "function"
    },
    {
      "constant": true,
      "inputs": [],
      "name": "token",
      "outputs": [
        {
          "name": "",
          "type": "address"
        }
      ],
      "payable": false,
      "stateMutability": "view",
      "type": "function"
    },
    {
      "inputs": [
        {
          "name": "_token",
          "type": "address"
        },
        {
          "name": "_feeRecipient",
          "type": "address"
        },
        {
          "name": "_mintAuthority",
          "type": "address"
        },
        {
          "name": "_fee",
          "type": "uint16"
        }
      ],
      "payable": false,
      "stateMutability": "nonpayable",
      "type": "constructor"
    },
    {
      "anonymous": false,
      "inputs": [
        {
          "indexed": true,
          "name": "_to",
          "type": "address"
        },
        {
          "indexed": false,
          "name": "_amount",
          "type": "uint256"
        },
        {
          "indexed": true,
          "name": "_shiftID",
          "type": "uint256"
        }
      ],
      "name": "LogShiftIn",
      "type": "event"
    },
    {
      "anonymous": false,
      "inputs": [
        {
          "indexed": false,
          "name": "_to",
          "type": "bytes"
        },
        {
          "indexed": false,
          "name": "_amount",
          "type": "uint256"
        },
        {
          "indexed": true,
          "name": "_shiftID",
          "type": "uint256"
        },
        {
          "indexed": true,
          "name": "_indexedTo",
          "type": "bytes"
        }
      ],
      "name": "LogShiftOut",
      "type": "event"
    },
    {
      "anonymous": false,
      "inputs": [
        {
          "indexed": true,
          "name": "previousOwner",
          "type": "address"
        },
        {
          "indexed": true,
          "name": "newOwner",
          "type": "address"
        }
      ],
      "name": "OwnershipTransferred",
      "type": "event"
    }
  ],
  "bytecode": "0x608060405260008054600160a01b60ff0219167402000000000000000000000000000000000000000017815560055534801561003a57600080fd5b5060405160808062001ad48339810180604052608081101561005b57600080fd5b5080516020820151604080840151606090940151600080546001600160a01b0319163317808255925194959394919286928692869286926001600160a01b039190911691907f8be0079c531659141344cd1fd0a4f28419497f9722a3daafe3b4186f6b6457e0908290a3600180546001600160a01b038087166001600160a01b03199283161790925560028054928516929091169190911790556003805461ffff83167401000000000000000000000000000000000000000002600160a01b61ffff021990911617905561013583610142602090811b901c565b5050505050505050610263565b61015061025260201b60201c565b6101bb57604080517f08c379a000000000000000000000000000000000000000000000000000000000815260206004820181905260248201527f4f776e61626c653a2063616c6c6572206973206e6f7420746865206f776e6572604482015290519081900360640190fd5b6001600160a01b03811661023057604080517f08c379a000000000000000000000000000000000000000000000000000000000815260206004820152601b60248201527f66656520726563697069656e742063616e6e6f74206265203078300000000000604482015290519081900360640190fd5b600380546001600160a01b0319166001600160a01b0392909216919091179055565b6000546001600160a01b0316331490565b61186180620002736000396000f3fe608060405234801561001057600080fd5b506004361061012c5760003560e01c80638da5cb5b116100ad578063daca6f7811610071578063daca6f78146103ee578063ddca3f431461049b578063f160d369146104ba578063f2fde38b146104e0578063fc0c546a146105065761012c565b80638da5cb5b146103155780638f32d59b1461031d5780639340b21e14610325578063ab595e0c1461032d578063bb4a1d8c146103355761012c565b80635219a566116100f45780635219a566146101cc57806352ad0d5e1461021657806354fd4d5014610247578063715018a6146102655780638723c3771461026d5761012c565b80630130a33b1461013157806310731a651461015957806321e6b53d146101615780632c6cda931461018757806346904840146101a8575b600080fd5b6101576004803603602081101561014757600080fd5b50356001600160a01b031661050e565b005b61015761057a565b6101576004803603602081101561017757600080fd5b50356001600160a01b03166105e4565b6101576004803603602081101561019d57600080fd5b503561ffff166106ed565b6101b061076a565b604080516001600160a01b039092168252519081900360200190f35b610204600480360360808110156101e257600080fd5b508035906020810135906001600160a01b036040820135169060600135610779565b60408051918252519081900360200190f35b6102336004803603602081101561022c57600080fd5b50356107c9565b604080519115158252519081900360200190f35b61024f6107de565b6040805160ff9092168252519081900360200190f35b6101576107ee565b6102046004803603604081101561028357600080fd5b81019060208101813564010000000081111561029e57600080fd5b8201836020820111156102b057600080fd5b803590602001918460018302840111640100000000831117156102d257600080fd5b91908080601f0160208091040260200160405190810160405280939291908181526020018383808284376000920191909152509295505091359250610882915050565b6101b0610b1d565b610233610b2c565b6101b0610b3d565b610204610b4c565b6102046004803603608081101561034b57600080fd5b8135916020810135916040820135919081019060808101606082013564010000000081111561037957600080fd5b82018360208201111561038b57600080fd5b803590602001918460018302840111640100000000831117156103ad57600080fd5b91908080601f016020809104026020016040519081016040528093929190818152602001838380828437600092019190915250929550610b52945050505050565b6102336004803603604081101561040457600080fd5b8135919081019060408101602082013564010000000081111561042657600080fd5b82018360208201111561043857600080fd5b8035906020019184600183028401116401000000008311171561045a57600080fd5b91908080601f016020809104026020016040519081016040528093929190818152602001838380828437600092019190915250929550610e67945050505050565b6104a3610e8b565b6040805161ffff9092168252519081900360200190f35b610157600480360360208110156104d057600080fd5b50356001600160a01b0316610e9c565b610157600480360360208110156104f657600080fd5b50356001600160a01b0316610f66565b6101b0610fbc565b610516610b2c565b6105585760408051600160e51b62461bcd02815260206004820181905260248201526000805160206117f3833981519152604482015290519081900360640190fd5b600280546001600160a01b0319166001600160a01b0392909216919091179055565b600160009054906101000a90046001600160a01b03166001600160a01b0316634e71e0c86040518163ffffffff1660e01b8152600401600060405180830381600087803b1580156105ca57600080fd5b505af11580156105de573d6000803e3d6000fd5b50505050565b6105ec610b2c565b61062e5760408051600160e51b62461bcd02815260206004820181905260248201526000805160206117f3833981519152604482015290519081900360640190fd5b60015460408051600160e01b63f2fde38b0281526001600160a01b0384811660048301529151919092169163f2fde38b91602480830192600092919082900301818387803b15801561067f57600080fd5b505af1158015610693573d6000803e3d6000fd5b50505050806001600160a01b03166310731a656040518163ffffffff1660e01b8152600401600060405180830381600087803b1580156106d257600080fd5b505af11580156106e6573d6000803e3d6000fd5b5050505050565b6106f5610b2c565b6107375760408051600160e51b62461bcd02815260206004820181905260248201526000805160206117f3833981519152604482015290519081900360640190fd5b6003805461ffff909216600160a01b0275ffff000000000000000000000000000000000000000019909216919091179055565b6003546001600160a01b031681565b60015460408051602080820197909752808201959095526001600160a01b0391821660608601529216608084015260a0808401919091528151808403909101815260c09092019052805191012090565b60046020526000908152604090205460ff1681565b600054600160a01b900460ff1681565b6107f6610b2c565b6108385760408051600160e51b62461bcd02815260206004820181905260248201526000805160206117f3833981519152604482015290519081900360640190fd5b600080546040516001600160a01b03909116907f8be0079c531659141344cd1fd0a4f28419497f9722a3daafe3b4186f6b6457e0908390a3600080546001600160a01b0319169055565b60008251600014156108de5760408051600160e51b62461bcd02815260206004820152601360248201527f746f206164647265737320697320656d70747900000000000000000000000000604482015290519081900360640190fd5b60035460009061090e9061271090610902908690600160a01b900461ffff16610fcb565b9063ffffffff61102e16565b60015460408051600160e21b632770a7eb0281523360048201526024810187905290519293506001600160a01b0390911691639dc29fac9160448082019260009290919082900301818387803b15801561096757600080fd5b505af115801561097b573d6000803e3d6000fd5b505060015460035460408051600160e01b6340c10f190281526001600160a01b0392831660048201526024810187905290519190921693506340c10f199250604480830192600092919082900301818387803b1580156109da57600080fd5b505af11580156109ee573d6000803e3d6000fd5b505050506000610a07828561109b90919063ffffffff16565b9050846040518082805190602001908083835b60208310610a395780518252601f199092019160209182019101610a1a565b6001836020036101000a03801982511681845116808217855250505050505090500191505060405180910390206005547f2275318eaeb892d338c6737eebf5f31747c1eab22b63ccbc00cd93d4e785c11687846040518080602001838152602001828103825284818151815260200191508051906020019080838360005b83811015610acf578181015183820152602001610ab7565b50505050905090810190601f168015610afc5780820380516001836020036101000a031916815260200191505b50935050505060405180910390a36005805460010190559150505b92915050565b6000546001600160a01b031690565b6000546001600160a01b0316331490565b6002546001600160a01b031681565b60055481565b600080610b6186863387610779565b60008181526004602052604090205490915060ff1615610bcb5760408051600160e51b62461bcd02815260206004820152601860248201527f6e6f6e6365206861736820616c7265616479207370656e740000000000000000604482015290519081900360640190fd5b610bd58184610e67565b610cdf57610c586040518060400160405280601a81526020017f696e76616c6964207369676e6174757265202d20686173683a20000000000000815250610c1b836110fb565b6040518060400160405280600a8152602001600160b51b690161039b4b3b732b91d102815250610c53610c4e868961127c565b61140e565b611593565b604051600160e51b62461bcd0281526004018080602001828103825283818151815260200191508051906020019080838360005b83811015610ca4578181015183820152602001610c8c565b50505050905090810190601f168015610cd15780820380516001836020036101000a031916815260200191505b509250505060405180910390fd5b6000818152600460205260408120805460ff19166001179055600354610d20906127109061090290899061ffff600160a01b9091041663ffffffff610fcb16565b90506000610d34878363ffffffff61109b16565b60015460408051600160e01b6340c10f190281523360048201526024810184905290519293506001600160a01b03909116916340c10f199160448082019260009290919082900301818387803b158015610d8d57600080fd5b505af1158015610da1573d6000803e3d6000fd5b505060015460035460408051600160e01b6340c10f190281526001600160a01b0392831660048201526024810188905290519190921693506340c10f199250604480830192600092919082900301818387803b158015610e0057600080fd5b505af1158015610e14573d6000803e3d6000fd5b50506005546040805185815290519193503392507fd79c73d5d7701ff70ab30939dd980af7276ff21617d890ff2ce150f3b5ea3d94919081900360200190a3600580546001019055979650505050505050565b6000610e73838361127c565b6002546001600160a01b039182169116149392505050565b600354600160a01b900461ffff1681565b610ea4610b2c565b610ee65760408051600160e51b62461bcd02815260206004820181905260248201526000805160206117f3833981519152604482015290519081900360640190fd5b6001600160a01b038116610f445760408051600160e51b62461bcd02815260206004820152601b60248201527f66656520726563697069656e742063616e6e6f74206265203078300000000000604482015290519081900360640190fd5b600380546001600160a01b0319166001600160a01b0392909216919091179055565b610f6e610b2c565b610fb05760408051600160e51b62461bcd02815260206004820181905260248201526000805160206117f3833981519152604482015290519081900360640190fd5b610fb9816116e4565b50565b6001546001600160a01b031681565b600082610fda57506000610b17565b82820282848281610fe757fe5b041461102757604051600160e51b62461bcd0281526004018080602001828103825260218152602001806117d26021913960400191505060405180910390fd5b9392505050565b60008082116110875760408051600160e51b62461bcd02815260206004820152601a60248201527f536166654d6174683a206469766973696f6e206279207a65726f000000000000604482015290519081900360640190fd5b600082848161109257fe5b04949350505050565b6000828211156110f55760408051600160e51b62461bcd02815260206004820152601e60248201527f536166654d6174683a207375627472616374696f6e206f766572666c6f770000604482015290519081900360640190fd5b50900390565b60408051808201825260108152600160811b6f181899199a1a9b1b9c1cb0b131b232b302602082015281516042808252608082019093526060928492918491602082018180388339019050509050600160fc1b6003028160008151811061115e57fe5b60200101906001600160f81b031916908160001a905350600160fb1b600f028160018151811061118a57fe5b60200101906001600160f81b031916908160001a90535060005b6020811015611273578260048583602081106111bc57fe5b1a60f81b6001600160f81b031916901c60f81c60ff16815181106111dc57fe5b602001015160f81c60f81b8282600202600201815181106111f957fe5b60200101906001600160f81b031916908160001a9053508284826020811061121d57fe5b1a60f81b600f60f81b1660f81c60ff168151811061123757fe5b602001015160f81c60f81b82826002026003018151811061125457fe5b60200101906001600160f81b031916908160001a9053506001016111a4565b50949350505050565b600081516041146112d75760408051600160e51b62461bcd02815260206004820152601d60248201527f7369676e61747572652773206c656e67746820697320696e76616c6964000000604482015290519081900360640190fd5b60208201516040830151606084015160001a7f7fffffffffffffffffffffffffffffff5d576e7357a4501ddfe92f46681b20a082111561134b57604051600160e51b62461bcd0281526004018080602001828103825260238152602001806118136023913960400191505060405180910390fd5b8060ff16601b1415801561136357508060ff16601c14155b156113a257604051600160e51b62461bcd0281526004018080602001828103825260248152602001806117886024913960400191505060405180910390fd5b6040805160008152602080820180845289905260ff8416828401526060820186905260808201859052915160019260a0808401939192601f1981019281900390910190855afa1580156113f9573d6000803e3d6000fd5b5050604051601f190151979650505050505050565b60408051808201825260108152600160811b6f181899199a1a9b1b9c1cb0b131b232b30260208201528151602a80825260608281019094526001600160a01b03851692918491602082018180388339019050509050600160fc1b6003028160008151811061147857fe5b60200101906001600160f81b031916908160001a905350600160fb1b600f02816001815181106114a457fe5b60200101906001600160f81b031916908160001a90535060005b6014811015611273578260048583600c01602081106114d957fe5b1a60f81b6001600160f81b031916901c60f81c60ff16815181106114f957fe5b602001015160f81c60f81b82826002026002018151811061151657fe5b60200101906001600160f81b031916908160001a905350828482600c016020811061153d57fe5b1a60f81b600f60f81b1660f81c60ff168151811061155757fe5b602001015160f81c60f81b82826002026003018151811061157457fe5b60200101906001600160f81b031916908160001a9053506001016114be565b6060848484846040516020018085805190602001908083835b602083106115cb5780518252601f1990920191602091820191016115ac565b51815160209384036101000a600019018019909216911617905287519190930192870191508083835b602083106116135780518252601f1990920191602091820191016115f4565b51815160209384036101000a600019018019909216911617905286519190930192860191508083835b6020831061165b5780518252601f19909201916020918201910161163c565b51815160209384036101000a600019018019909216911617905285519190930192850191508083835b602083106116a35780518252601f199092019160209182019101611684565b6001836020036101000a0380198251168184511680821785525050505050509050019450505050506040516020818303038152906040529050949350505050565b6001600160a01b03811661172c57604051600160e51b62461bcd0281526004018080602001828103825260268152602001806117ac6026913960400191505060405180910390fd5b600080546040516001600160a01b03808516939216917f8be0079c531659141344cd1fd0a4f28419497f9722a3daafe3b4186f6b6457e091a3600080546001600160a01b0319166001600160a01b039290921691909117905556fe7369676e6174756572652773207620697320696e207468652077726f6e672072616e67654f776e61626c653a206e6577206f776e657220697320746865207a65726f2061646472657373536166654d6174683a206d756c7469706c69636174696f6e206f766572666c6f774f776e61626c653a2063616c6c6572206973206e6f7420746865206f776e65727369676e61747572652773207320697320696e207468652077726f6e672072616e6765a165627a7a72305820854aa93272199cd842004f9de18d1944a7fa6960912145f595cabfec5051b0020029",
  "source": "pragma solidity ^0.5.8;\n\nimport \"openzeppelin-solidity/contracts/math/SafeMath.sol\";\nimport \"openzeppelin-solidity/contracts/ownership/Ownable.sol\";\nimport \"openzeppelin-solidity/contracts/cryptography/ECDSA.sol\";\n\nimport \"../libraries/String.sol\";\nimport \"./ERC20Shifted.sol\";\n\n/// @notice Shifter handles verifying mint and burn requests. A mintAuthority\n/// approves new assets to be minted by providing a digital signature. An owner\n/// of an asset can request for it to be burnt.\ncontract Shifter is Ownable {\n    using SafeMath for uint256;\n\n    uint8 public version = 2;\n\n    uint256 constant BIPS_DENOMINATOR = 10000;\n\n    /// @notice Each Shifter token is tied to a specific shifted token.\n    ERC20Shifted public token;\n\n    /// @notice The mintAuthority is an address that can sign mint requests.\n    address public mintAuthority;\n\n    /// @dev feeRecipient is assumed to be an address (or a contract) that can \n    /// accept erc20 payments it cannot be 0x0.\n    /// @notice When tokens are mint or burnt, a portion of the tokens are \n    /// forwarded to a fee recipient.\n    address public feeRecipient;\n\n    /// @notice The minting and burning fee in bips.\n    uint16 public fee;\n\n    /// @notice Each nHash can only be seen once.\n    mapping (bytes32=>bool) public status;\n\n    // LogShiftIn and LogShiftOut contain a unique `shiftID` that identifies\n    // the mint or burn event.\n    uint256 public nextShiftID = 0;\n\n    event LogShiftIn(address indexed _to, uint256 _amount, uint256 indexed _shiftID);\n    event LogShiftOut(bytes _to, uint256 _amount, uint256 indexed _shiftID, bytes indexed _indexedTo);\n\n    /// @param _token The ERC20Shifted this Shifter is responsible for.\n    /// @param _feeRecipient The recipient of burning and minting fees.\n    /// @param _mintAuthority The address of the key that can sign mint\n    ///        requests.\n    /// @param _fee The amount subtracted each burn and mint request and\n    ///        forwarded to the feeRecipient. In BIPS.\n    constructor(ERC20Shifted _token, address _feeRecipient, address _mintAuthority, uint16 _fee) public {\n        token = _token;\n        mintAuthority = _mintAuthority;\n        fee = _fee;\n        updateFeeRecipient(_feeRecipient);\n    }\n\n    // Public functions ////////////////////////////////////////////////////////\n\n    /// @notice Claims ownership of the token passed in to the constructor.\n    /// `transferStoreOwnership` must have previously been called.\n    /// Anyone can call this function.\n    function claimTokenOwnership() public {\n        token.claimOwnership();\n    }\n\n    /// @notice Allow the owner to update the owner of the ERC20Shifted token.\n    function transferTokenOwnership(Shifter _nextTokenOwner) public onlyOwner {\n        token.transferOwnership(address(_nextTokenOwner));\n        _nextTokenOwner.claimTokenOwnership();\n    }\n\n    /// @notice Allow the owner to update the fee recipient.\n    ///\n    /// @param _nextMintAuthority The address to start paying fees to.\n    function updateMintAuthority(address _nextMintAuthority) public onlyOwner {\n        mintAuthority = _nextMintAuthority;\n    }\n\n    /// @notice Allow the owner to update the fee recipient.\n    ///\n    /// @param _nextFeeRecipient The address to start paying fees to.\n    function updateFeeRecipient(address _nextFeeRecipient) public onlyOwner {\n        // ShiftIn and ShiftOut will fail if the feeRecipient is 0x0\n        require(_nextFeeRecipient != address(0x0), \"fee recipient cannot be 0x0\");\n\n        feeRecipient = _nextFeeRecipient;\n    }\n\n    /// @notice Allow the owner to update the fee.\n    ///\n    /// @param _nextFee The new fee for minting and burning.\n    function updateFee(uint16 _nextFee) public onlyOwner {\n        fee = _nextFee;\n    }\n\n    /// @notice shiftIn mints tokens after taking a fee for the `_feeRecipient`.\n    ///\n    /// @param _pHash (payload hash) The hash of the payload associated with the\n    ///        shift.\n    /// @param _amount The amount of the token being shifted int, in its\n    ///        smallest value. (e.g. satoshis for BTC)\n    /// @param _nHash (nonce hash) The hash of the nonce, amount and pHash.\n    /// @param _sig The signature of the hash of the following values:\n    ///        (pHash, amount, msg.sender, nHash), signed by the mintAuthority.\n    function shiftIn(bytes32 _pHash, uint256 _amount, bytes32 _nHash, bytes memory _sig) public returns (uint256) {\n        // Verify signature\n        bytes32 signedMessageHash = hashForSignature(_pHash, _amount, msg.sender, _nHash);\n        require(status[signedMessageHash] == false, \"nonce hash already spent\");\n        if (!verifySignature(signedMessageHash, _sig)) {\n            // Return a detailed string containing the hash and recovered\n            // signer. This is a costly operation but is only run in the revert\n            // branch.\n            revert(\n                String.add4(\n                    \"invalid signature - hash: \",\n                    String.fromBytes32(signedMessageHash),\n                    \", signer: \",\n                    String.fromAddress(ECDSA.recover(signedMessageHash, _sig))\n                )\n            );\n        }\n        status[signedMessageHash] = true;\n\n        // Mint `amount - fee` for the recipient and mint `fee` for the minter\n        uint256 absoluteFee = (_amount.mul(fee)).div(BIPS_DENOMINATOR);\n        uint256 receivedAmount = _amount.sub(absoluteFee);\n        token.mint(msg.sender, receivedAmount);\n        token.mint(feeRecipient, absoluteFee);\n\n        // Emit a log with a unique shift ID\n        emit LogShiftIn(msg.sender, receivedAmount, nextShiftID);\n        nextShiftID += 1;\n\n        return receivedAmount;\n    }\n\n    /// @notice shiftOut burns tokens after taking a fee for the `_feeRecipient`.\n    ///\n    /// @param _to The address to receive the unshifted digital asset. The\n    ///        format of this address should be of the destination chain.\n    ///        For example, when shifting out to Bitcoin, _to should be a\n    ///        Bitcoin address.\n    /// @param _amount The amount of the token being shifted out, in its\n    ///        smallest value. (e.g. satoshis for BTC)\n    function shiftOut(bytes memory _to, uint256 _amount) public returns (uint256) {\n        // The recipient must not be empty. Better validation is possible,\n        // but would need to be customized for each destination ledger.\n        require(_to.length != 0, \"to address is empty\");\n\n        // Burn full amount and mint fee\n        uint256 absoluteFee = (_amount.mul(fee)).div(BIPS_DENOMINATOR);\n        token.burn(msg.sender, _amount);\n        token.mint(feeRecipient, absoluteFee);\n\n        // Emit a log with a unique shift ID\n        uint256 receivedValue = _amount.sub(absoluteFee);\n        emit LogShiftOut(_to, receivedValue, nextShiftID, _to);\n        nextShiftID += 1;\n\n        return receivedValue;\n    }\n\n    /// @notice verifySignature checks the the provided signature matches the provided\n    /// parameters.\n    function verifySignature(bytes32 _signedMessageHash, bytes memory _sig) public view returns (bool) {\n        return mintAuthority == ECDSA.recover(_signedMessageHash, _sig);\n    }\n\n    /// @notice hashForSignature hashes the parameters so that they can be signed.\n    function hashForSignature(bytes32 _pHash, uint256 _amount, address _to, bytes32 _nHash) public view returns (bytes32) {\n        return keccak256(abi.encode(_pHash, _amount, address(token), _to, _nHash));\n    }\n}\n\n/// @dev The following are not necessary for deploying BTCShifter or ZECShifter\n/// contracts, but are used to track deployments.\ncontract BTCShifter is Shifter {\n    constructor(ERC20Shifted _token, address _feeRecipient, address _mintAuthority, uint16 _fee)\n        Shifter(_token, _feeRecipient, _mintAuthority, _fee) public {\n        }\n}\n\ncontract ZECShifter is Shifter {\n    constructor(ERC20Shifted _token, address _feeRecipient, address _mintAuthority, uint16 _fee)\n        Shifter(_token, _feeRecipient, _mintAuthority, _fee) public {\n        }\n}",
  "sourcePath": "/home/noah/github/renproject/darknode-sol/contracts/Shifter/Shifter.sol",
  "compiler": {
    "name": "solc",
    "version": "0.5.8+commit.23d335f2.Emscripten.clang"
  },
  "schemaVersion": "3.0.11",
  "updatedAt": "2019-07-16T00:47:45.129Z",
  "devdoc": {
    "methods": {
      "isOwner()": {
        "details": "Returns true if the caller is the current owner."
      },
      "owner()": {
        "details": "Returns the address of the current owner."
      },
      "renounceOwnership()": {
        "details": "Leaves the contract without owner. It will not be possible to call `onlyOwner` functions anymore. Can only be called by the current owner.     * > Note: Renouncing ownership will leave the contract without an owner, thereby removing any functionality that is only available to the owner."
      },
      "shiftIn(bytes32,uint256,bytes32,bytes)": {
        "params": {
          "_amount": "The amount of the token being shifted int, in its        smallest value. (e.g. satoshis for BTC)",
          "_nHash": "(nonce hash) The hash of the nonce, amount and pHash.",
          "_pHash": "(payload hash) The hash of the payload associated with the        shift.",
          "_sig": "The signature of the hash of the following values:        (pHash, amount, msg.sender, nHash), signed by the mintAuthority."
        }
      },
      "shiftOut(bytes,uint256)": {
        "params": {
          "_amount": "The amount of the token being shifted out, in its        smallest value. (e.g. satoshis for BTC)",
          "_to": "The address to receive the unshifted digital asset. The        format of this address should be of the destination chain.        For example, when shifting out to Bitcoin, _to should be a        Bitcoin address."
        }
      },
      "transferOwnership(address)": {
        "details": "Transfers ownership of the contract to a new account (`newOwner`). Can only be called by the current owner."
      },
      "updateFee(uint16)": {
        "params": {
          "_nextFee": "The new fee for minting and burning."
        }
      },
      "updateFeeRecipient(address)": {
        "params": {
          "_nextFeeRecipient": "The address to start paying fees to."
        }
      },
      "updateMintAuthority(address)": {
        "params": {
          "_nextMintAuthority": "The address to start paying fees to."
        }
      }
    }
  },
  "userdoc": {
    "methods": {
      "claimTokenOwnership()": {
        "notice": "Claims ownership of the token passed in to the constructor. `transferStoreOwnership` must have previously been called. Anyone can call this function."
      },
      "hashForSignature(bytes32,uint256,address,bytes32)": {
        "notice": "hashForSignature hashes the parameters so that they can be signed."
      },
      "shiftIn(bytes32,uint256,bytes32,bytes)": {
        "notice": "shiftIn mints tokens after taking a fee for the `_feeRecipient`. "
      },
      "shiftOut(bytes,uint256)": {
        "notice": "shiftOut burns tokens after taking a fee for the `_feeRecipient`. "
      },
      "transferTokenOwnership(address)": {
        "notice": "Allow the owner to update the owner of the ERC20Shifted token."
      },
      "updateFee(uint16)": {
        "notice": "Allow the owner to update the fee. "
      },
      "updateFeeRecipient(address)": {
        "notice": "Allow the owner to update the fee recipient. "
      },
      "updateMintAuthority(address)": {
        "notice": "Allow the owner to update the fee recipient. "
      },
      "verifySignature(bytes32,bytes)": {
        "notice": "verifySignature checks the the provided signature matches the provided parameters."
      }
    }
  }
}