{
  "contractName": "DarknodeRegistryStore",
  "abi": [
    {
      "constant": false,
      "inputs": [],
      "name": "claimOwnership",
      "outputs": [],
      "payable": false,
      "stateMutability": "nonpayable",
      "type": "function"
    },
    {
      "constant": false,
      "inputs": [],
      "name": "renounceOwnership",
      "outputs": [],
      "payable": false,
      "stateMutability": "nonpayable",
      "type": "function"
    },
    {
      "constant": true,
      "inputs": [],
      "name": "ren",
      "outputs": [
        {
          "name": "",
          "type": "address"
        }
      ],
      "payable": false,
      "stateMutability": "view",
      "type": "function"
    },
    {
      "constant": true,
      "inputs": [],
      "name": "owner",
      "outputs": [
        {
          "name": "",
          "type": "address"
        }
      ],
      "payable": false,
      "stateMutability": "view",
      "type": "function"
    },
    {
      "constant": true,
      "inputs": [],
      "name": "isOwner",
      "outputs": [
        {
          "name": "",
          "type": "bool"
        }
      ],
      "payable": false,
      "stateMutability": "view",
      "type": "function"
    },
    {
      "constant": false,
      "inputs": [
        {
          "name": "newOwner",
          "type": "address"
        }
      ],
      "name": "transferOwnership",
      "outputs": [],
      "payable": false,
      "stateMutability": "nonpayable",
      "type": "function"
    },
    {
      "constant": true,
      "inputs": [],
      "name": "VERSION",
      "outputs": [
        {
          "name": "",
          "type": "string"
        }
      ],
      "payable": false,
      "stateMutability": "view",
      "type": "function"
    },
    {
      "inputs": [
        {
          "name": "_VERSION",
          "type": "string"
        },
        {
          "name": "_ren",
          "type": "address"
        }
      ],
      "payable": false,
      "stateMutability": "nonpayable",
      "type": "constructor"
    },
    {
      "anonymous": false,
      "inputs": [
        {
          "indexed": true,
          "name": "previousOwner",
          "type": "address"
        },
        {
          "indexed": true,
          "name": "newOwner",
          "type": "address"
        }
      ],
      "name": "OwnershipTransferred",
      "type": "event"
    },
    {
      "constant": false,
      "inputs": [
        {
          "name": "_darknodeID",
          "type": "address"
        },
        {
          "name": "_darknodeOwner",
          "type": "address"
        },
        {
          "name": "_bond",
          "type": "uint256"
        },
        {
          "name": "_publicKey",
          "type": "bytes"
        },
        {
          "name": "_registeredAt",
          "type": "uint256"
        },
        {
          "name": "_deregisteredAt",
          "type": "uint256"
        }
      ],
      "name": "appendDarknode",
      "outputs": [],
      "payable": false,
      "stateMutability": "nonpayable",
      "type": "function"
    },
    {
      "constant": true,
      "inputs": [],
      "name": "begin",
      "outputs": [
        {
          "name": "",
          "type": "address"
        }
      ],
      "payable": false,
      "stateMutability": "view",
      "type": "function"
    },
    {
      "constant": true,
      "inputs": [
        {
          "name": "darknodeID",
          "type": "address"
        }
      ],
      "name": "next",
      "outputs": [
        {
          "name": "",
          "type": "address"
        }
      ],
      "payable": false,
      "stateMutability": "view",
      "type": "function"
    },
    {
      "constant": false,
      "inputs": [
        {
          "name": "darknodeID",
          "type": "address"
        }
      ],
      "name": "removeDarknode",
      "outputs": [],
      "payable": false,
      "stateMutability": "nonpayable",
      "type": "function"
    },
    {
      "constant": false,
      "inputs": [
        {
          "name": "darknodeID",
          "type": "address"
        },
        {
          "name": "decreasedBond",
          "type": "uint256"
        }
      ],
      "name": "updateDarknodeBond",
      "outputs": [],
      "payable": false,
      "stateMutability": "nonpayable",
      "type": "function"
    },
    {
      "constant": false,
      "inputs": [
        {
          "name": "darknodeID",
          "type": "address"
        },
        {
          "name": "deregisteredAt",
          "type": "uint256"
        }
      ],
      "name": "updateDarknodeDeregisteredAt",
      "outputs": [],
      "payable": false,
      "stateMutability": "nonpayable",
      "type": "function"
    },
    {
      "constant": true,
      "inputs": [
        {
          "name": "darknodeID",
          "type": "address"
        }
      ],
      "name": "darknodeOwner",
      "outputs": [
        {
          "name": "",
          "type": "address"
        }
      ],
      "payable": false,
      "stateMutability": "view",
      "type": "function"
    },
    {
      "constant": true,
      "inputs": [
        {
          "name": "darknodeID",
          "type": "address"
        }
      ],
      "name": "darknodeBond",
      "outputs": [
        {
          "name": "",
          "type": "uint256"
        }
      ],
      "payable": false,
      "stateMutability": "view",
      "type": "function"
    },
    {
      "constant": true,
      "inputs": [
        {
          "name": "darknodeID",
          "type": "address"
        }
      ],
      "name": "darknodeRegisteredAt",
      "outputs": [
        {
          "name": "",
          "type": "uint256"
        }
      ],
      "payable": false,
      "stateMutability": "view",
      "type": "function"
    },
    {
      "constant": true,
      "inputs": [
        {
          "name": "darknodeID",
          "type": "address"
        }
      ],
      "name": "darknodeDeregisteredAt",
      "outputs": [
        {
          "name": "",
          "type": "uint256"
        }
      ],
      "payable": false,
      "stateMutability": "view",
      "type": "function"
    },
    {
      "constant": true,
      "inputs": [
        {
          "name": "darknodeID",
          "type": "address"
        }
      ],
      "name": "darknodePublicKey",
      "outputs": [
        {
          "name": "",
          "type": "bytes"
        }
      ],
      "payable": false,
      "stateMutability": "view",
      "type": "function"
    }
  ],
  "bytecode": "0x60806040523480156200001157600080fd5b50604051620015b0380380620015b0833981018060405260408110156200003757600080fd5b8101908080516401000000008111156200005057600080fd5b820160208101848111156200006457600080fd5b81516401000000008111828201871017156200007f57600080fd5b5050602090910151600180546001600160a01b0319163317908190556040519294509092506001600160a01b0316906000907f8be0079c531659141344cd1fd0a4f28419497f9722a3daafe3b4186f6b6457e0908290a38151620000eb90600290602085019062000113565b50600580546001600160a01b0319166001600160a01b039290921691909117905550620001b8565b828054600181600116156101000203166002900490600052602060002090601f016020900481019282601f106200015657805160ff191683800117855562000186565b8280016001018555821562000186579182015b828111156200018657825182559160200191906001019062000169565b506200019492915062000198565b5090565b620001b591905b808211156200019457600081556001016200019f565b90565b6113e880620001c86000396000f3fe608060405234801561001057600080fd5b50600436106101165760003560e01c8063a3078815116100a2578063e2d7c64c11610071578063e2d7c64c1461030f578063ee594a5014610335578063f2fde38b146103d0578063fbc402fc146103f6578063ffa1ad741461042257610116565b8063a307881514610207578063a85ef5791461022d578063ab73e316146102c3578063cad41357146102e957610116565b80634e71e0c8116100e95780634e71e0c8146101cb578063715018a6146101d35780638a9b4067146101db5780638da5cb5b146101e35780638f32d59b146101eb57610116565b806301930b6e1461011b5780631bce6ff3146101535780633ac39d4b1461017757806341b44392146101a5575b600080fd5b6101416004803603602081101561013157600080fd5b50356001600160a01b031661042a565b60408051918252519081900360200190f35b61015b610496565b604080516001600160a01b039092168252519081900360200190f35b6101a36004803603604081101561018d57600080fd5b506001600160a01b0381351690602001356104f2565b005b6101a3600480360360208110156101bb57600080fd5b50356001600160a01b031661055c565b6101a36106ee565b6101a36107b5565b61015b610849565b61015b610858565b6101f3610867565b604080519115158252519081900360200190f35b61015b6004803603602081101561021d57600080fd5b50356001600160a01b0316610878565b6101a3600480360360c081101561024357600080fd5b6001600160a01b0382358116926020810135909116916040820135919081019060808101606082013564010000000081111561027e57600080fd5b82018360208201111561029057600080fd5b803590602001918460018302840111640100000000831117156102b257600080fd5b9193509150803590602001356108e3565b61015b600480360360208110156102d957600080fd5b50356001600160a01b0316610a1d565b610141600480360360208110156102ff57600080fd5b50356001600160a01b0316610a7a565b6101416004803603602081101561032557600080fd5b50356001600160a01b0316610ae5565b61035b6004803603602081101561034b57600080fd5b50356001600160a01b0316610b50565b6040805160208082528351818301528351919283929083019185019080838360005b8381101561039557818101518382015260200161037d565b50505050905090810190601f1680156103c25780820380516001836020036101000a031916815260200191505b509250505060405180910390f35b6101a3600480360360208110156103e657600080fd5b50356001600160a01b0316610c48565b6101a36004803603604081101561040c57600080fd5b506001600160a01b038135169060200135610cb4565b61035b610e85565b6000610434610867565b6104765760408051600160e51b62461bcd028152602060048201526017602482015260008051602061139d833981519152604482015290519081900360640190fd5b506001600160a01b03166000908152600360208190526040909120015490565b60006104a0610867565b6104e25760408051600160e51b62461bcd028152602060048201526017602482015260008051602061139d833981519152604482015290519081900360640190fd5b6104ec6004610f10565b90505b90565b6104fa610867565b61053c5760408051600160e51b62461bcd028152602060048201526017602482015260008051602061139d833981519152604482015290519081900360640190fd5b6001600160a01b0390911660009081526003602081905260409091200155565b610564610867565b6105a65760408051600160e51b62461bcd028152602060048201526017602482015260008051602061139d833981519152604482015290519081900360640190fd5b6001600160a01b0381166000908152600360208190526040822060018101805482546001600160a01b0319168355908490556002820184905591810183905590916105f46004830182611285565b5050610601600483610f2f565b6005546001600160a01b031663a9059cbb61061a610858565b836040518363ffffffff1660e01b815260040180836001600160a01b03166001600160a01b0316815260200182815260200192505050602060405180830381600087803b15801561066a57600080fd5b505af115801561067e573d6000803e3d6000fd5b505050506040513d602081101561069457600080fd5b50516106ea5760408051600160e51b62461bcd02815260206004820152601460248201527f626f6e64207472616e73666572206661696c6564000000000000000000000000604482015290519081900360640190fd5b5050565b6000546001600160a01b031633146107505760408051600160e51b62461bcd02815260206004820152601f60248201527f63616c6c6572206973206e6f74207468652070656e64696e67206f776e657200604482015290519081900360640190fd5b600080546001546040516001600160a01b039283169392909116917f8be0079c531659141344cd1fd0a4f28419497f9722a3daafe3b4186f6b6457e091a360008054600180546001600160a01b03199081166001600160a01b03841617909155169055565b6107bd610867565b6107ff5760408051600160e51b62461bcd028152602060048201526017602482015260008051602061139d833981519152604482015290519081900360640190fd5b6001546040516000916001600160a01b0316907f8be0079c531659141344cd1fd0a4f28419497f9722a3daafe3b4186f6b6457e0908390a3600180546001600160a01b0319169055565b6005546001600160a01b031681565b6001546001600160a01b031690565b6001546001600160a01b0316331490565b6000610882610867565b6108c45760408051600160e51b62461bcd028152602060048201526017602482015260008051602061139d833981519152604482015290519081900360640190fd5b506001600160a01b039081166000908152600360205260409020541690565b6108eb610867565b61092d5760408051600160e51b62461bcd028152602060048201526017602482015260008051602061139d833981519152604482015290519081900360640190fd5b6109356112cc565b6040518060a00160405280886001600160a01b0316815260200187815260200184815260200183815260200186868080601f01602080910402602001604051908101604052809392919081815260200183838082843760009201829052509390945250506001600160a01b038b8116825260036020818152604093849020865181546001600160a01b0319169416939093178355858101516001840155928501516002830155606085015190820155608084015180519495508594919350610a04926004850192910190611304565b50905050610a13600489611011565b5050505050505050565b6000610a27610867565b610a695760408051600160e51b62461bcd028152602060048201526017602482015260008051602061139d833981519152604482015290519081900360640190fd5b610a74600483611024565b92915050565b6000610a84610867565b610ac65760408051600160e51b62461bcd028152602060048201526017602482015260008051602061139d833981519152604482015290519081900360640190fd5b506001600160a01b031660009081526003602052604090206001015490565b6000610aef610867565b610b315760408051600160e51b62461bcd028152602060048201526017602482015260008051602061139d833981519152604482015290519081900360640190fd5b506001600160a01b031660009081526003602052604090206002015490565b6060610b5a610867565b610b9c5760408051600160e51b62461bcd028152602060048201526017602482015260008051602061139d833981519152604482015290519081900360640190fd5b6001600160a01b03821660009081526003602090815260409182902060040180548351601f600260001961010060018616150201909316929092049182018490048402810184019094528084529091830182828015610c3c5780601f10610c1157610100808354040283529160200191610c3c565b820191906000526020600020905b815481529060010190602001808311610c1f57829003601f168201915b50505050509050919050565b610c50610867565b610c925760408051600160e51b62461bcd028152602060048201526017602482015260008051602061139d833981519152604482015290519081900360640190fd5b600080546001600160a01b0319166001600160a01b0392909216919091179055565b610cbc610867565b610cfe5760408051600160e51b62461bcd028152602060048201526017602482015260008051602061139d833981519152604482015290519081900360640190fd5b6001600160a01b038216600090815260036020526040902060010154808210610d715760408051600160e51b62461bcd02815260206004820152601260248201527f626f6e64206e6f74206465637265617365640000000000000000000000000000604482015290519081900360640190fd5b6001600160a01b0380841660009081526003602052604090206001018390556005541663a9059cbb610da1610858565b610db1848663ffffffff61109916565b6040518363ffffffff1660e01b815260040180836001600160a01b03166001600160a01b0316815260200182815260200192505050602060405180830381600087803b158015610e0057600080fd5b505af1158015610e14573d6000803e3d6000fd5b505050506040513d6020811015610e2a57600080fd5b5051610e805760408051600160e51b62461bcd02815260206004820152601460248201527f626f6e64207472616e73666572206661696c6564000000000000000000000000604482015290519081900360640190fd5b505050565b6002805460408051602060018416156101000260001901909316849004601f81018490048402820184019092528181529291830182828015610f085780601f10610edd57610100808354040283529160200191610f08565b820191906000526020600020905b815481529060010190602001808311610eeb57829003601f168201915b505050505081565b600080805260209190915260409020600101546001600160a01b031690565b610f3982826110f9565b610f7e5760408051600160e51b62461bcd02815260206004820152600b6024820152600160aa1b6a1b9bdd081a5b881b1a5cdd02604482015290519081900360640190fd5b6001600160a01b038116610f91576106ea565b6001600160a01b0390811660008181526020939093526040808420805460018083018054610100938490048816808a52868a209093018054919098166001600160a01b031991821681179098559688529387208054610100600160a81b031916919092021790559190935280546001600160a81b03191690558154169055565b6106ea8261101e84611118565b8361113a565b600061103083836110f9565b6110755760408051600160e51b62461bcd02815260206004820152600b6024820152600160aa1b6a1b9bdd081a5b881b1a5cdd02604482015290519081900360640190fd5b506001600160a01b0390811660009081526020929092526040909120600101541690565b6000828211156110f35760408051600160e51b62461bcd02815260206004820152601e60248201527f536166654d6174683a207375627472616374696f6e206f766572666c6f770000604482015290519081900360640190fd5b50900390565b6001600160a01b03166000908152602091909152604090205460ff1690565b60008080526020829052604090205461010090046001600160a01b0316919050565b61114483826110f9565b156111995760408051600160e51b62461bcd02815260206004820152600f60248201527f616c726561647920696e206c6973740000000000000000000000000000000000604482015290519081900360640190fd5b6111a383836110f9565b806111b557506001600160a01b038216155b6111fa5760408051600160e51b62461bcd02815260206004820152600b6024820152600160aa1b6a1b9bdd081a5b881b1a5cdd02604482015290519081900360640190fd5b6001600160a01b0391821660008181526020949094526040808520600190810180549486168088528388208054610100600160a81b03199081166101009788021782558185018054989099166001600160a01b031998891681179099558354909716821790925595875291862080549094169285029290921790925591909252815460ff1916179055565b50805460018160011615610100020316600290046000825580601f106112ab57506112c9565b601f0160209004906000526020600020908101906112c99190611382565b50565b6040518060a0016040528060006001600160a01b03168152602001600081526020016000815260200160008152602001606081525090565b828054600181600116156101000203166002900490600052602060002090601f016020900481019282601f1061134557805160ff1916838001178555611372565b82800160010185558215611372579182015b82811115611372578251825591602001919060010190611357565b5061137e929150611382565b5090565b6104ef91905b8082111561137e576000815560010161138856fe63616c6c6572206973206e6f7420746865206f776e6572000000000000000000a165627a7a72305820b02bc8a49b5e057a64ff74c79ba9139860c4d6b30f27acfe35085d38de919f390029",
  "source": "pragma solidity ^0.5.8;\n\nimport \"openzeppelin-solidity/contracts/math/SafeMath.sol\";\n\nimport \"../libraries/Claimable.sol\";\nimport \"../libraries/LinkedList.sol\";\nimport \"../RenToken/RenToken.sol\";\n\n/// @notice This contract stores data and funds for the DarknodeRegistry\n/// contract. The data / fund logic and storage have been separated to improve\n/// upgradability.\ncontract DarknodeRegistryStore is Claimable {\n    using SafeMath for uint256;\n\n    string public VERSION; // Passed in as a constructor parameter.\n\n    /// @notice Darknodes are stored in the darknode struct. The owner is the\n    /// address that registered the darknode, the bond is the amount of REN that\n    /// was transferred during registration, and the public key is the\n    /// encryption key that should be used when sending sensitive information to\n    /// the darknode.\n    struct Darknode {\n        // The owner of a Darknode is the address that called the register\n        // function. The owner is the only address that is allowed to\n        // deregister the Darknode, unless the Darknode is slashed for\n        // malicious behavior.\n        address payable owner;\n\n        // The bond is the amount of REN submitted as a bond by the Darknode.\n        // This amount is reduced when the Darknode is slashed for malicious\n        // behavior.\n        uint256 bond;\n\n        // The block number at which the Darknode is considered registered.\n        uint256 registeredAt;\n\n        // The block number at which the Darknode is considered deregistered.\n        uint256 deregisteredAt;\n\n        // The public key used by this Darknode for encrypting sensitive data\n        // off chain. It is assumed that the Darknode has access to the\n        // respective private key, and that there is an agreement on the format\n        // of the public key.\n        bytes publicKey;\n    }\n\n    /// Registry data.\n    mapping(address => Darknode) private darknodeRegistry;\n    LinkedList.List private darknodes;\n\n    // RenToken.\n    RenToken public ren;\n\n    /// @notice The contract constructor.\n    ///\n    /// @param _VERSION A string defining the contract version.\n    /// @param _ren The address of the RenToken contract.\n    constructor(\n        string memory _VERSION,\n        RenToken _ren\n    ) public {\n        VERSION = _VERSION;\n        ren = _ren;\n    }\n\n    /// @notice Instantiates a darknode and appends it to the darknodes\n    /// linked-list.\n    ///\n    /// @param _darknodeID The darknode's ID.\n    /// @param _darknodeOwner The darknode's owner's address\n    /// @param _bond The darknode's bond value\n    /// @param _publicKey The darknode's public key\n    /// @param _registeredAt The time stamp when the darknode is registered.\n    /// @param _deregisteredAt The time stamp when the darknode is deregistered.\n    function appendDarknode(\n        address _darknodeID,\n        address payable _darknodeOwner,\n        uint256 _bond,\n        bytes calldata _publicKey,\n        uint256 _registeredAt,\n        uint256 _deregisteredAt\n    ) external onlyOwner {\n        Darknode memory darknode = Darknode({\n            owner: _darknodeOwner,\n            bond: _bond,\n            publicKey: _publicKey,\n            registeredAt: _registeredAt,\n            deregisteredAt: _deregisteredAt\n        });\n        darknodeRegistry[_darknodeID] = darknode;\n        LinkedList.append(darknodes, _darknodeID);\n    }\n\n    /// @notice Returns the address of the first darknode in the store\n    function begin() external view onlyOwner returns(address) {\n        return LinkedList.begin(darknodes);\n    }\n\n    /// @notice Returns the address of the next darknode in the store after the\n    /// given address.\n    function next(address darknodeID) external view onlyOwner returns(address) {\n        return LinkedList.next(darknodes, darknodeID);\n    }\n\n    /// @notice Removes a darknode from the store and transfers its bond to the\n    /// owner of this contract.\n    function removeDarknode(address darknodeID) external onlyOwner {\n        uint256 bond = darknodeRegistry[darknodeID].bond;\n        delete darknodeRegistry[darknodeID];\n        LinkedList.remove(darknodes, darknodeID);\n        require(ren.transfer(owner(), bond), \"bond transfer failed\");\n    }\n\n    /// @notice Updates the bond of a darknode. The new bond must be smaller\n    /// than the previous bond of the darknode.\n    function updateDarknodeBond(address darknodeID, uint256 decreasedBond) external onlyOwner {\n        uint256 previousBond = darknodeRegistry[darknodeID].bond;\n        require(decreasedBond < previousBond, \"bond not decreased\");\n        darknodeRegistry[darknodeID].bond = decreasedBond;\n        require(ren.transfer(owner(), previousBond.sub(decreasedBond)), \"bond transfer failed\");\n    }\n\n    /// @notice Updates the deregistration timestamp of a darknode.\n    function updateDarknodeDeregisteredAt(address darknodeID, uint256 deregisteredAt) external onlyOwner {\n        darknodeRegistry[darknodeID].deregisteredAt = deregisteredAt;\n    }\n\n    /// @notice Returns the owner of a given darknode.\n    function darknodeOwner(address darknodeID) external view onlyOwner returns (address payable) {\n        return darknodeRegistry[darknodeID].owner;\n    }\n\n    /// @notice Returns the bond of a given darknode.\n    function darknodeBond(address darknodeID) external view onlyOwner returns (uint256) {\n        return darknodeRegistry[darknodeID].bond;\n    }\n\n    /// @notice Returns the registration time of a given darknode.\n    function darknodeRegisteredAt(address darknodeID) external view onlyOwner returns (uint256) {\n        return darknodeRegistry[darknodeID].registeredAt;\n    }\n\n    /// @notice Returns the deregistration time of a given darknode.\n    function darknodeDeregisteredAt(address darknodeID) external view onlyOwner returns (uint256) {\n        return darknodeRegistry[darknodeID].deregisteredAt;\n    }\n\n    /// @notice Returns the encryption public key of a given darknode.\n    function darknodePublicKey(address darknodeID) external view onlyOwner returns (bytes memory) {\n        return darknodeRegistry[darknodeID].publicKey;\n    }\n}",
  "sourcePath": "/home/noah/github/renproject/darknode-sol/contracts/DarknodeRegistry/DarknodeRegistryStore.sol",
  "compiler": {
    "name": "solc",
    "version": "0.5.8+commit.23d335f2.Emscripten.clang"
  },
  "schemaVersion": "3.0.11",
  "updatedAt": "2019-10-02T06:57:29.509Z",
  "devdoc": {
    "methods": {
      "appendDarknode(address,address,uint256,bytes,uint256,uint256)": {
        "params": {
          "_bond": "The darknode's bond value",
          "_darknodeID": "The darknode's ID.",
          "_darknodeOwner": "The darknode's owner's address",
          "_deregisteredAt": "The time stamp when the darknode is deregistered.",
          "_publicKey": "The darknode's public key",
          "_registeredAt": "The time stamp when the darknode is registered."
        }
      },
      "claimOwnership()": {
        "details": "Allows the pendingOwner address to finalize the transfer."
      },
      "constructor": {
        "params": {
          "_VERSION": "A string defining the contract version.",
          "_ren": "The address of the RenToken contract."
        }
      },
      "isOwner()": {
        "return": "true if `msg.sender` is the owner of the contract."
      },
      "owner()": {
        "return": "the address of the owner."
      },
      "renounceOwnership()": {
        "details": "Allows the current owner to relinquish control of the contract. It will not be possible to call the functions with the `onlyOwner` modifier anymore."
      },
      "transferOwnership(address)": {
        "details": "Allows the current owner to set the pendingOwner address.",
        "params": {
          "newOwner": "The address to transfer ownership to."
        }
      }
    }
  },
  "userdoc": {
    "methods": {
      "appendDarknode(address,address,uint256,bytes,uint256,uint256)": {
        "notice": "Instantiates a darknode and appends it to the darknodes linked-list. "
      },
      "begin()": {
        "notice": "Returns the address of the first darknode in the store"
      },
      "constructor": "The contract constructor. ",
      "darknodeBond(address)": {
        "notice": "Returns the bond of a given darknode."
      },
      "darknodeDeregisteredAt(address)": {
        "notice": "Returns the deregistration time of a given darknode."
      },
      "darknodeOwner(address)": {
        "notice": "Returns the owner of a given darknode."
      },
      "darknodePublicKey(address)": {
        "notice": "Returns the encryption public key of a given darknode."
      },
      "darknodeRegisteredAt(address)": {
        "notice": "Returns the registration time of a given darknode."
      },
      "next(address)": {
        "notice": "Returns the address of the next darknode in the store after the given address."
      },
      "removeDarknode(address)": {
        "notice": "Removes a darknode from the store and transfers its bond to the owner of this contract."
      },
      "renounceOwnership()": {
        "notice": "Renouncing ownership will leave the contract without an owner, thereby removing any functionality that is only available to the owner."
      },
      "updateDarknodeBond(address,uint256)": {
        "notice": "Updates the bond of a darknode. The new bond must be smaller than the previous bond of the darknode."
      },
      "updateDarknodeDeregisteredAt(address,uint256)": {
        "notice": "Updates the deregistration timestamp of a darknode."
      }
    },
    "notice": "This contract stores data and funds for the DarknodeRegistry contract. The data / fund logic and storage have been separated to improve upgradability."
  }
}