{
  "contractName": "Arc",
  "abi": [
    {
      "inputs": [
        {
          "name": "_rewardGatewayAddress",
          "type": "address"
        }
      ],
      "payable": false,
      "stateMutability": "nonpayable",
      "type": "constructor"
    },
    {
      "constant": false,
      "inputs": [
        {
          "name": "_secretLock",
          "type": "bytes32"
        },
        {
          "name": "_tokenAddress",
          "type": "address"
        },
        {
          "name": "_value",
          "type": "uint256"
        },
        {
          "name": "_feeRate",
          "type": "uint256"
        },
        {
          "name": "_validity",
          "type": "uint256"
        },
        {
          "name": "_receiver",
          "type": "address"
        },
        {
          "name": "_order",
          "type": "bytes"
        }
      ],
      "name": "initiate",
      "outputs": [],
      "payable": true,
      "stateMutability": "payable",
      "type": "function"
    },
    {
      "constant": false,
      "inputs": [
        {
          "name": "_orderID",
          "type": "bytes32"
        },
        {
          "name": "_secret",
          "type": "bytes32"
        }
      ],
      "name": "redeem",
      "outputs": [],
      "payable": false,
      "stateMutability": "nonpayable",
      "type": "function"
    },
    {
      "constant": true,
      "inputs": [
        {
          "name": "_orderID",
          "type": "bytes32"
        }
      ],
      "name": "audit",
      "outputs": [
        {
          "name": "",
          "type": "bytes32"
        },
        {
          "name": "",
          "type": "address"
        },
        {
          "name": "",
          "type": "address"
        },
        {
          "name": "",
          "type": "uint256"
        },
        {
          "name": "",
          "type": "uint256"
        }
      ],
      "payable": false,
      "stateMutability": "view",
      "type": "function"
    },
    {
      "constant": true,
      "inputs": [
        {
          "name": "_orderID",
          "type": "bytes32"
        }
      ],
      "name": "auditSecret",
      "outputs": [
        {
          "name": "",
          "type": "bytes32"
        }
      ],
      "payable": false,
      "stateMutability": "view",
      "type": "function"
    },
    {
      "constant": false,
      "inputs": [
        {
          "name": "_orderID",
          "type": "bytes32"
        },
        {
          "name": "_tokenAddress",
          "type": "address"
        },
        {
          "name": "_value",
          "type": "uint256"
        }
      ],
      "name": "refund",
      "outputs": [],
      "payable": false,
      "stateMutability": "nonpayable",
      "type": "function"
    }
  ],
  "bytecode": "0x608060405234801561001057600080fd5b506040516020806117b083398101806040528101908080519060200190929190505050806000806101000a81548173ffffffffffffffffffffffffffffffffffffffff021916908373ffffffffffffffffffffffffffffffffffffffff1602179055505061172d806100836000396000f30060806040526004361061006d576000357c0100000000000000000000000000000000000000000000000000000000900463ffffffff1680631c7be968146100725780634020ed141461013a578063976d00f414610195578063b31597ad146101e2578063c140635b14610221575b600080fd5b6101386004803603810190808035600019169060200190929190803573ffffffffffffffffffffffffffffffffffffffff169060200190929190803590602001909291908035906020019092919080359060200190929190803573ffffffffffffffffffffffffffffffffffffffff169060200190929190803590602001908201803590602001908080601f01602080910402602001604051908101604052809392919081815260200183838082843782019150505050505091929192905050506102e2565b005b34801561014657600080fd5b506101936004803603810190808035600019169060200190929190803573ffffffffffffffffffffffffffffffffffffffff1690602001909291908035906020019092919050505061074d565b005b3480156101a157600080fd5b506101c46004803603810190808035600019169060200190929190505050610892565b60405180826000191660001916815260200191505060405180910390f35b3480156101ee57600080fd5b5061021f6004803603810190808035600019169060200190929190803560001916906020019092919050505061090a565b005b34801561022d57600080fd5b506102506004803603810190808035600019169060200190929190505050610b7b565b6040518086600019166000191681526020018573ffffffffffffffffffffffffffffffffffffffff1673ffffffffffffffffffffffffffffffffffffffff1681526020018473ffffffffffffffffffffffffffffffffffffffff1673ffffffffffffffffffffffffffffffffffffffff1681526020018381526020018281526020019550505050505060405180910390f35b6000816040518082805190602001908083835b60208310151561031a57805182526020820191506020810190506020830392506102f5565b6001836020036101000a038019825116818451168082178552505050505050905001915050604051809103902090506000600381111561035657fe5b600160008360001916600019168152602001908152602001600020600c0160009054906101000a900460ff16600381111561038d57fe5b14151561039957600080fd5b6103a38787610cc1565b15156103ae57600080fd5b8660016000836000191660001916815260200190815260200160002060030160006101000a81548173ffffffffffffffffffffffffffffffffffffffff021916908373ffffffffffffffffffffffffffffffffffffffff16021790555081600160008360001916600019168152602001908152602001600020600601908051906020019061043d92919061165c565b5087600160008360001916600019168152602001908152602001600020600a01816000191690555061046f8686610f4f565b60016000836000191660001916815260200190815260200160002060050181905550600160008260001916600019168152602001908152602001600020600501548603600160008360001916600019168152602001908152602001600020600401819055503360016000836000191660001916815260200190815260200160002060010160006101000a81548173ffffffffffffffffffffffffffffffffffffffff021916908373ffffffffffffffffffffffffffffffffffffffff1602179055508260016000836000191660001916815260200190815260200160002060020160006101000a81548173ffffffffffffffffffffffffffffffffffffffff021916908373ffffffffffffffffffffffffffffffffffffffff16021790555083600160008360001916600019168152602001908152602001600020600b018190555060018060008360001916600019168152602001908152602001600020600c0160006101000a81548160ff021916908360038111156105eb57fe5b02179055506000809054906101000a900473ffffffffffffffffffffffffffffffffffffffff1673ffffffffffffffffffffffffffffffffffffffff166329228ba7886040518263ffffffff167c0100000000000000000000000000000000000000000000000000000000028152600401808273ffffffffffffffffffffffffffffffffffffffff1673ffffffffffffffffffffffffffffffffffffffff168152602001915050602060405180830381600087803b1580156106ac57600080fd5b505af11580156106c0573d6000803e3d6000fd5b505050506040513d60208110156106d657600080fd5b810190808051906020019092919050505060016000836000191660001916815260200190815260200160002060080160006101000a81548173ffffffffffffffffffffffffffffffffffffffff021916908373ffffffffffffffffffffffffffffffffffffffff1602179055505050505050505050565b6001600381111561075a57fe5b600160008560001916600019168152602001908152602001600020600c0160009054906101000a900460ff16600381111561079157fe5b14151561079d57600080fd5b600160008460001916600019168152602001908152602001600020600b015442101515156107ca57600080fd5b60016000846000191660001916815260200190815260200160002060010160009054906101000a900473ffffffffffffffffffffffffffffffffffffffff1673ffffffffffffffffffffffffffffffffffffffff163373ffffffffffffffffffffffffffffffffffffffff1614151561084257600080fd5b6003600160008560001916600019168152602001908152602001600020600c0160006101000a81548160ff0219169083600381111561087d57fe5b021790555061088d828233610f9b565b505050565b6000600260038111156108a157fe5b600160008460001916600019168152602001908152602001600020600c0160009054906101000a900460ff1660038111156108d857fe5b1415156108e457600080fd5b600160008360001916600019168152602001908152602001600020600901549050919050565b6001600381111561091757fe5b600160008460001916600019168152602001908152602001600020600c0160009054906101000a900460ff16600381111561094e57fe5b14151561095a57600080fd5b3373ffffffffffffffffffffffffffffffffffffffff1660016000846000191660001916815260200190815260200160002060020160009054906101000a900473ffffffffffffffffffffffffffffffffffffffff1673ffffffffffffffffffffffffffffffffffffffff161415156109d257600080fd5b6002816040518082600019166000191681526020019150506020604051808303816000865af1158015610a09573d6000803e3d6000fd5b5050506040513d6020811015610a1e57600080fd5b810190808051906020019092919050505060001916600160008460001916600019168152602001908152602001600020600a015460001916141515610a6257600080fd5b8060016000846000191660001916815260200190815260200160002060090181600019169055506002600160008460001916600019168152602001908152602001600020600c0160006101000a81548160ff02191690836003811115610ac457fe5b0217905550610b6e60016000846000191660001916815260200190815260200160002060030160009054906101000a900473ffffffffffffffffffffffffffffffffffffffff166001600085600019166000191681526020019081526020016000206004015460016000866000191660001916815260200190815260200160002060020160009054906101000a900473ffffffffffffffffffffffffffffffffffffffff16610f9b565b610b778261111a565b5050565b600080600080600060016003811115610b9057fe5b600160008860001916600019168152602001908152602001600020600c0160009054906101000a900460ff166003811115610bc757fe5b141515610bd357600080fd5b600160008760001916600019168152602001908152602001600020600a015460016000886000191660001916815260200190815260200160002060030160009054906101000a900473ffffffffffffffffffffffffffffffffffffffff1660016000896000191660001916815260200190815260200160002060020160009054906101000a900473ffffffffffffffffffffffffffffffffffffffff16600160008a6000191660001916815260200190815260200160002060040154600160008b60001916600019168152602001908152602001600020600b01549450945094509450945091939590929450565b60008073eeeeeeeeeeeeeeeeeeeeeeeeeeeeeeeeeeeeeeee73ffffffffffffffffffffffffffffffffffffffff168473ffffffffffffffffffffffffffffffffffffffff161415610d16578234149150610f48565b839050828173ffffffffffffffffffffffffffffffffffffffff1663dd62ed3e33306040518363ffffffff167c0100000000000000000000000000000000000000000000000000000000028152600401808373ffffffffffffffffffffffffffffffffffffffff1673ffffffffffffffffffffffffffffffffffffffff1681526020018273ffffffffffffffffffffffffffffffffffffffff1673ffffffffffffffffffffffffffffffffffffffff16815260200192505050602060405180830381600087803b158015610de957600080fd5b505af1158015610dfd573d6000803e3d6000fd5b505050506040513d6020811015610e1357600080fd5b81019080805190602001909291905050501015610e335760009150610f48565b8073ffffffffffffffffffffffffffffffffffffffff166323b872dd3330866040518463ffffffff167c0100000000000000000000000000000000000000000000000000000000028152600401808473ffffffffffffffffffffffffffffffffffffffff1673ffffffffffffffffffffffffffffffffffffffff1681526020018373ffffffffffffffffffffffffffffffffffffffff1673ffffffffffffffffffffffffffffffffffffffff1681526020018281526020019350505050602060405180830381600087803b158015610f0a57600080fd5b505af1158015610f1e573d6000803e3d6000fd5b505050506040513d6020811015610f3457600080fd5b810190808051906020019092919050505091505b5092915050565b6000826103e88085811515610f6057fe5b04021415610f7f576103e8838302811515610f7757fe5b049050610f95565b60016103e8848402811515610f9057fe5b040190505b92915050565b600073eeeeeeeeeeeeeeeeeeeeeeeeeeeeeeeeeeeeeeee73ffffffffffffffffffffffffffffffffffffffff168473ffffffffffffffffffffffffffffffffffffffff161415611031578173ffffffffffffffffffffffffffffffffffffffff166108fc849081150290604051600060405180830381858888f1935050505015801561102b573d6000803e3d6000fd5b50611114565b8390508073ffffffffffffffffffffffffffffffffffffffff1663a9059cbb83856040518363ffffffff167c0100000000000000000000000000000000000000000000000000000000028152600401808373ffffffffffffffffffffffffffffffffffffffff1673ffffffffffffffffffffffffffffffffffffffff16815260200182815260200192505050602060405180830381600087803b1580156110d757600080fd5b505af11580156110eb573d6000803e3d6000fd5b505050506040513d602081101561110157600080fd5b8101908080519060200190929190505050505b50505050565b600073eeeeeeeeeeeeeeeeeeeeeeeeeeeeeeeeeeeeeeee73ffffffffffffffffffffffffffffffffffffffff1660016000846000191660001916815260200190815260200160002060030160009054906101000a900473ffffffffffffffffffffffffffffffffffffffff1673ffffffffffffffffffffffffffffffffffffffff161415156114ae5760016000836000191660001916815260200190815260200160002060030160009054906101000a900473ffffffffffffffffffffffffffffffffffffffff1690508073ffffffffffffffffffffffffffffffffffffffff1663095ea7b360016000856000191660001916815260200190815260200160002060080160009054906101000a900473ffffffffffffffffffffffffffffffffffffffff16600160008660001916600019168152602001908152602001600020600501546040518363ffffffff167c0100000000000000000000000000000000000000000000000000000000028152600401808373ffffffffffffffffffffffffffffffffffffffff1673ffffffffffffffffffffffffffffffffffffffff16815260200182815260200192505050602060405180830381600087803b1580156112e357600080fd5b505af11580156112f7573d6000803e3d6000fd5b505050506040513d602081101561130d57600080fd5b81019080805190602001909291905050505060016000836000191660001916815260200190815260200160002060080160009054906101000a900473ffffffffffffffffffffffffffffffffffffffff1673ffffffffffffffffffffffffffffffffffffffff166393405540600160008560001916600019168152602001908152602001600020600601600160008660001916600019168152602001908152602001600020600501546040518363ffffffff167c010000000000000000000000000000000000000000000000000000000002815260040180806020018381526020018281038252848181546001816001161561010002031660029004815260200191508054600181600116156101000203166002900480156114705780601f1061144557610100808354040283529160200191611470565b820191906000526020600020905b81548152906001019060200180831161145357829003601f168201915b50509350505050600060405180830381600087803b15801561149157600080fd5b505af11580156114a5573d6000803e3d6000fd5b50505050611658565b60016000836000191660001916815260200190815260200160002060080160009054906101000a900473ffffffffffffffffffffffffffffffffffffffff1673ffffffffffffffffffffffffffffffffffffffff16639340554060016000856000191660001916815260200190815260200160002060050154600160008660001916600019168152602001908152602001600020600601600160008760001916600019168152602001908152602001600020600501546040518463ffffffff167c0100000000000000000000000000000000000000000000000000000000028152600401808060200183815260200182810382528481815460018160011615610100020316600290048152602001915080546001816001161561010002031660029004801561161e5780601f106115f35761010080835404028352916020019161161e565b820191906000526020600020905b81548152906001019060200180831161160157829003601f168201915b505093505050506000604051808303818588803b15801561163e57600080fd5b505af1158015611652573d6000803e3d6000fd5b50505050505b5050565b828054600181600116156101000203166002900490600052602060002090601f016020900481019282601f1061169d57805160ff19168380011785556116cb565b828001600101855582156116cb579182015b828111156116ca5782518255916020019190600101906116af565b5b5090506116d891906116dc565b5090565b6116fe91905b808211156116fa5760008160009055506001016116e2565b5090565b905600a165627a7a72305820fa49b6b48657e827ba73c96111150fc5dab6ccd9ec83207529a7860e7ac9bba30029",
  "source": "pragma solidity ^0.4.24;\n\nimport \"./RewardGateway.sol\";\nimport \"./RewardVault.sol\";\n\ncontract Arc {\n\n    enum Status {\n      pending, initiated, redeemed, refunded\n    }\n\n    struct Swap {\n        address caller;\n        address sender;\n        address receiver;\n        address tokenAddress;\n        uint256 value;\n\n        uint256 fee;\n        bytes order;\n        address vaultAddress;\n        RewardVault vault;\n\n        bytes32 secret;\n        bytes32 secretLock;\n\n        uint256 expiry;\n        Status status;\n    }\n\n    // For using a similar interface for ether and erc20 tokens. We are using a constant for ethereum address.\n    // The capitalization helps solidity to validate the address (Checksum).\n    address constant internal ETHEREUM = address(0xEeeeeEeeeEeEeeEeEeEeeEEEeeeeEeeeeeeeEEeE);\n\n    // The reward gateway object, contains the reward vault addresses for all token address.\n    RewardGateway private gateway;\n\n    // Map of all the atomicswaps.\n    // An atomic swap object, this contains all the data relevant to this atomic swap.\n    mapping (bytes32=>Swap) swaps;\n\n    /**\n    *   @notice constructor.\n    */\n    constructor(address _rewardGatewayAddress) public {\n        gateway = RewardGateway(_rewardGatewayAddress);\n    }\n\n    /**\n    *   @notice Initiate an atomicswap.\n    */\n    function initiate(bytes32 _secretLock, address _tokenAddress, uint256 _value, uint256 _feeRate, uint256 _validity, address _receiver, bytes _order) public payable {\n        bytes32 orderID = keccak256(_order);\n        require(swaps[orderID].status == Status.pending);\n        require(validateDeposit(_tokenAddress, _value));\n        swaps[orderID].tokenAddress = _tokenAddress;\n        swaps[orderID].order = _order;\n        swaps[orderID].secretLock = _secretLock;\n        swaps[orderID].fee = calculateFee(_value, _feeRate);\n        swaps[orderID].value = _value - swaps[orderID].fee;\n        swaps[orderID].sender = msg.sender;\n        swaps[orderID].receiver = _receiver;\n        swaps[orderID].expiry = _validity;\n        swaps[orderID].status = Status.initiated;\n        swaps[orderID].vault = RewardVault(gateway.rewardVaults(_tokenAddress));\n    }\n\n    /**\n    *   @notice Redeems the atomic swap using the secret.\n    */\n    function redeem(bytes32 _orderID, bytes32 _secret) public {\n        require(swaps[_orderID].status == Status.initiated);\n        require(swaps[_orderID].receiver == msg.sender);\n        require(swaps[_orderID].secretLock == sha256(_secret));\n        swaps[_orderID].secret = _secret;\n        swaps[_orderID].status = Status.redeemed;\n        withdraw(swaps[_orderID].tokenAddress, swaps[_orderID].value, swaps[_orderID].receiver);\n        payFee(_orderID);\n    }\n\n    /**\n    *  @notice Audits the contract, returns the relevant values of the atomic swap.\n    */\n    function audit(bytes32 _orderID) public view returns (bytes32, address, address, uint256, uint256) {\n        require(swaps[_orderID].status == Status.initiated);\n        return (swaps[_orderID].secretLock, swaps[_orderID].tokenAddress, swaps[_orderID].receiver, swaps[_orderID].value, swaps[_orderID].expiry);\n    }\n\n    /**\n    * @notice Audits the the secret used to redeem the swap.\n    */\n    function auditSecret(bytes32 _orderID) public view returns (bytes32) {\n        require(swaps[_orderID].status == Status.redeemed);\n        return swaps[_orderID].secret;\n    }\n\n    /**\n    * @notice Refunds the locked up funds to the current swap initiator, \n    *       after the expiry period.\n    */\n    function refund(bytes32 _orderID, address _tokenAddress, uint256 _value) public {\n        require(swaps[_orderID].status == Status.initiated);\n        require(block.timestamp >= swaps[_orderID].expiry);\n        require(msg.sender == swaps[_orderID].sender);\n        swaps[_orderID].status = Status.refunded;\n        withdraw(_tokenAddress, _value, msg.sender);\n    }\n\n    /**\n    * @notice Withdraws ether/erc20 tokens from the arc contract.\n    */\n    function withdraw(address _tokenAddress, uint256 _value, address _receiver) internal {\n        if (_tokenAddress == ETHEREUM) {\n            _receiver.transfer(_value);\n        } else {\n            ERC20 t = ERC20(_tokenAddress);\n            t.transfer(_receiver, _value);\n        }\n    }\n\n    /**\n    * @notice Pays fee to the Reward Vault Contract.\n    */\n    function payFee(bytes32 _orderID) internal {\n        if (swaps[_orderID].tokenAddress != ETHEREUM) {\n            ERC20 t = ERC20(swaps[_orderID].tokenAddress);\n            t.approve(address(swaps[_orderID].vault), swaps[_orderID].fee);\n            swaps[_orderID].vault.deposit(swaps[_orderID].order, swaps[_orderID].fee);\n            return;\n        } \n        swaps[_orderID].vault.deposit.value(swaps[_orderID].fee)(swaps[_orderID].order, swaps[_orderID].fee);\n    }\n\n    /**\n    * @notice validates the deposit.\n    */\n    function validateDeposit(address _tokenAddress, uint256 _value) internal returns (bool) {\n        if (_tokenAddress == ETHEREUM) {\n            return(msg.value == _value);\n        }\n        ERC20 t = ERC20(_tokenAddress);\n        if (t.allowance(msg.sender, address(this)) < _value) {\n            return false;\n        }\n        return (t.transferFrom(msg.sender, address(this), _value));\n    }   \n\n    /** \n    * @notice Calculates fee, for a given value and fee rate.\n    */\n    function calculateFee(uint256 _value, uint256 _rate) internal pure returns (uint256) {\n        // solidity gets the floor of the result of a division, \n        // and we want the fee to be the ceiling so we add 1\n        \n        // Here _value is the amount of tokens the trader is willing to trade,\n        // not the amount transfered to the contract. \n        // This equation is ubtained from solving the equations.\n        \n        /** \n        \n        amount + fee = value\n        fee = rate * amount (where rate is percentage)\n        fee = (rate * amount)/1000 (as solidity only supports uint division, \n                                        and we want rate to be in the range 0.X%)\n        */\n        if ((_value/1000) * 1000 == _value) { // if the value is divisable by 1000, return the exact fee \n            return ((_rate * _value)/1000);\n        }\n        return ((_rate * _value)/1000 + 1); // otherwise return the ceiling.\n    }\n}",
  "sourcePath": "/home/noah/github/republicprotocol/republic-sol/contracts/Arc.sol",
  "compiler": {
    "name": "solc",
    "version": "0.4.24+commit.e67f0147.Emscripten.clang"
  },
  "schemaVersion": "2.0.0",
  "updatedAt": "2018-06-12T07:17:42.553Z"
}