{
  "contractName": "DarknodeRegistry",
  "abi": [
    {
      "constant": true,
      "inputs": [],
      "name": "numDarknodesNextEpoch",
      "outputs": [
        {
          "name": "",
          "type": "uint256"
        }
      ],
      "payable": false,
      "stateMutability": "view",
      "type": "function"
    },
    {
      "constant": true,
      "inputs": [],
      "name": "numDarknodes",
      "outputs": [
        {
          "name": "",
          "type": "uint256"
        }
      ],
      "payable": false,
      "stateMutability": "view",
      "type": "function"
    },
    {
      "constant": true,
      "inputs": [],
      "name": "minimumEpochInterval",
      "outputs": [
        {
          "name": "",
          "type": "uint256"
        }
      ],
      "payable": false,
      "stateMutability": "view",
      "type": "function"
    },
    {
      "constant": true,
      "inputs": [],
      "name": "currentEpoch",
      "outputs": [
        {
          "name": "epochhash",
          "type": "uint256"
        },
        {
          "name": "timestamp",
          "type": "uint256"
        }
      ],
      "payable": false,
      "stateMutability": "view",
      "type": "function"
    },
    {
      "constant": true,
      "inputs": [],
      "name": "minimumBond",
      "outputs": [
        {
          "name": "",
          "type": "uint256"
        }
      ],
      "payable": false,
      "stateMutability": "view",
      "type": "function"
    },
    {
      "constant": true,
      "inputs": [],
      "name": "minimumDarkPoolSize",
      "outputs": [
        {
          "name": "",
          "type": "uint256"
        }
      ],
      "payable": false,
      "stateMutability": "view",
      "type": "function"
    },
    {
      "inputs": [
        {
          "name": "_token",
          "type": "address"
        },
        {
          "name": "_minimumBond",
          "type": "uint256"
        },
        {
          "name": "_minimumDarkPoolSize",
          "type": "uint256"
        },
        {
          "name": "_minimumEpochInterval",
          "type": "uint256"
        }
      ],
      "payable": false,
      "stateMutability": "nonpayable",
      "type": "constructor"
    },
    {
      "anonymous": false,
      "inputs": [
        {
          "indexed": false,
          "name": "_darknodeID",
          "type": "bytes20"
        },
        {
          "indexed": false,
          "name": "_bond",
          "type": "uint256"
        }
      ],
      "name": "DarknodeRegistered",
      "type": "event"
    },
    {
      "anonymous": false,
      "inputs": [
        {
          "indexed": false,
          "name": "_darknodeID",
          "type": "bytes20"
        }
      ],
      "name": "DarknodeDeregistered",
      "type": "event"
    },
    {
      "anonymous": false,
      "inputs": [
        {
          "indexed": false,
          "name": "_owner",
          "type": "address"
        },
        {
          "indexed": false,
          "name": "_amount",
          "type": "uint256"
        }
      ],
      "name": "OwnerRefunded",
      "type": "event"
    },
    {
      "anonymous": false,
      "inputs": [],
      "name": "NewEpoch",
      "type": "event"
    },
    {
      "constant": false,
      "inputs": [],
      "name": "epoch",
      "outputs": [],
      "payable": false,
      "stateMutability": "nonpayable",
      "type": "function"
    },
    {
      "constant": false,
      "inputs": [
        {
          "name": "_darknodeID",
          "type": "bytes20"
        },
        {
          "name": "_publicKey",
          "type": "bytes"
        },
        {
          "name": "_bond",
          "type": "uint256"
        }
      ],
      "name": "register",
      "outputs": [],
      "payable": false,
      "stateMutability": "nonpayable",
      "type": "function"
    },
    {
      "constant": false,
      "inputs": [
        {
          "name": "_darknodeID",
          "type": "bytes20"
        }
      ],
      "name": "deregister",
      "outputs": [],
      "payable": false,
      "stateMutability": "nonpayable",
      "type": "function"
    },
    {
      "constant": false,
      "inputs": [
        {
          "name": "_darknodeID",
          "type": "bytes20"
        }
      ],
      "name": "refund",
      "outputs": [],
      "payable": false,
      "stateMutability": "nonpayable",
      "type": "function"
    },
    {
      "constant": true,
      "inputs": [
        {
          "name": "_darknodeID",
          "type": "bytes20"
        }
      ],
      "name": "getOwner",
      "outputs": [
        {
          "name": "",
          "type": "address"
        }
      ],
      "payable": false,
      "stateMutability": "view",
      "type": "function"
    },
    {
      "constant": true,
      "inputs": [
        {
          "name": "_darknodeID",
          "type": "bytes20"
        }
      ],
      "name": "getBond",
      "outputs": [
        {
          "name": "",
          "type": "uint256"
        }
      ],
      "payable": false,
      "stateMutability": "view",
      "type": "function"
    },
    {
      "constant": true,
      "inputs": [
        {
          "name": "_darknodeID",
          "type": "bytes20"
        }
      ],
      "name": "getPublicKey",
      "outputs": [
        {
          "name": "",
          "type": "bytes"
        }
      ],
      "payable": false,
      "stateMutability": "view",
      "type": "function"
    },
    {
      "constant": true,
      "inputs": [],
      "name": "getDarknodes",
      "outputs": [
        {
          "name": "",
          "type": "bytes20[]"
        }
      ],
      "payable": false,
      "stateMutability": "view",
      "type": "function"
    },
    {
      "constant": true,
      "inputs": [
        {
          "name": "_darknodeID",
          "type": "bytes20"
        }
      ],
      "name": "isUnregistered",
      "outputs": [
        {
          "name": "",
          "type": "bool"
        }
      ],
      "payable": false,
      "stateMutability": "view",
      "type": "function"
    },
    {
      "constant": true,
      "inputs": [
        {
          "name": "_darknodeID",
          "type": "bytes20"
        }
      ],
      "name": "isRegistered",
      "outputs": [
        {
          "name": "",
          "type": "bool"
        }
      ],
      "payable": false,
      "stateMutability": "view",
      "type": "function"
    },
    {
      "constant": true,
      "inputs": [
        {
          "name": "_darknodeID",
          "type": "bytes20"
        }
      ],
      "name": "canDeregister",
      "outputs": [
        {
          "name": "",
          "type": "bool"
        }
      ],
      "payable": false,
      "stateMutability": "view",
      "type": "function"
    },
    {
      "constant": true,
      "inputs": [
        {
          "name": "_darknodeID",
          "type": "bytes20"
        }
      ],
      "name": "isDeregistered",
      "outputs": [
        {
          "name": "",
          "type": "bool"
        }
      ],
      "payable": false,
      "stateMutability": "view",
      "type": "function"
    }
  ],
  "bytecode": "0x608060405234801561001057600080fd5b50604051608080611d1b83398101806040528101908080519060200190929190805190602001909291908051906020019092919080519060200190929190505050836000806101000a81548173ffffffffffffffffffffffffffffffffffffffff021916908373ffffffffffffffffffffffffffffffffffffffff1602179055508260058190555081600681905550806007819055506040805190810160405280600143034060019004815260200142815250600860008201518160000155602082015181600101559050506000600381905550600060048190555050505050611c1c806100ff6000396000f3006080604052600436106100fc576000357c0100000000000000000000000000000000000000000000000000000000900463ffffffff1680630847e9fa146101015780631460e6031461012c578063171f6ea81461015757806327c4b327146101ab57806332ccd52f146101ff578063375a8be3146102b45780634f5550fc1461034057806355cacda5146103945780635a8f9b81146103bf57806368f209eb146103fb578063766718081461044b578063900cf0cf1461047d578063aa7517e114610494578063b31575d5146104bf578063c8a8349b146104ea578063d3841c2514610556578063e08b4c8a146105aa578063e487eb58146105e6575b600080fd5b34801561010d57600080fd5b50610116610662565b6040518082815260200191505060405180910390f35b34801561013857600080fd5b50610141610668565b6040518082815260200191505060405180910390f35b34801561016357600080fd5b5061019160048036038101908080356bffffffffffffffffffffffff1916906020019092919050505061066e565b604051808215151515815260200191505060405180910390f35b3480156101b757600080fd5b506101e560048036038101908080356bffffffffffffffffffffffff191690602001909291905050506106f4565b604051808215151515815260200191505060405180910390f35b34801561020b57600080fd5b5061023960048036038101908080356bffffffffffffffffffffffff19169060200190929190505050610746565b6040518080602001828103825283818151815260200191508051906020019080838360005b8381101561027957808201518184015260208101905061025e565b50505050905090810190601f1680156102a65780820380516001836020036101000a031916815260200191505b509250505060405180910390f35b3480156102c057600080fd5b5061033e60048036038101908080356bffffffffffffffffffffffff19169060200190929190803590602001908201803590602001908080601f01602080910402602001604051908101604052809392919081815260200183838082843782019150505050505091929192908035906020019092919050505061081c565b005b34801561034c57600080fd5b5061037a60048036038101908080356bffffffffffffffffffffffff19169060200190929190505050610c37565b604051808215151515815260200191505060405180910390f35b3480156103a057600080fd5b506103a9610ccf565b6040518082815260200191505060405180910390f35b3480156103cb57600080fd5b506103f960048036038101908080356bffffffffffffffffffffffff19169060200190929190505050610cd5565b005b34801561040757600080fd5b5061043560048036038101908080356bffffffffffffffffffffffff1916906020019092919050505061104f565b6040518082815260200191505060405180910390f35b34801561045757600080fd5b5061046061108d565b604051808381526020018281526020019250505060405180910390f35b34801561048957600080fd5b5061049261109f565b005b3480156104a057600080fd5b506104a9611133565b6040518082815260200191505060405180910390f35b3480156104cb57600080fd5b506104d4611139565b6040518082815260200191505060405180910390f35b3480156104f657600080fd5b506104ff61113f565b6040518080602001828103825283818151815260200191508051906020019060200280838360005b83811015610542578082015181840152602081019050610527565b505050509050019250505060405180910390f35b34801561056257600080fd5b5061059060048036038101908080356bffffffffffffffffffffffff19169060200190929190505050611215565b604051808215151515815260200191505060405180910390f35b3480156105b657600080fd5b506105e460048036038101908080356bffffffffffffffffffffffff19169060200190929190505050611255565b005b3480156105f257600080fd5b5061062060048036038101908080356bffffffffffffffffffffffff191690602001909291905050506113a8565b604051808273ffffffffffffffffffffffffffffffffffffffff1673ffffffffffffffffffffffffffffffffffffffff16815260200191505060405180910390f35b60045481565b60035481565b60008060016000846bffffffffffffffffffffffff19166bffffffffffffffffffffffff1916815260200190815260200160002060030154141580156106ed575060086001015460016000846bffffffffffffffffffffffff19166bffffffffffffffffffffffff191681526020019081526020016000206003015411155b9050919050565b60006106ff82610c37565b801561073f5750600060016000846bffffffffffffffffffffffff19166bffffffffffffffffffffffff1916815260200190815260200160002060030154145b9050919050565b606060016000836bffffffffffffffffffffffff19166bffffffffffffffffffffffff191681526020019081526020016000206004018054600181600116156101000203166002900480601f0160208091040260200160405190810160405280929190818152602001828054600181600116156101000203166002900480156108105780601f106107e557610100808354040283529160200191610810565b820191906000526020600020905b8154815290600101906020018083116107f357829003601f168201915b50505050509050919050565b8261082681611215565b151561083157600080fd5b600554821015151561084257600080fd5b816000809054906101000a900473ffffffffffffffffffffffffffffffffffffffff1673ffffffffffffffffffffffffffffffffffffffff1663dd62ed3e33306040518363ffffffff167c0100000000000000000000000000000000000000000000000000000000028152600401808373ffffffffffffffffffffffffffffffffffffffff1673ffffffffffffffffffffffffffffffffffffffff1681526020018273ffffffffffffffffffffffffffffffffffffffff1673ffffffffffffffffffffffffffffffffffffffff16815260200192505050602060405180830381600087803b15801561093357600080fd5b505af1158015610947573d6000803e3d6000fd5b505050506040513d602081101561095d57600080fd5b81019080805190602001909291905050501015151561097b57600080fd5b6000809054906101000a900473ffffffffffffffffffffffffffffffffffffffff1673ffffffffffffffffffffffffffffffffffffffff166323b872dd3330856040518463ffffffff167c0100000000000000000000000000000000000000000000000000000000028152600401808473ffffffffffffffffffffffffffffffffffffffff1673ffffffffffffffffffffffffffffffffffffffff1681526020018373ffffffffffffffffffffffffffffffffffffffff1673ffffffffffffffffffffffffffffffffffffffff1681526020018281526020019350505050602060405180830381600087803b158015610a7357600080fd5b505af1158015610a87573d6000803e3d6000fd5b505050506040513d6020811015610a9d57600080fd5b81019080805190602001909291905050501515610ab957600080fd5b60a0604051908101604052803373ffffffffffffffffffffffffffffffffffffffff168152602001838152602001600754600860010154018152602001600081526020018481525060016000866bffffffffffffffffffffffff19166bffffffffffffffffffffffff1916815260200190815260200160002060008201518160000160006101000a81548173ffffffffffffffffffffffffffffffffffffffff021916908373ffffffffffffffffffffffffffffffffffffffff1602179055506020820151816001015560408201518160020155606082015181600301556080820151816004019080519060200190610bb3929190611b4b565b50905050610bc2600285611406565b6004600081548092919060010191905055507f964f77c16f29e1a7c974315f1fdc990a01866a66c8a3db959112bdfa14cb2d9d848360405180836bffffffffffffffffffffffff19166bffffffffffffffffffffffff191681526020018281526020019250505060405180910390a150505050565b60008060016000846bffffffffffffffffffffffff19166bffffffffffffffffffffffff191681526020019081526020016000206002015414158015610cb6575060086001015460016000846bffffffffffffffffffffffff19166bffffffffffffffffffffffff191681526020019081526020016000206002015411155b8015610cc85750610cc68261066e565b155b9050919050565b60075481565b6000813373ffffffffffffffffffffffffffffffffffffffff1660016000836bffffffffffffffffffffffff19166bffffffffffffffffffffffff1916815260200190815260200160002060000160009054906101000a900473ffffffffffffffffffffffffffffffffffffffff1673ffffffffffffffffffffffffffffffffffffffff16141515610d6657600080fd5b82610d708161066e565b1515610d7b57600080fd5b60016000856bffffffffffffffffffffffff19166bffffffffffffffffffffffff19168152602001908152602001600020600101549250600083111515610dc157600080fd5b610dcc600285611433565b60a060405190810160405280600073ffffffffffffffffffffffffffffffffffffffff168152602001600081526020016000815260200160008152602001602060405190810160405280600081525081525060016000866bffffffffffffffffffffffff19166bffffffffffffffffffffffff1916815260200190815260200160002060008201518160000160006101000a81548173ffffffffffffffffffffffffffffffffffffffff021916908373ffffffffffffffffffffffffffffffffffffffff1602179055506020820151816001015560408201518160020155606082015181600301556080820151816004019080519060200190610ed0929190611b4b565b509050506000809054906101000a900473ffffffffffffffffffffffffffffffffffffffff1673ffffffffffffffffffffffffffffffffffffffff1663a9059cbb33856040518363ffffffff167c0100000000000000000000000000000000000000000000000000000000028152600401808373ffffffffffffffffffffffffffffffffffffffff1673ffffffffffffffffffffffffffffffffffffffff16815260200182815260200192505050602060405180830381600087803b158015610f9857600080fd5b505af1158015610fac573d6000803e3d6000fd5b505050506040513d6020811015610fc257600080fd5b81019080805190602001909291905050501515610fde57600080fd5b7f8dce8f4eb4097fbdf948a109703513f52a7fabcc7e328ba7f29ad8165033e9533384604051808373ffffffffffffffffffffffffffffffffffffffff1673ffffffffffffffffffffffffffffffffffffffff1681526020018281526020019250505060405180910390a150505050565b600060016000836bffffffffffffffffffffffff19166bffffffffffffffffffffffff19168152602001908152602001600020600101549050919050565b60088060000154908060010154905082565b60006007546008600101540142101515156110b957600080fd5b6001430340600190049050604080519081016040528082815260200160075460086001015401815250600860008201518160000155602082015181600101559050506004546003819055507fe358419ca0dd7928a310d787a606dfae5d869f5071249efa6107105e7afc40bc60405160405180910390a150565b60055481565b60065481565b6060806000806003546040519080825280602002602001820160405280156111765781602001602082028038833980820191505090505b5092506000915061118760026116f6565b90505b60035482101561120c5761119d81610c37565b15156111b5576111ae60028261175e565b905061118a565b8083838151811015156111c457fe5b906020019060200201906bffffffffffffffffffffffff191690816bffffffffffffffffffffffff1916815250506111fd60028261175e565b9050818060010192505061118a565b82935050505090565b60008060016000846bffffffffffffffffffffffff19166bffffffffffffffffffffffff1916815260200190815260200160002060020154149050919050565b8061125f816106f4565b151561126a57600080fd5b813373ffffffffffffffffffffffffffffffffffffffff1660016000836bffffffffffffffffffffffff19166bffffffffffffffffffffffff1916815260200190815260200160002060000160009054906101000a900473ffffffffffffffffffffffffffffffffffffffff1673ffffffffffffffffffffffffffffffffffffffff161415156112f957600080fd5b6007546008600101540160016000856bffffffffffffffffffffffff19166bffffffffffffffffffffffff1916815260200190815260200160002060030181905550600460008154809291906001900391905055507fd261e3f9e22d65cdbecf9c4c79c684a7d4225282f1c80dcbfa6fec5c38a151d48360405180826bffffffffffffffffffffffff19166bffffffffffffffffffffffff1916815260200191505060405180910390a1505050565b600060016000836bffffffffffffffffffffffff19166bffffffffffffffffffffffff1916815260200190815260200160002060000160009054906101000a900473ffffffffffffffffffffffffffffffffffffffff169050919050565b61141082826117cd565b15151561141c57600080fd5b61142f826114298461181b565b83611883565b5050565b60008061144084846117cd565b151561144b57600080fd5b60006c01000000000000000000000000026bffffffffffffffffffffffff1916836bffffffffffffffffffffffff19161415611486576116f0565b836000016000846bffffffffffffffffffffffff19166bffffffffffffffffffffffff1916815260200190815260200160002060000160019054906101000a90046c01000000000000000000000000029150836000016000846bffffffffffffffffffffffff19166bffffffffffffffffffffffff1916815260200190815260200160002060010160009054906101000a90046c0100000000000000000000000002905080846000016000846bffffffffffffffffffffffff19166bffffffffffffffffffffffff1916815260200190815260200160002060010160006101000a81548173ffffffffffffffffffffffffffffffffffffffff02191690836c010000000000000000000000009004021790555081846000016000836bffffffffffffffffffffffff19166bffffffffffffffffffffffff1916815260200190815260200160002060000160016101000a81548173ffffffffffffffffffffffffffffffffffffffff02191690836c01000000000000000000000000900402179055506000846000016000856bffffffffffffffffffffffff19166bffffffffffffffffffffffff1916815260200190815260200160002060000160006101000a81548160ff021916908315150217905550836000016000846bffffffffffffffffffffffff19166bffffffffffffffffffffffff19168152602001908152602001600020600080820160006101000a81549060ff02191690556000820160016101000a81549073ffffffffffffffffffffffffffffffffffffffff02191690556001820160006101000a81549073ffffffffffffffffffffffffffffffffffffffff021916905550505b50505050565b6000816000016000806c01000000000000000000000000026bffffffffffffffffffffffff19166bffffffffffffffffffffffff1916815260200190815260200160002060010160009054906101000a90046c01000000000000000000000000029050919050565b600061176a83836117cd565b151561177557600080fd5b826000016000836bffffffffffffffffffffffff19166bffffffffffffffffffffffff1916815260200190815260200160002060010160009054906101000a90046c0100000000000000000000000002905092915050565b6000826000016000836bffffffffffffffffffffffff19166bffffffffffffffffffffffff1916815260200190815260200160002060000160009054906101000a900460ff16905092915050565b6000816000016000806c01000000000000000000000000026bffffffffffffffffffffffff19166bffffffffffffffffffffffff1916815260200190815260200160002060000160019054906101000a90046c01000000000000000000000000029050919050565b600061188f84836117cd565b15151561189b57600080fd5b6118a584846117cd565b806118dd575060006c01000000000000000000000000026bffffffffffffffffffffffff1916836bffffffffffffffffffffffff1916145b15156118e857600080fd5b836000016000846bffffffffffffffffffffffff19166bffffffffffffffffffffffff1916815260200190815260200160002060010160009054906101000a90046c0100000000000000000000000002905082846000016000846bffffffffffffffffffffffff19166bffffffffffffffffffffffff1916815260200190815260200160002060000160016101000a81548173ffffffffffffffffffffffffffffffffffffffff02191690836c010000000000000000000000009004021790555080846000016000846bffffffffffffffffffffffff19166bffffffffffffffffffffffff1916815260200190815260200160002060010160006101000a81548173ffffffffffffffffffffffffffffffffffffffff02191690836c010000000000000000000000009004021790555081846000016000856bffffffffffffffffffffffff19166bffffffffffffffffffffffff1916815260200190815260200160002060010160006101000a81548173ffffffffffffffffffffffffffffffffffffffff02191690836c010000000000000000000000009004021790555081846000016000836bffffffffffffffffffffffff19166bffffffffffffffffffffffff1916815260200190815260200160002060000160016101000a81548173ffffffffffffffffffffffffffffffffffffffff02191690836c01000000000000000000000000900402179055506001846000016000846bffffffffffffffffffffffff19166bffffffffffffffffffffffff1916815260200190815260200160002060000160006101000a81548160ff02191690831515021790555050505050565b828054600181600116156101000203166002900490600052602060002090601f016020900481019282601f10611b8c57805160ff1916838001178555611bba565b82800160010185558215611bba579182015b82811115611bb9578251825591602001919060010190611b9e565b5b509050611bc79190611bcb565b5090565b611bed91905b80821115611be9576000816000905550600101611bd1565b5090565b905600a165627a7a723058204ac5d2ba9d0f08c444f4cab4692cb3ab251042984d1f4dab86f824677e654e680029",
  "source": "pragma solidity ^0.4.24;\n\nimport \"./libraries/LinkedList.sol\";\nimport \"./RepublicToken.sol\";\n\n/**\n * @notice DarknodeRegistry is responsible for the registration and\n * deregistration of dark nodes.\n */\ncontract DarknodeRegistry {\n\n    struct Epoch {\n        uint256 epochhash;\n        uint256 timestamp;\n    }\n\n    /**\n    * @notice Darknodes are stored in the darknodes. The owner is the address that\n    * registered the darknode, the bond is the amount of REN that was transferred\n    * during registration, and the public key is the encryption key that should\n    * be used when sending sensitive information to the darknode. The commitment\n    * and the \n    */\n    struct Darknode {\n        address owner;\n        uint256 bond;\n        uint256 registeredAt;\n        uint256 deregisteredAt;\n        bytes publicKey;\n    }\n\n    // Republic ERC20 token contract used to transfer bonds.\n    RepublicToken ren;\n\n    // Registry data.\n    mapping(bytes20 => Darknode) private darknodeRegistry;\n    LinkedList.List private darknodes;\n    uint256 public numDarknodes;\n    uint256 public numDarknodesNextEpoch;\n\n    // Constants used to parameterize behavior.\n    uint256 public minimumBond;\n    uint256 public minimumDarkPoolSize;\n    uint256 public minimumEpochInterval;\n\n    // The current epoch and the minimum time interval until the next epoch.\n    Epoch public currentEpoch;\n\n    /**\n    * @notice Emitted when a darknode is registered.\n    * \n    * @param _darknodeID The darknode ID that was registered.\n    * @param _bond The amount of REN that was transferred as bond.\n    */\n    event DarknodeRegistered(bytes20 _darknodeID, uint256 _bond);\n\n    /**\n    * @notice Emitted when a darknode is deregistered.\n    * \n    * @param _darknodeID The darknode ID that was deregistered.\n    */\n    event DarknodeDeregistered(bytes20 _darknodeID);\n\n    /**\n    * @notice Emitted when a refund has been made.\n    *\n    * @param _owner The address that was refunded.\n    * @param _amount The amount of REN that was refunded.\n    */\n    event OwnerRefunded(address _owner, uint256 _amount);\n\n    /**\n    * @notice Emitted when a new epoch has begun\n    */\n    event NewEpoch();\n\n    /**\n    * @notice Only allow the owner that registered the darknode to pass.\n    */\n    modifier onlyOwner(bytes20 _darknodeID) {\n        require(darknodeRegistry[_darknodeID].owner == msg.sender);\n        _;\n    }\n\n    /**\n    * @notice Only allow unregistered dark nodes.\n    */\n    modifier onlyUnregistered(bytes20 _darknodeID) {\n        require(isUnregistered(_darknodeID));\n        _;\n    }\n\n    /**\n    * @notice Only allow registered dark nodes.\n    */\n    modifier onlyRegistered(bytes20 _darknodeID) {\n        require(isRegistered(_darknodeID));\n        _;\n    }\n\n    /**\n    * @notice Only allow deregistered dark nodes.\n    */\n    modifier onlyDeregistered(bytes20 _darknodeID) {\n        require(isDeregistered(_darknodeID));\n        _;\n    }\n\n    /**\n    * @notice Only allowed registered nodes without a pending deregistration to\n    * deregister\n    */\n    modifier onlyDeregistrable(bytes20 _darknodeID) {\n        require(canDeregister(_darknodeID));\n        _;\n    }\n\n    /** \n    * @notice The DarknodeRegistry constructor.\n    *\n    * @param _token The address of the RepublicToken contract.\n    * @param _minimumBond The minimum bond amount that can be submitted by a\n    *                     darknode.\n    * @param _minimumDarkPoolSize The minimum size of a dark pool.\n    * @param _minimumEpochInterval The minimum amount of time between epochs.\n    */\n    constructor(address _token, uint256 _minimumBond, uint256 _minimumDarkPoolSize, uint256 _minimumEpochInterval) public {\n        ren = RepublicToken(_token);\n        minimumBond = _minimumBond;\n        minimumDarkPoolSize = _minimumDarkPoolSize;\n        minimumEpochInterval = _minimumEpochInterval;\n        currentEpoch = Epoch({\n            epochhash: uint256(blockhash(block.number - 1)),\n            timestamp: block.timestamp\n        });\n        numDarknodes = 0;\n        numDarknodesNextEpoch = 0;\n    }\n\n    /**\n    * @notice Progress the epoch if it is possible and necessary to do so. This\n    * captures the current timestamp and current blockhash and overrides the\n    * current epoch.\n    */\n    function epoch() public {\n        require(block.timestamp >= currentEpoch.timestamp + minimumEpochInterval);\n\n        uint256 epochhash = uint256(blockhash(block.number - 1));\n\n        // Update the epoch hash and timestamp\n        currentEpoch = Epoch({\n            epochhash: epochhash,\n            timestamp: currentEpoch.timestamp + minimumEpochInterval\n        });\n        \n        // Update the registry information\n        numDarknodes = numDarknodesNextEpoch;\n\n        // Emit an event\n        emit NewEpoch();\n    }\n\n    /** \n    * @notice Register a dark node and transfer the bond to this contract. The\n    * caller must provide a public encryption key for the dark node as well as a\n    * bond in REN. The bond must be provided as an ERC20 allowance. The dark\n    * node will remain pending registration until the next epoch. Only after\n    * this period can the dark node be deregistered. The caller of this method\n    * will be stored as the owner of the dark node.\n    *\n    * @param _darknodeID The dark node ID that will be registered.\n    * @param _publicKey The public key of the dark node. It is stored to allow\n    *                   other dark nodes and traders to encrypt messages to the\n    *                   trader.\n    * @param _bond The bond that will be paid. It must be greater than, or equal\n    *              to, the minimum bond.\n    */\n    function register(bytes20 _darknodeID, bytes _publicKey, uint256 _bond) public onlyUnregistered(_darknodeID) {\n        // REN allowance\n        require(_bond >= minimumBond);\n        require(ren.allowance(msg.sender, address(this)) >= _bond);\n        require(ren.transferFrom(msg.sender, address(this), _bond));\n\n        // Flag this dark node for registration\n        darknodeRegistry[_darknodeID] = Darknode({\n            owner: msg.sender,\n            bond: _bond,\n            publicKey: _publicKey,\n            registeredAt: currentEpoch.timestamp + minimumEpochInterval,\n            deregisteredAt: 0\n        });\n        LinkedList.append(darknodes, _darknodeID);\n        numDarknodesNextEpoch++;\n\n        // Emit an event.\n        emit DarknodeRegistered(_darknodeID, _bond);\n    }\n\n    /** \n    * @notice Deregister a dark node. The dark node will not be deregisterd\n    * until the end of the epoch. At this time, the bond can be refunded by\n    * calling the refund method.\n    *\n    * @param _darknodeID The dark node ID that will be deregistered. The caller\n    *                    of this method must be the owner of this dark node.\n    */\n    function deregister(bytes20 _darknodeID) public onlyDeregistrable(_darknodeID) onlyOwner(_darknodeID) {\n        // Flag the dark node for deregistration\n        darknodeRegistry[_darknodeID].deregisteredAt = currentEpoch.timestamp + minimumEpochInterval;\n        numDarknodesNextEpoch--;\n\n        // Emit an event\n        emit DarknodeDeregistered(_darknodeID);\n    }\n\n    /** \n    * @notice Refund the bond of a deregistered dark node. This will make the\n    * dark node available for registration again.\n    *\n    * @param _darknodeID The dark node ID that will be refunded. The caller\n    *                    of this method must be the owner of this dark node.\n    */\n    function refund(bytes20 _darknodeID) public onlyOwner(_darknodeID) onlyDeregistered(_darknodeID) {\n        // Remember the bond amount\n        uint256 amount = darknodeRegistry[_darknodeID].bond;\n        require(amount > 0);\n\n        // Erase the dark node from the registry\n        LinkedList.remove(darknodes, _darknodeID);\n        darknodeRegistry[_darknodeID] = Darknode({\n            owner: 0x0,\n            bond: 0,\n            publicKey: \"\",\n            registeredAt: 0,\n            deregisteredAt: 0\n        });\n\n        // Refund the owner by transferring REN\n        require(ren.transfer(msg.sender, amount));\n\n        // Emit an event.\n        emit OwnerRefunded(msg.sender, amount);\n    }\n\n    function getOwner(bytes20 _darknodeID) public view returns (address) {\n        return darknodeRegistry[_darknodeID].owner;\n    }\n\n    function getBond(bytes20 _darknodeID) public view returns (uint256) {\n        return darknodeRegistry[_darknodeID].bond;\n    }\n    \n    function getPublicKey(bytes20 _darknodeID) public view returns (bytes) {\n        return darknodeRegistry[_darknodeID].publicKey;\n    }\n\n    function getDarknodes() public view returns (bytes20[]) {\n        bytes20[] memory nodes = new bytes20[](numDarknodes);\n\n        // Begin with the first node in the list\n        uint256 n = 0;\n        bytes20 next = LinkedList.begin(darknodes);\n\n        // Iterate until all registered dark nodes have been collected\n        while (n < numDarknodes) {\n        // Only include registered dark nodes\n            if (!isRegistered(next)) {\n                next = LinkedList.next(darknodes, next);\n                continue;\n            }\n            nodes[n] = next;\n            next = LinkedList.next(darknodes, next);\n            n++;\n        }\n\n        return nodes;\n    }\n\n    /**\n    * An unregistered dark node is not registered, deregistered, pending\n    * registration, or pending deregistration. The only dark nodes that are\n    * unregistered are ones that have never been registered, or have been\n    * refunded.\n    */\n    function isUnregistered(bytes20 _darknodeID) public view returns (bool) {\n        return (darknodeRegistry[_darknodeID].registeredAt == 0);\n    }\n\n    /**\n    * A registered dark node has been registered, and it is no longer pending\n    * registration. It might be pending deregistration, but it has not been\n    * refunded.\n    */\n    function isRegistered(bytes20 _darknodeID) public view returns (bool) {\n        return darknodeRegistry[_darknodeID].registeredAt != 0 \n        && darknodeRegistry[_darknodeID].registeredAt <= currentEpoch.timestamp\n        && !isDeregistered(_darknodeID);\n    }\n\n    function canDeregister(bytes20 _darknodeID) public view returns (bool) {\n        return isRegistered(_darknodeID)\n        && darknodeRegistry[_darknodeID].deregisteredAt == 0;\n    }\n\n    /**\n    * A deregistered dark node has been deregistered, and it is no longer\n    * pending deregistration, but has not been refunded.\n    */\n    function isDeregistered(bytes20 _darknodeID) public view returns (bool) {\n        return darknodeRegistry[_darknodeID].deregisteredAt != 0\n        && darknodeRegistry[_darknodeID].deregisteredAt <= currentEpoch.timestamp;\n    }\n\n}\n",
  "sourcePath": "/home/noah/github/republicprotocol/republic-sol/contracts/DarknodeRegistry.sol",
  "compiler": {
    "name": "solc",
    "version": "0.4.24+commit.e67f0147.Emscripten.clang"
  },
  "schemaVersion": "2.0.0",
  "updatedAt": "2018-06-01T07:04:30.402Z"
}