{
  "contractName": "Gateway",
  "abi": [
    {
      "constant": true,
      "inputs": [],
      "name": "republicToken",
      "outputs": [
        {
          "name": "",
          "type": "address"
        }
      ],
      "payable": false,
      "stateMutability": "view",
      "type": "function"
    },
    {
      "constant": true,
      "inputs": [],
      "name": "owner",
      "outputs": [
        {
          "name": "",
          "type": "address"
        }
      ],
      "payable": false,
      "stateMutability": "view",
      "type": "function"
    },
    {
      "constant": true,
      "inputs": [],
      "name": "darknodeRegistry",
      "outputs": [
        {
          "name": "",
          "type": "address"
        }
      ],
      "payable": false,
      "stateMutability": "view",
      "type": "function"
    },
    {
      "constant": true,
      "inputs": [],
      "name": "traderRegistry",
      "outputs": [
        {
          "name": "",
          "type": "address"
        }
      ],
      "payable": false,
      "stateMutability": "view",
      "type": "function"
    },
    {
      "constant": true,
      "inputs": [],
      "name": "minimumDarkPoolSize",
      "outputs": [
        {
          "name": "",
          "type": "uint256"
        }
      ],
      "payable": false,
      "stateMutability": "view",
      "type": "function"
    },
    {
      "constant": false,
      "inputs": [
        {
          "name": "newOwner",
          "type": "address"
        }
      ],
      "name": "transferOwnership",
      "outputs": [],
      "payable": false,
      "stateMutability": "nonpayable",
      "type": "function"
    },
    {
      "inputs": [
        {
          "name": "_republicToken",
          "type": "address"
        },
        {
          "name": "_darknodeRegistry",
          "type": "address"
        },
        {
          "name": "_traderRegistry",
          "type": "address"
        },
        {
          "name": "_minimumDarkPoolSize",
          "type": "uint256"
        }
      ],
      "payable": false,
      "stateMutability": "nonpayable",
      "type": "constructor"
    },
    {
      "anonymous": false,
      "inputs": [
        {
          "indexed": false,
          "name": "functionID",
          "type": "bytes4"
        },
        {
          "indexed": false,
          "name": "oldValue",
          "type": "uint256"
        },
        {
          "indexed": false,
          "name": "newValue",
          "type": "uint256"
        }
      ],
      "name": "update",
      "type": "event"
    },
    {
      "anonymous": false,
      "inputs": [
        {
          "indexed": true,
          "name": "previousOwner",
          "type": "address"
        },
        {
          "indexed": true,
          "name": "newOwner",
          "type": "address"
        }
      ],
      "name": "OwnershipTransferred",
      "type": "event"
    },
    {
      "constant": false,
      "inputs": [
        {
          "name": "_darknodeRegistry",
          "type": "address"
        }
      ],
      "name": "updateDarknodeRegistry",
      "outputs": [],
      "payable": false,
      "stateMutability": "nonpayable",
      "type": "function"
    },
    {
      "constant": false,
      "inputs": [
        {
          "name": "_traderRegistry",
          "type": "address"
        }
      ],
      "name": "updateTraderRegistry",
      "outputs": [],
      "payable": false,
      "stateMutability": "nonpayable",
      "type": "function"
    },
    {
      "constant": false,
      "inputs": [
        {
          "name": "_minimumDarkPoolSize",
          "type": "uint256"
        }
      ],
      "name": "updateMinimumDarkPoolSize",
      "outputs": [],
      "payable": false,
      "stateMutability": "nonpayable",
      "type": "function"
    }
  ],
  "bytecode": "0x608060405234801561001057600080fd5b50604051608080610bf983398101806040528101908080519060200190929190805190602001909291908051906020019092919080519060200190929190505050336000806101000a81548173ffffffffffffffffffffffffffffffffffffffff021916908373ffffffffffffffffffffffffffffffffffffffff16021790555083600160006101000a81548173ffffffffffffffffffffffffffffffffffffffff021916908373ffffffffffffffffffffffffffffffffffffffff16021790555082600260006101000a81548173ffffffffffffffffffffffffffffffffffffffff021916908373ffffffffffffffffffffffffffffffffffffffff16021790555081600360006101000a81548173ffffffffffffffffffffffffffffffffffffffff021916908373ffffffffffffffffffffffffffffffffffffffff1602179055508060048190555050505050610a8b8061016e6000396000f300608060405260043610610099576000357c0100000000000000000000000000000000000000000000000000000000900463ffffffff1680630cb033fc1461009e57806321f0d886146100cb5780633b306734146101225780638da5cb5b146101655780639e45e0d0146101bc578063a896d08614610213578063aaff096d1461026a578063b31575d5146102ad578063f2fde38b146102d8575b600080fd5b3480156100aa57600080fd5b506100c96004803603810190808035906020019092919050505061031b565b005b3480156100d757600080fd5b506100e06104a1565b604051808273ffffffffffffffffffffffffffffffffffffffff1673ffffffffffffffffffffffffffffffffffffffff16815260200191505060405180910390f35b34801561012e57600080fd5b50610163600480360381019080803573ffffffffffffffffffffffffffffffffffffffff1690602001909291905050506104c7565b005b34801561017157600080fd5b5061017a6106ad565b604051808273ffffffffffffffffffffffffffffffffffffffff1673ffffffffffffffffffffffffffffffffffffffff16815260200191505060405180910390f35b3480156101c857600080fd5b506101d16106d2565b604051808273ffffffffffffffffffffffffffffffffffffffff1673ffffffffffffffffffffffffffffffffffffffff16815260200191505060405180910390f35b34801561021f57600080fd5b506102286106f8565b604051808273ffffffffffffffffffffffffffffffffffffffff1673ffffffffffffffffffffffffffffffffffffffff16815260200191505060405180910390f35b34801561027657600080fd5b506102ab600480360381019080803573ffffffffffffffffffffffffffffffffffffffff16906020019092919050505061071e565b005b3480156102b957600080fd5b506102c2610904565b6040518082815260200191505060405180910390f35b3480156102e457600080fd5b50610319600480360381019080803573ffffffffffffffffffffffffffffffffffffffff16906020019092919050505061090a565b005b6000809054906101000a900473ffffffffffffffffffffffffffffffffffffffff1673ffffffffffffffffffffffffffffffffffffffff163373ffffffffffffffffffffffffffffffffffffffff1614151561037657600080fd5b7fc11b0e28b2fb6638cfd65dc5ebceed09f460eaa323c80a369d529c1cc1b7a45b600260405180807f7570646174654d696e696d756d4461726b506f6f6c53697a652875696e74323581526020017f362900000000000000000000000000000000000000000000000000000000000081525060220190506020604051808303816000865af115801561040c573d6000803e3d6000fd5b5050506040513d602081101561042157600080fd5b81019080805190602001909291905050506004548360405180847bffffffffffffffffffffffffffffffffffffffffffffffffffffffff19167bffffffffffffffffffffffffffffffffffffffffffffffffffffffff19168152602001838152602001828152602001935050505060405180910390a18060048190555050565b600160009054906101000a900473ffffffffffffffffffffffffffffffffffffffff1681565b6000809054906101000a900473ffffffffffffffffffffffffffffffffffffffff1673ffffffffffffffffffffffffffffffffffffffff163373ffffffffffffffffffffffffffffffffffffffff1614151561052257600080fd5b7fc11b0e28b2fb6638cfd65dc5ebceed09f460eaa323c80a369d529c1cc1b7a45b600260405180807f7570646174655472616465725265676973747279286164647265737329000000815250601d0190506020604051808303816000865af1158015610592573d6000803e3d6000fd5b5050506040513d60208110156105a757600080fd5b8101908080519060200190929190505050600360009054906101000a900473ffffffffffffffffffffffffffffffffffffffff1673ffffffffffffffffffffffffffffffffffffffff168373ffffffffffffffffffffffffffffffffffffffff1660405180847bffffffffffffffffffffffffffffffffffffffffffffffffffffffff19167bffffffffffffffffffffffffffffffffffffffffffffffffffffffff19168152602001838152602001828152602001935050505060405180910390a180600360006101000a81548173ffffffffffffffffffffffffffffffffffffffff021916908373ffffffffffffffffffffffffffffffffffffffff16021790555050565b6000809054906101000a900473ffffffffffffffffffffffffffffffffffffffff1681565b600260009054906101000a900473ffffffffffffffffffffffffffffffffffffffff1681565b600360009054906101000a900473ffffffffffffffffffffffffffffffffffffffff1681565b6000809054906101000a900473ffffffffffffffffffffffffffffffffffffffff1673ffffffffffffffffffffffffffffffffffffffff163373ffffffffffffffffffffffffffffffffffffffff1614151561077957600080fd5b7fc11b0e28b2fb6638cfd65dc5ebceed09f460eaa323c80a369d529c1cc1b7a45b600260405180807f7570646174654461726b6e6f6465526567697374727928616464726573732900815250601f0190506020604051808303816000865af11580156107e9573d6000803e3d6000fd5b5050506040513d60208110156107fe57600080fd5b8101908080519060200190929190505050600260009054906101000a900473ffffffffffffffffffffffffffffffffffffffff1673ffffffffffffffffffffffffffffffffffffffff168373ffffffffffffffffffffffffffffffffffffffff1660405180847bffffffffffffffffffffffffffffffffffffffffffffffffffffffff19167bffffffffffffffffffffffffffffffffffffffffffffffffffffffff19168152602001838152602001828152602001935050505060405180910390a180600260006101000a81548173ffffffffffffffffffffffffffffffffffffffff021916908373ffffffffffffffffffffffffffffffffffffffff16021790555050565b60045481565b6000809054906101000a900473ffffffffffffffffffffffffffffffffffffffff1673ffffffffffffffffffffffffffffffffffffffff163373ffffffffffffffffffffffffffffffffffffffff1614151561096557600080fd5b600073ffffffffffffffffffffffffffffffffffffffff168173ffffffffffffffffffffffffffffffffffffffff16141515156109a157600080fd5b8073ffffffffffffffffffffffffffffffffffffffff166000809054906101000a900473ffffffffffffffffffffffffffffffffffffffff1673ffffffffffffffffffffffffffffffffffffffff167f8be0079c531659141344cd1fd0a4f28419497f9722a3daafe3b4186f6b6457e060405160405180910390a3806000806101000a81548173ffffffffffffffffffffffffffffffffffffffff021916908373ffffffffffffffffffffffffffffffffffffffff160217905550505600a165627a7a72305820a4ab7e54e0da2851946ed59b0cface3aca8db86af43e1be7bcb2b397889b3b650029",
  "source": "pragma solidity ^0.4.24;\n\nimport \"zeppelin-solidity/contracts/ownership/Ownable.sol\";\n\ncontract Gateway is Ownable {\n\n    address public republicToken;\n    address public darknodeRegistry;\n    address public traderRegistry;\n    uint256 public minimumDarkPoolSize;\n\n    event update(bytes4 functionID, uint256 oldValue, uint256 newValue);\n\n    constructor(\n        address _republicToken, \n        address _darknodeRegistry, \n        address _traderRegistry,\n        uint256 _minimumDarkPoolSize\n    ) public {\n        republicToken = _republicToken;\n        darknodeRegistry = _darknodeRegistry;\n        traderRegistry = _traderRegistry;\n        minimumDarkPoolSize = _minimumDarkPoolSize;\n    }\n  \n    function updateDarknodeRegistry(address _darknodeRegistry) public onlyOwner {\n        emit update(bytes4(sha256(\"updateDarknodeRegistry(address)\")), uint256(darknodeRegistry), uint256(_darknodeRegistry));\n        darknodeRegistry = _darknodeRegistry;\n    }\n\n    function updateTraderRegistry(address _traderRegistry) public onlyOwner {\n        emit update(bytes4(sha256(\"updateTraderRegistry(address)\")), uint256(traderRegistry), uint256(_traderRegistry));\n        traderRegistry = _traderRegistry;\n    }\n\n    function updateMinimumDarkPoolSize(uint256 _minimumDarkPoolSize) public onlyOwner {\n        emit update(bytes4(sha256(\"updateMinimumDarkPoolSize(uint256)\")), minimumDarkPoolSize, _minimumDarkPoolSize);\n        minimumDarkPoolSize = _minimumDarkPoolSize;\n    }\n \n}",
  "sourcePath": "/home/noah/github/republicprotocol/republic-sol/contracts/Gateway.sol",
  "compiler": {
    "name": "solc",
    "version": "0.4.24+commit.e67f0147.Emscripten.clang"
  },
  "schemaVersion": "2.0.0",
  "updatedAt": "2018-05-31T23:57:03.943Z"
}