{
  "contractName": "LibRewardVault",
  "abi": [
    {
      "constant": true,
      "inputs": [],
      "name": "ETHEREUM",
      "outputs": [
        {
          "name": "",
          "type": "address"
        }
      ],
      "payable": false,
      "stateMutability": "view",
      "type": "function"
    }
  ],
  "bytecode": "0x60e761002f600b82828239805160001a6073146000811461001f57610021565bfe5b5030600052607381538281f30073000000000000000000000000000000000000000030146080604052600436106056576000357c0100000000000000000000000000000000000000000000000000000000900463ffffffff168063f7cdf47c14605b575b600080fd5b606160a3565b604051808273ffffffffffffffffffffffffffffffffffffffff1673ffffffffffffffffffffffffffffffffffffffff16815260200191505060405180910390f35b73eeeeeeeeeeeeeeeeeeeeeeeeeeeeeeeeeeeeeeee815600a165627a7a72305820cca775a42f657451c052fa261226f2ca99ce90b11adccb4872b08c58116750190029",
  "source": "pragma solidity ^0.4.24;\n\nimport \"../DarknodeRegistry.sol\";\n\nlibrary LibRewardVault {\n\n    address constant public ETHEREUM = address(0xEeeeeEeeeEeEeeEeEeEeeEEEeeeeEeeeeeeeEEeE);\n\n    struct RewardRound {\n        bool finalized;\n        uint256 rrn;\n        uint256 balance;\n        bytes[] orders;\n        bytes32[] challenges;\n        address[] rewardees;\n\n        mapping(address => mapping (bytes32=>bool)) rewards;\n    }\n\n    struct RewardVault {\n        uint256 currentNonce;\n        uint256 rewardeeCount;\n        uint256 challengeCount;\n        uint256 rewardPerProof;\n        uint256 threshold;\n        address dnrAddress;\n        address tokenAddress;\n\n        mapping (uint256 => mapping (uint256 => bool)) selectedOrder;\n        mapping (bytes32 => bool) selectedNode;\n        mapping (uint256 => RewardRound) rewardRounds;\n    }\n\n    function deposit(RewardVault storage self, bytes _order, uint256 _value) internal {\n        self.rewardRounds[self.currentNonce].orders.push(_order);\n        if (self.rewardRounds[self.currentNonce].balance + _value >= self.threshold) {\n            self.rewardRounds[self.currentNonce + 1].balance = self.rewardRounds[self.currentNonce].balance + _value - self.threshold;\n            self.rewardRounds[self.currentNonce].balance = self.threshold;\n            self.rewardRounds[self.currentNonce].rrn = uint256(blockhash(block.number - 1));\n            \n            self.currentNonce++;\n            return;\n        }\n        self.rewardRounds[self.currentNonce].balance += _value;\n        return;\n    }\n\n    function withdraw(RewardVault storage self, bytes32 challenge, bytes proof, uint256 rewardRoundNonce, address _sender)\n        internal returns(bool)\n    {\n        require(self.rewardRounds[rewardRoundNonce].finalized);\n        if (!self.rewardRounds[rewardRoundNonce].rewards[_sender][challenge]) {\n            return false;\n        }\n        if (!validateProof(challenge, proof)) {\n            return false;\n        }\n        self.rewardRounds[rewardRoundNonce].balance -= self.rewardPerProof;\n        self.rewardRounds[rewardRoundNonce].rewards[_sender][challenge] = false;\n        return true;\n    }\n\n    function finalize(RewardVault storage self, uint256 n) internal {\n\n        DarknodeRegistry dnr = DarknodeRegistry(self.dnrAddress);\n        require(self.rewardRounds[n].balance == self.threshold && !self.rewardRounds[n].finalized);\n        uint256 x = self.rewardRounds[n].rrn % (self.rewardRounds[n].orders.length);\n\n        // Choose `challengeCount` orders using rrn as random seed\n        for (uint256 i = 0; i < self.challengeCount; i++) {\n            while (self.selectedOrder[n][x]) {\n                x = x+1;\n            }\n            self.rewardRounds[n].challenges.push(keccak256(self.rewardRounds[n].orders[x]));\n            self.selectedOrder[n][x] = true;\n            x = (x + self.rewardRounds[n].rrn) % self.rewardRounds[n].orders.length;\n        }\n\n        bytes20[] memory nodeIds = dnr.getDarknodes();\n        x = self.rewardRounds[n].rrn % nodeIds.length;\n\n        // Choose `rewardeeCount` nodes using rrn as random seed\n        for (i = 0; i < self.rewardeeCount; i++) {\n            while (self.selectedNode[keccak256(abi.encodePacked(n, x))]) {\n                x = x+1;\n            }\n            address rewardee = dnr.getOwner(nodeIds[x]);\n            self.rewardRounds[n].rewardees.push(rewardee);\n            for (uint256 j = 0; j < self.challengeCount; j++) {\n                self.rewardRounds[n].rewards[rewardee][self.rewardRounds[n].challenges[j]] = true;\n            }\n            self.selectedNode[keccak256(abi.encodePacked(n, x))] = true;\n            x = (x + self.rewardRounds[n].rrn) % nodeIds.length;\n        }\n        self.rewardRounds[n].finalized = true;\n    }\n\n    function validateProof(bytes32 _challenge, bytes _proof) internal pure returns (bool) {\n        // TODO: Add actual logic in the next version of the contract.\n        return true;\n    }\n\n}",
  "sourcePath": "/home/noah/github/republicprotocol/republic-sol/contracts/libraries/LibRewardVault.sol",
  "compiler": {
    "name": "solc",
    "version": "0.4.24+commit.e67f0147.Emscripten.clang"
  },
  "schemaVersion": "2.0.0",
  "updatedAt": "2018-06-12T07:17:42.594Z"
}