{
  "contractName": "LinkedList",
  "abi": [
    {
      "constant": true,
      "inputs": [],
      "name": "NULL",
      "outputs": [
        {
          "name": "",
          "type": "bytes20"
        }
      ],
      "payable": false,
      "stateMutability": "view",
      "type": "function"
    }
  ],
  "bytecode": "0x60d561002f600b82828239805160001a6073146000811461001f57610021565bfe5b5030600052607381538281f30073000000000000000000000000000000000000000030146080604052600436106056576000357c0100000000000000000000000000000000000000000000000000000000900463ffffffff168063f26be3fc14605b575b600080fd5b60616095565b60405180826bffffffffffffffffffffffff19166bffffffffffffffffffffffff1916815260200191505060405180910390f35b60006c0100000000000000000000000002815600a165627a7a723058203c59092799f37f03c98894771c4309ff0c98489f1c604e073064c8c37125e7e90029",
  "source": "pragma solidity ^0.4.24;\n\n/**\n * @notice LinkedList is a library for a circular double linked list.\n */\nlibrary LinkedList {\n\n    /*\n    * @notice A permanent NULL node (0x0) in the circular double linked list.\n    * NULL.next is the head, and NULL.previous is the tail.\n    */\n    bytes20 public constant NULL = 0x0;\n\n    /**\n    * @notice A node points to the node before it, and the node after it. If\n    * node.previous = NULL, then the node is the head of the list. If\n    * node.next = NULL, then the node is the tail of the list.\n    */\n    struct Node {\n        bool inList;\n        bytes20 previous;\n        bytes20 next;\n    }\n    \n    /**\n    * @notice LinkedList uses a mapping from bytes20s to nodes. Each bytes20\n    * uniquely identifies a node, and in this way they are used like pointers.\n    */\n    struct List {\n        mapping (bytes20 => Node) list;\n    }\n\n    function isInList(List storage self, bytes20 node) internal view returns (bool) {\n        return self.list[node].inList;\n    }\n\n    /**\n    * @notice Get the node at the beginning of a double linked list.\n    *\n    * @param self The list being used.\n    *\n    * @return A bytes20 identifying the node at the beginning of the double\n    * linked list.\n    */\n    function begin(List storage self) internal view returns (bytes20) {\n        return self.list[NULL].next;\n    }\n\n    /**\n    * @notice Get the node at the end of a double linked list.\n    *\n    * @param self The list being used.\n    *\n    * @return A bytes20 identifying the node at the end of the double linked\n    * list.\n    */\n    function end(List storage self) internal view returns (bytes20) {\n        return self.list[NULL].previous;\n    }\n\n    function next(List storage self, bytes20 node) internal view returns (bytes20) {\n        require(isInList(self, node));\n        return self.list[node].next;\n    }\n\n    function previous(List storage self, bytes20 node) internal view returns (bytes20) {\n        require(isInList(self, node));\n        return self.list[node].previous;\n    }\n\n    /**\n    * @notice Insert a new node before an existing node.\n    *\n    * @param self The list being used.\n    * @param target The existing node in the list.\n    * @param newNode The next node to insert before the target.\n    */\n    function insertBefore(List storage self, bytes20 target, bytes20 newNode) internal {\n        require(!isInList(self, newNode));\n        require(isInList(self, target) || target == NULL);\n\n        // It is expected that this value is sometimes NULL.\n        bytes20 prev = self.list[target].previous;\n\n        self.list[newNode].next = target;\n        self.list[newNode].previous = prev;\n        self.list[target].previous = newNode;\n        self.list[prev].next = newNode;\n\n        self.list[newNode].inList = true;\n    }\n\n    /**\n    * @notice Insert a new node after an existing node.\n    *\n    * @param self The list being used.\n    * @param target The existing node in the list.\n    * @param newNode The next node to insert after the target.\n    */\n    function insertAfter(List storage self, bytes20 target, bytes20 newNode) internal {\n        require(!isInList(self, newNode));\n        require(isInList(self, target) || target == NULL);\n\n        // It is expected that this value is sometimes NULL.\n        bytes20 n = self.list[target].next;\n\n        self.list[newNode].previous = target;\n        self.list[newNode].next = n;\n        self.list[target].next = newNode;\n        self.list[n].previous = newNode;\n\n        self.list[newNode].inList = true;\n    }\n    \n    /**\n    * @notice Remove a node from the list, and fix the previous and next\n    * pointers that are pointing to the removed node. Removing anode that is not\n    * in the list will do nothing.\n    *\n    * @param self The list being using.\n    * @param node The node in the list to be removed.\n    */\n    function remove(List storage self, bytes20 node) internal {\n        require(isInList(self, node));\n        if (node == NULL) {\n            return;\n        }\n        bytes20 p = self.list[node].previous;\n        bytes20 n = self.list[node].next;\n\n        self.list[p].next = n;\n        self.list[n].previous = p;\n\n        // Deleting the node should set this value to false, but we set it here for\n        // explicitness.\n        self.list[node].inList = false;\n        delete self.list[node];\n    }\n\n    /**\n    * @notice Insert a node at the beginning of the list.\n    *\n    * @param self The list being used.\n    * @param node The node to insert at the beginning of the list.\n    */\n    function prepend(List storage self, bytes20 node) internal {\n        require(!isInList(self, node));\n        insertBefore(self, begin(self), node);\n    }\n\n    /**\n    * @notice Insert a node at the end of the list.\n    *\n    * @param self The list being used.\n    * @param node The node to insert at the end of the list.\n    */\n    function append(List storage self, bytes20 node) internal {\n        require(!isInList(self, node));\n        insertAfter(self, end(self), node);\n    }\n\n    function swap(List storage self, bytes20 left, bytes20 right) internal {\n        require(isInList(self, left));\n        require(isInList(self, right));\n        bytes20 previousRight = self.list[right].previous;\n        remove(self, right);\n        insertAfter(self, left, right);\n        remove(self, left);\n        insertAfter(self, previousRight, left);\n    }\n}",
  "sourcePath": "/home/noah/github/republicprotocol/republic-sol/contracts/libraries/LinkedList.sol",
  "compiler": {
    "name": "solc",
    "version": "0.4.24+commit.e67f0147.Emscripten.clang"
  },
  "schemaVersion": "2.0.0",
  "updatedAt": "2018-06-13T06:24:54.518Z"
}