{
  "contractName": "Orderbook",
  "abi": [
    {
      "constant": true,
      "inputs": [
        {
          "name": "",
          "type": "uint256"
        }
      ],
      "name": "buyOrders",
      "outputs": [
        {
          "name": "",
          "type": "bytes32"
        }
      ],
      "payable": false,
      "stateMutability": "view",
      "type": "function"
    },
    {
      "constant": true,
      "inputs": [
        {
          "name": "",
          "type": "uint256"
        }
      ],
      "name": "sellOrders",
      "outputs": [
        {
          "name": "",
          "type": "bytes32"
        }
      ],
      "payable": false,
      "stateMutability": "view",
      "type": "function"
    },
    {
      "constant": true,
      "inputs": [],
      "name": "fee",
      "outputs": [
        {
          "name": "",
          "type": "uint256"
        }
      ],
      "payable": false,
      "stateMutability": "view",
      "type": "function"
    },
    {
      "inputs": [
        {
          "name": "_fee",
          "type": "uint256"
        },
        {
          "name": "_token",
          "type": "address"
        },
        {
          "name": "_registry",
          "type": "address"
        }
      ],
      "payable": false,
      "stateMutability": "nonpayable",
      "type": "constructor"
    },
    {
      "constant": false,
      "inputs": [
        {
          "name": "_signature",
          "type": "bytes"
        },
        {
          "name": "_orderId",
          "type": "bytes32"
        }
      ],
      "name": "openBuyOrder",
      "outputs": [],
      "payable": false,
      "stateMutability": "nonpayable",
      "type": "function"
    },
    {
      "constant": false,
      "inputs": [
        {
          "name": "_signature",
          "type": "bytes"
        },
        {
          "name": "_orderId",
          "type": "bytes32"
        }
      ],
      "name": "openSellOrder",
      "outputs": [],
      "payable": false,
      "stateMutability": "nonpayable",
      "type": "function"
    },
    {
      "constant": false,
      "inputs": [
        {
          "name": "_orderId",
          "type": "bytes32"
        },
        {
          "name": "_orderMatches",
          "type": "bytes32[]"
        }
      ],
      "name": "confirmOrder",
      "outputs": [],
      "payable": false,
      "stateMutability": "nonpayable",
      "type": "function"
    },
    {
      "constant": false,
      "inputs": [
        {
          "name": "_signature",
          "type": "bytes"
        },
        {
          "name": "_orderId",
          "type": "bytes32"
        }
      ],
      "name": "cancelOrder",
      "outputs": [],
      "payable": false,
      "stateMutability": "nonpayable",
      "type": "function"
    },
    {
      "constant": true,
      "inputs": [
        {
          "name": "_index",
          "type": "uint256"
        }
      ],
      "name": "buyOrder",
      "outputs": [
        {
          "name": "",
          "type": "bytes32"
        },
        {
          "name": "",
          "type": "bool"
        }
      ],
      "payable": false,
      "stateMutability": "view",
      "type": "function"
    },
    {
      "constant": true,
      "inputs": [
        {
          "name": "_index",
          "type": "uint256"
        }
      ],
      "name": "sellOrder",
      "outputs": [
        {
          "name": "",
          "type": "bytes32"
        },
        {
          "name": "",
          "type": "bool"
        }
      ],
      "payable": false,
      "stateMutability": "view",
      "type": "function"
    },
    {
      "constant": true,
      "inputs": [
        {
          "name": "_orderId",
          "type": "bytes32"
        }
      ],
      "name": "orderState",
      "outputs": [
        {
          "name": "",
          "type": "uint8"
        }
      ],
      "payable": false,
      "stateMutability": "view",
      "type": "function"
    },
    {
      "constant": true,
      "inputs": [
        {
          "name": "_orderId",
          "type": "bytes32"
        }
      ],
      "name": "orderMatch",
      "outputs": [
        {
          "name": "",
          "type": "bytes32[]"
        }
      ],
      "payable": false,
      "stateMutability": "view",
      "type": "function"
    },
    {
      "constant": true,
      "inputs": [
        {
          "name": "_orderId",
          "type": "bytes32"
        }
      ],
      "name": "orderPriority",
      "outputs": [
        {
          "name": "",
          "type": "uint256"
        }
      ],
      "payable": false,
      "stateMutability": "view",
      "type": "function"
    },
    {
      "constant": true,
      "inputs": [
        {
          "name": "_orderId",
          "type": "bytes32"
        }
      ],
      "name": "orderTrader",
      "outputs": [
        {
          "name": "",
          "type": "address"
        }
      ],
      "payable": false,
      "stateMutability": "view",
      "type": "function"
    },
    {
      "constant": true,
      "inputs": [
        {
          "name": "_orderId",
          "type": "bytes32"
        }
      ],
      "name": "orderBroker",
      "outputs": [
        {
          "name": "",
          "type": "address"
        }
      ],
      "payable": false,
      "stateMutability": "view",
      "type": "function"
    },
    {
      "constant": true,
      "inputs": [
        {
          "name": "_orderId",
          "type": "bytes32"
        }
      ],
      "name": "orderConfirmer",
      "outputs": [
        {
          "name": "",
          "type": "address"
        }
      ],
      "payable": false,
      "stateMutability": "view",
      "type": "function"
    },
    {
      "constant": true,
      "inputs": [
        {
          "name": "_orderId",
          "type": "bytes32"
        }
      ],
      "name": "orderDepth",
      "outputs": [
        {
          "name": "",
          "type": "uint256"
        }
      ],
      "payable": false,
      "stateMutability": "view",
      "type": "function"
    },
    {
      "constant": true,
      "inputs": [
        {
          "name": "_orderId",
          "type": "bytes32"
        }
      ],
      "name": "orderBlockNumber",
      "outputs": [
        {
          "name": "",
          "type": "uint256"
        }
      ],
      "payable": false,
      "stateMutability": "view",
      "type": "function"
    },
    {
      "constant": true,
      "inputs": [],
      "name": "getOrdersCount",
      "outputs": [
        {
          "name": "",
          "type": "uint256"
        }
      ],
      "payable": false,
      "stateMutability": "view",
      "type": "function"
    },
    {
      "constant": true,
      "inputs": [
        {
          "name": "_index",
          "type": "uint256"
        }
      ],
      "name": "getOrder",
      "outputs": [
        {
          "name": "",
          "type": "bytes32"
        },
        {
          "name": "",
          "type": "bool"
        }
      ],
      "payable": false,
      "stateMutability": "view",
      "type": "function"
    },
    {
      "constant": true,
      "inputs": [
        {
          "name": "_offset",
          "type": "uint256"
        },
        {
          "name": "_limit",
          "type": "uint256"
        }
      ],
      "name": "getOrders",
      "outputs": [
        {
          "name": "",
          "type": "bytes32[]"
        },
        {
          "name": "",
          "type": "address[]"
        },
        {
          "name": "",
          "type": "uint8[]"
        }
      ],
      "payable": false,
      "stateMutability": "view",
      "type": "function"
    }
  ],
  "bytecode": "0x608060405234801561001057600080fd5b50604051606080611f448339810180604052810190808051906020019092919080519060200190929190805190602001909291905050508260048190555081600560006101000a81548173ffffffffffffffffffffffffffffffffffffffff021916908373ffffffffffffffffffffffffffffffffffffffff16021790555080600660006101000a81548173ffffffffffffffffffffffffffffffffffffffff021916908373ffffffffffffffffffffffffffffffffffffffff160217905550505050611e62806100e26000396000f300608060405260043610610112576000357c0100000000000000000000000000000000000000000000000000000000900463ffffffff1680631107c3f71461011757806322f85eaa1461018857806335cea288146101dc57806339b0d677146102255780634a8393f31461029c5780635060340b146102e5578063574ed6c11461035c5780637008b996146103d357806389895d53146104475780638f72fc771461048c57806397514d90146105a8578063a188fcb8146105fc578063a518166114610641578063aab14d04146106b2578063af3e8a40146106fd578063b1a0801014610783578063b248e4e1146107f4578063b5b3b05114610839578063d09ef24114610864578063ddca3f43146108b8575b600080fd5b34801561012357600080fd5b5061014660048036038101908080356000191690602001909291905050506108e3565b604051808273ffffffffffffffffffffffffffffffffffffffff1673ffffffffffffffffffffffffffffffffffffffff16815260200191505060405180910390f35b34801561019457600080fd5b506101b36004803603810190808035906020019092919050505061092b565b604051808360001916600019168152602001821515151581526020019250505060405180910390f35b3480156101e857600080fd5b506102076004803603810190808035906020019092919050505061096f565b60405180826000191660001916815260200191505060405180910390f35b34801561023157600080fd5b5061029a600480360381019080803590602001908201803590602001908080601f01602080910402602001604051908101604052809392919081815260200183838082843782019150505050505091929192908035600019169060200190929190505050610992565b005b3480156102a857600080fd5b506102c7600480360381019080803590602001909291905050506109fa565b60405180826000191660001916815260200191505060405180910390f35b3480156102f157600080fd5b5061035a600480360381019080803590602001908201803590602001908080601f01602080910402602001604051908101604052809392919081815260200183838082843782019150505050505091929192908035600019169060200190929190505050610a1d565b005b34801561036857600080fd5b506103d1600480360381019080803590602001908201803590602001908080601f01602080910402602001604051908101604052809392919081815260200183838082843782019150505050505091929192908035600019169060200190929190505050610a85565b005b3480156103df57600080fd5b50610445600480360381019080803560001916906020019092919080359060200190820180359060200190808060200260200160405190810160405280939291908181526020018383602002808284378201915050505050509192919290505050610cc8565b005b34801561045357600080fd5b5061047660048036038101908080356000191690602001909291905050506110a2565b6040518082815260200191505060405180910390f35b34801561049857600080fd5b506104c160048036038101908080359060200190929190803590602001909291905050506110ca565b60405180806020018060200180602001848103845287818151815260200191508051906020019060200280838360005b8381101561050c5780820151818401526020810190506104f1565b50505050905001848103835286818151815260200191508051906020019060200280838360005b8381101561054e578082015181840152602081019050610533565b50505050905001848103825285818151815260200191508051906020019060200280838360005b83811015610590578082015181840152602081019050610575565b50505050905001965050505050505060405180910390f35b3480156105b457600080fd5b506105d3600480360381019080803590602001909291905050506112f9565b604051808360001916600019168152602001821515151581526020019250505060405180910390f35b34801561060857600080fd5b5061062b600480360381019080803560001916906020019092919050505061133d565b6040518082815260200191505060405180910390f35b34801561064d57600080fd5b506106706004803603810190808035600019169060200190929190505050611397565b604051808273ffffffffffffffffffffffffffffffffffffffff1673ffffffffffffffffffffffffffffffffffffffff16815260200191505060405180910390f35b3480156106be57600080fd5b506106e160048036038101908080356000191690602001909291905050506113df565b604051808260ff1660ff16815260200191505060405180910390f35b34801561070957600080fd5b5061072c600480360381019080803560001916906020019092919050505061141f565b6040518080602001828103825283818151815260200191508051906020019060200280838360005b8381101561076f578082015181840152602081019050610754565b505050509050019250505060405180910390f35b34801561078f57600080fd5b506107b26004803603810190808035600019169060200190929190505050611499565b604051808273ffffffffffffffffffffffffffffffffffffffff1673ffffffffffffffffffffffffffffffffffffffff16815260200191505060405180910390f35b34801561080057600080fd5b5061082360048036038101908080356000191690602001909291905050506114e1565b6040518082815260200191505060405180910390f35b34801561084557600080fd5b5061084e611509565b6040518082815260200191505060405180910390f35b34801561087057600080fd5b5061088f6004803603810190808035906020019092919050505061151d565b604051808360001916600019168152602001821515151581526020019250505060405180910390f35b3480156108c457600080fd5b506108cd611561565b6040518082815260200191505060405180910390f35b600060036000836000191660001916815260200190815260200160002060020160009054906101000a900473ffffffffffffffffffffffffffffffffffffffff169050919050565b6000806000805490508310151561094957600080909150915061096a565b60008381548110151561095857fe5b90600052602060002001546001915091505b915091565b60008181548110151561097e57fe5b906000526020600020016000915090505481565b61099c8282611567565b6001819080600181540180825580915050906001820390600052602060002001600090919290919091509060001916905550600180549050600360008360001916600019168152602001908152602001600020600301819055505050565b600181815481101515610a0957fe5b906000526020600020016000915090505481565b610a278282611567565b6000819080600181540180825580915050906001820390600052602060002001600090919290919091509060001916905550600080549050600360008360001916600019168152602001908152602001600020600301819055505050565b60008060016003811115610a9557fe5b60036000856000191660001916815260200190815260200160002060000160019054906101000a900460ff166003811115610acc57fe5b1415610c0f578260405160200180807f52657075626c69632050726f746f636f6c3a2063616e63656c3a200000000000815250601b0182600019166000191681526020019150506040516020818303038152906040526040518082805190602001908083835b602083101515610b575780518252602082019150602081019050602083039250610b32565b6001836020036101000a03801982511681845116808217855250505050505090500191505060405180910390209150610b908285611a4c565b90508073ffffffffffffffffffffffffffffffffffffffff1660036000856000191660001916815260200190815260200160002060000160029054906101000a900473ffffffffffffffffffffffffffffffffffffffff1673ffffffffffffffffffffffffffffffffffffffff16141515610c0a57600080fd5b610c60565b60006003811115610c1c57fe5b60036000856000191660001916815260200190815260200160002060000160019054906101000a900460ff166003811115610c5357fe5b141515610c5f57600080fd5b5b6003806000856000191660001916815260200190815260200160002060000160016101000a81548160ff02191690836003811115610c9a57fe5b0217905550436003600085600019166000191681526020019081526020016000206004018190555050505050565b600033600660009054906101000a900473ffffffffffffffffffffffffffffffffffffffff1673ffffffffffffffffffffffffffffffffffffffff16634f5550fc826c01000000000000000000000000026040518263ffffffff167c010000000000000000000000000000000000000000000000000000000002815260040180826bffffffffffffffffffffffff19166bffffffffffffffffffffffff19168152602001915050602060405180830381600087803b158015610d8957600080fd5b505af1158015610d9d573d6000803e3d6000fd5b505050506040513d6020811015610db357600080fd5b81019080805190602001909291905050501515610dcf57600080fd5b60016003811115610ddc57fe5b60036000866000191660001916815260200190815260200160002060000160019054906101000a900460ff166003811115610e1357fe5b141515610e1f57600080fd5b600091505b8251821015610ea15760016003811115610e3a57fe5b600360008585815181101515610e4c57fe5b906020019060200201516000191660001916815260200190815260200160002060000160019054906101000a900460ff166003811115610e8857fe5b141515610e9457600080fd5b8180600101925050610e24565b600091505b8251821015610fa9576002600360008585815181101515610ec357fe5b906020019060200201516000191660001916815260200190815260200160002060000160016101000a81548160ff02191690836003811115610f0157fe5b0217905550602060405190810160405280856000191660001916815250600360008585815181101515610f3057fe5b9060200190602002015160001916600019168152602001908152602001600020600501906001610f61929190611d6b565b5043600360008585815181101515610f7557fe5b9060200190602002015160001916600019168152602001908152602001600020600401819055508180600101925050610ea6565b600260036000866000191660001916815260200190815260200160002060000160016101000a81548160ff02191690836003811115610fe457fe5b02179055503360036000866000191660001916815260200190815260200160002060020160006101000a81548173ffffffffffffffffffffffffffffffffffffffff021916908373ffffffffffffffffffffffffffffffffffffffff160217905550826003600086600019166000191681526020019081526020016000206005019080519060200190611078929190611dbe565b50436003600086600019166000191681526020019081526020016000206004018190555050505050565b6000600360008360001916600019168152602001908152602001600020600401549050919050565b6060806060600060608060606000806002805490508b1015156110ec576112ec565b899550600280549050868c011115611109578a6002805490500395505b856040519080825280602002602001820160405280156111385781602001602082028038833980820191505090505b5094508560405190808252806020026020018201604052801561116a5781602001602082028038833980820191505090505b5093508560405190808252806020026020018201604052801561119c5781602001602082028038833980820191505090505b509250600091505b858210156112e25760028b83018154811015156111bd57fe5b906000526020600020015490508085838151811015156111d957fe5b90602001906020020190600019169081600019168152505060036000826000191660001916815260200190815260200160002060000160029054906101000a900473ffffffffffffffffffffffffffffffffffffffff16848381518110151561123e57fe5b9060200190602002019073ffffffffffffffffffffffffffffffffffffffff16908173ffffffffffffffffffffffffffffffffffffffff168152505060036000826000191660001916815260200190815260200160002060000160019054906101000a900460ff1660038111156112b157fe5b83838151811015156112bf57fe5b9060200190602002019060ff16908160ff168152505081806001019250506111a4565b8484849850985098505b5050505050509250925092565b60008060018054905083101515611317576000809091509150611338565b60018381548110151561132657fe5b90600052602060002001546001915091505b915091565b60008060036000846000191660001916815260200190815260200160002060040154141561136e5760009050611392565b60036000836000191660001916815260200190815260200160002060040154430390505b919050565b600060036000836000191660001916815260200190815260200160002060010160009054906101000a900473ffffffffffffffffffffffffffffffffffffffff169050919050565b600060036000836000191660001916815260200190815260200160002060000160019054906101000a900460ff16600381111561141857fe5b9050919050565b606060036000836000191660001916815260200190815260200160002060050180548060200260200160405190810160405280929190818152602001828054801561148d57602002820191906000526020600020905b81546000191681526020019060010190808311611475575b50505050509050919050565b600060036000836000191660001916815260200190815260200160002060000160029054906101000a900473ffffffffffffffffffffffffffffffffffffffff169050919050565b6000600360008360001916600019168152602001908152602001600020600301549050919050565b600060018054905060008054905001905090565b6000806002805490508310151561153b57600080909150915061155c565b60028381548110151561154a57fe5b90600052602060002001546001915091505b915091565b60045481565b600080600454600560009054906101000a900473ffffffffffffffffffffffffffffffffffffffff1673ffffffffffffffffffffffffffffffffffffffff1663dd62ed3e33306040518363ffffffff167c0100000000000000000000000000000000000000000000000000000000028152600401808373ffffffffffffffffffffffffffffffffffffffff1673ffffffffffffffffffffffffffffffffffffffff1681526020018273ffffffffffffffffffffffffffffffffffffffff1673ffffffffffffffffffffffffffffffffffffffff16815260200192505050602060405180830381600087803b15801561165e57600080fd5b505af1158015611672573d6000803e3d6000fd5b505050506040513d602081101561168857600080fd5b8101908080519060200190929190505050101515156116a657600080fd5b600560009054906101000a900473ffffffffffffffffffffffffffffffffffffffff1673ffffffffffffffffffffffffffffffffffffffff166323b872dd33306004546040518463ffffffff167c0100000000000000000000000000000000000000000000000000000000028152600401808473ffffffffffffffffffffffffffffffffffffffff1673ffffffffffffffffffffffffffffffffffffffff1681526020018373ffffffffffffffffffffffffffffffffffffffff1673ffffffffffffffffffffffffffffffffffffffff1681526020018281526020019350505050602060405180830381600087803b1580156117a157600080fd5b505af11580156117b5573d6000803e3d6000fd5b505050506040513d60208110156117cb57600080fd5b810190808051906020019092919050505015156117e757600080fd5b600060038111156117f457fe5b60036000856000191660001916815260200190815260200160002060000160019054906101000a900460ff16600381111561182b57fe5b14151561183757600080fd5b8260405160200180807f52657075626c69632050726f746f636f6c3a206f70656e3a200000000000000081525060190182600019166000191681526020019150506040516020818303038152906040526040518082805190602001908083835b6020831015156118bc5780518252602082019150602081019050602083039250611897565b6001836020036101000a038019825116818451168082178552505050505050905001915050604051809103902091506118f58285611a4c565b9050600160036000856000191660001916815260200190815260200160002060000160016101000a81548160ff0219169083600381111561193257fe5b02179055508060036000856000191660001916815260200190815260200160002060000160026101000a81548173ffffffffffffffffffffffffffffffffffffffff021916908373ffffffffffffffffffffffffffffffffffffffff1602179055503360036000856000191660001916815260200190815260200160002060010160006101000a81548173ffffffffffffffffffffffffffffffffffffffff021916908373ffffffffffffffffffffffffffffffffffffffff1602179055504360036000856000191660001916815260200190815260200160002060040181905550600283908060018154018082558091505090600182039060005260206000200160009091929091909150906000191690555050505050565b600060606000806040805190810160405280601c81526020017f19457468657265756d205369676e6564204d6573736167653a0a333200000000815250925082866040516020018083805190602001908083835b602083101515611ac55780518252602082019150602081019050602083039250611aa0565b6001836020036101000a0380198251168184511680821785525050505050509050018260001916600019168152602001925050506040516020818303038152906040526040518082805190602001908083835b602083101515611b3d5780518252602082019150602081019050602083039250611b18565b6001836020036101000a03801982511681845116808217855250505050505090500191505060405180910390209150846040815181101515611b7b57fe5b9060200101517f010000000000000000000000000000000000000000000000000000000000000090047f0100000000000000000000000000000000000000000000000000000000000000027f01000000000000000000000000000000000000000000000000000000000000009004905060008160ff161480611c00575060018160ff16145b15611c0c57601b810190505b60018282611c1b886000611cac565b611c26896020611cac565b604051600081526020016040526040518085600019166000191681526020018460ff1660ff1681526020018360001916600019168152602001826000191660001916815260200194505050505060206040516020810390808403906000865af1158015611c97573d6000803e3d6000fd5b50505060206040510351935050505092915050565b6000806000809150600090505b6020811015611d5d5780600802858286601f0103815181101515611cd957fe5b9060200101517f010000000000000000000000000000000000000000000000000000000000000090047f0100000000000000000000000000000000000000000000000000000000000000027f010000000000000000000000000000000000000000000000000000000000000090049060020a02820191508080600101915050611cb9565b816001029250505092915050565b828054828255906000526020600020908101928215611dad579160200282015b82811115611dac578251829060001916905591602001919060010190611d8b565b5b509050611dba9190611e11565b5090565b828054828255906000526020600020908101928215611e00579160200282015b82811115611dff578251829060001916905591602001919060010190611dde565b5b509050611e0d9190611e11565b5090565b611e3391905b80821115611e2f576000816000905550600101611e17565b5090565b905600a165627a7a72305820d0f8965e5b1b38f088433648d848e6db13e50fad46caaf7aae8133d2c241e6cd0029",
  "source": "pragma solidity 0.4.24;\n\nimport \"./DarknodeRegistry.sol\";\nimport \"./libraries/ECDSA.sol\";\n\n/**\n * @notice Orderbook is responsible for storing the orders and their priorities.\n * It's used as an consensus of which order should be executed.\n */\ncontract Orderbook {\n\n    enum OrderType {Midpoint, Limit}\n    enum OrderParity {Buy, Sell}\n    enum OrderState {Undefined, Open, Confirmed, Canceled}\n\n    /**\n    * @notice Order stores the relevant data of an order.\n    */\n    struct Order {\n        OrderParity parity;\n        OrderState state;\n        address trader;\n        address broker;\n        address confirmer;\n        uint256 priority;\n        uint256 blockNumber;\n        bytes32[] matches;\n    }\n\n    // buyOrders/sellOrders store all the buy/sell orders in a list .\n    bytes32[] public buyOrders;\n    bytes32[] public sellOrders;\n    bytes32[] orderbook;\n\n    mapping(bytes32 => Order) private orders;\n\n    uint256 public fee;\n    // Republic ERC20 token contract is used to transfer bonds.\n    RepublicToken private ren;\n    // DarknodeRegistry is used to check registration of the order confirmer.\n    DarknodeRegistry private darknodeRegistry;\n\n    /**\n    * @notice Only allow registered dark nodes.\n    */\n    modifier onlyDarknode(address _sender) {\n        require(darknodeRegistry.isRegistered(bytes20(_sender)));\n        _;\n    }\n\n    /**\n     * @notice The Orderbook constructor.\n     *\n     * @param _fee The fee rate of opening an order.\n     * @param _token The address of the RepublicToken contract.\n     * @param _registry The address of the darknodeRegistry contract.\n     */\n    constructor(uint256 _fee, address _token, address _registry) public {\n        fee = _fee;\n        ren = RepublicToken(_token);\n        darknodeRegistry = DarknodeRegistry(_registry);\n    }\n\n    /**\n     * @notice openBuyOrder opens a new buy order in the ledger. The order must not be opened.\n     *         It requires certain allowance of REN as opening fee. It will recover and store\n     *         the the trader address from the signature.\n     *\n     * @param _signature  Signature of the message \"Republic Protocol: open: {orderId}\"\n     * @param _orderId Order id or the buy order.\n     */\n    function openBuyOrder(bytes _signature, bytes32 _orderId) public {\n        openOrder(_signature, _orderId);\n        buyOrders.push(_orderId);\n        orders[_orderId].priority = buyOrders.length;\n    }\n\n    /**\n     * @notice openSellOrder opens a new sell order in the ledger. The order must not be opened.\n     *         It requires certain allowance of REN as opening fee. It will recover and store\n     *         the the trader address from the signature.\n     *\n     * @param _signature  Signature of the message \"Republic Protocol: open: {orderId}\"\n     * @param _orderId Order id or the sell order.\n     */\n    function openSellOrder(bytes _signature, bytes32 _orderId) public {\n        openOrder(_signature, _orderId);\n        sellOrders.push(_orderId);\n        orders[_orderId].priority = sellOrders.length;\n    }\n\n    /**\n     * @notice confirmOrder confirms a match is found between one order and a list of orders.\n     *         It requires the  sender address to be registered in the darknodeRegistry,\n     *\n     * @param _orderId Order ID .\n     * @param _orderMatches A list of matched order\n     */\n    function confirmOrder(bytes32 _orderId, bytes32[] _orderMatches) public onlyDarknode(msg.sender) {\n        require(orders[_orderId].state == OrderState.Open);\n        for (uint256 i = 0; i < _orderMatches.length; i++) {\n            require(orders[_orderMatches[i]].state == OrderState.Open);\n        }\n\n        for (i = 0; i < _orderMatches.length; i++) {\n            orders[_orderMatches[i]].state = OrderState.Confirmed;\n            orders[_orderMatches[i]].matches = [_orderId];\n            orders[_orderMatches[i]].blockNumber = block.number;\n        }\n        orders[_orderId].state = OrderState.Confirmed;\n        orders[_orderId].confirmer = msg.sender;\n        orders[_orderId].matches = _orderMatches;\n        orders[_orderId].blockNumber = block.number;\n    }\n\n    /**\n     * @notice cancelOrder cancels a opened order in the ledger. It will recover and store the the\n               trader address from the signature.\n     *\n     * @param _signature  Signature of the message \"Republic Protocol: cancel: {orderId}\"\n     * @param _orderId Order id.\n     */\n    function cancelOrder(bytes _signature, bytes32 _orderId) public {\n        if (orders[_orderId].state == OrderState.Open) {\n            // recover trader address from the signature\n            bytes32 data = keccak256(abi.encodePacked(\"Republic Protocol: cancel: \", _orderId));\n            address trader = ECDSA.addr(data, _signature);\n            require(orders[_orderId].trader == trader);\n        } else {\n            // An unopened order can be canceled to ensure that it can't be opened\n            // in the future\n            // TODO: this create the possibility of a DoS attack where a node\n            // or miner submits a cancelOrder with a higher fee everytime they\n            // see an openOrder from a particular trader\n            require(orders[_orderId].state == OrderState.Undefined);\n        }\n\n        orders[_orderId].state = OrderState.Canceled;\n        orders[_orderId].blockNumber = block.number;\n    }\n\n    /**\n    * buyOrder will return orderId of the given index in buy order list and true if exists.\n    * Otherwise it will return empty bytes and false.\n    */\n    function buyOrder(uint256 _index) public view returns (bytes32, bool){\n        if (_index >= buyOrders.length) {\n            return (\"\", false);\n        }\n\n        return (buyOrders[_index], true);\n    }\n\n    /**\n    * sellOrder will return orderId of the given index in sell order list and true if exists.\n    * Otherwise it will return empty bytes and false.\n    */\n    function sellOrder(uint256 _index) public view returns (bytes32, bool){\n        if (_index >= sellOrders.length) {\n            return (\"\", false);\n        }\n\n        return (sellOrders[_index], true);\n    }\n\n    /**\n    * orderState will return status of the given orderID.\n    */\n    function orderState(bytes32 _orderId) public view returns (uint8){\n        return uint8(orders[_orderId].state);\n    }\n\n    /**\n    * orderMatch will return a list of matched orders to the given orderID.\n    */\n    function orderMatch(bytes32 _orderId) public view returns (bytes32[]){\n        return orders[_orderId].matches;\n    }\n\n    /**\n    * orderPriority will return the priority of the given orderID.\n    * The priority is the index of the order in the orderbook.\n    */\n    function orderPriority(bytes32 _orderId) public view returns (uint256){\n        return orders[_orderId].priority;\n    }\n\n    /**\n    * orderTrader will return the trader of the given orderID.\n    * Trader is the one who signs the message and does the actual trading.\n    */\n    function orderTrader(bytes32 _orderId) public view returns (address){\n        return orders[_orderId].trader;\n    }\n\n    /**\n    * orderBroker will return the broker of the given orderID.\n    * Broker is the one who represent the trader to send the tx.\n    */\n    function orderBroker(bytes32 _orderId) public view returns (address){\n        return orders[_orderId].broker;\n    }\n\n    /**\n    * orderConfirmer will return the darknode address which confirms the given orderID.\n    */\n    function orderConfirmer(bytes32 _orderId) public view returns (address){\n        return orders[_orderId].confirmer;\n    }\n\n    /**\n    * orderDepth will return the block depth of the orderId\n    */\n    function orderDepth(bytes32 _orderId) public view returns (uint256) {\n        if (orders[_orderId].blockNumber == 0) {\n            return 0;\n        }\n        return (block.number - orders[_orderId].blockNumber);\n    }\n\n    /**\n    * orderBlockNumber will return the block number when the order being last modified.\n    */\n    function orderBlockNumber(bytes32 _orderId) public view returns (uint256) {\n        return orders[_orderId].blockNumber;\n    }\n\n    /**\n    * getOrdersCount will return the number of orders in the orderbook\n    */\n    function getOrdersCount() public view returns (uint256){\n        return buyOrders.length + sellOrders.length;\n    }\n\n    /**\n    * getOrder will return orderId of the given index in the orderbook list and true if exists.\n    * Otherwise it will return empty bytes and false.\n    */\n    function getOrder(uint256 _index) public view returns (bytes32, bool){\n        if (_index >= orderbook.length) {\n            return (\"\", false);\n        }\n\n        return (orderbook[_index], true);\n    }\n\n    /**\n    * getOrder will return order details of the orders starting from the offset.\n    */\n    function getOrders(uint256 _offset, uint256 _limit) public view returns (bytes32[], address[], uint8[]){\n        if (_offset >= orderbook.length) {\n            return;\n        }\n\n        // If the provided limit is more than the number of orders after the offset,\n        // decrease the limit\n        uint256 limit = _limit;\n        if (_offset + limit > orderbook.length) {\n            limit = orderbook.length - _offset;\n        }\n\n        bytes32[] memory orderIDs = new bytes32[](limit);\n        address[] memory traderAddresses = new address[](limit);\n        uint8[] memory states = new uint8[](limit);\n\n        for (uint256 i = 0; i < limit; i++) {\n            bytes32 order = orderbook[i + _offset];\n            orderIDs[i] = order;\n            traderAddresses[i] = orders[order].trader;\n            states[i] = uint8(orders[order].state);\n        }\n\n        return (orderIDs, traderAddresses, states);\n    }\n\n    function openOrder(bytes _signature, bytes32 _orderId) private {\n        require(ren.allowance(msg.sender, this) >= fee);\n        require(ren.transferFrom(msg.sender, this, fee));\n        require(orders[_orderId].state == OrderState.Undefined);\n\n        // recover trader address from the signature\n        bytes32 data = keccak256(abi.encodePacked(\"Republic Protocol: open: \", _orderId));\n        address trader = ECDSA.addr(data, _signature);\n        orders[_orderId].state = OrderState.Open;\n        orders[_orderId].trader = trader;\n        orders[_orderId].broker = msg.sender;\n        orders[_orderId].blockNumber = block.number;\n        orderbook.push(_orderId);\n    }\n}\n\n",
  "sourcePath": "/home/noah/github/republicprotocol/republic-sol/contracts/Orderbook.sol",
  "compiler": {
    "name": "solc",
    "version": "0.4.24+commit.e67f0147.Emscripten.clang"
  },
  "schemaVersion": "2.0.0",
  "updatedAt": "2018-06-15T06:59:37.775Z"
}