{
  "contractName": "RenExSettlement",
  "abi": [
    {
      "constant": true,
      "inputs": [],
      "name": "owner",
      "outputs": [
        {
          "name": "",
          "type": "address"
        }
      ],
      "payable": false,
      "stateMutability": "view",
      "type": "function"
    },
    {
      "constant": true,
      "inputs": [
        {
          "name": "",
          "type": "bytes32"
        }
      ],
      "name": "orders",
      "outputs": [
        {
          "name": "parity",
          "type": "uint8"
        },
        {
          "name": "orderType",
          "type": "uint8"
        },
        {
          "name": "expiry",
          "type": "uint64"
        },
        {
          "name": "tokens",
          "type": "uint64"
        },
        {
          "name": "priceC",
          "type": "uint256"
        },
        {
          "name": "priceQ",
          "type": "uint256"
        },
        {
          "name": "volumeC",
          "type": "uint256"
        },
        {
          "name": "volumeQ",
          "type": "uint256"
        },
        {
          "name": "minimumVolumeC",
          "type": "uint256"
        },
        {
          "name": "minimumVolumeQ",
          "type": "uint256"
        },
        {
          "name": "nonceHash",
          "type": "uint256"
        },
        {
          "name": "trader",
          "type": "address"
        }
      ],
      "payable": false,
      "stateMutability": "view",
      "type": "function"
    },
    {
      "constant": true,
      "inputs": [
        {
          "name": "",
          "type": "bytes32"
        }
      ],
      "name": "matches",
      "outputs": [
        {
          "name": "price",
          "type": "uint256"
        },
        {
          "name": "lowVolume",
          "type": "uint256"
        },
        {
          "name": "highVolume",
          "type": "uint256"
        }
      ],
      "payable": false,
      "stateMutability": "view",
      "type": "function"
    },
    {
      "constant": false,
      "inputs": [
        {
          "name": "newOwner",
          "type": "address"
        }
      ],
      "name": "transferOwnership",
      "outputs": [],
      "payable": false,
      "stateMutability": "nonpayable",
      "type": "function"
    },
    {
      "inputs": [
        {
          "name": "_renLedgerContract",
          "type": "address"
        },
        {
          "name": "_renExTokensContract",
          "type": "address"
        },
        {
          "name": "_renExBalancesContract",
          "type": "address"
        }
      ],
      "payable": false,
      "stateMutability": "nonpayable",
      "type": "constructor"
    },
    {
      "anonymous": false,
      "inputs": [
        {
          "indexed": false,
          "name": "from",
          "type": "address"
        },
        {
          "indexed": false,
          "name": "to",
          "type": "address"
        },
        {
          "indexed": false,
          "name": "token",
          "type": "uint32"
        },
        {
          "indexed": false,
          "name": "value",
          "type": "uint256"
        }
      ],
      "name": "Transfer",
      "type": "event"
    },
    {
      "anonymous": false,
      "inputs": [
        {
          "indexed": false,
          "name": "msg",
          "type": "string"
        },
        {
          "indexed": false,
          "name": "num",
          "type": "uint256"
        }
      ],
      "name": "Debug256",
      "type": "event"
    },
    {
      "anonymous": false,
      "inputs": [
        {
          "indexed": false,
          "name": "msg",
          "type": "string"
        },
        {
          "indexed": false,
          "name": "num",
          "type": "int256"
        }
      ],
      "name": "Debugi256",
      "type": "event"
    },
    {
      "anonymous": false,
      "inputs": [
        {
          "indexed": false,
          "name": "msg",
          "type": "string"
        }
      ],
      "name": "Debug",
      "type": "event"
    },
    {
      "anonymous": false,
      "inputs": [
        {
          "indexed": false,
          "name": "msg",
          "type": "string"
        },
        {
          "indexed": false,
          "name": "c",
          "type": "uint256"
        },
        {
          "indexed": false,
          "name": "q",
          "type": "uint256"
        }
      ],
      "name": "DebugTuple",
      "type": "event"
    },
    {
      "anonymous": false,
      "inputs": [
        {
          "indexed": false,
          "name": "msg",
          "type": "string"
        },
        {
          "indexed": false,
          "name": "c",
          "type": "uint256"
        },
        {
          "indexed": false,
          "name": "q",
          "type": "int256"
        }
      ],
      "name": "DebugTupleI",
      "type": "event"
    },
    {
      "anonymous": false,
      "inputs": [
        {
          "indexed": true,
          "name": "previousOwner",
          "type": "address"
        },
        {
          "indexed": true,
          "name": "newOwner",
          "type": "address"
        }
      ],
      "name": "OwnershipTransferred",
      "type": "event"
    },
    {
      "constant": false,
      "inputs": [
        {
          "name": "_trader",
          "type": "address"
        },
        {
          "name": "_token",
          "type": "address"
        },
        {
          "name": "amount",
          "type": "uint256"
        }
      ],
      "name": "traderCanWithdraw",
      "outputs": [
        {
          "name": "",
          "type": "bool"
        }
      ],
      "payable": false,
      "stateMutability": "nonpayable",
      "type": "function"
    },
    {
      "constant": false,
      "inputs": [
        {
          "name": "_id",
          "type": "bytes32"
        },
        {
          "name": "_orderType",
          "type": "uint8"
        },
        {
          "name": "_parity",
          "type": "uint8"
        },
        {
          "name": "_expiry",
          "type": "uint64"
        },
        {
          "name": "_tokens",
          "type": "uint64"
        },
        {
          "name": "_priceC",
          "type": "uint16"
        },
        {
          "name": "_priceQ",
          "type": "uint16"
        },
        {
          "name": "_volumeC",
          "type": "uint16"
        },
        {
          "name": "_volumeQ",
          "type": "uint16"
        },
        {
          "name": "_minimumVolumeC",
          "type": "uint16"
        },
        {
          "name": "_minimumVolumeQ",
          "type": "uint16"
        },
        {
          "name": "_nonceHash",
          "type": "uint256"
        }
      ],
      "name": "submitOrder",
      "outputs": [],
      "payable": false,
      "stateMutability": "nonpayable",
      "type": "function"
    },
    {
      "constant": true,
      "inputs": [
        {
          "name": "_buyID",
          "type": "bytes32"
        },
        {
          "name": "_sellID",
          "type": "bytes32"
        }
      ],
      "name": "verifyMatch",
      "outputs": [
        {
          "name": "",
          "type": "uint32"
        },
        {
          "name": "",
          "type": "uint32"
        }
      ],
      "payable": false,
      "stateMutability": "view",
      "type": "function"
    },
    {
      "constant": false,
      "inputs": [
        {
          "name": "_buyID",
          "type": "bytes32"
        },
        {
          "name": "_sellID",
          "type": "bytes32"
        }
      ],
      "name": "submitMatch",
      "outputs": [],
      "payable": false,
      "stateMutability": "nonpayable",
      "type": "function"
    }
  ],
  "bytecode": "0x608060405234801561001057600080fd5b506040516060806122d2833981018060405281019080805190602001909291908051906020019092919080519060200190929190505050336000806101000a81548173ffffffffffffffffffffffffffffffffffffffff021916908373ffffffffffffffffffffffffffffffffffffffff16021790555082600160006101000a81548173ffffffffffffffffffffffffffffffffffffffff021916908373ffffffffffffffffffffffffffffffffffffffff16021790555081600260006101000a81548173ffffffffffffffffffffffffffffffffffffffff021916908373ffffffffffffffffffffffffffffffffffffffff16021790555080600360006101000a81548173ffffffffffffffffffffffffffffffffffffffff021916908373ffffffffffffffffffffffffffffffffffffffff1602179055505050506121768061015c6000396000f30060806040526004361061008e576000357c0100000000000000000000000000000000000000000000000000000000900463ffffffff168063177d19c3146100935780631f88d9c7146101645780632a337d30146101d65780638da5cb5b146102155780639c3f1e901461026c5780639fe9ada31461035e578063a3bdaedc146103b1578063f2fde38b14610436575b600080fd5b34801561009f57600080fd5b506101626004803603810190808035600019169060200190929190803560ff169060200190929190803560ff169060200190929190803567ffffffffffffffff169060200190929190803567ffffffffffffffff169060200190929190803561ffff169060200190929190803561ffff169060200190929190803561ffff169060200190929190803561ffff169060200190929190803561ffff169060200190929190803561ffff16906020019092919080359060200190929190505050610479565b005b34801561017057600080fd5b506101a160048036038101908080356000191690602001909291908035600019169060200190929190505050610814565b604051808363ffffffff1663ffffffff1681526020018263ffffffff1663ffffffff1681526020019250505060405180910390f35b3480156101e257600080fd5b5061021360048036038101908080356000191690602001909291908035600019169060200190929190505050610eb5565b005b34801561022157600080fd5b5061022a611366565b604051808273ffffffffffffffffffffffffffffffffffffffff1673ffffffffffffffffffffffffffffffffffffffff16815260200191505060405180910390f35b34801561027857600080fd5b5061029b600480360381019080803560001916906020019092919050505061138b565b604051808d60ff1660ff1681526020018c60ff1660ff1681526020018b67ffffffffffffffff1667ffffffffffffffff1681526020018a67ffffffffffffffff1667ffffffffffffffff1681526020018981526020018881526020018781526020018681526020018581526020018481526020018381526020018273ffffffffffffffffffffffffffffffffffffffff1673ffffffffffffffffffffffffffffffffffffffff1681526020019c5050505050505050505050505060405180910390f35b34801561036a57600080fd5b5061038d600480360381019080803560001916906020019092919050505061144d565b60405180848152602001838152602001828152602001935050505060405180910390f35b3480156103bd57600080fd5b5061041c600480360381019080803573ffffffffffffffffffffffffffffffffffffffff169060200190929190803573ffffffffffffffffffffffffffffffffffffffff16906020019092919080359060200190929190505050611477565b604051808215151515815260200191505060405180910390f35b34801561044257600080fd5b50610477600480360381019080803573ffffffffffffffffffffffffffffffffffffffff169060200190929190505050611484565b005b6104816120b8565b610180604051908101604052808c60ff1681526020018d60ff1681526020018b67ffffffffffffffff1681526020018a67ffffffffffffffff1681526020018961ffff1681526020018861ffff1681526020018761ffff1681526020018661ffff1681526020018561ffff1681526020018461ffff168152602001838152602001600073ffffffffffffffffffffffffffffffffffffffff1681525090506000600281111561052c57fe5b600560008f6000191660001916815260200190815260200160002060009054906101000a900460ff16600281111561056057fe5b14151561056c57600080fd5b6001600560008f6000191660001916815260200190815260200160002060006101000a81548160ff021916908360028111156105a457fe5b0217905550600160009054906101000a900473ffffffffffffffffffffffffffffffffffffffff1673ffffffffffffffffffffffffffffffffffffffff1663b1a080108e6040518263ffffffff167c0100000000000000000000000000000000000000000000000000000000028152600401808260001916600019168152602001915050602060405180830381600087803b15801561064257600080fd5b505af1158015610656573d6000803e3d6000fd5b505050506040513d602081101561066c57600080fd5b810190808051906020019092919050505081610160019073ffffffffffffffffffffffffffffffffffffffff16908173ffffffffffffffffffffffffffffffffffffffff168152505080600460008f6000191660001916815260200190815260200160002060008201518160000160006101000a81548160ff021916908360ff16021790555060208201518160000160016101000a81548160ff021916908360ff16021790555060408201518160000160026101000a81548167ffffffffffffffff021916908367ffffffffffffffff160217905550606082015181600001600a6101000a81548167ffffffffffffffff021916908367ffffffffffffffff1602179055506080820151816001015560a0820151816002015560c0820151816003015560e082015181600401556101008201518160050155610120820151816006015561014082015181600701556101608201518160080160006101000a81548173ffffffffffffffffffffffffffffffffffffffff021916908373ffffffffffffffffffffffffffffffffffffffff16021790555090505050505050505050505050505050565b6000806000806001600281111561082757fe5b60056000886000191660001916815260200190815260200160002060009054906101000a900460ff16600281111561085b57fe5b14151561086757600080fd5b6001600281111561087457fe5b60056000876000191660001916815260200190815260200160002060009054906101000a900460ff1660028111156108a857fe5b1415156108b457600080fd5b600060018111156108c157fe5b60ff1660046000886000191660001916815260200190815260200160002060000160009054906101000a900460ff1660ff161415156108ff57600080fd5b60018081111561090b57fe5b60ff1660046000876000191660001916815260200190815260200160002060000160009054906101000a900460ff1660ff1614151561094957600080fd5b6002600160009054906101000a900473ffffffffffffffffffffffffffffffffffffffff1673ffffffffffffffffffffffffffffffffffffffff1663aab14d04886040518263ffffffff167c0100000000000000000000000000000000000000000000000000000000028152600401808260001916600019168152602001915050602060405180830381600087803b1580156109e457600080fd5b505af11580156109f8573d6000803e3d6000fd5b505050506040513d6020811015610a0e57600080fd5b810190808051906020019092919050505060ff16141515610a2e57600080fd5b6002600160009054906101000a900473ffffffffffffffffffffffffffffffffffffffff1673ffffffffffffffffffffffffffffffffffffffff1663aab14d04876040518263ffffffff167c0100000000000000000000000000000000000000000000000000000000028152600401808260001916600019168152602001915050602060405180830381600087803b158015610ac957600080fd5b505af1158015610add573d6000803e3d6000fd5b505050506040513d6020811015610af357600080fd5b810190808051906020019092919050505060ff16141515610b1357600080fd5b8460001916600160009054906101000a900473ffffffffffffffffffffffffffffffffffffffff1673ffffffffffffffffffffffffffffffffffffffff1663af3e8a40886040518263ffffffff167c0100000000000000000000000000000000000000000000000000000000028152600401808260001916600019168152602001915050600060405180830381600087803b158015610bb157600080fd5b505af1158015610bc5573d6000803e3d6000fd5b505050506040513d6000823e3d601f19601f820116820180604052506020811015610bef57600080fd5b810190808051640100000000811115610c0757600080fd5b82810190506020810184811115610c1d57600080fd5b8151856020820283011164010000000082111715610c3a57600080fd5b50509291905050506000815181101515610c5057fe5b9060200190602002015160001916141515610c6a57600080fd5b600460008660001916600019168152602001908152602001600020600001600a9054906101000a900467ffffffffffffffff1691506020600460008760001916600019168152602001908152602001600020600001600a9054906101000a900467ffffffffffffffff1667ffffffffffffffff169060020a90049050600260009054906101000a900473ffffffffffffffffffffffffffffffffffffffff1673ffffffffffffffffffffffffffffffffffffffff1663329ed381836040518263ffffffff167c0100000000000000000000000000000000000000000000000000000000028152600401808263ffffffff1663ffffffff168152602001915050602060405180830381600087803b158015610d8357600080fd5b505af1158015610d97573d6000803e3d6000fd5b505050506040513d6020811015610dad57600080fd5b81019080805190602001909291905050501515610dc957600080fd5b600260009054906101000a900473ffffffffffffffffffffffffffffffffffffffff1673ffffffffffffffffffffffffffffffffffffffff1663329ed381826040518263ffffffff167c0100000000000000000000000000000000000000000000000000000000028152600401808263ffffffff1663ffffffff168152602001915050602060405180830381600087803b158015610e6657600080fd5b505af1158015610e7a573d6000803e3d6000fd5b505050506040513d6020811015610e9057600080fd5b81019080805190602001909291905050501515610eac57600080fd5b50509250929050565b6000806000806000806000806000806000610ed08d8d610814565b5050600460008d60001916600019168152602001908152602001600020600001600a9054906101000a900467ffffffffffffffff169a506020600460008e60001916600019168152602001908152602001600020600001600a9054906101000a900467ffffffffffffffff1667ffffffffffffffff169060020a900499506002600560008f6000191660001916815260200190815260200160002060006101000a81548160ff02191690836002811115610f8657fe5b02179055506002600560008e6000191660001916815260200190815260200160002060006101000a81548160ff02191690836002811115610fc357fe5b0217905550600260009054906101000a900473ffffffffffffffffffffffffffffffffffffffff1673ffffffffffffffffffffffffffffffffffffffff1663c865992b8c6040518263ffffffff167c0100000000000000000000000000000000000000000000000000000000028152600401808263ffffffff1663ffffffff168152602001915050602060405180830381600087803b15801561106557600080fd5b505af1158015611079573d6000803e3d6000fd5b505050506040513d602081101561108f57600080fd5b810190808051906020019092919050505060ff169850600260009054906101000a900473ffffffffffffffffffffffffffffffffffffffff1673ffffffffffffffffffffffffffffffffffffffff1663c865992b8b6040518263ffffffff167c0100000000000000000000000000000000000000000000000000000000028152600401808263ffffffff1663ffffffff168152602001915050602060405180830381600087803b15801561114257600080fd5b505af1158015611156573d6000803e3d6000fd5b505050506040513d602081101561116c57600080fd5b810190808051906020019092919050505060ff16975061118c8d8d6115d9565b9650965061119c8d8d89896116cc565b9450945094506111b685858989878d63ffffffff16611821565b91506111ca8585858c63ffffffff16611886565b9050611256600460008f6000191660001916815260200190815260200160002060080160009054906101000a900473ffffffffffffffffffffffffffffffffffffffff16600460008f6000191660001916815260200190815260200160002060080160009054906101000a900473ffffffffffffffffffffffffffffffffffffffff168d8d8686611900565b60606040519081016040528061127389898c63ffffffff1661206b565b815260200183815260200182815250600660008f8f6040516020018083600019166000191681526020018260001916600019168152602001925050506040516020818303038152906040526040518082805190602001908083835b6020831015156112f357805182526020820191506020810190506020830392506112ce565b6001836020036101000a03801982511681845116808217855250505050505090500191505060405180910390206000191660001916815260200190815260200160002060008201518160000155602082015181600101556040820151816002015590505050505050505050505050505050565b6000809054906101000a900473ffffffffffffffffffffffffffffffffffffffff1681565b60046020528060005260406000206000915090508060000160009054906101000a900460ff16908060000160019054906101000a900460ff16908060000160029054906101000a900467ffffffffffffffff169080600001600a9054906101000a900467ffffffffffffffff16908060010154908060020154908060030154908060040154908060050154908060060154908060070154908060080160009054906101000a900473ffffffffffffffffffffffffffffffffffffffff1690508c565b60066020528060005260406000206000915090508060000154908060010154908060020154905083565b6000600190509392505050565b6000809054906101000a900473ffffffffffffffffffffffffffffffffffffffff1673ffffffffffffffffffffffffffffffffffffffff163373ffffffffffffffffffffffffffffffffffffffff161415156114df57600080fd5b600073ffffffffffffffffffffffffffffffffffffffff168173ffffffffffffffffffffffffffffffffffffffff161415151561151b57600080fd5b8073ffffffffffffffffffffffffffffffffffffffff166000809054906101000a900473ffffffffffffffffffffffffffffffffffffffff1673ffffffffffffffffffffffffffffffffffffffff167f8be0079c531659141344cd1fd0a4f28419497f9722a3daafe3b4186f6b6457e060405160405180910390a3806000806101000a81548173ffffffffffffffffffffffffffffffffffffffff021916908373ffffffffffffffffffffffffffffffffffffffff16021790555050565b6000806000806000600460008760001916600019168152602001908152602001600020600201546004600089600019166000191681526020019081526020016000206002015403600a0a600460008960001916600019168152602001908152602001600020600101540292506004600087600019166000191681526020019081526020016000206002015491508260046000886000191660001916815260200190815260200160002060010154019050600060028281151561169757fe5b0614156116b5576002818115156116aa57fe5b0482945094506116c2565b6005810260018303945094505b5050509250929050565b600080600080600061171e600460008b6000191660001916815260200190815260200160002060030154600460008c60001916600019168152602001908152602001600020600401546001600c611886565b915061176c600460008a6000191660001916815260200190815260200160002060030154600460008b600019166000191681526020019081526020016000206004015489896001600c611821565b9050808210156117cb5760c8600460008b60001916600019168152602001908152602001600020600301540286600c601a600460008e600019166000191681526020019081526020016000206004015401010388945094509450611815565b60046000896000191660001916815260200190815260200160002060030154600460008a600019166000191681526020019081526020016000206004015460018090509450945094505b50509450945094915050565b60008060008060028860058c02020292506036878a8701010391506000821215156118535781600a0a83029050611868565b81600003600a0a8381151561186457fe5b0490505b858181151561187357fe5b0490508093505050509695505050505050565b6000806000806000886002029350859250600d915060008812156118b15787600003820191506118b7565b87830192505b81831015156118cf57818303600a0a840290506118e3565b828203600a0a848115156118df57fe5b0490505b86818115156118ee57fe5b04905080945050505050949350505050565b600080600260009054906101000a900473ffffffffffffffffffffffffffffffffffffffff1673ffffffffffffffffffffffffffffffffffffffff166329debc9f876040518263ffffffff167c0100000000000000000000000000000000000000000000000000000000028152600401808263ffffffff1663ffffffff168152602001915050602060405180830381600087803b1580156119a057600080fd5b505af11580156119b4573d6000803e3d6000fd5b505050506040513d60208110156119ca57600080fd5b81019080805190602001909291905050509150600260009054906101000a900473ffffffffffffffffffffffffffffffffffffffff1673ffffffffffffffffffffffffffffffffffffffff166329debc9f866040518263ffffffff167c0100000000000000000000000000000000000000000000000000000000028152600401808263ffffffff1663ffffffff168152602001915050602060405180830381600087803b158015611a7a57600080fd5b505af1158015611a8e573d6000803e3d6000fd5b505050506040513d6020811015611aa457600080fd5b81019080805190602001909291905050509050600360009054906101000a900473ffffffffffffffffffffffffffffffffffffffff1673ffffffffffffffffffffffffffffffffffffffff166352fedefa8983876040518463ffffffff167c0100000000000000000000000000000000000000000000000000000000028152600401808473ffffffffffffffffffffffffffffffffffffffff1673ffffffffffffffffffffffffffffffffffffffff1681526020018373ffffffffffffffffffffffffffffffffffffffff1673ffffffffffffffffffffffffffffffffffffffff1681526020018281526020019350505050600060405180830381600087803b158015611bb057600080fd5b505af1158015611bc4573d6000803e3d6000fd5b50505050600360009054906101000a900473ffffffffffffffffffffffffffffffffffffffff1673ffffffffffffffffffffffffffffffffffffffff166352fedefa8884866040518463ffffffff167c0100000000000000000000000000000000000000000000000000000000028152600401808473ffffffffffffffffffffffffffffffffffffffff1673ffffffffffffffffffffffffffffffffffffffff1681526020018373ffffffffffffffffffffffffffffffffffffffff1673ffffffffffffffffffffffffffffffffffffffff1681526020018281526020019350505050600060405180830381600087803b158015611cc157600080fd5b505af1158015611cd5573d6000803e3d6000fd5b50505050600360009054906101000a900473ffffffffffffffffffffffffffffffffffffffff1673ffffffffffffffffffffffffffffffffffffffff16632b15e8578883876040518463ffffffff167c0100000000000000000000000000000000000000000000000000000000028152600401808473ffffffffffffffffffffffffffffffffffffffff1673ffffffffffffffffffffffffffffffffffffffff1681526020018373ffffffffffffffffffffffffffffffffffffffff1673ffffffffffffffffffffffffffffffffffffffff1681526020018281526020019350505050600060405180830381600087803b158015611dd257600080fd5b505af1158015611de6573d6000803e3d6000fd5b50505050600360009054906101000a900473ffffffffffffffffffffffffffffffffffffffff1673ffffffffffffffffffffffffffffffffffffffff16632b15e8578984866040518463ffffffff167c0100000000000000000000000000000000000000000000000000000000028152600401808473ffffffffffffffffffffffffffffffffffffffff1673ffffffffffffffffffffffffffffffffffffffff1681526020018373ffffffffffffffffffffffffffffffffffffffff1673ffffffffffffffffffffffffffffffffffffffff1681526020018281526020019350505050600060405180830381600087803b158015611ee357600080fd5b505af1158015611ef7573d6000803e3d6000fd5b505050507fe6d64cac65c05a9715c20bfc2ed8851bfe1c155b6cd1ee42d313d0880fc48b9f88888787604051808573ffffffffffffffffffffffffffffffffffffffff1673ffffffffffffffffffffffffffffffffffffffff1681526020018473ffffffffffffffffffffffffffffffffffffffff1673ffffffffffffffffffffffffffffffffffffffff1681526020018363ffffffff1663ffffffff16815260200182815260200194505050505060405180910390a17fe6d64cac65c05a9715c20bfc2ed8851bfe1c155b6cd1ee42d313d0880fc48b9f87898886604051808573ffffffffffffffffffffffffffffffffffffffff1673ffffffffffffffffffffffffffffffffffffffff1681526020018473ffffffffffffffffffffffffffffffffffffffff1673ffffffffffffffffffffffffffffffffffffffff1681526020018363ffffffff1663ffffffff16815260200182815260200194505050505060405180910390a15050505050505050565b60008060008060058702925060298686010391506000821215156120965781600a0a830290506120ab565b81600003600a0a838115156120a757fe5b0490505b8093505050509392505050565b61018060405190810160405280600060ff168152602001600060ff168152602001600067ffffffffffffffff168152602001600067ffffffffffffffff16815260200160008152602001600081526020016000815260200160008152602001600081526020016000815260200160008152602001600073ffffffffffffffffffffffffffffffffffffffff16815250905600a165627a7a72305820378063e2209eea27ff2e3b96f3474d4154cdac23499dae2891a59a3badc244730029",
  "source": "pragma solidity ^0.4.24;\n\nimport \"zeppelin-solidity/contracts/token/ERC20/ERC20.sol\";\nimport \"zeppelin-solidity/contracts/math/SafeMath.sol\";\nimport \"zeppelin-solidity/contracts/ownership/Ownable.sol\";\n\nimport \"../RenLedger.sol\";\nimport \"./RenExBalances.sol\";\nimport \"./RenExTokens.sol\";\n\n/**\n@title The contract responsible for holding trader funds and settling matched\norder values\n@author Republic Protocol\n*/\ncontract RenExSettlement is Ownable {\n    using SafeMath for uint256;\n\n    RenLedger renLedgerContract;\n    RenExTokens renExTokensContract;\n    RenExBalances renExBalancesContract;\n\n    enum OrderType {Midpoint, Limit}\n    enum OrderParity {Buy, Sell}\n    enum OrderStatus {None, Submitted, Matched}\n\n    struct Order {\n        uint8 parity;\n        uint8 orderType;\n        uint64 expiry;\n        uint64 tokens;        \n        uint256 priceC; uint256 priceQ;\n        uint256 volumeC; uint256 volumeQ;\n        uint256 minimumVolumeC; uint256 minimumVolumeQ;\n        uint256 nonceHash;\n        address trader;\n    }\n\n    struct Match {\n        uint256 price;\n        uint256 lowVolume;\n        uint256 highVolume;\n    }\n\n    // Events\n    event Transfer(address from, address to, uint32 token, uint256 value);\n    event Debug256(string msg, uint256 num);\n    event Debugi256(string msg, int256 num);\n    event Debug(string msg);\n    event DebugTuple(string msg, uint256 c, uint256 q);\n    event DebugTupleI(string msg, uint256 c, int256 q);\n\n\n    // Storage\n    mapping(bytes32 => Order) public orders;\n    mapping(bytes32 => OrderStatus) private orderStatuses;\n    mapping(bytes32 => Match) public matches;\n\n    /**\n    @notice constructor\n    @param _renLedgerContract the address of the RenLedger contract\n    @param _renExBalancesContract the address of the RenExBalances contract\n    @param _renExTokensContract the address of the RenExTokens contract\n    */\n    constructor(RenLedger _renLedgerContract, RenExTokens _renExTokensContract, RenExBalances _renExBalancesContract) public {\n        renLedgerContract = _renLedgerContract;\n        renExTokensContract = _renExTokensContract;\n        renExBalancesContract = _renExBalancesContract;\n    }\n\n\n    /********** WITHDRAWAL FUNCTIONS ******************************************/\n\n    function traderCanWithdraw(address _trader, address _token, uint256 amount) public returns (bool) {\n        // In the future, this will return true (i.e. invalid withdrawal) if the\n        // trader has open orders for that token\n        return true;\n    }\n\n\n\n    /********** SETTLEMENT FUNCTIONS ******************************************/\n    \n    // Price/volume calculation functions\n\n    function priceMidPoint(bytes32 buyID, bytes32 sellID) private view returns (uint256, int256) {\n        // Normalize to same exponent before finding mid-point (mean)\n        // Common exponent is 0 (to ensure division doesn't lose details)\n        // uint256 norm1 = orders[buyID].priceC * 10 ** (orders[buyID].priceQ);\n        // uint256 norm2 = orders[sellID].priceC * 10 ** (orders[sellID].priceQ);\n        // return ((norm1 + norm2) / 2, 0);\n        uint256 norm = orders[buyID].priceC * 10 ** (orders[buyID].priceQ - orders[sellID].priceQ);\n        int256 q = int256(orders[sellID].priceQ);\n        uint256 sum = (orders[sellID].priceC + norm);\n        if (sum % 2 == 0) {\n            return (sum / 2, q);\n        } else {\n            // To not lose the .5 for odd numbers, multiply by 5 and subtract from q\n            return (sum * (10 / 2), q - 1);\n        }\n    }\n\n    function minimumVolume(bytes32 buyID, bytes32 sellID, uint256 priceC, int256 priceQ)\n    private view returns (uint256, int256, uint256) {        \n        uint256 buyV = tupleToVolume(orders[buyID].volumeC, int256(orders[buyID].volumeQ), 1, 12);\n        uint256 sellV = tupleToScaledVolume(orders[sellID].volumeC, int256(orders[sellID].volumeQ), priceC, priceQ, 1, 12);\n\n        if (buyV < sellV) {\n            // Instead of dividing the constant by priceC, we delay the division\n            // until the recombining c and q, to ensure that minimal precision\n            // is lost\n            return (orders[buyID].volumeC * 200, int256(orders[buyID].volumeQ + 26 + 12) - priceQ, priceC);\n        } else {\n            return (orders[sellID].volumeC, int256(orders[sellID].volumeQ), 1);\n        }\n    }\n\n    function tupleToScaledVolume(uint256 volC, int256 volQ, uint256 priceC, int256 priceQ, uint256 divideC, uint256 decimals)\n    private pure returns (uint256) {\n        // 0.2 turns into 2 * 10**-1 (-1 moved to exponent)\n        // 0.005 turns into 5 * 10**-3 (-3 moved to exponent)\n        uint256 c = volC * 5 * priceC * 2;\n\n        int256 e = int256(decimals) + volQ + priceQ - (26 + 12 + 3 + 12 + 1);\n\n        // If (ep-en) is negative, divide instead of multiplying\n        uint256 value;\n        if (e >= 0) {\n            value = c * 10 ** uint256(e);\n        } else {\n            value = c / 10 ** uint256(-e);            \n        }\n\n        value = value / divideC;\n\n        return value;\n    }\n\n    function tupleToPrice(uint256 priceC, int256 priceQ, uint256 decimals)\n    private pure returns (uint256) {\n        // 0.2 turns into 2 * 10**-1 (-1 moved to exponent)\n        // 0.005 turns into 5 * 10**-3 (-3 moved to exponent)\n        uint256 c = priceC * 5;\n\n        int256 e = int256(decimals) + priceQ - (26 + 12 + 3);\n\n        // If (ep-en) is negative, divide instead of multiplying\n        uint256 value;\n        if (e >= 0) {\n            value = c * 10 ** uint256(e);\n        } else {\n            value = c / 10 ** uint256(-e);            \n        }\n\n        return value;\n    }\n\n\n    function tupleToVolume(uint256 volC, int256 volQ, uint256 divideC, uint256 decimals) private pure returns (uint256) {\n        // 0.2 turns into 2 * 10**-1 (-1 moved to exponent)\n        uint256 c = 2 * volC;\n\n        // Positive and negative components of exponent                \n        uint256 ep = decimals;\n        uint256 en = 12 + 1;\n        // Add volQ to positive or negative component based on its sign        \n        if (volQ < 0) {\n            en += uint256(-volQ);\n        } else {\n            ep += uint256(volQ);\n        }\n\n        // If (ep-en) is negative, divide instead of multiplying  \n        uint256 value;              \n        if (ep >= en) {\n            value = c * 10 ** (ep - en);\n        } else {\n            value = c / 10 ** (en - ep);\n        }\n\n        value = value / divideC;\n\n        return value;\n    }\n\n    // Ensure this remains private\n    function finalizeMatch(\n        address buyer, address seller,\n        uint32 buyToken, uint32 sellToken,\n        uint256 lowTokenValue, uint256 highTokenValue\n    ) private {\n        address buyTokenAddress = renExTokensContract.tokenAddresses(buyToken);        \n        address sellTokenAddress = renExTokensContract.tokenAddresses(sellToken);\n\n        // Subtract values\n        renExBalancesContract.decrementBalance(buyer, sellTokenAddress, lowTokenValue);\n        renExBalancesContract.decrementBalance(seller, buyTokenAddress, highTokenValue);\n\n        // Add values\n        renExBalancesContract.incrementBalance(seller, sellTokenAddress, lowTokenValue);\n        renExBalancesContract.incrementBalance(buyer, buyTokenAddress, highTokenValue);\n\n        emit Transfer(buyer, seller, sellToken, lowTokenValue);\n        emit Transfer(seller, buyer, buyToken, highTokenValue);\n    }\n\n\n\n    // // TODO: Implement\n    // function hashOrder(Order order) private pure returns (bytes32) {\n    //     return keccak256(\n    //         abi.encodePacked(\n    //             order.orderType,\n    //             order.parity,\n    //             order.expiry,\n    //             order.tokens,\n    //             order.priceC, order.priceQ,\n    //             order.volumeC, order.volumeQ,\n    //             order.minimumVolumeC, order.minimumVolumeQ,\n    //             order.nonceHash\n    //         )\n    //     );\n    // }\n\n\n\n\n    /**\n    @notice Stores the details of an order\n    @param _id (TODO: calculate based on other parameters)\n    @param _orderType one of Midpoint or Limit\n    @param _parity one of Buy or Sell\n    @param _expiry the expiry date of the order in seconds since Unix epoch\n    @param _tokens two 32-bit token codes concatenated (with the lowest first)\n    @param _priceC the constant in the price tuple\n    @param _priceQ the exponent in the price tuple\n    @param _volumeC the constant in the volume tuple\n    @param _volumeQ the exponent in the volume tuple\n    @param _minimumVolumeC the constant in the minimum-volume tuple\n    @param _minimumVolumeQ the exponent in the minimum-volume tuple\n    @param _nonceHash the keccak256 hash of a random 32 byte value\n    */\n    function submitOrder(\n        bytes32 _id,\n        uint8 _orderType,\n        uint8 _parity,\n        uint64 _expiry,\n        uint64 _tokens,\n        uint16 _priceC, uint16 _priceQ,\n        uint16 _volumeC, uint16 _volumeQ,\n        uint16 _minimumVolumeC, uint16 _minimumVolumeQ,\n        uint256 _nonceHash\n    ) public {\n\n        Order memory order = Order({\n            orderType: _orderType,\n            parity: _parity,\n            expiry: _expiry,\n            tokens: _tokens,\n            priceC: _priceC, priceQ: _priceQ,\n            volumeC: _volumeC, volumeQ: _volumeQ,\n            minimumVolumeC: _minimumVolumeC, minimumVolumeQ: _minimumVolumeQ,\n            nonceHash: _nonceHash,\n            trader: 0x0 // Set after ID is calculated\n        });\n\n        // FIXME: Implement order hashing\n        // bytes32 id = hashOrder(order);\n\n        require(orderStatuses[_id] == OrderStatus.None);\n        orderStatuses[_id] = OrderStatus.Submitted;\n\n        order.trader = renLedgerContract.orderTrader(_id);\n\n\n        orders[_id] = order;\n    }\n\n    function verifyMatch(bytes32 _buyID, bytes32 _sellID) public view returns (uint32, uint32) {\n        require(orderStatuses[_buyID] == OrderStatus.Submitted);\n        require(orderStatuses[_sellID] == OrderStatus.Submitted);\n\n        // Require that the orders are confirmed to one another\n        require(orders[_buyID].parity == uint8(OrderParity.Buy));\n        require(orders[_sellID].parity == uint8(OrderParity.Sell));\n        require(renLedgerContract.orderState(_buyID) == 2);\n        require(renLedgerContract.orderState(_sellID) == 2);\n        \n        // TODO: Loop through and check at all indices\n        require(renLedgerContract.orderMatch(_buyID)[0] == _sellID);\n\n        uint32 buyToken = uint32(orders[_sellID].tokens);\n        uint32 sellToken = uint32(orders[_sellID].tokens >> 32);\n\n        require(renExTokensContract.tokenIsRegistered(buyToken));\n        require(renExTokensContract.tokenIsRegistered(sellToken));\n    }\n\n    /**\n    @notice Settles two orders that are matched. `submitOrder` must have been\n    called for each order before this function is called\n    @param _buyID the 32 byte ID of the buy order\n    @param _sellID the 32 byte ID of the sell order\n    */\n    function submitMatch(bytes32 _buyID, bytes32 _sellID) public {\n        // Verify match\n        verifyMatch(_buyID, _sellID);\n\n        uint32 buyToken = uint32(orders[_sellID].tokens);\n        uint32 sellToken = uint32(orders[_sellID].tokens >> 32);\n\n        orderStatuses[_buyID] = OrderStatus.Matched;\n        orderStatuses[_sellID] = OrderStatus.Matched;\n\n        uint32 buyTokenDecimals = renExTokensContract.tokenDecimals(buyToken);\n        uint32 sellTokenDecimals = renExTokensContract.tokenDecimals(sellToken);\n\n        // Price midpoint\n        (uint256 midPriceC, int256 midPriceQ) = priceMidPoint(_buyID, _sellID);\n\n        (uint256 minVolC, int256 minVolQ, uint256 divideC) = minimumVolume(_buyID, _sellID, midPriceC, midPriceQ);\n\n        uint256 lowTokenValue = tupleToScaledVolume(minVolC, minVolQ, midPriceC, midPriceQ, divideC, sellTokenDecimals);\n\n        uint256 highTokenValue = tupleToVolume(minVolC, minVolQ, divideC, buyTokenDecimals);\n\n        finalizeMatch(orders[_buyID].trader, orders[_sellID].trader, buyToken, sellToken, lowTokenValue, highTokenValue);\n\n        matches[keccak256(abi.encodePacked(_buyID, _sellID))] = Match({\n            price: tupleToPrice(midPriceC, midPriceQ, sellTokenDecimals),\n            lowVolume: lowTokenValue,\n            highVolume: highTokenValue\n        });\n    }\n}",
  "sourcePath": "/home/noah/github/republicprotocol/republic-sol/contracts/RenEx/RenExSettlement.sol",
  "compiler": {
    "name": "solc",
    "version": "0.4.24+commit.e67f0147.Emscripten.clang"
  },
  "schemaVersion": "2.0.0",
  "updatedAt": "2018-06-14T04:47:48.180Z"
}