{
  "contractName": "RenExSettlement",
  "abi": [
    {
      "constant": true,
      "inputs": [],
      "name": "identifier",
      "outputs": [
        {
          "name": "",
          "type": "uint32"
        }
      ],
      "payable": false,
      "stateMutability": "view",
      "type": "function"
    },
    {
      "constant": true,
      "inputs": [],
      "name": "owner",
      "outputs": [
        {
          "name": "",
          "type": "address"
        }
      ],
      "payable": false,
      "stateMutability": "view",
      "type": "function"
    },
    {
      "constant": true,
      "inputs": [
        {
          "name": "",
          "type": "bytes32"
        }
      ],
      "name": "orders",
      "outputs": [
        {
          "name": "parity",
          "type": "uint8"
        },
        {
          "name": "orderType",
          "type": "uint8"
        },
        {
          "name": "expiry",
          "type": "uint64"
        },
        {
          "name": "tokens",
          "type": "uint64"
        },
        {
          "name": "priceC",
          "type": "uint64"
        },
        {
          "name": "priceQ",
          "type": "uint64"
        },
        {
          "name": "volumeC",
          "type": "uint64"
        },
        {
          "name": "volumeQ",
          "type": "uint64"
        },
        {
          "name": "minimumVolumeC",
          "type": "uint64"
        },
        {
          "name": "minimumVolumeQ",
          "type": "uint64"
        },
        {
          "name": "nonceHash",
          "type": "uint256"
        },
        {
          "name": "trader",
          "type": "address"
        },
        {
          "name": "submitter",
          "type": "address"
        }
      ],
      "payable": false,
      "stateMutability": "view",
      "type": "function"
    },
    {
      "constant": false,
      "inputs": [
        {
          "name": "newOwner",
          "type": "address"
        }
      ],
      "name": "transferOwnership",
      "outputs": [],
      "payable": false,
      "stateMutability": "nonpayable",
      "type": "function"
    },
    {
      "inputs": [
        {
          "name": "_orderbookContract",
          "type": "address"
        },
        {
          "name": "_renExTokensContract",
          "type": "address"
        },
        {
          "name": "_renExBalancesContract",
          "type": "address"
        }
      ],
      "payable": false,
      "stateMutability": "nonpayable",
      "type": "constructor"
    },
    {
      "anonymous": false,
      "inputs": [
        {
          "indexed": false,
          "name": "from",
          "type": "address"
        },
        {
          "indexed": false,
          "name": "to",
          "type": "address"
        },
        {
          "indexed": false,
          "name": "token",
          "type": "uint32"
        },
        {
          "indexed": false,
          "name": "value",
          "type": "uint256"
        }
      ],
      "name": "Transfer",
      "type": "event"
    },
    {
      "anonymous": false,
      "inputs": [
        {
          "indexed": false,
          "name": "msg",
          "type": "string"
        },
        {
          "indexed": false,
          "name": "num",
          "type": "uint256"
        }
      ],
      "name": "Debug256",
      "type": "event"
    },
    {
      "anonymous": false,
      "inputs": [
        {
          "indexed": false,
          "name": "msg",
          "type": "string"
        },
        {
          "indexed": false,
          "name": "b",
          "type": "bytes32"
        }
      ],
      "name": "Debug32",
      "type": "event"
    },
    {
      "anonymous": false,
      "inputs": [
        {
          "indexed": false,
          "name": "msg",
          "type": "string"
        },
        {
          "indexed": false,
          "name": "addr",
          "type": "address"
        }
      ],
      "name": "DebugAddress",
      "type": "event"
    },
    {
      "anonymous": false,
      "inputs": [
        {
          "indexed": false,
          "name": "msg",
          "type": "string"
        },
        {
          "indexed": false,
          "name": "b",
          "type": "bytes"
        }
      ],
      "name": "DebugBytes",
      "type": "event"
    },
    {
      "anonymous": false,
      "inputs": [
        {
          "indexed": false,
          "name": "msg",
          "type": "string"
        },
        {
          "indexed": false,
          "name": "num",
          "type": "int256"
        }
      ],
      "name": "Debugi256",
      "type": "event"
    },
    {
      "anonymous": false,
      "inputs": [
        {
          "indexed": false,
          "name": "msg",
          "type": "string"
        }
      ],
      "name": "Debug",
      "type": "event"
    },
    {
      "anonymous": false,
      "inputs": [
        {
          "indexed": false,
          "name": "msg",
          "type": "string"
        },
        {
          "indexed": false,
          "name": "c",
          "type": "uint256"
        },
        {
          "indexed": false,
          "name": "q",
          "type": "uint256"
        }
      ],
      "name": "DebugTuple",
      "type": "event"
    },
    {
      "anonymous": false,
      "inputs": [
        {
          "indexed": false,
          "name": "msg",
          "type": "string"
        },
        {
          "indexed": false,
          "name": "c",
          "type": "uint256"
        },
        {
          "indexed": false,
          "name": "q",
          "type": "int256"
        }
      ],
      "name": "DebugTupleI",
      "type": "event"
    },
    {
      "anonymous": false,
      "inputs": [
        {
          "indexed": true,
          "name": "previousOwner",
          "type": "address"
        },
        {
          "indexed": true,
          "name": "newOwner",
          "type": "address"
        }
      ],
      "name": "OwnershipTransferred",
      "type": "event"
    },
    {
      "constant": false,
      "inputs": [
        {
          "name": "_trader",
          "type": "address"
        },
        {
          "name": "_token",
          "type": "address"
        },
        {
          "name": "amount",
          "type": "uint256"
        }
      ],
      "name": "traderCanWithdraw",
      "outputs": [
        {
          "name": "",
          "type": "bool"
        }
      ],
      "payable": false,
      "stateMutability": "nonpayable",
      "type": "function"
    },
    {
      "constant": false,
      "inputs": [
        {
          "name": "_orderType",
          "type": "uint8"
        },
        {
          "name": "_parity",
          "type": "uint8"
        },
        {
          "name": "_expiry",
          "type": "uint64"
        },
        {
          "name": "_tokens",
          "type": "uint64"
        },
        {
          "name": "_priceC",
          "type": "uint16"
        },
        {
          "name": "_priceQ",
          "type": "uint16"
        },
        {
          "name": "_volumeC",
          "type": "uint16"
        },
        {
          "name": "_volumeQ",
          "type": "uint16"
        },
        {
          "name": "_minimumVolumeC",
          "type": "uint16"
        },
        {
          "name": "_minimumVolumeQ",
          "type": "uint16"
        },
        {
          "name": "_nonceHash",
          "type": "uint256"
        }
      ],
      "name": "submitOrder",
      "outputs": [],
      "payable": false,
      "stateMutability": "nonpayable",
      "type": "function"
    },
    {
      "constant": true,
      "inputs": [
        {
          "name": "_buyID",
          "type": "bytes32"
        },
        {
          "name": "_sellID",
          "type": "bytes32"
        }
      ],
      "name": "verifyMatch",
      "outputs": [
        {
          "name": "",
          "type": "uint32"
        },
        {
          "name": "",
          "type": "uint32"
        }
      ],
      "payable": false,
      "stateMutability": "view",
      "type": "function"
    },
    {
      "constant": false,
      "inputs": [
        {
          "name": "_buyID",
          "type": "bytes32"
        },
        {
          "name": "_sellID",
          "type": "bytes32"
        }
      ],
      "name": "submitMatch",
      "outputs": [],
      "payable": false,
      "stateMutability": "nonpayable",
      "type": "function"
    },
    {
      "constant": true,
      "inputs": [
        {
          "name": "_buyID",
          "type": "bytes32"
        },
        {
          "name": "_sellID",
          "type": "bytes32"
        }
      ],
      "name": "getSettlementDetails",
      "outputs": [
        {
          "name": "",
          "type": "uint256"
        },
        {
          "name": "",
          "type": "uint256"
        },
        {
          "name": "",
          "type": "uint256"
        },
        {
          "name": "",
          "type": "uint256"
        },
        {
          "name": "",
          "type": "uint256"
        }
      ],
      "payable": false,
      "stateMutability": "view",
      "type": "function"
    },
    {
      "constant": true,
      "inputs": [
        {
          "name": "_buyID",
          "type": "bytes32"
        },
        {
          "name": "_sellID",
          "type": "bytes32"
        }
      ],
      "name": "getMidPrice",
      "outputs": [
        {
          "name": "",
          "type": "uint256"
        }
      ],
      "payable": false,
      "stateMutability": "view",
      "type": "function"
    }
  ],
  "bytecode": "0x608060405260026001556103e860025534801561001b57600080fd5b50604051606080612c9b833981018060405281019080805190602001909291908051906020019092919080519060200190929190505050336000806101000a81548173ffffffffffffffffffffffffffffffffffffffff021916908373ffffffffffffffffffffffffffffffffffffffff16021790555082600360006101000a81548173ffffffffffffffffffffffffffffffffffffffff021916908373ffffffffffffffffffffffffffffffffffffffff16021790555081600460006101000a81548173ffffffffffffffffffffffffffffffffffffffff021916908373ffffffffffffffffffffffffffffffffffffffff16021790555080600560006101000a81548173ffffffffffffffffffffffffffffffffffffffff021916908373ffffffffffffffffffffffffffffffffffffffff160217905550505050612b34806101676000396000f3006080604052600436106100a4576000357c0100000000000000000000000000000000000000000000000000000000900463ffffffff1680631f88d9c7146100a95780632a337d301461011b578063367ba52c1461015a5780637998a1c41461021d5780638da5cb5b146102545780638fac5ff5146102ab5780639c3f1e90146102fe578063a3bdaedc1461049b578063eb534ea014610520578063f2fde38b1461058f575b600080fd5b3480156100b557600080fd5b506100e6600480360381019080803560001916906020019092919080356000191690602001909291905050506105d2565b604051808363ffffffff1663ffffffff1681526020018263ffffffff1663ffffffff1681526020019250505060405180910390f35b34801561012757600080fd5b5061015860048036038101908080356000191690602001909291908035600019169060200190929190505050610c79565b005b34801561016657600080fd5b5061021b600480360381019080803560ff169060200190929190803560ff169060200190929190803567ffffffffffffffff169060200190929190803567ffffffffffffffff169060200190929190803561ffff169060200190929190803561ffff169060200190929190803561ffff169060200190929190803561ffff169060200190929190803561ffff169060200190929190803561ffff16906020019092919080359060200190929190505050610d2d565b005b34801561022957600080fd5b5061023261127e565b604051808263ffffffff1663ffffffff16815260200191505060405180910390f35b34801561026057600080fd5b50610269611283565b604051808273ffffffffffffffffffffffffffffffffffffffff1673ffffffffffffffffffffffffffffffffffffffff16815260200191505060405180910390f35b3480156102b757600080fd5b506102e8600480360381019080803560001916906020019092919080356000191690602001909291905050506112a8565b6040518082815260200191505060405180910390f35b34801561030a57600080fd5b5061032d60048036038101908080356000191690602001909291905050506113ff565b604051808e60ff1660ff1681526020018d60ff1660ff1681526020018c67ffffffffffffffff1667ffffffffffffffff1681526020018b67ffffffffffffffff1667ffffffffffffffff1681526020018a67ffffffffffffffff1667ffffffffffffffff1681526020018967ffffffffffffffff1667ffffffffffffffff1681526020018867ffffffffffffffff1667ffffffffffffffff1681526020018767ffffffffffffffff1667ffffffffffffffff1681526020018667ffffffffffffffff1667ffffffffffffffff1681526020018567ffffffffffffffff1667ffffffffffffffff1681526020018481526020018373ffffffffffffffffffffffffffffffffffffffff1673ffffffffffffffffffffffffffffffffffffffff1681526020018273ffffffffffffffffffffffffffffffffffffffff1673ffffffffffffffffffffffffffffffffffffffff1681526020019d505050505050505050505050505060405180910390f35b3480156104a757600080fd5b50610506600480360381019080803573ffffffffffffffffffffffffffffffffffffffff169060200190929190803573ffffffffffffffffffffffffffffffffffffffff1690602001909291908035906020019092919050505061155f565b604051808215151515815260200191505060405180910390f35b34801561052c57600080fd5b5061055d6004803603810190808035600019169060200190929190803560001916906020019092919050505061156c565b604051808681526020018581526020018481526020018381526020018281526020019550505050505060405180910390f35b34801561059b57600080fd5b506105d0600480360381019080803573ffffffffffffffffffffffffffffffffffffffff16906020019092919050505061166a565b005b600080600080600160028111156105e557fe5b60076000886000191660001916815260200190815260200160002060009054906101000a900460ff16600281111561061957fe5b14151561062557600080fd5b6001600281111561063257fe5b60076000876000191660001916815260200190815260200160002060009054906101000a900460ff16600281111561066657fe5b14151561067257600080fd5b6000600181111561067f57fe5b60ff1660066000886000191660001916815260200190815260200160002060000160009054906101000a900460ff1660ff161415156106bd57600080fd5b6001808111156106c957fe5b60ff1660066000876000191660001916815260200190815260200160002060000160009054906101000a900460ff1660ff1614151561070757600080fd5b6002600360009054906101000a900473ffffffffffffffffffffffffffffffffffffffff1673ffffffffffffffffffffffffffffffffffffffff1663aab14d04886040518263ffffffff167c0100000000000000000000000000000000000000000000000000000000028152600401808260001916600019168152602001915050602060405180830381600087803b1580156107a257600080fd5b505af11580156107b6573d6000803e3d6000fd5b505050506040513d60208110156107cc57600080fd5b810190808051906020019092919050505060ff161415156107ec57600080fd5b6002600360009054906101000a900473ffffffffffffffffffffffffffffffffffffffff1673ffffffffffffffffffffffffffffffffffffffff1663aab14d04876040518263ffffffff167c0100000000000000000000000000000000000000000000000000000000028152600401808260001916600019168152602001915050602060405180830381600087803b15801561088757600080fd5b505af115801561089b573d6000803e3d6000fd5b505050506040513d60208110156108b157600080fd5b810190808051906020019092919050505060ff161415156108d157600080fd5b8460001916600360009054906101000a900473ffffffffffffffffffffffffffffffffffffffff1673ffffffffffffffffffffffffffffffffffffffff1663af3e8a40886040518263ffffffff167c0100000000000000000000000000000000000000000000000000000000028152600401808260001916600019168152602001915050600060405180830381600087803b15801561096f57600080fd5b505af1158015610983573d6000803e3d6000fd5b505050506040513d6000823e3d601f19601f8201168201806040525060208110156109ad57600080fd5b8101908080516401000000008111156109c557600080fd5b828101905060208101848111156109db57600080fd5b81518560208202830111640100000000821117156109f857600080fd5b50509291905050506000815181101515610a0e57fe5b9060200190602002015160001916141515610a2857600080fd5b600660008660001916600019168152602001908152602001600020600001600a9054906101000a900467ffffffffffffffff1691506020600660008760001916600019168152602001908152602001600020600001600a9054906101000a900467ffffffffffffffff1667ffffffffffffffff169060020a90049050600460009054906101000a900473ffffffffffffffffffffffffffffffffffffffff1673ffffffffffffffffffffffffffffffffffffffff1663329ed381836040518263ffffffff167c0100000000000000000000000000000000000000000000000000000000028152600401808263ffffffff1663ffffffff168152602001915050602060405180830381600087803b158015610b4157600080fd5b505af1158015610b55573d6000803e3d6000fd5b505050506040513d6020811015610b6b57600080fd5b81019080805190602001909291905050501515610b8757600080fd5b600460009054906101000a900473ffffffffffffffffffffffffffffffffffffffff1673ffffffffffffffffffffffffffffffffffffffff1663329ed381826040518263ffffffff167c0100000000000000000000000000000000000000000000000000000000028152600401808263ffffffff1663ffffffff168152602001915050602060405180830381600087803b158015610c2457600080fd5b505af1158015610c38573d6000803e3d6000fd5b505050506040513d6020811015610c4e57600080fd5b81019080805190602001909291905050501515610c6a57600080fd5b81819350935050509250929050565b600080600080610c8986866105d2565b93509350610c99868686866117bf565b91509150610cab8686868686866119ec565b600260076000886000191660001916815260200190815260200160002060006101000a81548160ff02191690836002811115610ce357fe5b0217905550600260076000876000191660001916815260200190815260200160002060006101000a81548160ff02191690836002811115610d2057fe5b0217905550505050505050565b610d35612a1d565b60006101a0604051908101604052808d60ff1681526020018e60ff1681526020018c67ffffffffffffffff1681526020018b67ffffffffffffffff1681526020018a61ffff1667ffffffffffffffff1681526020018961ffff1667ffffffffffffffff1681526020018861ffff1667ffffffffffffffff1681526020018761ffff1667ffffffffffffffff1681526020018661ffff1667ffffffffffffffff1681526020018561ffff1667ffffffffffffffff168152602001848152602001600073ffffffffffffffffffffffffffffffffffffffff1681526020013373ffffffffffffffffffffffffffffffffffffffff168152509150610e3682612221565b905060006002811115610e4557fe5b60076000836000191660001916815260200190815260200160002060009054906101000a900460ff166002811115610e7957fe5b141515610e8557600080fd5b600160076000836000191660001916815260200190815260200160002060006101000a81548160ff02191690836002811115610ebd57fe5b0217905550600360009054906101000a900473ffffffffffffffffffffffffffffffffffffffff1673ffffffffffffffffffffffffffffffffffffffff1663b1a08010826040518263ffffffff167c0100000000000000000000000000000000000000000000000000000000028152600401808260001916600019168152602001915050602060405180830381600087803b158015610f5b57600080fd5b505af1158015610f6f573d6000803e3d6000fd5b505050506040513d6020811015610f8557600080fd5b810190808051906020019092919050505082610160019073ffffffffffffffffffffffffffffffffffffffff16908173ffffffffffffffffffffffffffffffffffffffff1681525050600082610160015173ffffffffffffffffffffffffffffffffffffffff1614151515610ff957600080fd5b8160066000836000191660001916815260200190815260200160002060008201518160000160006101000a81548160ff021916908360ff16021790555060208201518160000160016101000a81548160ff021916908360ff16021790555060408201518160000160026101000a81548167ffffffffffffffff021916908367ffffffffffffffff160217905550606082015181600001600a6101000a81548167ffffffffffffffff021916908367ffffffffffffffff16021790555060808201518160000160126101000a81548167ffffffffffffffff021916908367ffffffffffffffff16021790555060a08201518160010160006101000a81548167ffffffffffffffff021916908367ffffffffffffffff16021790555060c08201518160010160086101000a81548167ffffffffffffffff021916908367ffffffffffffffff16021790555060e08201518160010160106101000a81548167ffffffffffffffff021916908367ffffffffffffffff1602179055506101008201518160010160186101000a81548167ffffffffffffffff021916908367ffffffffffffffff1602179055506101208201518160020160006101000a81548167ffffffffffffffff021916908367ffffffffffffffff16021790555061014082015181600301556101608201518160040160006101000a81548173ffffffffffffffffffffffffffffffffffffffff021916908373ffffffffffffffffffffffffffffffffffffffff1602179055506101808201518160050160006101000a81548173ffffffffffffffffffffffffffffffffffffffff021916908373ffffffffffffffffffffffffffffffffffffffff16021790555090505050505050505050505050505050565b600181565b6000809054906101000a900473ffffffffffffffffffffffffffffffffffffffff1681565b60008060008060006112ba8787612527565b935093506020600660008860001916600019168152602001908152602001600020600001600a9054906101000a900467ffffffffffffffff1667ffffffffffffffff169060020a90049150600460009054906101000a900473ffffffffffffffffffffffffffffffffffffffff1673ffffffffffffffffffffffffffffffffffffffff1663c865992b836040518263ffffffff167c0100000000000000000000000000000000000000000000000000000000028152600401808263ffffffff1663ffffffff168152602001915050602060405180830381600087803b1580156113a257600080fd5b505af11580156113b6573d6000803e3d6000fd5b505050506040513d60208110156113cc57600080fd5b810190808051906020019092919050505060ff1690506113f384848363ffffffff166126a6565b94505050505092915050565b60066020528060005260406000206000915090508060000160009054906101000a900460ff16908060000160019054906101000a900460ff16908060000160029054906101000a900467ffffffffffffffff169080600001600a9054906101000a900467ffffffffffffffff16908060000160129054906101000a900467ffffffffffffffff16908060010160009054906101000a900467ffffffffffffffff16908060010160089054906101000a900467ffffffffffffffff16908060010160109054906101000a900467ffffffffffffffff16908060010160189054906101000a900467ffffffffffffffff16908060020160009054906101000a900467ffffffffffffffff16908060030154908060040160009054906101000a900473ffffffffffffffffffffffffffffffffffffffff16908060050160009054906101000a900473ffffffffffffffffffffffffffffffffffffffff1690508d565b6000600190509392505050565b600080600080600080600080600080600080600660008e60001916600019168152602001908152602001600020600001600a9054906101000a900467ffffffffffffffff1696506020600660008f60001916600019168152602001908152602001600020600001600a9054906101000a900467ffffffffffffffff1667ffffffffffffffff169060020a900495506116068e8e89896117bf565b9450945060025460015460025403860281151561161f57fe5b04925060025460015460025403850281151561163757fe5b0491506116448e8e6112a8565b90508083838588038588039b509b509b509b509b50505050505050509295509295909350565b6000809054906101000a900473ffffffffffffffffffffffffffffffffffffffff1673ffffffffffffffffffffffffffffffffffffffff163373ffffffffffffffffffffffffffffffffffffffff161415156116c557600080fd5b600073ffffffffffffffffffffffffffffffffffffffff168173ffffffffffffffffffffffffffffffffffffffff161415151561170157600080fd5b8073ffffffffffffffffffffffffffffffffffffffff166000809054906101000a900473ffffffffffffffffffffffffffffffffffffffff1673ffffffffffffffffffffffffffffffffffffffff167f8be0079c531659141344cd1fd0a4f28419497f9722a3daafe3b4186f6b6457e060405160405180910390a3806000806101000a81548173ffffffffffffffffffffffffffffffffffffffff021916908373ffffffffffffffffffffffffffffffffffffffff16021790555050565b6000806000806000806000806000806000600460009054906101000a900473ffffffffffffffffffffffffffffffffffffffff1673ffffffffffffffffffffffffffffffffffffffff1663c865992b8e6040518263ffffffff167c0100000000000000000000000000000000000000000000000000000000028152600401808263ffffffff1663ffffffff168152602001915050602060405180830381600087803b15801561186d57600080fd5b505af1158015611881573d6000803e3d6000fd5b505050506040513d602081101561189757600080fd5b810190808051906020019092919050505060ff169850600460009054906101000a900473ffffffffffffffffffffffffffffffffffffffff1673ffffffffffffffffffffffffffffffffffffffff1663c865992b8d6040518263ffffffff167c0100000000000000000000000000000000000000000000000000000000028152600401808263ffffffff1663ffffffff168152602001915050602060405180830381600087803b15801561194a57600080fd5b505af115801561195e573d6000803e3d6000fd5b505050506040513d602081101561197457600080fd5b810190808051906020019092919050505060ff1697506119948f8f612527565b965096506119a48f8f89896126f3565b9450945094506119be85858989878d63ffffffff1661293e565b91506119d28585858c63ffffffff166129a3565b905081819a509a5050505050505050505094509492505050565b600080600080600080600460009054906101000a900473ffffffffffffffffffffffffffffffffffffffff1673ffffffffffffffffffffffffffffffffffffffff166329debc9f8b6040518263ffffffff167c0100000000000000000000000000000000000000000000000000000000028152600401808263ffffffff1663ffffffff168152602001915050602060405180830381600087803b158015611a9257600080fd5b505af1158015611aa6573d6000803e3d6000fd5b505050506040513d6020811015611abc57600080fd5b81019080805190602001909291905050509550600460009054906101000a900473ffffffffffffffffffffffffffffffffffffffff1673ffffffffffffffffffffffffffffffffffffffff166329debc9f8a6040518263ffffffff167c0100000000000000000000000000000000000000000000000000000000028152600401808263ffffffff1663ffffffff168152602001915050602060405180830381600087803b158015611b6c57600080fd5b505af1158015611b80573d6000803e3d6000fd5b505050506040513d6020811015611b9657600080fd5b81019080805190602001909291905050509450600660008d6000191660001916815260200190815260200160002060050160009054906101000a900473ffffffffffffffffffffffffffffffffffffffff169350600660008c6000191660001916815260200190815260200160002060050160009054906101000a900473ffffffffffffffffffffffffffffffffffffffff169250600254600154600254038902811515611c4057fe5b049150600254600154600254038802811515611c5857fe5b049050600560009054906101000a900473ffffffffffffffffffffffffffffffffffffffff1673ffffffffffffffffffffffffffffffffffffffff166392dd79e6600660008f6000191660001916815260200190815260200160002060040160009054906101000a900473ffffffffffffffffffffffffffffffffffffffff168785868d03896040518663ffffffff167c0100000000000000000000000000000000000000000000000000000000028152600401808673ffffffffffffffffffffffffffffffffffffffff1673ffffffffffffffffffffffffffffffffffffffff1681526020018573ffffffffffffffffffffffffffffffffffffffff1673ffffffffffffffffffffffffffffffffffffffff1681526020018481526020018381526020018273ffffffffffffffffffffffffffffffffffffffff1673ffffffffffffffffffffffffffffffffffffffff16815260200195505050505050600060405180830381600087803b158015611dd057600080fd5b505af1158015611de4573d6000803e3d6000fd5b50505050600560009054906101000a900473ffffffffffffffffffffffffffffffffffffffff1673ffffffffffffffffffffffffffffffffffffffff166392dd79e6600660008e6000191660001916815260200190815260200160002060040160009054906101000a900473ffffffffffffffffffffffffffffffffffffffff168884858c03886040518663ffffffff167c0100000000000000000000000000000000000000000000000000000000028152600401808673ffffffffffffffffffffffffffffffffffffffff1673ffffffffffffffffffffffffffffffffffffffff1681526020018573ffffffffffffffffffffffffffffffffffffffff1673ffffffffffffffffffffffffffffffffffffffff1681526020018481526020018381526020018273ffffffffffffffffffffffffffffffffffffffff1673ffffffffffffffffffffffffffffffffffffffff16815260200195505050505050600060405180830381600087803b158015611f5d57600080fd5b505af1158015611f71573d6000803e3d6000fd5b50505050600560009054906101000a900473ffffffffffffffffffffffffffffffffffffffff1673ffffffffffffffffffffffffffffffffffffffff16632b15e857600660008e6000191660001916815260200190815260200160002060040160009054906101000a900473ffffffffffffffffffffffffffffffffffffffff1687856040518463ffffffff167c0100000000000000000000000000000000000000000000000000000000028152600401808473ffffffffffffffffffffffffffffffffffffffff1673ffffffffffffffffffffffffffffffffffffffff1681526020018373ffffffffffffffffffffffffffffffffffffffff1673ffffffffffffffffffffffffffffffffffffffff1681526020018281526020019350505050600060405180830381600087803b1580156120ac57600080fd5b505af11580156120c0573d6000803e3d6000fd5b50505050600560009054906101000a900473ffffffffffffffffffffffffffffffffffffffff1673ffffffffffffffffffffffffffffffffffffffff16632b15e857600660008f6000191660001916815260200190815260200160002060040160009054906101000a900473ffffffffffffffffffffffffffffffffffffffff1688846040518463ffffffff167c0100000000000000000000000000000000000000000000000000000000028152600401808473ffffffffffffffffffffffffffffffffffffffff1673ffffffffffffffffffffffffffffffffffffffff1681526020018373ffffffffffffffffffffffffffffffffffffffff1673ffffffffffffffffffffffffffffffffffffffff1681526020018281526020019350505050600060405180830381600087803b1580156121fb57600080fd5b505af115801561220f573d6000803e3d6000fd5b50505050505050505050505050505050565b60008160200151826000015160018460400151856060015186608001518760a001518860c001518960e001518a61010001518b61012001518c6101400151604051602001808d60ff1660ff167f01000000000000000000000000000000000000000000000000000000000000000281526001018c60ff1660ff167f01000000000000000000000000000000000000000000000000000000000000000281526001018b63ffffffff1663ffffffff167c01000000000000000000000000000000000000000000000000000000000281526004018a67ffffffffffffffff1667ffffffffffffffff1678010000000000000000000000000000000000000000000000000281526008018967ffffffffffffffff1667ffffffffffffffff1678010000000000000000000000000000000000000000000000000281526008018867ffffffffffffffff1667ffffffffffffffff1678010000000000000000000000000000000000000000000000000281526008018767ffffffffffffffff1667ffffffffffffffff1678010000000000000000000000000000000000000000000000000281526008018667ffffffffffffffff1667ffffffffffffffff1678010000000000000000000000000000000000000000000000000281526008018567ffffffffffffffff1667ffffffffffffffff1678010000000000000000000000000000000000000000000000000281526008018467ffffffffffffffff1667ffffffffffffffff1678010000000000000000000000000000000000000000000000000281526008018367ffffffffffffffff1667ffffffffffffffff1678010000000000000000000000000000000000000000000000000281526008018281526020019c505050505050505050505050506040516020818303038152906040526040518082805190602001908083835b6020831015156124f357805182526020820191506020810190506020830392506124ce565b6001836020036101000a03801982511681845116808217855250505050505090500191505060405180910390209050919050565b600080600080600060066000876000191660001916815260200190815260200160002060010160009054906101000a900467ffffffffffffffff1660066000896000191660001916815260200190815260200160002060010160009054906101000a900467ffffffffffffffff160367ffffffffffffffff16600a0a60066000896000191660001916815260200190815260200160002060000160129054906101000a900467ffffffffffffffff1667ffffffffffffffff1602925060066000876000191660001916815260200190815260200160002060010160009054906101000a900467ffffffffffffffff1667ffffffffffffffff1691508260066000886000191660001916815260200190815260200160002060000160129054906101000a900467ffffffffffffffff1667ffffffffffffffff16019050600060028281151561267157fe5b06141561268f5760028181151561268457fe5b04829450945061269c565b6005810260018303945094505b5050509250929050565b60008060008060058702925060298686010391506000821215156126d15781600a0a830290506126e6565b81600003600a0a838115156126e257fe5b0490505b8093505050509392505050565b6000806000806000612781600660008b6000191660001916815260200190815260200160002060010160089054906101000a900467ffffffffffffffff1667ffffffffffffffff16600660008c6000191660001916815260200190815260200160002060010160109054906101000a900467ffffffffffffffff1667ffffffffffffffff166001600c6129a3565b915061280b600660008a6000191660001916815260200190815260200160002060010160089054906101000a900467ffffffffffffffff1667ffffffffffffffff16600660008b6000191660001916815260200190815260200160002060010160109054906101000a900467ffffffffffffffff1667ffffffffffffffff1689896001600c61293e565b9050808210156128a95760c8600660008b6000191660001916815260200190815260200160002060010160089054906101000a900467ffffffffffffffff160286600c601a600660008e6000191660001916815260200190815260200160002060010160109054906101000a900467ffffffffffffffff16010167ffffffffffffffff1603888267ffffffffffffffff169250945094509450612932565b60066000896000191660001916815260200190815260200160002060010160089054906101000a900467ffffffffffffffff16600660008a6000191660001916815260200190815260200160002060010160109054906101000a900467ffffffffffffffff1667ffffffffffffffff1660018267ffffffffffffffff1692508090509450945094505b50509450945094915050565b60008060008060028860058c02020292506036878a8701010391506000821215156129705781600a0a83029050612985565b81600003600a0a8381151561298157fe5b0490505b858181151561299057fe5b0490508093505050509695505050505050565b6000806000806000886002029350859250600d915060008812156129ce5787600003820191506129d4565b87830192505b81831015156129ec57818303600a0a84029050612a00565b828203600a0a848115156129fc57fe5b0490505b8681811515612a0b57fe5b04905080945050505050949350505050565b6101a060405190810160405280600060ff168152602001600060ff168152602001600067ffffffffffffffff168152602001600067ffffffffffffffff168152602001600067ffffffffffffffff168152602001600067ffffffffffffffff168152602001600067ffffffffffffffff168152602001600067ffffffffffffffff168152602001600067ffffffffffffffff168152602001600067ffffffffffffffff16815260200160008152602001600073ffffffffffffffffffffffffffffffffffffffff168152602001600073ffffffffffffffffffffffffffffffffffffffff16815250905600a165627a7a723058201737c17ad2668b76c72cdfda027b6788f02a4c8d98ac228a82bd97b3d664a5e70029",
  "source": "pragma solidity ^0.4.24;\n\nimport \"zeppelin-solidity/contracts/token/ERC20/ERC20.sol\";\nimport \"zeppelin-solidity/contracts/math/SafeMath.sol\";\nimport \"zeppelin-solidity/contracts/ownership/Ownable.sol\";\n\nimport \"../Orderbook.sol\";\nimport \"./RenExBalances.sol\";\nimport \"./RenExTokens.sol\";\n\n/**\n@title The contract responsible for holding trader funds and settling matched\norder values\n@author Republic Protocol\n*/\ncontract RenExSettlement is Ownable {\n    using SafeMath for uint256;\n\n    // Fees are 0.2%\n    uint256 FEES_NUMERATOR = 2;\n    uint256 FEES_DENOMINATOR = 1000;\n\n    // Republic Protocol settlement identifier\n    uint32 constant public identifier = 1;\n\n    Orderbook orderbookContract;\n    RenExTokens renExTokensContract;\n    RenExBalances renExBalancesContract;\n\n    enum OrderType {Midpoint, Limit}\n    enum OrderParity {Buy, Sell}\n    enum OrderStatus {None, Submitted, Matched}\n\n    struct Order {\n        uint8 parity;\n        uint8 orderType;\n        uint64 expiry;\n        uint64 tokens;        \n        uint64 priceC; uint64 priceQ;\n        uint64 volumeC; uint64 volumeQ;\n        uint64 minimumVolumeC; uint64 minimumVolumeQ;\n        uint256 nonceHash;\n        address trader;\n        address submitter;\n    }\n\n    struct Match {\n        uint256 price;\n        uint256 lowVolume;\n        uint256 highVolume;\n    }\n\n    // Events\n    event Transfer(address from, address to, uint32 token, uint256 value);\n    event Debug256(string msg, uint256 num);\n    event Debug32(string msg, bytes32 b);\n    event DebugAddress(string msg, address addr);\n    event DebugBytes(string msg, bytes b);\n    event Debugi256(string msg, int256 num);\n    event Debug(string msg);\n    event DebugTuple(string msg, uint256 c, uint256 q);\n    event DebugTupleI(string msg, uint256 c, int256 q);\n\n\n    // Storage\n    mapping(bytes32 => Order) public orders;\n    mapping(bytes32 => OrderStatus) private orderStatuses;\n\n    /**\n    @notice constructor\n    @param _orderbookContract the address of the Orderbook contract\n    @param _renExBalancesContract the address of the RenExBalances contract\n    @param _renExTokensContract the address of the RenExTokens contract\n    */\n    constructor(\n        Orderbook _orderbookContract,\n        RenExTokens _renExTokensContract,\n        RenExBalances _renExBalancesContract\n    ) public {\n        orderbookContract = _orderbookContract;\n        renExTokensContract = _renExTokensContract;\n        renExBalancesContract = _renExBalancesContract;\n    }\n\n\n    /********** WITHDRAWAL FUNCTIONS ******************************************/\n\n    function traderCanWithdraw(address _trader, address _token, uint256 amount) public returns (bool) {\n        // In the future, this will return true (i.e. invalid withdrawal) if the\n        // trader has open orders for that token\n        return true;\n    }\n\n\n\n    /********** SETTLEMENT FUNCTIONS ******************************************/\n    \n    // Price/volume calculation functions\n\n    function priceMidPoint(bytes32 buyID, bytes32 sellID) private view returns (uint256, int256) {\n        // Normalize to same exponent before finding mid-point (mean)\n        // Common exponent is 0 (to ensure division doesn't lose details)\n        // uint256 norm1 = orders[buyID].priceC * 10 ** (orders[buyID].priceQ);\n        // uint256 norm2 = orders[sellID].priceC * 10 ** (orders[sellID].priceQ);\n        // return ((norm1 + norm2) / 2, 0);\n        uint256 norm = orders[buyID].priceC * 10 ** uint256(orders[buyID].priceQ - orders[sellID].priceQ);\n        int256 q = int256(orders[sellID].priceQ);\n        uint256 sum = (orders[sellID].priceC + norm);\n        if (sum % 2 == 0) {\n            return (sum / 2, q);\n        } else {\n            // To not lose the .5 for odd numbers, multiply by 5 and subtract from q\n            return (sum * (10 / 2), q - 1);\n        }\n    }\n\n    function minimumVolume(bytes32 buyID, bytes32 sellID, uint256 priceC, int256 priceQ)\n    private view returns (uint256, int256, uint256) {        \n        uint256 buyV = tupleToVolume(orders[buyID].volumeC, int256(orders[buyID].volumeQ), 1, 12);\n        uint256 sellV = tupleToScaledVolume(orders[sellID].volumeC, int256(orders[sellID].volumeQ), priceC, priceQ, 1, 12);\n\n        if (buyV < sellV) {\n            // Instead of dividing the constant by priceC, we delay the division\n            // until the recombining c and q, to ensure that minimal precision\n            // is lost\n            return (orders[buyID].volumeC * 200, int256(orders[buyID].volumeQ + 26 + 12) - priceQ, priceC);\n        } else {\n            return (orders[sellID].volumeC, int256(orders[sellID].volumeQ), 1);\n        }\n    }\n\n    function tupleToScaledVolume(uint256 volC, int256 volQ, uint256 priceC, int256 priceQ, uint256 divideC, uint256 decimals)\n    private pure returns (uint256) {\n        // 0.2 turns into 2 * 10**-1 (-1 moved to exponent)\n        // 0.005 turns into 5 * 10**-3 (-3 moved to exponent)\n        uint256 c = volC * 5 * priceC * 2;\n\n        int256 e = int256(decimals) + volQ + priceQ - (26 + 12 + 3 + 12 + 1);\n\n        // If (ep-en) is negative, divide instead of multiplying\n        uint256 value;\n        if (e >= 0) {\n            value = c * 10 ** uint256(e);\n        } else {\n            value = c / 10 ** uint256(-e);            \n        }\n\n        value = value / divideC;\n\n        return value;\n    }\n\n    function tupleToPrice(uint256 priceC, int256 priceQ, uint256 decimals)\n    private pure returns (uint256) {\n        // 0.2 turns into 2 * 10**-1 (-1 moved to exponent)\n        // 0.005 turns into 5 * 10**-3 (-3 moved to exponent)\n        uint256 c = priceC * 5;\n\n        int256 e = int256(decimals) + priceQ - (26 + 12 + 3);\n\n        // If (ep-en) is negative, divide instead of multiplying\n        uint256 value;\n        if (e >= 0) {\n            value = c * 10 ** uint256(e);\n        } else {\n            value = c / 10 ** uint256(-e);            \n        }\n\n        return value;\n    }\n\n\n    function tupleToVolume(uint256 volC, int256 volQ, uint256 divideC, uint256 decimals) private pure returns (uint256) {\n        // 0.2 turns into 2 * 10**-1 (-1 moved to exponent)\n        uint256 c = 2 * volC;\n\n        // Positive and negative components of exponent                \n        uint256 ep = decimals;\n        uint256 en = 12 + 1;\n        // Add volQ to positive or negative component based on its sign        \n        if (volQ < 0) {\n            en += uint256(-volQ);\n        } else {\n            ep += uint256(volQ);\n        }\n\n        // If (ep-en) is negative, divide instead of multiplying  \n        uint256 value;              \n        if (ep >= en) {\n            value = c * 10 ** (ep - en);\n        } else {\n            value = c / 10 ** (en - ep);\n        }\n\n        value = value / divideC;\n\n        return value;\n    }\n\n    // Ensure this remains private\n    function settleFunds(\n        bytes32 _buyID, bytes32 _sellID,\n        uint32 buyToken, uint32 sellToken,\n        uint256 lowTokenValue, uint256 highTokenValue\n    ) private {\n        address buyTokenAddress = renExTokensContract.tokenAddresses(buyToken);        \n        address sellTokenAddress = renExTokensContract.tokenAddresses(sellToken);\n        \n        address buySubmitter = orders[_buyID].submitter;\n        address sellSubmitter = orders[_sellID].submitter;\n\n        uint256 lowTokenValueFinal = (lowTokenValue * (FEES_DENOMINATOR - FEES_NUMERATOR)) / FEES_DENOMINATOR;\n\n        uint256 highTokenValueFinal = (highTokenValue * (FEES_DENOMINATOR - FEES_NUMERATOR)) / FEES_DENOMINATOR;\n\n        // Subtract values\n        renExBalancesContract.decrementBalanceWithFee(\n            orders[_buyID].trader, sellTokenAddress, lowTokenValueFinal, lowTokenValue - lowTokenValueFinal, buySubmitter\n        );\n        renExBalancesContract.decrementBalanceWithFee(\n            orders[_sellID].trader, buyTokenAddress, highTokenValueFinal, highTokenValue - highTokenValueFinal, sellSubmitter\n        );\n\n        // Add values\n        renExBalancesContract.incrementBalance(orders[_sellID].trader, sellTokenAddress, lowTokenValueFinal);\n        renExBalancesContract.incrementBalance(orders[_buyID].trader, buyTokenAddress, highTokenValueFinal);\n\n        // emit Transfer(buyer, seller, sellToken, lowTokenValueFinal);\n        // emit Transfer(seller, buyer, buyToken, highTokenValueFinal);\n    }\n\n\n\n    // TODO: Implement\n    function hashOrder(Order order) private pure returns (bytes32) {\n        return keccak256(\n            abi.encodePacked(\n                order.orderType,\n                order.parity,\n                identifier,\n                order.expiry,\n                order.tokens,\n                order.priceC, order.priceQ,\n                order.volumeC, order.volumeQ,\n                order.minimumVolumeC, order.minimumVolumeQ,\n                order.nonceHash\n            )\n        );\n    }\n\n\n\n\n    /**\n    @notice Stores the details of an order\n    @param _orderType one of Midpoint or Limit\n    @param _parity one of Buy or Sell\n    @param _expiry the expiry date of the order in seconds since Unix epoch\n    @param _tokens two 32-bit token codes concatenated (with the lowest first)\n    @param _priceC the constant in the price tuple\n    @param _priceQ the exponent in the price tuple\n    @param _volumeC the constant in the volume tuple\n    @param _volumeQ the exponent in the volume tuple\n    @param _minimumVolumeC the constant in the minimum-volume tuple\n    @param _minimumVolumeQ the exponent in the minimum-volume tuple\n    @param _nonceHash the keccak256 hash of a random 32 byte value\n    */\n    function submitOrder(\n        uint8 _orderType,\n        uint8 _parity,\n        uint64 _expiry,\n        uint64 _tokens,\n        uint16 _priceC, uint16 _priceQ,\n        uint16 _volumeC, uint16 _volumeQ,\n        uint16 _minimumVolumeC, uint16 _minimumVolumeQ,\n        uint256 _nonceHash\n    ) public {\n\n        Order memory order = Order({\n            orderType: _orderType,\n            parity: _parity,\n            expiry: _expiry,\n            tokens: _tokens,\n            priceC: _priceC, priceQ: _priceQ,\n            volumeC: _volumeC, volumeQ: _volumeQ,\n            minimumVolumeC: _minimumVolumeC, minimumVolumeQ: _minimumVolumeQ,\n            nonceHash: _nonceHash,\n            trader: 0x0,\n            submitter: msg.sender\n        });\n\n        bytes32 orderID = hashOrder(order);\n\n        require(orderStatuses[orderID] == OrderStatus.None);\n        orderStatuses[orderID] = OrderStatus.Submitted;\n\n        order.trader = orderbookContract.orderTrader(orderID);\n        require(order.trader != 0x0);\n\n        orders[orderID] = order;\n    }\n\n    function verifyMatch(bytes32 _buyID, bytes32 _sellID) public view returns (uint32, uint32) {\n        require(orderStatuses[_buyID] == OrderStatus.Submitted);\n        require(orderStatuses[_sellID] == OrderStatus.Submitted);\n\n        // Require that the orders are confirmed to one another\n        require(orders[_buyID].parity == uint8(OrderParity.Buy));\n        require(orders[_sellID].parity == uint8(OrderParity.Sell));\n        require(orderbookContract.orderState(_buyID) == 2);\n        require(orderbookContract.orderState(_sellID) == 2);\n        \n        // TODO: Loop through and check at all indices\n        require(orderbookContract.orderMatch(_buyID)[0] == _sellID);\n\n        uint32 buyToken = uint32(orders[_sellID].tokens);\n        uint32 sellToken = uint32(orders[_sellID].tokens >> 32);\n\n        require(renExTokensContract.tokenIsRegistered(buyToken));\n        require(renExTokensContract.tokenIsRegistered(sellToken));\n\n        return (buyToken, sellToken);\n\n        // TODO: Compare prices and volumes/minimum volumes\n    }\n\n    /**\n    @notice Settles two orders that are matched. `submitOrder` must have been\n    called for each order before this function is called\n    @param _buyID the 32 byte ID of the buy order\n    @param _sellID the 32 byte ID of the sell order\n    */\n    function submitMatch(bytes32 _buyID, bytes32 _sellID) public {\n        // Verify match\n        (uint32 buyToken, uint32 sellToken) = verifyMatch(_buyID, _sellID);\n\n        (uint256 lowTokenValue, uint256 highTokenValue) = settlementDetails(\n            _buyID,\n            _sellID,\n            buyToken,\n            sellToken\n        );\n\n        settleFunds(_buyID, _sellID, buyToken, sellToken, lowTokenValue, highTokenValue);\n\n        orderStatuses[_buyID] = OrderStatus.Matched;\n        orderStatuses[_sellID] = OrderStatus.Matched;\n    }\n\n    function settlementDetails(\n        bytes32 _buyID,\n        bytes32 _sellID,\n        uint32 _buyToken,\n        uint32 _sellToken\n    ) private view returns (uint256, uint256) {\n        uint32 buyTokenDecimals = renExTokensContract.tokenDecimals(_buyToken);\n        uint32 sellTokenDecimals = renExTokensContract.tokenDecimals(_sellToken);\n\n        // Price midpoint\n        (uint256 midPriceC, int256 midPriceQ) = priceMidPoint(_buyID, _sellID);\n\n        (uint256 minVolC, int256 minVolQ, uint256 divideC) = minimumVolume(_buyID, _sellID, midPriceC, midPriceQ);\n\n        uint256 lowTokenValue = tupleToScaledVolume(minVolC, minVolQ, midPriceC, midPriceQ, divideC, sellTokenDecimals);\n\n        uint256 highTokenValue = tupleToVolume(minVolC, minVolQ, divideC, buyTokenDecimals);\n\n        return (lowTokenValue, highTokenValue);\n    }\n\n    function getSettlementDetails(bytes32 _buyID, bytes32 _sellID)\n    external view returns (uint256, uint256, uint256, uint256, uint256) {\n        uint32 buyToken = uint32(orders[_sellID].tokens);\n        uint32 sellToken = uint32(orders[_sellID].tokens >> 32);\n\n        (uint256 lowTokenValue, uint256 highTokenValue) = settlementDetails(\n            _buyID,\n            _sellID,\n            buyToken,\n            sellToken\n        );\n\n        uint256 lowTokenValueFinal = (lowTokenValue * (FEES_DENOMINATOR - FEES_NUMERATOR)) / FEES_DENOMINATOR;\n\n        uint256 highTokenValueFinal = (highTokenValue * (FEES_DENOMINATOR - FEES_NUMERATOR)) / FEES_DENOMINATOR;\n\n        uint256 midPrice = getMidPrice(_buyID, _sellID);\n\n        return (midPrice, lowTokenValueFinal, highTokenValueFinal, lowTokenValue - lowTokenValueFinal, highTokenValue - highTokenValueFinal);\n    }\n\n    function getMidPrice(bytes32 _buyID, bytes32 _sellID) public view returns (uint256) {\n        (uint256 midPriceC, int256 midPriceQ) = priceMidPoint(_buyID, _sellID);\n        uint32 sellToken = uint32(orders[_sellID].tokens >> 32);\n\n        uint32 sellTokenDecimals = renExTokensContract.tokenDecimals(sellToken);\n        return tupleToPrice(midPriceC, midPriceQ, sellTokenDecimals);\n    }\n}",
  "sourcePath": "/home/noah/github/republicprotocol/republic-sol/contracts/RenEx/RenExSettlement.sol",
  "compiler": {
    "name": "solc",
    "version": "0.4.24+commit.e67f0147.Emscripten.clang"
  },
  "schemaVersion": "2.0.0",
  "updatedAt": "2018-06-15T06:59:37.797Z"
}