{
  "contractName": "RenExBalances",
  "abi": [
    {
      "constant": true,
      "inputs": [
        {
          "name": "",
          "type": "address"
        },
        {
          "name": "",
          "type": "uint256"
        }
      ],
      "name": "traderTokens",
      "outputs": [
        {
          "name": "",
          "type": "address"
        }
      ],
      "payable": false,
      "stateMutability": "view",
      "type": "function"
    },
    {
      "constant": true,
      "inputs": [],
      "name": "owner",
      "outputs": [
        {
          "name": "",
          "type": "address"
        }
      ],
      "payable": false,
      "stateMutability": "view",
      "type": "function"
    },
    {
      "constant": true,
      "inputs": [
        {
          "name": "",
          "type": "address"
        },
        {
          "name": "",
          "type": "address"
        }
      ],
      "name": "traderBalances",
      "outputs": [
        {
          "name": "",
          "type": "uint256"
        }
      ],
      "payable": false,
      "stateMutability": "view",
      "type": "function"
    },
    {
      "constant": true,
      "inputs": [],
      "name": "settlementContract",
      "outputs": [
        {
          "name": "",
          "type": "address"
        }
      ],
      "payable": false,
      "stateMutability": "view",
      "type": "function"
    },
    {
      "constant": false,
      "inputs": [
        {
          "name": "newOwner",
          "type": "address"
        }
      ],
      "name": "transferOwnership",
      "outputs": [],
      "payable": false,
      "stateMutability": "nonpayable",
      "type": "function"
    },
    {
      "constant": true,
      "inputs": [],
      "name": "ETHEREUM",
      "outputs": [
        {
          "name": "",
          "type": "address"
        }
      ],
      "payable": false,
      "stateMutability": "view",
      "type": "function"
    },
    {
      "inputs": [],
      "payable": false,
      "stateMutability": "nonpayable",
      "type": "constructor"
    },
    {
      "anonymous": false,
      "inputs": [
        {
          "indexed": false,
          "name": "trader",
          "type": "address"
        },
        {
          "indexed": false,
          "name": "token",
          "type": "address"
        },
        {
          "indexed": false,
          "name": "value",
          "type": "uint256"
        }
      ],
      "name": "BalanceDecreased",
      "type": "event"
    },
    {
      "anonymous": false,
      "inputs": [
        {
          "indexed": false,
          "name": "trader",
          "type": "address"
        },
        {
          "indexed": false,
          "name": "token",
          "type": "address"
        },
        {
          "indexed": false,
          "name": "value",
          "type": "uint256"
        }
      ],
      "name": "BalanceIncreased",
      "type": "event"
    },
    {
      "anonymous": false,
      "inputs": [
        {
          "indexed": true,
          "name": "previousOwner",
          "type": "address"
        },
        {
          "indexed": true,
          "name": "newOwner",
          "type": "address"
        }
      ],
      "name": "RenExSettlementContractChanged",
      "type": "event"
    },
    {
      "anonymous": false,
      "inputs": [
        {
          "indexed": true,
          "name": "previousOwner",
          "type": "address"
        },
        {
          "indexed": true,
          "name": "newOwner",
          "type": "address"
        }
      ],
      "name": "OwnershipTransferred",
      "type": "event"
    },
    {
      "constant": false,
      "inputs": [
        {
          "name": "_newSettlementContract",
          "type": "address"
        }
      ],
      "name": "setRenExSettlementContract",
      "outputs": [],
      "payable": false,
      "stateMutability": "nonpayable",
      "type": "function"
    },
    {
      "constant": false,
      "inputs": [
        {
          "name": "_trader",
          "type": "address"
        },
        {
          "name": "_token",
          "type": "address"
        },
        {
          "name": "_value",
          "type": "uint256"
        }
      ],
      "name": "incrementBalance",
      "outputs": [],
      "payable": false,
      "stateMutability": "nonpayable",
      "type": "function"
    },
    {
      "constant": false,
      "inputs": [
        {
          "name": "_trader",
          "type": "address"
        },
        {
          "name": "_token",
          "type": "address"
        },
        {
          "name": "_value",
          "type": "uint256"
        }
      ],
      "name": "decrementBalance",
      "outputs": [],
      "payable": false,
      "stateMutability": "nonpayable",
      "type": "function"
    },
    {
      "constant": false,
      "inputs": [
        {
          "name": "_token",
          "type": "address"
        },
        {
          "name": "_value",
          "type": "uint256"
        }
      ],
      "name": "deposit",
      "outputs": [],
      "payable": true,
      "stateMutability": "payable",
      "type": "function"
    },
    {
      "constant": false,
      "inputs": [
        {
          "name": "_token",
          "type": "address"
        },
        {
          "name": "_value",
          "type": "uint256"
        }
      ],
      "name": "withdraw",
      "outputs": [],
      "payable": false,
      "stateMutability": "nonpayable",
      "type": "function"
    },
    {
      "constant": true,
      "inputs": [
        {
          "name": "_trader",
          "type": "address"
        }
      ],
      "name": "getBalances",
      "outputs": [
        {
          "name": "",
          "type": "address[]"
        },
        {
          "name": "",
          "type": "uint256[]"
        }
      ],
      "payable": false,
      "stateMutability": "view",
      "type": "function"
    }
  ],
  "bytecode": "0x608060405234801561001057600080fd5b50336000806101000a81548173ffffffffffffffffffffffffffffffffffffffff021916908373ffffffffffffffffffffffffffffffffffffffff160217905550611609806100606000396000f3006080604052600436106100ba576000357c0100000000000000000000000000000000000000000000000000000000900463ffffffff1680631a6947ce146100bf5780632b15e8571461014c57806347e7ef24146101b957806352fedefa146101f95780638da5cb5b1461026657806393e2448a146102bd578063c43c633b14610300578063c84aae1714610377578063ea42418b14610457578063f2fde38b146104ae578063f3fef3a3146104f1578063f7cdf47c1461053e575b600080fd5b3480156100cb57600080fd5b5061010a600480360381019080803573ffffffffffffffffffffffffffffffffffffffff16906020019092919080359060200190929190505050610595565b604051808273ffffffffffffffffffffffffffffffffffffffff1673ffffffffffffffffffffffffffffffffffffffff16815260200191505060405180910390f35b34801561015857600080fd5b506101b7600480360381019080803573ffffffffffffffffffffffffffffffffffffffff169060200190929190803573ffffffffffffffffffffffffffffffffffffffff169060200190929190803590602001909291905050506105e2565b005b6101f7600480360381019080803573ffffffffffffffffffffffffffffffffffffffff1690602001909291908035906020019092919050505061064e565b005b34801561020557600080fd5b50610264600480360381019080803573ffffffffffffffffffffffffffffffffffffffff169060200190929190803573ffffffffffffffffffffffffffffffffffffffff169060200190929190803590602001909291905050506107dc565b005b34801561027257600080fd5b5061027b610848565b604051808273ffffffffffffffffffffffffffffffffffffffff1673ffffffffffffffffffffffffffffffffffffffff16815260200191505060405180910390f35b3480156102c957600080fd5b506102fe600480360381019080803573ffffffffffffffffffffffffffffffffffffffff16906020019092919050505061086d565b005b34801561030c57600080fd5b50610361600480360381019080803573ffffffffffffffffffffffffffffffffffffffff169060200190929190803573ffffffffffffffffffffffffffffffffffffffff169060200190929190505050610988565b6040518082815260200191505060405180910390f35b34801561038357600080fd5b506103b8600480360381019080803573ffffffffffffffffffffffffffffffffffffffff1690602001909291905050506109ad565b604051808060200180602001838103835285818151815260200191508051906020019060200280838360005b838110156103ff5780820151818401526020810190506103e4565b50505050905001838103825284818151815260200191508051906020019060200280838360005b83811015610441578082015181840152602081019050610426565b5050505090500194505050505060405180910390f35b34801561046357600080fd5b5061046c610b87565b604051808273ffffffffffffffffffffffffffffffffffffffff1673ffffffffffffffffffffffffffffffffffffffff16815260200191505060405180910390f35b3480156104ba57600080fd5b506104ef600480360381019080803573ffffffffffffffffffffffffffffffffffffffff169060200190929190505050610bad565b005b3480156104fd57600080fd5b5061053c600480360381019080803573ffffffffffffffffffffffffffffffffffffffff16906020019092919080359060200190929190505050610d02565b005b34801561054a57600080fd5b5061055361105f565b604051808273ffffffffffffffffffffffffffffffffffffffff1673ffffffffffffffffffffffffffffffffffffffff16815260200191505060405180910390f35b6002602052816000526040600020818154811015156105b057fe5b906000526020600020016000915091509054906101000a900473ffffffffffffffffffffffffffffffffffffffff1681565b600160009054906101000a900473ffffffffffffffffffffffffffffffffffffffff1673ffffffffffffffffffffffffffffffffffffffff163373ffffffffffffffffffffffffffffffffffffffff1614151561063e57600080fd5b610649838383611077565b505050565b600033905073eeeeeeeeeeeeeeeeeeeeeeeeeeeeeeeeeeeeeeee73ffffffffffffffffffffffffffffffffffffffff168373ffffffffffffffffffffffffffffffffffffffff1614156106ae5781341415156106a957600080fd5b6107cc565b8273ffffffffffffffffffffffffffffffffffffffff166323b872dd8230856040518463ffffffff167c0100000000000000000000000000000000000000000000000000000000028152600401808473ffffffffffffffffffffffffffffffffffffffff1673ffffffffffffffffffffffffffffffffffffffff1681526020018373ffffffffffffffffffffffffffffffffffffffff1673ffffffffffffffffffffffffffffffffffffffff1681526020018281526020019350505050602060405180830381600087803b15801561078557600080fd5b505af1158015610799573d6000803e3d6000fd5b505050506040513d60208110156107af57600080fd5b810190808051906020019092919050505015156107cb57600080fd5b5b6107d7818484611077565b505050565b600160009054906101000a900473ffffffffffffffffffffffffffffffffffffffff1673ffffffffffffffffffffffffffffffffffffffff163373ffffffffffffffffffffffffffffffffffffffff1614151561083857600080fd5b6108438383836113f3565b505050565b6000809054906101000a900473ffffffffffffffffffffffffffffffffffffffff1681565b6000809054906101000a900473ffffffffffffffffffffffffffffffffffffffff1673ffffffffffffffffffffffffffffffffffffffff163373ffffffffffffffffffffffffffffffffffffffff161415156108c857600080fd5b8073ffffffffffffffffffffffffffffffffffffffff16600160009054906101000a900473ffffffffffffffffffffffffffffffffffffffff1673ffffffffffffffffffffffffffffffffffffffff167fed2802be9251854352f2810007e5db298089a145ee5a78a47e86446632726a2860405160405180910390a380600160006101000a81548173ffffffffffffffffffffffffffffffffffffffff021916908373ffffffffffffffffffffffffffffffffffffffff16021790555050565b6003602052816000526040600020602052806000526040600020600091509150505481565b6060806060806000600260008773ffffffffffffffffffffffffffffffffffffffff1673ffffffffffffffffffffffffffffffffffffffff168152602001908152602001600020805480602002602001604051908101604052809291908181526020018280548015610a7457602002820191906000526020600020905b8160009054906101000a900473ffffffffffffffffffffffffffffffffffffffff1673ffffffffffffffffffffffffffffffffffffffff1681526020019060010190808311610a2a575b505050505092508251604051908082528060200260200182016040528015610aab5781602001602082028038833980820191505090505b509150600090505b8251811015610b7957600360008773ffffffffffffffffffffffffffffffffffffffff1673ffffffffffffffffffffffffffffffffffffffff16815260200190815260200160002060008483815181101515610b0b57fe5b9060200190602002015173ffffffffffffffffffffffffffffffffffffffff1673ffffffffffffffffffffffffffffffffffffffff168152602001908152602001600020548282815181101515610b5e57fe5b90602001906020020181815250508080600101915050610ab3565b828294509450505050915091565b600160009054906101000a900473ffffffffffffffffffffffffffffffffffffffff1681565b6000809054906101000a900473ffffffffffffffffffffffffffffffffffffffff1673ffffffffffffffffffffffffffffffffffffffff163373ffffffffffffffffffffffffffffffffffffffff16141515610c0857600080fd5b600073ffffffffffffffffffffffffffffffffffffffff168173ffffffffffffffffffffffffffffffffffffffff1614151515610c4457600080fd5b8073ffffffffffffffffffffffffffffffffffffffff166000809054906101000a900473ffffffffffffffffffffffffffffffffffffffff1673ffffffffffffffffffffffffffffffffffffffff167f8be0079c531659141344cd1fd0a4f28419497f9722a3daafe3b4186f6b6457e060405160405180910390a3806000806101000a81548173ffffffffffffffffffffffffffffffffffffffff021916908373ffffffffffffffffffffffffffffffffffffffff16021790555050565b600033905081600360008373ffffffffffffffffffffffffffffffffffffffff1673ffffffffffffffffffffffffffffffffffffffff16815260200190815260200160002060008573ffffffffffffffffffffffffffffffffffffffff1673ffffffffffffffffffffffffffffffffffffffff1681526020019081526020016000205410151515610d9257600080fd5b600160009054906101000a900473ffffffffffffffffffffffffffffffffffffffff1673ffffffffffffffffffffffffffffffffffffffff1663a3bdaedc8285856040518463ffffffff167c0100000000000000000000000000000000000000000000000000000000028152600401808473ffffffffffffffffffffffffffffffffffffffff1673ffffffffffffffffffffffffffffffffffffffff1681526020018373ffffffffffffffffffffffffffffffffffffffff1673ffffffffffffffffffffffffffffffffffffffff1681526020018281526020019350505050602060405180830381600087803b158015610e8b57600080fd5b505af1158015610e9f573d6000803e3d6000fd5b505050506040513d6020811015610eb557600080fd5b81019080805190602001909291905050501515610ed157600080fd5b610edc8184846113f3565b73eeeeeeeeeeeeeeeeeeeeeeeeeeeeeeeeeeeeeeee73ffffffffffffffffffffffffffffffffffffffff168373ffffffffffffffffffffffffffffffffffffffff161415610f70578073ffffffffffffffffffffffffffffffffffffffff166108fc839081150290604051600060405180830381858888f19350505050158015610f6a573d6000803e3d6000fd5b5061105a565b8273ffffffffffffffffffffffffffffffffffffffff1663a9059cbb82846040518363ffffffff167c0100000000000000000000000000000000000000000000000000000000028152600401808373ffffffffffffffffffffffffffffffffffffffff1673ffffffffffffffffffffffffffffffffffffffff16815260200182815260200192505050602060405180830381600087803b15801561101357600080fd5b505af1158015611027573d6000803e3d6000fd5b505050506040513d602081101561103d57600080fd5b8101908080519060200190929190505050151561105957600080fd5b5b505050565b73eeeeeeeeeeeeeeeeeeeeeeeeeeeeeeeeeeeeeeee81565b600460008473ffffffffffffffffffffffffffffffffffffffff1673ffffffffffffffffffffffffffffffffffffffff16815260200190815260200160002060008373ffffffffffffffffffffffffffffffffffffffff1673ffffffffffffffffffffffffffffffffffffffff16815260200190815260200160002060009054906101000a900460ff161515611240576001600460008573ffffffffffffffffffffffffffffffffffffffff1673ffffffffffffffffffffffffffffffffffffffff16815260200190815260200160002060008473ffffffffffffffffffffffffffffffffffffffff1673ffffffffffffffffffffffffffffffffffffffff16815260200190815260200160002060006101000a81548160ff021916908315150217905550600260008473ffffffffffffffffffffffffffffffffffffffff1673ffffffffffffffffffffffffffffffffffffffff1681526020019081526020016000208290806001815401808255809150509060018203906000526020600020016000909192909190916101000a81548173ffffffffffffffffffffffffffffffffffffffff021916908373ffffffffffffffffffffffffffffffffffffffff160217905550505b6112cf81600360008673ffffffffffffffffffffffffffffffffffffffff1673ffffffffffffffffffffffffffffffffffffffff16815260200190815260200160002060008573ffffffffffffffffffffffffffffffffffffffff1673ffffffffffffffffffffffffffffffffffffffff168152602001908152602001600020546115a690919063ffffffff16565b600360008573ffffffffffffffffffffffffffffffffffffffff1673ffffffffffffffffffffffffffffffffffffffff16815260200190815260200160002060008473ffffffffffffffffffffffffffffffffffffffff1673ffffffffffffffffffffffffffffffffffffffff168152602001908152602001600020819055507f0d66f59c9991adc17dd3339490c5058d2d6fe20395e7b55ceb6ca8019a31667d838383604051808473ffffffffffffffffffffffffffffffffffffffff1673ffffffffffffffffffffffffffffffffffffffff1681526020018373ffffffffffffffffffffffffffffffffffffffff1673ffffffffffffffffffffffffffffffffffffffff168152602001828152602001935050505060405180910390a1505050565b61148281600360008673ffffffffffffffffffffffffffffffffffffffff1673ffffffffffffffffffffffffffffffffffffffff16815260200190815260200160002060008573ffffffffffffffffffffffffffffffffffffffff1673ffffffffffffffffffffffffffffffffffffffff168152602001908152602001600020546115c490919063ffffffff16565b600360008573ffffffffffffffffffffffffffffffffffffffff1673ffffffffffffffffffffffffffffffffffffffff16815260200190815260200160002060008473ffffffffffffffffffffffffffffffffffffffff1673ffffffffffffffffffffffffffffffffffffffff168152602001908152602001600020819055507f6ac2cd906088d873624fa62ca95170d967629e7d964651df19a3aa2e49b44aa1838383604051808473ffffffffffffffffffffffffffffffffffffffff1673ffffffffffffffffffffffffffffffffffffffff1681526020018373ffffffffffffffffffffffffffffffffffffffff1673ffffffffffffffffffffffffffffffffffffffff168152602001828152602001935050505060405180910390a1505050565b60008082840190508381101515156115ba57fe5b8091505092915050565b60008282111515156115d257fe5b8183039050929150505600a165627a7a72305820042292074545c6c34e644ca5db0328d04e42fd86e40404c7d5e88d05bfa748960029",
  "source": "pragma solidity ^0.4.24;\n\nimport \"zeppelin-solidity/contracts/token/ERC20/ERC20.sol\";\nimport \"zeppelin-solidity/contracts/math/SafeMath.sol\";\nimport \"zeppelin-solidity/contracts/ownership/Ownable.sol\";\n\nimport \"./RenExSettlement.sol\";\n\n/**\n@title The contract responsible for holding RenEx trader funds\n@author Republic Protocol\n*/\ncontract RenExBalances is Ownable {\n    using SafeMath for uint256;\n\n    RenExSettlement public settlementContract;\n\n    // TODO: Use same constant instance across all contracts \n    address constant public ETHEREUM = address(0xEeeeeEeeeEeEeeEeEeEeeEEEeeeeEeeeeeeeEEeE);\n\n    // Events\n    event BalanceDecreased(address trader, ERC20 token, uint256 value);\n    event BalanceIncreased(address trader, ERC20 token, uint256 value);\n    event RenExSettlementContractChanged(address indexed previousOwner, address indexed newOwner);\n\n    // Storage\n    mapping(address => address[]) public traderTokens;\n    mapping(address => mapping(address => uint256)) public traderBalances;\n    mapping(address => mapping(address => bool)) private activeTraderToken;\n\n    /**\n    @notice After deployment, setRenExSettlementContract should be called\n    */\n    constructor() public {\n    }\n\n\n    /********** MODIFIERS *****************************************************/                    \n\n    /**\n    @notice Throws if called by any account other than the RenExSettlement contract\n    */\n    modifier onlyRenExSettlementContract() {\n        require(msg.sender == address(settlementContract));\n        _;\n    }\n\n\n    /********** ONLY OWNER FUNCTIONS ******************************************/                \n\n    /**\n    @notice Updates the address of the settlement contract (can only be called\n    by the owner of the contract)\n    @param _newSettlementContract the address of the new settlement contract\n    */\n    function setRenExSettlementContract(RenExSettlement _newSettlementContract) public onlyOwner {\n        emit RenExSettlementContractChanged(settlementContract, _newSettlementContract);\n        settlementContract = _newSettlementContract;\n    }\n\n\n    /********** SETTLEMENT FUNCTIONS ******************************************/            \n    \n    /**\n    @notice Increments a trader's balance of a token - can only be called by the\n    owner, intended to be the RenEx settlement contract\n    @param _trader the address of the trader\n    @param _token the token's address\n    @param _value the number of tokens to increment the balance by (in the token's smallest unit)\n    */\n    function incrementBalance(address _trader, address _token, uint256 _value) public onlyRenExSettlementContract {\n        privateIncrementBalance(_trader, ERC20(_token), _value);\n    }\n    \n    function privateIncrementBalance(address _trader, ERC20 _token, uint256 _value) private {\n        // Check if it's the first time the trader\n        if (!activeTraderToken[_trader][_token]) {\n            activeTraderToken[_trader][_token] = true;\n            traderTokens[_trader].push(_token);\n        }\n\n        traderBalances[_trader][_token] = traderBalances[_trader][_token].add(_value);\n        \n        emit BalanceIncreased(_trader, _token, _value);\n    }\n\n    /**\n    @notice Decrements a trader's balance of a token - can only be called by the\n    owner, intended to be the RenEx settlement contract\n    @param _trader the address of the trader\n    @param _token the token's address\n    @param _value the number of tokens to decrement the balance by (in the token's smallest unit)\n    */\n    function decrementBalance(address _trader, address _token, uint256 _value) public onlyRenExSettlementContract {\n        privateDecrementBalance(_trader, ERC20(_token), _value);\n    }\n\n    function privateDecrementBalance(address _trader, ERC20 _token, uint256 _value) private {\n        traderBalances[_trader][_token] = traderBalances[_trader][_token].sub(_value);\n\n        emit BalanceDecreased(_trader, _token, _value);\n    }\n\n\n    /********** TRADER FUNCTIONS **********************************************/    \n\n    /**\n    @notice Deposits ETH or an ERC20 token into the contract\n    @param _token the token's address (must be a registered token)\n    @param _value the amount to deposit in the token's smallest unit\n    */\n    function deposit(ERC20 _token, uint256 _value) payable public {\n        address trader = msg.sender;\n\n        if (address(_token) == ETHEREUM) {\n            require(msg.value == _value);\n        } else {\n            require(_token.transferFrom(trader, this, _value));\n        }\n        privateIncrementBalance(trader, _token, _value);\n    }\n\n    /**\n    @notice Withdraws ETH or an ERC20 token from the contract\n    @notice TODO: Check if the account has any open orders first\n    @param _token the token's address\n    @param _value the amount to withdraw in the token's smallest unit\n    */\n    function withdraw(ERC20 _token, uint256 _value) public {\n        address trader = msg.sender;\n\n        require(traderBalances[trader][_token] >= _value);\n\n        // Check if the trader is allowed to withdraw this token\n        require(settlementContract.traderCanWithdraw(trader, _token, _value));\n\n        privateDecrementBalance(trader, _token, _value);\n        if (address(_token) == ETHEREUM) {\n            trader.transfer(_value);\n        } else {\n            require(_token.transfer(trader, _value));\n        }\n    }\n\n\n    /********** READ-ONLY FUNCTIONS *******************************************/\n\n    /**\n    @notice Retrieves the list of token addresses that the trader has previously\n    had balances for and a list of the corresponding token balances\n    @param _trader the address of the trader\n    @return [\n        \"the array of token addresses\",\n        \"the array of token balances in tokens' smallest units\"\n    ]\n    */\n    function getBalances(address _trader) public view returns (address[], uint256[]) {\n        address[] memory tokens = traderTokens[_trader];\n        uint256[] memory tokenBalances = new uint256[](tokens.length);\n\n        for (uint256 i = 0; i < tokens.length; i++) {\n            tokenBalances[i] = traderBalances[_trader][tokens[i]];\n        }\n\n        return (tokens, tokenBalances);\n    }\n\n}",
  "sourcePath": "/home/noah/github/republicprotocol/republic-sol/contracts/RenEx/RenExBalances.sol",
  "compiler": {
    "name": "solc",
    "version": "0.4.24+commit.e67f0147.Emscripten.clang"
  },
  "schemaVersion": "2.0.0",
  "updatedAt": "2018-06-14T04:47:48.163Z"
}