{
  "contractName": "RenExTokens",
  "abi": [
    {
      "constant": true,
      "inputs": [
        {
          "name": "",
          "type": "uint32"
        }
      ],
      "name": "tokenAddresses",
      "outputs": [
        {
          "name": "",
          "type": "address"
        }
      ],
      "payable": false,
      "stateMutability": "view",
      "type": "function"
    },
    {
      "constant": true,
      "inputs": [
        {
          "name": "",
          "type": "uint32"
        }
      ],
      "name": "tokenIsRegistered",
      "outputs": [
        {
          "name": "",
          "type": "bool"
        }
      ],
      "payable": false,
      "stateMutability": "view",
      "type": "function"
    },
    {
      "constant": true,
      "inputs": [],
      "name": "owner",
      "outputs": [
        {
          "name": "",
          "type": "address"
        }
      ],
      "payable": false,
      "stateMutability": "view",
      "type": "function"
    },
    {
      "constant": true,
      "inputs": [
        {
          "name": "",
          "type": "uint32"
        }
      ],
      "name": "tokenDecimals",
      "outputs": [
        {
          "name": "",
          "type": "uint8"
        }
      ],
      "payable": false,
      "stateMutability": "view",
      "type": "function"
    },
    {
      "constant": false,
      "inputs": [
        {
          "name": "newOwner",
          "type": "address"
        }
      ],
      "name": "transferOwnership",
      "outputs": [],
      "payable": false,
      "stateMutability": "nonpayable",
      "type": "function"
    },
    {
      "inputs": [],
      "payable": false,
      "stateMutability": "nonpayable",
      "type": "constructor"
    },
    {
      "anonymous": false,
      "inputs": [
        {
          "indexed": true,
          "name": "previousOwner",
          "type": "address"
        },
        {
          "indexed": true,
          "name": "newOwner",
          "type": "address"
        }
      ],
      "name": "OwnershipTransferred",
      "type": "event"
    },
    {
      "constant": false,
      "inputs": [
        {
          "name": "_tokenCode",
          "type": "uint32"
        },
        {
          "name": "_tokenAddress",
          "type": "address"
        },
        {
          "name": "_tokenDecimals",
          "type": "uint8"
        }
      ],
      "name": "registerToken",
      "outputs": [],
      "payable": false,
      "stateMutability": "nonpayable",
      "type": "function"
    },
    {
      "constant": false,
      "inputs": [
        {
          "name": "_tokenCode",
          "type": "uint32"
        }
      ],
      "name": "deregisterToken",
      "outputs": [],
      "payable": false,
      "stateMutability": "nonpayable",
      "type": "function"
    }
  ],
  "bytecode": "0x608060405234801561001057600080fd5b50336000806101000a81548173ffffffffffffffffffffffffffffffffffffffff021916908373ffffffffffffffffffffffffffffffffffffffff16021790555061069d806100606000396000f300608060405260043610610083576000357c0100000000000000000000000000000000000000000000000000000000900463ffffffff16806325fc575a1461008857806329debc9f146100bb578063329ed3811461012e5780638da5cb5b146101795780639e20a9a0146101d0578063c865992b14610230578063f2fde38b1461027d575b600080fd5b34801561009457600080fd5b506100b9600480360381019080803563ffffffff1690602001909291905050506102c0565b005b3480156100c757600080fd5b506100ec600480360381019080803563ffffffff169060200190929190505050610356565b604051808273ffffffffffffffffffffffffffffffffffffffff1673ffffffffffffffffffffffffffffffffffffffff16815260200191505060405180910390f35b34801561013a57600080fd5b5061015f600480360381019080803563ffffffff169060200190929190505050610389565b604051808215151515815260200191505060405180910390f35b34801561018557600080fd5b5061018e6103a9565b604051808273ffffffffffffffffffffffffffffffffffffffff1673ffffffffffffffffffffffffffffffffffffffff16815260200191505060405180910390f35b3480156101dc57600080fd5b5061022e600480360381019080803563ffffffff169060200190929190803573ffffffffffffffffffffffffffffffffffffffff169060200190929190803560ff1690602001909291905050506103ce565b005b34801561023c57600080fd5b50610261600480360381019080803563ffffffff1690602001909291905050506104fc565b604051808260ff1660ff16815260200191505060405180910390f35b34801561028957600080fd5b506102be600480360381019080803573ffffffffffffffffffffffffffffffffffffffff16906020019092919050505061051c565b005b6000809054906101000a900473ffffffffffffffffffffffffffffffffffffffff1673ffffffffffffffffffffffffffffffffffffffff163373ffffffffffffffffffffffffffffffffffffffff1614151561031b57600080fd5b6000600360008363ffffffff1663ffffffff16815260200190815260200160002060006101000a81548160ff02191690831515021790555050565b60016020528060005260406000206000915054906101000a900473ffffffffffffffffffffffffffffffffffffffff1681565b60036020528060005260406000206000915054906101000a900460ff1681565b6000809054906101000a900473ffffffffffffffffffffffffffffffffffffffff1681565b6000809054906101000a900473ffffffffffffffffffffffffffffffffffffffff1673ffffffffffffffffffffffffffffffffffffffff163373ffffffffffffffffffffffffffffffffffffffff1614151561042957600080fd5b81600160008563ffffffff1663ffffffff16815260200190815260200160002060006101000a81548173ffffffffffffffffffffffffffffffffffffffff021916908373ffffffffffffffffffffffffffffffffffffffff16021790555080600260008563ffffffff1663ffffffff16815260200190815260200160002060006101000a81548160ff021916908360ff1602179055506001600360008563ffffffff1663ffffffff16815260200190815260200160002060006101000a81548160ff021916908315150217905550505050565b60026020528060005260406000206000915054906101000a900460ff1681565b6000809054906101000a900473ffffffffffffffffffffffffffffffffffffffff1673ffffffffffffffffffffffffffffffffffffffff163373ffffffffffffffffffffffffffffffffffffffff1614151561057757600080fd5b600073ffffffffffffffffffffffffffffffffffffffff168173ffffffffffffffffffffffffffffffffffffffff16141515156105b357600080fd5b8073ffffffffffffffffffffffffffffffffffffffff166000809054906101000a900473ffffffffffffffffffffffffffffffffffffffff1673ffffffffffffffffffffffffffffffffffffffff167f8be0079c531659141344cd1fd0a4f28419497f9722a3daafe3b4186f6b6457e060405160405180910390a3806000806101000a81548173ffffffffffffffffffffffffffffffffffffffff021916908373ffffffffffffffffffffffffffffffffffffffff160217905550505600a165627a7a723058204b24594a616f698ae5b4f02bcd893e0f6f11164c06f23ac03fc09253694694c90029",
  "source": "pragma solidity ^0.4.24;\n\nimport \"zeppelin-solidity/contracts/token/ERC20/ERC20.sol\";\nimport \"zeppelin-solidity/contracts/math/SafeMath.sol\";\nimport \"zeppelin-solidity/contracts/ownership/Ownable.sol\";\n\n/**\n@title The contract responsible for holding trader funds and settling matched\norder values\n@author Republic Protocol\n*/\ncontract RenExTokens is Ownable {\n    using SafeMath for uint256;\n\n    mapping(uint32 => ERC20) public tokenAddresses;\n    mapping(uint32 => uint8) public tokenDecimals;\n    mapping(uint32 => bool) public tokenIsRegistered;\n    \n    /**\n    @notice constructor\n    */\n    constructor() public {\n    }\n\n\n    /**\n    @notice Sets a token as being registered and stores its details (only-owner)\n    @param _tokenCode a unique 32-bit token identifier\n    @param _tokenAddress the address of the ERC20-compatible token\n    @param _tokenDecimals the decimals to use for the token\n    */\n    function registerToken(uint32 _tokenCode, ERC20 _tokenAddress, uint8 _tokenDecimals) public onlyOwner {\n        tokenAddresses[_tokenCode] = _tokenAddress;\n        tokenDecimals[_tokenCode] = _tokenDecimals;\n        tokenIsRegistered[_tokenCode] = true;\n    }\n\n    /**\n    @notice Sets a token as being deregistered\n    @param _tokenCode the unique 32-bit token identifier\n    */\n    function deregisterToken(uint32 _tokenCode) public onlyOwner {\n        tokenIsRegistered[_tokenCode] = false;\n    }\n}",
  "sourcePath": "/home/noah/github/republicprotocol/republic-sol/contracts/RenEx/RenExTokens.sol",
  "compiler": {
    "name": "solc",
    "version": "0.4.24+commit.e67f0147.Emscripten.clang"
  },
  "schemaVersion": "2.0.0",
  "updatedAt": "2018-06-15T06:59:37.781Z"
}