{
  "contractName": "RenExBalances",
  "abi": [
    {
      "constant": true,
      "inputs": [
        {
          "name": "",
          "type": "address"
        },
        {
          "name": "",
          "type": "uint256"
        }
      ],
      "name": "traderTokens",
      "outputs": [
        {
          "name": "",
          "type": "address"
        }
      ],
      "payable": false,
      "stateMutability": "view",
      "type": "function"
    },
    {
      "constant": true,
      "inputs": [],
      "name": "rewardVaultContract",
      "outputs": [
        {
          "name": "",
          "type": "address"
        }
      ],
      "payable": false,
      "stateMutability": "view",
      "type": "function"
    },
    {
      "constant": true,
      "inputs": [],
      "name": "owner",
      "outputs": [
        {
          "name": "",
          "type": "address"
        }
      ],
      "payable": false,
      "stateMutability": "view",
      "type": "function"
    },
    {
      "constant": true,
      "inputs": [
        {
          "name": "",
          "type": "address"
        },
        {
          "name": "",
          "type": "address"
        }
      ],
      "name": "traderBalances",
      "outputs": [
        {
          "name": "",
          "type": "uint256"
        }
      ],
      "payable": false,
      "stateMutability": "view",
      "type": "function"
    },
    {
      "constant": true,
      "inputs": [],
      "name": "settlementContract",
      "outputs": [
        {
          "name": "",
          "type": "address"
        }
      ],
      "payable": false,
      "stateMutability": "view",
      "type": "function"
    },
    {
      "constant": false,
      "inputs": [
        {
          "name": "newOwner",
          "type": "address"
        }
      ],
      "name": "transferOwnership",
      "outputs": [],
      "payable": false,
      "stateMutability": "nonpayable",
      "type": "function"
    },
    {
      "constant": true,
      "inputs": [],
      "name": "ETHEREUM",
      "outputs": [
        {
          "name": "",
          "type": "address"
        }
      ],
      "payable": false,
      "stateMutability": "view",
      "type": "function"
    },
    {
      "inputs": [
        {
          "name": "_rewardVaultContract",
          "type": "address"
        }
      ],
      "payable": false,
      "stateMutability": "nonpayable",
      "type": "constructor"
    },
    {
      "anonymous": false,
      "inputs": [
        {
          "indexed": false,
          "name": "trader",
          "type": "address"
        },
        {
          "indexed": false,
          "name": "token",
          "type": "address"
        },
        {
          "indexed": false,
          "name": "value",
          "type": "uint256"
        }
      ],
      "name": "BalanceDecreased",
      "type": "event"
    },
    {
      "anonymous": false,
      "inputs": [
        {
          "indexed": false,
          "name": "trader",
          "type": "address"
        },
        {
          "indexed": false,
          "name": "token",
          "type": "address"
        },
        {
          "indexed": false,
          "name": "value",
          "type": "uint256"
        }
      ],
      "name": "BalanceIncreased",
      "type": "event"
    },
    {
      "anonymous": false,
      "inputs": [
        {
          "indexed": true,
          "name": "newRenExSettlementContract",
          "type": "address"
        }
      ],
      "name": "RenExSettlementContractChanged",
      "type": "event"
    },
    {
      "anonymous": false,
      "inputs": [
        {
          "indexed": true,
          "name": "newRewardVaultContract",
          "type": "address"
        }
      ],
      "name": "RewardVaultContractChanged",
      "type": "event"
    },
    {
      "anonymous": false,
      "inputs": [
        {
          "indexed": true,
          "name": "previousOwner",
          "type": "address"
        },
        {
          "indexed": true,
          "name": "newOwner",
          "type": "address"
        }
      ],
      "name": "OwnershipTransferred",
      "type": "event"
    },
    {
      "constant": false,
      "inputs": [
        {
          "name": "_newSettlementContract",
          "type": "address"
        }
      ],
      "name": "setRenExSettlementContract",
      "outputs": [],
      "payable": false,
      "stateMutability": "nonpayable",
      "type": "function"
    },
    {
      "constant": false,
      "inputs": [
        {
          "name": "_newRewardVaultContract",
          "type": "address"
        }
      ],
      "name": "setRewardVault",
      "outputs": [],
      "payable": false,
      "stateMutability": "nonpayable",
      "type": "function"
    },
    {
      "constant": false,
      "inputs": [
        {
          "name": "_trader",
          "type": "address"
        },
        {
          "name": "_token",
          "type": "address"
        },
        {
          "name": "_value",
          "type": "uint256"
        }
      ],
      "name": "incrementBalance",
      "outputs": [],
      "payable": false,
      "stateMutability": "nonpayable",
      "type": "function"
    },
    {
      "constant": false,
      "inputs": [
        {
          "name": "_trader",
          "type": "address"
        },
        {
          "name": "_token",
          "type": "address"
        },
        {
          "name": "_value",
          "type": "uint256"
        },
        {
          "name": "_fee",
          "type": "uint256"
        },
        {
          "name": "feePayee",
          "type": "address"
        }
      ],
      "name": "decrementBalanceWithFee",
      "outputs": [],
      "payable": false,
      "stateMutability": "nonpayable",
      "type": "function"
    },
    {
      "constant": false,
      "inputs": [
        {
          "name": "_token",
          "type": "address"
        },
        {
          "name": "_value",
          "type": "uint256"
        }
      ],
      "name": "deposit",
      "outputs": [],
      "payable": true,
      "stateMutability": "payable",
      "type": "function"
    },
    {
      "constant": false,
      "inputs": [
        {
          "name": "_token",
          "type": "address"
        },
        {
          "name": "_value",
          "type": "uint256"
        }
      ],
      "name": "withdraw",
      "outputs": [],
      "payable": false,
      "stateMutability": "nonpayable",
      "type": "function"
    },
    {
      "constant": true,
      "inputs": [
        {
          "name": "_trader",
          "type": "address"
        }
      ],
      "name": "getBalances",
      "outputs": [
        {
          "name": "",
          "type": "address[]"
        },
        {
          "name": "",
          "type": "uint256[]"
        }
      ],
      "payable": false,
      "stateMutability": "view",
      "type": "function"
    }
  ],
  "bytecode": "0x608060405234801561001057600080fd5b50604051602080611bec83398101806040528101908080519060200190929190505050336000806101000a81548173ffffffffffffffffffffffffffffffffffffffff021916908373ffffffffffffffffffffffffffffffffffffffff16021790555080600260006101000a81548173ffffffffffffffffffffffffffffffffffffffff021916908373ffffffffffffffffffffffffffffffffffffffff16021790555050611b28806100c46000396000f3006080604052600436106100d0576000357c0100000000000000000000000000000000000000000000000000000000900463ffffffff1680631a6947ce146100d557806323017a3a146101625780632b15e857146101b957806347e7ef24146102265780638125dd10146102665780638da5cb5b146102a957806392dd79e61461030057806393e2448a14610397578063c43c633b146103da578063c84aae1714610451578063ea42418b14610531578063f2fde38b14610588578063f3fef3a3146105cb578063f7cdf47c14610618575b600080fd5b3480156100e157600080fd5b50610120600480360381019080803573ffffffffffffffffffffffffffffffffffffffff1690602001909291908035906020019092919050505061066f565b604051808273ffffffffffffffffffffffffffffffffffffffff1673ffffffffffffffffffffffffffffffffffffffff16815260200191505060405180910390f35b34801561016e57600080fd5b506101776106bc565b604051808273ffffffffffffffffffffffffffffffffffffffff1673ffffffffffffffffffffffffffffffffffffffff16815260200191505060405180910390f35b3480156101c557600080fd5b50610224600480360381019080803573ffffffffffffffffffffffffffffffffffffffff169060200190929190803573ffffffffffffffffffffffffffffffffffffffff169060200190929190803590602001909291905050506106e2565b005b610264600480360381019080803573ffffffffffffffffffffffffffffffffffffffff1690602001909291908035906020019092919050505061074e565b005b34801561027257600080fd5b506102a7600480360381019080803573ffffffffffffffffffffffffffffffffffffffff1690602001909291905050506108dc565b005b3480156102b557600080fd5b506102be6109be565b604051808273ffffffffffffffffffffffffffffffffffffffff1673ffffffffffffffffffffffffffffffffffffffff16815260200191505060405180910390f35b34801561030c57600080fd5b50610395600480360381019080803573ffffffffffffffffffffffffffffffffffffffff169060200190929190803573ffffffffffffffffffffffffffffffffffffffff1690602001909291908035906020019092919080359060200190929190803573ffffffffffffffffffffffffffffffffffffffff1690602001909291905050506109e3565b005b3480156103a357600080fd5b506103d8600480360381019080803573ffffffffffffffffffffffffffffffffffffffff169060200190929190505050610dc5565b005b3480156103e657600080fd5b5061043b600480360381019080803573ffffffffffffffffffffffffffffffffffffffff169060200190929190803573ffffffffffffffffffffffffffffffffffffffff169060200190929190505050610ea7565b6040518082815260200191505060405180910390f35b34801561045d57600080fd5b50610492600480360381019080803573ffffffffffffffffffffffffffffffffffffffff169060200190929190505050610ecc565b604051808060200180602001838103835285818151815260200191508051906020019060200280838360005b838110156104d95780820151818401526020810190506104be565b50505050905001838103825284818151815260200191508051906020019060200280838360005b8381101561051b578082015181840152602081019050610500565b5050505090500194505050505060405180910390f35b34801561053d57600080fd5b506105466110a6565b604051808273ffffffffffffffffffffffffffffffffffffffff1673ffffffffffffffffffffffffffffffffffffffff16815260200191505060405180910390f35b34801561059457600080fd5b506105c9600480360381019080803573ffffffffffffffffffffffffffffffffffffffff1690602001909291905050506110cc565b005b3480156105d757600080fd5b50610616600480360381019080803573ffffffffffffffffffffffffffffffffffffffff16906020019092919080359060200190929190505050611221565b005b34801561062457600080fd5b5061062d61157e565b604051808273ffffffffffffffffffffffffffffffffffffffff1673ffffffffffffffffffffffffffffffffffffffff16815260200191505060405180910390f35b60036020528160005260406000208181548110151561068a57fe5b906000526020600020016000915091509054906101000a900473ffffffffffffffffffffffffffffffffffffffff1681565b600260009054906101000a900473ffffffffffffffffffffffffffffffffffffffff1681565b600160009054906101000a900473ffffffffffffffffffffffffffffffffffffffff1673ffffffffffffffffffffffffffffffffffffffff163373ffffffffffffffffffffffffffffffffffffffff1614151561073e57600080fd5b610749838383611596565b505050565b600033905073eeeeeeeeeeeeeeeeeeeeeeeeeeeeeeeeeeeeeeee73ffffffffffffffffffffffffffffffffffffffff168373ffffffffffffffffffffffffffffffffffffffff1614156107ae5781341415156107a957600080fd5b6108cc565b8273ffffffffffffffffffffffffffffffffffffffff166323b872dd8230856040518463ffffffff167c0100000000000000000000000000000000000000000000000000000000028152600401808473ffffffffffffffffffffffffffffffffffffffff1673ffffffffffffffffffffffffffffffffffffffff1681526020018373ffffffffffffffffffffffffffffffffffffffff1673ffffffffffffffffffffffffffffffffffffffff1681526020018281526020019350505050602060405180830381600087803b15801561088557600080fd5b505af1158015610899573d6000803e3d6000fd5b505050506040513d60208110156108af57600080fd5b810190808051906020019092919050505015156108cb57600080fd5b5b6108d7818484611596565b505050565b6000809054906101000a900473ffffffffffffffffffffffffffffffffffffffff1673ffffffffffffffffffffffffffffffffffffffff163373ffffffffffffffffffffffffffffffffffffffff1614151561093757600080fd5b8073ffffffffffffffffffffffffffffffffffffffff167f531cab11697c5f7de99ce0fe5eb8b69b917143bad1433b6d344fd9b55f8a11f660405160405180910390a280600260006101000a81548173ffffffffffffffffffffffffffffffffffffffff021916908373ffffffffffffffffffffffffffffffffffffffff16021790555050565b6000809054906101000a900473ffffffffffffffffffffffffffffffffffffffff1681565b600160009054906101000a900473ffffffffffffffffffffffffffffffffffffffff1673ffffffffffffffffffffffffffffffffffffffff163373ffffffffffffffffffffffffffffffffffffffff16141515610a3f57600080fd5b73eeeeeeeeeeeeeeeeeeeeeeeeeeeeeeeeeeeeeeee73ffffffffffffffffffffffffffffffffffffffff168473ffffffffffffffffffffffffffffffffffffffff161415610b9e57600260009054906101000a900473ffffffffffffffffffffffffffffffffffffffff1673ffffffffffffffffffffffffffffffffffffffff16638340f549838387866040518563ffffffff167c0100000000000000000000000000000000000000000000000000000000028152600401808473ffffffffffffffffffffffffffffffffffffffff1673ffffffffffffffffffffffffffffffffffffffff1681526020018373ffffffffffffffffffffffffffffffffffffffff1673ffffffffffffffffffffffffffffffffffffffff16815260200182815260200193505050506000604051808303818588803b158015610b8057600080fd5b505af1158015610b94573d6000803e3d6000fd5b5050505050610db1565b8373ffffffffffffffffffffffffffffffffffffffff1663095ea7b3600260009054906101000a900473ffffffffffffffffffffffffffffffffffffffff16846040518363ffffffff167c0100000000000000000000000000000000000000000000000000000000028152600401808373ffffffffffffffffffffffffffffffffffffffff1673ffffffffffffffffffffffffffffffffffffffff16815260200182815260200192505050602060405180830381600087803b158015610c6357600080fd5b505af1158015610c77573d6000803e3d6000fd5b505050506040513d6020811015610c8d57600080fd5b810190808051906020019092919050505050600260009054906101000a900473ffffffffffffffffffffffffffffffffffffffff1673ffffffffffffffffffffffffffffffffffffffff16638340f5498286856040518463ffffffff167c0100000000000000000000000000000000000000000000000000000000028152600401808473ffffffffffffffffffffffffffffffffffffffff1673ffffffffffffffffffffffffffffffffffffffff1681526020018373ffffffffffffffffffffffffffffffffffffffff1673ffffffffffffffffffffffffffffffffffffffff1681526020018281526020019350505050600060405180830381600087803b158015610d9857600080fd5b505af1158015610dac573d6000803e3d6000fd5b505050505b610dbe8585848601611912565b5050505050565b6000809054906101000a900473ffffffffffffffffffffffffffffffffffffffff1673ffffffffffffffffffffffffffffffffffffffff163373ffffffffffffffffffffffffffffffffffffffff16141515610e2057600080fd5b8073ffffffffffffffffffffffffffffffffffffffff167fe55f1faec1585f71ec0088e0bd4b7aa62606d93b521eeec86c480e41f1137d3b60405160405180910390a280600160006101000a81548173ffffffffffffffffffffffffffffffffffffffff021916908373ffffffffffffffffffffffffffffffffffffffff16021790555050565b6004602052816000526040600020602052806000526040600020600091509150505481565b6060806060806000600360008773ffffffffffffffffffffffffffffffffffffffff1673ffffffffffffffffffffffffffffffffffffffff168152602001908152602001600020805480602002602001604051908101604052809291908181526020018280548015610f9357602002820191906000526020600020905b8160009054906101000a900473ffffffffffffffffffffffffffffffffffffffff1673ffffffffffffffffffffffffffffffffffffffff1681526020019060010190808311610f49575b505050505092508251604051908082528060200260200182016040528015610fca5781602001602082028038833980820191505090505b509150600090505b825181101561109857600460008773ffffffffffffffffffffffffffffffffffffffff1673ffffffffffffffffffffffffffffffffffffffff1681526020019081526020016000206000848381518110151561102a57fe5b9060200190602002015173ffffffffffffffffffffffffffffffffffffffff1673ffffffffffffffffffffffffffffffffffffffff16815260200190815260200160002054828281518110151561107d57fe5b90602001906020020181815250508080600101915050610fd2565b828294509450505050915091565b600160009054906101000a900473ffffffffffffffffffffffffffffffffffffffff1681565b6000809054906101000a900473ffffffffffffffffffffffffffffffffffffffff1673ffffffffffffffffffffffffffffffffffffffff163373ffffffffffffffffffffffffffffffffffffffff1614151561112757600080fd5b600073ffffffffffffffffffffffffffffffffffffffff168173ffffffffffffffffffffffffffffffffffffffff161415151561116357600080fd5b8073ffffffffffffffffffffffffffffffffffffffff166000809054906101000a900473ffffffffffffffffffffffffffffffffffffffff1673ffffffffffffffffffffffffffffffffffffffff167f8be0079c531659141344cd1fd0a4f28419497f9722a3daafe3b4186f6b6457e060405160405180910390a3806000806101000a81548173ffffffffffffffffffffffffffffffffffffffff021916908373ffffffffffffffffffffffffffffffffffffffff16021790555050565b600033905081600460008373ffffffffffffffffffffffffffffffffffffffff1673ffffffffffffffffffffffffffffffffffffffff16815260200190815260200160002060008573ffffffffffffffffffffffffffffffffffffffff1673ffffffffffffffffffffffffffffffffffffffff16815260200190815260200160002054101515156112b157600080fd5b600160009054906101000a900473ffffffffffffffffffffffffffffffffffffffff1673ffffffffffffffffffffffffffffffffffffffff1663a3bdaedc8285856040518463ffffffff167c0100000000000000000000000000000000000000000000000000000000028152600401808473ffffffffffffffffffffffffffffffffffffffff1673ffffffffffffffffffffffffffffffffffffffff1681526020018373ffffffffffffffffffffffffffffffffffffffff1673ffffffffffffffffffffffffffffffffffffffff1681526020018281526020019350505050602060405180830381600087803b1580156113aa57600080fd5b505af11580156113be573d6000803e3d6000fd5b505050506040513d60208110156113d457600080fd5b810190808051906020019092919050505015156113f057600080fd5b6113fb818484611912565b73eeeeeeeeeeeeeeeeeeeeeeeeeeeeeeeeeeeeeeee73ffffffffffffffffffffffffffffffffffffffff168373ffffffffffffffffffffffffffffffffffffffff16141561148f578073ffffffffffffffffffffffffffffffffffffffff166108fc839081150290604051600060405180830381858888f19350505050158015611489573d6000803e3d6000fd5b50611579565b8273ffffffffffffffffffffffffffffffffffffffff1663a9059cbb82846040518363ffffffff167c0100000000000000000000000000000000000000000000000000000000028152600401808373ffffffffffffffffffffffffffffffffffffffff1673ffffffffffffffffffffffffffffffffffffffff16815260200182815260200192505050602060405180830381600087803b15801561153257600080fd5b505af1158015611546573d6000803e3d6000fd5b505050506040513d602081101561155c57600080fd5b8101908080519060200190929190505050151561157857600080fd5b5b505050565b73eeeeeeeeeeeeeeeeeeeeeeeeeeeeeeeeeeeeeeee81565b600560008473ffffffffffffffffffffffffffffffffffffffff1673ffffffffffffffffffffffffffffffffffffffff16815260200190815260200160002060008373ffffffffffffffffffffffffffffffffffffffff1673ffffffffffffffffffffffffffffffffffffffff16815260200190815260200160002060009054906101000a900460ff16151561175f576001600560008573ffffffffffffffffffffffffffffffffffffffff1673ffffffffffffffffffffffffffffffffffffffff16815260200190815260200160002060008473ffffffffffffffffffffffffffffffffffffffff1673ffffffffffffffffffffffffffffffffffffffff16815260200190815260200160002060006101000a81548160ff021916908315150217905550600360008473ffffffffffffffffffffffffffffffffffffffff1673ffffffffffffffffffffffffffffffffffffffff1681526020019081526020016000208290806001815401808255809150509060018203906000526020600020016000909192909190916101000a81548173ffffffffffffffffffffffffffffffffffffffff021916908373ffffffffffffffffffffffffffffffffffffffff160217905550505b6117ee81600460008673ffffffffffffffffffffffffffffffffffffffff1673ffffffffffffffffffffffffffffffffffffffff16815260200190815260200160002060008573ffffffffffffffffffffffffffffffffffffffff1673ffffffffffffffffffffffffffffffffffffffff16815260200190815260200160002054611ac590919063ffffffff16565b600460008573ffffffffffffffffffffffffffffffffffffffff1673ffffffffffffffffffffffffffffffffffffffff16815260200190815260200160002060008473ffffffffffffffffffffffffffffffffffffffff1673ffffffffffffffffffffffffffffffffffffffff168152602001908152602001600020819055507f0d66f59c9991adc17dd3339490c5058d2d6fe20395e7b55ceb6ca8019a31667d838383604051808473ffffffffffffffffffffffffffffffffffffffff1673ffffffffffffffffffffffffffffffffffffffff1681526020018373ffffffffffffffffffffffffffffffffffffffff1673ffffffffffffffffffffffffffffffffffffffff168152602001828152602001935050505060405180910390a1505050565b6119a181600460008673ffffffffffffffffffffffffffffffffffffffff1673ffffffffffffffffffffffffffffffffffffffff16815260200190815260200160002060008573ffffffffffffffffffffffffffffffffffffffff1673ffffffffffffffffffffffffffffffffffffffff16815260200190815260200160002054611ae390919063ffffffff16565b600460008573ffffffffffffffffffffffffffffffffffffffff1673ffffffffffffffffffffffffffffffffffffffff16815260200190815260200160002060008473ffffffffffffffffffffffffffffffffffffffff1673ffffffffffffffffffffffffffffffffffffffff168152602001908152602001600020819055507f6ac2cd906088d873624fa62ca95170d967629e7d964651df19a3aa2e49b44aa1838383604051808473ffffffffffffffffffffffffffffffffffffffff1673ffffffffffffffffffffffffffffffffffffffff1681526020018373ffffffffffffffffffffffffffffffffffffffff1673ffffffffffffffffffffffffffffffffffffffff168152602001828152602001935050505060405180910390a1505050565b6000808284019050838110151515611ad957fe5b8091505092915050565b6000828211151515611af157fe5b8183039050929150505600a165627a7a723058209d3f3a87316acb91d296b48526f26c102ba0c049e3654d21c0955a6435b64a060029",
  "source": "pragma solidity ^0.4.24;\n\nimport \"zeppelin-solidity/contracts/token/ERC20/ERC20.sol\";\nimport \"zeppelin-solidity/contracts/math/SafeMath.sol\";\nimport \"zeppelin-solidity/contracts/ownership/Ownable.sol\";\n\nimport \"./RenExSettlement.sol\";\nimport \"../RewardVault.sol\";\n\n/**\n@title The contract responsible for holding RenEx trader funds\n@author Republic Protocol\n*/\ncontract RenExBalances is Ownable {\n    using SafeMath for uint256;\n\n    RenExSettlement public settlementContract;\n    RewardVault public rewardVaultContract;\n\n    // TODO: Use same constant instance across all contracts \n    address constant public ETHEREUM = address(0xEeeeeEeeeEeEeeEeEeEeeEEEeeeeEeeeeeeeEEeE);\n\n    // Events\n    event BalanceDecreased(address trader, ERC20 token, uint256 value);\n    event BalanceIncreased(address trader, ERC20 token, uint256 value);\n    event RenExSettlementContractChanged(address indexed newRenExSettlementContract);\n    event RewardVaultContractChanged(address indexed newRewardVaultContract);\n\n    // Storage\n    mapping(address => address[]) public traderTokens;\n    mapping(address => mapping(address => uint256)) public traderBalances;\n    mapping(address => mapping(address => bool)) private activeTraderToken;\n\n    /**\n    @notice After deployment, setRenExSettlementContract should be called\n    */\n    constructor(RewardVault _rewardVaultContract) public {\n        rewardVaultContract = _rewardVaultContract;\n    }\n\n\n    /********** MODIFIERS *****************************************************/                    \n\n    /**\n    @notice Throws if called by any account other than the RenExSettlement contract\n    */\n    modifier onlyRenExSettlementContract() {\n        require(msg.sender == address(settlementContract));\n        _;\n    }\n\n\n    /********** ONLY OWNER FUNCTIONS ******************************************/                \n\n    /**\n    @notice Updates the address of the settlement contract (can only be called\n    by the owner of the contract)\n    @param _newSettlementContract the address of the new settlement contract\n    */\n    function setRenExSettlementContract(RenExSettlement _newSettlementContract) public onlyOwner {\n        emit RenExSettlementContractChanged(_newSettlementContract);\n        settlementContract = _newSettlementContract;\n    }\n\n    /**\n    @notice Updates the address of the reward vault contract (can only be called\n    by the owner of the contract)\n    @param _newRewardVaultContract the address of the new reward vault contract\n    */\n    function setRewardVault(RewardVault _newRewardVaultContract) public onlyOwner {\n        emit RewardVaultContractChanged(_newRewardVaultContract);\n        rewardVaultContract = _newRewardVaultContract;\n    }\n\n\n    /********** SETTLEMENT FUNCTIONS ******************************************/            \n    \n    /**\n    @notice Increments a trader's balance of a token - can only be called by the\n    owner, intended to be the RenEx settlement contract\n    @param _trader the address of the trader\n    @param _token the token's address\n    @param _value the number of tokens to increment the balance by (in the token's smallest unit)\n    */\n    function incrementBalance(address _trader, address _token, uint256 _value) public onlyRenExSettlementContract {\n        privateIncrementBalance(_trader, ERC20(_token), _value);\n    }\n    \n    function privateIncrementBalance(address _trader, ERC20 _token, uint256 _value) private {\n        // Check if it's the first time the trader\n        if (!activeTraderToken[_trader][_token]) {\n            activeTraderToken[_trader][_token] = true;\n            traderTokens[_trader].push(_token);\n        }\n\n        traderBalances[_trader][_token] = traderBalances[_trader][_token].add(_value);\n        \n        emit BalanceIncreased(_trader, _token, _value);\n    }\n\n    /**\n    @notice Decrements a trader's balance of a token - can only be called by the\n    owner, intended to be the RenEx settlement contract\n    @param _trader the address of the trader\n    @param _token the token's address\n    @param _value the number of tokens to decrement the balance by (in the token's smallest unit)\n    */\n    function decrementBalanceWithFee(address _trader, address _token, uint256 _value, uint256 _fee, address feePayee)\n    public onlyRenExSettlementContract {\n        if (address(_token) == ETHEREUM) {\n            rewardVaultContract.deposit.value(_fee)(feePayee, ERC20(_token), _fee);\n        } else {\n            ERC20(_token).approve(rewardVaultContract, _fee);\n            rewardVaultContract.deposit(feePayee, ERC20(_token), _fee);\n        }\n        privateDecrementBalance(_trader, ERC20(_token), _value + _fee);\n    }\n\n    function privateDecrementBalance(address _trader, ERC20 _token, uint256 _value) private {\n        traderBalances[_trader][_token] = traderBalances[_trader][_token].sub(_value);\n\n        emit BalanceDecreased(_trader, _token, _value);\n    }\n\n\n    /********** TRADER FUNCTIONS **********************************************/    \n\n    /**\n    @notice Deposits ETH or an ERC20 token into the contract\n    @param _token the token's address (must be a registered token)\n    @param _value the amount to deposit in the token's smallest unit\n    */\n    function deposit(ERC20 _token, uint256 _value) payable public {\n        address trader = msg.sender;\n\n        if (address(_token) == ETHEREUM) {\n            require(msg.value == _value);\n        } else {\n            require(_token.transferFrom(trader, this, _value));\n        }\n        privateIncrementBalance(trader, _token, _value);\n    }\n\n    /**\n    @notice Withdraws ETH or an ERC20 token from the contract\n    @notice TODO: Check if the account has any open orders first\n    @param _token the token's address\n    @param _value the amount to withdraw in the token's smallest unit\n    */\n    function withdraw(ERC20 _token, uint256 _value) public {\n        address trader = msg.sender;\n\n        require(traderBalances[trader][_token] >= _value);\n\n        // Check if the trader is allowed to withdraw this token\n        require(settlementContract.traderCanWithdraw(trader, _token, _value));\n\n        privateDecrementBalance(trader, _token, _value);\n        if (address(_token) == ETHEREUM) {\n            trader.transfer(_value);\n        } else {\n            require(_token.transfer(trader, _value));\n        }\n    }\n\n\n    /********** READ-ONLY FUNCTIONS *******************************************/\n\n    /**\n    @notice Retrieves the list of token addresses that the trader has previously\n    had balances for and a list of the corresponding token balances\n    @param _trader the address of the trader\n    @return [\n        \"the array of token addresses\",\n        \"the array of token balances in tokens' smallest units\"\n    ]\n    */\n    function getBalances(address _trader) public view returns (address[], uint256[]) {\n        address[] memory tokens = traderTokens[_trader];\n        uint256[] memory tokenBalances = new uint256[](tokens.length);\n\n        for (uint256 i = 0; i < tokens.length; i++) {\n            tokenBalances[i] = traderBalances[_trader][tokens[i]];\n        }\n\n        return (tokens, tokenBalances);\n    }\n\n}",
  "sourcePath": "/home/noah/github/republicprotocol/republic-sol/contracts/RenEx/RenExBalances.sol",
  "compiler": {
    "name": "solc",
    "version": "0.4.24+commit.e67f0147.Emscripten.clang"
  },
  "schemaVersion": "2.0.0",
  "updatedAt": "2018-06-15T06:59:37.754Z"
}