{
  "contractName": "RenLedger",
  "abi": [
    {
      "constant": true,
      "inputs": [
        {
          "name": "",
          "type": "uint256"
        }
      ],
      "name": "buyOrders",
      "outputs": [
        {
          "name": "",
          "type": "bytes32"
        }
      ],
      "payable": false,
      "stateMutability": "view",
      "type": "function"
    },
    {
      "constant": true,
      "inputs": [
        {
          "name": "",
          "type": "uint256"
        }
      ],
      "name": "sellOrders",
      "outputs": [
        {
          "name": "",
          "type": "bytes32"
        }
      ],
      "payable": false,
      "stateMutability": "view",
      "type": "function"
    },
    {
      "constant": true,
      "inputs": [],
      "name": "fee",
      "outputs": [
        {
          "name": "",
          "type": "uint256"
        }
      ],
      "payable": false,
      "stateMutability": "view",
      "type": "function"
    },
    {
      "inputs": [
        {
          "name": "_fee",
          "type": "uint256"
        },
        {
          "name": "_token",
          "type": "address"
        },
        {
          "name": "_registry",
          "type": "address"
        }
      ],
      "payable": false,
      "stateMutability": "nonpayable",
      "type": "constructor"
    },
    {
      "constant": false,
      "inputs": [
        {
          "name": "_signature",
          "type": "bytes"
        },
        {
          "name": "_orderId",
          "type": "bytes32"
        }
      ],
      "name": "openBuyOrder",
      "outputs": [],
      "payable": false,
      "stateMutability": "nonpayable",
      "type": "function"
    },
    {
      "constant": false,
      "inputs": [
        {
          "name": "_signature",
          "type": "bytes"
        },
        {
          "name": "_orderId",
          "type": "bytes32"
        }
      ],
      "name": "openSellOrder",
      "outputs": [],
      "payable": false,
      "stateMutability": "nonpayable",
      "type": "function"
    },
    {
      "constant": false,
      "inputs": [
        {
          "name": "_orderId",
          "type": "bytes32"
        },
        {
          "name": "_orderMatches",
          "type": "bytes32[]"
        }
      ],
      "name": "confirmOrder",
      "outputs": [],
      "payable": false,
      "stateMutability": "nonpayable",
      "type": "function"
    },
    {
      "constant": false,
      "inputs": [
        {
          "name": "_signature",
          "type": "bytes"
        },
        {
          "name": "_orderId",
          "type": "bytes32"
        }
      ],
      "name": "cancelOrder",
      "outputs": [],
      "payable": false,
      "stateMutability": "nonpayable",
      "type": "function"
    },
    {
      "constant": true,
      "inputs": [
        {
          "name": "index",
          "type": "uint256"
        }
      ],
      "name": "buyOrder",
      "outputs": [
        {
          "name": "",
          "type": "bytes32"
        },
        {
          "name": "",
          "type": "bool"
        }
      ],
      "payable": false,
      "stateMutability": "view",
      "type": "function"
    },
    {
      "constant": true,
      "inputs": [
        {
          "name": "index",
          "type": "uint256"
        }
      ],
      "name": "sellOrder",
      "outputs": [
        {
          "name": "",
          "type": "bytes32"
        },
        {
          "name": "",
          "type": "bool"
        }
      ],
      "payable": false,
      "stateMutability": "view",
      "type": "function"
    },
    {
      "constant": true,
      "inputs": [
        {
          "name": "_orderId",
          "type": "bytes32"
        }
      ],
      "name": "orderState",
      "outputs": [
        {
          "name": "",
          "type": "uint8"
        }
      ],
      "payable": false,
      "stateMutability": "view",
      "type": "function"
    },
    {
      "constant": true,
      "inputs": [
        {
          "name": "_orderId",
          "type": "bytes32"
        }
      ],
      "name": "orderMatch",
      "outputs": [
        {
          "name": "",
          "type": "bytes32[]"
        }
      ],
      "payable": false,
      "stateMutability": "view",
      "type": "function"
    },
    {
      "constant": true,
      "inputs": [
        {
          "name": "_orderId",
          "type": "bytes32"
        }
      ],
      "name": "orderPriority",
      "outputs": [
        {
          "name": "",
          "type": "uint256"
        }
      ],
      "payable": false,
      "stateMutability": "view",
      "type": "function"
    },
    {
      "constant": true,
      "inputs": [
        {
          "name": "_orderId",
          "type": "bytes32"
        }
      ],
      "name": "orderTrader",
      "outputs": [
        {
          "name": "",
          "type": "address"
        }
      ],
      "payable": false,
      "stateMutability": "view",
      "type": "function"
    },
    {
      "constant": true,
      "inputs": [
        {
          "name": "_orderId",
          "type": "bytes32"
        }
      ],
      "name": "orderBroker",
      "outputs": [
        {
          "name": "",
          "type": "address"
        }
      ],
      "payable": false,
      "stateMutability": "view",
      "type": "function"
    },
    {
      "constant": true,
      "inputs": [
        {
          "name": "_orderId",
          "type": "bytes32"
        }
      ],
      "name": "orderConfirmer",
      "outputs": [
        {
          "name": "",
          "type": "address"
        }
      ],
      "payable": false,
      "stateMutability": "view",
      "type": "function"
    },
    {
      "constant": true,
      "inputs": [
        {
          "name": "_orderId",
          "type": "bytes32"
        }
      ],
      "name": "orderDepth",
      "outputs": [
        {
          "name": "",
          "type": "uint256"
        }
      ],
      "payable": false,
      "stateMutability": "view",
      "type": "function"
    },
    {
      "constant": true,
      "inputs": [],
      "name": "getOrdersCount",
      "outputs": [
        {
          "name": "",
          "type": "uint256"
        }
      ],
      "payable": false,
      "stateMutability": "view",
      "type": "function"
    },
    {
      "constant": true,
      "inputs": [
        {
          "name": "index",
          "type": "uint256"
        }
      ],
      "name": "getOrder",
      "outputs": [
        {
          "name": "",
          "type": "bytes32"
        },
        {
          "name": "",
          "type": "bool"
        }
      ],
      "payable": false,
      "stateMutability": "view",
      "type": "function"
    }
  ],
  "bytecode": "0x608060405234801561001057600080fd5b50604051606080611a838339810180604052810190808051906020019092919080519060200190929190805190602001909291905050508260048190555081600560006101000a81548173ffffffffffffffffffffffffffffffffffffffff021916908373ffffffffffffffffffffffffffffffffffffffff16021790555080600660006101000a81548173ffffffffffffffffffffffffffffffffffffffff021916908373ffffffffffffffffffffffffffffffffffffffff1602179055505050506119a1806100e26000396000f3006080604052600436106100fc576000357c0100000000000000000000000000000000000000000000000000000000900463ffffffff1680631107c3f71461010157806322f85eaa1461017257806335cea288146101c657806339b0d6771461020f5780634a8393f3146102865780635060340b146102cf578063574ed6c1146103465780637008b996146103bd57806397514d9014610431578063a188fcb814610485578063a5181661146104ca578063aab14d041461053b578063af3e8a4014610586578063b1a080101461060c578063b248e4e11461067d578063b5b3b051146106c2578063d09ef241146106ed578063ddca3f4314610741575b600080fd5b34801561010d57600080fd5b50610130600480360381019080803560001916906020019092919050505061076c565b604051808273ffffffffffffffffffffffffffffffffffffffff1673ffffffffffffffffffffffffffffffffffffffff16815260200191505060405180910390f35b34801561017e57600080fd5b5061019d600480360381019080803590602001909291905050506107b4565b604051808360001916600019168152602001821515151581526020019250505060405180910390f35b3480156101d257600080fd5b506101f1600480360381019080803590602001909291905050506107f8565b60405180826000191660001916815260200191505060405180910390f35b34801561021b57600080fd5b50610284600480360381019080803590602001908201803590602001908080601f0160208091040260200160405190810160405280939291908181526020018383808284378201915050505050509192919290803560001916906020019092919050505061081b565b005b34801561029257600080fd5b506102b160048036038101908080359060200190929190505050610883565b60405180826000191660001916815260200191505060405180910390f35b3480156102db57600080fd5b50610344600480360381019080803590602001908201803590602001908080601f016020809104026020016040519081016040528093929190818152602001838380828437820191505050505050919291929080356000191690602001909291905050506108a6565b005b34801561035257600080fd5b506103bb600480360381019080803590602001908201803590602001908080601f0160208091040260200160405190810160405280939291908181526020018383808284378201915050505050509192919290803560001916906020019092919050505061090e565b005b3480156103c957600080fd5b5061042f600480360381019080803560001916906020019092919080359060200190820180359060200190808060200260200160405190810160405280939291908181526020018383602002808284378201915050505050509192919290505050610ade565b005b34801561043d57600080fd5b5061045c60048036038101908080359060200190929190505050610e5b565b604051808360001916600019168152602001821515151581526020019250505060405180910390f35b34801561049157600080fd5b506104b46004803603810190808035600019169060200190929190505050610e9f565b6040518082815260200191505060405180910390f35b3480156104d657600080fd5b506104f96004803603810190808035600019169060200190929190505050610ef9565b604051808273ffffffffffffffffffffffffffffffffffffffff1673ffffffffffffffffffffffffffffffffffffffff16815260200191505060405180910390f35b34801561054757600080fd5b5061056a6004803603810190808035600019169060200190929190505050610f41565b604051808260ff1660ff16815260200191505060405180910390f35b34801561059257600080fd5b506105b56004803603810190808035600019169060200190929190505050610f81565b6040518080602001828103825283818151815260200191508051906020019060200280838360005b838110156105f85780820151818401526020810190506105dd565b505050509050019250505060405180910390f35b34801561061857600080fd5b5061063b6004803603810190808035600019169060200190929190505050610ffb565b604051808273ffffffffffffffffffffffffffffffffffffffff1673ffffffffffffffffffffffffffffffffffffffff16815260200191505060405180910390f35b34801561068957600080fd5b506106ac6004803603810190808035600019169060200190929190505050611043565b6040518082815260200191505060405180910390f35b3480156106ce57600080fd5b506106d761106b565b6040518082815260200191505060405180910390f35b3480156106f957600080fd5b506107186004803603810190808035906020019092919050505061107f565b604051808360001916600019168152602001821515151581526020019250505060405180910390f35b34801561074d57600080fd5b506107566110c3565b6040518082815260200191505060405180910390f35b600060036000836000191660001916815260200190815260200160002060020160009054906101000a900473ffffffffffffffffffffffffffffffffffffffff169050919050565b600080600080549050831015156107d25760008090915091506107f3565b6000838154811015156107e157fe5b90600052602060002001546001915091505b915091565b60008181548110151561080757fe5b906000526020600020016000915090505481565b61082582826110c9565b6001819080600181540180825580915050906001820390600052602060002001600090919290919091509060001916905550600080549050600360008360001916600019168152602001908152602001600020600301819055505050565b60018181548110151561089257fe5b906000526020600020016000915090505481565b6108b082826110c9565b6000819080600181540180825580915050906001820390600052602060002001600090919290919091509060001916905550600080549050600360008360001916600019168152602001908152602001600020600301819055505050565b6000806001600381111561091e57fe5b60036000856000191660001916815260200190815260200160002060000160019054906101000a900460ff16600381111561095557fe5b14151561096157600080fd5b8260405160200180807f52657075626c69632050726f746f636f6c3a2063616e63656c3a200000000000815250601b0182600019166000191681526020019150506040516020818303038152906040526040518082805190602001908083835b6020831015156109e657805182526020820191506020810190506020830392506109c1565b6001836020036101000a03801982511681845116808217855250505050505090500191505060405180910390209150610a1f82856115ae565b90508073ffffffffffffffffffffffffffffffffffffffff1660036000856000191660001916815260200190815260200160002060000160029054906101000a900473ffffffffffffffffffffffffffffffffffffffff1673ffffffffffffffffffffffffffffffffffffffff16141515610a9957600080fd5b6003806000856000191660001916815260200190815260200160002060000160016101000a81548160ff02191690836003811115610ad357fe5b021790555050505050565b600033600660009054906101000a900473ffffffffffffffffffffffffffffffffffffffff1673ffffffffffffffffffffffffffffffffffffffff16634f5550fc826c01000000000000000000000000026040518263ffffffff167c010000000000000000000000000000000000000000000000000000000002815260040180826bffffffffffffffffffffffff19166bffffffffffffffffffffffff19168152602001915050602060405180830381600087803b158015610b9f57600080fd5b505af1158015610bb3573d6000803e3d6000fd5b505050506040513d6020811015610bc957600080fd5b81019080805190602001909291905050501515610be557600080fd5b60016003811115610bf257fe5b60036000866000191660001916815260200190815260200160002060000160019054906101000a900460ff166003811115610c2957fe5b141515610c3557600080fd5b600091505b8251821015610cb75760016003811115610c5057fe5b600360008585815181101515610c6257fe5b906020019060200201516000191660001916815260200190815260200160002060000160019054906101000a900460ff166003811115610c9e57fe5b141515610caa57600080fd5b8180600101925050610c3a565b600091505b8251821015610d85576002600360008585815181101515610cd957fe5b906020019060200201516000191660001916815260200190815260200160002060000160016101000a81548160ff02191690836003811115610d1757fe5b0217905550602060405190810160405280856000191660001916815250600360008585815181101515610d4657fe5b9060200190602002015160001916600019168152602001908152602001600020600501906001610d779291906118aa565b508180600101925050610cbc565b600260036000866000191660001916815260200190815260200160002060000160016101000a81548160ff02191690836003811115610dc057fe5b02179055503360036000866000191660001916815260200190815260200160002060020160006101000a81548173ffffffffffffffffffffffffffffffffffffffff021916908373ffffffffffffffffffffffffffffffffffffffff160217905550826003600086600019166000191681526020019081526020016000206005019080519060200190610e549291906118fd565b5050505050565b60008060018054905083101515610e79576000809091509150610e9a565b600183815481101515610e8857fe5b90600052602060002001546001915091505b915091565b600080600360008460001916600019168152602001908152602001600020600401541415610ed05760009050610ef4565b60036000836000191660001916815260200190815260200160002060040154430390505b919050565b600060036000836000191660001916815260200190815260200160002060010160009054906101000a900473ffffffffffffffffffffffffffffffffffffffff169050919050565b600060036000836000191660001916815260200190815260200160002060000160019054906101000a900460ff166003811115610f7a57fe5b9050919050565b6060600360008360001916600019168152602001908152602001600020600501805480602002602001604051908101604052809291908181526020018280548015610fef57602002820191906000526020600020905b81546000191681526020019060010190808311610fd7575b50505050509050919050565b600060036000836000191660001916815260200190815260200160002060000160029054906101000a900473ffffffffffffffffffffffffffffffffffffffff169050919050565b6000600360008360001916600019168152602001908152602001600020600301549050919050565b600060018054905060008054905001905090565b6000806002805490508310151561109d5760008090915091506110be565b6002838154811015156110ac57fe5b90600052602060002001546001915091505b915091565b60045481565b600080600454600560009054906101000a900473ffffffffffffffffffffffffffffffffffffffff1673ffffffffffffffffffffffffffffffffffffffff1663dd62ed3e33306040518363ffffffff167c0100000000000000000000000000000000000000000000000000000000028152600401808373ffffffffffffffffffffffffffffffffffffffff1673ffffffffffffffffffffffffffffffffffffffff1681526020018273ffffffffffffffffffffffffffffffffffffffff1673ffffffffffffffffffffffffffffffffffffffff16815260200192505050602060405180830381600087803b1580156111c057600080fd5b505af11580156111d4573d6000803e3d6000fd5b505050506040513d60208110156111ea57600080fd5b81019080805190602001909291905050501015151561120857600080fd5b600560009054906101000a900473ffffffffffffffffffffffffffffffffffffffff1673ffffffffffffffffffffffffffffffffffffffff166323b872dd33306004546040518463ffffffff167c0100000000000000000000000000000000000000000000000000000000028152600401808473ffffffffffffffffffffffffffffffffffffffff1673ffffffffffffffffffffffffffffffffffffffff1681526020018373ffffffffffffffffffffffffffffffffffffffff1673ffffffffffffffffffffffffffffffffffffffff1681526020018281526020019350505050602060405180830381600087803b15801561130357600080fd5b505af1158015611317573d6000803e3d6000fd5b505050506040513d602081101561132d57600080fd5b8101908080519060200190929190505050151561134957600080fd5b6000600381111561135657fe5b60036000856000191660001916815260200190815260200160002060000160019054906101000a900460ff16600381111561138d57fe5b14151561139957600080fd5b8260405160200180807f52657075626c69632050726f746f636f6c3a206f70656e3a200000000000000081525060190182600019166000191681526020019150506040516020818303038152906040526040518082805190602001908083835b60208310151561141e57805182526020820191506020810190506020830392506113f9565b6001836020036101000a0380198251168184511680821785525050505050509050019150506040518091039020915061145782856115ae565b9050600160036000856000191660001916815260200190815260200160002060000160016101000a81548160ff0219169083600381111561149457fe5b02179055508060036000856000191660001916815260200190815260200160002060000160026101000a81548173ffffffffffffffffffffffffffffffffffffffff021916908373ffffffffffffffffffffffffffffffffffffffff1602179055503360036000856000191660001916815260200190815260200160002060010160006101000a81548173ffffffffffffffffffffffffffffffffffffffff021916908373ffffffffffffffffffffffffffffffffffffffff1602179055504360036000856000191660001916815260200190815260200160002060040181905550600283908060018154018082558091505090600182039060005260206000200160009091929091909150906000191690555050505050565b6000606060006040805190810160405280601c81526020017f19457468657265756d205369676e6564204d6573736167653a0a333200000000815250915081856040516020018083805190602001908083835b6020831015156116265780518252602082019150602081019050602083039250611601565b6001836020036101000a0380198251168184511680821785525050505050509050018260001916600019168152602001925050506040516020818303038152906040526040518082805190602001908083835b60208310151561169e5780518252602082019150602081019050602083039250611679565b6001836020036101000a03801982511681845116808217855250505050505090500191505060405180910390209050600181601b8660408151811015156116e157fe5b9060200101517f010000000000000000000000000000000000000000000000000000000000000090047f0100000000000000000000000000000000000000000000000000000000000000027f010000000000000000000000000000000000000000000000000000000000000090040161175b8760006117eb565b6117668860206117eb565b604051600081526020016040526040518085600019166000191681526020018460ff1660ff1681526020018360001916600019168152602001826000191660001916815260200194505050505060206040516020810390808403906000865af11580156117d7573d6000803e3d6000fd5b505050602060405103519250505092915050565b6000806000809150600090505b602081101561189c5780600802858286601f010381518110151561181857fe5b9060200101517f010000000000000000000000000000000000000000000000000000000000000090047f0100000000000000000000000000000000000000000000000000000000000000027f010000000000000000000000000000000000000000000000000000000000000090049060020a028201915080806001019150506117f8565b816001029250505092915050565b8280548282559060005260206000209081019282156118ec579160200282015b828111156118eb5782518290600019169055916020019190600101906118ca565b5b5090506118f99190611950565b5090565b82805482825590600052602060002090810192821561193f579160200282015b8281111561193e57825182906000191690559160200191906001019061191d565b5b50905061194c9190611950565b5090565b61197291905b8082111561196e576000816000905550600101611956565b5090565b905600a165627a7a72305820427ff59708f0c3bb3e61cb1393ad1463a9f33b585e766267421d5de5829c7e220029",
  "source": "pragma solidity ^0.4.24;\n\nimport \"./DarknodeRegistry.sol\";\nimport \"./libraries/ECDSA.sol\";\n\n/**\n * @notice RenLedger is responsible for storing the orders and their priorities.\n * It's used as an consensus of which order should be executed.\n */\ncontract RenLedger {\n\n    enum OrderType {Midpoint, Limit}\n    enum OrderParity {Buy, Sell}\n    enum OrderState {Undefined, Open, Confirmed, Canceled}\n\n    /**\n    * @notice Order stores the relevant data of an order.\n    */\n    struct Order {\n        OrderParity parity;\n        OrderState state;\n        address trader;\n        address broker;\n        address confirmer;\n        uint256 priority;\n        uint256 blockNumber;\n        bytes32[] matches;\n    }\n\n    // buyOrders/sellOrders store all the buy/sell orders in a list .\n    bytes32[] public buyOrders;\n    bytes32[] public sellOrders;\n    bytes32[] orderbook;\n\n    mapping(bytes32 => Order) private orders;\n\n    uint256 public fee;\n    // Republic ERC20 token contract is used to transfer bonds.\n    RepublicToken private ren;\n    // DarknodeRegistry is used to check registration of the order confirmer.\n    DarknodeRegistry private darknodeRegistry;\n\n    /**\n    * @notice Only allow registered dark nodes.\n    */\n    modifier onlyDarknode(address _sender) {\n        require(darknodeRegistry.isRegistered(bytes20(_sender)));\n        _;\n    }\n\n    /**\n     * @notice The RenLedger constructor.\n     *\n     * @param _fee The fee rate of opening an order.\n     * @param _token The address of the RepublicToken contract.\n     * @param _registry The address of the darknodeRegistry contract.\n     */\n    constructor(uint256 _fee, address _token, address _registry) public {\n        fee = _fee;\n        ren = RepublicToken(_token);\n        darknodeRegistry = DarknodeRegistry(_registry);\n    }\n\n    /**\n     * @notice openBuyOrder opens a new buy order in the ledger. The order must not be opened.\n     *         It requires certain allowance of REN as opening fee. It will recover and store\n     *         the the trader address from the signature.\n     *\n     * @param _signature  Signature of the message \"Republic Protocol: open: {orderId}\"\n     * @param _orderId Order id or the buy order.\n     */\n    function openBuyOrder(bytes _signature, bytes32 _orderId) public {\n        openOrder(_signature, _orderId);\n        buyOrders.push(_orderId);\n        orders[_orderId].priority = buyOrders.length;\n    }\n\n    /**\n     * @notice openSellOrder opens a new sell order in the ledger. The order must not be opened.\n     *         It requires certain allowance of REN as opening fee. It will recover and store\n     *         the the trader address from the signature.\n     *\n     * @param _signature  Signature of the message \"Republic Protocol: open: {orderId}\"\n     * @param _orderId Order id or the buy order.\n     */\n    function openSellOrder(bytes _signature, bytes32 _orderId) public {\n        openOrder(_signature, _orderId);\n        sellOrders.push(_orderId);\n        orders[_orderId].priority = buyOrders.length;\n    }\n\n    function openOrder(bytes _signature, bytes32 _orderId) private {\n        require(ren.allowance(msg.sender, this) >= fee);\n        require(ren.transferFrom(msg.sender, this, fee));\n        require(orders[_orderId].state == OrderState.Undefined);\n\n        // recover trader address from the signature\n        bytes32 data = keccak256(abi.encodePacked(\"Republic Protocol: open: \", _orderId));\n        address trader = ECDSA.addr(data, _signature);\n        orders[_orderId].state = OrderState.Open;\n        orders[_orderId].trader = trader;\n        orders[_orderId].broker = msg.sender;\n        orders[_orderId].blockNumber = block.number;\n        orderbook.push(_orderId);\n    }\n\n    /**\n     * @notice confirmOrder confirms a match is found between one order and a list of orders.\n     *         It requires the  sender address to be registered in the darknodeRegistry,\n     *\n     * @param _orderId Order ID .\n     * @param _orderMatches A list of matched order\n     */\n    function confirmOrder(bytes32 _orderId, bytes32[] _orderMatches) public onlyDarknode(msg.sender) {\n        require(orders[_orderId].state == OrderState.Open);\n        for (uint256 i = 0; i < _orderMatches.length; i++) {\n            require(orders[_orderMatches[i]].state == OrderState.Open);\n        }\n\n        for (i = 0; i < _orderMatches.length; i++) {\n            orders[_orderMatches[i]].state = OrderState.Confirmed;\n            orders[_orderMatches[i]].matches = [_orderId];\n        }\n        orders[_orderId].state = OrderState.Confirmed;\n        orders[_orderId].confirmer = msg.sender;\n        orders[_orderId].matches = _orderMatches;\n    }\n\n    /**\n     * @notice cancelOrder cancels a opened order in the ledger. It will recover and store the the\n               trader address from the signature.\n     *\n     * @param _signature  Signature of the message \"Republic Protocol: cancel: {orderId}\"\n     * @param _orderId Order id.\n     */\n    function cancelOrder(bytes _signature, bytes32 _orderId) public {\n        require(orders[_orderId].state == OrderState.Open);\n\n        // recover trader address from the signature\n        bytes32 data = keccak256(abi.encodePacked(\"Republic Protocol: cancel: \", _orderId));\n        address trader = ECDSA.addr(data, _signature);\n        require(orders[_orderId].trader == trader);\n        orders[_orderId].state = OrderState.Canceled;\n    }\n\n    /**\n    * buyOrder will return orderId of the given index in buy order list and true if exists.\n    * Otherwise it will return empty bytes and false.\n    */\n    function buyOrder(uint256 index) public view returns (bytes32, bool){\n        if (index >= buyOrders.length) {\n            return (\"\", false);\n        }\n\n        return (buyOrders[index], true);\n    }\n\n    /**\n    * sellOrder will return orderId of the given index in sell order list and true if exists.\n    * Otherwise it will return empty bytes and false.\n    */\n    function sellOrder(uint256 index) public view returns (bytes32, bool){\n        if (index >= sellOrders.length) {\n            return (\"\", false);\n        }\n\n        return (sellOrders[index], true);\n    }\n\n    /**\n    * orderState will return status of the given orderID.\n    */\n    function orderState(bytes32 _orderId) public view returns (uint8){\n        return uint8(orders[_orderId].state);\n    }\n\n    /**\n    * orderMatch will return a list of matched orders to the given orderID.\n    */\n    function orderMatch(bytes32 _orderId) public view returns (bytes32[]){\n        return orders[_orderId].matches;\n    }\n\n    /**\n    * orderPriority will return the priority of the given orderID.\n    * The priority is the index of the order in the orderbook.\n    */\n    function orderPriority(bytes32 _orderId) public view returns (uint256){\n        return orders[_orderId].priority;\n    }\n\n    /**\n    * orderTrader will return the trader of the given orderID.\n    * Trader is the one who signs the message and does the actual trading.\n    */\n    function orderTrader(bytes32 _orderId) public view returns (address){\n        return orders[_orderId].trader;\n    }\n\n    /**\n    * orderBroker will return the broker of the given orderID.\n    * Broker is the one who represent the trader to send the tx.\n    */\n    function orderBroker(bytes32 _orderId) public view returns (address){\n        return orders[_orderId].broker;\n    }\n\n    /**\n    * orderConfirmer will return the darknode address which confirms the given orderID.\n    */\n    function orderConfirmer(bytes32 _orderId) public view returns (address){\n        return orders[_orderId].confirmer;\n    }\n\n    /**\n    * orderDepth will return the block depth of the orderId\n    */\n    function orderDepth(bytes32 _orderId) public view returns (uint256) {\n        if (orders[_orderId].blockNumber == 0) {\n            return 0;\n        }\n        return (block.number - orders[_orderId].blockNumber);\n    }\n\n    /**\n    * getOrdersCount will return the number of orders in the orderbook\n    */\n    function getOrdersCount() public view returns (uint256){\n        return buyOrders.length + sellOrders.length;\n    }\n\n    /**\n    * getOrder will return orderId of the given index in the orderbook list and true if exists.\n    * Otherwise it will return empty bytes and false.\n    */\n    function getOrder(uint256 index) public view returns (bytes32, bool){\n        if (index >= orderbook.length) {\n            return (\"\", false);\n        }\n\n        return (orderbook[index], true);\n    }\n}\n\n",
  "sourcePath": "/home/noah/github/republicprotocol/republic-sol/contracts/RenLedger.sol",
  "compiler": {
    "name": "solc",
    "version": "0.4.24+commit.e67f0147.Emscripten.clang"
  },
  "schemaVersion": "2.0.0",
  "updatedAt": "2018-05-31T23:57:03.943Z"
}