{
  "contractName": "RewardVault",
  "abi": [
    {
      "constant": true,
      "inputs": [],
      "name": "ETHEREUM",
      "outputs": [
        {
          "name": "",
          "type": "address"
        }
      ],
      "payable": false,
      "stateMutability": "view",
      "type": "function"
    },
    {
      "inputs": [
        {
          "name": "_rewardeeCount",
          "type": "uint256"
        },
        {
          "name": "_challengeCount",
          "type": "uint256"
        },
        {
          "name": "_threshold",
          "type": "uint256"
        },
        {
          "name": "_dnrAddress",
          "type": "address"
        },
        {
          "name": "_tokenAddress",
          "type": "address"
        }
      ],
      "payable": false,
      "stateMutability": "nonpayable",
      "type": "constructor"
    },
    {
      "constant": false,
      "inputs": [
        {
          "name": "_challenge",
          "type": "bytes"
        },
        {
          "name": "_value",
          "type": "uint256"
        }
      ],
      "name": "deposit",
      "outputs": [],
      "payable": true,
      "stateMutability": "payable",
      "type": "function"
    },
    {
      "constant": false,
      "inputs": [
        {
          "name": "_challengeID",
          "type": "bytes32"
        },
        {
          "name": "_proof",
          "type": "bytes"
        },
        {
          "name": "_rewardRoundNonce",
          "type": "uint256"
        }
      ],
      "name": "withdraw",
      "outputs": [],
      "payable": false,
      "stateMutability": "nonpayable",
      "type": "function"
    },
    {
      "constant": false,
      "inputs": [
        {
          "name": "_nonce",
          "type": "uint256"
        }
      ],
      "name": "finalize",
      "outputs": [],
      "payable": false,
      "stateMutability": "nonpayable",
      "type": "function"
    },
    {
      "constant": true,
      "inputs": [
        {
          "name": "_nonce",
          "type": "uint256"
        }
      ],
      "name": "isFinalizable",
      "outputs": [
        {
          "name": "",
          "type": "bool"
        }
      ],
      "payable": false,
      "stateMutability": "view",
      "type": "function"
    },
    {
      "constant": true,
      "inputs": [
        {
          "name": "_nonce",
          "type": "uint256"
        }
      ],
      "name": "rewardees",
      "outputs": [
        {
          "name": "",
          "type": "address[]"
        }
      ],
      "payable": false,
      "stateMutability": "view",
      "type": "function"
    },
    {
      "constant": true,
      "inputs": [
        {
          "name": "_nonce",
          "type": "uint256"
        }
      ],
      "name": "challengeIds",
      "outputs": [
        {
          "name": "",
          "type": "bytes32[]"
        }
      ],
      "payable": false,
      "stateMutability": "view",
      "type": "function"
    }
  ],
  "bytecode": "0x608060405234801561001057600080fd5b5060405160a080611816833981018060405281019080805190602001909291908051906020019092919080519060200190929190805190602001909291908051906020019092919050505060e060405190810160405280600081526020018681526020018581526020018587028581151561008757fe5b0481526020018481526020018373ffffffffffffffffffffffffffffffffffffffff1681526020018273ffffffffffffffffffffffffffffffffffffffff1681525060008082015181600001556020820151816001015560408201518160020155606082015181600301556080820151816004015560a08201518160050160006101000a81548173ffffffffffffffffffffffffffffffffffffffff021916908373ffffffffffffffffffffffffffffffffffffffff16021790555060c08201518160060160006101000a81548173ffffffffffffffffffffffffffffffffffffffff021916908373ffffffffffffffffffffffffffffffffffffffff16021790555090505073eeeeeeeeeeeeeeeeeeeeeeeeeeeeeeeeeeeeeeee73ffffffffffffffffffffffffffffffffffffffff168173ffffffffffffffffffffffffffffffffffffffff161415156102185780600a60006101000a81548173ffffffffffffffffffffffffffffffffffffffff021916908373ffffffffffffffffffffffffffffffffffffffff1602179055505b50505050506115ea8061022c6000396000f300608060405260043610610083576000357c0100000000000000000000000000000000000000000000000000000000900463ffffffff16806305261aea1461008857806323f6bfb2146100b55780639340554014610137578063cfc858ff1461019d578063e533cdf51461021e578063f7cdf47c14610263578063f87770f5146102ba575b600080fd5b34801561009457600080fd5b506100b36004803603810190808035906020019092919050505061033c565b005b3480156100c157600080fd5b506100e06004803603810190808035906020019092919050505061034a565b6040518080602001828103825283818151815260200191508051906020019060200280838360005b83811015610123578082015181840152602081019050610108565b505050509050019250505060405180910390f35b61019b600480360381019080803590602001908201803590602001908080601f0160208091040260200160405190810160405280939291908181526020018383808284378201915050505050509192919290803590602001909291905050506103f1565b005b3480156101a957600080fd5b5061021c6004803603810190808035600019169060200190929190803590602001908201803590602001908080601f0160208091040260200160405190810160405280939291908181526020018383808284378201915050505050509192919290803590602001909291905050506106fa565b005b34801561022a57600080fd5b50610249600480360381019080803590602001909291905050506108e7565b604051808215151515815260200191505060405180910390f35b34801561026f57600080fd5b50610278610940565b604051808273ffffffffffffffffffffffffffffffffffffffff1673ffffffffffffffffffffffffffffffffffffffff16815260200191505060405180910390f35b3480156102c657600080fd5b506102e560048036038101908080359060200190929190505050610958565b6040518080602001828103825283818151815260200191508051906020019060200280838360005b8381101561032857808201518184015260208101905061030d565b505050509050019250505060405180910390f35b610347600082610a31565b50565b60606000600901600083815260200190815260200160002060000160009054906101000a900460ff16151561037e57600080fd5b600060090160008381526020019081526020016000206004018054806020026020016040519081016040528092919081815260200182805480156103e557602002820191906000526020600020905b815460001916815260200190600101908083116103cd575b50505050509050919050565b73eeeeeeeeeeeeeeeeeeeeeeeeeeeeeeeeeeeeeeee73ffffffffffffffffffffffffffffffffffffffff16600060060160009054906101000a900473ffffffffffffffffffffffffffffffffffffffff1673ffffffffffffffffffffffffffffffffffffffff16141561047157803414151561046c57600080fd5b6106ea565b80600a60009054906101000a900473ffffffffffffffffffffffffffffffffffffffff1673ffffffffffffffffffffffffffffffffffffffff1663dd62ed3e33306040518363ffffffff167c0100000000000000000000000000000000000000000000000000000000028152600401808373ffffffffffffffffffffffffffffffffffffffff1673ffffffffffffffffffffffffffffffffffffffff1681526020018273ffffffffffffffffffffffffffffffffffffffff1673ffffffffffffffffffffffffffffffffffffffff16815260200192505050602060405180830381600087803b15801561056357600080fd5b505af1158015610577573d6000803e3d6000fd5b505050506040513d602081101561058d57600080fd5b81019080805190602001909291905050501415156105aa57600080fd5b600a60009054906101000a900473ffffffffffffffffffffffffffffffffffffffff1673ffffffffffffffffffffffffffffffffffffffff166323b872dd3330846040518463ffffffff167c0100000000000000000000000000000000000000000000000000000000028152600401808473ffffffffffffffffffffffffffffffffffffffff1673ffffffffffffffffffffffffffffffffffffffff1681526020018373ffffffffffffffffffffffffffffffffffffffff1673ffffffffffffffffffffffffffffffffffffffff1681526020018281526020019350505050602060405180830381600087803b1580156106a357600080fd5b505af11580156106b7573d6000803e3d6000fd5b505050506040513d60208110156106cd57600080fd5b810190808051906020019092919050505015156106e957600080fd5b5b6106f660008383611214565b5050565b610708600084848433611377565b151561071357600080fd5b73eeeeeeeeeeeeeeeeeeeeeeeeeeeeeeeeeeeeeeee73ffffffffffffffffffffffffffffffffffffffff16600060060160009054906101000a900473ffffffffffffffffffffffffffffffffffffffff1673ffffffffffffffffffffffffffffffffffffffff1614156107d1573373ffffffffffffffffffffffffffffffffffffffff166108fc6000600301549081150290604051600060405180830381858888f193505050501580156107cb573d6000803e3d6000fd5b506108e2565b600a60009054906101000a900473ffffffffffffffffffffffffffffffffffffffff1673ffffffffffffffffffffffffffffffffffffffff1663a9059cbb336000600301546040518363ffffffff167c0100000000000000000000000000000000000000000000000000000000028152600401808373ffffffffffffffffffffffffffffffffffffffff1673ffffffffffffffffffffffffffffffffffffffff16815260200182815260200192505050602060405180830381600087803b15801561089b57600080fd5b505af11580156108af573d6000803e3d6000fd5b505050506040513d60208110156108c557600080fd5b810190808051906020019092919050505015156108e157600080fd5b5b505050565b60008060040154600060090160008481526020019081526020016000206002015414801561093957506000600901600083815260200190815260200160002060000160009054906101000a900460ff16155b9050919050565b73eeeeeeeeeeeeeeeeeeeeeeeeeeeeeeeeeeeeeeee81565b60606000600901600083815260200190815260200160002060000160009054906101000a900460ff16151561098c57600080fd5b60006009016000838152602001908152602001600020600501805480602002602001604051908101604052809291908181526020018280548015610a2557602002820191906000526020600020905b8160009054906101000a900473ffffffffffffffffffffffffffffffffffffffff1673ffffffffffffffffffffffffffffffffffffffff16815260200190600101908083116109db575b50505050509050919050565b600080600060606000808760050160009054906101000a900473ffffffffffffffffffffffffffffffffffffffff169550876004015488600901600089815260200190815260200160002060020154148015610ab0575087600901600088815260200190815260200160002060000160009054906101000a900460ff16155b1515610abb57600080fd5b8760090160008881526020019081526020016000206003018054905088600901600089815260200190815260200160002060010154811515610af957fe5b069450600093505b8760020154841015610cbf575b876007016000888152602001908152602001600020600086815260200190815260200160002060009054906101000a900460ff1615610b5257600185019450610b0e565b87600901600088815260200190815260200160002060040188600901600089815260200190815260200160002060030186815481101515610b8f57fe5b906000526020600020016040518082805460018160011615610100020316600290048015610bf45780601f10610bd2576101008083540402835291820191610bf4565b820191906000526020600020905b815481529060010190602001808311610be0575b5050915050604051809103902090806001815401808255809150509060018203906000526020600020016000909192909190915090600019169055506001886007016000898152602001908152602001600020600087815260200190815260200160002060006101000a81548160ff02191690831515021790555087600901600088815260200190815260200160002060030180549050886009016000898152602001908152602001600020600101548601811515610caf57fe5b0694508380600101945050610b01565b8573ffffffffffffffffffffffffffffffffffffffff1663c8a8349b6040518163ffffffff167c0100000000000000000000000000000000000000000000000000000000028152600401600060405180830381600087803b158015610d2357600080fd5b505af1158015610d37573d6000803e3d6000fd5b505050506040513d6000823e3d601f19601f820116820180604052506020811015610d6157600080fd5b810190808051640100000000811115610d7957600080fd5b82810190506020810184811115610d8f57600080fd5b8151856020820283011164010000000082111715610dac57600080fd5b50509291905050509250825188600901600089815260200190815260200160002060010154811515610dda57fe5b069450600093505b87600101548410156111d9575b876008016000888760405160200180838152602001828152602001925050506040516020818303038152906040526040518082805190602001908083835b602083101515610e525780518252602082019150602081019050602083039250610e2d565b6001836020036101000a03801982511681845116808217855250505050505090500191505060405180910390206000191660001916815260200190815260200160002060009054906101000a900460ff1615610eb357600185019450610def565b8573ffffffffffffffffffffffffffffffffffffffff1663e487eb588487815181101515610edd57fe5b906020019060200201516040518263ffffffff167c010000000000000000000000000000000000000000000000000000000002815260040180826bffffffffffffffffffffffff19166bffffffffffffffffffffffff19168152602001915050602060405180830381600087803b158015610f5757600080fd5b505af1158015610f6b573d6000803e3d6000fd5b505050506040513d6020811015610f8157600080fd5b810190808051906020019092919050505091508760090160008881526020019081526020016000206005018290806001815401808255809150509060018203906000526020600020016000909192909190916101000a81548173ffffffffffffffffffffffffffffffffffffffff021916908373ffffffffffffffffffffffffffffffffffffffff16021790555050600090505b87600201548110156110e457600188600901600089815260200190815260200160002060060160008473ffffffffffffffffffffffffffffffffffffffff1673ffffffffffffffffffffffffffffffffffffffff16815260200190815260200160002060008a60090160008b81526020019081526020016000206004018481548110151561109f57fe5b90600052602060002001546000191660001916815260200190815260200160002060006101000a81548160ff0219169083151502179055508080600101915050611015565b6001886008016000898860405160200180838152602001828152602001925050506040516020818303038152906040526040518082805190602001908083835b6020831015156111495780518252602082019150602081019050602083039250611124565b6001836020036101000a03801982511681845116808217855250505050505090500191505060405180910390206000191660001916815260200190815260200160002060006101000a81548160ff02191690831515021790555082518860090160008981526020019081526020016000206001015486018115156111c957fe5b0694508380600101945050610de2565b600188600901600089815260200190815260200160002060000160006101000a81548160ff0219169083151502179055505050505050505050565b8260090160008460000154815260200190815260200160002060030182908060018154018082558091505090600182039060005260206000200160009091929091909150908051906020019061126b929190611519565b5050826004015481846009016000866000015481526020019081526020016000206002015401101515611347578260040154818460090160008660000154815260200190815260200160002060020154010383600901600060018660000154018152602001908152602001600020600201819055508260040154836009016000856000015481526020019081526020016000206002018190555060014303406001900483600901600085600001548152602001908152602001600020600101819055508260000160008154809291906001019190505550611372565b8083600901600085600001548152602001908152602001600020600201600082825401925050819055505b505050565b600085600901600084815260200190815260200160002060000160009054906101000a900460ff1615156113aa57600080fd5b85600901600084815260200190815260200160002060060160008373ffffffffffffffffffffffffffffffffffffffff1673ffffffffffffffffffffffffffffffffffffffff1681526020019081526020016000206000866000191660001916815260200190815260200160002060009054906101000a900460ff1615156114355760009050611504565b61143f858561150d565b151561144e5760009050611504565b856003015486600901600085815260200190815260200160002060020160008282540392505081905550600086600901600085815260200190815260200160002060060160008473ffffffffffffffffffffffffffffffffffffffff1673ffffffffffffffffffffffffffffffffffffffff1681526020019081526020016000206000876000191660001916815260200190815260200160002060006101000a81548160ff021916908315150217905550600190505b95945050505050565b60006001905092915050565b828054600181600116156101000203166002900490600052602060002090601f016020900481019282601f1061155a57805160ff1916838001178555611588565b82800160010185558215611588579182015b8281111561158757825182559160200191906001019061156c565b5b5090506115959190611599565b5090565b6115bb91905b808211156115b757600081600090555060010161159f565b5090565b905600a165627a7a72305820393f9a85da159886d42fa453d669ab20abaa1d5c56333be71dc88252dd28b3390029",
  "source": "pragma solidity ^0.4.24;\n\nimport \"./libraries/LibRewardVault.sol\";\n\ncontract RewardVault {\n    // Constant address for ethereum\n    address constant public ETHEREUM = address(0xEeeeeEeeeEeEeeEeEeEeeEEEeeeeEeeeeeeeEEeE);\n\n    // Reward Vault object\n    LibRewardVault.RewardVault private vault;\n\n    // ERC20 token object\n    ERC20 private token;\n\n    /** \n    * @notice The RewardVault constructor.\n    *\n    * @param _rewardeeCount Number of rewardees in each reward round.\n    * @param _challengeCount Number of challenges in each reward round.\n    * @param _threshold The threshold value for each reward round.\n    * @param _dnrAddress The address of the DarknodeRegistry contract.\n    * @param _tokenAddress The address of the ERC20 contract, \n    *       `0xEeeeeEeeeEeEeeEeEeEeeEEEeeeeEeeeeeeeEEeE` for ether.\n    */\n    constructor(uint256 _rewardeeCount, uint256 _challengeCount, uint256 _threshold, address _dnrAddress, address _tokenAddress) public {    \n        vault = LibRewardVault.RewardVault({\n            currentNonce: 0,\n            rewardeeCount : _rewardeeCount,\n            challengeCount : _challengeCount,\n            threshold : _threshold,\n            rewardPerProof : _threshold/(_rewardeeCount * _challengeCount),\n            dnrAddress : _dnrAddress,\n            tokenAddress : _tokenAddress\n        });\n\n        if (_tokenAddress != ETHEREUM) {\n            token = ERC20(_tokenAddress);\n        }\n    }\n\n    /** \n    * @notice The traders deposit fees into the reward vault.\n    *\n    * @param _challenge challenge for the trader's order.\n    * @param _value the amount of fees.\n    */\n    function deposit(bytes _challenge, uint256 _value) public payable {\n        if (vault.tokenAddress == ETHEREUM) {\n            require(msg.value == _value);\n        } else {\n            require(token.allowance(msg.sender, address(this)) == _value);\n            require(token.transferFrom(msg.sender, address(this), _value));\n        }\n        LibRewardVault.deposit(vault, _challenge, _value);\n    }\n\n    /** \n    * @notice The darknodes withdraw rewards from the reward vault.\n    *\n    * @param _challengeID the id of the challenge.\n    * @param _proof the proof, proving the computation done.\n    * @param _rewardRoundNonce the nonce of the reward round\n    */\n    function withdraw(bytes32 _challengeID, bytes _proof, uint256 _rewardRoundNonce) public {\n        require(LibRewardVault.withdraw(vault, _challengeID, _proof, _rewardRoundNonce, msg.sender));\n        if (vault.tokenAddress == ETHEREUM) {\n            msg.sender.transfer(vault.rewardPerProof);\n        } else {\n            require(token.transfer(msg.sender, vault.rewardPerProof));\n        }\n    }\n\n    /** \n    * @notice Once a threshold is reached for a particular reward round, \n    *       a random sample of orderIDs, and a random sample of darknodes \n    *       are chosen.\n    *\n    * @param _nonce the nonce of the reward round\n    */\n    function finalize(uint256 _nonce) public {\n        LibRewardVault.finalize(vault, _nonce);\n    }\n\n    /** \n    * @notice Checks whether a reward round is finalizable.\n    *\n    * @param _nonce the nonce of the reward round\n    * \n    */\n    function isFinalizable(uint256 _nonce) public view returns (bool) {\n        return (vault.rewardRounds[_nonce].balance == vault.threshold && !vault.rewardRounds[_nonce].finalized);\n    }\n\n    /** \n    * @notice Returns the list of rewardees in the given reward round.\n    *\n    * @param _nonce the nonce of the reward round\n    * \n    */\n    function rewardees(uint256 _nonce) public view returns (address[]) {\n        require(vault.rewardRounds[_nonce].finalized);\n        return vault.rewardRounds[_nonce].rewardees;\n    }\n\n    /** \n    * @notice Returns the list of challenges in the given reward round.\n    *\n    * @param _nonce the nonce of the reward round\n    *\n    */\n    function challengeIds(uint256 _nonce) public view returns (bytes32[]) {\n        require(vault.rewardRounds[_nonce].finalized);\n        return vault.rewardRounds[_nonce].challenges;\n    }\n \n}",
  "sourcePath": "/home/noah/github/republicprotocol/republic-sol/contracts/RewardVault.sol",
  "compiler": {
    "name": "solc",
    "version": "0.4.24+commit.e67f0147.Emscripten.clang"
  },
  "schemaVersion": "2.0.0",
  "updatedAt": "2018-06-01T06:59:37.611Z"
}