{
  "contractName": "TraderAccounts",
  "abi": [
    {
      "constant": true,
      "inputs": [
        {
          "name": "",
          "type": "uint32"
        }
      ],
      "name": "tokenAddresses",
      "outputs": [
        {
          "name": "",
          "type": "address"
        }
      ],
      "payable": false,
      "stateMutability": "view",
      "type": "function"
    },
    {
      "constant": true,
      "inputs": [],
      "name": "owner",
      "outputs": [
        {
          "name": "",
          "type": "address"
        }
      ],
      "payable": false,
      "stateMutability": "view",
      "type": "function"
    },
    {
      "constant": true,
      "inputs": [
        {
          "name": "",
          "type": "bytes32"
        }
      ],
      "name": "orders",
      "outputs": [
        {
          "name": "parity",
          "type": "uint8"
        },
        {
          "name": "orderType",
          "type": "uint8"
        },
        {
          "name": "expiry",
          "type": "uint64"
        },
        {
          "name": "tokens",
          "type": "uint64"
        },
        {
          "name": "priceC",
          "type": "uint256"
        },
        {
          "name": "priceQ",
          "type": "uint256"
        },
        {
          "name": "volumeC",
          "type": "uint256"
        },
        {
          "name": "volumeQ",
          "type": "uint256"
        },
        {
          "name": "minimumVolumeC",
          "type": "uint256"
        },
        {
          "name": "minimumVolumeQ",
          "type": "uint256"
        },
        {
          "name": "nonceHash",
          "type": "uint256"
        }
      ],
      "payable": false,
      "stateMutability": "view",
      "type": "function"
    },
    {
      "constant": true,
      "inputs": [
        {
          "name": "",
          "type": "bytes32"
        }
      ],
      "name": "matches",
      "outputs": [
        {
          "name": "price",
          "type": "uint256"
        },
        {
          "name": "lowVolume",
          "type": "uint256"
        },
        {
          "name": "highVolume",
          "type": "uint256"
        }
      ],
      "payable": false,
      "stateMutability": "view",
      "type": "function"
    },
    {
      "constant": true,
      "inputs": [
        {
          "name": "",
          "type": "uint32"
        }
      ],
      "name": "tokenDecimals",
      "outputs": [
        {
          "name": "",
          "type": "uint8"
        }
      ],
      "payable": false,
      "stateMutability": "view",
      "type": "function"
    },
    {
      "constant": true,
      "inputs": [
        {
          "name": "",
          "type": "uint32"
        }
      ],
      "name": "tokenEnabled",
      "outputs": [
        {
          "name": "",
          "type": "bool"
        }
      ],
      "payable": false,
      "stateMutability": "view",
      "type": "function"
    },
    {
      "constant": false,
      "inputs": [
        {
          "name": "newOwner",
          "type": "address"
        }
      ],
      "name": "transferOwnership",
      "outputs": [],
      "payable": false,
      "stateMutability": "nonpayable",
      "type": "function"
    },
    {
      "inputs": [
        {
          "name": "_ledger",
          "type": "address"
        },
        {
          "name": "_renExBalances",
          "type": "address"
        }
      ],
      "payable": false,
      "stateMutability": "nonpayable",
      "type": "constructor"
    },
    {
      "anonymous": false,
      "inputs": [
        {
          "indexed": false,
          "name": "trader",
          "type": "address"
        },
        {
          "indexed": false,
          "name": "token",
          "type": "uint32"
        },
        {
          "indexed": false,
          "name": "value",
          "type": "uint256"
        }
      ],
      "name": "Deposit",
      "type": "event"
    },
    {
      "anonymous": false,
      "inputs": [
        {
          "indexed": false,
          "name": "trader",
          "type": "address"
        },
        {
          "indexed": false,
          "name": "token",
          "type": "uint32"
        },
        {
          "indexed": false,
          "name": "value",
          "type": "uint256"
        }
      ],
      "name": "Withdraw",
      "type": "event"
    },
    {
      "anonymous": false,
      "inputs": [
        {
          "indexed": false,
          "name": "from",
          "type": "address"
        },
        {
          "indexed": false,
          "name": "to",
          "type": "address"
        },
        {
          "indexed": false,
          "name": "token",
          "type": "uint32"
        },
        {
          "indexed": false,
          "name": "value",
          "type": "uint256"
        }
      ],
      "name": "Transfer",
      "type": "event"
    },
    {
      "anonymous": false,
      "inputs": [
        {
          "indexed": false,
          "name": "msg",
          "type": "string"
        },
        {
          "indexed": false,
          "name": "num",
          "type": "uint256"
        }
      ],
      "name": "Debug256",
      "type": "event"
    },
    {
      "anonymous": false,
      "inputs": [
        {
          "indexed": false,
          "name": "msg",
          "type": "string"
        },
        {
          "indexed": false,
          "name": "num",
          "type": "int256"
        }
      ],
      "name": "Debugi256",
      "type": "event"
    },
    {
      "anonymous": false,
      "inputs": [
        {
          "indexed": false,
          "name": "msg",
          "type": "string"
        }
      ],
      "name": "Debug",
      "type": "event"
    },
    {
      "anonymous": false,
      "inputs": [
        {
          "indexed": false,
          "name": "msg",
          "type": "string"
        },
        {
          "indexed": false,
          "name": "c",
          "type": "uint256"
        },
        {
          "indexed": false,
          "name": "q",
          "type": "uint256"
        }
      ],
      "name": "DebugTuple",
      "type": "event"
    },
    {
      "anonymous": false,
      "inputs": [
        {
          "indexed": false,
          "name": "msg",
          "type": "string"
        },
        {
          "indexed": false,
          "name": "c",
          "type": "uint256"
        },
        {
          "indexed": false,
          "name": "q",
          "type": "int256"
        }
      ],
      "name": "DebugTupleI",
      "type": "event"
    },
    {
      "anonymous": false,
      "inputs": [
        {
          "indexed": true,
          "name": "previousOwner",
          "type": "address"
        },
        {
          "indexed": true,
          "name": "newOwner",
          "type": "address"
        }
      ],
      "name": "OwnershipTransferred",
      "type": "event"
    },
    {
      "constant": false,
      "inputs": [
        {
          "name": "_tokenCode",
          "type": "uint32"
        },
        {
          "name": "_tokenAddress",
          "type": "address"
        },
        {
          "name": "_tokenDecimals",
          "type": "uint8"
        }
      ],
      "name": "registerToken",
      "outputs": [],
      "payable": false,
      "stateMutability": "nonpayable",
      "type": "function"
    },
    {
      "constant": false,
      "inputs": [
        {
          "name": "_tokenCode",
          "type": "uint32"
        }
      ],
      "name": "deregisterToken",
      "outputs": [],
      "payable": false,
      "stateMutability": "nonpayable",
      "type": "function"
    },
    {
      "constant": false,
      "inputs": [
        {
          "name": "_tokenCode",
          "type": "uint32"
        },
        {
          "name": "_value",
          "type": "uint256"
        }
      ],
      "name": "deposit",
      "outputs": [],
      "payable": true,
      "stateMutability": "payable",
      "type": "function"
    },
    {
      "constant": false,
      "inputs": [
        {
          "name": "_tokenCode",
          "type": "uint32"
        },
        {
          "name": "_value",
          "type": "uint256"
        }
      ],
      "name": "withdraw",
      "outputs": [],
      "payable": false,
      "stateMutability": "nonpayable",
      "type": "function"
    },
    {
      "constant": true,
      "inputs": [
        {
          "name": "_trader",
          "type": "address"
        },
        {
          "name": "_tokenCode",
          "type": "uint32"
        }
      ],
      "name": "getBalance",
      "outputs": [
        {
          "name": "",
          "type": "uint256"
        }
      ],
      "payable": false,
      "stateMutability": "view",
      "type": "function"
    },
    {
      "constant": true,
      "inputs": [
        {
          "name": "_trader",
          "type": "address"
        }
      ],
      "name": "getTokens",
      "outputs": [
        {
          "name": "",
          "type": "uint32[]"
        }
      ],
      "payable": false,
      "stateMutability": "view",
      "type": "function"
    },
    {
      "constant": true,
      "inputs": [
        {
          "name": "_trader",
          "type": "address"
        }
      ],
      "name": "getBalances",
      "outputs": [
        {
          "name": "",
          "type": "uint32[]"
        },
        {
          "name": "",
          "type": "uint256[]"
        }
      ],
      "payable": false,
      "stateMutability": "view",
      "type": "function"
    },
    {
      "constant": false,
      "inputs": [
        {
          "name": "_id",
          "type": "bytes32"
        },
        {
          "name": "_orderType",
          "type": "uint8"
        },
        {
          "name": "_parity",
          "type": "uint8"
        },
        {
          "name": "_expiry",
          "type": "uint64"
        },
        {
          "name": "_tokens",
          "type": "uint64"
        },
        {
          "name": "_priceC",
          "type": "uint16"
        },
        {
          "name": "_priceQ",
          "type": "uint16"
        },
        {
          "name": "_volumeC",
          "type": "uint16"
        },
        {
          "name": "_volumeQ",
          "type": "uint16"
        },
        {
          "name": "_minimumVolumeC",
          "type": "uint16"
        },
        {
          "name": "_minimumVolumeQ",
          "type": "uint16"
        },
        {
          "name": "_nonceHash",
          "type": "uint256"
        }
      ],
      "name": "submitOrder",
      "outputs": [],
      "payable": false,
      "stateMutability": "nonpayable",
      "type": "function"
    },
    {
      "constant": false,
      "inputs": [
        {
          "name": "_buyID",
          "type": "bytes32"
        },
        {
          "name": "_sellID",
          "type": "bytes32"
        }
      ],
      "name": "submitMatch",
      "outputs": [],
      "payable": false,
      "stateMutability": "nonpayable",
      "type": "function"
    }
  ],
  "bytecode": "0x60806040526000600360006101000a81548173ffffffffffffffffffffffffffffffffffffffff021916908373ffffffffffffffffffffffffffffffffffffffff16021790555034801561005257600080fd5b506040516040806128ba8339810180604052810190808051906020019092919080519060200190929190505050336000806101000a81548173ffffffffffffffffffffffffffffffffffffffff021916908373ffffffffffffffffffffffffffffffffffffffff16021790555081600160006101000a81548173ffffffffffffffffffffffffffffffffffffffff021916908373ffffffffffffffffffffffffffffffffffffffff16021790555080600260006101000a81548173ffffffffffffffffffffffffffffffffffffffff021916908373ffffffffffffffffffffffffffffffffffffffff1602179055505050612768806101526000396000f3006080604052600436106100e6576000357c0100000000000000000000000000000000000000000000000000000000900463ffffffff1680630e19dc3a146100eb578063177d19c31461012857806325fc575a146101f957806329debc9f1461022c5780632a337d301461029f578063450efe21146102de5780638da5cb5b146103765780639c3f1e90146103cd5780639e20a9a01461048c5780639fe9ada3146104ec578063aaf103981461053f578063c0029bda1461056f578063c84aae17146105d6578063c865992b146106b6578063d78dd9c914610703578063f2fde38b1461074e575b600080fd5b3480156100f757600080fd5b50610126600480360381019080803563ffffffff16906020019092919080359060200190929190505050610791565b005b34801561013457600080fd5b506101f76004803603810190808035600019169060200190929190803560ff169060200190929190803560ff169060200190929190803567ffffffffffffffff169060200190929190803567ffffffffffffffff169060200190929190803561ffff169060200190929190803561ffff169060200190929190803561ffff169060200190929190803561ffff169060200190929190803561ffff169060200190929190803561ffff169060200190929190803590602001909291905050506109f5565b005b34801561020557600080fd5b5061022a600480360381019080803563ffffffff169060200190929190505050610c1f565b005b34801561023857600080fd5b5061025d600480360381019080803563ffffffff169060200190929190505050610cb5565b604051808273ffffffffffffffffffffffffffffffffffffffff1673ffffffffffffffffffffffffffffffffffffffff16815260200191505060405180910390f35b3480156102ab57600080fd5b506102dc60048036038101908080356000191690602001909291908035600019169060200190929190505050610ce8565b005b3480156102ea57600080fd5b5061031f600480360381019080803573ffffffffffffffffffffffffffffffffffffffff1690602001909291905050506115c7565b6040518080602001828103825283818151815260200191508051906020019060200280838360005b83811015610362578082015181840152602081019050610347565b505050509050019250505060405180910390f35b34801561038257600080fd5b5061038b61171e565b604051808273ffffffffffffffffffffffffffffffffffffffff1673ffffffffffffffffffffffffffffffffffffffff16815260200191505060405180910390f35b3480156103d957600080fd5b506103fc6004803603810190808035600019169060200190929190505050611743565b604051808c60ff1660ff1681526020018b60ff1660ff1681526020018a67ffffffffffffffff1667ffffffffffffffff1681526020018967ffffffffffffffff1667ffffffffffffffff1681526020018881526020018781526020018681526020018581526020018481526020018381526020018281526020019b50505050505050505050505060405180910390f35b34801561049857600080fd5b506104ea600480360381019080803563ffffffff169060200190929190803573ffffffffffffffffffffffffffffffffffffffff169060200190929190803560ff1690602001909291905050506117df565b005b3480156104f857600080fd5b5061051b600480360381019080803560001916906020019092919050505061190d565b60405180848152602001838152602001828152602001935050505060405180910390f35b61056d600480360381019080803563ffffffff16906020019092919080359060200190929190505050611937565b005b34801561057b57600080fd5b506105c0600480360381019080803573ffffffffffffffffffffffffffffffffffffffff169060200190929190803563ffffffff169060200190929190505050611bd0565b6040518082815260200191505060405180910390f35b3480156105e257600080fd5b50610617600480360381019080803573ffffffffffffffffffffffffffffffffffffffff169060200190929190505050611ce6565b604051808060200180602001838103835285818151815260200191508051906020019060200280838360005b8381101561065e578082015181840152602081019050610643565b50505050905001838103825284818151815260200191508051906020019060200280838360005b838110156106a0578082015181840152602081019050610685565b5050505090500194505050505060405180910390f35b3480156106c257600080fd5b506106e7600480360381019080803563ffffffff169060200190929190505050611e8f565b604051808260ff1660ff16815260200191505060405180910390f35b34801561070f57600080fd5b50610734600480360381019080803563ffffffff169060200190929190505050611eaf565b604051808215151515815260200191505060405180910390f35b34801561075a57600080fd5b5061078f600480360381019080803573ffffffffffffffffffffffffffffffffffffffff169060200190929190505050611ecf565b005b600080339150600760008563ffffffff1663ffffffff16815260200190815260200160002060009054906101000a900473ffffffffffffffffffffffffffffffffffffffff1690506107e4828585612024565b600360009054906101000a900473ffffffffffffffffffffffffffffffffffffffff1673ffffffffffffffffffffffffffffffffffffffff168173ffffffffffffffffffffffffffffffffffffffff161415610886578173ffffffffffffffffffffffffffffffffffffffff166108fc849081150290604051600060405180830381858888f19350505050158015610880573d6000803e3d6000fd5b50610970565b8073ffffffffffffffffffffffffffffffffffffffff1663a9059cbb83856040518363ffffffff167c0100000000000000000000000000000000000000000000000000000000028152600401808373ffffffffffffffffffffffffffffffffffffffff1673ffffffffffffffffffffffffffffffffffffffff16815260200182815260200192505050602060405180830381600087803b15801561092957600080fd5b505af115801561093d573d6000803e3d6000fd5b505050506040513d602081101561095357600080fd5b8101908080519060200190929190505050151561096f57600080fd5b5b7fe83ff6ce9f1df32d25a90a81af736a7333c95133a02f4a183115c040806dcd1f828585604051808473ffffffffffffffffffffffffffffffffffffffff1673ffffffffffffffffffffffffffffffffffffffff1681526020018363ffffffff1663ffffffff168152602001828152602001935050505060405180910390a150505050565b6109fd6126c7565b610160604051908101604052808c60ff1681526020018d60ff1681526020018b67ffffffffffffffff1681526020018a67ffffffffffffffff1681526020018961ffff1681526020018861ffff1681526020018761ffff1681526020018661ffff1681526020018561ffff1681526020018461ffff16815260200183815250905060006002811115610a8b57fe5b600560008f6000191660001916815260200190815260200160002060009054906101000a900460ff166002811115610abf57fe5b141515610acb57600080fd5b6001600560008f6000191660001916815260200190815260200160002060006101000a81548160ff02191690836002811115610b0357fe5b021790555080600460008f6000191660001916815260200190815260200160002060008201518160000160006101000a81548160ff021916908360ff16021790555060208201518160000160016101000a81548160ff021916908360ff16021790555060408201518160000160026101000a81548167ffffffffffffffff021916908367ffffffffffffffff160217905550606082015181600001600a6101000a81548167ffffffffffffffff021916908367ffffffffffffffff1602179055506080820151816001015560a0820151816002015560c0820151816003015560e0820151816004015561010082015181600501556101208201518160060155610140820151816007015590505050505050505050505050505050565b6000809054906101000a900473ffffffffffffffffffffffffffffffffffffffff1673ffffffffffffffffffffffffffffffffffffffff163373ffffffffffffffffffffffffffffffffffffffff16141515610c7a57600080fd5b6000600960008363ffffffff1663ffffffff16815260200190815260200160002060006101000a81548160ff02191690831515021790555050565b60076020528060005260406000206000915054906101000a900473ffffffffffffffffffffffffffffffffffffffff1681565b60008060008060008060008060008060016002811115610d0457fe5b600560008e6000191660001916815260200190815260200160002060009054906101000a900460ff166002811115610d3857fe5b141515610d4457600080fd5b6002600560008e6000191660001916815260200190815260200160002060006101000a81548160ff02191690836002811115610d7c57fe5b021790555060016002811115610d8e57fe5b600560008d6000191660001916815260200190815260200160002060009054906101000a900460ff166002811115610dc257fe5b141515610dce57600080fd5b6002600560008d6000191660001916815260200190815260200160002060006101000a81548160ff02191690836002811115610e0657fe5b021790555060006001811115610e1857fe5b60ff16600460008e6000191660001916815260200190815260200160002060000160009054906101000a900460ff1660ff16141515610e5657600080fd5b600180811115610e6257fe5b60ff16600460008d6000191660001916815260200190815260200160002060000160009054906101000a900460ff1660ff16141515610ea057600080fd5b6002600160009054906101000a900473ffffffffffffffffffffffffffffffffffffffff1673ffffffffffffffffffffffffffffffffffffffff1663aab14d048e6040518263ffffffff167c0100000000000000000000000000000000000000000000000000000000028152600401808260001916600019168152602001915050602060405180830381600087803b158015610f3b57600080fd5b505af1158015610f4f573d6000803e3d6000fd5b505050506040513d6020811015610f6557600080fd5b810190808051906020019092919050505060ff16141515610f8557600080fd5b6002600160009054906101000a900473ffffffffffffffffffffffffffffffffffffffff1673ffffffffffffffffffffffffffffffffffffffff1663aab14d048d6040518263ffffffff167c0100000000000000000000000000000000000000000000000000000000028152600401808260001916600019168152602001915050602060405180830381600087803b15801561102057600080fd5b505af1158015611034573d6000803e3d6000fd5b505050506040513d602081101561104a57600080fd5b810190808051906020019092919050505060ff1614151561106a57600080fd5b8a60001916600160009054906101000a900473ffffffffffffffffffffffffffffffffffffffff1673ffffffffffffffffffffffffffffffffffffffff1663af3e8a408e6040518263ffffffff167c0100000000000000000000000000000000000000000000000000000000028152600401808260001916600019168152602001915050600060405180830381600087803b15801561110857600080fd5b505af115801561111c573d6000803e3d6000fd5b505050506040513d6000823e3d601f19601f82011682018060405250602081101561114657600080fd5b81019080805164010000000081111561115e57600080fd5b8281019050602081018481111561117457600080fd5b815185602082028301116401000000008211171561119157600080fd5b505092919050505060008151811015156111a757fe5b90602001906020020151600019161415156111c157600080fd5b600160009054906101000a900473ffffffffffffffffffffffffffffffffffffffff1673ffffffffffffffffffffffffffffffffffffffff1663b1a080108d6040518263ffffffff167c0100000000000000000000000000000000000000000000000000000000028152600401808260001916600019168152602001915050602060405180830381600087803b15801561125a57600080fd5b505af115801561126e573d6000803e3d6000fd5b505050506040513d602081101561128457600080fd5b81019080805190602001909291905050509950600160009054906101000a900473ffffffffffffffffffffffffffffffffffffffff1673ffffffffffffffffffffffffffffffffffffffff1663b1a080108c6040518263ffffffff167c0100000000000000000000000000000000000000000000000000000000028152600401808260001916600019168152602001915050602060405180830381600087803b15801561133057600080fd5b505af1158015611344573d6000803e3d6000fd5b505050506040513d602081101561135a57600080fd5b81019080805190602001909291905050509850600460008c60001916600019168152602001908152602001600020600001600a9054906101000a900467ffffffffffffffff1697506020600460008d60001916600019168152602001908152602001600020600001600a9054906101000a900467ffffffffffffffff1667ffffffffffffffff169060020a900496506113f38c8c61211a565b955095506114038c8c88886121da565b9350935061144384848888600860008d63ffffffff1663ffffffff16815260200190815260200160002060009054906101000a900460ff1660ff1661232f565b915061147f8484600860008c63ffffffff1663ffffffff16815260200190815260200160002060009054906101000a900460ff1660ff16612385565b905061148f8a8a8a8a86866123ea565b6060604051908101604052806114d58888600860008d63ffffffff1663ffffffff16815260200190815260200160002060009054906101000a900460ff1660ff16612584565b815260200183815260200182815250600660008e8e6040516020018083600019166000191681526020018260001916600019168152602001925050506040516020818303038152906040526040518082805190602001908083835b6020831015156115555780518252602082019150602081019050602083039250611530565b6001836020036101000a038019825116818451168082178552505050505050905001915050604051809103902060001916600019168152602001908152602001600020600082015181600001556020820151816001015560408201518160020155905050505050505050505050505050565b6060600260009054906101000a900473ffffffffffffffffffffffffffffffffffffffff1673ffffffffffffffffffffffffffffffffffffffff1663450efe21836040518263ffffffff167c0100000000000000000000000000000000000000000000000000000000028152600401808273ffffffffffffffffffffffffffffffffffffffff1673ffffffffffffffffffffffffffffffffffffffff168152602001915050600060405180830381600087803b15801561168657600080fd5b505af115801561169a573d6000803e3d6000fd5b505050506040513d6000823e3d601f19601f8201168201806040525060208110156116c457600080fd5b8101908080516401000000008111156116dc57600080fd5b828101905060208101848111156116f257600080fd5b815185602082028301116401000000008211171561170f57600080fd5b50509291905050509050919050565b6000809054906101000a900473ffffffffffffffffffffffffffffffffffffffff1681565b60046020528060005260406000206000915090508060000160009054906101000a900460ff16908060000160019054906101000a900460ff16908060000160029054906101000a900467ffffffffffffffff169080600001600a9054906101000a900467ffffffffffffffff1690806001015490806002015490806003015490806004015490806005015490806006015490806007015490508b565b6000809054906101000a900473ffffffffffffffffffffffffffffffffffffffff1673ffffffffffffffffffffffffffffffffffffffff163373ffffffffffffffffffffffffffffffffffffffff1614151561183a57600080fd5b81600760008563ffffffff1663ffffffff16815260200190815260200160002060006101000a81548173ffffffffffffffffffffffffffffffffffffffff021916908373ffffffffffffffffffffffffffffffffffffffff16021790555080600860008563ffffffff1663ffffffff16815260200190815260200160002060006101000a81548160ff021916908360ff1602179055506001600960008563ffffffff1663ffffffff16815260200190815260200160002060006101000a81548160ff021916908315150217905550505050565b60066020528060005260406000206000915090508060000154908060010154908060020154905083565b60008083600960008263ffffffff1663ffffffff16815260200190815260200160002060009054906101000a900460ff16151561197357600080fd5b339250600760008663ffffffff1663ffffffff16815260200190815260200160002060009054906101000a900473ffffffffffffffffffffffffffffffffffffffff169150600360009054906101000a900473ffffffffffffffffffffffffffffffffffffffff1673ffffffffffffffffffffffffffffffffffffffff168273ffffffffffffffffffffffffffffffffffffffff161415611a21578334141515611a1c57600080fd5b611b3f565b8173ffffffffffffffffffffffffffffffffffffffff166323b872dd8430876040518463ffffffff167c0100000000000000000000000000000000000000000000000000000000028152600401808473ffffffffffffffffffffffffffffffffffffffff1673ffffffffffffffffffffffffffffffffffffffff1681526020018373ffffffffffffffffffffffffffffffffffffffff1673ffffffffffffffffffffffffffffffffffffffff1681526020018281526020019350505050602060405180830381600087803b158015611af857600080fd5b505af1158015611b0c573d6000803e3d6000fd5b505050506040513d6020811015611b2257600080fd5b81019080805190602001909291905050501515611b3e57600080fd5b5b611b4a8386866125d1565b7f9a8dfdf7d0a585fe5bd50fbea6a5802be1ecb3ca020432959fd63c41a4708f5f838686604051808473ffffffffffffffffffffffffffffffffffffffff1673ffffffffffffffffffffffffffffffffffffffff1681526020018363ffffffff1663ffffffff168152602001828152602001935050505060405180910390a15050505050565b6000600260009054906101000a900473ffffffffffffffffffffffffffffffffffffffff1673ffffffffffffffffffffffffffffffffffffffff1663c0029bda84846040518363ffffffff167c0100000000000000000000000000000000000000000000000000000000028152600401808373ffffffffffffffffffffffffffffffffffffffff1673ffffffffffffffffffffffffffffffffffffffff1681526020018263ffffffff1663ffffffff16815260200192505050602060405180830381600087803b158015611ca357600080fd5b505af1158015611cb7573d6000803e3d6000fd5b505050506040513d6020811015611ccd57600080fd5b8101908080519060200190929190505050905092915050565b606080600260009054906101000a900473ffffffffffffffffffffffffffffffffffffffff1673ffffffffffffffffffffffffffffffffffffffff1663c84aae17846040518263ffffffff167c0100000000000000000000000000000000000000000000000000000000028152600401808273ffffffffffffffffffffffffffffffffffffffff1673ffffffffffffffffffffffffffffffffffffffff168152602001915050600060405180830381600087803b158015611da657600080fd5b505af1158015611dba573d6000803e3d6000fd5b505050506040513d6000823e3d601f19601f820116820180604052506040811015611de457600080fd5b810190808051640100000000811115611dfc57600080fd5b82810190506020810184811115611e1257600080fd5b8151856020820283011164010000000082111715611e2f57600080fd5b50509291906020018051640100000000811115611e4b57600080fd5b82810190506020810184811115611e6157600080fd5b8151856020820283011164010000000082111715611e7e57600080fd5b505092919050505091509150915091565b60086020528060005260406000206000915054906101000a900460ff1681565b60096020528060005260406000206000915054906101000a900460ff1681565b6000809054906101000a900473ffffffffffffffffffffffffffffffffffffffff1673ffffffffffffffffffffffffffffffffffffffff163373ffffffffffffffffffffffffffffffffffffffff16141515611f2a57600080fd5b600073ffffffffffffffffffffffffffffffffffffffff168173ffffffffffffffffffffffffffffffffffffffff1614151515611f6657600080fd5b8073ffffffffffffffffffffffffffffffffffffffff166000809054906101000a900473ffffffffffffffffffffffffffffffffffffffff1673ffffffffffffffffffffffffffffffffffffffff167f8be0079c531659141344cd1fd0a4f28419497f9722a3daafe3b4186f6b6457e060405160405180910390a3806000806101000a81548173ffffffffffffffffffffffffffffffffffffffff021916908373ffffffffffffffffffffffffffffffffffffffff16021790555050565b600260009054906101000a900473ffffffffffffffffffffffffffffffffffffffff1673ffffffffffffffffffffffffffffffffffffffff16639f932bfd8484846040518463ffffffff167c0100000000000000000000000000000000000000000000000000000000028152600401808473ffffffffffffffffffffffffffffffffffffffff1673ffffffffffffffffffffffffffffffffffffffff1681526020018363ffffffff1663ffffffff1681526020018281526020019350505050600060405180830381600087803b1580156120fd57600080fd5b505af1158015612111573d6000803e3d6000fd5b50505050505050565b600080600080600460008660001916600019168152602001908152602001600020600201546004600088600019166000191681526020019081526020016000206002015403600a0a60046000886000191660001916815260200190815260200160002060010154029150600460008660001916600019168152602001908152602001600020600201549050600582600460008860001916600019168152602001908152602001600020600101540102600182039350935050509250929050565b600080600080612228600460008a6000191660001916815260200190815260200160002060030154600460008b6000191660001916815260200190815260200160002060040154600c612385565b915061227460046000896000191660001916815260200190815260200160002060030154600460008a60001916600019168152602001908152602001600020600401548888600c61232f565b9050808210156122e15785606460c8600460008c600019166000191681526020019081526020016000206003015402028115156122ad57fe5b04600286600c601a600460008e60001916600019168152602001908152602001600020600401540101030393509350612324565b6004600088600019166000191681526020019081526020016000206003015460046000896000191660001916815260200190815260200160002060040154935093505b505094509492505050565b60008060008060028760058b0202029250603686898701010391506000821215156123615781600a0a83029050612376565b81600003600a0a8381151561237257fe5b0490505b80935050505095945050505050565b600080600080866002029250849150600d905060008612156123ae5785600003810190506123b4565b85820191505b80821015156123cc57808203600a0a830293506123e0565b818103600a0a838115156123dc57fe5b0493505b5050509392505050565b6123f5868484612024565b612400858583612024565b61240b8584846125d1565b6124168685836125d1565b7fe6d64cac65c05a9715c20bfc2ed8851bfe1c155b6cd1ee42d313d0880fc48b9f86868585604051808573ffffffffffffffffffffffffffffffffffffffff1673ffffffffffffffffffffffffffffffffffffffff1681526020018473ffffffffffffffffffffffffffffffffffffffff1673ffffffffffffffffffffffffffffffffffffffff1681526020018363ffffffff1663ffffffff16815260200182815260200194505050505060405180910390a17fe6d64cac65c05a9715c20bfc2ed8851bfe1c155b6cd1ee42d313d0880fc48b9f85878684604051808573ffffffffffffffffffffffffffffffffffffffff1673ffffffffffffffffffffffffffffffffffffffff1681526020018473ffffffffffffffffffffffffffffffffffffffff1673ffffffffffffffffffffffffffffffffffffffff1681526020018363ffffffff1663ffffffff16815260200182815260200194505050505060405180910390a1505050505050565b60008060008060058702925060298686010391506000821215156125af5781600a0a830290506125c4565b81600003600a0a838115156125c057fe5b0490505b8093505050509392505050565b600260009054906101000a900473ffffffffffffffffffffffffffffffffffffffff1673ffffffffffffffffffffffffffffffffffffffff16638a597c7a8484846040518463ffffffff167c0100000000000000000000000000000000000000000000000000000000028152600401808473ffffffffffffffffffffffffffffffffffffffff1673ffffffffffffffffffffffffffffffffffffffff1681526020018363ffffffff1663ffffffff1681526020018281526020019350505050600060405180830381600087803b1580156126aa57600080fd5b505af11580156126be573d6000803e3d6000fd5b50505050505050565b61016060405190810160405280600060ff168152602001600060ff168152602001600067ffffffffffffffff168152602001600067ffffffffffffffff1681526020016000815260200160008152602001600081526020016000815260200160008152602001600081526020016000815250905600a165627a7a72305820f969bd00bd10845deeb41edd4a55e9b59794e25644907527739e94d30d3d5f930029",
  "source": "pragma solidity ^0.4.24;\n\nimport \"zeppelin-solidity/contracts/token/ERC20/ERC20.sol\";\nimport \"zeppelin-solidity/contracts/math/SafeMath.sol\";\nimport \"zeppelin-solidity/contracts/ownership/Ownable.sol\";\n\nimport \"./RenLedger.sol\";\nimport \"./RenExBalances.sol\";\n\n/**\n@title The contract responsible for holding trader funds and settling matched\norder values\n@author Republic Protocol\n*/\ncontract TraderAccounts is Ownable {\n    using SafeMath for uint256;\n\n    RenLedger ledger;\n    RenExBalances renExBalances;\n\n    enum OrderType {Midpoint, Limit}\n    enum OrderParity {Buy, Sell}\n    enum OrderStatus {None, Submitted, Matched}\n\n    // TODO: Use same constant instance across all contracts \n    address ETH = 0x0;\n\n    struct Order {\n        uint8 parity;\n        uint8 orderType;\n        uint64 expiry;\n        uint64 tokens;        \n        uint256 priceC; uint256 priceQ;\n        uint256 volumeC; uint256 volumeQ;\n        uint256 minimumVolumeC; uint256 minimumVolumeQ;\n        uint256 nonceHash;\n    }\n\n    struct Match {\n        uint256 price;\n        uint256 lowVolume;\n        uint256 highVolume;\n    }\n\n    // Events\n    event Deposit(address trader, uint32 token, uint256 value);\n    event Withdraw(address trader, uint32 token, uint256 value);\n    event Transfer(address from, address to, uint32 token, uint256 value);\n    event Debug256(string msg, uint256 num);\n    event Debugi256(string msg, int256 num);\n    event Debug(string msg);\n    event DebugTuple(string msg, uint256 c, uint256 q);\n    event DebugTupleI(string msg, uint256 c, int256 q);\n\n\n    // Storage\n    mapping(bytes32 => Order) public orders;\n    mapping(bytes32 => OrderStatus) private orderStatuses;\n    mapping(bytes32 => Match) public matches;\n\n    mapping(uint32 => ERC20) public tokenAddresses;\n    mapping(uint32 => uint8) public tokenDecimals;\n    mapping(uint32 => bool) public tokenEnabled;\n    \n\n    /**\n    @notice constructor\n    @param _ledger the address for the Ren Ledger\n    */\n    constructor(RenLedger _ledger, RenExBalances _renExBalances) public {\n        ledger = _ledger;\n        renExBalances = _renExBalances;\n    }\n\n\n\n    // Contract Registry - TODO: Move to its own contract?\n\n    /**\n    @notice Modifier to require tokens to be registered in the token registry\n    */\n    modifier onlyEnabledToken(uint32 _tokenCode) {\n        require(tokenEnabled[_tokenCode]);\n        _;\n    }\n\n    /**\n    @notice Sets a token as being registered and stores its details (only-owner)\n    @param _tokenCode a unique 32-bit token identifier\n    @param _tokenAddress the address of the ERC20-compatible token\n    @param _tokenDecimals the decimals to use for the token\n    */\n    function registerToken(uint32 _tokenCode, ERC20 _tokenAddress, uint8 _tokenDecimals) public onlyOwner {\n        // TODO: Check if contract has a .decimals() call\n        tokenAddresses[_tokenCode] = _tokenAddress;\n        tokenDecimals[_tokenCode] = _tokenDecimals;\n        tokenEnabled[_tokenCode] = true;\n    }\n\n    /**\n    @notice Sets a token as being deregistered\n    @param _tokenCode the unique 32-bit token identifier\n    */\n    function deregisterToken(uint32 _tokenCode) public onlyOwner {\n        tokenEnabled[_tokenCode] = false;\n    }\n\n\n\n    // PRIVATE functions //\n    \n    function incrementBalance(address _trader, uint32 _tokenCode, uint256 _value) private {\n        return renExBalances.incrementBalance(_trader, _tokenCode, _value);\n    }\n\n    function decrementBalance(address _trader, uint32 _tokenCode, uint256 _value) private {\n        return renExBalances.decrementBalance(_trader, _tokenCode, _value);\n    }\n\n\n\n\n    // Trader functions //\n\n    /**\n    @notice Deposits ETH or an ERC20 token into the contract\n    @param _tokenCode the token's identifier (must be a registered token)\n    @param _value the amount to deposit in the token's smallest unit\n    */\n    function deposit(uint32 _tokenCode, uint256 _value) payable public onlyEnabledToken(_tokenCode) {\n        address trader = msg.sender;\n\n        ERC20 token = tokenAddresses[_tokenCode];\n\n        if (address(token) == ETH) {\n            require(msg.value == _value);\n        } else {\n            require(token.transferFrom(trader, this, _value));\n        }\n        incrementBalance(trader, _tokenCode, _value);\n\n        emit Deposit(trader, _tokenCode, _value);\n    }\n\n    /**\n    @notice Withdraws ETH or an ERC20 token from the contract\n    @notice TODO: Check if the account has any open orders first\n    @param _tokenCode the token's identifier (doesn't have to be registered)\n    @param _value the amount to withdraw in the token's smallest unit\n    */\n    function withdraw(uint32 _tokenCode, uint256 _value) public {\n        address trader = msg.sender;\n\n        ERC20 token = tokenAddresses[_tokenCode];\n\n        decrementBalance(trader, _tokenCode, _value);\n        if (address(token) == ETH) {\n            trader.transfer(_value);\n        } else {\n            require(token.transfer(trader, _value));\n        }\n\n        emit Withdraw(trader, _tokenCode, _value);\n    }\n\n    /**\n    @notice Retrieves a trader's balance for a token\n    @param _trader the address of the trader to retrieve the balance of\n    @param _tokenCode the token's identifier (doesn't have to be registered)\n    @return the trader's balance in the token's smallest unit\n    */\n    function getBalance(address _trader, uint32 _tokenCode) public view returns (uint256) {    \n        return renExBalances.getBalance(_trader, _tokenCode);\n    }\n\n    /**\n    @notice Retrieves the list of token addresses that the trader has previously\n    deposited\n    @param _trader the address of the trader\n    @return an array of addresses of the tokens\n    */\n    function getTokens(address _trader) public view returns (uint32[]) {\n        return renExBalances.getTokens(_trader);\n    }\n\n    /**\n    @notice Retrieves the list of token addresses that the trader has previosly\n    deposited and a list of the corresponding token balances\n    @param _trader the address of the trader\n    @return [\n        \"the array of token addresses\",\n        \"the array of token balances in tokens' smallest units\"\n    ]\n    */\n    function getBalances(address _trader) public view returns (uint32[], uint256[]) {\n        return renExBalances.getBalances(_trader);\n    }\n\n\n\n    // Price/volume calculation functions\n\n    function priceMidPoint(bytes32 buyID, bytes32 sellID) private view returns (uint256, int256) {\n        // Normalize to same exponent before finding mid-point (mean)\n        // Common exponent is 0 (to ensure division doesn't lose details)\n        // uint256 norm1 = orders[buyID].priceC * 10 ** (orders[buyID].priceQ);\n        // uint256 norm2 = orders[sellID].priceC * 10 ** (orders[sellID].priceQ);\n        // return ((norm1 + norm2) / 2, 0);\n        uint256 norm = orders[buyID].priceC * 10 ** (orders[buyID].priceQ - orders[sellID].priceQ);\n        int256 q = int256(orders[sellID].priceQ);\n        // To not lose the .5 for odd numbers, multiply by 5 and subtract from q\n        return ((orders[sellID].priceC + norm) * (10 / 2), q - 1);\n    }\n\n    function minimumVolume(bytes32 buyID, bytes32 sellID, uint256 priceC, int256 priceQ) private view returns (uint256, int256) {        \n        uint256 buyV = tupleToVolume(orders[buyID].volumeC, int256(orders[buyID].volumeQ), 12);\n        uint256 sellV = tupleToScaledVolume(orders[sellID].volumeC, int256(orders[sellID].volumeQ), priceC, priceQ, 12);\n\n        // emit Debug256(\"BuyV\", buyV);\n        // emit Debug256(\"SellV\", sellV);\n\n        if (buyV < sellV) {\n            // TODO: Optimize this process, divide above\n            // emit Debug256(\"orders[buyID].volumeC\", orders[buyID].volumeC);\n            // emit Debug256(\"priceC\", priceC);\n            // FIXME: Shifts up by 100 to avoid precision errors\n            return (orders[buyID].volumeC * 200 * 100 / priceC, int256(orders[buyID].volumeQ + 26 + 12) - priceQ - 2);\n        } else {\n            return (orders[sellID].volumeC, int256(orders[sellID].volumeQ));\n        }\n    }\n\n    function tupleToScaledVolume(uint256 volC, int256 volQ, uint256 priceC, int256 priceQ, uint256 decimals)\n    private pure returns (uint256) {\n        // 0.2 turns into 2 * 10**-1 (-1 moved to exponent)\n        // 0.005 turns into 5 * 10**-3 (-3 moved to exponent)\n        uint256 c = volC * 5 * priceC * 2;\n\n        int256 e = int256(decimals) + volQ + priceQ - (26 + 12 + 3 + 12 + 1);\n\n        // If (ep-en) is negative, divide instead of multiplying\n        uint256 value;\n        if (e >= 0) {\n            value = c * 10 ** uint256(e);\n        } else {\n            value = c / 10 ** uint256(-e);            \n        }\n\n        return value;\n    }\n\n    function tupleToPrice(uint256 priceC, int256 priceQ, uint256 decimals)\n    private pure returns (uint256) {\n        // 0.2 turns into 2 * 10**-1 (-1 moved to exponent)\n        // 0.005 turns into 5 * 10**-3 (-3 moved to exponent)\n        uint256 c = priceC * 5;\n\n        int256 e = int256(decimals) + priceQ - (26 + 12 + 3);\n\n        // If (ep-en) is negative, divide instead of multiplying\n        uint256 value;\n        if (e >= 0) {\n            value = c * 10 ** uint256(e);\n        } else {\n            value = c / 10 ** uint256(-e);            \n        }\n\n        return value;\n    }\n\n\n    function tupleToVolume(uint256 volC, int256 volQ, uint256 decimals) private pure returns (uint256) {\n        // 0.2 turns into 2 * 10**-1 (-1 moved to exponent)\n        uint256 c = 2 * volC;\n\n        // Positive and negative components of exponent                \n        uint256 ep = decimals;\n        uint256 en = 12 + 1;\n        // Add volQ to positive or negative component based on its sign        \n        if (volQ < 0) {\n            en += uint256(-volQ);\n        } else {\n            ep += uint256(volQ);\n        }\n\n        // If (ep-en) is negative, divide instead of multiplying                \n        if (ep >= en) {\n            return c * 10 ** (ep - en);\n        } else {\n            return c / 10 ** (en - ep);\n        }\n    }\n\n    // Ensure this remains private\n    function finalizeMatch(\n        address buyer, address seller,\n        uint32 buyToken, uint32 sellToken,\n        uint256 lowTokenValue, uint256 highTokenValue\n    ) private {\n        // Subtract values\n        decrementBalance(buyer, sellToken, lowTokenValue);\n        decrementBalance(seller, buyToken, highTokenValue);\n\n        // Add values\n        incrementBalance(seller, sellToken, lowTokenValue);\n        incrementBalance(buyer, buyToken, highTokenValue);\n\n        emit Transfer(buyer, seller, sellToken, lowTokenValue);\n        emit Transfer(seller, buyer, buyToken, highTokenValue);\n    }\n\n\n\n    // // TODO: Implement\n    // function hashOrder(Order order) private pure returns (bytes32) {\n    //     return keccak256(\n    //         abi.encodePacked(\n    //             order.orderType,\n    //             order.parity,\n    //             order.expiry,\n    //             order.tokens,\n    //             order.priceC, order.priceQ,\n    //             order.volumeC, order.volumeQ,\n    //             order.minimumVolumeC, order.minimumVolumeQ,\n    //             order.nonceHash\n    //         )\n    //     );\n    // }\n\n\n\n\n    /**\n    @notice Stores the details of an order\n    @param _id (TODO: calculate based on other parameters)\n    @param _orderType one of Midpoint or Limit\n    @param _parity one of Buy or Sell\n    @param _expiry the expiry date of the order in seconds since Unix epoch\n    @param _tokens two 32-bit token codes concatenated (with the lowest first)\n    @param _priceC the constant in the price tuple\n    @param _priceQ the exponent in the price tuple\n    @param _volumeC the constant in the volume tuple\n    @param _volumeQ the exponent in the volume tuple\n    @param _minimumVolumeC the constant in the minimum-volume tuple\n    @param _minimumVolumeQ the exponent in the minimum-volume tuple\n    @param _nonceHash the keccak256 hash of a random 32 byte value\n    */\n    function submitOrder(\n        bytes32 _id,\n        uint8 _orderType,\n        uint8 _parity,\n        uint64 _expiry,\n        uint64 _tokens,\n        uint16 _priceC, uint16 _priceQ,\n        uint16 _volumeC, uint16 _volumeQ,\n        uint16 _minimumVolumeC, uint16 _minimumVolumeQ,\n        uint256 _nonceHash\n    ) public {\n\n        Order memory order = Order({\n            orderType: _orderType,\n            parity: _parity,\n            expiry: _expiry,\n            tokens: _tokens,\n            priceC: _priceC, priceQ: _priceQ,\n            volumeC: _volumeC, volumeQ: _volumeQ,\n            minimumVolumeC: _minimumVolumeC, minimumVolumeQ: _minimumVolumeQ,\n            nonceHash: _nonceHash\n        });\n\n        // FIXME: Implement order hashing\n        // bytes32 id = hashOrder(order);\n\n        require(orderStatuses[_id] == OrderStatus.None);\n        orderStatuses[_id] = OrderStatus.Submitted;\n\n        orders[_id] = order;\n    }\n\n    /**\n    @notice Settles two orders that are matched. `submitOrder` must have been\n    called for each order before this function is called\n    @param _buyID the 32 byte ID of the buy order\n    @param _sellID the 32 byte ID of the sell order\n    */\n    function submitMatch(bytes32 _buyID, bytes32 _sellID) public {\n        // TODO: Verify order match\n\n        require(orderStatuses[_buyID] == OrderStatus.Submitted);\n        orderStatuses[_buyID] = OrderStatus.Matched;\n\n        require(orderStatuses[_sellID] == OrderStatus.Submitted);\n        orderStatuses[_sellID] = OrderStatus.Matched;\n\n        // Require that the orders are confirmed to one another\n        require(orders[_buyID].parity == uint8(OrderParity.Buy));\n        require(orders[_sellID].parity == uint8(OrderParity.Sell));\n        require(ledger.orderState(_buyID) == 2);\n        require(ledger.orderState(_sellID) == 2);\n        \n        // TODO: Loop through and check at all indices\n        require(ledger.orderMatch(_buyID)[0] == _sellID);\n\n        address buyer = ledger.orderTrader(_buyID);\n        address seller = ledger.orderTrader(_sellID);\n\n        uint32 buyToken = uint32(orders[_sellID].tokens);\n        uint32 sellToken = uint32(orders[_sellID].tokens >> 32);\n\n        // Price midpoint\n        (uint256 midPriceC, int256 midPriceQ) = priceMidPoint(_buyID, _sellID);\n        // emit DebugTuple(\"MidPriceTuple\", orders[_buyID].priceC, orders[_buyID].priceQ);        \n        // emit Debug256(\"tupleToPrice\", tupleToPrice(orders[_buyID].priceC, int256(orders[_buyID].priceQ), tokenDecimals[sellToken]));\n        // emit DebugTuple(\"MidPriceTuple\", orders[_sellID].priceC, orders[_sellID].priceQ);        \n        // emit Debug256(\"tupleToPrice\", tupleToPrice(orders[_sellID].priceC, int256(orders[_sellID].priceQ), tokenDecimals[sellToken]));\n        // emit DebugTupleI(\"MidPriceTuple\", midPriceC, midPriceQ);\n        // emit Debug256(\"MidPrice\", tupleToPrice(midPriceC, midPriceQ, tokenDecimals[sellToken]));\n\n        (uint256 minVolC, int256 minVolQ) = minimumVolume(_buyID, _sellID, midPriceC, midPriceQ);\n        // emit Debug256(\"MinVol\", tupleToVolume(minVolC, minVolQ, tokenDecimals[buyToken]));\n        // // emit DebugTupleI(\"MinVolTuple\", minVolC, minVolQ);\n        \n\n        uint256 lowTokenValue = tupleToScaledVolume(minVolC, minVolQ, midPriceC, midPriceQ, tokenDecimals[sellToken]);\n\n        uint256 highTokenValue = tupleToVolume(minVolC, minVolQ, tokenDecimals[buyToken]);\n\n        finalizeMatch(buyer, seller, buyToken, sellToken, lowTokenValue, highTokenValue);\n\n        matches[keccak256(abi.encodePacked(_buyID, _sellID))] = Match({\n            price: tupleToPrice(midPriceC, midPriceQ, tokenDecimals[sellToken]),\n            lowVolume: lowTokenValue,\n            highVolume: highTokenValue\n        });\n    }\n\n}",
  "sourcePath": "/home/noah/github/republicprotocol/republic-sol/contracts/TraderAccounts.sol",
  "compiler": {
    "name": "solc",
    "version": "0.4.24+commit.e67f0147.Emscripten.clang"
  },
  "schemaVersion": "2.0.0",
  "updatedAt": "2018-06-12T07:21:21.554Z"
}