{
  "contractName": "TraderAccounts",
  "abi": [
    {
      "constant": true,
      "inputs": [
        {
          "name": "",
          "type": "uint32"
        }
      ],
      "name": "tokenAddresses",
      "outputs": [
        {
          "name": "",
          "type": "address"
        }
      ],
      "payable": false,
      "stateMutability": "view",
      "type": "function"
    },
    {
      "constant": true,
      "inputs": [],
      "name": "owner",
      "outputs": [
        {
          "name": "",
          "type": "address"
        }
      ],
      "payable": false,
      "stateMutability": "view",
      "type": "function"
    },
    {
      "constant": true,
      "inputs": [
        {
          "name": "",
          "type": "uint32"
        }
      ],
      "name": "tokenDecimals",
      "outputs": [
        {
          "name": "",
          "type": "uint8"
        }
      ],
      "payable": false,
      "stateMutability": "view",
      "type": "function"
    },
    {
      "constant": true,
      "inputs": [
        {
          "name": "",
          "type": "uint32"
        }
      ],
      "name": "tokenEnabled",
      "outputs": [
        {
          "name": "",
          "type": "bool"
        }
      ],
      "payable": false,
      "stateMutability": "view",
      "type": "function"
    },
    {
      "constant": false,
      "inputs": [
        {
          "name": "newOwner",
          "type": "address"
        }
      ],
      "name": "transferOwnership",
      "outputs": [],
      "payable": false,
      "stateMutability": "nonpayable",
      "type": "function"
    },
    {
      "inputs": [
        {
          "name": "_ledger",
          "type": "address"
        }
      ],
      "payable": false,
      "stateMutability": "nonpayable",
      "type": "constructor"
    },
    {
      "anonymous": false,
      "inputs": [
        {
          "indexed": false,
          "name": "trader",
          "type": "address"
        },
        {
          "indexed": false,
          "name": "token",
          "type": "uint32"
        },
        {
          "indexed": false,
          "name": "value",
          "type": "uint256"
        }
      ],
      "name": "Deposit",
      "type": "event"
    },
    {
      "anonymous": false,
      "inputs": [
        {
          "indexed": false,
          "name": "trader",
          "type": "address"
        },
        {
          "indexed": false,
          "name": "token",
          "type": "uint32"
        },
        {
          "indexed": false,
          "name": "value",
          "type": "uint256"
        }
      ],
      "name": "Withdraw",
      "type": "event"
    },
    {
      "anonymous": false,
      "inputs": [
        {
          "indexed": false,
          "name": "from",
          "type": "address"
        },
        {
          "indexed": false,
          "name": "to",
          "type": "address"
        },
        {
          "indexed": false,
          "name": "token",
          "type": "uint32"
        },
        {
          "indexed": false,
          "name": "value",
          "type": "uint256"
        }
      ],
      "name": "Transfer",
      "type": "event"
    },
    {
      "anonymous": false,
      "inputs": [
        {
          "indexed": false,
          "name": "num",
          "type": "uint256"
        }
      ],
      "name": "Debug256",
      "type": "event"
    },
    {
      "anonymous": false,
      "inputs": [
        {
          "indexed": false,
          "name": "num",
          "type": "int256"
        }
      ],
      "name": "Debugi256",
      "type": "event"
    },
    {
      "anonymous": false,
      "inputs": [
        {
          "indexed": false,
          "name": "msg",
          "type": "string"
        }
      ],
      "name": "Debug",
      "type": "event"
    },
    {
      "anonymous": false,
      "inputs": [
        {
          "indexed": true,
          "name": "previousOwner",
          "type": "address"
        },
        {
          "indexed": true,
          "name": "newOwner",
          "type": "address"
        }
      ],
      "name": "OwnershipTransferred",
      "type": "event"
    },
    {
      "constant": false,
      "inputs": [
        {
          "name": "_tokenCode",
          "type": "uint32"
        },
        {
          "name": "_tokenAddress",
          "type": "address"
        },
        {
          "name": "_tokenDecimals",
          "type": "uint8"
        }
      ],
      "name": "registerToken",
      "outputs": [],
      "payable": false,
      "stateMutability": "nonpayable",
      "type": "function"
    },
    {
      "constant": false,
      "inputs": [
        {
          "name": "_tokenCode",
          "type": "uint32"
        }
      ],
      "name": "deregisterToken",
      "outputs": [],
      "payable": false,
      "stateMutability": "nonpayable",
      "type": "function"
    },
    {
      "constant": false,
      "inputs": [
        {
          "name": "_tokenCode",
          "type": "uint32"
        },
        {
          "name": "_value",
          "type": "uint256"
        }
      ],
      "name": "deposit",
      "outputs": [],
      "payable": true,
      "stateMutability": "payable",
      "type": "function"
    },
    {
      "constant": false,
      "inputs": [
        {
          "name": "_tokenCode",
          "type": "uint32"
        },
        {
          "name": "_value",
          "type": "uint256"
        }
      ],
      "name": "withdraw",
      "outputs": [],
      "payable": false,
      "stateMutability": "nonpayable",
      "type": "function"
    },
    {
      "constant": true,
      "inputs": [
        {
          "name": "_trader",
          "type": "address"
        },
        {
          "name": "_tokenCode",
          "type": "uint32"
        }
      ],
      "name": "getBalance",
      "outputs": [
        {
          "name": "",
          "type": "uint256"
        }
      ],
      "payable": false,
      "stateMutability": "view",
      "type": "function"
    },
    {
      "constant": true,
      "inputs": [
        {
          "name": "_trader",
          "type": "address"
        }
      ],
      "name": "getTokens",
      "outputs": [
        {
          "name": "",
          "type": "uint32[]"
        }
      ],
      "payable": false,
      "stateMutability": "view",
      "type": "function"
    },
    {
      "constant": true,
      "inputs": [
        {
          "name": "_trader",
          "type": "address"
        }
      ],
      "name": "getBalances",
      "outputs": [
        {
          "name": "",
          "type": "uint32[]"
        },
        {
          "name": "",
          "type": "uint256[]"
        }
      ],
      "payable": false,
      "stateMutability": "view",
      "type": "function"
    },
    {
      "constant": true,
      "inputs": [
        {
          "name": "buyID",
          "type": "bytes32"
        },
        {
          "name": "sellID",
          "type": "bytes32"
        }
      ],
      "name": "priceMidPoint",
      "outputs": [
        {
          "name": "",
          "type": "uint256"
        },
        {
          "name": "",
          "type": "uint256"
        }
      ],
      "payable": false,
      "stateMutability": "view",
      "type": "function"
    },
    {
      "constant": true,
      "inputs": [
        {
          "name": "buyID",
          "type": "bytes32"
        },
        {
          "name": "sellID",
          "type": "bytes32"
        },
        {
          "name": "priceC",
          "type": "uint256"
        },
        {
          "name": "priceQ",
          "type": "uint256"
        }
      ],
      "name": "minimumVolume",
      "outputs": [
        {
          "name": "",
          "type": "uint256"
        },
        {
          "name": "",
          "type": "int256"
        }
      ],
      "payable": false,
      "stateMutability": "view",
      "type": "function"
    },
    {
      "constant": true,
      "inputs": [
        {
          "name": "volC",
          "type": "uint256"
        },
        {
          "name": "volQ",
          "type": "int256"
        },
        {
          "name": "priceC",
          "type": "uint256"
        },
        {
          "name": "priceQ",
          "type": "uint256"
        },
        {
          "name": "decimals",
          "type": "uint256"
        }
      ],
      "name": "tupleToBTCVolume",
      "outputs": [
        {
          "name": "",
          "type": "uint256"
        }
      ],
      "payable": false,
      "stateMutability": "pure",
      "type": "function"
    },
    {
      "constant": true,
      "inputs": [
        {
          "name": "priceC",
          "type": "uint256"
        },
        {
          "name": "priceQ",
          "type": "uint256"
        }
      ],
      "name": "tupleToPrice",
      "outputs": [
        {
          "name": "",
          "type": "uint256"
        }
      ],
      "payable": false,
      "stateMutability": "pure",
      "type": "function"
    },
    {
      "constant": true,
      "inputs": [
        {
          "name": "volC",
          "type": "uint256"
        },
        {
          "name": "volQ",
          "type": "int256"
        },
        {
          "name": "decimals",
          "type": "uint256"
        }
      ],
      "name": "tupleToRenVolume",
      "outputs": [
        {
          "name": "",
          "type": "uint256"
        }
      ],
      "payable": false,
      "stateMutability": "pure",
      "type": "function"
    },
    {
      "constant": false,
      "inputs": [
        {
          "name": "id",
          "type": "bytes32"
        },
        {
          "name": "orderType",
          "type": "uint8"
        },
        {
          "name": "parity",
          "type": "uint8"
        },
        {
          "name": "expiry",
          "type": "uint64"
        },
        {
          "name": "tokens",
          "type": "uint64"
        },
        {
          "name": "priceC",
          "type": "uint16"
        },
        {
          "name": "priceQ",
          "type": "uint16"
        },
        {
          "name": "volumeC",
          "type": "uint16"
        },
        {
          "name": "volumeQ",
          "type": "uint16"
        },
        {
          "name": "minimumVolumeC",
          "type": "uint16"
        },
        {
          "name": "minimumVolumeQ",
          "type": "uint16"
        },
        {
          "name": "nonceHash",
          "type": "uint256"
        }
      ],
      "name": "submitOrder",
      "outputs": [],
      "payable": false,
      "stateMutability": "nonpayable",
      "type": "function"
    },
    {
      "constant": false,
      "inputs": [
        {
          "name": "buyID",
          "type": "bytes32"
        },
        {
          "name": "sellID",
          "type": "bytes32"
        }
      ],
      "name": "submitMatch",
      "outputs": [],
      "payable": false,
      "stateMutability": "nonpayable",
      "type": "function"
    }
  ],
  "bytecode": "0x60806040526000600260006101000a81548173ffffffffffffffffffffffffffffffffffffffff021916908373ffffffffffffffffffffffffffffffffffffffff16021790555034801561005257600080fd5b506040516020806124db83398101806040528101908080519060200190929190505050336000806101000a81548173ffffffffffffffffffffffffffffffffffffffff021916908373ffffffffffffffffffffffffffffffffffffffff16021790555080600160006101000a81548173ffffffffffffffffffffffffffffffffffffffff021916908373ffffffffffffffffffffffffffffffffffffffff160217905550506123d5806101066000396000f300608060405260043610610107576000357c0100000000000000000000000000000000000000000000000000000000900463ffffffff1680630e07e7a81461010c5780630e19dc3a14610157578063177d19c31461019457806317c586361461026557806325fc575a146102ce57806329debc9f146103015780632a337d3014610374578063450efe21146103b357806346fc61c11461044b5780634ab9a2c2146104a557806377840970146104fa5780638da5cb5b146105685780639e20a9a0146105bf578063aaf103981461061f578063c0029bda1461064f578063c84aae17146106b6578063c865992b14610796578063d78dd9c9146107e3578063f2fde38b1461082e575b600080fd5b34801561011857600080fd5b506101416004803603810190808035906020019092919080359060200190929190505050610871565b6040518082815260200191505060405180910390f35b34801561016357600080fd5b50610192600480360381019080803563ffffffff169060200190929190803590602001909291905050506108bc565b005b3480156101a057600080fd5b506102636004803603810190808035600019169060200190929190803560ff169060200190929190803560ff169060200190929190803567ffffffffffffffff169060200190929190803567ffffffffffffffff169060200190929190803561ffff169060200190929190803561ffff169060200190929190803561ffff169060200190929190803561ffff169060200190929190803561ffff169060200190929190803561ffff16906020019092919080359060200190929190505050610b20565b005b34801561027157600080fd5b506102b86004803603810190808035906020019092919080359060200190929190803590602001909291908035906020019092919080359060200190929190505050610cc0565b6040518082815260200191505060405180910390f35b3480156102da57600080fd5b506102ff600480360381019080803563ffffffff169060200190929190505050610d34565b005b34801561030d57600080fd5b50610332600480360381019080803563ffffffff169060200190929190505050610dca565b604051808273ffffffffffffffffffffffffffffffffffffffff1673ffffffffffffffffffffffffffffffffffffffff16815260200191505060405180910390f35b34801561038057600080fd5b506103b160048036038101908080356000191690602001909291908035600019169060200190929190505050610dfd565b005b3480156103bf57600080fd5b506103f4600480360381019080803573ffffffffffffffffffffffffffffffffffffffff16906020019092919050505061120e565b6040518080602001828103825283818151815260200191508051906020019060200280838360005b8381101561043757808201518184015260208101905061041c565b505050509050019250505060405180910390f35b34801561045757600080fd5b50610488600480360381019080803560001916906020019092919080356000191690602001909291905050506112d1565b604051808381526020018281526020019250505060405180910390f35b3480156104b157600080fd5b506104e4600480360381019080803590602001909291908035906020019092919080359060200190929190505050611392565b6040518082815260200191505060405180910390f35b34801561050657600080fd5b5061054b6004803603810190808035600019169060200190929190803560001916906020019092919080359060200190929190803590602001909291905050506113f7565b604051808381526020018281526020019250505060405180910390f35b34801561057457600080fd5b5061057d611546565b604051808273ffffffffffffffffffffffffffffffffffffffff1673ffffffffffffffffffffffffffffffffffffffff16815260200191505060405180910390f35b3480156105cb57600080fd5b5061061d600480360381019080803563ffffffff169060200190929190803573ffffffffffffffffffffffffffffffffffffffff169060200190929190803560ff16906020019092919050505061156b565b005b61064d600480360381019080803563ffffffff16906020019092919080359060200190929190505050611699565b005b34801561065b57600080fd5b506106a0600480360381019080803573ffffffffffffffffffffffffffffffffffffffff169060200190929190803563ffffffff169060200190929190505050611932565b6040518082815260200191505060405180910390f35b3480156106c257600080fd5b506106f7600480360381019080803573ffffffffffffffffffffffffffffffffffffffff169060200190929190505050611999565b604051808060200180602001838103835285818151815260200191508051906020019060200280838360005b8381101561073e578082015181840152602081019050610723565b50505050905001838103825284818151815260200191508051906020019060200280838360005b83811015610780578082015181840152602081019050610765565b5050505090500194505050505060405180910390f35b3480156107a257600080fd5b506107c7600480360381019080803563ffffffff169060200190929190505050611a45565b604051808260ff1660ff16815260200191505060405180910390f35b3480156107ef57600080fd5b50610814600480360381019080803563ffffffff169060200190929190505050611a65565b604051808215151515815260200191505060405180910390f35b34801561083a57600080fd5b5061086f600480360381019080803573ffffffffffffffffffffffffffffffffffffffff169060200190929190505050611a85565b005b60008060008085600502925060088501915060299050808210151561089f57808203600a0a830293506108b3565b818103600a0a838115156108af57fe5b0493505b50505092915050565b600080339150600760008563ffffffff1663ffffffff16815260200190815260200160002060009054906101000a900473ffffffffffffffffffffffffffffffffffffffff16905061090f828585611bda565b600260009054906101000a900473ffffffffffffffffffffffffffffffffffffffff1673ffffffffffffffffffffffffffffffffffffffff168173ffffffffffffffffffffffffffffffffffffffff1614156109b1578173ffffffffffffffffffffffffffffffffffffffff166108fc849081150290604051600060405180830381858888f193505050501580156109ab573d6000803e3d6000fd5b50610a9b565b8073ffffffffffffffffffffffffffffffffffffffff1663a9059cbb83856040518363ffffffff167c0100000000000000000000000000000000000000000000000000000000028152600401808373ffffffffffffffffffffffffffffffffffffffff1673ffffffffffffffffffffffffffffffffffffffff16815260200182815260200192505050602060405180830381600087803b158015610a5457600080fd5b505af1158015610a68573d6000803e3d6000fd5b505050506040513d6020811015610a7e57600080fd5b81019080805190602001909291905050501515610a9a57600080fd5b5b7fe83ff6ce9f1df32d25a90a81af736a7333c95133a02f4a183115c040806dcd1f828585604051808473ffffffffffffffffffffffffffffffffffffffff1673ffffffffffffffffffffffffffffffffffffffff1681526020018363ffffffff1663ffffffff168152602001828152602001935050505060405180910390a150505050565b610b28612334565b610160604051908101604052808c60ff1681526020018d60ff1681526020018b67ffffffffffffffff1681526020018a67ffffffffffffffff1681526020018961ffff1681526020018861ffff1681526020018761ffff1681526020018661ffff1681526020018561ffff1681526020018461ffff16815260200183815250905080600360008f6000191660001916815260200190815260200160002060008201518160000160006101000a81548160ff021916908360ff16021790555060208201518160000160016101000a81548160ff021916908360ff16021790555060408201518160000160026101000a81548167ffffffffffffffff021916908367ffffffffffffffff160217905550606082015181600001600a6101000a81548167ffffffffffffffff021916908367ffffffffffffffff1602179055506080820151816001015560a0820151816002015560c0820151816003015560e0820151816004015561010082015181600501556101208201518160060155610140820151816007015590505050505050505050505050505050565b600080600080600060028860058c02020293508587019250603691506000891215610cf2578860000382019150610cf8565b88830192505b8183101515610d1057818303600a0a84029050610d24565b828203600a0a84811515610d2057fe5b0490505b8094505050505095945050505050565b6000809054906101000a900473ffffffffffffffffffffffffffffffffffffffff1673ffffffffffffffffffffffffffffffffffffffff163373ffffffffffffffffffffffffffffffffffffffff16141515610d8f57600080fd5b6000600960008363ffffffff1663ffffffff16815260200190815260200160002060006101000a81548160ff02191690831515021790555050565b60076020528060005260406000206000915054906101000a900473ffffffffffffffffffffffffffffffffffffffff1681565b60008060008060008060006001811115610e1357fe5b60ff16600360008a6000191660001916815260200190815260200160002060000160009054906101000a900460ff1660ff16141515610e5157600080fd5b600180811115610e5d57fe5b60ff1660036000896000191660001916815260200190815260200160002060000160009054906101000a900460ff1660ff16141515610e9b57600080fd5b6002600160009054906101000a900473ffffffffffffffffffffffffffffffffffffffff1673ffffffffffffffffffffffffffffffffffffffff1663aab14d048a6040518263ffffffff167c0100000000000000000000000000000000000000000000000000000000028152600401808260001916600019168152602001915050602060405180830381600087803b158015610f3657600080fd5b505af1158015610f4a573d6000803e3d6000fd5b505050506040513d6020811015610f6057600080fd5b810190808051906020019092919050505060ff16141515610f8057600080fd5b6002600160009054906101000a900473ffffffffffffffffffffffffffffffffffffffff1673ffffffffffffffffffffffffffffffffffffffff1663aab14d04896040518263ffffffff167c0100000000000000000000000000000000000000000000000000000000028152600401808260001916600019168152602001915050602060405180830381600087803b15801561101b57600080fd5b505af115801561102f573d6000803e3d6000fd5b505050506040513d602081101561104557600080fd5b810190808051906020019092919050505060ff1614151561106557600080fd5b8660001916600160009054906101000a900473ffffffffffffffffffffffffffffffffffffffff1673ffffffffffffffffffffffffffffffffffffffff1663af3e8a408a6040518263ffffffff167c0100000000000000000000000000000000000000000000000000000000028152600401808260001916600019168152602001915050600060405180830381600087803b15801561110357600080fd5b505af1158015611117573d6000803e3d6000fd5b505050506040513d6000823e3d601f19601f82011682018060405250602081101561114157600080fd5b81019080805164010000000081111561115957600080fd5b8281019050602081018481111561116f57600080fd5b815185602082028301116401000000008211171561118c57600080fd5b505092919050505060008151811015156111a257fe5b90602001906020020151600019161415156111bc57600080fd5b6111c688886112d1565b955095506111d6888888886113f7565b935093506111e8848488886008610cc0565b91506111f684846012611392565b905061120488888484611cae565b5050505050505050565b6060600460008373ffffffffffffffffffffffffffffffffffffffff1673ffffffffffffffffffffffffffffffffffffffff1681526020019081526020016000208054806020026020016040519081016040528092919081815260200182805480156112c557602002820191906000526020600020906000905b82829054906101000a900463ffffffff1663ffffffff16815260200190600401906020826003010492830192600103820291508084116112885790505b50505050509050919050565b6000806000600360008660001916600019168152602001908152602001600020600201546003600086600019166000191681526020019081526020016000206002015403600a0a60036000866000191660001916815260200190815260200160002060010154029050600281600360008860001916600019168152602001908152602001600020600101540181151561136657fe5b046003600087600019166000191681526020019081526020016000206002015492509250509250929050565b600080600080866002029250849150600d905060008612156113bb5785600003810190506113c1565b85820191505b80821015156113d957808203600a0a830293506113ed565b818103600a0a838115156113e957fe5b0493505b5050509392505050565b600080600080611445600360008a6000191660001916815260200190815260200160002060030154600360008b6000191660001916815260200190815260200160002060040154600c611392565b915061149160036000896000191660001916815260200190815260200160002060030154600360008a60001916600019168152602001908152602001600020600401548888600c610cc0565b9050808210156114f8578560c8600360008b6000191660001916815260200190815260200160002060030154028115156114c757fe5b0485600c601a600360008d60001916600019168152602001908152602001600020600401540101039350935061153b565b6003600088600019166000191681526020019081526020016000206003015460036000896000191660001916815260200190815260200160002060040154935093505b505094509492505050565b6000809054906101000a900473ffffffffffffffffffffffffffffffffffffffff1681565b6000809054906101000a900473ffffffffffffffffffffffffffffffffffffffff1673ffffffffffffffffffffffffffffffffffffffff163373ffffffffffffffffffffffffffffffffffffffff161415156115c657600080fd5b81600760008563ffffffff1663ffffffff16815260200190815260200160002060006101000a81548173ffffffffffffffffffffffffffffffffffffffff021916908373ffffffffffffffffffffffffffffffffffffffff16021790555080600860008563ffffffff1663ffffffff16815260200190815260200160002060006101000a81548160ff021916908360ff1602179055506001600960008563ffffffff1663ffffffff16815260200190815260200160002060006101000a81548160ff021916908315150217905550505050565b60008083600960008263ffffffff1663ffffffff16815260200190815260200160002060009054906101000a900460ff1615156116d557600080fd5b339250600760008663ffffffff1663ffffffff16815260200190815260200160002060009054906101000a900473ffffffffffffffffffffffffffffffffffffffff169150600260009054906101000a900473ffffffffffffffffffffffffffffffffffffffff1673ffffffffffffffffffffffffffffffffffffffff168273ffffffffffffffffffffffffffffffffffffffff16141561178357833414151561177e57600080fd5b6118a1565b8173ffffffffffffffffffffffffffffffffffffffff166323b872dd8430876040518463ffffffff167c0100000000000000000000000000000000000000000000000000000000028152600401808473ffffffffffffffffffffffffffffffffffffffff1673ffffffffffffffffffffffffffffffffffffffff1681526020018373ffffffffffffffffffffffffffffffffffffffff1673ffffffffffffffffffffffffffffffffffffffff1681526020018281526020019350505050602060405180830381600087803b15801561185a57600080fd5b505af115801561186e573d6000803e3d6000fd5b505050506040513d602081101561188457600080fd5b810190808051906020019092919050505015156118a057600080fd5b5b6118ac838686612078565b7f9a8dfdf7d0a585fe5bd50fbea6a5802be1ecb3ca020432959fd63c41a4708f5f838686604051808473ffffffffffffffffffffffffffffffffffffffff1673ffffffffffffffffffffffffffffffffffffffff1681526020018363ffffffff1663ffffffff168152602001828152602001935050505060405180910390a15050505050565b6000600660008473ffffffffffffffffffffffffffffffffffffffff1673ffffffffffffffffffffffffffffffffffffffff16815260200190815260200160002060008363ffffffff1663ffffffff16815260200190815260200160002054905092915050565b60608060608060006119aa8661120e565b925082516040519080825280602002602001820160405280156119dc5781602001602082028038833980820191505090505b509150600090505b8251811015611a3757611a0e8684838151811015156119ff57fe5b90602001906020020151611932565b8282815181101515611a1c57fe5b906020019060200201818152505080806001019150506119e4565b828294509450505050915091565b60086020528060005260406000206000915054906101000a900460ff1681565b60096020528060005260406000206000915054906101000a900460ff1681565b6000809054906101000a900473ffffffffffffffffffffffffffffffffffffffff1673ffffffffffffffffffffffffffffffffffffffff163373ffffffffffffffffffffffffffffffffffffffff16141515611ae057600080fd5b600073ffffffffffffffffffffffffffffffffffffffff168173ffffffffffffffffffffffffffffffffffffffff1614151515611b1c57600080fd5b8073ffffffffffffffffffffffffffffffffffffffff166000809054906101000a900473ffffffffffffffffffffffffffffffffffffffff1673ffffffffffffffffffffffffffffffffffffffff167f8be0079c531659141344cd1fd0a4f28419497f9722a3daafe3b4186f6b6457e060405160405180910390a3806000806101000a81548173ffffffffffffffffffffffffffffffffffffffff021916908373ffffffffffffffffffffffffffffffffffffffff16021790555050565b611c4981600660008673ffffffffffffffffffffffffffffffffffffffff1673ffffffffffffffffffffffffffffffffffffffff16815260200190815260200160002060008563ffffffff1663ffffffff168152602001908152602001600020546122fd90919063ffffffff16565b600660008573ffffffffffffffffffffffffffffffffffffffff1673ffffffffffffffffffffffffffffffffffffffff16815260200190815260200160002060008463ffffffff1663ffffffff16815260200190815260200160002081905550505050565b600080600080600160009054906101000a900473ffffffffffffffffffffffffffffffffffffffff1673ffffffffffffffffffffffffffffffffffffffff1663b1a08010896040518263ffffffff167c0100000000000000000000000000000000000000000000000000000000028152600401808260001916600019168152602001915050602060405180830381600087803b158015611d4d57600080fd5b505af1158015611d61573d6000803e3d6000fd5b505050506040513d6020811015611d7757600080fd5b81019080805190602001909291905050509350600160009054906101000a900473ffffffffffffffffffffffffffffffffffffffff1673ffffffffffffffffffffffffffffffffffffffff1663b1a08010886040518263ffffffff167c0100000000000000000000000000000000000000000000000000000000028152600401808260001916600019168152602001915050602060405180830381600087803b158015611e2357600080fd5b505af1158015611e37573d6000803e3d6000fd5b505050506040513d6020811015611e4d57600080fd5b81019080805190602001909291905050509250600360008860001916600019168152602001908152602001600020600001600a9054906101000a900467ffffffffffffffff1691506020600360008960001916600019168152602001908152602001600020600001600a9054906101000a900467ffffffffffffffff1667ffffffffffffffff169060020a90049050611ee7848288611bda565b611ef2838387611bda565b611efd838288612078565b611f08848387612078565b7fe6d64cac65c05a9715c20bfc2ed8851bfe1c155b6cd1ee42d313d0880fc48b9f84848389604051808573ffffffffffffffffffffffffffffffffffffffff1673ffffffffffffffffffffffffffffffffffffffff1681526020018473ffffffffffffffffffffffffffffffffffffffff1673ffffffffffffffffffffffffffffffffffffffff1681526020018363ffffffff1663ffffffff16815260200182815260200194505050505060405180910390a17fe6d64cac65c05a9715c20bfc2ed8851bfe1c155b6cd1ee42d313d0880fc48b9f83858488604051808573ffffffffffffffffffffffffffffffffffffffff1673ffffffffffffffffffffffffffffffffffffffff1681526020018473ffffffffffffffffffffffffffffffffffffffff1673ffffffffffffffffffffffffffffffffffffffff1681526020018363ffffffff1663ffffffff16815260200182815260200194505050505060405180910390a15050505050505050565b600560008473ffffffffffffffffffffffffffffffffffffffff1673ffffffffffffffffffffffffffffffffffffffff16815260200190815260200160002060008363ffffffff1663ffffffff16815260200190815260200160002060009054906101000a900460ff161515612229576001600560008573ffffffffffffffffffffffffffffffffffffffff1673ffffffffffffffffffffffffffffffffffffffff16815260200190815260200160002060008463ffffffff1663ffffffff16815260200190815260200160002060006101000a81548160ff021916908315150217905550600460008473ffffffffffffffffffffffffffffffffffffffff1673ffffffffffffffffffffffffffffffffffffffff16815260200190815260200160002082908060018154018082558091505090600182039060005260206000209060089182820401919006600402909192909190916101000a81548163ffffffff021916908363ffffffff160217905550507f1d049bc0bbb6256edd7c8cf50e3e790093e0ca601b2152275b4e46ab1185960282604051808263ffffffff16815260200191505060405180910390a15b61229881600660008673ffffffffffffffffffffffffffffffffffffffff1673ffffffffffffffffffffffffffffffffffffffff16815260200190815260200160002060008563ffffffff1663ffffffff1681526020019081526020016000205461231690919063ffffffff16565b600660008573ffffffffffffffffffffffffffffffffffffffff1673ffffffffffffffffffffffffffffffffffffffff16815260200190815260200160002060008463ffffffff1663ffffffff16815260200190815260200160002081905550505050565b600082821115151561230b57fe5b818303905092915050565b600080828401905083811015151561232a57fe5b8091505092915050565b61016060405190810160405280600060ff168152602001600060ff168152602001600067ffffffffffffffff168152602001600067ffffffffffffffff1681526020016000815260200160008152602001600081526020016000815260200160008152602001600081526020016000815250905600a165627a7a723058203eaa3d1bfa29c4d84e9925eee4d2db160dadc555347d540d4b8f186a162eea800029",
  "source": "pragma solidity ^0.4.24;\n\n// pragma experimental ABIEncoderV2;\n\nimport \"zeppelin-solidity/contracts/token/ERC20/ERC20.sol\";\nimport \"zeppelin-solidity/contracts/math/SafeMath.sol\";\nimport \"zeppelin-solidity/contracts/ownership/Ownable.sol\";\n\nimport \"./RenLedger.sol\";\n\ncontract TraderAccounts is Ownable {\n    using SafeMath for uint256;\n\n    RenLedger ledger;\n\n    enum OrderType {Midpoint, Limit}\n    enum OrderParity {Buy, Sell}\n\n    // TODO: Use same constant instance across all contracts \n    address ETH = 0x0;\n\n    struct Order {\n        uint8 parity;\n        uint8 orderType;\n        uint64 expiry;\n        uint64 tokens;        \n        uint256 priceC; uint256 priceQ;\n        uint256 volumeC; uint256 volumeQ;\n        uint256 minimumVolumeC; uint256 minimumVolumeQ;\n        uint256 nonceHash;\n    }\n\n    event Deposit(address trader, uint32 token, uint256 value);\n    event Withdraw(address trader, uint32 token, uint256 value);\n    event Transfer(address from, address to, uint32 token, uint256 value);\n    event Debug256(uint256 num);\n    event Debugi256(int256 num);\n    event Debug(string msg);\n\n    mapping(bytes32 => Order) private orders;\n\n    mapping(address => uint32[]) private traderTokens;\n    mapping(address => mapping(uint32 => bool)) private activeTraderToken;\n    mapping(address => mapping(uint32 => uint256)) private balances;\n\n    mapping(uint32 => ERC20) public tokenAddresses;\n    mapping(uint32 => uint8) public tokenDecimals;\n    mapping(uint32 => bool) public tokenEnabled;\n    \n    // CONSTRUCTOR //\n\n    constructor(RenLedger _ledger) public {\n        ledger = _ledger;\n    }\n\n\n    // Contract Registry //\n    modifier onlyEnabledToken(uint32 _tokenCode) {\n        require(tokenEnabled[_tokenCode]);\n        _;\n    }\n\n    function registerToken(uint32 _tokenCode, ERC20 _tokenAddress, uint8 _tokenDecimals) public onlyOwner {\n        tokenAddresses[_tokenCode] = _tokenAddress;\n        tokenDecimals[_tokenCode] = _tokenDecimals;\n        tokenEnabled[_tokenCode] = true;\n    }\n\n    function deregisterToken(uint32 _tokenCode) public onlyOwner {\n        tokenEnabled[_tokenCode] = false;\n    }\n\n\n\n    // PRIVATE functions //\n    \n    function incrementBalance(address _trader, uint32 _tokenCode, uint256 _value) private {\n        // Check if it's the first time the trader\n        if (!activeTraderToken[_trader][_tokenCode]) {\n            activeTraderToken[_trader][_tokenCode] = true;\n            traderTokens[_trader].push(_tokenCode);\n            emit Debug256(_tokenCode);\n        }\n\n        balances[_trader][_tokenCode] = balances[_trader][_tokenCode].add(_value);\n    }\n\n    function decrementBalance(address _trader, uint32 _tokenCode, uint256 _value) private {\n        balances[_trader][_tokenCode] = balances[_trader][_tokenCode].sub(_value);\n    }\n\n\n\n\n    // Trader functions //\n\n    function deposit(uint32 _tokenCode, uint256 _value) payable public onlyEnabledToken(_tokenCode) {\n        address trader = msg.sender;\n\n        ERC20 token = tokenAddresses[_tokenCode];\n\n        if (address(token) == ETH) {\n            require(msg.value == _value);\n        } else {\n            require(token.transferFrom(trader, this, _value));\n        }\n        incrementBalance(trader, _tokenCode, _value);\n\n        emit Deposit(trader, _tokenCode, _value);\n    }\n\n    function withdraw(uint32 _tokenCode, uint256 _value) public {\n        address trader = msg.sender;\n\n        ERC20 token = tokenAddresses[_tokenCode];\n\n        decrementBalance(trader, _tokenCode, _value);\n        if (address(token) == ETH) {\n            trader.transfer(_value);\n        } else {\n            require(token.transfer(trader, _value));\n        }\n\n        emit Withdraw(trader, _tokenCode, _value);\n    }\n\n    function getBalance(address _trader, uint32 _tokenCode) public view returns (uint256) {    \n        return balances[_trader][_tokenCode];\n    }\n\n    function getTokens(address _trader) public view returns (uint32[]) {\n        return traderTokens[_trader];\n    }\n\n    function getBalances(address _trader) public view returns (uint32[], uint256[]) {\n        uint32[] memory tokens = getTokens(_trader);\n        uint256[] memory traderBalances = new uint256[](tokens.length);\n\n        for (uint256 i = 0; i < tokens.length; i++) {\n            traderBalances[i] = getBalance(_trader, tokens[i]);\n        }\n\n        return (tokens, traderBalances);\n    }\n\n\n    function priceMidPoint(bytes32 buyID, bytes32 sellID) public view returns (uint256, uint256) {\n        // Normalize to same exponent before finding mid-point (mean)\n        uint256 norm = orders[sellID].priceC * 10 ** (orders[sellID].priceQ - orders[buyID].priceQ);\n        return ((orders[buyID].priceC + norm) / 2, orders[buyID].priceQ);\n    }\n\n    function minimumVolume(bytes32 buyID, bytes32 sellID, uint256 priceC, uint256 priceQ) public view returns (uint256, int256) {        \n        uint256 buyV = tupleToRenVolume(orders[buyID].volumeC, int256(orders[buyID].volumeQ), 12);\n        uint256 sellV = tupleToBTCVolume(orders[sellID].volumeC, int256(orders[sellID].volumeQ), priceC, priceQ, 12);\n\n        if (buyV < sellV) {\n            // TODO: Optimize this process, divide above\n            return (orders[buyID].volumeC * 200 / priceC, int256(orders[buyID].volumeQ + 26 + 12) - int256(priceQ));\n        } else {\n            return (orders[sellID].volumeC, int256(orders[sellID].volumeQ));\n        }\n    }\n\n    function tupleToBTCVolume(uint256 volC, int256 volQ, uint256 priceC, uint256 priceQ, uint256 decimals)\n    public pure returns (uint256) {\n        // 0.2 turns into 2 * 10**-1 (-1 moved to exponent)\n        // 0.005 turns into 5 * 10**-3 (-3 moved to exponent)\n        uint256 c = volC * 5 * priceC * 2;\n\n        // Positive and negative components of exponent\n        uint256 ep = priceQ + decimals;\n        uint256 en = 26 + 12 + 3 + 12 + 1;\n        // Add volQ to positive or negative component based on its sign\n        if (volQ < 0) {\n            en += uint256(-volQ);\n        } else {\n            ep += uint256(volQ);\n        }\n\n        // If (ep-en) is negative, divide instead of multiplying\n        uint256 value;\n        if (ep >= en) {\n            value = c * 10 ** (ep - en);\n        } else {\n            value = c / 10 ** (en - ep);            \n        }\n\n        return value;\n    }\n\n    function tupleToPrice(uint256 priceC, uint256 priceQ) pure public returns (uint256) {\n        // 0.005 turns into 5 * 10**-3 (-3 moved to exponent)\n        uint256 c = 5 * priceC;\n\n        // Positive and negative components of exponent        \n        uint256 ep = priceQ + 8;\n        uint256 en = 26 + 3 + 12;\n\n        // If (ep-en) is negative, divide instead of multiplying        \n        if (ep >= en) {\n            return c * 10 ** (ep - en);\n        } else {\n            return c / 10 ** (en - ep);\n        }\n    }\n\n    function tupleToRenVolume(uint256 volC, int256 volQ, uint256 decimals) public pure returns (uint256) {\n        // 0.2 turns into 2 * 10**-1 (-1 moved to exponent)\n        uint256 c = 2 * volC;\n\n        // Positive and negative components of exponent                \n        uint256 ep = decimals;\n        uint256 en = 12 + 1;\n        // Add volQ to positive or negative component based on its sign        \n        if (volQ < 0) {\n            en += uint256(-volQ);\n        } else {\n            ep += uint256(volQ);\n        }\n\n        // If (ep-en) is negative, divide instead of multiplying                \n        if (ep >= en) {\n            return c * 10 ** (ep - en);\n        } else {\n            return c / 10 ** (en - ep);\n        }\n    }\n\n    // Ensure this remains private\n    function finalizeMatch(bytes32 buyID, bytes32 sellID, uint256 btcValue, uint256 renValue) private {\n        address buyer = ledger.orderTrader(buyID);\n        address seller = ledger.orderTrader(sellID);\n\n        uint32 buyToken = uint32(orders[sellID].tokens);\n        uint32 sellToken = uint32(orders[sellID].tokens >> 32);\n\n\n        // Subtract values\n        decrementBalance(buyer, sellToken, btcValue);\n        decrementBalance(seller, buyToken, renValue);\n\n        // Add values\n        incrementBalance(seller, sellToken, btcValue);\n        incrementBalance(buyer, buyToken, renValue);\n\n        emit Transfer(buyer, seller, sellToken, btcValue);\n        emit Transfer(seller, buyer, buyToken, renValue);\n    }\n\n\n\n    function hashOrder(Order order) private pure returns (bytes32) {\n        return keccak256(\n            abi.encodePacked(\n                order.orderType,\n                order.parity,\n                order.expiry,\n                order.tokens,\n                order.priceC, order.priceQ,\n                order.volumeC, order.volumeQ,\n                order.minimumVolumeC, order.minimumVolumeQ,\n                order.nonceHash\n            )\n        );\n    }\n\n\n\n\n    function submitOrder(\n        bytes32 id,\n        uint8 orderType,\n        uint8 parity,\n        uint64 expiry,\n        uint64 tokens,\n        uint16 priceC, uint16 priceQ,\n        uint16 volumeC, uint16 volumeQ,\n        uint16 minimumVolumeC, uint16 minimumVolumeQ,\n        uint256 nonceHash\n    ) public {\n\n        Order memory order = Order({\n            orderType: orderType,\n            parity: parity,\n            expiry: expiry,\n            tokens: tokens,\n            priceC: priceC, priceQ: priceQ,\n            volumeC: volumeC, volumeQ: volumeQ,\n            minimumVolumeC: minimumVolumeC, minimumVolumeQ: minimumVolumeQ,\n            nonceHash: nonceHash\n        });\n\n        // FIXME: Implement order hashing\n        // bytes32 id = hashOrder(order);\n\n        orders[id] = order;\n    }\n\n\n    function submitMatch(bytes32 buyID, bytes32 sellID) public {\n        // TODO: Verify order match\n\n        // Require that the orders are confirmed to one another\n        require(orders[buyID].parity == uint8(OrderParity.Buy));\n        require(orders[sellID].parity == uint8(OrderParity.Sell));\n        require(ledger.orderState(buyID) == 2);\n        require(ledger.orderState(sellID) == 2);\n        require(ledger.orderMatch(buyID)[0] == sellID);\n\n        // Price midpoint\n        (uint256 midPriceC, uint256 midPriceQ) = priceMidPoint(buyID, sellID);\n        \n        (uint256 minVolC, int256 minVolQ) = minimumVolume(buyID, sellID, midPriceC, midPriceQ);\n\n        uint256 btcValue = tupleToBTCVolume(minVolC, minVolQ, midPriceC, midPriceQ, 8);\n\n        uint256 renValue = tupleToRenVolume(minVolC, minVolQ, 18);\n\n        finalizeMatch(buyID, sellID, btcValue, renValue);\n    }\n \n}",
  "sourcePath": "/home/noah/github/republicprotocol/republic-sol/contracts/TraderAccounts.sol",
  "compiler": {
    "name": "solc",
    "version": "0.4.24+commit.e67f0147.Emscripten.clang"
  },
  "schemaVersion": "2.0.0",
  "updatedAt": "2018-05-31T23:57:03.947Z"
}