{
  "contractName": "TraderAccounts",
  "abi": [
    {
      "constant": true,
      "inputs": [
        {
          "name": "",
          "type": "uint32"
        }
      ],
      "name": "tokenAddresses",
      "outputs": [
        {
          "name": "",
          "type": "address"
        }
      ],
      "payable": false,
      "stateMutability": "view",
      "type": "function"
    },
    {
      "constant": true,
      "inputs": [],
      "name": "owner",
      "outputs": [
        {
          "name": "",
          "type": "address"
        }
      ],
      "payable": false,
      "stateMutability": "view",
      "type": "function"
    },
    {
      "constant": true,
      "inputs": [
        {
          "name": "",
          "type": "uint32"
        }
      ],
      "name": "tokenDecimals",
      "outputs": [
        {
          "name": "",
          "type": "uint8"
        }
      ],
      "payable": false,
      "stateMutability": "view",
      "type": "function"
    },
    {
      "constant": true,
      "inputs": [
        {
          "name": "",
          "type": "uint32"
        }
      ],
      "name": "tokenEnabled",
      "outputs": [
        {
          "name": "",
          "type": "bool"
        }
      ],
      "payable": false,
      "stateMutability": "view",
      "type": "function"
    },
    {
      "constant": false,
      "inputs": [
        {
          "name": "newOwner",
          "type": "address"
        }
      ],
      "name": "transferOwnership",
      "outputs": [],
      "payable": false,
      "stateMutability": "nonpayable",
      "type": "function"
    },
    {
      "inputs": [
        {
          "name": "_ledger",
          "type": "address"
        }
      ],
      "payable": false,
      "stateMutability": "nonpayable",
      "type": "constructor"
    },
    {
      "anonymous": false,
      "inputs": [
        {
          "indexed": false,
          "name": "trader",
          "type": "address"
        },
        {
          "indexed": false,
          "name": "token",
          "type": "uint32"
        },
        {
          "indexed": false,
          "name": "value",
          "type": "uint256"
        }
      ],
      "name": "Deposit",
      "type": "event"
    },
    {
      "anonymous": false,
      "inputs": [
        {
          "indexed": false,
          "name": "trader",
          "type": "address"
        },
        {
          "indexed": false,
          "name": "token",
          "type": "uint32"
        },
        {
          "indexed": false,
          "name": "value",
          "type": "uint256"
        }
      ],
      "name": "Withdraw",
      "type": "event"
    },
    {
      "anonymous": false,
      "inputs": [
        {
          "indexed": false,
          "name": "from",
          "type": "address"
        },
        {
          "indexed": false,
          "name": "to",
          "type": "address"
        },
        {
          "indexed": false,
          "name": "token",
          "type": "uint32"
        },
        {
          "indexed": false,
          "name": "value",
          "type": "uint256"
        }
      ],
      "name": "Transfer",
      "type": "event"
    },
    {
      "anonymous": false,
      "inputs": [
        {
          "indexed": false,
          "name": "num",
          "type": "uint256"
        }
      ],
      "name": "Debug256",
      "type": "event"
    },
    {
      "anonymous": false,
      "inputs": [
        {
          "indexed": false,
          "name": "num",
          "type": "int256"
        }
      ],
      "name": "Debugi256",
      "type": "event"
    },
    {
      "anonymous": false,
      "inputs": [
        {
          "indexed": false,
          "name": "msg",
          "type": "string"
        }
      ],
      "name": "Debug",
      "type": "event"
    },
    {
      "anonymous": false,
      "inputs": [
        {
          "indexed": true,
          "name": "previousOwner",
          "type": "address"
        },
        {
          "indexed": true,
          "name": "newOwner",
          "type": "address"
        }
      ],
      "name": "OwnershipTransferred",
      "type": "event"
    },
    {
      "constant": false,
      "inputs": [
        {
          "name": "_tokenCode",
          "type": "uint32"
        },
        {
          "name": "_tokenAddress",
          "type": "address"
        },
        {
          "name": "_tokenDecimals",
          "type": "uint8"
        }
      ],
      "name": "registerToken",
      "outputs": [],
      "payable": false,
      "stateMutability": "nonpayable",
      "type": "function"
    },
    {
      "constant": false,
      "inputs": [
        {
          "name": "_tokenCode",
          "type": "uint32"
        }
      ],
      "name": "deregisterToken",
      "outputs": [],
      "payable": false,
      "stateMutability": "nonpayable",
      "type": "function"
    },
    {
      "constant": false,
      "inputs": [
        {
          "name": "_tokenCode",
          "type": "uint32"
        },
        {
          "name": "_value",
          "type": "uint256"
        }
      ],
      "name": "deposit",
      "outputs": [],
      "payable": true,
      "stateMutability": "payable",
      "type": "function"
    },
    {
      "constant": false,
      "inputs": [
        {
          "name": "_tokenCode",
          "type": "uint32"
        },
        {
          "name": "_value",
          "type": "uint256"
        }
      ],
      "name": "withdraw",
      "outputs": [],
      "payable": false,
      "stateMutability": "nonpayable",
      "type": "function"
    },
    {
      "constant": true,
      "inputs": [
        {
          "name": "_trader",
          "type": "address"
        },
        {
          "name": "_tokenCode",
          "type": "uint32"
        }
      ],
      "name": "getBalance",
      "outputs": [
        {
          "name": "",
          "type": "uint256"
        }
      ],
      "payable": false,
      "stateMutability": "view",
      "type": "function"
    },
    {
      "constant": true,
      "inputs": [
        {
          "name": "_trader",
          "type": "address"
        }
      ],
      "name": "getTokens",
      "outputs": [
        {
          "name": "",
          "type": "uint32[]"
        }
      ],
      "payable": false,
      "stateMutability": "view",
      "type": "function"
    },
    {
      "constant": true,
      "inputs": [
        {
          "name": "_trader",
          "type": "address"
        }
      ],
      "name": "getBalances",
      "outputs": [
        {
          "name": "",
          "type": "uint32[]"
        },
        {
          "name": "",
          "type": "uint256[]"
        }
      ],
      "payable": false,
      "stateMutability": "view",
      "type": "function"
    },
    {
      "constant": false,
      "inputs": [
        {
          "name": "id",
          "type": "bytes32"
        },
        {
          "name": "orderType",
          "type": "uint8"
        },
        {
          "name": "parity",
          "type": "uint8"
        },
        {
          "name": "expiry",
          "type": "uint64"
        },
        {
          "name": "tokens",
          "type": "uint64"
        },
        {
          "name": "priceC",
          "type": "uint16"
        },
        {
          "name": "priceQ",
          "type": "uint16"
        },
        {
          "name": "volumeC",
          "type": "uint16"
        },
        {
          "name": "volumeQ",
          "type": "uint16"
        },
        {
          "name": "minimumVolumeC",
          "type": "uint16"
        },
        {
          "name": "minimumVolumeQ",
          "type": "uint16"
        },
        {
          "name": "nonceHash",
          "type": "uint256"
        }
      ],
      "name": "submitOrder",
      "outputs": [],
      "payable": false,
      "stateMutability": "nonpayable",
      "type": "function"
    },
    {
      "constant": false,
      "inputs": [
        {
          "name": "buyID",
          "type": "bytes32"
        },
        {
          "name": "sellID",
          "type": "bytes32"
        }
      ],
      "name": "submitMatch",
      "outputs": [],
      "payable": false,
      "stateMutability": "nonpayable",
      "type": "function"
    }
  ],
  "bytecode": "0x60806040526000600260006101000a81548173ffffffffffffffffffffffffffffffffffffffff021916908373ffffffffffffffffffffffffffffffffffffffff16021790555034801561005257600080fd5b506040516020806122e883398101806040528101908080519060200190929190505050336000806101000a81548173ffffffffffffffffffffffffffffffffffffffff021916908373ffffffffffffffffffffffffffffffffffffffff16021790555080600160006101000a81548173ffffffffffffffffffffffffffffffffffffffff021916908373ffffffffffffffffffffffffffffffffffffffff160217905550506121e2806101066000396000f3006080604052600436106100d0576000357c0100000000000000000000000000000000000000000000000000000000900463ffffffff1680630e19dc3a146100d5578063177d19c31461011257806325fc575a146101e357806329debc9f146102165780632a337d3014610289578063450efe21146102c85780638da5cb5b146103605780639e20a9a0146103b7578063aaf1039814610417578063c0029bda14610447578063c84aae17146104ae578063c865992b1461058e578063d78dd9c9146105db578063f2fde38b14610626575b600080fd5b3480156100e157600080fd5b50610110600480360381019080803563ffffffff16906020019092919080359060200190929190505050610669565b005b34801561011e57600080fd5b506101e16004803603810190808035600019169060200190929190803560ff169060200190929190803560ff169060200190929190803567ffffffffffffffff169060200190929190803567ffffffffffffffff169060200190929190803561ffff169060200190929190803561ffff169060200190929190803561ffff169060200190929190803561ffff169060200190929190803561ffff169060200190929190803561ffff169060200190929190803590602001909291905050506108cd565b005b3480156101ef57600080fd5b50610214600480360381019080803563ffffffff169060200190929190505050610a6d565b005b34801561022257600080fd5b50610247600480360381019080803563ffffffff169060200190929190505050610b03565b604051808273ffffffffffffffffffffffffffffffffffffffff1673ffffffffffffffffffffffffffffffffffffffff16815260200191505060405180910390f35b34801561029557600080fd5b506102c660048036038101908080356000191690602001909291908035600019169060200190929190505050610b36565b005b3480156102d457600080fd5b50610309600480360381019080803573ffffffffffffffffffffffffffffffffffffffff1690602001909291905050506111d7565b6040518080602001828103825283818151815260200191508051906020019060200280838360005b8381101561034c578082015181840152602081019050610331565b505050509050019250505060405180910390f35b34801561036c57600080fd5b5061037561129a565b604051808273ffffffffffffffffffffffffffffffffffffffff1673ffffffffffffffffffffffffffffffffffffffff16815260200191505060405180910390f35b3480156103c357600080fd5b50610415600480360381019080803563ffffffff169060200190929190803573ffffffffffffffffffffffffffffffffffffffff169060200190929190803560ff1690602001909291905050506112bf565b005b610445600480360381019080803563ffffffff169060200190929190803590602001909291905050506113ed565b005b34801561045357600080fd5b50610498600480360381019080803573ffffffffffffffffffffffffffffffffffffffff169060200190929190803563ffffffff169060200190929190505050611686565b6040518082815260200191505060405180910390f35b3480156104ba57600080fd5b506104ef600480360381019080803573ffffffffffffffffffffffffffffffffffffffff1690602001909291905050506116ed565b604051808060200180602001838103835285818151815260200191508051906020019060200280838360005b8381101561053657808201518184015260208101905061051b565b50505050905001838103825284818151815260200191508051906020019060200280838360005b8381101561057857808201518184015260208101905061055d565b5050505090500194505050505060405180910390f35b34801561059a57600080fd5b506105bf600480360381019080803563ffffffff169060200190929190505050611799565b604051808260ff1660ff16815260200191505060405180910390f35b3480156105e757600080fd5b5061060c600480360381019080803563ffffffff1690602001909291905050506117b9565b604051808215151515815260200191505060405180910390f35b34801561063257600080fd5b50610667600480360381019080803573ffffffffffffffffffffffffffffffffffffffff1690602001909291905050506117d9565b005b600080339150600760008563ffffffff1663ffffffff16815260200190815260200160002060009054906101000a900473ffffffffffffffffffffffffffffffffffffffff1690506106bc82858561192e565b600260009054906101000a900473ffffffffffffffffffffffffffffffffffffffff1673ffffffffffffffffffffffffffffffffffffffff168173ffffffffffffffffffffffffffffffffffffffff16141561075e578173ffffffffffffffffffffffffffffffffffffffff166108fc849081150290604051600060405180830381858888f19350505050158015610758573d6000803e3d6000fd5b50610848565b8073ffffffffffffffffffffffffffffffffffffffff1663a9059cbb83856040518363ffffffff167c0100000000000000000000000000000000000000000000000000000000028152600401808373ffffffffffffffffffffffffffffffffffffffff1673ffffffffffffffffffffffffffffffffffffffff16815260200182815260200192505050602060405180830381600087803b15801561080157600080fd5b505af1158015610815573d6000803e3d6000fd5b505050506040513d602081101561082b57600080fd5b8101908080519060200190929190505050151561084757600080fd5b5b7fe83ff6ce9f1df32d25a90a81af736a7333c95133a02f4a183115c040806dcd1f828585604051808473ffffffffffffffffffffffffffffffffffffffff1673ffffffffffffffffffffffffffffffffffffffff1681526020018363ffffffff1663ffffffff168152602001828152602001935050505060405180910390a150505050565b6108d5612141565b610160604051908101604052808c60ff1681526020018d60ff1681526020018b67ffffffffffffffff1681526020018a67ffffffffffffffff1681526020018961ffff1681526020018861ffff1681526020018761ffff1681526020018661ffff1681526020018561ffff1681526020018461ffff16815260200183815250905080600360008f6000191660001916815260200190815260200160002060008201518160000160006101000a81548160ff021916908360ff16021790555060208201518160000160016101000a81548160ff021916908360ff16021790555060408201518160000160026101000a81548167ffffffffffffffff021916908367ffffffffffffffff160217905550606082015181600001600a6101000a81548167ffffffffffffffff021916908367ffffffffffffffff1602179055506080820151816001015560a0820151816002015560c0820151816003015560e0820151816004015561010082015181600501556101208201518160060155610140820151816007015590505050505050505050505050505050565b6000809054906101000a900473ffffffffffffffffffffffffffffffffffffffff1673ffffffffffffffffffffffffffffffffffffffff163373ffffffffffffffffffffffffffffffffffffffff16141515610ac857600080fd5b6000600960008363ffffffff1663ffffffff16815260200190815260200160002060006101000a81548160ff02191690831515021790555050565b60076020528060005260406000206000915054906101000a900473ffffffffffffffffffffffffffffffffffffffff1681565b60008060008060008060008060008060006001811115610b5257fe5b60ff16600360008e6000191660001916815260200190815260200160002060000160009054906101000a900460ff1660ff16141515610b9057600080fd5b600180811115610b9c57fe5b60ff16600360008d6000191660001916815260200190815260200160002060000160009054906101000a900460ff1660ff16141515610bda57600080fd5b6002600160009054906101000a900473ffffffffffffffffffffffffffffffffffffffff1673ffffffffffffffffffffffffffffffffffffffff1663aab14d048e6040518263ffffffff167c0100000000000000000000000000000000000000000000000000000000028152600401808260001916600019168152602001915050602060405180830381600087803b158015610c7557600080fd5b505af1158015610c89573d6000803e3d6000fd5b505050506040513d6020811015610c9f57600080fd5b810190808051906020019092919050505060ff16141515610cbf57600080fd5b6002600160009054906101000a900473ffffffffffffffffffffffffffffffffffffffff1673ffffffffffffffffffffffffffffffffffffffff1663aab14d048d6040518263ffffffff167c0100000000000000000000000000000000000000000000000000000000028152600401808260001916600019168152602001915050602060405180830381600087803b158015610d5a57600080fd5b505af1158015610d6e573d6000803e3d6000fd5b505050506040513d6020811015610d8457600080fd5b810190808051906020019092919050505060ff16141515610da457600080fd5b8a60001916600160009054906101000a900473ffffffffffffffffffffffffffffffffffffffff1673ffffffffffffffffffffffffffffffffffffffff1663af3e8a408e6040518263ffffffff167c0100000000000000000000000000000000000000000000000000000000028152600401808260001916600019168152602001915050600060405180830381600087803b158015610e4257600080fd5b505af1158015610e56573d6000803e3d6000fd5b505050506040513d6000823e3d601f19601f820116820180604052506020811015610e8057600080fd5b810190808051640100000000811115610e9857600080fd5b82810190506020810184811115610eae57600080fd5b8151856020820283011164010000000082111715610ecb57600080fd5b50509291905050506000815181101515610ee157fe5b9060200190602002015160001916141515610efb57600080fd5b600160009054906101000a900473ffffffffffffffffffffffffffffffffffffffff1673ffffffffffffffffffffffffffffffffffffffff1663b1a080108d6040518263ffffffff167c0100000000000000000000000000000000000000000000000000000000028152600401808260001916600019168152602001915050602060405180830381600087803b158015610f9457600080fd5b505af1158015610fa8573d6000803e3d6000fd5b505050506040513d6020811015610fbe57600080fd5b81019080805190602001909291905050509950600160009054906101000a900473ffffffffffffffffffffffffffffffffffffffff1673ffffffffffffffffffffffffffffffffffffffff1663b1a080108c6040518263ffffffff167c0100000000000000000000000000000000000000000000000000000000028152600401808260001916600019168152602001915050602060405180830381600087803b15801561106a57600080fd5b505af115801561107e573d6000803e3d6000fd5b505050506040513d602081101561109457600080fd5b81019080805190602001909291905050509850600360008c60001916600019168152602001908152602001600020600001600a9054906101000a900467ffffffffffffffff1697506020600360008d60001916600019168152602001908152602001600020600001600a9054906101000a900467ffffffffffffffff1667ffffffffffffffff169060020a9004965061112d8c8c611a02565b9550955061113d8c8c8888611ac3565b9350935061117d84848888600860008d63ffffffff1663ffffffff16815260200190815260200160002060009054906101000a900460ff1660ff16611c12565b91506111b98484600860008c63ffffffff1663ffffffff16815260200190815260200160002060009054906101000a900460ff1660ff16611c86565b90506111c98a8a8a8a8686611ceb565b505050505050505050505050565b6060600460008373ffffffffffffffffffffffffffffffffffffffff1673ffffffffffffffffffffffffffffffffffffffff16815260200190815260200160002080548060200260200160405190810160405280929190818152602001828054801561128e57602002820191906000526020600020906000905b82829054906101000a900463ffffffff1663ffffffff16815260200190600401906020826003010492830192600103820291508084116112515790505b50505050509050919050565b6000809054906101000a900473ffffffffffffffffffffffffffffffffffffffff1681565b6000809054906101000a900473ffffffffffffffffffffffffffffffffffffffff1673ffffffffffffffffffffffffffffffffffffffff163373ffffffffffffffffffffffffffffffffffffffff1614151561131a57600080fd5b81600760008563ffffffff1663ffffffff16815260200190815260200160002060006101000a81548173ffffffffffffffffffffffffffffffffffffffff021916908373ffffffffffffffffffffffffffffffffffffffff16021790555080600860008563ffffffff1663ffffffff16815260200190815260200160002060006101000a81548160ff021916908360ff1602179055506001600960008563ffffffff1663ffffffff16815260200190815260200160002060006101000a81548160ff021916908315150217905550505050565b60008083600960008263ffffffff1663ffffffff16815260200190815260200160002060009054906101000a900460ff16151561142957600080fd5b339250600760008663ffffffff1663ffffffff16815260200190815260200160002060009054906101000a900473ffffffffffffffffffffffffffffffffffffffff169150600260009054906101000a900473ffffffffffffffffffffffffffffffffffffffff1673ffffffffffffffffffffffffffffffffffffffff168273ffffffffffffffffffffffffffffffffffffffff1614156114d75783341415156114d257600080fd5b6115f5565b8173ffffffffffffffffffffffffffffffffffffffff166323b872dd8430876040518463ffffffff167c0100000000000000000000000000000000000000000000000000000000028152600401808473ffffffffffffffffffffffffffffffffffffffff1673ffffffffffffffffffffffffffffffffffffffff1681526020018373ffffffffffffffffffffffffffffffffffffffff1673ffffffffffffffffffffffffffffffffffffffff1681526020018281526020019350505050602060405180830381600087803b1580156115ae57600080fd5b505af11580156115c2573d6000803e3d6000fd5b505050506040513d60208110156115d857600080fd5b810190808051906020019092919050505015156115f457600080fd5b5b611600838686611e85565b7f9a8dfdf7d0a585fe5bd50fbea6a5802be1ecb3ca020432959fd63c41a4708f5f838686604051808473ffffffffffffffffffffffffffffffffffffffff1673ffffffffffffffffffffffffffffffffffffffff1681526020018363ffffffff1663ffffffff168152602001828152602001935050505060405180910390a15050505050565b6000600660008473ffffffffffffffffffffffffffffffffffffffff1673ffffffffffffffffffffffffffffffffffffffff16815260200190815260200160002060008363ffffffff1663ffffffff16815260200190815260200160002054905092915050565b60608060608060006116fe866111d7565b925082516040519080825280602002602001820160405280156117305781602001602082028038833980820191505090505b509150600090505b825181101561178b5761176286848381518110151561175357fe5b90602001906020020151611686565b828281518110151561177057fe5b90602001906020020181815250508080600101915050611738565b828294509450505050915091565b60086020528060005260406000206000915054906101000a900460ff1681565b60096020528060005260406000206000915054906101000a900460ff1681565b6000809054906101000a900473ffffffffffffffffffffffffffffffffffffffff1673ffffffffffffffffffffffffffffffffffffffff163373ffffffffffffffffffffffffffffffffffffffff1614151561183457600080fd5b600073ffffffffffffffffffffffffffffffffffffffff168173ffffffffffffffffffffffffffffffffffffffff161415151561187057600080fd5b8073ffffffffffffffffffffffffffffffffffffffff166000809054906101000a900473ffffffffffffffffffffffffffffffffffffffff1673ffffffffffffffffffffffffffffffffffffffff167f8be0079c531659141344cd1fd0a4f28419497f9722a3daafe3b4186f6b6457e060405160405180910390a3806000806101000a81548173ffffffffffffffffffffffffffffffffffffffff021916908373ffffffffffffffffffffffffffffffffffffffff16021790555050565b61199d81600660008673ffffffffffffffffffffffffffffffffffffffff1673ffffffffffffffffffffffffffffffffffffffff16815260200190815260200160002060008563ffffffff1663ffffffff1681526020019081526020016000205461210a90919063ffffffff16565b600660008573ffffffffffffffffffffffffffffffffffffffff1673ffffffffffffffffffffffffffffffffffffffff16815260200190815260200160002060008463ffffffff1663ffffffff16815260200190815260200160002081905550505050565b6000806000600360008660001916600019168152602001908152602001600020600201546003600086600019166000191681526020019081526020016000206002015403600a0a600360008660001916600019168152602001908152602001600020600101540290506002816003600088600019166000191681526020019081526020016000206001015401811515611a9757fe5b046003600087600019166000191681526020019081526020016000206002015492509250509250929050565b600080600080611b11600360008a6000191660001916815260200190815260200160002060030154600360008b6000191660001916815260200190815260200160002060040154600c611c86565b9150611b5d60036000896000191660001916815260200190815260200160002060030154600360008a60001916600019168152602001908152602001600020600401548888600c611c12565b905080821015611bc4578560c8600360008b600019166000191681526020019081526020016000206003015402811515611b9357fe5b0485600c601a600360008d600019166000191681526020019081526020016000206004015401010393509350611c07565b6003600088600019166000191681526020019081526020016000206003015460036000896000191660001916815260200190815260200160002060040154935093505b505094509492505050565b600080600080600060028860058c02020293508587019250603691506000891215611c44578860000382019150611c4a565b88830192505b8183101515611c6257818303600a0a84029050611c76565b828203600a0a84811515611c7257fe5b0490505b8094505050505095945050505050565b600080600080866002029250849150600d90506000861215611caf578560000381019050611cb5565b85820191505b8082101515611ccd57808203600a0a83029350611ce1565b818103600a0a83811515611cdd57fe5b0493505b5050509392505050565b611cf686848461192e565b611d0185858361192e565b611d0c858484611e85565b611d17868583611e85565b7fe6d64cac65c05a9715c20bfc2ed8851bfe1c155b6cd1ee42d313d0880fc48b9f86868585604051808573ffffffffffffffffffffffffffffffffffffffff1673ffffffffffffffffffffffffffffffffffffffff1681526020018473ffffffffffffffffffffffffffffffffffffffff1673ffffffffffffffffffffffffffffffffffffffff1681526020018363ffffffff1663ffffffff16815260200182815260200194505050505060405180910390a17fe6d64cac65c05a9715c20bfc2ed8851bfe1c155b6cd1ee42d313d0880fc48b9f85878684604051808573ffffffffffffffffffffffffffffffffffffffff1673ffffffffffffffffffffffffffffffffffffffff1681526020018473ffffffffffffffffffffffffffffffffffffffff1673ffffffffffffffffffffffffffffffffffffffff1681526020018363ffffffff1663ffffffff16815260200182815260200194505050505060405180910390a1505050505050565b600560008473ffffffffffffffffffffffffffffffffffffffff1673ffffffffffffffffffffffffffffffffffffffff16815260200190815260200160002060008363ffffffff1663ffffffff16815260200190815260200160002060009054906101000a900460ff161515612036576001600560008573ffffffffffffffffffffffffffffffffffffffff1673ffffffffffffffffffffffffffffffffffffffff16815260200190815260200160002060008463ffffffff1663ffffffff16815260200190815260200160002060006101000a81548160ff021916908315150217905550600460008473ffffffffffffffffffffffffffffffffffffffff1673ffffffffffffffffffffffffffffffffffffffff16815260200190815260200160002082908060018154018082558091505090600182039060005260206000209060089182820401919006600402909192909190916101000a81548163ffffffff021916908363ffffffff160217905550507f1d049bc0bbb6256edd7c8cf50e3e790093e0ca601b2152275b4e46ab1185960282604051808263ffffffff16815260200191505060405180910390a15b6120a581600660008673ffffffffffffffffffffffffffffffffffffffff1673ffffffffffffffffffffffffffffffffffffffff16815260200190815260200160002060008563ffffffff1663ffffffff1681526020019081526020016000205461212390919063ffffffff16565b600660008573ffffffffffffffffffffffffffffffffffffffff1673ffffffffffffffffffffffffffffffffffffffff16815260200190815260200160002060008463ffffffff1663ffffffff16815260200190815260200160002081905550505050565b600082821115151561211857fe5b818303905092915050565b600080828401905083811015151561213757fe5b8091505092915050565b61016060405190810160405280600060ff168152602001600060ff168152602001600067ffffffffffffffff168152602001600067ffffffffffffffff1681526020016000815260200160008152602001600081526020016000815260200160008152602001600081526020016000815250905600a165627a7a72305820c8377e462c579e8df84c570a7447ac987700e4ed0638e2174d03a05ed8410f020029",
  "source": "pragma solidity ^0.4.24;\n\n// pragma experimental ABIEncoderV2;\n\nimport \"zeppelin-solidity/contracts/token/ERC20/ERC20.sol\";\nimport \"zeppelin-solidity/contracts/math/SafeMath.sol\";\nimport \"zeppelin-solidity/contracts/ownership/Ownable.sol\";\n\nimport \"./RenLedger.sol\";\n\ncontract TraderAccounts is Ownable {\n    using SafeMath for uint256;\n\n    RenLedger ledger;\n\n    enum OrderType {Midpoint, Limit}\n    enum OrderParity {Buy, Sell}\n\n    // TODO: Use same constant instance across all contracts \n    address ETH = 0x0;\n\n    struct Order {\n        uint8 parity;\n        uint8 orderType;\n        uint64 expiry;\n        uint64 tokens;        \n        uint256 priceC; uint256 priceQ;\n        uint256 volumeC; uint256 volumeQ;\n        uint256 minimumVolumeC; uint256 minimumVolumeQ;\n        uint256 nonceHash;\n    }\n\n    event Deposit(address trader, uint32 token, uint256 value);\n    event Withdraw(address trader, uint32 token, uint256 value);\n    event Transfer(address from, address to, uint32 token, uint256 value);\n    event Debug256(uint256 num);\n    event Debugi256(int256 num);\n    event Debug(string msg);\n\n    mapping(bytes32 => Order) private orders;\n\n    mapping(address => uint32[]) private traderTokens;\n    mapping(address => mapping(uint32 => bool)) private activeTraderToken;\n    mapping(address => mapping(uint32 => uint256)) private balances;\n\n    mapping(uint32 => ERC20) public tokenAddresses;\n    mapping(uint32 => uint8) public tokenDecimals;\n    mapping(uint32 => bool) public tokenEnabled;\n    \n    // CONSTRUCTOR //\n\n    constructor(RenLedger _ledger) public {\n        ledger = _ledger;\n    }\n\n\n    // Contract Registry //\n    modifier onlyEnabledToken(uint32 _tokenCode) {\n        require(tokenEnabled[_tokenCode]);\n        _;\n    }\n\n    function registerToken(uint32 _tokenCode, ERC20 _tokenAddress, uint8 _tokenDecimals) public onlyOwner {\n        tokenAddresses[_tokenCode] = _tokenAddress;\n        tokenDecimals[_tokenCode] = _tokenDecimals;\n        tokenEnabled[_tokenCode] = true;\n    }\n\n    function deregisterToken(uint32 _tokenCode) public onlyOwner {\n        tokenEnabled[_tokenCode] = false;\n    }\n\n\n\n    // PRIVATE functions //\n    \n    function incrementBalance(address _trader, uint32 _tokenCode, uint256 _value) private {\n        // Check if it's the first time the trader\n        if (!activeTraderToken[_trader][_tokenCode]) {\n            activeTraderToken[_trader][_tokenCode] = true;\n            traderTokens[_trader].push(_tokenCode);\n            emit Debug256(_tokenCode);\n        }\n\n        balances[_trader][_tokenCode] = balances[_trader][_tokenCode].add(_value);\n    }\n\n    function decrementBalance(address _trader, uint32 _tokenCode, uint256 _value) private {\n        balances[_trader][_tokenCode] = balances[_trader][_tokenCode].sub(_value);\n    }\n\n\n\n\n    // Trader functions //\n\n    function deposit(uint32 _tokenCode, uint256 _value) payable public onlyEnabledToken(_tokenCode) {\n        address trader = msg.sender;\n\n        ERC20 token = tokenAddresses[_tokenCode];\n\n        if (address(token) == ETH) {\n            require(msg.value == _value);\n        } else {\n            require(token.transferFrom(trader, this, _value));\n        }\n        incrementBalance(trader, _tokenCode, _value);\n\n        emit Deposit(trader, _tokenCode, _value);\n    }\n\n    function withdraw(uint32 _tokenCode, uint256 _value) public {\n        address trader = msg.sender;\n\n        ERC20 token = tokenAddresses[_tokenCode];\n\n        decrementBalance(trader, _tokenCode, _value);\n        if (address(token) == ETH) {\n            trader.transfer(_value);\n        } else {\n            require(token.transfer(trader, _value));\n        }\n\n        emit Withdraw(trader, _tokenCode, _value);\n    }\n\n    function getBalance(address _trader, uint32 _tokenCode) public view returns (uint256) {    \n        return balances[_trader][_tokenCode];\n    }\n\n    function getTokens(address _trader) public view returns (uint32[]) {\n        return traderTokens[_trader];\n    }\n\n    function getBalances(address _trader) public view returns (uint32[], uint256[]) {\n        uint32[] memory tokens = getTokens(_trader);\n        uint256[] memory traderBalances = new uint256[](tokens.length);\n\n        for (uint256 i = 0; i < tokens.length; i++) {\n            traderBalances[i] = getBalance(_trader, tokens[i]);\n        }\n\n        return (tokens, traderBalances);\n    }\n\n\n\n    // Price/volume calculation functions\n\n    function priceMidPoint(bytes32 buyID, bytes32 sellID) private view returns (uint256, uint256) {\n        // Normalize to same exponent before finding mid-point (mean)\n        uint256 norm = orders[sellID].priceC * 10 ** (orders[sellID].priceQ - orders[buyID].priceQ);\n        return ((orders[buyID].priceC + norm) / 2, orders[buyID].priceQ);\n    }\n\n    function minimumVolume(bytes32 buyID, bytes32 sellID, uint256 priceC, uint256 priceQ) private view returns (uint256, int256) {        \n        uint256 buyV = tupleToVolume(orders[buyID].volumeC, int256(orders[buyID].volumeQ), 12);\n        uint256 sellV = tupleToScaledVolume(orders[sellID].volumeC, int256(orders[sellID].volumeQ), priceC, priceQ, 12);\n\n        if (buyV < sellV) {\n            // TODO: Optimize this process, divide above\n            return (orders[buyID].volumeC * 200 / priceC, int256(orders[buyID].volumeQ + 26 + 12) - int256(priceQ));\n        } else {\n            return (orders[sellID].volumeC, int256(orders[sellID].volumeQ));\n        }\n    }\n\n    function tupleToScaledVolume(uint256 volC, int256 volQ, uint256 priceC, uint256 priceQ, uint256 decimals)\n    private pure returns (uint256) {\n        // 0.2 turns into 2 * 10**-1 (-1 moved to exponent)\n        // 0.005 turns into 5 * 10**-3 (-3 moved to exponent)\n        uint256 c = volC * 5 * priceC * 2;\n\n        // Positive and negative components of exponent\n        uint256 ep = priceQ + decimals;\n        uint256 en = 26 + 12 + 3 + 12 + 1;\n        // Add volQ to positive or negative component based on its sign\n        if (volQ < 0) {\n            en += uint256(-volQ);\n        } else {\n            ep += uint256(volQ);\n        }\n\n        // If (ep-en) is negative, divide instead of multiplying\n        uint256 value;\n        if (ep >= en) {\n            value = c * 10 ** (ep - en);\n        } else {\n            value = c / 10 ** (en - ep);            \n        }\n\n        return value;\n    }\n\n    // function tupleToPrice(uint256 priceC, uint256 priceQ) pure public returns (uint256) {\n    //     // 0.005 turns into 5 * 10**-3 (-3 moved to exponent)\n    //     uint256 c = 5 * priceC;\n\n    //     // Positive and negative components of exponent        \n    //     uint256 ep = priceQ + 8;\n    //     uint256 en = 26 + 3 + 12;\n\n    //     // If (ep-en) is negative, divide instead of multiplying        \n    //     if (ep >= en) {\n    //         return c * 10 ** (ep - en);\n    //     } else {\n    //         return c / 10 ** (en - ep);\n    //     }\n    // }\n\n    function tupleToVolume(uint256 volC, int256 volQ, uint256 decimals) private pure returns (uint256) {\n        // 0.2 turns into 2 * 10**-1 (-1 moved to exponent)\n        uint256 c = 2 * volC;\n\n        // Positive and negative components of exponent                \n        uint256 ep = decimals;\n        uint256 en = 12 + 1;\n        // Add volQ to positive or negative component based on its sign        \n        if (volQ < 0) {\n            en += uint256(-volQ);\n        } else {\n            ep += uint256(volQ);\n        }\n\n        // If (ep-en) is negative, divide instead of multiplying                \n        if (ep >= en) {\n            return c * 10 ** (ep - en);\n        } else {\n            return c / 10 ** (en - ep);\n        }\n    }\n\n    // Ensure this remains private\n    function finalizeMatch(\n        address buyer, address seller,\n        uint32 buyToken, uint32 sellToken,\n        uint256 lowTokenValue, uint256 highTokenValue\n    ) private {\n        // Subtract values\n        decrementBalance(buyer, sellToken, lowTokenValue);\n        decrementBalance(seller, buyToken, highTokenValue);\n\n        // Add values\n        incrementBalance(seller, sellToken, lowTokenValue);\n        incrementBalance(buyer, buyToken, highTokenValue);\n\n        emit Transfer(buyer, seller, sellToken, lowTokenValue);\n        emit Transfer(seller, buyer, buyToken, highTokenValue);\n    }\n\n\n\n    // // Not used yet\n    // function hashOrder(Order order) private pure returns (bytes32) {\n    //     return keccak256(\n    //         abi.encodePacked(\n    //             order.orderType,\n    //             order.parity,\n    //             order.expiry,\n    //             order.tokens,\n    //             order.priceC, order.priceQ,\n    //             order.volumeC, order.volumeQ,\n    //             order.minimumVolumeC, order.minimumVolumeQ,\n    //             order.nonceHash\n    //         )\n    //     );\n    // }\n\n\n\n\n    function submitOrder(\n        bytes32 id,\n        uint8 orderType,\n        uint8 parity,\n        uint64 expiry,\n        uint64 tokens,\n        uint16 priceC, uint16 priceQ,\n        uint16 volumeC, uint16 volumeQ,\n        uint16 minimumVolumeC, uint16 minimumVolumeQ,\n        uint256 nonceHash\n    ) public {\n\n        Order memory order = Order({\n            orderType: orderType,\n            parity: parity,\n            expiry: expiry,\n            tokens: tokens,\n            priceC: priceC, priceQ: priceQ,\n            volumeC: volumeC, volumeQ: volumeQ,\n            minimumVolumeC: minimumVolumeC, minimumVolumeQ: minimumVolumeQ,\n            nonceHash: nonceHash\n        });\n\n        // FIXME: Implement order hashing\n        // bytes32 id = hashOrder(order);\n\n        orders[id] = order;\n    }\n\n\n    function submitMatch(bytes32 buyID, bytes32 sellID) public {\n        // TODO: Verify order match\n\n        // Require that the orders are confirmed to one another\n        require(orders[buyID].parity == uint8(OrderParity.Buy));\n        require(orders[sellID].parity == uint8(OrderParity.Sell));\n        require(ledger.orderState(buyID) == 2);\n        require(ledger.orderState(sellID) == 2);\n        \n        // TODO: Loop through and check at all indices\n        require(ledger.orderMatch(buyID)[0] == sellID);\n\n        address buyer = ledger.orderTrader(buyID);\n        address seller = ledger.orderTrader(sellID);\n\n        uint32 buyToken = uint32(orders[sellID].tokens);\n        uint32 sellToken = uint32(orders[sellID].tokens >> 32);\n\n        // Price midpoint\n        (uint256 midPriceC, uint256 midPriceQ) = priceMidPoint(buyID, sellID);\n        \n        (uint256 minVolC, int256 minVolQ) = minimumVolume(buyID, sellID, midPriceC, midPriceQ);\n\n        uint256 lowTokenValue = tupleToScaledVolume(minVolC, minVolQ, midPriceC, midPriceQ, tokenDecimals[sellToken]);\n\n        uint256 highTokenValue = tupleToVolume(minVolC, minVolQ, tokenDecimals[buyToken]);\n\n        finalizeMatch(buyer, seller, buyToken, sellToken, lowTokenValue, highTokenValue);\n    }\n\n}",
  "sourcePath": "/home/noah/github/republicprotocol/republic-sol/contracts/TraderAccounts.sol",
  "compiler": {
    "name": "solc",
    "version": "0.4.24+commit.e67f0147.Emscripten.clang"
  },
  "schemaVersion": "2.0.0",
  "updatedAt": "2018-06-01T07:04:30.450Z"
}