{
  "contractName": "TraderRegistry",
  "abi": [
    {
      "constant": true,
      "inputs": [
        {
          "name": "",
          "type": "bytes20"
        }
      ],
      "name": "traders",
      "outputs": [
        {
          "name": "owner",
          "type": "address"
        },
        {
          "name": "bond",
          "type": "uint256"
        },
        {
          "name": "publicKey",
          "type": "bytes"
        },
        {
          "name": "registered",
          "type": "bool"
        }
      ],
      "payable": false,
      "stateMutability": "view",
      "type": "function"
    },
    {
      "constant": true,
      "inputs": [],
      "name": "minimumBond",
      "outputs": [
        {
          "name": "",
          "type": "uint256"
        }
      ],
      "payable": false,
      "stateMutability": "view",
      "type": "function"
    },
    {
      "constant": true,
      "inputs": [
        {
          "name": "",
          "type": "address"
        }
      ],
      "name": "pendingRefunds",
      "outputs": [
        {
          "name": "",
          "type": "uint256"
        }
      ],
      "payable": false,
      "stateMutability": "view",
      "type": "function"
    },
    {
      "constant": true,
      "inputs": [],
      "name": "numberOfTraders",
      "outputs": [
        {
          "name": "",
          "type": "uint256"
        }
      ],
      "payable": false,
      "stateMutability": "view",
      "type": "function"
    },
    {
      "inputs": [
        {
          "name": "_renAddress",
          "type": "address"
        },
        {
          "name": "_minimumBond",
          "type": "uint256"
        }
      ],
      "payable": false,
      "stateMutability": "nonpayable",
      "type": "constructor"
    },
    {
      "anonymous": false,
      "inputs": [
        {
          "indexed": false,
          "name": "_traderID",
          "type": "bytes20"
        },
        {
          "indexed": false,
          "name": "_bond",
          "type": "uint256"
        }
      ],
      "name": "TraderRegistered",
      "type": "event"
    },
    {
      "anonymous": false,
      "inputs": [
        {
          "indexed": false,
          "name": "_traderID",
          "type": "bytes20"
        }
      ],
      "name": "TraderDeregistered",
      "type": "event"
    },
    {
      "anonymous": false,
      "inputs": [
        {
          "indexed": false,
          "name": "_owner",
          "type": "address"
        },
        {
          "indexed": false,
          "name": "_amount",
          "type": "uint256"
        }
      ],
      "name": "OwnerRefunded",
      "type": "event"
    },
    {
      "constant": false,
      "inputs": [
        {
          "name": "_traderID",
          "type": "bytes20"
        },
        {
          "name": "_publicKey",
          "type": "bytes"
        },
        {
          "name": "_bond",
          "type": "uint256"
        }
      ],
      "name": "register",
      "outputs": [],
      "payable": false,
      "stateMutability": "nonpayable",
      "type": "function"
    },
    {
      "constant": false,
      "inputs": [
        {
          "name": "_traderID",
          "type": "bytes20"
        }
      ],
      "name": "deregister",
      "outputs": [],
      "payable": false,
      "stateMutability": "nonpayable",
      "type": "function"
    },
    {
      "constant": false,
      "inputs": [],
      "name": "refund",
      "outputs": [],
      "payable": false,
      "stateMutability": "nonpayable",
      "type": "function"
    },
    {
      "constant": true,
      "inputs": [
        {
          "name": "_traderID",
          "type": "bytes20"
        }
      ],
      "name": "getTrader",
      "outputs": [
        {
          "name": "",
          "type": "address"
        },
        {
          "name": "",
          "type": "uint256"
        },
        {
          "name": "",
          "type": "bytes"
        },
        {
          "name": "",
          "type": "bool"
        }
      ],
      "payable": false,
      "stateMutability": "view",
      "type": "function"
    },
    {
      "constant": true,
      "inputs": [],
      "name": "getNumberOfTraders",
      "outputs": [
        {
          "name": "",
          "type": "uint256"
        }
      ],
      "payable": false,
      "stateMutability": "view",
      "type": "function"
    },
    {
      "constant": true,
      "inputs": [
        {
          "name": "_traderID",
          "type": "bytes20"
        }
      ],
      "name": "getOwner",
      "outputs": [
        {
          "name": "",
          "type": "address"
        }
      ],
      "payable": false,
      "stateMutability": "view",
      "type": "function"
    },
    {
      "constant": true,
      "inputs": [
        {
          "name": "_traderID",
          "type": "bytes20"
        }
      ],
      "name": "getBond",
      "outputs": [
        {
          "name": "",
          "type": "uint256"
        }
      ],
      "payable": false,
      "stateMutability": "view",
      "type": "function"
    },
    {
      "constant": true,
      "inputs": [
        {
          "name": "_traderID",
          "type": "bytes20"
        }
      ],
      "name": "getPublicKey",
      "outputs": [
        {
          "name": "",
          "type": "bytes"
        }
      ],
      "payable": false,
      "stateMutability": "view",
      "type": "function"
    }
  ],
  "bytecode": "0x608060405234801561001057600080fd5b5060405160408061157d8339810180604052810190808051906020019092919080519060200190929190505050816000806101000a81548173ffffffffffffffffffffffffffffffffffffffff021916908373ffffffffffffffffffffffffffffffffffffffff1602179055508060038190555050506114e8806100956000396000f3006080604052600436106100ba576000357c0100000000000000000000000000000000000000000000000000000000900463ffffffff1680631caa9740146100bf57806332ccd52f146101b9578063375a8be31461026e578063590e1ae3146102fa57806361554c4c1461031157806368f209eb1461033c5780638c779e341461038c578063aa7517e114610486578063b613b114146104b1578063d8d3996114610508578063e08b4c8a14610533578063e487eb581461056f575b600080fd5b3480156100cb57600080fd5b506100f960048036038101908080356bffffffffffffffffffffffff191690602001909291905050506105eb565b604051808573ffffffffffffffffffffffffffffffffffffffff1673ffffffffffffffffffffffffffffffffffffffff1681526020018481526020018060200183151515158152602001828103825284818151815260200191508051906020019080838360005b8381101561017b578082015181840152602081019050610160565b50505050905090810190601f1680156101a85780820380516001836020036101000a031916815260200191505b509550505050505060405180910390f35b3480156101c557600080fd5b506101f360048036038101908080356bffffffffffffffffffffffff191690602001909291905050506106e0565b6040518080602001828103825283818151815260200191508051906020019080838360005b83811015610233578082015181840152602081019050610218565b50505050905090810190601f1680156102605780820380516001836020036101000a031916815260200191505b509250505060405180910390f35b34801561027a57600080fd5b506102f860048036038101908080356bffffffffffffffffffffffff19169060200190929190803590602001908201803590602001908080601f0160208091040260200160405190810160405280939291908181526020018383808284378201915050505050509192919290803590602001909291905050506107b6565b005b34801561030657600080fd5b5061030f610bff565b005b34801561031d57600080fd5b50610326610e0f565b6040518082815260200191505060405180910390f35b34801561034857600080fd5b5061037660048036038101908080356bffffffffffffffffffffffff19169060200190929190505050610e19565b6040518082815260200191505060405180910390f35b34801561039857600080fd5b506103c660048036038101908080356bffffffffffffffffffffffff19169060200190929190505050610e57565b604051808573ffffffffffffffffffffffffffffffffffffffff1673ffffffffffffffffffffffffffffffffffffffff1681526020018481526020018060200183151515158152602001828103825284818151815260200191508051906020019080838360005b8381101561044857808201518184015260208101905061042d565b50505050905090810190601f1680156104755780820380516001836020036101000a031916815260200191505b509550505050505060405180910390f35b34801561049257600080fd5b5061049b611009565b6040518082815260200191505060405180910390f35b3480156104bd57600080fd5b506104f2600480360381019080803573ffffffffffffffffffffffffffffffffffffffff16906020019092919050505061100f565b6040518082815260200191505060405180910390f35b34801561051457600080fd5b5061051d611027565b6040518082815260200191505060405180910390f35b34801561053f57600080fd5b5061056d60048036038101908080356bffffffffffffffffffffffff1916906020019092919050505061102d565b005b34801561057b57600080fd5b506105a960048036038101908080356bffffffffffffffffffffffff19169060200190929190505050611339565b604051808273ffffffffffffffffffffffffffffffffffffffff1673ffffffffffffffffffffffffffffffffffffffff16815260200191505060405180910390f35b60016020528060005260406000206000915090508060000160009054906101000a900473ffffffffffffffffffffffffffffffffffffffff1690806001015490806002018054600181600116156101000203166002900480601f0160208091040260200160405190810160405280929190818152602001828054600181600116156101000203166002900480156106c35780601f10610698576101008083540402835291602001916106c3565b820191906000526020600020905b8154815290600101906020018083116106a657829003601f168201915b5050505050908060030160009054906101000a900460ff16905084565b606060016000836bffffffffffffffffffffffff19166bffffffffffffffffffffffff191681526020019081526020016000206002018054600181600116156101000203166002900480601f0160208091040260200160405190810160405280929190818152602001828054600181600116156101000203166002900480156107aa5780601f1061077f576101008083540402835291602001916107aa565b820191906000526020600020905b81548152906001019060200180831161078d57829003601f168201915b50505050509050919050565b8260016000826bffffffffffffffffffffffff19166bffffffffffffffffffffffff1916815260200190815260200160002060030160009054906101000a900460ff1615151561080557600080fd5b600354821015151561081657600080fd5b6000809054906101000a900473ffffffffffffffffffffffffffffffffffffffff1673ffffffffffffffffffffffffffffffffffffffff1663dd62ed3e33306040518363ffffffff167c0100000000000000000000000000000000000000000000000000000000028152600401808373ffffffffffffffffffffffffffffffffffffffff1673ffffffffffffffffffffffffffffffffffffffff1681526020018273ffffffffffffffffffffffffffffffffffffffff1673ffffffffffffffffffffffffffffffffffffffff16815260200192505050602060405180830381600087803b15801561090657600080fd5b505af115801561091a573d6000803e3d6000fd5b505050506040513d602081101561093057600080fd5b8101908080519060200190929190505050821115151561094f57600080fd5b6000809054906101000a900473ffffffffffffffffffffffffffffffffffffffff1673ffffffffffffffffffffffffffffffffffffffff166323b872dd3330856040518463ffffffff167c0100000000000000000000000000000000000000000000000000000000028152600401808473ffffffffffffffffffffffffffffffffffffffff1673ffffffffffffffffffffffffffffffffffffffff1681526020018373ffffffffffffffffffffffffffffffffffffffff1673ffffffffffffffffffffffffffffffffffffffff1681526020018281526020019350505050602060405180830381600087803b158015610a4757600080fd5b505af1158015610a5b573d6000803e3d6000fd5b505050506040513d6020811015610a7157600080fd5b81019080805190602001909291905050501515610a8d57600080fd5b6080604051908101604052803373ffffffffffffffffffffffffffffffffffffffff1681526020018381526020018481526020016001151581525060016000866bffffffffffffffffffffffff19166bffffffffffffffffffffffff1916815260200190815260200160002060008201518160000160006101000a81548173ffffffffffffffffffffffffffffffffffffffff021916908373ffffffffffffffffffffffffffffffffffffffff160217905550602082015181600101556040820151816002019080519060200190610b66929190611397565b5060608201518160030160006101000a81548160ff0219169083151502179055509050506002600081548092919060010191905055507f32a153c251f4b436278e71b7b8b6dcf076eb32a5149764fb5e234e6e0d70adeb848360405180836bffffffffffffffffffffffff19166bffffffffffffffffffffffff191681526020018281526020019250505060405180910390a150505050565b6000600460003373ffffffffffffffffffffffffffffffffffffffff1673ffffffffffffffffffffffffffffffffffffffff168152602001908152602001600020549050600081111515610c5257600080fd5b6000600460003373ffffffffffffffffffffffffffffffffffffffff1673ffffffffffffffffffffffffffffffffffffffff168152602001908152602001600020819055506000809054906101000a900473ffffffffffffffffffffffffffffffffffffffff1673ffffffffffffffffffffffffffffffffffffffff1663a9059cbb33836040518363ffffffff167c0100000000000000000000000000000000000000000000000000000000028152600401808373ffffffffffffffffffffffffffffffffffffffff1673ffffffffffffffffffffffffffffffffffffffff16815260200182815260200192505050602060405180830381600087803b158015610d5b57600080fd5b505af1158015610d6f573d6000803e3d6000fd5b505050506040513d6020811015610d8557600080fd5b81019080805190602001909291905050501515610da157600080fd5b7f8dce8f4eb4097fbdf948a109703513f52a7fabcc7e328ba7f29ad8165033e9533382604051808373ffffffffffffffffffffffffffffffffffffffff1673ffffffffffffffffffffffffffffffffffffffff1681526020018281526020019250505060405180910390a150565b6000600254905090565b600060016000836bffffffffffffffffffffffff19166bffffffffffffffffffffffff19168152602001908152602001600020600101549050919050565b6000806060600060016000866bffffffffffffffffffffffff19166bffffffffffffffffffffffff1916815260200190815260200160002060000160009054906101000a900473ffffffffffffffffffffffffffffffffffffffff1660016000876bffffffffffffffffffffffff19166bffffffffffffffffffffffff191681526020019081526020016000206001015460016000886bffffffffffffffffffffffff19166bffffffffffffffffffffffff1916815260200190815260200160002060020160016000896bffffffffffffffffffffffff19166bffffffffffffffffffffffff1916815260200190815260200160002060030160009054906101000a900460ff16818054600181600116156101000203166002900480601f016020809104026020016040519081016040528092919081815260200182805460018160011615610100020316600290048015610ff35780601f10610fc857610100808354040283529160200191610ff3565b820191906000526020600020905b815481529060010190602001808311610fd657829003601f168201915b5050505050915093509350935093509193509193565b60035481565b60046020528060005260406000206000915090505481565b60025481565b803373ffffffffffffffffffffffffffffffffffffffff1660016000836bffffffffffffffffffffffff19166bffffffffffffffffffffffff1916815260200190815260200160002060000160009054906101000a900473ffffffffffffffffffffffffffffffffffffffff1673ffffffffffffffffffffffffffffffffffffffff161415156110bc57600080fd5b8160016000826bffffffffffffffffffffffff19166bffffffffffffffffffffffff1916815260200190815260200160002060030160009054906101000a900460ff16151561110a57600080fd5b60016000846bffffffffffffffffffffffff19166bffffffffffffffffffffffff1916815260200190815260200160002060010154600460003373ffffffffffffffffffffffffffffffffffffffff1673ffffffffffffffffffffffffffffffffffffffff16815260200190815260200160002060008282540192505081905550600060016000856bffffffffffffffffffffffff19166bffffffffffffffffffffffff1916815260200190815260200160002060000160006101000a81548173ffffffffffffffffffffffffffffffffffffffff021916908373ffffffffffffffffffffffffffffffffffffffff160217905550600060016000856bffffffffffffffffffffffff19166bffffffffffffffffffffffff1916815260200190815260200160002060010181905550602060405190810160405280600081525060016000856bffffffffffffffffffffffff19166bffffffffffffffffffffffff191681526020019081526020016000206002019080519060200190611291929190611417565b50600060016000856bffffffffffffffffffffffff19166bffffffffffffffffffffffff1916815260200190815260200160002060030160006101000a81548160ff0219169083151502179055507fab0d100578448bb31d0fe2b57226a2d4821304eefb116c78a19da71c8f41bbe48360405180826bffffffffffffffffffffffff19166bffffffffffffffffffffffff1916815260200191505060405180910390a1505050565b600060016000836bffffffffffffffffffffffff19166bffffffffffffffffffffffff1916815260200190815260200160002060000160009054906101000a900473ffffffffffffffffffffffffffffffffffffffff169050919050565b828054600181600116156101000203166002900490600052602060002090601f016020900481019282601f106113d857805160ff1916838001178555611406565b82800160010185558215611406579182015b828111156114055782518255916020019190600101906113ea565b5b5090506114139190611497565b5090565b828054600181600116156101000203166002900490600052602060002090601f016020900481019282601f1061145857805160ff1916838001178555611486565b82800160010185558215611486579182015b8281111561148557825182559160200191906001019061146a565b5b5090506114939190611497565b5090565b6114b991905b808211156114b557600081600090555060010161149d565b5090565b905600a165627a7a72305820d11743f81e09e643f0092982cbdde11b74e0ffd71c1c493846c2897e520f36c30029",
  "source": "pragma solidity ^0.4.24;\n\nimport \"./RepublicToken.sol\";\n\ncontract TraderRegistry {\n\n    /**\n    * @notice Traders are stored in the registry. The owner is the address that\n    * registered the trader, the bond is the amount of REN that was transferred\n    * during registration, and the public key is the encryption key that should\n    * be used when sending sensitive information to the trader.\n    */\n    struct Trader {\n        address owner;\n        uint256 bond;\n        bytes publicKey;\n        bool registered;\n    }\n\n    // Republic ERC20 token contract used to transfer bonds.\n    RepublicToken ren;\n\n    // Registry data.\n    mapping(bytes20 => Trader) public traders;\n    uint256 public numberOfTraders;\n\n    // Minimum bond to be considered registered.\n    uint256 public minimumBond;\n\n    // Refunable amounts of REN.\n    mapping(address => uint256) public pendingRefunds;\n\n    /**\n    * @notice Emitted when a trader is registered.\n    * \n    * @param _traderID The trader ID that was registered.\n    * @param _bond The amount of REN that was transferred as bond.\n    */\n    event TraderRegistered(bytes20 _traderID, uint256 _bond);\n\n    /**\n    * @notice Emitted when a trader is deregistered.\n    * \n    * @param _traderID The trader ID that was deregistered.\n    */\n    event TraderDeregistered(bytes20 _traderID);\n\n    /**\n    * @notice Emitted when a refund has been made.\n    *\n    * @param _owner The address that was refunded.\n    * @param _amount The amount of REN that was refunded.\n    */\n    event OwnerRefunded(address _owner, uint256 _amount);\n\n    /**\n    * @notice Only allow the owner that registered the trader to pass.\n    */\n    modifier onlyOwner(bytes20 _traderID) {\n        require(traders[_traderID].owner == msg.sender);\n        _;\n    }\n\n    /**\n    * @notice Only allow unregisterd traders to pass.\n    */\n    modifier onlyUnregistered(bytes20 _traderID) {\n        require(!traders[_traderID].registered);\n        _;\n    }\n\n    /**\n    * @notice Only allow registered traders to pass.\n    */\n    modifier onlyRegistered(bytes20 _traderID) {\n        require(traders[_traderID].registered);\n        _;\n    }\n\n    /** \n    * @notice The TraderRegistry constructor.\n    *\n    * @param _renAddress The address of the Republic Token contract.\n    * @param _minimumBond The minimum bond amount that can be submitted by a\n    *                     trader.\n    */\n    constructor(address _renAddress, uint256 _minimumBond) public {\n        ren = RepublicToken(_renAddress);\n        minimumBond = _minimumBond;\n    }\n\n    /** \n    * @notice Register a trader and transfer the bond to this contract. The\n    * caller must provide the public key of the trader that will be registered.\n    * The bond must be provided in REN as an allowance and the entire allowance\n    * will be used.\n    *\n    * @param _traderID The trader ID that will be registered.\n    * @param _publicKey The public key of the trader. It is stored to allow other\n    *                   miners and traders to encrypt messages to the trader.\n    */\n    function register(bytes20 _traderID, bytes _publicKey, uint256 _bond) public onlyUnregistered(_traderID) {\n        // REN allowance is used as the bond.\n        require(_bond >= minimumBond);\n        require(_bond <= ren.allowance(msg.sender, this));\n\n\n        // Transfer the bond to this contract.\n        require(ren.transferFrom(msg.sender, this, _bond));\n\n        // Store this trader in the registry.\n        traders[_traderID] = Trader({\n            owner: msg.sender,\n            bond: _bond,\n            publicKey: _publicKey,\n            registered: true\n        });\n        numberOfTraders++;\n\n        // Emit an event.\n        emit TraderRegistered(_traderID, _bond);\n    }\n\n    /** \n    * @notice Deregister a trader and clear their bond for refunding. Only the\n    * owner of a trader can deregister the trader.\n    *\n    * @param _traderID The ID of the trader that will be deregistered. The\n    *                  caller must be the owner of this trader.\n    */\n    function deregister(bytes20 _traderID) public onlyOwner(_traderID) onlyRegistered(_traderID) {\n        // Setup a refund for the owner.\n        pendingRefunds[msg.sender] += traders[_traderID].bond;\n\n        // Zero the trader from the registry.\n        traders[_traderID].owner = 0;\n        traders[_traderID].bond = 0;\n        traders[_traderID].publicKey = \"\";\n        traders[_traderID].registered = false;\n\n        // Emit an event.\n        emit TraderDeregistered(_traderID);\n    }\n\n    /** \n    * @notice Refund all REN that has been cleared for refunding. Bonds are\n    * cleared for refunding when the respective trader is deregistered.\n    */\n    function refund() public {\n        // Ensure that the refund amount is greater than zero.\n        uint amount = pendingRefunds[msg.sender];\n        require(amount > 0);\n\n        // Refund the owner by transferring REN.\n        pendingRefunds[msg.sender] = 0;\n        require(ren.transfer(msg.sender, amount));\n\n        // Emit an event.\n        emit OwnerRefunded(msg.sender, amount);\n    }\n\n    function getTrader(bytes20 _traderID) public view returns (address, uint256, bytes, bool) {\n        return (traders[_traderID].owner, traders[_traderID].bond, traders[_traderID].publicKey, traders[_traderID].registered);\n    }\n\n    function getNumberOfTraders() public view returns (uint256) {\n        return numberOfTraders;\n    }\n\n    function getOwner(bytes20 _traderID) public view returns (address) {\n        return traders[_traderID].owner;\n    }\n\n    function getBond(bytes20 _traderID) public view returns (uint256) {\n        return traders[_traderID].bond;\n    }\n  \n    function getPublicKey(bytes20 _traderID) public view returns (bytes) {\n        return traders[_traderID].publicKey;\n    }\n}\n",
  "sourcePath": "/home/noah/github/republicprotocol/republic-sol/contracts/TraderRegistry.sol",
  "compiler": {
    "name": "solc",
    "version": "0.4.24+commit.e67f0147.Emscripten.clang"
  },
  "schemaVersion": "2.0.0",
  "updatedAt": "2018-06-01T00:22:01.371Z"
}