{
  "address": "0x388B58f74Fd2010e70418AE92aE090df9Ecaad8B",
  "abi": [
    {
      "anonymous": false,
      "inputs": [
        {
          "indexed": true,
          "internalType": "address",
          "name": "operatorAddress_",
          "type": "address"
        },
        {
          "indexed": false,
          "internalType": "string",
          "name": "assetSymbol_",
          "type": "string"
        },
        {
          "indexed": false,
          "internalType": "string",
          "name": "recipientAddress_",
          "type": "string"
        },
        {
          "indexed": false,
          "internalType": "string",
          "name": "recipientChain_",
          "type": "string"
        },
        {
          "indexed": false,
          "internalType": "bytes",
          "name": "recipientPayload_",
          "type": "bytes"
        },
        {
          "indexed": false,
          "internalType": "uint256",
          "name": "fractionInBps_",
          "type": "uint256"
        },
        {
          "indexed": true,
          "internalType": "string",
          "name": "assetSymbolIndexed_",
          "type": "string"
        },
        {
          "indexed": true,
          "internalType": "string",
          "name": "recipientAddressIndexed_",
          "type": "string"
        }
      ],
      "name": "LogClaimRewards",
      "type": "event"
    },
    {
      "inputs": [],
      "name": "BPS_DENOMINATOR",
      "outputs": [
        {
          "internalType": "uint256",
          "name": "",
          "type": "uint256"
        }
      ],
      "stateMutability": "view",
      "type": "function"
    },
    {
      "inputs": [
        {
          "internalType": "address",
          "name": "address_",
          "type": "address"
        }
      ],
      "name": "addressToString",
      "outputs": [
        {
          "internalType": "string",
          "name": "",
          "type": "string"
        }
      ],
      "stateMutability": "pure",
      "type": "function"
    },
    {
      "inputs": [
        {
          "internalType": "string",
          "name": "assetSymbol_",
          "type": "string"
        },
        {
          "internalType": "string",
          "name": "recipientAddress_",
          "type": "string"
        },
        {
          "internalType": "string",
          "name": "recipientChain_",
          "type": "string"
        },
        {
          "internalType": "bytes",
          "name": "recipientPayload_",
          "type": "bytes"
        },
        {
          "internalType": "uint256",
          "name": "fractionInBps_",
          "type": "uint256"
        }
      ],
      "name": "claimRewardsToChain",
      "outputs": [],
      "stateMutability": "nonpayable",
      "type": "function"
    },
    {
      "inputs": [
        {
          "internalType": "string",
          "name": "assetSymbol_",
          "type": "string"
        },
        {
          "internalType": "address",
          "name": "recipientAddress_",
          "type": "address"
        },
        {
          "internalType": "uint256",
          "name": "fractionInBps_",
          "type": "uint256"
        }
      ],
      "name": "claimRewardsToEthereum",
      "outputs": [],
      "stateMutability": "nonpayable",
      "type": "function"
    }
  ],
  "transactionHash": "0x4835f748c3b258b48ae6b6e79925ec6ba4de5058002e640b2477a6185522ccf5",
  "args": [],
  "solcInputHash": "1d1b33ebee20e0af945d784a55de102c",
  "bytecode": "0x608060405234801561001057600080fd5b50611296806100206000396000f3fe608060405234801561001057600080fd5b506004361061004c5760003560e01c80635e57966d14610051578063a430147f14610081578063ad42bdb01461009d578063e1a45218146100b9575b600080fd5b61006b60048036038101906100669190610869565b6100d7565b6040516100789190610bbd565b60405180910390f35b61009b60048036038101906100969190610896565b6103f6565b005b6100b760048036038101906100b29190610905565b610454565b005b6100c1610692565b6040516100ce9190610d0e565b60405180910390f35b60606000826040516020016100ec9190610b8b565b604051602081830303815290604052905060006040518060400160405280601081526020017f303132333435363738396162636465660000000000000000000000000000000081525090506000600283516101479190610e49565b60026101539190610df3565b67ffffffffffffffff81111561016c5761016b61101d565b5b6040519080825280601f01601f19166020018201604052801561019e5781602001600182028036833780820191505090505b5090507f3000000000000000000000000000000000000000000000000000000000000000816000815181106101d6576101d5610fee565b5b60200101907effffffffffffffffffffffffffffffffffffffffffffffffffffffffffffff1916908160001a9053507f78000000000000000000000000000000000000000000000000000000000000008160018151811061023a57610239610fee565b5b60200101907effffffffffffffffffffffffffffffffffffffffffffffffffffffffffffff1916908160001a90535060005b83518110156103ea5782600485838151811061028b5761028a610fee565b5b602001015160f81c60f81b7effffffffffffffffffffffffffffffffffffffffffffffffffffffffffffff1916901c60f81c60ff16815181106102d1576102d0610fee565b5b602001015160f81c60f81b826002836102ea9190610e49565b60026102f69190610df3565b8151811061030757610306610fee565b5b60200101907effffffffffffffffffffffffffffffffffffffffffffffffffffffffffffff1916908160001a90535082600f60f81b85838151811061034f5761034e610fee565b5b602001015160f81c60f81b1660f81c60ff168151811061037257610371610fee565b5b602001015160f81c60f81b8260028361038b9190610e49565b60036103979190610df3565b815181106103a8576103a7610fee565b5b60200101907effffffffffffffffffffffffffffffffffffffffffffffffffffffffffffff1916908160001a90535080806103e290610f52565b91505061026c565b50809350505050919050565b61044f83610403846100d7565b6040518060400160405280600881526020017f457468657265756d0000000000000000000000000000000000000000000000008152506040518060200160405280600081525085610454565b505050565b8061271081111561049a576040517f08c379a000000000000000000000000000000000000000000000000000000000815260040161049190610c4e565b60405180910390fd5b6104a386610698565b6104e2576040517f08c379a00000000000000000000000000000000000000000000000000000000081526004016104d990610c8e565b60405180910390fd5b6104eb866106a5565b61052a576040517f08c379a000000000000000000000000000000000000000000000000000000000815260040161052190610c6e565b60405180910390fd5b61053385610698565b610572576040517f08c379a000000000000000000000000000000000000000000000000000000000815260040161056990610cce565b60405180910390fd5b61057b856106a5565b6105ba576040517f08c379a00000000000000000000000000000000000000000000000000000000081526004016105b190610cee565b60405180910390fd5b6105c3846106a5565b610602576040517f08c379a00000000000000000000000000000000000000000000000000000000081526004016105f990610cae565b60405180910390fd5b6000339050856040516106159190610ba6565b60405180910390208760405161062b9190610ba6565b60405180910390208273ffffffffffffffffffffffffffffffffffffffff167ffdd1f0907500042d1105ddaf0e1811ccb6412b37936eda2427598ad72e0fdcbb8a8a8a8a8a604051610681959493929190610bdf565b60405180910390a450505050505050565b61271081565b6000808251119050919050565b600080600090505b82518110156107545760008382815181106106cb576106ca610fee565b5b602001015160f81c60f81b60f81c905060418160ff16101580156106f35750605a8160ff1611155b80610712575060618160ff16101580156107115750607a8160ff1611155b5b80610731575060308160ff1610158015610730575060398160ff1611155b5b6107405760009250505061075a565b50808061074c90610f52565b9150506106ad565b50600190505b919050565b600061077261076d84610d4e565b610d29565b90508281526020810184848401111561078e5761078d611051565b5b610799848285610edf565b509392505050565b60006107b46107af84610d7f565b610d29565b9050828152602081018484840111156107d0576107cf611051565b5b6107db848285610edf565b509392505050565b6000813590506107f281611232565b92915050565b600082601f83011261080d5761080c61104c565b5b813561081d84826020860161075f565b91505092915050565b600082601f83011261083b5761083a61104c565b5b813561084b8482602086016107a1565b91505092915050565b60008135905061086381611249565b92915050565b60006020828403121561087f5761087e61105b565b5b600061088d848285016107e3565b91505092915050565b6000806000606084860312156108af576108ae61105b565b5b600084013567ffffffffffffffff8111156108cd576108cc611056565b5b6108d986828701610826565b93505060206108ea868287016107e3565b92505060406108fb86828701610854565b9150509250925092565b600080600080600060a086880312156109215761092061105b565b5b600086013567ffffffffffffffff81111561093f5761093e611056565b5b61094b88828901610826565b955050602086013567ffffffffffffffff81111561096c5761096b611056565b5b61097888828901610826565b945050604086013567ffffffffffffffff81111561099957610998611056565b5b6109a588828901610826565b935050606086013567ffffffffffffffff8111156109c6576109c5611056565b5b6109d2888289016107f8565b92505060806109e388828901610854565b9150509295509295909350565b610a016109fc82610ea3565b610f9b565b82525050565b6000610a1282610db0565b610a1c8185610dc6565b9350610a2c818560208601610eee565b610a3581611060565b840191505092915050565b6000610a4b82610dbb565b610a558185610dd7565b9350610a65818560208601610eee565b610a6e81611060565b840191505092915050565b6000610a8482610dbb565b610a8e8185610de8565b9350610a9e818560208601610eee565b80840191505092915050565b6000610ab7602383610dd7565b9150610ac28261107e565b604082019050919050565b6000610ada601b83610dd7565b9150610ae5826110cd565b602082019050919050565b6000610afd602183610dd7565b9150610b08826110f6565b604082019050919050565b6000610b20602583610dd7565b9150610b2b82611145565b604082019050919050565b6000610b43602d83610dd7565b9150610b4e82611194565b604082019050919050565b6000610b66602783610dd7565b9150610b71826111e3565b604082019050919050565b610b8581610ed5565b82525050565b6000610b9782846109f0565b60148201915081905092915050565b6000610bb28284610a79565b915081905092915050565b60006020820190508181036000830152610bd78184610a40565b905092915050565b600060a0820190508181036000830152610bf98188610a40565b90508181036020830152610c0d8187610a40565b90508181036040830152610c218186610a40565b90508181036060830152610c358185610a07565b9050610c446080830184610b7c565b9695505050505050565b60006020820190508181036000830152610c6781610aaa565b9050919050565b60006020820190508181036000830152610c8781610acd565b9050919050565b60006020820190508181036000830152610ca781610af0565b9050919050565b60006020820190508181036000830152610cc781610b13565b9050919050565b60006020820190508181036000830152610ce781610b36565b9050919050565b60006020820190508181036000830152610d0781610b59565b9050919050565b6000602082019050610d236000830184610b7c565b92915050565b6000610d33610d44565b9050610d3f8282610f21565b919050565b6000604051905090565b600067ffffffffffffffff821115610d6957610d6861101d565b5b610d7282611060565b9050602081019050919050565b600067ffffffffffffffff821115610d9a57610d9961101d565b5b610da382611060565b9050602081019050919050565b600081519050919050565b600081519050919050565b600082825260208201905092915050565b600082825260208201905092915050565b600081905092915050565b6000610dfe82610ed5565b9150610e0983610ed5565b9250827fffffffffffffffffffffffffffffffffffffffffffffffffffffffffffffffff03821115610e3e57610e3d610fbf565b5b828201905092915050565b6000610e5482610ed5565b9150610e5f83610ed5565b9250817fffffffffffffffffffffffffffffffffffffffffffffffffffffffffffffffff0483118215151615610e9857610e97610fbf565b5b828202905092915050565b6000610eae82610eb5565b9050919050565b600073ffffffffffffffffffffffffffffffffffffffff82169050919050565b6000819050919050565b82818337600083830152505050565b60005b83811015610f0c578082015181840152602081019050610ef1565b83811115610f1b576000848401525b50505050565b610f2a82611060565b810181811067ffffffffffffffff82111715610f4957610f4861101d565b5b80604052505050565b6000610f5d82610ed5565b91507fffffffffffffffffffffffffffffffffffffffffffffffffffffffffffffffff821415610f9057610f8f610fbf565b5b600182019050919050565b6000610fa682610fad565b9050919050565b6000610fb882611071565b9050919050565b7f4e487b7100000000000000000000000000000000000000000000000000000000600052601160045260246000fd5b7f4e487b7100000000000000000000000000000000000000000000000000000000600052603260045260246000fd5b7f4e487b7100000000000000000000000000000000000000000000000000000000600052604160045260246000fd5b600080fd5b600080fd5b600080fd5b600080fd5b6000601f19601f8301169050919050565b60008160601b9050919050565b7f436c61696d526577617264733a20696e76616c6964206672616374696f6e496e60008201527f4270730000000000000000000000000000000000000000000000000000000000602082015250565b7f436c61696d526577617264733a20696e76616c69642061737365740000000000600082015250565b7f436c61696d526577617264733a20696e76616c696420656d707479206173736560008201527f7400000000000000000000000000000000000000000000000000000000000000602082015250565b7f436c61696d526577617264733a20696e76616c696420726563697069656e742060008201527f636861696e000000000000000000000000000000000000000000000000000000602082015250565b7f436c61696d526577617264733a20696e76616c696420656d707479207265636960008201527f7069656e74206164647265737300000000000000000000000000000000000000602082015250565b7f436c61696d526577617264733a20696e76616c696420726563697069656e742060008201527f6164647265737300000000000000000000000000000000000000000000000000602082015250565b61123b81610ea3565b811461124657600080fd5b50565b61125281610ed5565b811461125d57600080fd5b5056fea26469706673582212207783e015ab589f0b9f2d8e81da12df7cb154e4af1784ea7c75dad57901d0f31864736f6c63430008060033",
  "devdoc": {
    "kind": "dev",
    "methods": {
      "claimRewardsToChain(string,string,string,bytes,uint256)": {
        "params": {
          "assetSymbol_": "The token symbol.        E.g. \"BTC\", \"DOGE\" or \"FIL\".",
          "fractionInBps_": "A value between 0 and 10000 (inclusive) that        indicates the percent to withdraw from each of the operator's        darknodes. The value should be in BPS, meaning 10000 represents        100%, 5000 represents 50%, etc.",
          "recipientAddress_": "An address on the asset's native chain, for        receiving the withdrawn rewards. This should be a string as        provided by the user - no encoding or decoding required.        E.g.: \"miMi2VET41YV1j6SDNTeZoPBbmH8B4nEx6\" for BTC.",
          "recipientChain_": "A string indicating which chain the rewards should        be withdrawn to. It should be the name of the chain as expected by        RenVM (e.g. \"Ethereum\" or \"Solana\"). Support for different chains        will be rolled out after this contract is deployed, starting with        \"Ethereum\", then other host chains (e.g. \"Polygon\" or \"Solana\")        and then lock chains (e.g. \"Bitcoin\" for \"BTC\"), also represented        by an empty string \"\".",
          "recipientPayload_": "An associated payload that can be provided along        with the recipient chain and address. Should be empty if not        required."
        }
      }
    },
    "version": 1
  },
  "userdoc": {
    "kind": "user",
    "methods": {
      "claimRewardsToChain(string,string,string,bytes,uint256)": {
        "notice": "claimRewardsToChain allows darknode operators to withdraw darknode earnings, as an on-chain alternative to the JSON-RPC claim method. It will the operators total sum of rewards, for all of their nodes."
      },
      "claimRewardsToEthereum(string,address,uint256)": {
        "notice": "`claimRewardsToEthereum` calls `claimRewardsToChain` internally"
      }
    },
    "version": 1
  },
  "storageLayout": {
    "storage": [],
    "types": null
  }
}