{
  "address": "0x505Bd0e3692C7f053591B76D1E671f795436116a",
  "abi": [
    {
      "inputs": [
        {
          "internalType": "address",
          "name": "_darknodeRegistry",
          "type": "address"
        }
      ],
      "stateMutability": "nonpayable",
      "type": "constructor"
    },
    {
      "inputs": [],
      "name": "darknodeRegistry",
      "outputs": [
        {
          "internalType": "contract IDarknodeRegistry",
          "name": "",
          "type": "address"
        }
      ],
      "stateMutability": "view",
      "type": "function"
    },
    {
      "inputs": [
        {
          "internalType": "address",
          "name": "_operator",
          "type": "address"
        }
      ],
      "name": "getOperatorDarknodes",
      "outputs": [
        {
          "internalType": "address[]",
          "name": "",
          "type": "address[]"
        }
      ],
      "stateMutability": "view",
      "type": "function"
    }
  ],
  "transactionHash": "0x54d98c7cd2bcdff8507e7dcc2eea8f5c78e8e0204c654b4871282aa6e8446b95",
  "args": [
    "0x9954C9F839b31E82bc9CA98F234313112D269712"
  ],
  "solcInputHash": "1d1b33ebee20e0af945d784a55de102c",
  "bytecode": "0x608060405234801561001057600080fd5b50604051610b85380380610b858339818101604052810190610032919061008d565b806000806101000a81548173ffffffffffffffffffffffffffffffffffffffff021916908373ffffffffffffffffffffffffffffffffffffffff16021790555050610108565b600081519050610087816100f1565b92915050565b6000602082840312156100a3576100a26100ec565b5b60006100b184828501610078565b91505092915050565b60006100c5826100cc565b9050919050565b600073ffffffffffffffffffffffffffffffffffffffff82169050919050565b600080fd5b6100fa816100ba565b811461010557600080fd5b50565b610a6e806101176000396000f3fe608060405234801561001057600080fd5b50600436106100365760003560e01c80639e45e0d01461003b578063c22eb9df14610059575b600080fd5b610043610089565b604051610050919061079e565b60405180910390f35b610073600480360381019061006e91906105b6565b6100ad565b604051610080919061077c565b60405180910390f35b60008054906101000a900473ffffffffffffffffffffffffffffffffffffffff1681565b606060008060009054906101000a900473ffffffffffffffffffffffffffffffffffffffff1673ffffffffffffffffffffffffffffffffffffffff16631460e6036040518163ffffffff1660e01b815260040160206040518083038186803b15801561011857600080fd5b505afa15801561012c573d6000803e3d6000fd5b505050506040513d601f19601f820116820180604052508101906101509190610659565b905060008167ffffffffffffffff81111561016e5761016d61099f565b5b60405190808252806020026020018201604052801561019c5781602001602082028036833780820191505090505b50905060008060009054906101000a900473ffffffffffffffffffffffffffffffffffffffff1673ffffffffffffffffffffffffffffffffffffffff1663ec5325c16000806040518363ffffffff1660e01b81526004016101fe929190610753565b60006040518083038186803b15801561021657600080fd5b505afa15801561022a573d6000803e3d6000fd5b505050506040513d6000823e3d601f19601f820116820180604052508101906102539190610610565b90506000805b82518110156103e2578673ffffffffffffffffffffffffffffffffffffffff1660008054906101000a900473ffffffffffffffffffffffffffffffffffffffff1673ffffffffffffffffffffffffffffffffffffffff166345f02dc28584815181106102c8576102c7610970565b5b60200260200101516040518263ffffffff1660e01b81526004016102ec9190610738565b60206040518083038186803b15801561030457600080fd5b505afa158015610318573d6000803e3d6000fd5b505050506040513d601f19601f8201168201806040525081019061033c91906105e3565b73ffffffffffffffffffffffffffffffffffffffff1614156103cf5782818151811061036b5761036a610970565b5b602002602001015184838151811061038657610385610970565b5b602002602001019073ffffffffffffffffffffffffffffffffffffffff16908173ffffffffffffffffffffffffffffffffffffffff168152505081806103cb906108f8565b9250505b80806103da906108f8565b915050610259565b5060008167ffffffffffffffff8111156103ff576103fe61099f565b5b60405190808252806020026020018201604052801561042d5781602001602082028036833780820191505090505b50905060005b828110156104b65784818151811061044e5761044d610970565b5b602002602001015182828151811061046957610468610970565b5b602002602001019073ffffffffffffffffffffffffffffffffffffffff16908173ffffffffffffffffffffffffffffffffffffffff168152505080806104ae906108f8565b915050610433565b508095505050505050919050565b60006104d76104d2846107de565b6107b9565b905080838252602082019050828560208602820111156104fa576104f96109d3565b5b60005b8581101561052a57816105108882610549565b8452602084019350602083019250506001810190506104fd565b5050509392505050565b600081359050610543816109f3565b92915050565b600081519050610558816109f3565b92915050565b60008151905061056d81610a0a565b92915050565b600082601f830112610588576105876109ce565b5b81516105988482602086016104c4565b91505092915050565b6000815190506105b081610a21565b92915050565b6000602082840312156105cc576105cb6109dd565b5b60006105da84828501610534565b91505092915050565b6000602082840312156105f9576105f86109dd565b5b60006106078482850161055e565b91505092915050565b600060208284031215610626576106256109dd565b5b600082015167ffffffffffffffff811115610644576106436109d8565b5b61065084828501610573565b91505092915050565b60006020828403121561066f5761066e6109dd565b5b600061067d848285016105a1565b91505092915050565b6000610692838361069e565b60208301905092915050565b6106a781610843565b82525050565b6106b681610843565b82525050565b60006106c78261081a565b6106d18185610832565b93506106dc8361080a565b8060005b8381101561070d5781516106f48882610686565b97506106ff83610825565b9250506001810190506106e0565b5085935050505092915050565b61072381610891565b82525050565b610732816108b5565b82525050565b600060208201905061074d60008301846106ad565b92915050565b600060408201905061076860008301856106ad565b6107756020830184610729565b9392505050565b6000602082019050818103600083015261079681846106bc565b905092915050565b60006020820190506107b3600083018461071a565b92915050565b60006107c36107d4565b90506107cf82826108c7565b919050565b6000604051905090565b600067ffffffffffffffff8211156107f9576107f861099f565b5b602082029050602081019050919050565b6000819050602082019050919050565b600081519050919050565b6000602082019050919050565b600082825260208201905092915050565b600061084e82610867565b9050919050565b600061086082610867565b9050919050565b600073ffffffffffffffffffffffffffffffffffffffff82169050919050565b6000819050919050565b600061089c826108a3565b9050919050565b60006108ae82610867565b9050919050565b60006108c082610887565b9050919050565b6108d0826109e2565b810181811067ffffffffffffffff821117156108ef576108ee61099f565b5b80604052505050565b600061090382610887565b91507fffffffffffffffffffffffffffffffffffffffffffffffffffffffffffffffff82141561093657610935610941565b5b600182019050919050565b7f4e487b7100000000000000000000000000000000000000000000000000000000600052601160045260246000fd5b7f4e487b7100000000000000000000000000000000000000000000000000000000600052603260045260246000fd5b7f4e487b7100000000000000000000000000000000000000000000000000000000600052604160045260246000fd5b600080fd5b600080fd5b600080fd5b600080fd5b6000601f19601f8301169050919050565b6109fc81610843565b8114610a0757600080fd5b50565b610a1381610855565b8114610a1e57600080fd5b50565b610a2a81610887565b8114610a3557600080fd5b5056fea264697066735822122097583e09740ae6929b364ca2ceae65d756d6734bff8f9cb1fa4f6ff97e1ebbb064736f6c63430008060033",
  "devdoc": {
    "kind": "dev",
    "methods": {},
    "version": 1
  },
  "userdoc": {
    "kind": "user",
    "methods": {},
    "version": 1
  },
  "storageLayout": {
    "storage": [
      {
        "astId": 3012,
        "contract": "src/GetOperatorDarknodes.sol:GetOperatorDarknodes",
        "label": "darknodeRegistry",
        "offset": 0,
        "slot": "0",
        "type": "t_contract(IDarknodeRegistry)3009"
      }
    ],
    "types": {
      "t_contract(IDarknodeRegistry)3009": {
        "encoding": "inplace",
        "label": "contract IDarknodeRegistry",
        "numberOfBytes": "20"
      }
    }
  }
}