{
  "contractName": "BCHGateway",
  "abi": [
    {
      "anonymous": false,
      "inputs": [
        {
          "indexed": false,
          "internalType": "address",
          "name": "previousAdmin",
          "type": "address"
        },
        {
          "indexed": false,
          "internalType": "address",
          "name": "newAdmin",
          "type": "address"
        }
      ],
      "name": "AdminChanged",
      "type": "event"
    },
    {
      "anonymous": false,
      "inputs": [
        {
          "indexed": true,
          "internalType": "address",
          "name": "implementation",
          "type": "address"
        }
      ],
      "name": "Upgraded",
      "type": "event"
    },
    {
      "payable": true,
      "stateMutability": "payable",
      "type": "fallback"
    },
    {
      "constant": false,
      "inputs": [],
      "name": "admin",
      "outputs": [
        {
          "internalType": "address",
          "name": "",
          "type": "address"
        }
      ],
      "payable": false,
      "stateMutability": "nonpayable",
      "type": "function"
    },
    {
      "constant": false,
      "inputs": [
        {
          "internalType": "address",
          "name": "newAdmin",
          "type": "address"
        }
      ],
      "name": "changeAdmin",
      "outputs": [],
      "payable": false,
      "stateMutability": "nonpayable",
      "type": "function"
    },
    {
      "constant": false,
      "inputs": [],
      "name": "implementation",
      "outputs": [
        {
          "internalType": "address",
          "name": "",
          "type": "address"
        }
      ],
      "payable": false,
      "stateMutability": "nonpayable",
      "type": "function"
    },
    {
      "constant": false,
      "inputs": [
        {
          "internalType": "address",
          "name": "_logic",
          "type": "address"
        },
        {
          "internalType": "address",
          "name": "_admin",
          "type": "address"
        },
        {
          "internalType": "bytes",
          "name": "_data",
          "type": "bytes"
        }
      ],
      "name": "initialize",
      "outputs": [],
      "payable": true,
      "stateMutability": "payable",
      "type": "function"
    },
    {
      "constant": false,
      "inputs": [
        {
          "internalType": "address",
          "name": "_logic",
          "type": "address"
        },
        {
          "internalType": "bytes",
          "name": "_data",
          "type": "bytes"
        }
      ],
      "name": "initialize",
      "outputs": [],
      "payable": true,
      "stateMutability": "payable",
      "type": "function"
    },
    {
      "constant": false,
      "inputs": [
        {
          "internalType": "address",
          "name": "newImplementation",
          "type": "address"
        }
      ],
      "name": "upgradeTo",
      "outputs": [],
      "payable": false,
      "stateMutability": "nonpayable",
      "type": "function"
    },
    {
      "constant": false,
      "inputs": [
        {
          "internalType": "address",
          "name": "newImplementation",
          "type": "address"
        },
        {
          "internalType": "bytes",
          "name": "data",
          "type": "bytes"
        }
      ],
      "name": "upgradeToAndCall",
      "outputs": [],
      "payable": true,
      "stateMutability": "payable",
      "type": "function"
    }
  ],
  "bytecode": "0x608060405234801561001057600080fd5b5061097c806100206000396000f3fe6080604052600436106100705760003560e01c80638f2839701161004e5780638f2839701461015e578063cf7a1d7714610191578063d1f5789414610250578063f851a4401461030657610070565b80633659cfe61461007a5780634f1ef286146100ad5780635c60da1b1461012d575b61007861031b565b005b34801561008657600080fd5b506100786004803603602081101561009d57600080fd5b50356001600160a01b0316610335565b610078600480360360408110156100c357600080fd5b6001600160a01b0382351691908101906040810160208201356401000000008111156100ee57600080fd5b82018360208201111561010057600080fd5b8035906020019184600183028401116401000000008311171561012257600080fd5b50909250905061036f565b34801561013957600080fd5b5061014261041c565b604080516001600160a01b039092168252519081900360200190f35b34801561016a57600080fd5b506100786004803603602081101561018157600080fd5b50356001600160a01b0316610459565b610078600480360360608110156101a757600080fd5b6001600160a01b0382358116926020810135909116918101906060810160408201356401000000008111156101db57600080fd5b8201836020820111156101ed57600080fd5b8035906020019184600183028401116401000000008311171561020f57600080fd5b91908080601f016020809104026020016040519081016040528093929190818152602001838380828437600092019190915250929550610513945050505050565b6100786004803603604081101561026657600080fd5b6001600160a01b03823516919081019060408101602082013564010000000081111561029157600080fd5b8201836020820111156102a357600080fd5b803590602001918460018302840111640100000000831117156102c557600080fd5b91908080601f016020809104026020016040519081016040528093929190818152602001838380828437600092019190915250929550610599945050505050565b34801561031257600080fd5b506101426106d9565b610323610704565b61033361032e610764565b610789565b565b61033d6107ad565b6001600160a01b0316336001600160a01b031614156103645761035f816107d2565b61036c565b61036c61031b565b50565b6103776107ad565b6001600160a01b0316336001600160a01b0316141561040f57610399836107d2565b6000836001600160a01b031683836040518083838082843760405192019450600093509091505080830381855af49150503d80600081146103f6576040519150601f19603f3d011682016040523d82523d6000602084013e6103fb565b606091505b505090508061040957600080fd5b50610417565b61041761031b565b505050565b60006104266107ad565b6001600160a01b0316336001600160a01b0316141561044e57610447610764565b9050610456565b61045661031b565b90565b6104616107ad565b6001600160a01b0316336001600160a01b03161415610364576001600160a01b0381166104bf5760405162461bcd60e51b81526004018080602001828103825260368152602001806108d76036913960400191505060405180910390fd5b7f7e644d79422f17c01e4894b5f4f588d331ebfa28653d42ae832dc59e38c9798f6104e86107ad565b604080516001600160a01b03928316815291841660208301528051918290030190a161035f81610812565b600061051d610764565b6001600160a01b03161461053057600080fd5b61053a8382610599565b604080517232b4b8189c9b1b97383937bc3c9730b236b4b760691b815290519081900360130190207fb53127684a568b3173ae13b9f8a6016e243e63b6e8ee1178d6a717850b5d61036000199091011461059057fe5b61041782610812565b60006105a3610764565b6001600160a01b0316146105b657600080fd5b604080517f656970313936372e70726f78792e696d706c656d656e746174696f6e000000008152905190819003601c0190207f360894a13ba1a3210667c828492db98dca3e2076cc3735a920a3ca505d382bbc6000199091011461061657fe5b61061f82610836565b8051156106d5576000826001600160a01b0316826040518082805190602001908083835b602083106106625780518252601f199092019160209182019101610643565b6001836020036101000a038019825116818451168082178552505050505050905001915050600060405180830381855af49150503d80600081146106c2576040519150601f19603f3d011682016040523d82523d6000602084013e6106c7565b606091505b505090508061041757600080fd5b5050565b60006106e36107ad565b6001600160a01b0316336001600160a01b0316141561044e576104476107ad565b61070c6107ad565b6001600160a01b0316336001600160a01b0316141561075c5760405162461bcd60e51b81526004018080602001828103825260328152602001806108a56032913960400191505060405180910390fd5b610333610333565b7f360894a13ba1a3210667c828492db98dca3e2076cc3735a920a3ca505d382bbc5490565b3660008037600080366000845af43d6000803e8080156107a8573d6000f35b3d6000fd5b7fb53127684a568b3173ae13b9f8a6016e243e63b6e8ee1178d6a717850b5d61035490565b6107db81610836565b6040516001600160a01b038216907fbc7cd75a20ee27fd9adebab32041f755214dbc6bffa90cc0225b39da2e5c2d3b90600090a250565b7fb53127684a568b3173ae13b9f8a6016e243e63b6e8ee1178d6a717850b5d610355565b61083f8161089e565b61087a5760405162461bcd60e51b815260040180806020018281038252603b81526020018061090d603b913960400191505060405180910390fd5b7f360894a13ba1a3210667c828492db98dca3e2076cc3735a920a3ca505d382bbc55565b3b15159056fe43616e6e6f742063616c6c2066616c6c6261636b2066756e6374696f6e2066726f6d207468652070726f78792061646d696e43616e6e6f74206368616e6765207468652061646d696e206f6620612070726f787920746f20746865207a65726f206164647265737343616e6e6f742073657420612070726f787920696d706c656d656e746174696f6e20746f2061206e6f6e2d636f6e74726163742061646472657373a265627a7a7231582023a7f19a58fe60038fb6132da6317db43b02e77ce560d79e59cc5aea4ec6d15064736f6c63430005100032",
  "source": "pragma solidity 0.5.16;\n\nimport \"@openzeppelin/upgrades/contracts/Initializable.sol\";\nimport \"@openzeppelin/contracts-ethereum-package/contracts/math/SafeMath.sol\";\nimport \"@openzeppelin/contracts-ethereum-package/contracts/cryptography/ECDSA.sol\";\nimport \"@openzeppelin/upgrades/contracts/upgradeability/InitializableAdminUpgradeabilityProxy.sol\";\n\nimport \"../Governance/Claimable.sol\";\nimport \"../libraries/String.sol\";\nimport \"./RenERC20.sol\";\nimport \"./interfaces/IGateway.sol\";\nimport \"../libraries/CanReclaimTokens.sol\";\n\ncontract GatewayStateV1 {\n    uint256 constant BIPS_DENOMINATOR = 10000;\n    uint256 public minimumBurnAmount;\n\n    /// @notice Each Gateway is tied to a specific RenERC20 token.\n    RenERC20LogicV1 public token;\n\n    /// @notice The mintAuthority is an address that can sign mint requests.\n    address public mintAuthority;\n\n    /// @dev feeRecipient is assumed to be an address (or a contract) that can\n    /// accept erc20 payments it cannot be 0x0.\n    /// @notice When tokens are mint or burnt, a portion of the tokens are\n    /// forwarded to a fee recipient.\n    address public feeRecipient;\n\n    /// @notice The mint fee in bips.\n    uint16 public mintFee;\n\n    /// @notice The burn fee in bips.\n    uint16 public burnFee;\n\n    /// @notice Each signature can only be seen once.\n    mapping(bytes32 => bool) public status;\n\n    // LogMint and LogBurn contain a unique `n` that identifies\n    // the mint or burn event.\n    uint256 public nextN = 0;\n}\n\n/// @notice Gateway handles verifying mint and burn requests. A mintAuthority\n/// approves new assets to be minted by providing a digital signature. An owner\n/// of an asset can request for it to be burnt.\ncontract GatewayLogicV1 is\n    Initializable,\n    Claimable,\n    CanReclaimTokens,\n    IGateway,\n    GatewayStateV1\n{\n    using SafeMath for uint256;\n\n    event LogMintAuthorityUpdated(address indexed _newMintAuthority);\n    event LogMint(\n        address indexed _to,\n        uint256 _amount,\n        uint256 indexed _n,\n        bytes32 indexed _signedMessageHash\n    );\n    event LogBurn(\n        bytes _to,\n        uint256 _amount,\n        uint256 indexed _n,\n        bytes indexed _indexedTo\n    );\n\n    /// @notice Only allow the Darknode Payment contract.\n    modifier onlyOwnerOrMintAuthority() {\n        require(\n            msg.sender == mintAuthority || msg.sender == owner(),\n            \"Gateway: caller is not the owner or mint authority\"\n        );\n        _;\n    }\n\n    /// @param _token The RenERC20 this Gateway is responsible for.\n    /// @param _feeRecipient The recipient of burning and minting fees.\n    /// @param _mintAuthority The address of the key that can sign mint\n    ///        requests.\n    /// @param _mintFee The amount subtracted each mint request and\n    ///        forwarded to the feeRecipient. In BIPS.\n    /// @param _burnFee The amount subtracted each burn request and\n    ///        forwarded to the feeRecipient. In BIPS.\n    function initialize(\n        RenERC20LogicV1 _token,\n        address _feeRecipient,\n        address _mintAuthority,\n        uint16 _mintFee,\n        uint16 _burnFee,\n        uint256 _minimumBurnAmount\n    ) public initializer {\n        Claimable.initialize(msg.sender);\n        CanReclaimTokens.initialize(msg.sender);\n        minimumBurnAmount = _minimumBurnAmount;\n        token = _token;\n        mintFee = _mintFee;\n        burnFee = _burnFee;\n        updateMintAuthority(_mintAuthority);\n        updateFeeRecipient(_feeRecipient);\n    }\n\n    // Public functions ////////////////////////////////////////////////////////\n\n    /// @notice Claims ownership of the token passed in to the constructor.\n    /// `transferStoreOwnership` must have previously been called.\n    /// Anyone can call this function.\n    function claimTokenOwnership() public {\n        token.claimOwnership();\n    }\n\n    /// @notice Allow the owner to update the owner of the RenERC20 token.\n    function transferTokenOwnership(GatewayLogicV1 _nextTokenOwner)\n        public\n        onlyOwner\n    {\n        token.transferOwnership(address(_nextTokenOwner));\n        _nextTokenOwner.claimTokenOwnership();\n    }\n\n    /// @notice Allow the owner to update the fee recipient.\n    ///\n    /// @param _nextMintAuthority The address to start paying fees to.\n    function updateMintAuthority(address _nextMintAuthority)\n        public\n        onlyOwnerOrMintAuthority\n    {\n        // The mint authority should not be set to 0, which is the result\n        // returned by ecrecover for an invalid signature.\n        require(\n            _nextMintAuthority != address(0),\n            \"Gateway: mintAuthority cannot be set to address zero\"\n        );\n        mintAuthority = _nextMintAuthority;\n        emit LogMintAuthorityUpdated(mintAuthority);\n    }\n\n    /// @notice Allow the owner to update the minimum burn amount.\n    ///\n    /// @param _minimumBurnAmount The new min burn amount.\n    function updateMinimumBurnAmount(uint256 _minimumBurnAmount)\n        public\n        onlyOwner\n    {\n        minimumBurnAmount = _minimumBurnAmount;\n    }\n\n    /// @notice Allow the owner to update the fee recipient.\n    ///\n    /// @param _nextFeeRecipient The address to start paying fees to.\n    function updateFeeRecipient(address _nextFeeRecipient) public onlyOwner {\n        // 'mint' and 'burn' will fail if the feeRecipient is 0x0\n        require(\n            _nextFeeRecipient != address(0x0),\n            \"Gateway: fee recipient cannot be 0x0\"\n        );\n\n        feeRecipient = _nextFeeRecipient;\n    }\n\n    /// @notice Allow the owner to update the 'mint' fee.\n    ///\n    /// @param _nextMintFee The new fee for minting and burning.\n    function updateMintFee(uint16 _nextMintFee) public onlyOwner {\n        mintFee = _nextMintFee;\n    }\n\n    /// @notice Allow the owner to update the burn fee.\n    ///\n    /// @param _nextBurnFee The new fee for minting and burning.\n    function updateBurnFee(uint16 _nextBurnFee) public onlyOwner {\n        burnFee = _nextBurnFee;\n    }\n\n    /// @notice mint verifies a mint approval signature from RenVM and creates\n    ///         tokens after taking a fee for the `_feeRecipient`.\n    ///\n    /// @param _pHash (payload hash) The hash of the payload associated with the\n    ///        mint.\n    /// @param _amountUnderlying The amount of the token being minted, in its smallest\n    ///        value. (e.g. satoshis for BTC).\n    /// @param _nHash (nonce hash) The hash of the nonce, amount and pHash.\n    /// @param _sig The signature of the hash of the following values:\n    ///        (pHash, amount, msg.sender, nHash), signed by the mintAuthority.\n    function mint(\n        bytes32 _pHash,\n        uint256 _amountUnderlying,\n        bytes32 _nHash,\n        bytes memory _sig\n    ) public returns (uint256) {\n        // Verify signature\n        bytes32 signedMessageHash = hashForSignature(\n            _pHash,\n            _amountUnderlying,\n            msg.sender,\n            _nHash\n        );\n        require(\n            status[signedMessageHash] == false,\n            \"Gateway: nonce hash already spent\"\n        );\n        if (!verifySignature(signedMessageHash, _sig)) {\n            // Return a detailed string containing the hash and recovered\n            // signer. This is somewhat costly but is only run in the revert\n            // branch.\n            revert(\n                String.add8(\n                    \"Gateway: invalid signature. pHash: \",\n                    String.fromBytes32(_pHash),\n                    \", amount: \",\n                    String.fromUint(_amountUnderlying),\n                    \", msg.sender: \",\n                    String.fromAddress(msg.sender),\n                    \", _nHash: \",\n                    String.fromBytes32(_nHash)\n                )\n            );\n        }\n        status[signedMessageHash] = true;\n\n        uint256 amountScaled = token.fromUnderlying(_amountUnderlying);\n\n        // Mint `amount - fee` for the recipient and mint `fee` for the minter\n        uint256 absoluteFeeScaled = amountScaled.mul(mintFee).div(\n            BIPS_DENOMINATOR\n        );\n        uint256 receivedAmountScaled = amountScaled.sub(\n            absoluteFeeScaled,\n            \"Gateway: fee exceeds amount\"\n        );\n\n        // Mint amount minus the fee\n        token.mint(msg.sender, receivedAmountScaled);\n        // Mint the fee\n        token.mint(feeRecipient, absoluteFeeScaled);\n\n        // Emit a log with a unique identifier 'n'.\n        uint256 receivedAmountUnderlying = token.toUnderlying(\n            receivedAmountScaled\n        );\n        emit LogMint(\n            msg.sender,\n            receivedAmountUnderlying,\n            nextN,\n            signedMessageHash\n        );\n        nextN += 1;\n\n        return receivedAmountScaled;\n    }\n\n    /// @notice burn destroys tokens after taking a fee for the `_feeRecipient`,\n    ///         allowing the associated assets to be released on their native\n    ///         chain.\n    ///\n    /// @param _to The address to receive the un-bridged asset. The format of\n    ///        this address should be of the destination chain.\n    ///        For example, when burning to Bitcoin, _to should be a\n    ///        Bitcoin address.\n    /// @param _amount The amount of the token being burnt, in its\n    ///        smallest value. (e.g. satoshis for BTC)\n    function burn(bytes memory _to, uint256 _amount) public returns (uint256) {\n        // The recipient must not be empty. Better validation is possible,\n        // but would need to be customized for each destination ledger.\n        require(_to.length != 0, \"Gateway: to address is empty\");\n\n        // Calculate fee, subtract it from amount being burnt.\n        uint256 fee = _amount.mul(burnFee).div(BIPS_DENOMINATOR);\n        uint256 amountAfterFee = _amount.sub(\n            fee,\n            \"Gateway: fee exceeds amount\"\n        );\n\n        // If the scaled token can represent more precision than the underlying\n        // token, the difference is lost. This won't exceed 1 sat, so is\n        // negligible compared to burning and transaction fees.\n        uint256 amountAfterFeeUnderlying = token.toUnderlying(amountAfterFee);\n\n        // Burn the whole amount, and then re-mint the fee.\n        token.burn(msg.sender, _amount);\n        token.mint(feeRecipient, fee);\n\n        require(\n            // Must be strictly greater, to that the release transaction is of\n            // at least one unit.\n            amountAfterFeeUnderlying > minimumBurnAmount,\n            \"Gateway: amount is less than the minimum burn amount\"\n        );\n\n        emit LogBurn(_to, amountAfterFeeUnderlying, nextN, _to);\n        nextN += 1;\n\n        return amountAfterFeeUnderlying;\n    }\n\n    /// @notice verifySignature checks the the provided signature matches the provided\n    /// parameters.\n    function verifySignature(bytes32 _signedMessageHash, bytes memory _sig)\n        public\n        view\n        returns (bool)\n    {\n        return mintAuthority == ECDSA.recover(_signedMessageHash, _sig);\n    }\n\n    /// @notice hashForSignature hashes the parameters so that they can be signed.\n    function hashForSignature(\n        bytes32 _pHash,\n        uint256 _amount,\n        address _to,\n        bytes32 _nHash\n    ) public view returns (bytes32) {\n        return\n            keccak256(abi.encode(_pHash, _amount, address(token), _to, _nHash));\n    }\n}\n\n/* solium-disable-next-line no-empty-blocks */\n// contract GatewayProxy is InitializableAdminUpgradeabilityProxy {}\n\n/// @dev The following duplicates are not necessary for deploying BTCGateway or\n/// ZECGateway contracts, but are used to track deployments.\n\n/* solium-disable-next-line no-empty-blocks */\ncontract BTCGateway is InitializableAdminUpgradeabilityProxy {}\n\n/* solium-disable-next-line no-empty-blocks */\ncontract ZECGateway is InitializableAdminUpgradeabilityProxy {}\n\n/* solium-disable-next-line no-empty-blocks */\ncontract BCHGateway is InitializableAdminUpgradeabilityProxy {}\n",
  "sourcePath": "/home/noah/github/renproject/ren-sol/contracts/Gateway/Gateway.sol",
  "compiler": {
    "name": "solc",
    "version": "0.5.16+commit.9c3226ce.Emscripten.clang"
  },
  "schemaVersion": "3.0.23",
  "updatedAt": "2020-03-30T04:17:17.267Z",
  "networkType": "ethereum",
  "devdoc": {
    "methods": {
      "admin()": {
        "return": "The address of the proxy admin."
      },
      "changeAdmin(address)": {
        "details": "Changes the admin of the proxy. Only the current admin can call this function.",
        "params": {
          "newAdmin": "Address to transfer proxy administration to."
        }
      },
      "implementation()": {
        "return": "The address of the implementation."
      },
      "initialize(address,address,bytes)": {
        "params": {
          "_admin": "Address of the proxy administrator.",
          "_data": "Data to send as msg.data to the implementation to initialize the proxied contract. It should include the signature and the parameters of the function to be called, as described in https://solidity.readthedocs.io/en/v0.4.24/abi-spec.html#function-selector-and-argument-encoding. This parameter is optional, if no data is given the initialization call to proxied contract will be skipped.",
          "_logic": "address of the initial implementation."
        }
      },
      "initialize(address,bytes)": {
        "details": "Contract initializer.",
        "params": {
          "_data": "Data to send as msg.data to the implementation to initialize the proxied contract. It should include the signature and the parameters of the function to be called, as described in https://solidity.readthedocs.io/en/v0.4.24/abi-spec.html#function-selector-and-argument-encoding. This parameter is optional, if no data is given the initialization call to proxied contract will be skipped.",
          "_logic": "Address of the initial implementation."
        }
      },
      "upgradeTo(address)": {
        "details": "Upgrade the backing implementation of the proxy. Only the admin can call this function.",
        "params": {
          "newImplementation": "Address of the new implementation."
        }
      },
      "upgradeToAndCall(address,bytes)": {
        "details": "Upgrade the backing implementation of the proxy and call a function on the new implementation. This is useful to initialize the proxied contract.",
        "params": {
          "data": "Data to send as msg.data in the low level call. It should include the signature and the parameters of the function to be called, as described in https://solidity.readthedocs.io/en/v0.4.24/abi-spec.html#function-selector-and-argument-encoding.",
          "newImplementation": "Address of the new implementation."
        }
      }
    }
  },
  "userdoc": {
    "methods": {
      "initialize(address,address,bytes)": {
        "notice": "Contract initializer."
      }
    }
  }
}