{
  "contractName": "DarknodeRegistryProxy",
  "abi": [
    {
      "anonymous": false,
      "inputs": [
        {
          "indexed": false,
          "internalType": "address",
          "name": "previousAdmin",
          "type": "address"
        },
        {
          "indexed": false,
          "internalType": "address",
          "name": "newAdmin",
          "type": "address"
        }
      ],
      "name": "AdminChanged",
      "type": "event"
    },
    {
      "anonymous": false,
      "inputs": [
        {
          "indexed": true,
          "internalType": "address",
          "name": "implementation",
          "type": "address"
        }
      ],
      "name": "Upgraded",
      "type": "event"
    },
    {
      "payable": true,
      "stateMutability": "payable",
      "type": "fallback"
    },
    {
      "constant": false,
      "inputs": [],
      "name": "admin",
      "outputs": [
        {
          "internalType": "address",
          "name": "",
          "type": "address"
        }
      ],
      "payable": false,
      "stateMutability": "nonpayable",
      "type": "function"
    },
    {
      "constant": false,
      "inputs": [
        {
          "internalType": "address",
          "name": "newAdmin",
          "type": "address"
        }
      ],
      "name": "changeAdmin",
      "outputs": [],
      "payable": false,
      "stateMutability": "nonpayable",
      "type": "function"
    },
    {
      "constant": false,
      "inputs": [],
      "name": "implementation",
      "outputs": [
        {
          "internalType": "address",
          "name": "",
          "type": "address"
        }
      ],
      "payable": false,
      "stateMutability": "nonpayable",
      "type": "function"
    },
    {
      "constant": false,
      "inputs": [
        {
          "internalType": "address",
          "name": "_logic",
          "type": "address"
        },
        {
          "internalType": "address",
          "name": "_admin",
          "type": "address"
        },
        {
          "internalType": "bytes",
          "name": "_data",
          "type": "bytes"
        }
      ],
      "name": "initialize",
      "outputs": [],
      "payable": true,
      "stateMutability": "payable",
      "type": "function"
    },
    {
      "constant": false,
      "inputs": [
        {
          "internalType": "address",
          "name": "_logic",
          "type": "address"
        },
        {
          "internalType": "bytes",
          "name": "_data",
          "type": "bytes"
        }
      ],
      "name": "initialize",
      "outputs": [],
      "payable": true,
      "stateMutability": "payable",
      "type": "function"
    },
    {
      "constant": false,
      "inputs": [
        {
          "internalType": "address",
          "name": "newImplementation",
          "type": "address"
        }
      ],
      "name": "upgradeTo",
      "outputs": [],
      "payable": false,
      "stateMutability": "nonpayable",
      "type": "function"
    },
    {
      "constant": false,
      "inputs": [
        {
          "internalType": "address",
          "name": "newImplementation",
          "type": "address"
        },
        {
          "internalType": "bytes",
          "name": "data",
          "type": "bytes"
        }
      ],
      "name": "upgradeToAndCall",
      "outputs": [],
      "payable": true,
      "stateMutability": "payable",
      "type": "function"
    }
  ],
  "bytecode": "0x608060405234801561001057600080fd5b5061097c806100206000396000f3fe6080604052600436106100705760003560e01c80638f2839701161004e5780638f2839701461015e578063cf7a1d7714610191578063d1f5789414610250578063f851a4401461030657610070565b80633659cfe61461007a5780634f1ef286146100ad5780635c60da1b1461012d575b61007861031b565b005b34801561008657600080fd5b506100786004803603602081101561009d57600080fd5b50356001600160a01b0316610335565b610078600480360360408110156100c357600080fd5b6001600160a01b0382351691908101906040810160208201356401000000008111156100ee57600080fd5b82018360208201111561010057600080fd5b8035906020019184600183028401116401000000008311171561012257600080fd5b50909250905061036f565b34801561013957600080fd5b5061014261041c565b604080516001600160a01b039092168252519081900360200190f35b34801561016a57600080fd5b506100786004803603602081101561018157600080fd5b50356001600160a01b0316610459565b610078600480360360608110156101a757600080fd5b6001600160a01b0382358116926020810135909116918101906060810160408201356401000000008111156101db57600080fd5b8201836020820111156101ed57600080fd5b8035906020019184600183028401116401000000008311171561020f57600080fd5b91908080601f016020809104026020016040519081016040528093929190818152602001838380828437600092019190915250929550610513945050505050565b6100786004803603604081101561026657600080fd5b6001600160a01b03823516919081019060408101602082013564010000000081111561029157600080fd5b8201836020820111156102a357600080fd5b803590602001918460018302840111640100000000831117156102c557600080fd5b91908080601f016020809104026020016040519081016040528093929190818152602001838380828437600092019190915250929550610599945050505050565b34801561031257600080fd5b506101426106d9565b610323610704565b61033361032e610764565b610789565b565b61033d6107ad565b6001600160a01b0316336001600160a01b031614156103645761035f816107d2565b61036c565b61036c61031b565b50565b6103776107ad565b6001600160a01b0316336001600160a01b0316141561040f57610399836107d2565b6000836001600160a01b031683836040518083838082843760405192019450600093509091505080830381855af49150503d80600081146103f6576040519150601f19603f3d011682016040523d82523d6000602084013e6103fb565b606091505b505090508061040957600080fd5b50610417565b61041761031b565b505050565b60006104266107ad565b6001600160a01b0316336001600160a01b0316141561044e57610447610764565b9050610456565b61045661031b565b90565b6104616107ad565b6001600160a01b0316336001600160a01b03161415610364576001600160a01b0381166104bf5760405162461bcd60e51b81526004018080602001828103825260368152602001806108d76036913960400191505060405180910390fd5b7f7e644d79422f17c01e4894b5f4f588d331ebfa28653d42ae832dc59e38c9798f6104e86107ad565b604080516001600160a01b03928316815291841660208301528051918290030190a161035f81610812565b600061051d610764565b6001600160a01b03161461053057600080fd5b61053a8382610599565b604080517232b4b8189c9b1b97383937bc3c9730b236b4b760691b815290519081900360130190207fb53127684a568b3173ae13b9f8a6016e243e63b6e8ee1178d6a717850b5d61036000199091011461059057fe5b61041782610812565b60006105a3610764565b6001600160a01b0316146105b657600080fd5b604080517f656970313936372e70726f78792e696d706c656d656e746174696f6e000000008152905190819003601c0190207f360894a13ba1a3210667c828492db98dca3e2076cc3735a920a3ca505d382bbc6000199091011461061657fe5b61061f82610836565b8051156106d5576000826001600160a01b0316826040518082805190602001908083835b602083106106625780518252601f199092019160209182019101610643565b6001836020036101000a038019825116818451168082178552505050505050905001915050600060405180830381855af49150503d80600081146106c2576040519150601f19603f3d011682016040523d82523d6000602084013e6106c7565b606091505b505090508061041757600080fd5b5050565b60006106e36107ad565b6001600160a01b0316336001600160a01b0316141561044e576104476107ad565b61070c6107ad565b6001600160a01b0316336001600160a01b0316141561075c5760405162461bcd60e51b81526004018080602001828103825260328152602001806108a56032913960400191505060405180910390fd5b610333610333565b7f360894a13ba1a3210667c828492db98dca3e2076cc3735a920a3ca505d382bbc5490565b3660008037600080366000845af43d6000803e8080156107a8573d6000f35b3d6000fd5b7fb53127684a568b3173ae13b9f8a6016e243e63b6e8ee1178d6a717850b5d61035490565b6107db81610836565b6040516001600160a01b038216907fbc7cd75a20ee27fd9adebab32041f755214dbc6bffa90cc0225b39da2e5c2d3b90600090a250565b7fb53127684a568b3173ae13b9f8a6016e243e63b6e8ee1178d6a717850b5d610355565b61083f8161089e565b61087a5760405162461bcd60e51b815260040180806020018281038252603b81526020018061090d603b913960400191505060405180910390fd5b7f360894a13ba1a3210667c828492db98dca3e2076cc3735a920a3ca505d382bbc55565b3b15159056fe43616e6e6f742063616c6c2066616c6c6261636b2066756e6374696f6e2066726f6d207468652070726f78792061646d696e43616e6e6f74206368616e6765207468652061646d696e206f6620612070726f787920746f20746865207a65726f206164647265737343616e6e6f742073657420612070726f787920696d706c656d656e746174696f6e20746f2061206e6f6e2d636f6e74726163742061646472657373a265627a7a723158201a726ba5594154a0a583a3d3c32bed3fc80d1815c9b3295d1dbb8f3d240a361864736f6c63430005100032",
  "source": "pragma solidity 0.5.16;\n\nimport \"@openzeppelin/contracts-ethereum-package/contracts/math/SafeMath.sol\";\nimport \"@openzeppelin/upgrades/contracts/upgradeability/InitializableAdminUpgradeabilityProxy.sol\";\nimport \"@openzeppelin/upgrades/contracts/Initializable.sol\";\n\nimport \"../RenToken/RenToken.sol\";\nimport \"./DarknodeRegistryStore.sol\";\nimport \"../Governance/Claimable.sol\";\nimport \"../libraries/CanReclaimTokens.sol\";\n\ninterface IDarknodePaymentStore {}\n\ninterface IDarknodePayment {\n    function changeCycle() external returns (uint256);\n    function store() external view returns (IDarknodePaymentStore);\n}\n\ninterface IDarknodeSlasher {}\n\ncontract DarknodeRegistryStateV1 {\n    using SafeMath for uint256;\n\n    string public VERSION; // Passed in as a constructor parameter.\n\n    /// @notice Darknode pods are shuffled after a fixed number of blocks.\n    /// An Epoch stores an epoch hash used as an (insecure) RNG seed, and the\n    /// blocknumber which restricts when the next epoch can be called.\n    struct Epoch {\n        uint256 epochhash;\n        uint256 blocktime;\n    }\n\n    uint256 public numDarknodes;\n    uint256 public numDarknodesNextEpoch;\n    uint256 public numDarknodesPreviousEpoch;\n\n    /// Variables used to parameterize behavior.\n    uint256 public minimumBond;\n    uint256 public minimumPodSize;\n    uint256 public minimumEpochInterval;\n    uint256 public deregistrationInterval;\n\n    /// When one of the above variables is modified, it is only updated when the\n    /// next epoch is called. These variables store the values for the next\n    /// epoch.\n    uint256 public nextMinimumBond;\n    uint256 public nextMinimumPodSize;\n    uint256 public nextMinimumEpochInterval;\n\n    /// The current and previous epoch.\n    Epoch public currentEpoch;\n    Epoch public previousEpoch;\n\n    /// REN ERC20 contract used to transfer bonds.\n    RenToken public ren;\n\n    /// Darknode Registry Store is the storage contract for darknodes.\n    DarknodeRegistryStore public store;\n\n    /// The Darknode Payment contract for changing cycle.\n    IDarknodePayment public darknodePayment;\n\n    /// Darknode Slasher allows darknodes to vote on bond slashing.\n    IDarknodeSlasher public slasher;\n    IDarknodeSlasher public nextSlasher;\n}\n\n/// @notice DarknodeRegistry is responsible for the registration and\n/// deregistration of Darknodes.\ncontract DarknodeRegistryLogicV1 is\n    Claimable,\n    CanReclaimTokens,\n    DarknodeRegistryStateV1\n{\n    /// @notice Emitted when a darknode is registered.\n    /// @param _darknodeOperator The owner of the darknode.\n    /// @param _darknodeID The ID of the darknode that was registered.\n    /// @param _bond The amount of REN that was transferred as bond.\n    event LogDarknodeRegistered(\n        address indexed _darknodeOperator,\n        address indexed _darknodeID,\n        uint256 _bond\n    );\n\n    /// @notice Emitted when a darknode is deregistered.\n    /// @param _darknodeOperator The owner of the darknode.\n    /// @param _darknodeID The ID of the darknode that was deregistered.\n    event LogDarknodeDeregistered(\n        address indexed _darknodeOperator,\n        address indexed _darknodeID\n    );\n\n    /// @notice Emitted when a refund has been made.\n    /// @param _darknodeOperator The owner of the darknode.\n    /// @param _amount The amount of REN that was refunded.\n    event LogDarknodeRefunded(\n        address indexed _darknodeOperator,\n        address indexed _darknodeID,\n        uint256 _amount\n    );\n\n    /// @notice Emitted when a darknode's bond is slashed.\n    /// @param _darknodeOperator The owner of the darknode.\n    /// @param _darknodeID The ID of the darknode that was slashed.\n    /// @param _challenger The address of the account that submitted the challenge.\n    /// @param _percentage The total percentage  of bond slashed.\n    event LogDarknodeSlashed(\n        address indexed _darknodeOperator,\n        address indexed _darknodeID,\n        address indexed _challenger,\n        uint256 _percentage\n    );\n\n    /// @notice Emitted when a new epoch has begun.\n    event LogNewEpoch(uint256 indexed epochhash);\n\n    /// @notice Emitted when a constructor parameter has been updated.\n    event LogMinimumBondUpdated(\n        uint256 _previousMinimumBond,\n        uint256 _nextMinimumBond\n    );\n    event LogMinimumPodSizeUpdated(\n        uint256 _previousMinimumPodSize,\n        uint256 _nextMinimumPodSize\n    );\n    event LogMinimumEpochIntervalUpdated(\n        uint256 _previousMinimumEpochInterval,\n        uint256 _nextMinimumEpochInterval\n    );\n    event LogSlasherUpdated(\n        address indexed _previousSlasher,\n        address indexed _nextSlasher\n    );\n    event LogDarknodePaymentUpdated(\n        IDarknodePayment indexed _previousDarknodePayment,\n        IDarknodePayment indexed _nextDarknodePayment\n    );\n\n    /// @notice Restrict a function to the owner that registered the darknode.\n    modifier onlyDarknodeOperator(address _darknodeID) {\n        require(\n            store.darknodeOperator(_darknodeID) == msg.sender,\n            \"DarknodeRegistry: must be darknode owner\"\n        );\n        _;\n    }\n\n    /// @notice Restrict a function to unregistered darknodes.\n    modifier onlyRefunded(address _darknodeID) {\n        require(\n            isRefunded(_darknodeID),\n            \"DarknodeRegistry: must be refunded or never registered\"\n        );\n        _;\n    }\n\n    /// @notice Restrict a function to refundable darknodes.\n    modifier onlyRefundable(address _darknodeID) {\n        require(\n            isRefundable(_darknodeID),\n            \"DarknodeRegistry: must be deregistered for at least one epoch\"\n        );\n        _;\n    }\n\n    /// @notice Restrict a function to registered nodes without a pending\n    /// deregistration.\n    modifier onlyDeregisterable(address _darknodeID) {\n        require(\n            isDeregisterable(_darknodeID),\n            \"DarknodeRegistry: must be deregisterable\"\n        );\n        _;\n    }\n\n    /// @notice Restrict a function to the Slasher contract.\n    modifier onlySlasher() {\n        require(\n            address(slasher) == msg.sender,\n            \"DarknodeRegistry: must be slasher\"\n        );\n        _;\n    }\n\n    /// @notice Restrict a function to registered nodes without a pending\n    /// deregistration.\n    modifier onlyDarknode(address _darknodeID) {\n        require(\n            isRegistered(_darknodeID),\n            \"DarknodeRegistry: invalid darknode\"\n        );\n        _;\n    }\n\n    /// @notice The contract constructor.\n    ///\n    /// @param _VERSION A string defining the contract version.\n    /// @param _renAddress The address of the RenToken contract.\n    /// @param _storeAddress The address of the DarknodeRegistryStore contract.\n    /// @param _minimumBond The minimum bond amount that can be submitted by a\n    ///        Darknode.\n    /// @param _minimumPodSize The minimum size of a Darknode pod.\n    /// @param _minimumEpochIntervalSeconds The minimum number of seconds between epochs.\n    function initialize(\n        string memory _VERSION,\n        RenToken _renAddress,\n        DarknodeRegistryStore _storeAddress,\n        uint256 _minimumBond,\n        uint256 _minimumPodSize,\n        uint256 _minimumEpochIntervalSeconds,\n        uint256 _deregistrationIntervalSeconds\n    ) public initializer {\n        Claimable.initialize(msg.sender);\n        CanReclaimTokens.initialize(msg.sender);\n        VERSION = _VERSION;\n\n        store = _storeAddress;\n        ren = _renAddress;\n\n        minimumBond = _minimumBond;\n        nextMinimumBond = minimumBond;\n\n        minimumPodSize = _minimumPodSize;\n        nextMinimumPodSize = minimumPodSize;\n\n        minimumEpochInterval = _minimumEpochIntervalSeconds;\n        nextMinimumEpochInterval = minimumEpochInterval;\n        deregistrationInterval = _deregistrationIntervalSeconds;\n\n        uint256 epochhash = uint256(blockhash(block.number - 1));\n        currentEpoch = Epoch({\n            epochhash: epochhash,\n            blocktime: block.timestamp\n        });\n        emit LogNewEpoch(epochhash);\n    }\n\n    /// @notice Register a darknode and transfer the bond to this contract.\n    /// Before registering, the bond transfer must be approved in the REN\n    /// contract. The caller must provide a public encryption key for the\n    /// darknode. The darknode will remain pending registration until the next\n    /// epoch. Only after this period can the darknode be deregistered. The\n    /// caller of this method will be stored as the owner of the darknode.\n    ///\n    /// @param _darknodeID The darknode ID that will be registered.\n    /// @param _publicKey The public key of the darknode. It is stored to allow\n    ///        other darknodes and traders to encrypt messages to the trader.\n    function register(address _darknodeID, bytes calldata _publicKey)\n        external\n        onlyRefunded(_darknodeID)\n    {\n        require(\n            _darknodeID != address(0),\n            \"DarknodeRegistry: darknode address cannot be zero\"\n        );\n\n        // Use the current minimum bond as the darknode's bond and transfer bond to store\n        require(\n            ren.transferFrom(msg.sender, address(store), minimumBond),\n            \"DarknodeRegistry: bond transfer failed\"\n        );\n\n        // Flag this darknode for registration\n        store.appendDarknode(\n            _darknodeID,\n            msg.sender,\n            minimumBond,\n            _publicKey,\n            currentEpoch.blocktime.add(minimumEpochInterval),\n            0\n        );\n\n        numDarknodesNextEpoch = numDarknodesNextEpoch.add(1);\n\n        // Emit an event.\n        emit LogDarknodeRegistered(msg.sender, _darknodeID, minimumBond);\n    }\n\n    /// @notice Deregister a darknode. The darknode will not be deregistered\n    /// until the end of the epoch. After another epoch, the bond can be\n    /// refunded by calling the refund method.\n    /// @param _darknodeID The darknode ID that will be deregistered. The caller\n    ///        of this method store.darknodeRegisteredAt(_darknodeID) must be\n    //         the owner of this darknode.\n    function deregister(address _darknodeID)\n        external\n        onlyDeregisterable(_darknodeID)\n        onlyDarknodeOperator(_darknodeID)\n    {\n        deregisterDarknode(_darknodeID);\n    }\n\n    /// @notice Progress the epoch if it is possible to do so. This captures\n    /// the current timestamp and current blockhash and overrides the current\n    /// epoch.\n    function epoch() external {\n        if (previousEpoch.blocktime == 0) {\n            // The first epoch must be called by the owner of the contract\n            require(\n                msg.sender == owner(),\n                \"DarknodeRegistry: not authorized to call first epoch\"\n            );\n        }\n\n        // Require that the epoch interval has passed\n        require(\n            block.timestamp >= currentEpoch.blocktime.add(minimumEpochInterval),\n            \"DarknodeRegistry: epoch interval has not passed\"\n        );\n        uint256 epochhash = uint256(blockhash(block.number - 1));\n\n        // Update the epoch hash and timestamp\n        previousEpoch = currentEpoch;\n        currentEpoch = Epoch({\n            epochhash: epochhash,\n            blocktime: block.timestamp\n        });\n\n        // Update the registry information\n        numDarknodesPreviousEpoch = numDarknodes;\n        numDarknodes = numDarknodesNextEpoch;\n\n        // If any update functions have been called, update the values now\n        if (nextMinimumBond != minimumBond) {\n            minimumBond = nextMinimumBond;\n            emit LogMinimumBondUpdated(minimumBond, nextMinimumBond);\n        }\n        if (nextMinimumPodSize != minimumPodSize) {\n            minimumPodSize = nextMinimumPodSize;\n            emit LogMinimumPodSizeUpdated(minimumPodSize, nextMinimumPodSize);\n        }\n        if (nextMinimumEpochInterval != minimumEpochInterval) {\n            minimumEpochInterval = nextMinimumEpochInterval;\n            emit LogMinimumEpochIntervalUpdated(\n                minimumEpochInterval,\n                nextMinimumEpochInterval\n            );\n        }\n        if (nextSlasher != slasher) {\n            slasher = nextSlasher;\n            emit LogSlasherUpdated(address(slasher), address(nextSlasher));\n        }\n        if (address(darknodePayment) != address(0x0)) {\n            darknodePayment.changeCycle();\n        }\n\n        // Emit an event\n        emit LogNewEpoch(epochhash);\n    }\n\n    /// @notice Allows the contract owner to initiate an ownership transfer of\n    /// the DarknodeRegistryStore.\n    /// @param _newOwner The address to transfer the ownership to.\n    function transferStoreOwnership(DarknodeRegistryLogicV1 _newOwner)\n        external\n        onlyOwner\n    {\n        store.transferOwnership(address(_newOwner));\n        _newOwner.claimStoreOwnership();\n    }\n\n    /// @notice Claims ownership of the store passed in to the constructor.\n    /// `transferStoreOwnership` must have previously been called when\n    /// transferring from another Darknode Registry.\n    function claimStoreOwnership() external {\n        store.claimOwnership();\n\n        // Sync state with new store.\n        // Note: numDarknodesPreviousEpoch is set to 0 for a newly deployed DNR.\n        (\n            numDarknodesPreviousEpoch,\n            numDarknodes,\n            numDarknodesNextEpoch\n        ) = getDarknodeCountFromEpochs();\n    }\n\n    /// @notice Allows the contract owner to update the address of the\n    /// darknode payment contract.\n    /// @param _darknodePayment The address of the Darknode Payment\n    /// contract.\n    function updateDarknodePayment(IDarknodePayment _darknodePayment)\n        external\n        onlyOwner\n    {\n        require(\n            address(_darknodePayment) != address(0x0),\n            \"DarknodeRegistry: invalid Darknode Payment address\"\n        );\n        IDarknodePayment previousDarknodePayment = darknodePayment;\n        darknodePayment = _darknodePayment;\n        emit LogDarknodePaymentUpdated(\n            previousDarknodePayment,\n            darknodePayment\n        );\n    }\n\n    /// @notice Allows the contract owner to update the minimum bond.\n    /// @param _nextMinimumBond The minimum bond amount that can be submitted by\n    ///        a darknode.\n    function updateMinimumBond(uint256 _nextMinimumBond) external onlyOwner {\n        // Will be updated next epoch\n        nextMinimumBond = _nextMinimumBond;\n    }\n\n    /// @notice Allows the contract owner to update the minimum pod size.\n    /// @param _nextMinimumPodSize The minimum size of a pod.\n    function updateMinimumPodSize(uint256 _nextMinimumPodSize)\n        external\n        onlyOwner\n    {\n        // Will be updated next epoch\n        nextMinimumPodSize = _nextMinimumPodSize;\n    }\n\n    /// @notice Allows the contract owner to update the minimum epoch interval.\n    /// @param _nextMinimumEpochInterval The minimum number of blocks between epochs.\n    function updateMinimumEpochInterval(uint256 _nextMinimumEpochInterval)\n        external\n        onlyOwner\n    {\n        // Will be updated next epoch\n        nextMinimumEpochInterval = _nextMinimumEpochInterval;\n    }\n\n    /// @notice Allow the contract owner to update the DarknodeSlasher contract\n    /// address.\n    /// @param _slasher The new slasher address.\n    function updateSlasher(IDarknodeSlasher _slasher) external onlyOwner {\n        require(\n            address(_slasher) != address(0),\n            \"DarknodeRegistry: invalid slasher address\"\n        );\n        nextSlasher = _slasher;\n    }\n\n    /// @notice Allow the DarknodeSlasher contract to slash a portion of darknode's\n    ///         bond and deregister it.\n    /// @param _guilty The guilty prover whose bond is being slashed.\n    /// @param _challenger The challenger who should receive a portion of the bond as reward.\n    /// @param _percentage The total percentage  of bond to be slashed.\n    function slash(address _guilty, address _challenger, uint256 _percentage)\n        external\n        onlySlasher\n        onlyDarknode(_guilty)\n    {\n        require(_percentage <= 100, \"DarknodeRegistry: invalid percent\");\n\n        // If the darknode has not been deregistered then deregister it\n        if (isDeregisterable(_guilty)) {\n            deregisterDarknode(_guilty);\n        }\n\n        uint256 totalBond = store.darknodeBond(_guilty);\n        uint256 penalty = totalBond.div(100).mul(_percentage);\n        uint256 challengerReward = penalty.div(2);\n        uint256 darknodePaymentReward = penalty.sub(challengerReward);\n        if (challengerReward > 0) {\n            // Slash the bond of the failed prover\n            store.updateDarknodeBond(_guilty, totalBond.sub(penalty));\n\n            // Distribute the remaining bond into the darknode payment reward pool\n            require(\n                address(darknodePayment) != address(0x0),\n                \"DarknodeRegistry: invalid payment address\"\n            );\n            require(\n                ren.transfer(\n                    address(darknodePayment.store()),\n                    darknodePaymentReward\n                ),\n                \"DarknodeRegistry: reward transfer failed\"\n            );\n            require(\n                ren.transfer(_challenger, challengerReward),\n                \"DarknodeRegistry: reward transfer failed\"\n            );\n        }\n\n        emit LogDarknodeSlashed(\n            store.darknodeOperator(_guilty),\n            _guilty,\n            _challenger,\n            _percentage\n        );\n    }\n\n    /// @notice Refund the bond of a deregistered darknode. This will make the\n    /// darknode available for registration again. Anyone can call this function\n    /// but the bond will always be refunded to the darknode operator.\n    ///\n    /// @param _darknodeID The darknode ID that will be refunded.\n    function refund(address _darknodeID) external onlyRefundable(_darknodeID) {\n        address darknodeOperator = store.darknodeOperator(_darknodeID);\n\n        // Remember the bond amount\n        uint256 amount = store.darknodeBond(_darknodeID);\n\n        // Erase the darknode from the registry\n        store.removeDarknode(_darknodeID);\n\n        // Refund the operator by transferring REN\n        require(\n            ren.transfer(darknodeOperator, amount),\n            \"DarknodeRegistry: bond transfer failed\"\n        );\n\n        // Emit an event.\n        emit LogDarknodeRefunded(darknodeOperator, _darknodeID, amount);\n    }\n\n    /// @notice Retrieves the address of the account that registered a darknode.\n    /// @param _darknodeID The ID of the darknode to retrieve the owner for.\n    function getDarknodeOperator(address _darknodeID)\n        external\n        view\n        returns (address payable)\n    {\n        return store.darknodeOperator(_darknodeID);\n    }\n\n    /// @notice Retrieves the bond amount of a darknode in 10^-18 REN.\n    /// @param _darknodeID The ID of the darknode to retrieve the bond for.\n    function getDarknodeBond(address _darknodeID)\n        external\n        view\n        returns (uint256)\n    {\n        return store.darknodeBond(_darknodeID);\n    }\n\n    /// @notice Retrieves the encryption public key of the darknode.\n    /// @param _darknodeID The ID of the darknode to retrieve the public key for.\n    function getDarknodePublicKey(address _darknodeID)\n        external\n        view\n        returns (bytes memory)\n    {\n        return store.darknodePublicKey(_darknodeID);\n    }\n\n    /// @notice Retrieves a list of darknodes which are registered for the\n    /// current epoch.\n    /// @param _start A darknode ID used as an offset for the list. If _start is\n    ///        0x0, the first dark node will be used. _start won't be\n    ///        included it is not registered for the epoch.\n    /// @param _count The number of darknodes to retrieve starting from _start.\n    ///        If _count is 0, all of the darknodes from _start are\n    ///        retrieved. If _count is more than the remaining number of\n    ///        registered darknodes, the rest of the list will contain\n    ///        0x0s.\n    function getDarknodes(address _start, uint256 _count)\n        external\n        view\n        returns (address[] memory)\n    {\n        uint256 count = _count;\n        if (count == 0) {\n            count = numDarknodes;\n        }\n        return getDarknodesFromEpochs(_start, count, false);\n    }\n\n    /// @notice Retrieves a list of darknodes which were registered for the\n    /// previous epoch. See `getDarknodes` for the parameter documentation.\n    function getPreviousDarknodes(address _start, uint256 _count)\n        external\n        view\n        returns (address[] memory)\n    {\n        uint256 count = _count;\n        if (count == 0) {\n            count = numDarknodesPreviousEpoch;\n        }\n        return getDarknodesFromEpochs(_start, count, true);\n    }\n\n    /// @notice Returns whether a darknode is scheduled to become registered\n    /// at next epoch.\n    /// @param _darknodeID The ID of the darknode to return.\n    function isPendingRegistration(address _darknodeID)\n        public\n        view\n        returns (bool)\n    {\n        uint256 registeredAt = store.darknodeRegisteredAt(_darknodeID);\n        return registeredAt != 0 && registeredAt > currentEpoch.blocktime;\n    }\n\n    /// @notice Returns if a darknode is in the pending deregistered state. In\n    /// this state a darknode is still considered registered.\n    function isPendingDeregistration(address _darknodeID)\n        public\n        view\n        returns (bool)\n    {\n        uint256 deregisteredAt = store.darknodeDeregisteredAt(_darknodeID);\n        return deregisteredAt != 0 && deregisteredAt > currentEpoch.blocktime;\n    }\n\n    /// @notice Returns if a darknode is in the deregistered state.\n    function isDeregistered(address _darknodeID) public view returns (bool) {\n        uint256 deregisteredAt = store.darknodeDeregisteredAt(_darknodeID);\n        return deregisteredAt != 0 && deregisteredAt <= currentEpoch.blocktime;\n    }\n\n    /// @notice Returns if a darknode can be deregistered. This is true if the\n    /// darknodes is in the registered state and has not attempted to\n    /// deregister yet.\n    function isDeregisterable(address _darknodeID) public view returns (bool) {\n        uint256 deregisteredAt = store.darknodeDeregisteredAt(_darknodeID);\n        // The Darknode is currently in the registered state and has not been\n        // transitioned to the pending deregistration, or deregistered, state\n        return isRegistered(_darknodeID) && deregisteredAt == 0;\n    }\n\n    /// @notice Returns if a darknode is in the refunded state. This is true\n    /// for darknodes that have never been registered, or darknodes that have\n    /// been deregistered and refunded.\n    function isRefunded(address _darknodeID) public view returns (bool) {\n        uint256 registeredAt = store.darknodeRegisteredAt(_darknodeID);\n        uint256 deregisteredAt = store.darknodeDeregisteredAt(_darknodeID);\n        return registeredAt == 0 && deregisteredAt == 0;\n    }\n\n    /// @notice Returns if a darknode is refundable. This is true for darknodes\n    /// that have been in the deregistered state for one full epoch.\n    function isRefundable(address _darknodeID) public view returns (bool) {\n        return\n            isDeregistered(_darknodeID) &&\n            store.darknodeDeregisteredAt(_darknodeID) <=\n            (previousEpoch.blocktime - deregistrationInterval);\n    }\n\n    /// @notice Returns if a darknode is in the registered state.\n    function isRegistered(address _darknodeID) public view returns (bool) {\n        return isRegisteredInEpoch(_darknodeID, currentEpoch);\n    }\n\n    /// @notice Returns if a darknode was in the registered state last epoch.\n    function isRegisteredInPreviousEpoch(address _darknodeID)\n        public\n        view\n        returns (bool)\n    {\n        return isRegisteredInEpoch(_darknodeID, previousEpoch);\n    }\n\n    /// @notice Returns if a darknode was in the registered state for a given\n    /// epoch.\n    /// @param _darknodeID The ID of the darknode.\n    /// @param _epoch One of currentEpoch, previousEpoch.\n    function isRegisteredInEpoch(address _darknodeID, Epoch memory _epoch)\n        private\n        view\n        returns (bool)\n    {\n        uint256 registeredAt = store.darknodeRegisteredAt(_darknodeID);\n        uint256 deregisteredAt = store.darknodeDeregisteredAt(_darknodeID);\n        bool registered = registeredAt != 0 && registeredAt <= _epoch.blocktime;\n        bool notDeregistered = deregisteredAt == 0 ||\n            deregisteredAt > _epoch.blocktime;\n        // The Darknode has been registered and has not yet been deregistered,\n        // although it might be pending deregistration\n        return registered && notDeregistered;\n    }\n\n    /// @notice Returns a list of darknodes registered for either the current\n    /// or the previous epoch. See `getDarknodes` for documentation on the\n    /// parameters `_start` and `_count`.\n    /// @param _usePreviousEpoch If true, use the previous epoch, otherwise use\n    ///        the current epoch.\n    function getDarknodesFromEpochs(\n        address _start,\n        uint256 _count,\n        bool _usePreviousEpoch\n    ) private view returns (address[] memory) {\n        uint256 count = _count;\n        if (count == 0) {\n            count = numDarknodes;\n        }\n\n        address[] memory nodes = new address[](count);\n\n        // Begin with the first node in the list\n        uint256 n = 0;\n        address next = _start;\n        if (next == address(0)) {\n            next = store.begin();\n        }\n\n        // Iterate until all registered Darknodes have been collected\n        while (n < count) {\n            if (next == address(0)) {\n                break;\n            }\n            // Only include Darknodes that are currently registered\n            bool includeNext;\n            if (_usePreviousEpoch) {\n                includeNext = isRegisteredInPreviousEpoch(next);\n            } else {\n                includeNext = isRegistered(next);\n            }\n            if (!includeNext) {\n                next = store.next(next);\n                continue;\n            }\n            nodes[n] = next;\n            next = store.next(next);\n            n += 1;\n        }\n        return nodes;\n    }\n\n    /// Private function called by `deregister` and `slash`\n    function deregisterDarknode(address _darknodeID) private {\n        address darknodeOperator = store.darknodeOperator(_darknodeID);\n\n        // Flag the darknode for deregistration\n        store.updateDarknodeDeregisteredAt(\n            _darknodeID,\n            currentEpoch.blocktime.add(minimumEpochInterval)\n        );\n        numDarknodesNextEpoch = numDarknodesNextEpoch.sub(1);\n\n        // Emit an event\n        emit LogDarknodeDeregistered(darknodeOperator, _darknodeID);\n    }\n\n    function getDarknodeCountFromEpochs()\n        private\n        view\n        returns (uint256, uint256, uint256)\n    {\n        // Begin with the first node in the list\n        uint256 nPreviousEpoch = 0;\n        uint256 nCurrentEpoch = 0;\n        uint256 nNextEpoch = 0;\n        address next = store.begin();\n\n        // Iterate until all registered Darknodes have been collected\n        while (true) {\n            // End of darknode list.\n            if (next == address(0)) {\n                break;\n            }\n\n            if (isRegisteredInPreviousEpoch(next)) {\n                nPreviousEpoch += 1;\n            }\n\n            if (isRegistered(next)) {\n                nCurrentEpoch += 1;\n            }\n\n            // Darknode is registered and has not deregistered, or is pending\n            // becoming registered.\n            if (\n                ((isRegistered(next) && !isPendingDeregistration(next)) ||\n                    isPendingRegistration(next))\n            ) {\n                nNextEpoch += 1;\n            }\n            next = store.next(next);\n        }\n        return (nPreviousEpoch, nCurrentEpoch, nNextEpoch);\n    }\n}\n\n/* solium-disable-next-line no-empty-blocks */\ncontract DarknodeRegistryProxy is InitializableAdminUpgradeabilityProxy {}\n",
  "sourcePath": "/home/noah/github/renproject/ren-sol/contracts/DarknodeRegistry/DarknodeRegistry.sol",
  "compiler": {
    "name": "solc",
    "version": "0.5.16+commit.9c3226ce.Emscripten.clang"
  },
  "schemaVersion": "3.0.23",
  "updatedAt": "2020-03-30T04:16:04.801Z",
  "networkType": "ethereum",
  "devdoc": {
    "methods": {
      "admin()": {
        "return": "The address of the proxy admin."
      },
      "changeAdmin(address)": {
        "details": "Changes the admin of the proxy. Only the current admin can call this function.",
        "params": {
          "newAdmin": "Address to transfer proxy administration to."
        }
      },
      "implementation()": {
        "return": "The address of the implementation."
      },
      "initialize(address,address,bytes)": {
        "params": {
          "_admin": "Address of the proxy administrator.",
          "_data": "Data to send as msg.data to the implementation to initialize the proxied contract. It should include the signature and the parameters of the function to be called, as described in https://solidity.readthedocs.io/en/v0.4.24/abi-spec.html#function-selector-and-argument-encoding. This parameter is optional, if no data is given the initialization call to proxied contract will be skipped.",
          "_logic": "address of the initial implementation."
        }
      },
      "initialize(address,bytes)": {
        "details": "Contract initializer.",
        "params": {
          "_data": "Data to send as msg.data to the implementation to initialize the proxied contract. It should include the signature and the parameters of the function to be called, as described in https://solidity.readthedocs.io/en/v0.4.24/abi-spec.html#function-selector-and-argument-encoding. This parameter is optional, if no data is given the initialization call to proxied contract will be skipped.",
          "_logic": "Address of the initial implementation."
        }
      },
      "upgradeTo(address)": {
        "details": "Upgrade the backing implementation of the proxy. Only the admin can call this function.",
        "params": {
          "newImplementation": "Address of the new implementation."
        }
      },
      "upgradeToAndCall(address,bytes)": {
        "details": "Upgrade the backing implementation of the proxy and call a function on the new implementation. This is useful to initialize the proxied contract.",
        "params": {
          "data": "Data to send as msg.data in the low level call. It should include the signature and the parameters of the function to be called, as described in https://solidity.readthedocs.io/en/v0.4.24/abi-spec.html#function-selector-and-argument-encoding.",
          "newImplementation": "Address of the new implementation."
        }
      }
    }
  },
  "userdoc": {
    "methods": {
      "initialize(address,address,bytes)": {
        "notice": "Contract initializer."
      }
    }
  }
}