{
  "contractName": "DarknodeSlasher",
  "abi": [
    {
      "inputs": [
        {
          "internalType": "contract DarknodeRegistryLogicV1",
          "name": "_darknodeRegistry",
          "type": "address"
        }
      ],
      "payable": false,
      "stateMutability": "nonpayable",
      "type": "constructor"
    },
    {
      "anonymous": false,
      "inputs": [
        {
          "indexed": true,
          "internalType": "contract DarknodeRegistryLogicV1",
          "name": "_previousDarknodeRegistry",
          "type": "address"
        },
        {
          "indexed": true,
          "internalType": "contract DarknodeRegistryLogicV1",
          "name": "_nextDarknodeRegistry",
          "type": "address"
        }
      ],
      "name": "LogDarknodeRegistryUpdated",
      "type": "event"
    },
    {
      "anonymous": false,
      "inputs": [
        {
          "indexed": true,
          "internalType": "address",
          "name": "previousOwner",
          "type": "address"
        },
        {
          "indexed": true,
          "internalType": "address",
          "name": "newOwner",
          "type": "address"
        }
      ],
      "name": "OwnershipTransferred",
      "type": "event"
    },
    {
      "constant": true,
      "inputs": [],
      "name": "blacklistSlashPercent",
      "outputs": [
        {
          "internalType": "uint256",
          "name": "",
          "type": "uint256"
        }
      ],
      "payable": false,
      "stateMutability": "view",
      "type": "function"
    },
    {
      "constant": true,
      "inputs": [
        {
          "internalType": "address",
          "name": "",
          "type": "address"
        }
      ],
      "name": "blacklisted",
      "outputs": [
        {
          "internalType": "bool",
          "name": "",
          "type": "bool"
        }
      ],
      "payable": false,
      "stateMutability": "view",
      "type": "function"
    },
    {
      "constant": false,
      "inputs": [],
      "name": "claimOwnership",
      "outputs": [],
      "payable": false,
      "stateMutability": "nonpayable",
      "type": "function"
    },
    {
      "constant": true,
      "inputs": [],
      "name": "darknodeRegistry",
      "outputs": [
        {
          "internalType": "contract DarknodeRegistryLogicV1",
          "name": "",
          "type": "address"
        }
      ],
      "payable": false,
      "stateMutability": "view",
      "type": "function"
    },
    {
      "constant": false,
      "inputs": [
        {
          "internalType": "address",
          "name": "_nextOwner",
          "type": "address"
        }
      ],
      "name": "initialize",
      "outputs": [],
      "payable": false,
      "stateMutability": "nonpayable",
      "type": "function"
    },
    {
      "constant": true,
      "inputs": [],
      "name": "isOwner",
      "outputs": [
        {
          "internalType": "bool",
          "name": "",
          "type": "bool"
        }
      ],
      "payable": false,
      "stateMutability": "view",
      "type": "function"
    },
    {
      "constant": true,
      "inputs": [],
      "name": "maliciousSlashPercent",
      "outputs": [
        {
          "internalType": "uint256",
          "name": "",
          "type": "uint256"
        }
      ],
      "payable": false,
      "stateMutability": "view",
      "type": "function"
    },
    {
      "constant": true,
      "inputs": [],
      "name": "owner",
      "outputs": [
        {
          "internalType": "address",
          "name": "",
          "type": "address"
        }
      ],
      "payable": false,
      "stateMutability": "view",
      "type": "function"
    },
    {
      "constant": true,
      "inputs": [],
      "name": "pendingOwner",
      "outputs": [
        {
          "internalType": "address",
          "name": "",
          "type": "address"
        }
      ],
      "payable": false,
      "stateMutability": "view",
      "type": "function"
    },
    {
      "constant": false,
      "inputs": [],
      "name": "renounceOwnership",
      "outputs": [],
      "payable": false,
      "stateMutability": "nonpayable",
      "type": "function"
    },
    {
      "constant": true,
      "inputs": [],
      "name": "secretRevealSlashPercent",
      "outputs": [
        {
          "internalType": "uint256",
          "name": "",
          "type": "uint256"
        }
      ],
      "payable": false,
      "stateMutability": "view",
      "type": "function"
    },
    {
      "constant": true,
      "inputs": [
        {
          "internalType": "address",
          "name": "",
          "type": "address"
        }
      ],
      "name": "secretRevealed",
      "outputs": [
        {
          "internalType": "bool",
          "name": "",
          "type": "bool"
        }
      ],
      "payable": false,
      "stateMutability": "view",
      "type": "function"
    },
    {
      "constant": true,
      "inputs": [
        {
          "internalType": "uint256",
          "name": "",
          "type": "uint256"
        },
        {
          "internalType": "uint256",
          "name": "",
          "type": "uint256"
        },
        {
          "internalType": "address",
          "name": "",
          "type": "address"
        }
      ],
      "name": "slashed",
      "outputs": [
        {
          "internalType": "bool",
          "name": "",
          "type": "bool"
        }
      ],
      "payable": false,
      "stateMutability": "view",
      "type": "function"
    },
    {
      "constant": false,
      "inputs": [
        {
          "internalType": "address",
          "name": "newOwner",
          "type": "address"
        }
      ],
      "name": "transferOwnership",
      "outputs": [],
      "payable": false,
      "stateMutability": "nonpayable",
      "type": "function"
    },
    {
      "constant": false,
      "inputs": [
        {
          "internalType": "contract DarknodeRegistryLogicV1",
          "name": "_darknodeRegistry",
          "type": "address"
        }
      ],
      "name": "updateDarknodeRegistry",
      "outputs": [],
      "payable": false,
      "stateMutability": "nonpayable",
      "type": "function"
    },
    {
      "constant": false,
      "inputs": [
        {
          "internalType": "uint256",
          "name": "_percentage",
          "type": "uint256"
        }
      ],
      "name": "setBlacklistSlashPercent",
      "outputs": [],
      "payable": false,
      "stateMutability": "nonpayable",
      "type": "function"
    },
    {
      "constant": false,
      "inputs": [
        {
          "internalType": "uint256",
          "name": "_percentage",
          "type": "uint256"
        }
      ],
      "name": "setMaliciousSlashPercent",
      "outputs": [],
      "payable": false,
      "stateMutability": "nonpayable",
      "type": "function"
    },
    {
      "constant": false,
      "inputs": [
        {
          "internalType": "uint256",
          "name": "_percentage",
          "type": "uint256"
        }
      ],
      "name": "setSecretRevealSlashPercent",
      "outputs": [],
      "payable": false,
      "stateMutability": "nonpayable",
      "type": "function"
    },
    {
      "constant": false,
      "inputs": [
        {
          "internalType": "address",
          "name": "_guilty",
          "type": "address"
        },
        {
          "internalType": "address",
          "name": "_challenger",
          "type": "address"
        },
        {
          "internalType": "uint256",
          "name": "_percentage",
          "type": "uint256"
        }
      ],
      "name": "slash",
      "outputs": [],
      "payable": false,
      "stateMutability": "nonpayable",
      "type": "function"
    },
    {
      "constant": false,
      "inputs": [
        {
          "internalType": "address",
          "name": "_guilty",
          "type": "address"
        }
      ],
      "name": "blacklist",
      "outputs": [],
      "payable": false,
      "stateMutability": "nonpayable",
      "type": "function"
    },
    {
      "constant": false,
      "inputs": [
        {
          "internalType": "uint256",
          "name": "_height",
          "type": "uint256"
        },
        {
          "internalType": "uint256",
          "name": "_round",
          "type": "uint256"
        },
        {
          "internalType": "bytes",
          "name": "_blockhash1",
          "type": "bytes"
        },
        {
          "internalType": "uint256",
          "name": "_validRound1",
          "type": "uint256"
        },
        {
          "internalType": "bytes",
          "name": "_signature1",
          "type": "bytes"
        },
        {
          "internalType": "bytes",
          "name": "_blockhash2",
          "type": "bytes"
        },
        {
          "internalType": "uint256",
          "name": "_validRound2",
          "type": "uint256"
        },
        {
          "internalType": "bytes",
          "name": "_signature2",
          "type": "bytes"
        }
      ],
      "name": "slashDuplicatePropose",
      "outputs": [],
      "payable": false,
      "stateMutability": "nonpayable",
      "type": "function"
    },
    {
      "constant": false,
      "inputs": [
        {
          "internalType": "uint256",
          "name": "_height",
          "type": "uint256"
        },
        {
          "internalType": "uint256",
          "name": "_round",
          "type": "uint256"
        },
        {
          "internalType": "bytes",
          "name": "_blockhash1",
          "type": "bytes"
        },
        {
          "internalType": "bytes",
          "name": "_signature1",
          "type": "bytes"
        },
        {
          "internalType": "bytes",
          "name": "_blockhash2",
          "type": "bytes"
        },
        {
          "internalType": "bytes",
          "name": "_signature2",
          "type": "bytes"
        }
      ],
      "name": "slashDuplicatePrevote",
      "outputs": [],
      "payable": false,
      "stateMutability": "nonpayable",
      "type": "function"
    },
    {
      "constant": false,
      "inputs": [
        {
          "internalType": "uint256",
          "name": "_height",
          "type": "uint256"
        },
        {
          "internalType": "uint256",
          "name": "_round",
          "type": "uint256"
        },
        {
          "internalType": "bytes",
          "name": "_blockhash1",
          "type": "bytes"
        },
        {
          "internalType": "bytes",
          "name": "_signature1",
          "type": "bytes"
        },
        {
          "internalType": "bytes",
          "name": "_blockhash2",
          "type": "bytes"
        },
        {
          "internalType": "bytes",
          "name": "_signature2",
          "type": "bytes"
        }
      ],
      "name": "slashDuplicatePrecommit",
      "outputs": [],
      "payable": false,
      "stateMutability": "nonpayable",
      "type": "function"
    },
    {
      "constant": false,
      "inputs": [
        {
          "internalType": "uint256",
          "name": "_a",
          "type": "uint256"
        },
        {
          "internalType": "uint256",
          "name": "_b",
          "type": "uint256"
        },
        {
          "internalType": "uint256",
          "name": "_c",
          "type": "uint256"
        },
        {
          "internalType": "uint256",
          "name": "_d",
          "type": "uint256"
        },
        {
          "internalType": "uint256",
          "name": "_e",
          "type": "uint256"
        },
        {
          "internalType": "uint256",
          "name": "_f",
          "type": "uint256"
        },
        {
          "internalType": "bytes",
          "name": "_signature",
          "type": "bytes"
        }
      ],
      "name": "slashSecretReveal",
      "outputs": [],
      "payable": false,
      "stateMutability": "nonpayable",
      "type": "function"
    }
  ],
  "bytecode": "0x60806040523480156200001157600080fd5b506040516200296638038062002966833981810160405260208110156200003757600080fd5b5051620000503362000076602090811b6200128317901c565b606780546001600160a01b0319166001600160a01b039290921691909117905562000248565b600054610100900460ff16806200009b57506200009b6001600160e01b036200014016565b80620000aa575060005460ff16155b620000e75760405162461bcd60e51b815260040180806020018281038252602e81526020018062002938602e913960400191505060405180910390fd5b600054610100900460ff1615801562000113576000805460ff1961ff0019909116610100171660011790555b62000129826200014660201b62001aab1760201c565b80156200013c576000805461ff00191690555b5050565b303b1590565b600054610100900460ff16806200016b57506200016b6001600160e01b036200014016565b806200017a575060005460ff16155b620001b75760405162461bcd60e51b815260040180806020018281038252602e81526020018062002938602e913960400191505060405180910390fd5b600054610100900460ff16158015620001e3576000805460ff1961ff0019909116610100171660011790555b603380546001600160a01b0319166001600160a01b0384811691909117918290556040519116906000907f8be0079c531659141344cd1fd0a4f28419497f9722a3daafe3b4186f6b6457e0908290a380156200013c576000805461ff00191690555050565b6126e080620002586000396000f3fe608060405234801561001057600080fd5b50600436106101585760003560e01c80639e2095a6116100c3578063cf6dbf771161007c578063cf6dbf7714610798578063dbac26e9146107b5578063e30c3978146107db578063e74f8239146107e3578063f2fde38b14610819578063f9f92be41461083f57610158565b80639e2095a6146105a35780639e45e0d0146105ab578063aaff096d146105b3578063be0e5c75146105d9578063c4d66de81461074c578063c9a8e48e1461077257610158565b80634e71e0c8116101155780634e71e0c814610519578063633bb52214610521578063715018a61461056757806382b684d41461056f5780638da5cb5b146105775780638f32d59b1461059b57610158565b806307732af61461015d578063094ab162146101f157806315b7ecc81461035b5780631dc7da01146104c5578063261db2ad146104e257806337db1777146104ff575b600080fd5b6101ef600480360360e081101561017357600080fd5b81359160208101359160408201359160608101359160808201359160a08101359181019060e0810160c0820135600160201b8111156101b157600080fd5b8201836020820111156101c357600080fd5b803590602001918460018302840111600160201b831117156101e457600080fd5b509092509050610865565b005b6101ef600480360360c081101561020757600080fd5b813591602081013591810190606081016040820135600160201b81111561022d57600080fd5b82018360208201111561023f57600080fd5b803590602001918460018302840111600160201b8311171561026057600080fd5b919390929091602081019035600160201b81111561027d57600080fd5b82018360208201111561028f57600080fd5b803590602001918460018302840111600160201b831117156102b057600080fd5b919390929091602081019035600160201b8111156102cd57600080fd5b8201836020820111156102df57600080fd5b803590602001918460018302840111600160201b8311171561030057600080fd5b919390929091602081019035600160201b81111561031d57600080fd5b82018360208201111561032f57600080fd5b803590602001918460018302840111600160201b8311171561035057600080fd5b5090925090506109b2565b6101ef600480360360c081101561037157600080fd5b813591602081013591810190606081016040820135600160201b81111561039757600080fd5b8201836020820111156103a957600080fd5b803590602001918460018302840111600160201b831117156103ca57600080fd5b919390929091602081019035600160201b8111156103e757600080fd5b8201836020820111156103f957600080fd5b803590602001918460018302840111600160201b8311171561041a57600080fd5b919390929091602081019035600160201b81111561043757600080fd5b82018360208201111561044957600080fd5b803590602001918460018302840111600160201b8311171561046a57600080fd5b919390929091602081019035600160201b81111561048757600080fd5b82018360208201111561049957600080fd5b803590602001918460018302840111600160201b831117156104ba57600080fd5b509092509050610bc0565b6101ef600480360360208110156104db57600080fd5b5035610c9f565b6101ef600480360360208110156104f857600080fd5b5035610d2d565b610507610dbb565b60408051918252519081900360200190f35b6101ef610dc1565b6105536004803603606081101561053757600080fd5b50803590602081013590604001356001600160a01b0316610e41565b604080519115158252519081900360200190f35b6101ef610e67565b610507610ef8565b61057f610efe565b604080516001600160a01b039092168252519081900360200190f35b610553610f0d565b610507610f33565b61057f610f39565b6101ef600480360360208110156105c957600080fd5b50356001600160a01b0316610f48565b6101ef60048036036101008110156105f057600080fd5b813591602081013591810190606081016040820135600160201b81111561061657600080fd5b82018360208201111561062857600080fd5b803590602001918460018302840111600160201b8311171561064957600080fd5b91939092823592604081019060200135600160201b81111561066a57600080fd5b82018360208201111561067c57600080fd5b803590602001918460018302840111600160201b8311171561069d57600080fd5b919390929091602081019035600160201b8111156106ba57600080fd5b8201836020820111156106cc57600080fd5b803590602001918460018302840111600160201b831117156106ed57600080fd5b91939092823592604081019060200135600160201b81111561070e57600080fd5b82018360208201111561072057600080fd5b803590602001918460018302840111600160201b8311171561074157600080fd5b509092509050611028565b6101ef6004803603602081101561076257600080fd5b50356001600160a01b0316611283565b6105536004803603602081101561078857600080fd5b50356001600160a01b031661132f565b6101ef600480360360208110156107ae57600080fd5b5035611344565b610553600480360360208110156107cb57600080fd5b50356001600160a01b03166113d2565b61057f6113e7565b6101ef600480360360608110156107f957600080fd5b506001600160a01b038135811691602081013590911690604001356113f6565b6101ef6004803603602081101561082f57600080fd5b50356001600160a01b03166114b7565b6101ef6004803603602081101561085557600080fd5b50356001600160a01b03166115a8565b60006108ac89898989898989898080601f01602080910402602001604051908101604052809392919081815260200183838082843760009201919091525061170392505050565b6001600160a01b0381166000908152606c602052604090205490915060ff161561091d576040805162461bcd60e51b815260206004820181905260248201527f4461726b6e6f6465536c61736865723a20616c726561647920736c6173686564604482015290519081900360640190fd5b6001600160a01b038082166000818152606c6020526040808220805460ff19166001179055606754606a54825163e74f823960e01b815260048101959095523360248601526044850152905193169263e74f823992606480820193929182900301818387803b15801561098f57600080fd5b505af11580156109a3573d6000803e3d6000fd5b50505050505050505050505050565b6000610a918b8b8b8b8080601f01602080910402602001604051908101604052809392919081815260200183838082843760009201919091525050604080516020601f8f018190048102820181019092528d815292508d91508c908190840183828082843760009201919091525050604080516020601f8e018190048102820181019092528c815292508c91508b908190840183828082843760009201919091525050604080516020601f8d018190048102820181019092528b815292508b91508a90819084018382808284376000920191909152506117af92505050565b60008c8152606b602090815260408083208e845282528083206001600160a01b038516845290915290205490915060ff1615610b14576040805162461bcd60e51b815260206004820181905260248201527f4461726b6e6f6465536c61736865723a20616c726561647920736c6173686564604482015290519081900360640190fd5b60008b8152606b602090815260408083208d845282528083206001600160a01b0380861680865291909352818420805460ff19166001179055606754606954835163e74f823960e01b8152600481019390935233602484015260448301529151919092169263e74f8239926064808201939182900301818387803b158015610b9b57600080fd5b505af1158015610baf573d6000803e3d6000fd5b505050505050505050505050505050565b6000610a918b8b8b8b8080601f01602080910402602001604051908101604052809392919081815260200183838082843760009201919091525050604080516020601f8f018190048102820181019092528d815292508d91508c908190840183828082843760009201919091525050604080516020601f8e018190048102820181019092528c815292508c91508b908190840183828082843760009201919091525050604080516020601f8d018190048102820181019092528b815292508b91508a908190840183828082843760009201919091525061189a92505050565b806064811115610ce05760405162461bcd60e51b81526004018080602001828103825260238152602001806125a36023913960400191505060405180910390fd5b610ce8610f0d565b610d27576040805162461bcd60e51b815260206004820181905260248201526000805160206125c6833981519152604482015290519081900360640190fd5b50606855565b806064811115610d6e5760405162461bcd60e51b81526004018080602001828103825260238152602001806125a36023913960400191505060405180910390fd5b610d76610f0d565b610db5576040805162461bcd60e51b815260206004820181905260248201526000805160206125c6833981519152604482015290519081900360640190fd5b50606955565b606a5481565b6066546001600160a01b0316610dd5611911565b6001600160a01b031614610e1a5760405162461bcd60e51b815260040180806020018281038252602a815260200180612638602a913960400191505060405180910390fd5b606654610e2f906001600160a01b0316611915565b606680546001600160a01b0319169055565b606b60209081526000938452604080852082529284528284209052825290205460ff1681565b610e6f610f0d565b610eae576040805162461bcd60e51b815260206004820181905260248201526000805160206125c6833981519152604482015290519081900360640190fd5b6033546040516000916001600160a01b0316907f8be0079c531659141344cd1fd0a4f28419497f9722a3daafe3b4186f6b6457e0908390a3603380546001600160a01b0319169055565b60685481565b6033546001600160a01b031690565b6033546000906001600160a01b0316610f24611911565b6001600160a01b031614905090565b60695481565b6067546001600160a01b031681565b610f50610f0d565b610f8f576040805162461bcd60e51b815260206004820181905260248201526000805160206125c6833981519152604482015290519081900360640190fd5b6001600160a01b038116610fd45760405162461bcd60e51b81526004018080602001828103825260328152602001806125236032913960400191505060405180910390fd5b606780546001600160a01b038381166001600160a01b03198316179283905560405191811692169082907ff9f6dd5c784f63cc27c1079c73574a73485a6c2e7f7e2181c5eb2be8c693cfb790600090a35050565b600061112c8d8d8d8d8080601f016020809104026020016040519081016040528093929190818152602001838380828437600081840152601f19601f820116905080830192505050505050508c8c8c8080601f016020809104026020016040519081016040528093929190818152602001838380828437600081840152601f19601f820116905080830192505050505050508b8b8080601f01602080910402602001604051908101604052809392919081815260200183838082843760009201919091525050604080516020601f8e018190048102820181019092528c81528e935091508c908c90819084018382808284376000920191909152506119b692505050565b9050606b60008e815260200190815260200160002060008d81526020019081526020016000206000826001600160a01b03166001600160a01b0316815260200190815260200160002060009054906101000a900460ff16156111d5576040805162461bcd60e51b815260206004820181905260248201527f4461726b6e6f6465536c61736865723a20616c726561647920736c6173686564604482015290519081900360640190fd5b60008d8152606b602090815260408083208f845282528083206001600160a01b0380861680865291909352818420805460ff19166001179055606754606954835163e74f823960e01b8152600481019390935233602484015260448301529151919092169263e74f8239926064808201939182900301818387803b15801561125c57600080fd5b505af1158015611270573d6000803e3d6000fd5b5050505050505050505050505050505050565b600054610100900460ff168061129c575061129c611aa5565b806112aa575060005460ff16155b6112e55760405162461bcd60e51b815260040180806020018281038252602e8152602001806125e6602e913960400191505060405180910390fd5b600054610100900460ff16158015611310576000805460ff1961ff0019909116610100171660011790555b61131982611aab565b801561132b576000805461ff00191690555b5050565b606c6020526000908152604090205460ff1681565b8060648111156113855760405162461bcd60e51b81526004018080602001828103825260238152602001806125a36023913960400191505060405180910390fd5b61138d610f0d565b6113cc576040805162461bcd60e51b815260206004820181905260248201526000805160206125c6833981519152604482015290519081900360640190fd5b50606a55565b606d6020526000908152604090205460ff1681565b6066546001600160a01b031681565b6113fe610f0d565b61143d576040805162461bcd60e51b815260206004820181905260248201526000805160206125c6833981519152604482015290519081900360640190fd5b6067546040805163e74f823960e01b81526001600160a01b0386811660048301528581166024830152604482018590529151919092169163e74f823991606480830192600092919082900301818387803b15801561149a57600080fd5b505af11580156114ae573d6000803e3d6000fd5b50505050505050565b6114bf610f0d565b6114fe576040805162461bcd60e51b815260206004820181905260248201526000805160206125c6833981519152604482015290519081900360640190fd5b611506610efe565b6001600160a01b0316816001600160a01b03161415801561153557506066546001600160a01b03828116911614155b611586576040805162461bcd60e51b815260206004820152601c60248201527f436c61696d61626c653a20696e76616c6964206e6577206f776e657200000000604482015290519081900360640190fd5b606680546001600160a01b0319166001600160a01b0392909216919091179055565b6115b0610f0d565b6115ef576040805162461bcd60e51b815260206004820181905260248201526000805160206125c6833981519152604482015290519081900360640190fd5b6001600160a01b0381166000908152606d602052604090205460ff16156116475760405162461bcd60e51b81526004018080602001828103825260248152602001806126146024913960400191505060405180910390fd5b6001600160a01b038082166000908152606d60205260409020805460ff191660011790556067541663e74f82398261167d610efe565b6068546040518463ffffffff1660e01b815260040180846001600160a01b03166001600160a01b03168152602001836001600160a01b03166001600160a01b031681526020018281526020019350505050600060405180830381600087803b1580156116e857600080fd5b505af11580156116fc573d6000803e3d6000fd5b5050505050565b60006117a360026117188a8a8a8a8a8a611b9c565b6040518082805190602001908083835b602083106117475780518252601f199092019160209182019101611728565b51815160209384036101000a60001901801990921691161790526040519190930194509192505080830381855afa158015611786573d6000803e3d6000fd5b5050506040513d602081101561179b57600080fd5b505183611e8c565b98975050505050505050565b60006117bb8483612000565b15611808576040805162461bcd60e51b815260206004820152601860248201527756616c69646174653a2073616d65207369676e617475726560401b604482015290519081900360640190fd5b60006118168888888861207c565b905060006118268989878761207c565b9050806001600160a01b0316826001600160a01b03161461188e576040805162461bcd60e51b815260206004820152601a60248201527f56616c69646174653a20646966666572656e74207369676e6572000000000000604482015290519081900360640190fd5b50979650505050505050565b60006118a68483612000565b156118f3576040805162461bcd60e51b815260206004820152601860248201527756616c69646174653a2073616d65207369676e617475726560401b604482015290519081900360640190fd5b600061190188888888612097565b9050600061182689898787612097565b3390565b6001600160a01b03811661195a5760405162461bcd60e51b81526004018080602001828103825260268152602001806125556026913960400191505060405180910390fd5b6033546040516001600160a01b038084169216907f8be0079c531659141344cd1fd0a4f28419497f9722a3daafe3b4186f6b6457e090600090a3603380546001600160a01b0319166001600160a01b0392909216919091179055565b60006119c28583612000565b15611a0f576040805162461bcd60e51b815260206004820152601860248201527756616c69646174653a2073616d65207369676e617475726560401b604482015290519081900360640190fd5b6000611a1e8a8a8a8a8a6120a9565b90506000611a2f8b8b8888886120a9565b9050806001600160a01b0316826001600160a01b031614611a97576040805162461bcd60e51b815260206004820152601a60248201527f56616c69646174653a20646966666572656e74207369676e6572000000000000604482015290519081900360640190fd5b509998505050505050505050565b303b1590565b600054610100900460ff1680611ac45750611ac4611aa5565b80611ad2575060005460ff16155b611b0d5760405162461bcd60e51b815260040180806020018281038252602e8152602001806125e6602e913960400191505060405180910390fd5b600054610100900460ff16158015611b38576000805460ff1961ff0019909116610100171660011790555b603380546001600160a01b0319166001600160a01b0384811691909117918290556040519116906000907f8be0079c531659141344cd1fd0a4f28419497f9722a3daafe3b4186f6b6457e0908290a3801561132b576000805461ff00191690555050565b6060611ba7876120c6565b611bb0876120c6565b611bb9876120c6565b611bc2876120c6565b611bcb876120c6565b611bd4876120c6565b6040516020018080660a6cac6e4cae8560cb1b815250600701806b0a6d0c2dad2e4a6d0c2e4ca560a31b815250600c0187805190602001908083835b60208310611c2f5780518252601f199092019160209182019101611c10565b6001836020036101000a03801982511681845116808217855250505050505090500180600b60fa1b81525060010186805190602001908083835b60208310611c885780518252601f199092019160209182019101611c69565b51815160209384036101000a600019018019909216911617905266058a6646a6c9c560cb1b919093019081528751600790910192880191508083835b60208310611ce35780518252601f199092019160209182019101611cc4565b51815160209384036101000a6000190180199092169116179052610a4b60f21b919093019081526b0a6646a6ca0e4d2ec96caf2560a31b6002820152650a6646a6c9c560d31b600e8201528651601490910192870191508083835b60208310611d5d5780518252601f199092019160209182019101611d3e565b51815160209384036101000a6000190180199092169116179052610a4b60f21b91909301908152650a6646a6ca0560d31b60028201528551600890910192860191508083835b60208310611dc25780518252601f199092019160209182019101611da3565b51815160209384036101000a6000190180199092169116179052610a4b60f21b91909301908152650a6646a6ca0560d31b60028201528451600890910192850191508083835b60208310611e275780518252601f199092019160209182019101611e08565b5181516020939093036101000a6000190180199091169216919091179052602960f81b9201828152600181018390526002810183905260038101929092525060408051808303601b19018152600490920190529e9d5050505050505050505050505050565b60008151604114611ece5760405162461bcd60e51b81526004018080602001828103825260228152602001806126626022913960400191505060405180910390fd5b60208201516040830151606084015160001a7f7fffffffffffffffffffffffffffffff5d576e7357a4501ddfe92f46681b20a0821115611f3f5760405162461bcd60e51b81526004018080602001828103825260288152602001806126846028913960400191505060405180910390fd5b8060ff16601b14158015611f5757508060ff16601c14155b15611f935760405162461bcd60e51b815260040180806020018281038252602881526020018061257b6028913960400191505060405180910390fd5b6040805160008152602080820180845289905260ff8416828401526060820186905260808201859052915160019260a0808401939192601f1981019281900390910190855afa158015611fea573d6000803e3d6000fd5b5050506020604051035193505050505b92915050565b6000815183511461201357506000611ffa565b60005b83518110156120725782818151811061202b57fe5b602001015160f81c60f81b6001600160f81b03191684828151811061204c57fe5b01602001516001600160f81b0319161461206a576000915050611ffa565b600101612016565b5060019392505050565b600061208e6002611718878787612189565b95945050505050565b600061208e60026117188787876122f1565b60006120bc600261171888888888612351565b9695505050505050565b6060816120eb57506040805180820190915260018152600360fc1b6020820152612184565b8160005b811561210357600101600a820491506120ef565b6060816040519080825280601f01601f191660200182016040528015612130576020820181803883390190505b50905060001982015b851561217e57600a860660300160f81b8282806001900393508151811061215c57fe5b60200101906001600160f81b031916908160001a905350600a86049550612139565b50925050505b919050565b6060612194846120c6565b61219d846120c6565b83604051602001808070507265636f6d6d6974284865696768743d60781b81525060110184805190602001908083835b602083106121ec5780518252601f1990920191602091820191016121cd565b51815160209384036101000a6000190180199092169116179052662c526f756e643d60c81b919093019081528551600790910192860191508083835b602083106122475780518252601f199092019160209182019101612228565b51815160209384036101000a60001901801990921691161790526a2c426c6f636b486173683d60a81b919093019081528451600b90910192850191508083835b602083106122a65780518252601f199092019160209182019101612287565b6001836020036101000a03801982511681845116808217855250505050505090500180602960f81b815250600101935050505060405160208183030381529060405290509392505050565b60606122fc846120c6565b612305846120c6565b8360405160200180806e507265766f7465284865696768743d60881b815250600f018480519060200190808383602083106121ec5780518252601f1990920191602091820191016121cd565b606061235c856120c6565b612365856120c6565b8461236f856120c6565b60405160200180806e50726f706f7365284865696768743d60881b815250600f0185805190602001908083835b602083106123bb5780518252601f19909201916020918201910161239c565b51815160209384036101000a6000190180199092169116179052662c526f756e643d60c81b919093019081528651600790910192870191508083835b602083106124165780518252601f1990920191602091820191016123f7565b51815160209384036101000a60001901801990921691161790526a2c426c6f636b486173683d60a81b919093019081528551600b90910192860191508083835b602083106124755780518252601f199092019160209182019101612456565b51815160209384036101000a60001901801990921691161790526b2c56616c6964526f756e643d60a01b919093019081528451600c90910192850191508083835b602083106124d55780518252601f1990920191602091820191016124b6565b6001836020036101000a03801982511681845116808217855250505050505090500180602960f81b815250600101945050505050604051602081830303815290604052905094935050505056fe4461726b6e6f6465536c61736865723a20696e76616c6964204461726b6e6f646520526567697374727920616464726573734f776e61626c653a206e6577206f776e657220697320746865207a65726f206164647265737345434453413a207369676e61747572652e7620697320696e207468652077726f6e672072616e67654461726b6e6f6465536c61736865723a20696e76616c69642070657263656e746167654f776e61626c653a2063616c6c6572206973206e6f7420746865206f776e6572436f6e747261637420696e7374616e63652068617320616c7265616479206265656e20696e697469616c697a65644461726b6e6f6465536c61736865723a20616c726561647920626c61636b6c6973746564436c61696d61626c653a2063616c6c6572206973206e6f74207468652070656e64696e67206f776e657245434453413a207369676e6174757265206c656e67746820697320696e76616c696445434453413a207369676e61747572652e7320697320696e207468652077726f6e672072616e6765a265627a7a723158201e908c339c7ec894a121962f8af3bc560d38264390ab734850dc3fa2bdefeabe64736f6c63430005100032436f6e747261637420696e7374616e63652068617320616c7265616479206265656e20696e697469616c697a6564",
  "source": "pragma solidity 0.5.16;\n\nimport \"../Governance/Claimable.sol\";\nimport \"../libraries/Validate.sol\";\nimport \"../DarknodeRegistry/DarknodeRegistry.sol\";\n\n/// @notice DarknodeSlasher will become a voting system for darknodes to\n/// deregister other misbehaving darknodes.\n/// Right now, it is a placeholder.\ncontract DarknodeSlasher is Claimable {\n    DarknodeRegistryLogicV1 public darknodeRegistry;\n\n    uint256 public blacklistSlashPercent;\n    uint256 public maliciousSlashPercent;\n    uint256 public secretRevealSlashPercent;\n\n    // Malicious Darknodes can be slashed for each height and round\n    // mapping of height -> round -> guilty address -> slashed\n    mapping(uint256 => mapping(uint256 => mapping(address => bool))) public slashed;\n\n    // mapping of darknodes which have revealed their secret\n    mapping(address => bool) public secretRevealed;\n\n    // mapping of address to whether the darknode has been blacklisted\n    mapping(address => bool) public blacklisted;\n\n    /// @notice Emitted when the DarknodeRegistry is updated.\n    /// @param _previousDarknodeRegistry The address of the old registry.\n    /// @param _nextDarknodeRegistry The address of the new registry.\n    event LogDarknodeRegistryUpdated(\n        DarknodeRegistryLogicV1 indexed _previousDarknodeRegistry,\n        DarknodeRegistryLogicV1 indexed _nextDarknodeRegistry\n    );\n\n    /// @notice Restrict a function to have a valid percentage.\n    modifier validPercent(uint256 _percent) {\n        require(_percent <= 100, \"DarknodeSlasher: invalid percentage\");\n        _;\n    }\n\n    constructor(DarknodeRegistryLogicV1 _darknodeRegistry) public {\n        Claimable.initialize(msg.sender);\n        darknodeRegistry = _darknodeRegistry;\n    }\n\n    /// @notice Allows the contract owner to update the address of the\n    /// darknode registry contract.\n    /// @param _darknodeRegistry The address of the Darknode Registry\n    /// contract.\n    function updateDarknodeRegistry(DarknodeRegistryLogicV1 _darknodeRegistry)\n        external\n        onlyOwner\n    {\n        require(\n            address(_darknodeRegistry) != address(0x0),\n            \"DarknodeSlasher: invalid Darknode Registry address\"\n        );\n        DarknodeRegistryLogicV1 previousDarknodeRegistry = darknodeRegistry;\n        darknodeRegistry = _darknodeRegistry;\n        emit LogDarknodeRegistryUpdated(\n            previousDarknodeRegistry,\n            darknodeRegistry\n        );\n    }\n\n    function setBlacklistSlashPercent(uint256 _percentage)\n        public\n        validPercent(_percentage)\n        onlyOwner\n    {\n        blacklistSlashPercent = _percentage;\n    }\n\n    function setMaliciousSlashPercent(uint256 _percentage)\n        public\n        validPercent(_percentage)\n        onlyOwner\n    {\n        maliciousSlashPercent = _percentage;\n    }\n\n    function setSecretRevealSlashPercent(uint256 _percentage)\n        public\n        validPercent(_percentage)\n        onlyOwner\n    {\n        secretRevealSlashPercent = _percentage;\n    }\n\n    function slash(address _guilty, address _challenger, uint256 _percentage)\n        external\n        onlyOwner\n    {\n        darknodeRegistry.slash(_guilty, _challenger, _percentage);\n    }\n\n    function blacklist(address _guilty) external onlyOwner {\n        require(!blacklisted[_guilty], \"DarknodeSlasher: already blacklisted\");\n        blacklisted[_guilty] = true;\n        darknodeRegistry.slash(_guilty, owner(), blacklistSlashPercent);\n    }\n\n    function slashDuplicatePropose(\n        uint256 _height,\n        uint256 _round,\n        bytes calldata _blockhash1,\n        uint256 _validRound1,\n        bytes calldata _signature1,\n        bytes calldata _blockhash2,\n        uint256 _validRound2,\n        bytes calldata _signature2\n    ) external {\n        address signer = Validate.duplicatePropose(\n            _height,\n            _round,\n            _blockhash1,\n            _validRound1,\n            _signature1,\n            _blockhash2,\n            _validRound2,\n            _signature2\n        );\n        require(\n            !slashed[_height][_round][signer],\n            \"DarknodeSlasher: already slashed\"\n        );\n        slashed[_height][_round][signer] = true;\n        darknodeRegistry.slash(signer, msg.sender, maliciousSlashPercent);\n    }\n\n    function slashDuplicatePrevote(\n        uint256 _height,\n        uint256 _round,\n        bytes calldata _blockhash1,\n        bytes calldata _signature1,\n        bytes calldata _blockhash2,\n        bytes calldata _signature2\n    ) external {\n        address signer = Validate.duplicatePrevote(\n            _height,\n            _round,\n            _blockhash1,\n            _signature1,\n            _blockhash2,\n            _signature2\n        );\n        require(\n            !slashed[_height][_round][signer],\n            \"DarknodeSlasher: already slashed\"\n        );\n        slashed[_height][_round][signer] = true;\n        darknodeRegistry.slash(signer, msg.sender, maliciousSlashPercent);\n    }\n\n    function slashDuplicatePrecommit(\n        uint256 _height,\n        uint256 _round,\n        bytes calldata _blockhash1,\n        bytes calldata _signature1,\n        bytes calldata _blockhash2,\n        bytes calldata _signature2\n    ) external {\n        address signer = Validate.duplicatePrecommit(\n            _height,\n            _round,\n            _blockhash1,\n            _signature1,\n            _blockhash2,\n            _signature2\n        );\n        require(\n            !slashed[_height][_round][signer],\n            \"DarknodeSlasher: already slashed\"\n        );\n        slashed[_height][_round][signer] = true;\n        darknodeRegistry.slash(signer, msg.sender, maliciousSlashPercent);\n    }\n\n    function slashSecretReveal(\n        uint256 _a,\n        uint256 _b,\n        uint256 _c,\n        uint256 _d,\n        uint256 _e,\n        uint256 _f,\n        bytes calldata _signature\n    ) external {\n        address signer = Validate.recoverSecret(\n            _a,\n            _b,\n            _c,\n            _d,\n            _e,\n            _f,\n            _signature\n        );\n        require(!secretRevealed[signer], \"DarknodeSlasher: already slashed\");\n        secretRevealed[signer] = true;\n        darknodeRegistry.slash(signer, msg.sender, secretRevealSlashPercent);\n    }\n}\n",
  "sourcePath": "/home/noah/github/renproject/ren-sol/contracts/DarknodeSlasher/DarknodeSlasher.sol",
  "compiler": {
    "name": "solc",
    "version": "0.5.16+commit.9c3226ce.Emscripten.clang"
  },
  "schemaVersion": "3.0.23",
  "updatedAt": "2020-03-30T04:16:04.864Z",
  "networkType": "ethereum",
  "devdoc": {
    "methods": {
      "isOwner()": {
        "details": "Returns true if the caller is the current owner."
      },
      "owner()": {
        "details": "Returns the address of the current owner."
      },
      "renounceOwnership()": {
        "details": "Leaves the contract without owner. It will not be possible to call `onlyOwner` functions anymore. Can only be called by the current owner.     * > Note: Renouncing ownership will leave the contract without an owner, thereby removing any functionality that is only available to the owner."
      },
      "updateDarknodeRegistry(address)": {
        "params": {
          "_darknodeRegistry": "The address of the Darknode Registry contract."
        }
      }
    }
  },
  "userdoc": {
    "methods": {
      "updateDarknodeRegistry(address)": {
        "notice": "Allows the contract owner to update the address of the darknode registry contract."
      }
    },
    "notice": "DarknodeSlasher will become a voting system for darknodes to deregister other misbehaving darknodes. Right now, it is a placeholder."
  }
}