{
  "contractName": "DarknodeRegistryStore",
  "abi": [
    {
      "inputs": [
        {
          "internalType": "string",
          "name": "_VERSION",
          "type": "string"
        },
        {
          "internalType": "contract RenToken",
          "name": "_ren",
          "type": "address"
        }
      ],
      "payable": false,
      "stateMutability": "nonpayable",
      "type": "constructor"
    },
    {
      "anonymous": false,
      "inputs": [
        {
          "indexed": true,
          "internalType": "address",
          "name": "previousOwner",
          "type": "address"
        },
        {
          "indexed": true,
          "internalType": "address",
          "name": "newOwner",
          "type": "address"
        }
      ],
      "name": "OwnershipTransferred",
      "type": "event"
    },
    {
      "constant": true,
      "inputs": [],
      "name": "VERSION",
      "outputs": [
        {
          "internalType": "string",
          "name": "",
          "type": "string"
        }
      ],
      "payable": false,
      "stateMutability": "view",
      "type": "function"
    },
    {
      "constant": false,
      "inputs": [
        {
          "internalType": "address",
          "name": "_token",
          "type": "address"
        }
      ],
      "name": "blacklistRecoverableToken",
      "outputs": [],
      "payable": false,
      "stateMutability": "nonpayable",
      "type": "function"
    },
    {
      "constant": false,
      "inputs": [],
      "name": "claimOwnership",
      "outputs": [],
      "payable": false,
      "stateMutability": "nonpayable",
      "type": "function"
    },
    {
      "constant": false,
      "inputs": [
        {
          "internalType": "address",
          "name": "_nextOwner",
          "type": "address"
        }
      ],
      "name": "initialize",
      "outputs": [],
      "payable": false,
      "stateMutability": "nonpayable",
      "type": "function"
    },
    {
      "constant": true,
      "inputs": [],
      "name": "isOwner",
      "outputs": [
        {
          "internalType": "bool",
          "name": "",
          "type": "bool"
        }
      ],
      "payable": false,
      "stateMutability": "view",
      "type": "function"
    },
    {
      "constant": true,
      "inputs": [],
      "name": "owner",
      "outputs": [
        {
          "internalType": "address",
          "name": "",
          "type": "address"
        }
      ],
      "payable": false,
      "stateMutability": "view",
      "type": "function"
    },
    {
      "constant": true,
      "inputs": [],
      "name": "pendingOwner",
      "outputs": [
        {
          "internalType": "address",
          "name": "",
          "type": "address"
        }
      ],
      "payable": false,
      "stateMutability": "view",
      "type": "function"
    },
    {
      "constant": false,
      "inputs": [
        {
          "internalType": "address",
          "name": "_token",
          "type": "address"
        }
      ],
      "name": "recoverTokens",
      "outputs": [],
      "payable": false,
      "stateMutability": "nonpayable",
      "type": "function"
    },
    {
      "constant": true,
      "inputs": [],
      "name": "ren",
      "outputs": [
        {
          "internalType": "contract RenToken",
          "name": "",
          "type": "address"
        }
      ],
      "payable": false,
      "stateMutability": "view",
      "type": "function"
    },
    {
      "constant": false,
      "inputs": [],
      "name": "renounceOwnership",
      "outputs": [],
      "payable": false,
      "stateMutability": "nonpayable",
      "type": "function"
    },
    {
      "constant": false,
      "inputs": [
        {
          "internalType": "address",
          "name": "newOwner",
          "type": "address"
        }
      ],
      "name": "transferOwnership",
      "outputs": [],
      "payable": false,
      "stateMutability": "nonpayable",
      "type": "function"
    },
    {
      "constant": false,
      "inputs": [
        {
          "internalType": "address",
          "name": "_darknodeID",
          "type": "address"
        },
        {
          "internalType": "address payable",
          "name": "_darknodeOperator",
          "type": "address"
        },
        {
          "internalType": "uint256",
          "name": "_bond",
          "type": "uint256"
        },
        {
          "internalType": "bytes",
          "name": "_publicKey",
          "type": "bytes"
        },
        {
          "internalType": "uint256",
          "name": "_registeredAt",
          "type": "uint256"
        },
        {
          "internalType": "uint256",
          "name": "_deregisteredAt",
          "type": "uint256"
        }
      ],
      "name": "appendDarknode",
      "outputs": [],
      "payable": false,
      "stateMutability": "nonpayable",
      "type": "function"
    },
    {
      "constant": true,
      "inputs": [],
      "name": "begin",
      "outputs": [
        {
          "internalType": "address",
          "name": "",
          "type": "address"
        }
      ],
      "payable": false,
      "stateMutability": "view",
      "type": "function"
    },
    {
      "constant": true,
      "inputs": [
        {
          "internalType": "address",
          "name": "darknodeID",
          "type": "address"
        }
      ],
      "name": "next",
      "outputs": [
        {
          "internalType": "address",
          "name": "",
          "type": "address"
        }
      ],
      "payable": false,
      "stateMutability": "view",
      "type": "function"
    },
    {
      "constant": false,
      "inputs": [
        {
          "internalType": "address",
          "name": "darknodeID",
          "type": "address"
        }
      ],
      "name": "removeDarknode",
      "outputs": [],
      "payable": false,
      "stateMutability": "nonpayable",
      "type": "function"
    },
    {
      "constant": false,
      "inputs": [
        {
          "internalType": "address",
          "name": "darknodeID",
          "type": "address"
        },
        {
          "internalType": "uint256",
          "name": "decreasedBond",
          "type": "uint256"
        }
      ],
      "name": "updateDarknodeBond",
      "outputs": [],
      "payable": false,
      "stateMutability": "nonpayable",
      "type": "function"
    },
    {
      "constant": false,
      "inputs": [
        {
          "internalType": "address",
          "name": "darknodeID",
          "type": "address"
        },
        {
          "internalType": "uint256",
          "name": "deregisteredAt",
          "type": "uint256"
        }
      ],
      "name": "updateDarknodeDeregisteredAt",
      "outputs": [],
      "payable": false,
      "stateMutability": "nonpayable",
      "type": "function"
    },
    {
      "constant": true,
      "inputs": [
        {
          "internalType": "address",
          "name": "darknodeID",
          "type": "address"
        }
      ],
      "name": "darknodeOperator",
      "outputs": [
        {
          "internalType": "address payable",
          "name": "",
          "type": "address"
        }
      ],
      "payable": false,
      "stateMutability": "view",
      "type": "function"
    },
    {
      "constant": true,
      "inputs": [
        {
          "internalType": "address",
          "name": "darknodeID",
          "type": "address"
        }
      ],
      "name": "darknodeBond",
      "outputs": [
        {
          "internalType": "uint256",
          "name": "",
          "type": "uint256"
        }
      ],
      "payable": false,
      "stateMutability": "view",
      "type": "function"
    },
    {
      "constant": true,
      "inputs": [
        {
          "internalType": "address",
          "name": "darknodeID",
          "type": "address"
        }
      ],
      "name": "darknodeRegisteredAt",
      "outputs": [
        {
          "internalType": "uint256",
          "name": "",
          "type": "uint256"
        }
      ],
      "payable": false,
      "stateMutability": "view",
      "type": "function"
    },
    {
      "constant": true,
      "inputs": [
        {
          "internalType": "address",
          "name": "darknodeID",
          "type": "address"
        }
      ],
      "name": "darknodeDeregisteredAt",
      "outputs": [
        {
          "internalType": "uint256",
          "name": "",
          "type": "uint256"
        }
      ],
      "payable": false,
      "stateMutability": "view",
      "type": "function"
    },
    {
      "constant": true,
      "inputs": [
        {
          "internalType": "address",
          "name": "darknodeID",
          "type": "address"
        }
      ],
      "name": "darknodePublicKey",
      "outputs": [
        {
          "internalType": "bytes",
          "name": "",
          "type": "bytes"
        }
      ],
      "payable": false,
      "stateMutability": "view",
      "type": "function"
    }
  ],
  "bytecode": "0x60806040523480156200001157600080fd5b506040516200231738038062002317833981810160405260408110156200003757600080fd5b81019080805160405193929190846401000000008211156200005857600080fd5b9083019060208201858111156200006e57600080fd5b82516401000000008111828201881017156200008957600080fd5b82525081516020918201929091019080838360005b83811015620000b85781810151838201526020016200009e565b50505050905090810190601f168015620000e65780820380516001836020036101000a031916815260200191505b5060405260209081015192506200010991503390620014af6200016a821b17901c565b6200011f336200023460201b62000c2b1760201c565b815162000134906068906020850190620004ae565b50606b80546001600160a01b0319166001600160a01b038381169190911791829055620001629116620002e7565b505062000550565b600054610100900460ff16806200018f57506200018f6001600160e01b036200037016565b806200019e575060005460ff16155b620001db5760405162461bcd60e51b815260040180806020018281038252602e815260200180620022e9602e913960400191505060405180910390fd5b600054610100900460ff1615801562000207576000805460ff1961ff0019909116610100171660011790555b6200021d826200037760201b620019361760201c565b801562000230576000805461ff00191690555b5050565b600054610100900460ff1680620002595750620002596001600160e01b036200037016565b8062000268575060005460ff16155b620002a55760405162461bcd60e51b815260040180806020018281038252602e815260200180620022e9602e913960400191505060405180910390fd5b600054610100900460ff16158015620002d1576000805460ff1961ff0019909116610100171660011790555b6200021d826200016a60201b620014af1760201c565b620002fa6001600160e01b036200047916565b6200034c576040805162461bcd60e51b815260206004820181905260248201527f4f776e61626c653a2063616c6c6572206973206e6f7420746865206f776e6572604482015290519081900360640190fd5b6001600160a01b03166000908152606760205260409020805460ff19166001179055565b303b155b90565b600054610100900460ff16806200039c57506200039c6001600160e01b036200037016565b80620003ab575060005460ff16155b620003e85760405162461bcd60e51b815260040180806020018281038252602e815260200180620022e9602e913960400191505060405180910390fd5b600054610100900460ff1615801562000414576000805460ff1961ff0019909116610100171660011790555b603380546001600160a01b0319166001600160a01b0384811691909117918290556040519116906000907f8be0079c531659141344cd1fd0a4f28419497f9722a3daafe3b4186f6b6457e0908290a3801562000230576000805461ff00191690555050565b6033546000906001600160a01b03166200049b6001600160e01b03620004aa16565b6001600160a01b031614905090565b3390565b828054600181600116156101000203166002900490600052602060002090601f016020900481019282601f10620004f157805160ff191683800117855562000521565b8280016001018555821562000521579182015b828111156200052157825182559160200191906001019062000504565b506200052f92915062000533565b5090565b6200037491905b808211156200052f57600081556001016200053a565b611d8980620005606000396000f3fe608060405234801561001057600080fd5b50600436106101425760003560e01c8063ab73e316116100b8578063e30c39781161007c578063e30c3978146103ad578063ee594a50146103b5578063f2fde38b14610450578063f65d901c14610476578063fbc402fc1461049c578063ffa1ad74146104c857610142565b8063ab73e316146102ef578063b68d931914610315578063c4d66de81461033b578063cad4135714610361578063e2d7c64c1461038757610142565b80634e71e0c81161010a5780634e71e0c81461021d578063715018a6146102255780638a9b40671461022d5780638da5cb5b146102355780638f32d59b1461023d578063a85ef5791461025957610142565b806301930b6e1461014757806316114acd1461017f5780631bce6ff3146101a75780633ac39d4b146101cb57806341b44392146101f7575b600080fd5b61016d6004803603602081101561015d57600080fd5b50356001600160a01b03166104d0565b60408051918252519081900360200190f35b6101a56004803603602081101561019557600080fd5b50356001600160a01b0316610538565b005b6101af6106a9565b604080516001600160a01b039092168252519081900360200190f35b6101a5600480360360408110156101e157600080fd5b506001600160a01b038135169060200135610702565b6101a56004803603602081101561020d57600080fd5b50356001600160a01b0316610768565b6101a56108dc565b6101a561095c565b6101af6109ed565b6101af6109fc565b610245610a0b565b604080519115158252519081900360200190f35b6101a5600480360360c081101561026f57600080fd5b6001600160a01b038235811692602081013590911691604082013591908101906080810160608201356401000000008111156102aa57600080fd5b8201836020820111156102bc57600080fd5b803590602001918460018302840111640100000000831117156102de57600080fd5b919350915080359060200135610a31565b6101af6004803603602081101561030557600080fd5b50356001600160a01b0316610b69565b6101af6004803603602081101561032b57600080fd5b50356001600160a01b0316610bc3565b6101a56004803603602081101561035157600080fd5b50356001600160a01b0316610c2b565b61016d6004803603602081101561037757600080fd5b50356001600160a01b0316610cd6565b61016d6004803603602081101561039d57600080fd5b50356001600160a01b0316610d3e565b6101af610da6565b6103db600480360360208110156103cb57600080fd5b50356001600160a01b0316610db5565b6040805160208082528351818301528351919283929083019185019080838360005b838110156104155781810151838201526020016103fd565b50505050905090810190601f1680156104425780820380516001836020036101000a031916815260200191505b509250505060405180910390f35b6101a56004803603602081101561046657600080fd5b50356001600160a01b0316610eaa565b6101a56004803603602081101561048c57600080fd5b50356001600160a01b0316610f9b565b6101a5600480360360408110156104b257600080fd5b506001600160a01b038135169060200135611006565b6103db6111a2565b60006104da610a0b565b610519576040805162461bcd60e51b81526020600482018190526024820152600080516020611c8a833981519152604482015290519081900360640190fd5b506001600160a01b031660009081526069602052604090206003015490565b610540610a0b565b61057f576040805162461bcd60e51b81526020600482018190526024820152600080516020611c8a833981519152604482015290519081900360640190fd5b6001600160a01b03811660009081526067602052604090205460ff16156105d75760405162461bcd60e51b815260040180806020018281038252602a815260200180611c35602a913960400191505060405180910390fd5b6001600160a01b0381166106175760405133904780156108fc02916000818181858888f19350505050158015610611573d6000803e3d6000fd5b506106a6565b604080516370a0823160e01b815230600482015290516106a69133916001600160a01b038516916370a08231916024808301926020929190829003018186803b15801561066357600080fd5b505afa158015610677573d6000803e3d6000fd5b505050506040513d602081101561068d57600080fd5b50516001600160a01b038416919063ffffffff61123016565b50565b60006106b3610a0b565b6106f2576040805162461bcd60e51b81526020600482018190526024820152600080516020611c8a833981519152604482015290519081900360640190fd5b6106fc606a611282565b90505b90565b61070a610a0b565b610749576040805162461bcd60e51b81526020600482018190526024820152600080516020611c8a833981519152604482015290519081900360640190fd5b6001600160a01b03909116600090815260696020526040902060030155565b610770610a0b565b6107af576040805162461bcd60e51b81526020600482018190526024820152600080516020611c8a833981519152604482015290519081900360640190fd5b6001600160a01b038116600090815260696020526040812060018101805482546001600160a01b0319168355908390556002820183905560038201839055916107fb6004830182611afa565b5050610808606a836112a1565b606b546001600160a01b031663a9059cbb6108216109fc565b836040518363ffffffff1660e01b815260040180836001600160a01b03166001600160a01b0316815260200182815260200192505050602060405180830381600087803b15801561087157600080fd5b505af1158015610885573d6000803e3d6000fd5b505050506040513d602081101561089b57600080fd5b50516108d85760405162461bcd60e51b815260040180806020018281038252602b815260200180611c5f602b913960400191505060405180910390fd5b5050565b6066546001600160a01b03166108f0611376565b6001600160a01b0316146109355760405162461bcd60e51b815260040180806020018281038252602a815260200180611cd8602a913960400191505060405180910390fd5b60665461094a906001600160a01b031661137a565b606680546001600160a01b0319169055565b610964610a0b565b6109a3576040805162461bcd60e51b81526020600482018190526024820152600080516020611c8a833981519152604482015290519081900360640190fd5b6033546040516000916001600160a01b0316907f8be0079c531659141344cd1fd0a4f28419497f9722a3daafe3b4186f6b6457e0908390a3603380546001600160a01b0319169055565b606b546001600160a01b031681565b6033546001600160a01b031690565b6033546000906001600160a01b0316610a22611376565b6001600160a01b031614905090565b610a39610a0b565b610a78576040805162461bcd60e51b81526020600482018190526024820152600080516020611c8a833981519152604482015290519081900360640190fd5b610a80611b3e565b6040518060a00160405280886001600160a01b0316815260200187815260200184815260200183815260200186868080601f01602080910402602001604051908101604052809392919081815260200183838082843760009201829052509390945250506001600160a01b038b8116825260696020908152604092839020855181546001600160a01b031916931692909217825584810151600183015591840151600282015560608401516003820155608084015180519495508594919350610b50926004850192910190611b76565b50905050610b5f606a8961141b565b5050505050505050565b6000610b73610a0b565b610bb2576040805162461bcd60e51b81526020600482018190526024820152600080516020611c8a833981519152604482015290519081900360640190fd5b610bbd606a8361142e565b92915050565b6000610bcd610a0b565b610c0c576040805162461bcd60e51b81526020600482018190526024820152600080516020611c8a833981519152604482015290519081900360640190fd5b506001600160a01b039081166000908152606960205260409020541690565b600054610100900460ff1680610c445750610c446114a9565b80610c52575060005460ff16155b610c8d5760405162461bcd60e51b815260040180806020018281038252602e815260200180611caa602e913960400191505060405180910390fd5b600054610100900460ff16158015610cb8576000805460ff1961ff0019909116610100171660011790555b610cc1826114af565b80156108d8576000805461ff00191690555050565b6000610ce0610a0b565b610d1f576040805162461bcd60e51b81526020600482018190526024820152600080516020611c8a833981519152604482015290519081900360640190fd5b506001600160a01b031660009081526069602052604090206001015490565b6000610d48610a0b565b610d87576040805162461bcd60e51b81526020600482018190526024820152600080516020611c8a833981519152604482015290519081900360640190fd5b506001600160a01b031660009081526069602052604090206002015490565b6066546001600160a01b031681565b6060610dbf610a0b565b610dfe576040805162461bcd60e51b81526020600482018190526024820152600080516020611c8a833981519152604482015290519081900360640190fd5b6001600160a01b03821660009081526069602090815260409182902060040180548351601f600260001961010060018616150201909316929092049182018490048402810184019094528084529091830182828015610e9e5780601f10610e7357610100808354040283529160200191610e9e565b820191906000526020600020905b815481529060010190602001808311610e8157829003601f168201915b50505050509050919050565b610eb2610a0b565b610ef1576040805162461bcd60e51b81526020600482018190526024820152600080516020611c8a833981519152604482015290519081900360640190fd5b610ef96109fc565b6001600160a01b0316816001600160a01b031614158015610f2857506066546001600160a01b03828116911614155b610f79576040805162461bcd60e51b815260206004820152601c60248201527f436c61696d61626c653a20696e76616c6964206e6577206f776e657200000000604482015290519081900360640190fd5b606680546001600160a01b0319166001600160a01b0392909216919091179055565b610fa3610a0b565b610fe2576040805162461bcd60e51b81526020600482018190526024820152600080516020611c8a833981519152604482015290519081900360640190fd5b6001600160a01b03166000908152606760205260409020805460ff19166001179055565b61100e610a0b565b61104d576040805162461bcd60e51b81526020600482018190526024820152600080516020611c8a833981519152604482015290519081900360640190fd5b6001600160a01b0382166000908152606960205260409020600101548082106110a75760405162461bcd60e51b8152600401808060200182810382526029815260200180611d2c6029913960400191505060405180910390fd5b6001600160a01b038084166000908152606960205260409020600101839055606b541663a9059cbb6110d76109fc565b6110e7848663ffffffff61154516565b6040518363ffffffff1660e01b815260040180836001600160a01b03166001600160a01b0316815260200182815260200192505050602060405180830381600087803b15801561113657600080fd5b505af115801561114a573d6000803e3d6000fd5b505050506040513d602081101561116057600080fd5b505161119d5760405162461bcd60e51b815260040180806020018281038252602b815260200180611c5f602b913960400191505060405180910390fd5b505050565b6068805460408051602060026001851615610100026000190190941693909304601f810184900484028201840190925281815292918301828280156112285780601f106111fd57610100808354040283529160200191611228565b820191906000526020600020905b81548152906001019060200180831161120b57829003601f168201915b505050505081565b604080516001600160a01b038416602482015260448082018490528251808303909101815260649091019091526020810180516001600160e01b031663a9059cbb60e01b17905261119d90849061158e565b600080805260209190915260409020600101546001600160a01b031690565b6112ab828261174c565b6112f6576040805162461bcd60e51b8152602060048201526017602482015276131a5b9ad959131a5cdd0e881b9bdd081a5b881b1a5cdd604a1b604482015290519081900360640190fd5b6001600160a01b0390811660008181526020939093526040808420805460018083018054610100938490048816808a52868a209093018054919098166001600160a01b031991821681179098559688529387208054610100600160a81b031916919092021790559190935280546001600160a81b03191690558154169055565b3390565b6001600160a01b0381166113bf5760405162461bcd60e51b8152600401808060200182810382526026815260200180611c0f6026913960400191505060405180910390fd5b6033546040516001600160a01b038084169216907f8be0079c531659141344cd1fd0a4f28419497f9722a3daafe3b4186f6b6457e090600090a3603380546001600160a01b0319166001600160a01b0392909216919091179055565b6108d8826114288461176b565b8361178d565b600061143a838361174c565b611485576040805162461bcd60e51b8152602060048201526017602482015276131a5b9ad959131a5cdd0e881b9bdd081a5b881b1a5cdd604a1b604482015290519081900360640190fd5b506001600160a01b0390811660009081526020929092526040909120600101541690565b303b1590565b600054610100900460ff16806114c857506114c86114a9565b806114d6575060005460ff16155b6115115760405162461bcd60e51b815260040180806020018281038252602e815260200180611caa602e913960400191505060405180910390fd5b600054610100900460ff1615801561153c576000805460ff1961ff0019909116610100171660011790555b610cc182611936565b600061158783836040518060400160405280601e81526020017f536166654d6174683a207375627472616374696f6e206f766572666c6f770000815250611a27565b9392505050565b6115a0826001600160a01b0316611abe565b6115f1576040805162461bcd60e51b815260206004820152601f60248201527f5361666545524332303a2063616c6c20746f206e6f6e2d636f6e747261637400604482015290519081900360640190fd5b60006060836001600160a01b0316836040518082805190602001908083835b6020831061162f5780518252601f199092019160209182019101611610565b6001836020036101000a0380198251168184511680821785525050505050509050019150506000604051808303816000865af19150503d8060008114611691576040519150601f19603f3d011682016040523d82523d6000602084013e611696565b606091505b5091509150816116ed576040805162461bcd60e51b815260206004820181905260248201527f5361666545524332303a206c6f772d6c6576656c2063616c6c206661696c6564604482015290519081900360640190fd5b8051156117465780806020019051602081101561170957600080fd5b50516117465760405162461bcd60e51b815260040180806020018281038252602a815260200180611d02602a913960400191505060405180910390fd5b50505050565b6001600160a01b03166000908152602091909152604090205460ff1690565b60008080526020829052604090205461010090046001600160a01b0316919050565b6001600160a01b0381166117e8576040805162461bcd60e51b815260206004820152601b60248201527f4c696e6b65644c6973743a20696e76616c696420616464726573730000000000604482015290519081900360640190fd5b6117f2838261174c565b15611844576040805162461bcd60e51b815260206004820152601b60248201527f4c696e6b65644c6973743a20616c726561647920696e206c6973740000000000604482015290519081900360640190fd5b61184e838361174c565b8061186057506001600160a01b038216155b6118ab576040805162461bcd60e51b8152602060048201526017602482015276131a5b9ad959131a5cdd0e881b9bdd081a5b881b1a5cdd604a1b604482015290519081900360640190fd5b6001600160a01b0391821660008181526020949094526040808520600190810180549486168088528388208054610100600160a81b03199081166101009788021782558185018054989099166001600160a01b031998891681179099558354909716821790925595875291862080549094169285029290921790925591909252815460ff1916179055565b600054610100900460ff168061194f575061194f6114a9565b8061195d575060005460ff16155b6119985760405162461bcd60e51b815260040180806020018281038252602e815260200180611caa602e913960400191505060405180910390fd5b600054610100900460ff161580156119c3576000805460ff1961ff0019909116610100171660011790555b603380546001600160a01b0319166001600160a01b0384811691909117918290556040519116906000907f8be0079c531659141344cd1fd0a4f28419497f9722a3daafe3b4186f6b6457e0908290a380156108d8576000805461ff00191690555050565b60008184841115611ab65760405162461bcd60e51b81526004018080602001828103825283818151815260200191508051906020019080838360005b83811015611a7b578181015183820152602001611a63565b50505050905090810190601f168015611aa85780820380516001836020036101000a031916815260200191505b509250505060405180910390fd5b505050900390565b6000813f7fc5d2460186f7233c927e7db2dcc703c0e500b653ca82273b7bfad8045d85a4708115801590611af25750808214155b949350505050565b50805460018160011615610100020316600290046000825580601f10611b2057506106a6565b601f0160209004906000526020600020908101906106a69190611bf4565b6040518060a0016040528060006001600160a01b03168152602001600081526020016000815260200160008152602001606081525090565b828054600181600116156101000203166002900490600052602060002090601f016020900481019282601f10611bb757805160ff1916838001178555611be4565b82800160010185558215611be4579182015b82811115611be4578251825591602001919060010190611bc9565b50611bf0929150611bf4565b5090565b6106ff91905b80821115611bf05760008155600101611bfa56fe4f776e61626c653a206e6577206f776e657220697320746865207a65726f206164647265737343616e5265636c61696d546f6b656e733a20746f6b656e206973206e6f74207265636f76657261626c654461726b6e6f6465526567697374727953746f72653a20626f6e64207472616e73666572206661696c65644f776e61626c653a2063616c6c6572206973206e6f7420746865206f776e6572436f6e747261637420696e7374616e63652068617320616c7265616479206265656e20696e697469616c697a6564436c61696d61626c653a2063616c6c6572206973206e6f74207468652070656e64696e67206f776e65725361666545524332303a204552433230206f7065726174696f6e20646964206e6f7420737563636565644461726b6e6f6465526567697374727953746f72653a20626f6e64206e6f7420646563726561736564a265627a7a723158200f47ca61c46f837d1a6d67287c8ee569d4431408367a915b69a7e4e8cabdee5b64736f6c63430005100032436f6e747261637420696e7374616e63652068617320616c7265616479206265656e20696e697469616c697a6564",
  "source": "pragma solidity 0.5.16;\n\nimport \"@openzeppelin/contracts-ethereum-package/contracts/math/SafeMath.sol\";\n\nimport \"../Governance/Claimable.sol\";\nimport \"../libraries/LinkedList.sol\";\nimport \"../RenToken/RenToken.sol\";\nimport \"../libraries/CanReclaimTokens.sol\";\n\n/// @notice This contract stores data and funds for the DarknodeRegistry\n/// contract. The data / fund logic and storage have been separated to improve\n/// upgradability.\ncontract DarknodeRegistryStore is Claimable, CanReclaimTokens {\n    using SafeMath for uint256;\n\n    string public VERSION; // Passed in as a constructor parameter.\n\n    /// @notice Darknodes are stored in the darknode struct. The owner is the\n    /// address that registered the darknode, the bond is the amount of REN that\n    /// was transferred during registration, and the public key is the\n    /// encryption key that should be used when sending sensitive information to\n    /// the darknode.\n    struct Darknode {\n        // The owner of a Darknode is the address that called the register\n        // function. The owner is the only address that is allowed to\n        // deregister the Darknode, unless the Darknode is slashed for\n        // malicious behavior.\n        address payable owner;\n        // The bond is the amount of REN submitted as a bond by the Darknode.\n        // This amount is reduced when the Darknode is slashed for malicious\n        // behavior.\n        uint256 bond;\n        // The block number at which the Darknode is considered registered.\n        uint256 registeredAt;\n        // The block number at which the Darknode is considered deregistered.\n        uint256 deregisteredAt;\n        // The public key used by this Darknode for encrypting sensitive data\n        // off chain. It is assumed that the Darknode has access to the\n        // respective private key, and that there is an agreement on the format\n        // of the public key.\n        bytes publicKey;\n    }\n\n    /// Registry data.\n    mapping(address => Darknode) private darknodeRegistry;\n    LinkedList.List private darknodes;\n\n    // RenToken.\n    RenToken public ren;\n\n    /// @notice The contract constructor.\n    ///\n    /// @param _VERSION A string defining the contract version.\n    /// @param _ren The address of the RenToken contract.\n    constructor(string memory _VERSION, RenToken _ren) public {\n        Claimable.initialize(msg.sender);\n        CanReclaimTokens.initialize(msg.sender);\n        VERSION = _VERSION;\n        ren = _ren;\n        blacklistRecoverableToken(address(ren));\n    }\n\n    /// @notice Instantiates a darknode and appends it to the darknodes\n    /// linked-list.\n    ///\n    /// @param _darknodeID The darknode's ID.\n    /// @param _darknodeOperator The darknode's owner's address.\n    /// @param _bond The darknode's bond value.\n    /// @param _publicKey The darknode's public key.\n    /// @param _registeredAt The time stamp when the darknode is registered.\n    /// @param _deregisteredAt The time stamp when the darknode is deregistered.\n    function appendDarknode(\n        address _darknodeID,\n        address payable _darknodeOperator,\n        uint256 _bond,\n        bytes calldata _publicKey,\n        uint256 _registeredAt,\n        uint256 _deregisteredAt\n    ) external onlyOwner {\n        Darknode memory darknode = Darknode({\n            owner: _darknodeOperator,\n            bond: _bond,\n            publicKey: _publicKey,\n            registeredAt: _registeredAt,\n            deregisteredAt: _deregisteredAt\n        });\n        darknodeRegistry[_darknodeID] = darknode;\n        LinkedList.append(darknodes, _darknodeID);\n    }\n\n    /// @notice Returns the address of the first darknode in the store.\n    function begin() external view onlyOwner returns (address) {\n        return LinkedList.begin(darknodes);\n    }\n\n    /// @notice Returns the address of the next darknode in the store after the\n    /// given address.\n    function next(address darknodeID)\n        external\n        view\n        onlyOwner\n        returns (address)\n    {\n        return LinkedList.next(darknodes, darknodeID);\n    }\n\n    /// @notice Removes a darknode from the store and transfers its bond to the\n    /// owner of this contract.\n    function removeDarknode(address darknodeID) external onlyOwner {\n        uint256 bond = darknodeRegistry[darknodeID].bond;\n        delete darknodeRegistry[darknodeID];\n        LinkedList.remove(darknodes, darknodeID);\n        require(\n            ren.transfer(owner(), bond),\n            \"DarknodeRegistryStore: bond transfer failed\"\n        );\n    }\n\n    /// @notice Updates the bond of a darknode. The new bond must be smaller\n    /// than the previous bond of the darknode.\n    function updateDarknodeBond(address darknodeID, uint256 decreasedBond)\n        external\n        onlyOwner\n    {\n        uint256 previousBond = darknodeRegistry[darknodeID].bond;\n        require(\n            decreasedBond < previousBond,\n            \"DarknodeRegistryStore: bond not decreased\"\n        );\n        darknodeRegistry[darknodeID].bond = decreasedBond;\n        require(\n            ren.transfer(owner(), previousBond.sub(decreasedBond)),\n            \"DarknodeRegistryStore: bond transfer failed\"\n        );\n    }\n\n    /// @notice Updates the deregistration timestamp of a darknode.\n    function updateDarknodeDeregisteredAt(\n        address darknodeID,\n        uint256 deregisteredAt\n    ) external onlyOwner {\n        darknodeRegistry[darknodeID].deregisteredAt = deregisteredAt;\n    }\n\n    /// @notice Returns the owner of a given darknode.\n    function darknodeOperator(address darknodeID)\n        external\n        view\n        onlyOwner\n        returns (address payable)\n    {\n        return darknodeRegistry[darknodeID].owner;\n    }\n\n    /// @notice Returns the bond of a given darknode.\n    function darknodeBond(address darknodeID)\n        external\n        view\n        onlyOwner\n        returns (uint256)\n    {\n        return darknodeRegistry[darknodeID].bond;\n    }\n\n    /// @notice Returns the registration time of a given darknode.\n    function darknodeRegisteredAt(address darknodeID)\n        external\n        view\n        onlyOwner\n        returns (uint256)\n    {\n        return darknodeRegistry[darknodeID].registeredAt;\n    }\n\n    /// @notice Returns the deregistration time of a given darknode.\n    function darknodeDeregisteredAt(address darknodeID)\n        external\n        view\n        onlyOwner\n        returns (uint256)\n    {\n        return darknodeRegistry[darknodeID].deregisteredAt;\n    }\n\n    /// @notice Returns the encryption public key of a given darknode.\n    function darknodePublicKey(address darknodeID)\n        external\n        view\n        onlyOwner\n        returns (bytes memory)\n    {\n        return darknodeRegistry[darknodeID].publicKey;\n    }\n}\n",
  "sourcePath": "/home/noah/github/renproject/ren-sol/contracts/DarknodeRegistry/DarknodeRegistryStore.sol",
  "compiler": {
    "name": "solc",
    "version": "0.5.16+commit.9c3226ce.Emscripten.clang"
  },
  "schemaVersion": "3.0.23",
  "updatedAt": "2020-03-30T04:16:04.774Z",
  "networkType": "ethereum",
  "devdoc": {
    "methods": {
      "appendDarknode(address,address,uint256,bytes,uint256,uint256)": {
        "params": {
          "_bond": "The darknode's bond value.",
          "_darknodeID": "The darknode's ID.",
          "_darknodeOperator": "The darknode's owner's address.",
          "_deregisteredAt": "The time stamp when the darknode is deregistered.",
          "_publicKey": "The darknode's public key.",
          "_registeredAt": "The time stamp when the darknode is registered."
        }
      },
      "constructor": {
        "params": {
          "_VERSION": "A string defining the contract version.",
          "_ren": "The address of the RenToken contract."
        }
      },
      "isOwner()": {
        "details": "Returns true if the caller is the current owner."
      },
      "owner()": {
        "details": "Returns the address of the current owner."
      },
      "renounceOwnership()": {
        "details": "Leaves the contract without owner. It will not be possible to call `onlyOwner` functions anymore. Can only be called by the current owner.     * > Note: Renouncing ownership will leave the contract without an owner, thereby removing any functionality that is only available to the owner."
      }
    }
  },
  "userdoc": {
    "methods": {
      "appendDarknode(address,address,uint256,bytes,uint256,uint256)": {
        "notice": "Instantiates a darknode and appends it to the darknodes linked-list. "
      },
      "begin()": {
        "notice": "Returns the address of the first darknode in the store."
      },
      "constructor": "The contract constructor. ",
      "darknodeBond(address)": {
        "notice": "Returns the bond of a given darknode."
      },
      "darknodeDeregisteredAt(address)": {
        "notice": "Returns the deregistration time of a given darknode."
      },
      "darknodeOperator(address)": {
        "notice": "Returns the owner of a given darknode."
      },
      "darknodePublicKey(address)": {
        "notice": "Returns the encryption public key of a given darknode."
      },
      "darknodeRegisteredAt(address)": {
        "notice": "Returns the registration time of a given darknode."
      },
      "next(address)": {
        "notice": "Returns the address of the next darknode in the store after the given address."
      },
      "recoverTokens(address)": {
        "notice": "Allow the owner of the contract to recover funds accidentally sent to the contract. To withdraw ETH, the token should be set to `0x0`."
      },
      "removeDarknode(address)": {
        "notice": "Removes a darknode from the store and transfers its bond to the owner of this contract."
      },
      "updateDarknodeBond(address,uint256)": {
        "notice": "Updates the bond of a darknode. The new bond must be smaller than the previous bond of the darknode."
      },
      "updateDarknodeDeregisteredAt(address,uint256)": {
        "notice": "Updates the deregistration timestamp of a darknode."
      }
    },
    "notice": "This contract stores data and funds for the DarknodeRegistry contract. The data / fund logic and storage have been separated to improve upgradability."
  }
}