{
  "contractName": "DarknodePayment",
  "abi": [
    {
      "inputs": [
        {
          "internalType": "string",
          "name": "_VERSION",
          "type": "string"
        },
        {
          "internalType": "contract DarknodeRegistryLogicV1",
          "name": "_darknodeRegistry",
          "type": "address"
        },
        {
          "internalType": "contract DarknodePaymentStore",
          "name": "_darknodePaymentStore",
          "type": "address"
        },
        {
          "internalType": "uint256",
          "name": "_cyclePayoutPercent",
          "type": "uint256"
        }
      ],
      "payable": false,
      "stateMutability": "nonpayable",
      "type": "constructor"
    },
    {
      "anonymous": false,
      "inputs": [
        {
          "indexed": true,
          "internalType": "address",
          "name": "_newCycleChanger",
          "type": "address"
        },
        {
          "indexed": true,
          "internalType": "address",
          "name": "_oldCycleChanger",
          "type": "address"
        }
      ],
      "name": "LogCycleChangerChanged",
      "type": "event"
    },
    {
      "anonymous": false,
      "inputs": [
        {
          "indexed": true,
          "internalType": "address",
          "name": "_darknode",
          "type": "address"
        },
        {
          "indexed": false,
          "internalType": "uint256",
          "name": "_cycle",
          "type": "uint256"
        }
      ],
      "name": "LogDarknodeClaim",
      "type": "event"
    },
    {
      "anonymous": false,
      "inputs": [
        {
          "indexed": true,
          "internalType": "contract DarknodeRegistryLogicV1",
          "name": "_previousDarknodeRegistry",
          "type": "address"
        },
        {
          "indexed": true,
          "internalType": "contract DarknodeRegistryLogicV1",
          "name": "_nextDarknodeRegistry",
          "type": "address"
        }
      ],
      "name": "LogDarknodeRegistryUpdated",
      "type": "event"
    },
    {
      "anonymous": false,
      "inputs": [
        {
          "indexed": true,
          "internalType": "address",
          "name": "_darknodeOperator",
          "type": "address"
        },
        {
          "indexed": true,
          "internalType": "address",
          "name": "_darknodeID",
          "type": "address"
        },
        {
          "indexed": true,
          "internalType": "address",
          "name": "_token",
          "type": "address"
        },
        {
          "indexed": false,
          "internalType": "uint256",
          "name": "_value",
          "type": "uint256"
        }
      ],
      "name": "LogDarknodeWithdrew",
      "type": "event"
    },
    {
      "anonymous": false,
      "inputs": [
        {
          "indexed": true,
          "internalType": "address",
          "name": "_payer",
          "type": "address"
        },
        {
          "indexed": true,
          "internalType": "address",
          "name": "_token",
          "type": "address"
        },
        {
          "indexed": false,
          "internalType": "uint256",
          "name": "_amount",
          "type": "uint256"
        }
      ],
      "name": "LogPaymentReceived",
      "type": "event"
    },
    {
      "anonymous": false,
      "inputs": [
        {
          "indexed": false,
          "internalType": "uint256",
          "name": "_newPercent",
          "type": "uint256"
        },
        {
          "indexed": false,
          "internalType": "uint256",
          "name": "_oldPercent",
          "type": "uint256"
        }
      ],
      "name": "LogPayoutPercentChanged",
      "type": "event"
    },
    {
      "anonymous": false,
      "inputs": [
        {
          "indexed": true,
          "internalType": "address",
          "name": "_token",
          "type": "address"
        }
      ],
      "name": "LogTokenDeregistered",
      "type": "event"
    },
    {
      "anonymous": false,
      "inputs": [
        {
          "indexed": true,
          "internalType": "address",
          "name": "_token",
          "type": "address"
        }
      ],
      "name": "LogTokenRegistered",
      "type": "event"
    },
    {
      "anonymous": false,
      "inputs": [
        {
          "indexed": true,
          "internalType": "address",
          "name": "previousOwner",
          "type": "address"
        },
        {
          "indexed": true,
          "internalType": "address",
          "name": "newOwner",
          "type": "address"
        }
      ],
      "name": "OwnershipTransferred",
      "type": "event"
    },
    {
      "payable": true,
      "stateMutability": "payable",
      "type": "fallback"
    },
    {
      "constant": true,
      "inputs": [],
      "name": "ETHEREUM",
      "outputs": [
        {
          "internalType": "address",
          "name": "",
          "type": "address"
        }
      ],
      "payable": false,
      "stateMutability": "view",
      "type": "function"
    },
    {
      "constant": true,
      "inputs": [],
      "name": "VERSION",
      "outputs": [
        {
          "internalType": "string",
          "name": "",
          "type": "string"
        }
      ],
      "payable": false,
      "stateMutability": "view",
      "type": "function"
    },
    {
      "constant": false,
      "inputs": [],
      "name": "claimOwnership",
      "outputs": [],
      "payable": false,
      "stateMutability": "nonpayable",
      "type": "function"
    },
    {
      "constant": true,
      "inputs": [],
      "name": "currentCycle",
      "outputs": [
        {
          "internalType": "uint256",
          "name": "",
          "type": "uint256"
        }
      ],
      "payable": false,
      "stateMutability": "view",
      "type": "function"
    },
    {
      "constant": true,
      "inputs": [],
      "name": "currentCyclePayoutPercent",
      "outputs": [
        {
          "internalType": "uint256",
          "name": "",
          "type": "uint256"
        }
      ],
      "payable": false,
      "stateMutability": "view",
      "type": "function"
    },
    {
      "constant": true,
      "inputs": [],
      "name": "cycleChanger",
      "outputs": [
        {
          "internalType": "address",
          "name": "",
          "type": "address"
        }
      ],
      "payable": false,
      "stateMutability": "view",
      "type": "function"
    },
    {
      "constant": true,
      "inputs": [],
      "name": "cycleStartTime",
      "outputs": [
        {
          "internalType": "uint256",
          "name": "",
          "type": "uint256"
        }
      ],
      "payable": false,
      "stateMutability": "view",
      "type": "function"
    },
    {
      "constant": true,
      "inputs": [],
      "name": "darknodeRegistry",
      "outputs": [
        {
          "internalType": "contract DarknodeRegistryLogicV1",
          "name": "",
          "type": "address"
        }
      ],
      "payable": false,
      "stateMutability": "view",
      "type": "function"
    },
    {
      "constant": false,
      "inputs": [
        {
          "internalType": "address",
          "name": "_nextOwner",
          "type": "address"
        }
      ],
      "name": "initialize",
      "outputs": [],
      "payable": false,
      "stateMutability": "nonpayable",
      "type": "function"
    },
    {
      "constant": true,
      "inputs": [],
      "name": "isOwner",
      "outputs": [
        {
          "internalType": "bool",
          "name": "",
          "type": "bool"
        }
      ],
      "payable": false,
      "stateMutability": "view",
      "type": "function"
    },
    {
      "constant": true,
      "inputs": [],
      "name": "nextCyclePayoutPercent",
      "outputs": [
        {
          "internalType": "uint256",
          "name": "",
          "type": "uint256"
        }
      ],
      "payable": false,
      "stateMutability": "view",
      "type": "function"
    },
    {
      "constant": true,
      "inputs": [],
      "name": "owner",
      "outputs": [
        {
          "internalType": "address",
          "name": "",
          "type": "address"
        }
      ],
      "payable": false,
      "stateMutability": "view",
      "type": "function"
    },
    {
      "constant": true,
      "inputs": [],
      "name": "pendingOwner",
      "outputs": [
        {
          "internalType": "address",
          "name": "",
          "type": "address"
        }
      ],
      "payable": false,
      "stateMutability": "view",
      "type": "function"
    },
    {
      "constant": true,
      "inputs": [
        {
          "internalType": "uint256",
          "name": "",
          "type": "uint256"
        }
      ],
      "name": "pendingTokens",
      "outputs": [
        {
          "internalType": "address",
          "name": "",
          "type": "address"
        }
      ],
      "payable": false,
      "stateMutability": "view",
      "type": "function"
    },
    {
      "constant": true,
      "inputs": [],
      "name": "previousCycle",
      "outputs": [
        {
          "internalType": "uint256",
          "name": "",
          "type": "uint256"
        }
      ],
      "payable": false,
      "stateMutability": "view",
      "type": "function"
    },
    {
      "constant": true,
      "inputs": [
        {
          "internalType": "address",
          "name": "",
          "type": "address"
        }
      ],
      "name": "previousCycleRewardShare",
      "outputs": [
        {
          "internalType": "uint256",
          "name": "",
          "type": "uint256"
        }
      ],
      "payable": false,
      "stateMutability": "view",
      "type": "function"
    },
    {
      "constant": true,
      "inputs": [
        {
          "internalType": "address",
          "name": "",
          "type": "address"
        }
      ],
      "name": "registeredTokenIndex",
      "outputs": [
        {
          "internalType": "uint256",
          "name": "",
          "type": "uint256"
        }
      ],
      "payable": false,
      "stateMutability": "view",
      "type": "function"
    },
    {
      "constant": true,
      "inputs": [
        {
          "internalType": "uint256",
          "name": "",
          "type": "uint256"
        }
      ],
      "name": "registeredTokens",
      "outputs": [
        {
          "internalType": "address",
          "name": "",
          "type": "address"
        }
      ],
      "payable": false,
      "stateMutability": "view",
      "type": "function"
    },
    {
      "constant": false,
      "inputs": [],
      "name": "renounceOwnership",
      "outputs": [],
      "payable": false,
      "stateMutability": "nonpayable",
      "type": "function"
    },
    {
      "constant": true,
      "inputs": [
        {
          "internalType": "address",
          "name": "",
          "type": "address"
        },
        {
          "internalType": "uint256",
          "name": "",
          "type": "uint256"
        }
      ],
      "name": "rewardClaimed",
      "outputs": [
        {
          "internalType": "bool",
          "name": "",
          "type": "bool"
        }
      ],
      "payable": false,
      "stateMutability": "view",
      "type": "function"
    },
    {
      "constant": true,
      "inputs": [],
      "name": "store",
      "outputs": [
        {
          "internalType": "contract DarknodePaymentStore",
          "name": "",
          "type": "address"
        }
      ],
      "payable": false,
      "stateMutability": "view",
      "type": "function"
    },
    {
      "constant": false,
      "inputs": [
        {
          "internalType": "address",
          "name": "newOwner",
          "type": "address"
        }
      ],
      "name": "transferOwnership",
      "outputs": [],
      "payable": false,
      "stateMutability": "nonpayable",
      "type": "function"
    },
    {
      "constant": true,
      "inputs": [
        {
          "internalType": "address",
          "name": "",
          "type": "address"
        }
      ],
      "name": "unclaimedRewards",
      "outputs": [
        {
          "internalType": "uint256",
          "name": "",
          "type": "uint256"
        }
      ],
      "payable": false,
      "stateMutability": "view",
      "type": "function"
    },
    {
      "constant": false,
      "inputs": [
        {
          "internalType": "contract DarknodeRegistryLogicV1",
          "name": "_darknodeRegistry",
          "type": "address"
        }
      ],
      "name": "updateDarknodeRegistry",
      "outputs": [],
      "payable": false,
      "stateMutability": "nonpayable",
      "type": "function"
    },
    {
      "constant": false,
      "inputs": [
        {
          "internalType": "address",
          "name": "_darknode",
          "type": "address"
        },
        {
          "internalType": "address",
          "name": "_token",
          "type": "address"
        }
      ],
      "name": "withdraw",
      "outputs": [],
      "payable": false,
      "stateMutability": "nonpayable",
      "type": "function"
    },
    {
      "constant": false,
      "inputs": [
        {
          "internalType": "address[]",
          "name": "_darknodes",
          "type": "address[]"
        },
        {
          "internalType": "address[]",
          "name": "_tokens",
          "type": "address[]"
        }
      ],
      "name": "withdrawMultiple",
      "outputs": [],
      "payable": false,
      "stateMutability": "nonpayable",
      "type": "function"
    },
    {
      "constant": true,
      "inputs": [
        {
          "internalType": "address",
          "name": "_token",
          "type": "address"
        }
      ],
      "name": "currentCycleRewardPool",
      "outputs": [
        {
          "internalType": "uint256",
          "name": "",
          "type": "uint256"
        }
      ],
      "payable": false,
      "stateMutability": "view",
      "type": "function"
    },
    {
      "constant": true,
      "inputs": [
        {
          "internalType": "address",
          "name": "_darknodeID",
          "type": "address"
        },
        {
          "internalType": "address",
          "name": "_token",
          "type": "address"
        }
      ],
      "name": "darknodeBalances",
      "outputs": [
        {
          "internalType": "uint256",
          "name": "",
          "type": "uint256"
        }
      ],
      "payable": false,
      "stateMutability": "view",
      "type": "function"
    },
    {
      "constant": false,
      "inputs": [],
      "name": "changeCycle",
      "outputs": [
        {
          "internalType": "uint256",
          "name": "",
          "type": "uint256"
        }
      ],
      "payable": false,
      "stateMutability": "nonpayable",
      "type": "function"
    },
    {
      "constant": false,
      "inputs": [
        {
          "internalType": "uint256",
          "name": "_value",
          "type": "uint256"
        },
        {
          "internalType": "address",
          "name": "_token",
          "type": "address"
        }
      ],
      "name": "deposit",
      "outputs": [],
      "payable": true,
      "stateMutability": "payable",
      "type": "function"
    },
    {
      "constant": false,
      "inputs": [
        {
          "internalType": "address",
          "name": "_token",
          "type": "address"
        }
      ],
      "name": "forward",
      "outputs": [],
      "payable": false,
      "stateMutability": "nonpayable",
      "type": "function"
    },
    {
      "constant": false,
      "inputs": [
        {
          "internalType": "address",
          "name": "_darknode",
          "type": "address"
        }
      ],
      "name": "claim",
      "outputs": [],
      "payable": false,
      "stateMutability": "nonpayable",
      "type": "function"
    },
    {
      "constant": false,
      "inputs": [
        {
          "internalType": "address",
          "name": "_token",
          "type": "address"
        }
      ],
      "name": "registerToken",
      "outputs": [],
      "payable": false,
      "stateMutability": "nonpayable",
      "type": "function"
    },
    {
      "constant": true,
      "inputs": [
        {
          "internalType": "address",
          "name": "_token",
          "type": "address"
        }
      ],
      "name": "tokenPendingRegistration",
      "outputs": [
        {
          "internalType": "bool",
          "name": "",
          "type": "bool"
        }
      ],
      "payable": false,
      "stateMutability": "view",
      "type": "function"
    },
    {
      "constant": false,
      "inputs": [
        {
          "internalType": "address",
          "name": "_token",
          "type": "address"
        }
      ],
      "name": "deregisterToken",
      "outputs": [],
      "payable": false,
      "stateMutability": "nonpayable",
      "type": "function"
    },
    {
      "constant": false,
      "inputs": [
        {
          "internalType": "address",
          "name": "_addr",
          "type": "address"
        }
      ],
      "name": "updateCycleChanger",
      "outputs": [],
      "payable": false,
      "stateMutability": "nonpayable",
      "type": "function"
    },
    {
      "constant": false,
      "inputs": [
        {
          "internalType": "uint256",
          "name": "_percent",
          "type": "uint256"
        }
      ],
      "name": "updatePayoutPercentage",
      "outputs": [],
      "payable": false,
      "stateMutability": "nonpayable",
      "type": "function"
    },
    {
      "constant": false,
      "inputs": [
        {
          "internalType": "contract DarknodePayment",
          "name": "_newOwner",
          "type": "address"
        }
      ],
      "name": "transferStoreOwnership",
      "outputs": [],
      "payable": false,
      "stateMutability": "nonpayable",
      "type": "function"
    },
    {
      "constant": false,
      "inputs": [],
      "name": "claimStoreOwnership",
      "outputs": [],
      "payable": false,
      "stateMutability": "nonpayable",
      "type": "function"
    }
  ],
  "bytecode": "0x60806040523480156200001157600080fd5b50604051620033ef380380620033ef833981810160405260808110156200003757600080fd5b81019080805160405193929190846401000000008211156200005857600080fd5b9083019060208201858111156200006e57600080fd5b82516401000000008111828201881017156200008957600080fd5b82525081516020918201929091019080838360005b83811015620000b85781810151838201526020016200009e565b50505050905090810190601f168015620000e65780820380516001836020036101000a031916815260200191505b506040908152602082015190820151606090920151909350909150806064811115620001445760405162461bcd60e51b8152600401808060200182810382526023815260200180620033cc6023913960400191505060405180910390fd5b6200015a336200023360201b6200174e1760201c565b84516200016f90606790602088019062000406565b50606880546001600160a01b038087166001600160a01b03199283161792839055606980548783169084161790556073859055606a8054909216331790915560408051630ecce30160e31b8152815193909216926376671808926004808201939291829003018186803b158015620001e657600080fd5b505afa158015620001fb573d6000803e3d6000fd5b505050506040513d60408110156200021257600080fd5b508051602090910151607255606b55505060735460745550620004a8915050565b600054610100900460ff1680620002585750620002586001600160e01b03620002fd16565b8062000267575060005460ff16155b620002a45760405162461bcd60e51b815260040180806020018281038252602e8152602001806200339e602e913960400191505060405180910390fd5b600054610100900460ff16158015620002d0576000805460ff1961ff0019909116610100171660011790555b620002e6826200030460201b620025b81760201c565b8015620002f9576000805461ff00191690555b5050565b303b155b90565b600054610100900460ff1680620003295750620003296001600160e01b03620002fd16565b8062000338575060005460ff16155b620003755760405162461bcd60e51b815260040180806020018281038252602e8152602001806200339e602e913960400191505060405180910390fd5b600054610100900460ff16158015620003a1576000805460ff1961ff0019909116610100171660011790555b603380546001600160a01b0319166001600160a01b0384811691909117918290556040519116906000907f8be0079c531659141344cd1fd0a4f28419497f9722a3daafe3b4186f6b6457e0908290a38015620002f9576000805461ff00191690555050565b828054600181600116156101000203166002900490600052602060002090601f016020900481019282601f106200044957805160ff191683800117855562000479565b8280016001018555821562000479579182015b82811115620004795782518255916020019190600101906200045c565b50620004879291506200048b565b5090565b6200030191905b8082111562000487576000815560010162000492565b612ee680620004b86000396000f3fe6080604052600436106102305760003560e01c80639a0ba2ea1161012e578063ce3745e5116100ab578063ebe1c58f1161006f578063ebe1c58f146108a5578063f2fde38b146108ba578063f7cdf47c146108ed578063f940e38514610902578063ffa1ad741461093d57610230565b8063ce3745e51461074f578063d715135d1461081e578063e30c397814610848578063e31148151461085d578063e80b2b3d1461087257610230565b8063bab2af1d116100f2578063bab2af1d1461066e578063bab2f552146106a1578063bfdce199146106b6578063c2250a99146106e9578063c4d66de81461071c57610230565b80639a0ba2ea146105b45780639c78eb8e146105de5780639e45e0d014610611578063aaff096d14610626578063b3a2af691461065957610230565b80636e553f65116101bc57806385214b721161018057806385214b721461052d5780638da5cb5b146105425780638f32d59b14610557578063949813b81461056c578063975057e71461059f57610230565b80636e553f651461044f5780636fd689e81461047b57806370324b7714610490578063715018a6146104cb57806383b78188146104e057610230565b8063335e536c11610203578063335e536c14610397578063352fc85f146103ac57806349999196146103f25780634e71e0c8146104075780635c03651c1461041c57610230565b806305cf4744146102b757806309824a80146102fc578063101e8952146103315780631e83409a14610364575b6069546040516001600160a01b03909116903480156108fc02916000818181858888f19350505050158015610269573d6000803e3d6000fd5b5060408051348152905173eeeeeeeeeeeeeeeeeeeeeeeeeeeeeeeeeeeeeeee9133917f5f5d9f6f8b84a834e704e76b91a16ddc49abe97d37d6e61572febf8f1b56f7ce9181900360200190a3005b3480156102c357600080fd5b506102ea600480360360208110156102da57600080fd5b50356001600160a01b03166109c7565b60408051918252519081900360200190f35b34801561030857600080fd5b5061032f6004803603602081101561031f57600080fd5b50356001600160a01b03166109d9565b005b34801561033d57600080fd5b5061032f6004803603602081101561035457600080fd5b50356001600160a01b0316610b0c565b34801561037057600080fd5b5061032f6004803603602081101561038757600080fd5b50356001600160a01b0316610c09565b3480156103a357600080fd5b506102ea610dc2565b3480156103b857600080fd5b506103d6600480360360208110156103cf57600080fd5b5035610dc8565b604080516001600160a01b039092168252519081900360200190f35b3480156103fe57600080fd5b506103d6610def565b34801561041357600080fd5b5061032f610dfe565b34801561042857600080fd5b5061032f6004803603602081101561043f57600080fd5b50356001600160a01b0316610e7e565b61032f6004803603604081101561046557600080fd5b50803590602001356001600160a01b0316610f67565b34801561048757600080fd5b5061032f611108565b34801561049c57600080fd5b506102ea600480360360408110156104b357600080fd5b506001600160a01b0381358116916020013516611172565b3480156104d757600080fd5b5061032f611200565b3480156104ec57600080fd5b506105196004803603604081101561050357600080fd5b506001600160a01b038135169060200135611291565b604080519115158252519081900360200190f35b34801561053957600080fd5b506102ea6112b1565b34801561054e57600080fd5b506103d66112b7565b34801561056357600080fd5b506105196112c7565b34801561057857600080fd5b506102ea6004803603602081101561058f57600080fd5b50356001600160a01b03166112ed565b3480156105ab57600080fd5b506103d66112ff565b3480156105c057600080fd5b506103d6600480360360208110156105d757600080fd5b503561130e565b3480156105ea57600080fd5b506105196004803603602081101561060157600080fd5b50356001600160a01b031661131b565b34801561061d57600080fd5b506103d661137c565b34801561063257600080fd5b5061032f6004803603602081101561064957600080fd5b50356001600160a01b031661138b565b34801561066557600080fd5b506102ea61146b565b34801561067a57600080fd5b5061032f6004803603602081101561069157600080fd5b50356001600160a01b031661158f565b3480156106ad57600080fd5b506102ea611633565b3480156106c257600080fd5b506102ea600480360360208110156106d957600080fd5b50356001600160a01b0316611639565b3480156106f557600080fd5b5061032f6004803603602081101561070c57600080fd5b50356001600160a01b031661164b565b34801561072857600080fd5b5061032f6004803603602081101561073f57600080fd5b50356001600160a01b031661174e565b34801561075b57600080fd5b5061032f6004803603604081101561077257600080fd5b81019060208101813564010000000081111561078d57600080fd5b82018360208201111561079f57600080fd5b803590602001918460208302840111640100000000831117156107c157600080fd5b9193909290916020810190356401000000008111156107df57600080fd5b8201836020820111156107f157600080fd5b8035906020019184602083028401116401000000008311171561081357600080fd5b5090925090506117fa565b34801561082a57600080fd5b5061032f6004803603602081101561084157600080fd5b5035611861565b34801561085457600080fd5b506103d6611931565b34801561086957600080fd5b506102ea611940565b34801561087e57600080fd5b506102ea6004803603602081101561089557600080fd5b50356001600160a01b0316611946565b3480156108b157600080fd5b506102ea611a3f565b3480156108c657600080fd5b5061032f600480360360208110156108dd57600080fd5b50356001600160a01b0316611a45565b3480156108f957600080fd5b506103d6611b36565b34801561090e57600080fd5b5061032f6004803603604081101561092557600080fd5b506001600160a01b0381358116916020013516611b4e565b34801561094957600080fd5b50610952611d77565b6040805160208082528351818301528351919283929083019185019080838360005b8381101561098c578181015183820152602001610974565b50505050905090810190601f1680156109b95780820380516001836020036101000a031916815260200191505b509250505060405180910390f35b60716020526000908152604090205481565b6109e16112c7565b610a20576040805162461bcd60e51b81526020600482018190526024820152600080516020612ce3833981519152604482015290519081900360640190fd5b6001600160a01b0381166000908152606f602052604090205415610a755760405162461bcd60e51b8152600401808060200182810382526029815260200180612c726029913960400191505060405180910390fd5b610a7e8161131b565b15610aba5760405162461bcd60e51b8152600401808060200182810382526033815260200180612bc36033913960400191505060405180910390fd5b606d80546001810182556000919091527f5006b838207c6a9ae9b84d68f467dd4bb5c305fbfb6b04eab8faaabeec1e18d80180546001600160a01b0319166001600160a01b0392909216919091179055565b6001600160a01b03811673eeeeeeeeeeeeeeeeeeeeeeeeeeeeeeeeeeeeeeee1415610b70576069546040516001600160a01b03909116904780156108fc02916000818181858888f19350505050158015610b6a573d6000803e3d6000fd5b50610c06565b606954604080516370a0823160e01b81523060048201529051610c06926001600160a01b0390811692908516916370a0823191602480820192602092909190829003018186803b158015610bc357600080fd5b505afa158015610bd7573d6000803e3d6000fd5b505050506040513d6020811015610bed57600080fd5b50516001600160a01b038416919063ffffffff611e0516565b50565b6068546040805163c3c5a54760e01b81526001600160a01b03808516600483015291518493929092169163c3c5a54791602480820192602092909190829003018186803b158015610c5957600080fd5b505afa158015610c6d573d6000803e3d6000fd5b505050506040513d6020811015610c8357600080fd5b5051610cc05760405162461bcd60e51b815260040180806020018281038252602b815260200180612dfc602b913960400191505060405180910390fd5b60685460408051633df1336d60e11b81526001600160a01b03858116600483015291519190921691637be266da916024808301926020929190829003018186803b158015610d0d57600080fd5b505afa158015610d21573d6000803e3d6000fd5b505050506040513d6020811015610d3757600080fd5b5051610d745760405162461bcd60e51b815260040180806020018281038252602c815260200180612d83602c913960400191505060405180910390fd5b610d7d82611e5c565b606c5460408051918252516001600160a01b038416917f99c5ad5c5f898b30039b8cc54b8c0e6eb423e49bfc965a5999ebad131984e40d919081900360200190a25050565b60725481565b606d8181548110610dd557fe5b6000918252602090912001546001600160a01b0316905081565b606a546001600160a01b031681565b6066546001600160a01b0316610e1261203c565b6001600160a01b031614610e575760405162461bcd60e51b815260040180806020018281038252602a815260200180612daf602a913960400191505060405180910390fd5b606654610e6c906001600160a01b0316612040565b606680546001600160a01b0319169055565b610e866112c7565b610ec5576040805162461bcd60e51b81526020600482018190526024820152600080516020612ce3833981519152604482015290519081900360640190fd5b6001600160a01b038116610f0a5760405162461bcd60e51b8152600401808060200182810382526029815260200180612b746029913960400191505060405180910390fd5b606a546040516001600160a01b03918216918316907f9d549c7da0887b9da28aa4897e17429f78345be76b1918673be3430462a4d13090600090a3606a80546001600160a01b0319166001600160a01b0392909216919091179055565b60006001600160a01b03821673eeeeeeeeeeeeeeeeeeeeeeeeeeeeeeeeeeeeeeee141561100d57348314610fcc5760405162461bcd60e51b8152600401808060200182810382526029815260200180612b4b6029913960400191505060405180910390fd5b5060695460405134916001600160a01b03169082156108fc029083906000818181858888f19350505050158015611007573d6000803e3d6000fd5b506110c3565b341561104a5760405162461bcd60e51b815260040180806020018281038252602a815260200180612e88602a913960400191505060405180910390fd5b6001600160a01b0382166000908152606f602052604090205461109e5760405162461bcd60e51b8152600401808060200182810382526025815260200180612bf66025913960400191505060405180910390fd5b6069546110c0906001600160a01b03848116913391168663ffffffff6120e116565b90505b6040805182815290516001600160a01b0384169133917f5f5d9f6f8b84a834e704e76b91a16ddc49abe97d37d6e61572febf8f1b56f7ce9181900360200190a3505050565b606960009054906101000a90046001600160a01b03166001600160a01b0316634e71e0c86040518163ffffffff1660e01b8152600401600060405180830381600087803b15801561115857600080fd5b505af115801561116c573d6000803e3d6000fd5b50505050565b606954604080516370324b7760e01b81526001600160a01b0385811660048301528481166024830152915160009392909216916370324b7791604480820192602092909190829003018186803b1580156111cb57600080fd5b505afa1580156111df573d6000803e3d6000fd5b505050506040513d60208110156111f557600080fd5b505190505b92915050565b6112086112c7565b611247576040805162461bcd60e51b81526020600482018190526024820152600080516020612ce3833981519152604482015290519081900360640190fd5b6033546040516000916001600160a01b0316907f8be0079c531659141344cd1fd0a4f28419497f9722a3daafe3b4186f6b6457e0908390a3603380546001600160a01b0319169055565b607560209081526000928352604080842090915290825290205460ff1681565b60745481565b6033546001600160a01b03165b90565b6033546000906001600160a01b03166112de61203c565b6001600160a01b031614905090565b60706020526000908152604090205481565b6069546001600160a01b031681565b606e8181548110610dd557fe5b606d54600090815b8181101561137057836001600160a01b0316606d828154811061134257fe5b6000918252602090912001546001600160a01b0316141561136857600192505050611377565b600101611323565b5060009150505b919050565b6068546001600160a01b031681565b6113936112c7565b6113d2576040805162461bcd60e51b81526020600482018190526024820152600080516020612ce3833981519152604482015290519081900360640190fd5b6001600160a01b0381166114175760405162461bcd60e51b8152600401808060200182810382526032815260200180612c406032913960400191505060405180910390fd5b606880546001600160a01b038381166001600160a01b03198316179283905560405191811692169082907ff9f6dd5c784f63cc27c1079c73574a73485a6c2e7f7e2181c5eb2be8c693cfb790600090a35050565b606a546000906001600160a01b031633146114b75760405162461bcd60e51b8152600401808060200182810382526022815260200180612d616022913960400191505060405180910390fd5b606e5460005b818110156114f7576114ef606e82815481106114d557fe5b6000918252602090912001546001600160a01b031661222d565b6001016114bd565b50606b54606c5560685460408051630ecce30160e31b815281516001600160a01b0390931692637667180892600480840193919291829003018186803b15801561154057600080fd5b505afa158015611554573d6000803e3d6000fd5b505050506040513d604081101561156a57600080fd5b508051602090910151607255606b556073546074556115876123b1565b5050606b5490565b6115976112c7565b6115d6576040805162461bcd60e51b81526020600482018190526024820152600080516020612ce3833981519152604482015290519081900360640190fd5b6001600160a01b0381166000908152606f602052604090205461162a5760405162461bcd60e51b8152600401808060200182810382526025815260200180612bf66025913960400191505060405180910390fd5b610c0681612477565b606b5481565b606f6020526000908152604090205481565b6116536112c7565b611692576040805162461bcd60e51b81526020600482018190526024820152600080516020612ce3833981519152604482015290519081900360640190fd5b6069546040805163f2fde38b60e01b81526001600160a01b0384811660048301529151919092169163f2fde38b91602480830192600092919082900301818387803b1580156116e057600080fd5b505af11580156116f4573d6000803e3d6000fd5b50505050806001600160a01b0316636fd689e86040518163ffffffff1660e01b8152600401600060405180830381600087803b15801561173357600080fd5b505af1158015611747573d6000803e3d6000fd5b5050505050565b600054610100900460ff168061176757506117676125b2565b80611775575060005460ff16155b6117b05760405162461bcd60e51b815260040180806020018281038252602e815260200180612d33602e913960400191505060405180910390fd5b600054610100900460ff161580156117db576000805460ff1961ff0019909116610100171660011790555b6117e4826125b8565b80156117f6576000805461ff00191690555b5050565b60005b838110156117475760005b828110156118585761185086868481811061181f57fe5b905060200201356001600160a01b031685858481811061183b57fe5b905060200201356001600160a01b0316611b4e565b600101611808565b506001016117fd565b6118696112c7565b6118a8576040805162461bcd60e51b81526020600482018190526024820152600080516020612ce3833981519152604482015290519081900360640190fd5b8060648111156118e95760405162461bcd60e51b8152600401808060200182810382526023815260200180612dd96023913960400191505060405180910390fd5b6073805490839055604080518481526020810183905281517f0855549798088e618c4eccab56d3fa69209935ef7bc4ffe7200dff654d975643929181900390910190a1505050565b6066546001600160a01b031681565b606c5481565b600080611a1160706000856001600160a01b03166001600160a01b0316815260200190815260200160002054604051806060016040528060378152602001612e51603791396069546040805163a0821be360e01b81526001600160a01b0389811660048301529151919092169163a0821be3916024808301926020929190829003018186803b1580156119d857600080fd5b505afa1580156119ec573d6000803e3d6000fd5b505050506040513d6020811015611a0257600080fd5b5051919063ffffffff6126a916565b607454909150611a3890611a2c83606463ffffffff61274016565b9063ffffffff61278216565b9392505050565b60735481565b611a4d6112c7565b611a8c576040805162461bcd60e51b81526020600482018190526024820152600080516020612ce3833981519152604482015290519081900360640190fd5b611a946112b7565b6001600160a01b0316816001600160a01b031614158015611ac357506066546001600160a01b03828116911614155b611b14576040805162461bcd60e51b815260206004820152601c60248201527f436c61696d61626c653a20696e76616c6964206e6577206f776e657200000000604482015290519081900360640190fd5b606680546001600160a01b0319166001600160a01b0392909216919091179055565b73eeeeeeeeeeeeeeeeeeeeeeeeeeeeeeeeeeeeeeee81565b606854604080516322f816e160e11b81526001600160a01b038581166004830152915160009392909216916345f02dc291602480820192602092909190829003018186803b158015611b9f57600080fd5b505afa158015611bb3573d6000803e3d6000fd5b505050506040513d6020811015611bc957600080fd5b505190506001600160a01b038116611c125760405162461bcd60e51b8152600401808060200182810382526027815260200180612c9b6027913960400191505060405180910390fd5b606954604080516370324b7760e01b81526001600160a01b0386811660048301528581166024830152915160009392909216916370324b7791604480820192602092909190829003018186803b158015611c6b57600080fd5b505afa158015611c7f573d6000803e3d6000fd5b505050506040513d6020811015611c9557600080fd5b50519050801561116c576069546040805163f9ce781360e01b81526001600160a01b03878116600483015286811660248301526044820185905285811660648301529151919092169163f9ce781391608480830192600092919082900301818387803b158015611d0457600080fd5b505af1158015611d18573d6000803e3d6000fd5b50505050826001600160a01b0316846001600160a01b0316836001600160a01b03167fd390ef311a884ffc07fe929afa495d106c89041c9b8a73abd2e4f23d6c9c05c0846040518082815260200191505060405180910390a450505050565b6067805460408051602060026001851615610100026000190190941693909304601f81018490048402820184019092528181529291830182828015611dfd5780601f10611dd257610100808354040283529160200191611dfd565b820191906000526020600020905b815481529060010190602001808311611de057829003601f168201915b505050505081565b604080516001600160a01b038416602482015260448082018490528251808303909101815260649091019091526020810180516001600160e01b031663a9059cbb60e01b179052611e579084906127db565b505050565b6001600160a01b0381166000908152607560209081526040808320606c54845290915290205460ff1615611ec15760405162461bcd60e51b8152600401808060200182810382526027815260200180612b246027913960400191505060405180910390fd5b6001600160a01b0381166000908152607560209081526040808320606c5484529091528120805460ff19166001179055606e54905b81811015611e57576000606e8281548110611f0d57fe5b60009182526020808320909101546001600160a01b031680835260719091526040909120549091501561203357611fa260716000836001600160a01b03166001600160a01b0316815260200190815260200160002054604051806060016040528060308152602001612d03603091396001600160a01b038416600090815260706020526040902054919063ffffffff6126a916565b6001600160a01b03808316600081815260706020908152604080832095909555606954607190915284822054855163d23b90a560e01b81528a86166004820152602481019490945260448401529351939092169263d23b90a59260648084019391929182900301818387803b15801561201a57600080fd5b505af115801561202e573d6000803e3d6000fd5b505050505b50600101611ef6565b3390565b6001600160a01b0381166120855760405162461bcd60e51b8152600401808060200182810382526026815260200180612b9d6026913960400191505060405180910390fd5b6033546040516001600160a01b038084169216907f8be0079c531659141344cd1fd0a4f28419497f9722a3daafe3b4186f6b6457e090600090a3603380546001600160a01b0319166001600160a01b0392909216919091179055565b600080856001600160a01b03166370a08231856040518263ffffffff1660e01b815260040180826001600160a01b03166001600160a01b0316815260200191505060206040518083038186803b15801561213a57600080fd5b505afa15801561214e573d6000803e3d6000fd5b505050506040513d602081101561216457600080fd5b505190506121836001600160a01b03871686868663ffffffff61299316565b6000866001600160a01b03166370a08231866040518263ffffffff1660e01b815260040180826001600160a01b03166001600160a01b0316815260200191505060206040518083038186803b1580156121db57600080fd5b505afa1580156121ef573d6000803e3d6000fd5b505050506040513d602081101561220557600080fd5b505190506122228461221d838563ffffffff6129ed16565b612a2f565b979650505050505050565b606854604080516338ba068b60e11b815290516000926001600160a01b0316916371740d16916004808301926020929190829003018186803b15801561227257600080fd5b505afa158015612286573d6000803e3d6000fd5b505050506040513d602081101561229c57600080fd5b50519050806122d0576001600160a01b038216600090815260706020908152604080832083905560719091528120556117f6565b6069546040805163a0821be360e01b81526001600160a01b0385811660048301529151600093929092169163a0821be391602480820192602092909190829003018186803b15801561232157600080fd5b505afa158015612335573d6000803e3d6000fd5b505050506040513d602081101561234b57600080fd5b505160745490915061236890611a2c83606463ffffffff61274016565b6001600160a01b0384166000908152607060205260409020819055612393908363ffffffff61274016565b6001600160a01b038416600090815260716020526040902055505050565b606d5460005b81811015612469576000606d82815481106123ce57fe5b6000918252602080832090910154606e80546001810182557f9930d9ff0dee0ef5ca2f7710ea66b8f84dd0f5f5351ecffe72b952cd9db7142a0180546001600160a01b0319166001600160a01b03909316928317905554818452606f909252604080842092909255905190925082917fd780ddbc43f0c4efd61c5ca1bc8eeee3368abfb1f97aa7355da9f8bf8431c8ae91a2506001016123b7565b5060006117f6606d82612ae6565b6000606e6124a96001604051806060016040528060258152602001612c1b60259139606e54919063ffffffff6126a916565b815481106124b357fe5b60009182526020808320909101546001600160a01b038581168452606f9092526040832054911692506124ed90600163ffffffff6129ed16565b905081606e82815481106124fd57fe5b600091825260208083209190910180546001600160a01b0319166001600160a01b039485161790558583168252606f90526040808220549285168252902055606e80548061254757fe5b60008281526020808220830160001990810180546001600160a01b03191690559092019092556001600160a01b038516808352606f90915260408083208390555190917fe46f21bb6906b7d69a6c06d5662a2b6c1c59d134cd7b1235babdb1a70a4b436a91a2505050565b303b1590565b600054610100900460ff16806125d157506125d16125b2565b806125df575060005460ff16155b61261a5760405162461bcd60e51b815260040180806020018281038252602e815260200180612d33602e913960400191505060405180910390fd5b600054610100900460ff16158015612645576000805460ff1961ff0019909116610100171660011790555b603380546001600160a01b0319166001600160a01b0384811691909117918290556040519116906000907f8be0079c531659141344cd1fd0a4f28419497f9722a3daafe3b4186f6b6457e0908290a380156117f6576000805461ff00191690555050565b600081848411156127385760405162461bcd60e51b81526004018080602001828103825283818151815260200191508051906020019080838360005b838110156126fd5781810151838201526020016126e5565b50505050905090810190601f16801561272a5780820380516001836020036101000a031916815260200191505b509250505060405180910390fd5b505050900390565b6000611a3883836040518060400160405280601a81526020017f536166654d6174683a206469766973696f6e206279207a65726f000000000000815250612a45565b600082612791575060006111fa565b8282028284828161279e57fe5b0414611a385760405162461bcd60e51b8152600401808060200182810382526021815260200180612cc26021913960400191505060405180910390fd5b6127ed826001600160a01b0316612aaa565b61283e576040805162461bcd60e51b815260206004820152601f60248201527f5361666545524332303a2063616c6c20746f206e6f6e2d636f6e747261637400604482015290519081900360640190fd5b60006060836001600160a01b0316836040518082805190602001908083835b6020831061287c5780518252601f19909201916020918201910161285d565b6001836020036101000a0380198251168184511680821785525050505050509050019150506000604051808303816000865af19150503d80600081146128de576040519150601f19603f3d011682016040523d82523d6000602084013e6128e3565b606091505b50915091508161293a576040805162461bcd60e51b815260206004820181905260248201527f5361666545524332303a206c6f772d6c6576656c2063616c6c206661696c6564604482015290519081900360640190fd5b80511561116c5780806020019051602081101561295657600080fd5b505161116c5760405162461bcd60e51b815260040180806020018281038252602a815260200180612e27602a913960400191505060405180910390fd5b604080516001600160a01b0385811660248301528416604482015260648082018490528251808303909101815260849091019091526020810180516001600160e01b03166323b872dd60e01b17905261116c9085906127db565b6000611a3883836040518060400160405280601e81526020017f536166654d6174683a207375627472616374696f6e206f766572666c6f7700008152506126a9565b6000818310612a3e5781611a38565b5090919050565b60008183612a945760405162461bcd60e51b81526020600482018181528351602484015283519092839260449091019190850190808383600083156126fd5781810151838201526020016126e5565b506000838581612aa057fe5b0495945050505050565b6000813f7fc5d2460186f7233c927e7db2dcc703c0e500b653ca82273b7bfad8045d85a4708115801590612ade5750808214155b949350505050565b815481835581811115611e5757600083815260209020611e579181019083016112c491905b80821115612b1f5760008155600101612b0b565b509056fe4461726b6e6f64655061796d656e743a2072657761726420616c726561647920636c61696d65644461726b6e6f64655061796d656e743a206d69736d617463686564206465706f7369742076616c75654461726b6e6f64655061796d656e743a20696e76616c696420636f6e747261637420616464726573734f776e61626c653a206e6577206f776e657220697320746865207a65726f20616464726573734461726b6e6f64655061796d656e743a20746f6b656e20616c72656164792070656e64696e6720726567697374726174696f6e4461726b6e6f64655061796d656e743a20746f6b656e206e6f7420726567697374657265644461726b6e6f64655061796d656e743a206e6f20746f6b656e7320726567697374657265644461726b6e6f64655061796d656e743a20696e76616c6964204461726b6e6f646520526567697374727920616464726573734461726b6e6f64655061796d656e743a20746f6b656e20616c726561647920726567697374657265644461726b6e6f64655061796d656e743a20696e76616c6964206461726b6e6f6465206f776e6572536166654d6174683a206d756c7469706c69636174696f6e206f766572666c6f774f776e61626c653a2063616c6c6572206973206e6f7420746865206f776e65724461726b6e6f64655061796d656e743a207368617265206578636565647320756e636c61696d65642072657761726473436f6e747261637420696e7374616e63652068617320616c7265616479206265656e20696e697469616c697a65644461726b6e6f64655061796d656e743a206e6f74206379636c65206368616e6765724461726b6e6f64655061796d656e743a2063616e6e6f7420636c61696d20666f7220746869732065706f6368436c61696d61626c653a2063616c6c6572206973206e6f74207468652070656e64696e67206f776e65724461726b6e6f64655061796d656e743a20696e76616c69642070657263656e746167654461726b6e6f64655061796d656e743a206461726b6e6f6465206973206e6f7420726567697374657265645361666545524332303a204552433230206f7065726174696f6e20646964206e6f7420737563636565644461726b6e6f64655061796d656e743a20756e636c61696d656420726577617264732065786365656420746f74616c20726577617264734461726b6e6f64655061796d656e743a20756e6578706563746564206574686572207472616e73666572a265627a7a723158203d453ad8be87a6264ee0c343c104879cdba573ba25acde7e44e0442e0740fed064736f6c63430005100032436f6e747261637420696e7374616e63652068617320616c7265616479206265656e20696e697469616c697a65644461726b6e6f64655061796d656e743a20696e76616c69642070657263656e74616765",
  "source": "pragma solidity 0.5.16;\n\nimport \"@openzeppelin/contracts-ethereum-package/contracts/math/SafeMath.sol\";\nimport \"@openzeppelin/contracts-ethereum-package/contracts/token/ERC20/ERC20.sol\";\nimport \"@openzeppelin/contracts-ethereum-package/contracts/token/ERC20/SafeERC20.sol\";\n\nimport \"../libraries/ERC20WithFees.sol\";\nimport \"../DarknodeRegistry/DarknodeRegistry.sol\";\nimport \"./DarknodePaymentStore.sol\";\n\n/// @notice DarknodePayment is responsible for paying off darknodes for their\n///         computation.\ncontract DarknodePayment is Claimable {\n    using SafeMath for uint256;\n    using SafeERC20 for ERC20;\n    using ERC20WithFees for ERC20;\n\n    string public VERSION; // Passed in as a constructor parameter.\n\n    /// @notice The special address for Ether.\n    address public constant ETHEREUM = 0xEeeeeEeeeEeEeeEeEeEeeEEEeeeeEeeeeeeeEEeE;\n\n    DarknodeRegistryLogicV1 public darknodeRegistry; // Passed in as a constructor parameter.\n\n    /// @notice DarknodePaymentStore is the storage contract for darknode\n    ///         payments.\n    DarknodePaymentStore public store; // Passed in as a constructor parameter.\n\n    /// @notice The address that can call changeCycle()\n    //          This defaults to the owner but should be changed to the DarknodeRegistry.\n    address public cycleChanger;\n\n    uint256 public currentCycle;\n    uint256 public previousCycle;\n\n    /// @notice The list of tokens that will be registered next cycle.\n    ///         We only update the shareCount at the change of cycle to\n    ///         prevent the number of shares from changing.\n    address[] public pendingTokens;\n\n    /// @notice The list of tokens which are already registered and rewards can\n    ///         be claimed for.\n    address[] public registeredTokens;\n\n    /// @notice Mapping from token -> index. Index starts from 1. 0 means not in\n    ///         list.\n    mapping(address => uint256) public registeredTokenIndex;\n\n    /// @notice Mapping from token -> amount.\n    ///         The amount of rewards allocated for all darknodes to claim into\n    ///         their account.\n    mapping(address => uint256) public unclaimedRewards;\n\n    /// @notice Mapping from token -> amount.\n    ///         The amount of rewards allocated for each darknode.\n    mapping(address => uint256) public previousCycleRewardShare;\n\n    /// @notice The time that the current cycle started.\n    uint256 public cycleStartTime;\n\n    /// @notice The staged payout percentage to the darknodes per cycle.\n    uint256 public nextCyclePayoutPercent;\n\n    /// @notice The current cycle payout percentage to the darknodes.\n    uint256 public currentCyclePayoutPercent;\n\n    /// @notice Mapping of darknode -> cycle -> already_claimed.\n    ///         Used to keep track of which darknodes have already claimed their\n    ///         rewards.\n    mapping(address => mapping(uint256 => bool)) public rewardClaimed;\n\n    /// @notice Emitted when a darknode claims their share of reward.\n    /// @param _darknode The darknode which claimed.\n    /// @param _cycle The cycle that the darknode claimed for.\n    event LogDarknodeClaim(address indexed _darknode, uint256 _cycle);\n\n    /// @notice Emitted when someone pays the DarknodePayment contract.\n    /// @param _payer The darknode which claimed.\n    /// @param _amount The cycle that the darknode claimed for.\n    /// @param _token The address of the token that was transferred.\n    event LogPaymentReceived(\n        address indexed _payer,\n        address indexed _token,\n        uint256 _amount\n    );\n\n    /// @notice Emitted when a darknode calls withdraw.\n    /// @param _darknodeOperator The address of the darknode's operator.\n    /// @param _darknodeID The address of the darknode which withdrew.\n    /// @param _value The amount of DAI withdrawn.\n    /// @param _token The address of the token that was withdrawn.\n    event LogDarknodeWithdrew(\n        address indexed _darknodeOperator,\n        address indexed _darknodeID,\n        address indexed _token,\n        uint256 _value\n    );\n\n    /// @notice Emitted when the payout percent changes.\n    /// @param _newPercent The new percent.\n    /// @param _oldPercent The old percent.\n    event LogPayoutPercentChanged(uint256 _newPercent, uint256 _oldPercent);\n\n    /// @notice Emitted when the CycleChanger address changes.\n    /// @param _newCycleChanger The new CycleChanger.\n    /// @param _oldCycleChanger The old CycleChanger.\n    event LogCycleChangerChanged(\n        address indexed _newCycleChanger,\n        address indexed _oldCycleChanger\n    );\n\n    /// @notice Emitted when a new token is registered.\n    /// @param _token The token that was registered.\n    event LogTokenRegistered(address indexed _token);\n\n    /// @notice Emitted when a token is deregistered.\n    /// @param _token The token that was deregistered.\n    event LogTokenDeregistered(address indexed _token);\n\n    /// @notice Emitted when the DarknodeRegistry is updated.\n    /// @param _previousDarknodeRegistry The address of the old registry.\n    /// @param _nextDarknodeRegistry The address of the new registry.\n    event LogDarknodeRegistryUpdated(\n        DarknodeRegistryLogicV1 indexed _previousDarknodeRegistry,\n        DarknodeRegistryLogicV1 indexed _nextDarknodeRegistry\n    );\n\n    /// @notice Restrict a function registered dark nodes to call a function.\n    modifier onlyDarknode(address _darknode) {\n        require(\n            darknodeRegistry.isRegistered(_darknode),\n            \"DarknodePayment: darknode is not registered\"\n        );\n        _;\n    }\n\n    /// @notice Restrict a function to have a valid percentage.\n    modifier validPercent(uint256 _percent) {\n        require(_percent <= 100, \"DarknodePayment: invalid percentage\");\n        _;\n    }\n\n    /// @notice Restrict a function to be called by cycleChanger.\n    modifier onlyCycleChanger {\n        require(\n            msg.sender == cycleChanger,\n            \"DarknodePayment: not cycle changer\"\n        );\n        _;\n    }\n\n    /// @notice The contract constructor. Starts the current cycle using the\n    ///         time of deploy.\n    ///\n    /// @param _VERSION A string defining the contract version.\n    /// @param _darknodeRegistry The address of the DarknodeRegistry contract.\n    /// @param _darknodePaymentStore The address of the DarknodePaymentStore\n    ///        contract.\n    constructor(\n        string memory _VERSION,\n        DarknodeRegistryLogicV1 _darknodeRegistry,\n        DarknodePaymentStore _darknodePaymentStore,\n        uint256 _cyclePayoutPercent\n    ) public validPercent(_cyclePayoutPercent) {\n        Claimable.initialize(msg.sender);\n        VERSION = _VERSION;\n        darknodeRegistry = _darknodeRegistry;\n        store = _darknodePaymentStore;\n        nextCyclePayoutPercent = _cyclePayoutPercent;\n        // Default the cycleChanger to owner.\n        cycleChanger = msg.sender;\n\n        // Start the current cycle\n        (currentCycle, cycleStartTime) = darknodeRegistry.currentEpoch();\n        currentCyclePayoutPercent = nextCyclePayoutPercent;\n    }\n\n    /// @notice Allows the contract owner to update the address of the\n    /// darknode registry contract.\n    /// @param _darknodeRegistry The address of the Darknode Registry\n    /// contract.\n    function updateDarknodeRegistry(DarknodeRegistryLogicV1 _darknodeRegistry)\n        external\n        onlyOwner\n    {\n        require(\n            address(_darknodeRegistry) != address(0x0),\n            \"DarknodePayment: invalid Darknode Registry address\"\n        );\n        DarknodeRegistryLogicV1 previousDarknodeRegistry = darknodeRegistry;\n        darknodeRegistry = _darknodeRegistry;\n        emit LogDarknodeRegistryUpdated(\n            previousDarknodeRegistry,\n            darknodeRegistry\n        );\n    }\n\n    /// @notice Transfers the funds allocated to the darknode to the darknode\n    ///         owner.\n    ///\n    /// @param _darknode The address of the darknode.\n    /// @param _token Which token to transfer.\n    function withdraw(address _darknode, address _token) public {\n        address payable darknodeOperator = darknodeRegistry.getDarknodeOperator(\n            _darknode\n        );\n        require(\n            darknodeOperator != address(0x0),\n            \"DarknodePayment: invalid darknode owner\"\n        );\n\n        uint256 amount = store.darknodeBalances(_darknode, _token);\n\n        // Skip if amount is zero.\n        if (amount > 0) {\n            store.transfer(_darknode, _token, amount, darknodeOperator);\n            emit LogDarknodeWithdrew(\n                darknodeOperator,\n                _darknode,\n                _token,\n                amount\n            );\n        }\n    }\n\n    function withdrawMultiple(\n        address[] calldata _darknodes,\n        address[] calldata _tokens\n    ) external {\n        for (uint256 i = 0; i < _darknodes.length; i++) {\n            for (uint256 j = 0; j < _tokens.length; j++) {\n                withdraw(_darknodes[i], _tokens[j]);\n            }\n        }\n    }\n\n    /// @notice Forward all payments to the DarknodePaymentStore.\n    function() external payable {\n        address(store).transfer(msg.value);\n        emit LogPaymentReceived(msg.sender, ETHEREUM, msg.value);\n    }\n\n    /// @notice The current balance of the contract available as reward for the\n    ///         current cycle.\n    function currentCycleRewardPool(address _token)\n        external\n        view\n        returns (uint256)\n    {\n        uint256 total = store.availableBalance(_token).sub(\n            unclaimedRewards[_token],\n            \"DarknodePayment: unclaimed rewards exceed total rewards\"\n        );\n        return total.div(100).mul(currentCyclePayoutPercent);\n    }\n\n    function darknodeBalances(address _darknodeID, address _token)\n        external\n        view\n        returns (uint256)\n    {\n        return store.darknodeBalances(_darknodeID, _token);\n    }\n\n    /// @notice Changes the current cycle.\n    function changeCycle() external onlyCycleChanger returns (uint256) {\n        // Snapshot balances for the past cycle.\n        uint256 arrayLength = registeredTokens.length;\n        for (uint256 i = 0; i < arrayLength; i++) {\n            _snapshotBalance(registeredTokens[i]);\n        }\n\n        // Start a new cycle.\n        previousCycle = currentCycle;\n        (currentCycle, cycleStartTime) = darknodeRegistry.currentEpoch();\n        currentCyclePayoutPercent = nextCyclePayoutPercent;\n\n        // Update the list of registeredTokens.\n        _updateTokenList();\n        return currentCycle;\n    }\n\n    /// @notice Deposits token into the contract to be paid to the Darknodes.\n    ///\n    /// @param _value The amount of token deposit in the token's smallest unit.\n    /// @param _token The token address.\n    function deposit(uint256 _value, address _token) external payable {\n        uint256 receivedValue;\n        if (_token == ETHEREUM) {\n            require(\n                _value == msg.value,\n                \"DarknodePayment: mismatched deposit value\"\n            );\n            receivedValue = msg.value;\n            address(store).transfer(msg.value);\n        } else {\n            require(\n                msg.value == 0,\n                \"DarknodePayment: unexpected ether transfer\"\n            );\n            require(\n                registeredTokenIndex[_token] != 0,\n                \"DarknodePayment: token not registered\"\n            );\n            // Forward the funds to the store.\n            receivedValue = ERC20(_token).safeTransferFromWithFees(\n                msg.sender,\n                address(store),\n                _value\n            );\n        }\n        emit LogPaymentReceived(msg.sender, _token, receivedValue);\n    }\n\n    /// @notice Forwards any tokens that have been sent to the DarknodePayment contract\n    ///         probably by mistake, to the DarknodePaymentStore.\n    ///\n    /// @param _token The token address.\n    function forward(address _token) external {\n        if (_token == ETHEREUM) {\n            // Its unlikely that ETH will need to be forwarded, but it is\n            // possible. For example - if ETH had already been sent to the\n            // contract's address before it was deployed, or if funds are sent\n            // to it as part of a contract's self-destruct.\n            address(store).transfer(address(this).balance);\n        } else {\n            ERC20(_token).safeTransfer(\n                address(store),\n                ERC20(_token).balanceOf(address(this))\n            );\n        }\n    }\n\n    /// @notice Claims the rewards allocated to the darknode last epoch.\n    /// @param _darknode The address of the darknode to claim.\n    function claim(address _darknode) external onlyDarknode(_darknode) {\n        require(\n            darknodeRegistry.isRegisteredInPreviousEpoch(_darknode),\n            \"DarknodePayment: cannot claim for this epoch\"\n        );\n        // Claim share of rewards allocated for last cycle.\n        _claimDarknodeReward(_darknode);\n        emit LogDarknodeClaim(_darknode, previousCycle);\n    }\n\n    /// @notice Adds tokens to be payable. Registration is pending until next\n    ///         cycle.\n    ///\n    /// @param _token The address of the token to be registered.\n    function registerToken(address _token) external onlyOwner {\n        require(\n            registeredTokenIndex[_token] == 0,\n            \"DarknodePayment: token already registered\"\n        );\n        require(\n            !tokenPendingRegistration(_token),\n            \"DarknodePayment: token already pending registration\"\n        );\n        pendingTokens.push(_token);\n    }\n\n    function tokenPendingRegistration(address _token)\n        public\n        view\n        returns (bool)\n    {\n        uint256 arrayLength = pendingTokens.length;\n        for (uint256 i = 0; i < arrayLength; i++) {\n            if (pendingTokens[i] == _token) {\n                return true;\n            }\n        }\n        return false;\n    }\n\n    /// @notice Removes a token from the list of supported tokens.\n    ///         Deregistration is pending until next cycle.\n    ///\n    /// @param _token The address of the token to be deregistered.\n    function deregisterToken(address _token) external onlyOwner {\n        require(\n            registeredTokenIndex[_token] > 0,\n            \"DarknodePayment: token not registered\"\n        );\n        _deregisterToken(_token);\n    }\n\n    /// @notice Updates the CycleChanger contract address.\n    ///\n    /// @param _addr The new CycleChanger contract address.\n    function updateCycleChanger(address _addr) external onlyOwner {\n        require(\n            _addr != address(0),\n            \"DarknodePayment: invalid contract address\"\n        );\n        emit LogCycleChangerChanged(_addr, cycleChanger);\n        cycleChanger = _addr;\n    }\n\n    /// @notice Updates payout percentage.\n    ///\n    /// @param _percent The percentage of payout for darknodes.\n    function updatePayoutPercentage(uint256 _percent)\n        external\n        onlyOwner\n        validPercent(_percent)\n    {\n        uint256 oldPayoutPercent = nextCyclePayoutPercent;\n        nextCyclePayoutPercent = _percent;\n        emit LogPayoutPercentChanged(nextCyclePayoutPercent, oldPayoutPercent);\n    }\n\n    /// @notice Allows the contract owner to initiate an ownership transfer of\n    ///         the DarknodePaymentStore.\n    ///\n    /// @param _newOwner The address to transfer the ownership to.\n    function transferStoreOwnership(DarknodePayment _newOwner)\n        external\n        onlyOwner\n    {\n        store.transferOwnership(address(_newOwner));\n        _newOwner.claimStoreOwnership();\n    }\n\n    /// @notice Claims ownership of the store passed in to the constructor.\n    ///         `transferStoreOwnership` must have previously been called when\n    ///         transferring from another DarknodePaymentStore.\n    function claimStoreOwnership() external {\n        store.claimOwnership();\n    }\n\n    /// @notice Claims the darknode reward for all registered tokens into\n    ///         darknodeBalances in the DarknodePaymentStore.\n    ///         Rewards can only be claimed once per cycle.\n    ///\n    /// @param _darknode The address to the darknode to claim rewards for.\n    function _claimDarknodeReward(address _darknode) private {\n        require(\n            !rewardClaimed[_darknode][previousCycle],\n            \"DarknodePayment: reward already claimed\"\n        );\n        rewardClaimed[_darknode][previousCycle] = true;\n        uint256 arrayLength = registeredTokens.length;\n        for (uint256 i = 0; i < arrayLength; i++) {\n            address token = registeredTokens[i];\n\n            // Only increment balance if shares were allocated last cycle\n            if (previousCycleRewardShare[token] > 0) {\n                unclaimedRewards[token] = unclaimedRewards[token].sub(\n                    previousCycleRewardShare[token],\n                    \"DarknodePayment: share exceeds unclaimed rewards\"\n                );\n                store.incrementDarknodeBalance(\n                    _darknode,\n                    token,\n                    previousCycleRewardShare[token]\n                );\n            }\n        }\n    }\n\n    /// @notice Snapshots the current balance of the tokens, for all registered\n    ///         tokens.\n    ///\n    /// @param _token The address the token to snapshot.\n    function _snapshotBalance(address _token) private {\n        uint256 shareCount = darknodeRegistry.numDarknodesPreviousEpoch();\n        if (shareCount == 0) {\n            unclaimedRewards[_token] = 0;\n            previousCycleRewardShare[_token] = 0;\n        } else {\n            // Lock up the current balance for darknode reward allocation\n            uint256 total = store.availableBalance(_token);\n            unclaimedRewards[_token] = total.div(100).mul(\n                currentCyclePayoutPercent\n            );\n            previousCycleRewardShare[_token] = unclaimedRewards[_token].div(\n                shareCount\n            );\n        }\n    }\n\n    /// @notice Deregisters a token, removing it from the list of\n    ///         registeredTokens.\n    ///\n    /// @param _token The address of the token to deregister.\n    function _deregisterToken(address _token) private {\n        address lastToken = registeredTokens[registeredTokens.length.sub(\n            1,\n            \"DarknodePayment: no tokens registered\"\n        )];\n        uint256 deletedTokenIndex = registeredTokenIndex[_token].sub(1);\n        // Move the last token to _token's position and update it's index\n        registeredTokens[deletedTokenIndex] = lastToken;\n        registeredTokenIndex[lastToken] = registeredTokenIndex[_token];\n        // Decreasing the length will clean up the storage for us\n        // So we don't need to manually delete the element\n        registeredTokens.pop();\n        registeredTokenIndex[_token] = 0;\n\n        emit LogTokenDeregistered(_token);\n    }\n\n    /// @notice Updates the list of registeredTokens adding tokens that are to be registered.\n    ///         The list of tokens that are pending registration are emptied afterwards.\n    function _updateTokenList() private {\n        // Register tokens\n        uint256 arrayLength = pendingTokens.length;\n        for (uint256 i = 0; i < arrayLength; i++) {\n            address token = pendingTokens[i];\n            registeredTokens.push(token);\n            registeredTokenIndex[token] = registeredTokens.length;\n            emit LogTokenRegistered(token);\n        }\n        pendingTokens.length = 0;\n    }\n\n}\n",
  "sourcePath": "/home/noah/github/renproject/ren-sol/contracts/DarknodePayment/DarknodePayment.sol",
  "compiler": {
    "name": "solc",
    "version": "0.5.16+commit.9c3226ce.Emscripten.clang"
  },
  "schemaVersion": "3.0.23",
  "updatedAt": "2020-03-30T04:17:17.294Z",
  "networkType": "ethereum",
  "devdoc": {
    "methods": {
      "claim(address)": {
        "params": {
          "_darknode": "The address of the darknode to claim."
        }
      },
      "constructor": {
        "params": {
          "_VERSION": "A string defining the contract version.",
          "_darknodePaymentStore": "The address of the DarknodePaymentStore        contract.",
          "_darknodeRegistry": "The address of the DarknodeRegistry contract."
        }
      },
      "deposit(uint256,address)": {
        "params": {
          "_token": "The token address.",
          "_value": "The amount of token deposit in the token's smallest unit."
        }
      },
      "deregisterToken(address)": {
        "params": {
          "_token": "The address of the token to be deregistered."
        }
      },
      "forward(address)": {
        "params": {
          "_token": "The token address."
        }
      },
      "isOwner()": {
        "details": "Returns true if the caller is the current owner."
      },
      "owner()": {
        "details": "Returns the address of the current owner."
      },
      "registerToken(address)": {
        "params": {
          "_token": "The address of the token to be registered."
        }
      },
      "renounceOwnership()": {
        "details": "Leaves the contract without owner. It will not be possible to call `onlyOwner` functions anymore. Can only be called by the current owner.     * > Note: Renouncing ownership will leave the contract without an owner, thereby removing any functionality that is only available to the owner."
      },
      "transferStoreOwnership(address)": {
        "params": {
          "_newOwner": "The address to transfer the ownership to."
        }
      },
      "updateCycleChanger(address)": {
        "params": {
          "_addr": "The new CycleChanger contract address."
        }
      },
      "updateDarknodeRegistry(address)": {
        "params": {
          "_darknodeRegistry": "The address of the Darknode Registry contract."
        }
      },
      "updatePayoutPercentage(uint256)": {
        "params": {
          "_percent": "The percentage of payout for darknodes."
        }
      },
      "withdraw(address,address)": {
        "params": {
          "_darknode": "The address of the darknode.",
          "_token": "Which token to transfer."
        }
      }
    }
  },
  "userdoc": {
    "methods": {
      "changeCycle()": {
        "notice": "Changes the current cycle."
      },
      "claim(address)": {
        "notice": "Claims the rewards allocated to the darknode last epoch."
      },
      "claimStoreOwnership()": {
        "notice": "Claims ownership of the store passed in to the constructor.         `transferStoreOwnership` must have previously been called when         transferring from another DarknodePaymentStore."
      },
      "constructor": "The contract constructor. Starts the current cycle using the         time of deploy. ",
      "currentCycleRewardPool(address)": {
        "notice": "The current balance of the contract available as reward for the         current cycle."
      },
      "deposit(uint256,address)": {
        "notice": "Deposits token into the contract to be paid to the Darknodes. "
      },
      "deregisterToken(address)": {
        "notice": "Removes a token from the list of supported tokens.         Deregistration is pending until next cycle. "
      },
      "forward(address)": {
        "notice": "Forwards any tokens that have been sent to the DarknodePayment contract         probably by mistake, to the DarknodePaymentStore. "
      },
      "registerToken(address)": {
        "notice": "Adds tokens to be payable. Registration is pending until next         cycle. "
      },
      "transferStoreOwnership(address)": {
        "notice": "Allows the contract owner to initiate an ownership transfer of         the DarknodePaymentStore. "
      },
      "updateCycleChanger(address)": {
        "notice": "Updates the CycleChanger contract address. "
      },
      "updateDarknodeRegistry(address)": {
        "notice": "Allows the contract owner to update the address of the darknode registry contract."
      },
      "updatePayoutPercentage(uint256)": {
        "notice": "Updates payout percentage. "
      },
      "withdraw(address,address)": {
        "notice": "Transfers the funds allocated to the darknode to the darknode         owner. "
      }
    },
    "notice": "DarknodePayment is responsible for paying off darknodes for their         computation."
  }
}