{
  "contractName": "DarknodeRegistryLogicV1",
  "abi": [
    {
      "anonymous": false,
      "inputs": [
        {
          "indexed": true,
          "internalType": "address",
          "name": "_darknodeOperator",
          "type": "address"
        },
        {
          "indexed": true,
          "internalType": "address",
          "name": "_darknodeID",
          "type": "address"
        }
      ],
      "name": "LogDarknodeDeregistered",
      "type": "event"
    },
    {
      "anonymous": false,
      "inputs": [
        {
          "indexed": true,
          "internalType": "contract IDarknodePayment",
          "name": "_previousDarknodePayment",
          "type": "address"
        },
        {
          "indexed": true,
          "internalType": "contract IDarknodePayment",
          "name": "_nextDarknodePayment",
          "type": "address"
        }
      ],
      "name": "LogDarknodePaymentUpdated",
      "type": "event"
    },
    {
      "anonymous": false,
      "inputs": [
        {
          "indexed": true,
          "internalType": "address",
          "name": "_darknodeOperator",
          "type": "address"
        },
        {
          "indexed": true,
          "internalType": "address",
          "name": "_darknodeID",
          "type": "address"
        },
        {
          "indexed": false,
          "internalType": "uint256",
          "name": "_amount",
          "type": "uint256"
        }
      ],
      "name": "LogDarknodeRefunded",
      "type": "event"
    },
    {
      "anonymous": false,
      "inputs": [
        {
          "indexed": true,
          "internalType": "address",
          "name": "_darknodeOperator",
          "type": "address"
        },
        {
          "indexed": true,
          "internalType": "address",
          "name": "_darknodeID",
          "type": "address"
        },
        {
          "indexed": false,
          "internalType": "uint256",
          "name": "_bond",
          "type": "uint256"
        }
      ],
      "name": "LogDarknodeRegistered",
      "type": "event"
    },
    {
      "anonymous": false,
      "inputs": [
        {
          "indexed": true,
          "internalType": "address",
          "name": "_darknodeOperator",
          "type": "address"
        },
        {
          "indexed": true,
          "internalType": "address",
          "name": "_darknodeID",
          "type": "address"
        },
        {
          "indexed": true,
          "internalType": "address",
          "name": "_challenger",
          "type": "address"
        },
        {
          "indexed": false,
          "internalType": "uint256",
          "name": "_percentage",
          "type": "uint256"
        }
      ],
      "name": "LogDarknodeSlashed",
      "type": "event"
    },
    {
      "anonymous": false,
      "inputs": [
        {
          "indexed": false,
          "internalType": "uint256",
          "name": "_previousMinimumBond",
          "type": "uint256"
        },
        {
          "indexed": false,
          "internalType": "uint256",
          "name": "_nextMinimumBond",
          "type": "uint256"
        }
      ],
      "name": "LogMinimumBondUpdated",
      "type": "event"
    },
    {
      "anonymous": false,
      "inputs": [
        {
          "indexed": false,
          "internalType": "uint256",
          "name": "_previousMinimumEpochInterval",
          "type": "uint256"
        },
        {
          "indexed": false,
          "internalType": "uint256",
          "name": "_nextMinimumEpochInterval",
          "type": "uint256"
        }
      ],
      "name": "LogMinimumEpochIntervalUpdated",
      "type": "event"
    },
    {
      "anonymous": false,
      "inputs": [
        {
          "indexed": false,
          "internalType": "uint256",
          "name": "_previousMinimumPodSize",
          "type": "uint256"
        },
        {
          "indexed": false,
          "internalType": "uint256",
          "name": "_nextMinimumPodSize",
          "type": "uint256"
        }
      ],
      "name": "LogMinimumPodSizeUpdated",
      "type": "event"
    },
    {
      "anonymous": false,
      "inputs": [
        {
          "indexed": true,
          "internalType": "uint256",
          "name": "epochhash",
          "type": "uint256"
        }
      ],
      "name": "LogNewEpoch",
      "type": "event"
    },
    {
      "anonymous": false,
      "inputs": [
        {
          "indexed": true,
          "internalType": "address",
          "name": "_previousSlasher",
          "type": "address"
        },
        {
          "indexed": true,
          "internalType": "address",
          "name": "_nextSlasher",
          "type": "address"
        }
      ],
      "name": "LogSlasherUpdated",
      "type": "event"
    },
    {
      "anonymous": false,
      "inputs": [
        {
          "indexed": true,
          "internalType": "address",
          "name": "previousOwner",
          "type": "address"
        },
        {
          "indexed": true,
          "internalType": "address",
          "name": "newOwner",
          "type": "address"
        }
      ],
      "name": "OwnershipTransferred",
      "type": "event"
    },
    {
      "constant": true,
      "inputs": [],
      "name": "VERSION",
      "outputs": [
        {
          "internalType": "string",
          "name": "",
          "type": "string"
        }
      ],
      "payable": false,
      "stateMutability": "view",
      "type": "function"
    },
    {
      "constant": false,
      "inputs": [
        {
          "internalType": "address",
          "name": "_token",
          "type": "address"
        }
      ],
      "name": "blacklistRecoverableToken",
      "outputs": [],
      "payable": false,
      "stateMutability": "nonpayable",
      "type": "function"
    },
    {
      "constant": false,
      "inputs": [],
      "name": "claimOwnership",
      "outputs": [],
      "payable": false,
      "stateMutability": "nonpayable",
      "type": "function"
    },
    {
      "constant": true,
      "inputs": [],
      "name": "currentEpoch",
      "outputs": [
        {
          "internalType": "uint256",
          "name": "epochhash",
          "type": "uint256"
        },
        {
          "internalType": "uint256",
          "name": "blocktime",
          "type": "uint256"
        }
      ],
      "payable": false,
      "stateMutability": "view",
      "type": "function"
    },
    {
      "constant": true,
      "inputs": [],
      "name": "darknodePayment",
      "outputs": [
        {
          "internalType": "contract IDarknodePayment",
          "name": "",
          "type": "address"
        }
      ],
      "payable": false,
      "stateMutability": "view",
      "type": "function"
    },
    {
      "constant": true,
      "inputs": [],
      "name": "deregistrationInterval",
      "outputs": [
        {
          "internalType": "uint256",
          "name": "",
          "type": "uint256"
        }
      ],
      "payable": false,
      "stateMutability": "view",
      "type": "function"
    },
    {
      "constant": true,
      "inputs": [],
      "name": "isOwner",
      "outputs": [
        {
          "internalType": "bool",
          "name": "",
          "type": "bool"
        }
      ],
      "payable": false,
      "stateMutability": "view",
      "type": "function"
    },
    {
      "constant": true,
      "inputs": [],
      "name": "minimumBond",
      "outputs": [
        {
          "internalType": "uint256",
          "name": "",
          "type": "uint256"
        }
      ],
      "payable": false,
      "stateMutability": "view",
      "type": "function"
    },
    {
      "constant": true,
      "inputs": [],
      "name": "minimumEpochInterval",
      "outputs": [
        {
          "internalType": "uint256",
          "name": "",
          "type": "uint256"
        }
      ],
      "payable": false,
      "stateMutability": "view",
      "type": "function"
    },
    {
      "constant": true,
      "inputs": [],
      "name": "minimumPodSize",
      "outputs": [
        {
          "internalType": "uint256",
          "name": "",
          "type": "uint256"
        }
      ],
      "payable": false,
      "stateMutability": "view",
      "type": "function"
    },
    {
      "constant": true,
      "inputs": [],
      "name": "nextMinimumBond",
      "outputs": [
        {
          "internalType": "uint256",
          "name": "",
          "type": "uint256"
        }
      ],
      "payable": false,
      "stateMutability": "view",
      "type": "function"
    },
    {
      "constant": true,
      "inputs": [],
      "name": "nextMinimumEpochInterval",
      "outputs": [
        {
          "internalType": "uint256",
          "name": "",
          "type": "uint256"
        }
      ],
      "payable": false,
      "stateMutability": "view",
      "type": "function"
    },
    {
      "constant": true,
      "inputs": [],
      "name": "nextMinimumPodSize",
      "outputs": [
        {
          "internalType": "uint256",
          "name": "",
          "type": "uint256"
        }
      ],
      "payable": false,
      "stateMutability": "view",
      "type": "function"
    },
    {
      "constant": true,
      "inputs": [],
      "name": "nextSlasher",
      "outputs": [
        {
          "internalType": "contract IDarknodeSlasher",
          "name": "",
          "type": "address"
        }
      ],
      "payable": false,
      "stateMutability": "view",
      "type": "function"
    },
    {
      "constant": true,
      "inputs": [],
      "name": "numDarknodes",
      "outputs": [
        {
          "internalType": "uint256",
          "name": "",
          "type": "uint256"
        }
      ],
      "payable": false,
      "stateMutability": "view",
      "type": "function"
    },
    {
      "constant": true,
      "inputs": [],
      "name": "numDarknodesNextEpoch",
      "outputs": [
        {
          "internalType": "uint256",
          "name": "",
          "type": "uint256"
        }
      ],
      "payable": false,
      "stateMutability": "view",
      "type": "function"
    },
    {
      "constant": true,
      "inputs": [],
      "name": "numDarknodesPreviousEpoch",
      "outputs": [
        {
          "internalType": "uint256",
          "name": "",
          "type": "uint256"
        }
      ],
      "payable": false,
      "stateMutability": "view",
      "type": "function"
    },
    {
      "constant": true,
      "inputs": [],
      "name": "owner",
      "outputs": [
        {
          "internalType": "address",
          "name": "",
          "type": "address"
        }
      ],
      "payable": false,
      "stateMutability": "view",
      "type": "function"
    },
    {
      "constant": true,
      "inputs": [],
      "name": "pendingOwner",
      "outputs": [
        {
          "internalType": "address",
          "name": "",
          "type": "address"
        }
      ],
      "payable": false,
      "stateMutability": "view",
      "type": "function"
    },
    {
      "constant": true,
      "inputs": [],
      "name": "previousEpoch",
      "outputs": [
        {
          "internalType": "uint256",
          "name": "epochhash",
          "type": "uint256"
        },
        {
          "internalType": "uint256",
          "name": "blocktime",
          "type": "uint256"
        }
      ],
      "payable": false,
      "stateMutability": "view",
      "type": "function"
    },
    {
      "constant": false,
      "inputs": [
        {
          "internalType": "address",
          "name": "_token",
          "type": "address"
        }
      ],
      "name": "recoverTokens",
      "outputs": [],
      "payable": false,
      "stateMutability": "nonpayable",
      "type": "function"
    },
    {
      "constant": true,
      "inputs": [],
      "name": "ren",
      "outputs": [
        {
          "internalType": "contract RenToken",
          "name": "",
          "type": "address"
        }
      ],
      "payable": false,
      "stateMutability": "view",
      "type": "function"
    },
    {
      "constant": false,
      "inputs": [],
      "name": "renounceOwnership",
      "outputs": [],
      "payable": false,
      "stateMutability": "nonpayable",
      "type": "function"
    },
    {
      "constant": true,
      "inputs": [],
      "name": "slasher",
      "outputs": [
        {
          "internalType": "contract IDarknodeSlasher",
          "name": "",
          "type": "address"
        }
      ],
      "payable": false,
      "stateMutability": "view",
      "type": "function"
    },
    {
      "constant": true,
      "inputs": [],
      "name": "store",
      "outputs": [
        {
          "internalType": "contract DarknodeRegistryStore",
          "name": "",
          "type": "address"
        }
      ],
      "payable": false,
      "stateMutability": "view",
      "type": "function"
    },
    {
      "constant": false,
      "inputs": [
        {
          "internalType": "address",
          "name": "newOwner",
          "type": "address"
        }
      ],
      "name": "transferOwnership",
      "outputs": [],
      "payable": false,
      "stateMutability": "nonpayable",
      "type": "function"
    },
    {
      "constant": false,
      "inputs": [
        {
          "internalType": "string",
          "name": "_VERSION",
          "type": "string"
        },
        {
          "internalType": "contract RenToken",
          "name": "_renAddress",
          "type": "address"
        },
        {
          "internalType": "contract DarknodeRegistryStore",
          "name": "_storeAddress",
          "type": "address"
        },
        {
          "internalType": "uint256",
          "name": "_minimumBond",
          "type": "uint256"
        },
        {
          "internalType": "uint256",
          "name": "_minimumPodSize",
          "type": "uint256"
        },
        {
          "internalType": "uint256",
          "name": "_minimumEpochIntervalSeconds",
          "type": "uint256"
        },
        {
          "internalType": "uint256",
          "name": "_deregistrationIntervalSeconds",
          "type": "uint256"
        }
      ],
      "name": "initialize",
      "outputs": [],
      "payable": false,
      "stateMutability": "nonpayable",
      "type": "function"
    },
    {
      "constant": false,
      "inputs": [
        {
          "internalType": "address",
          "name": "_nextOwner",
          "type": "address"
        }
      ],
      "name": "initialize",
      "outputs": [],
      "payable": false,
      "stateMutability": "nonpayable",
      "type": "function"
    },
    {
      "constant": false,
      "inputs": [
        {
          "internalType": "address",
          "name": "_darknodeID",
          "type": "address"
        },
        {
          "internalType": "bytes",
          "name": "_publicKey",
          "type": "bytes"
        }
      ],
      "name": "register",
      "outputs": [],
      "payable": false,
      "stateMutability": "nonpayable",
      "type": "function"
    },
    {
      "constant": false,
      "inputs": [
        {
          "internalType": "address",
          "name": "_darknodeID",
          "type": "address"
        }
      ],
      "name": "deregister",
      "outputs": [],
      "payable": false,
      "stateMutability": "nonpayable",
      "type": "function"
    },
    {
      "constant": false,
      "inputs": [],
      "name": "epoch",
      "outputs": [],
      "payable": false,
      "stateMutability": "nonpayable",
      "type": "function"
    },
    {
      "constant": false,
      "inputs": [
        {
          "internalType": "contract DarknodeRegistryLogicV1",
          "name": "_newOwner",
          "type": "address"
        }
      ],
      "name": "transferStoreOwnership",
      "outputs": [],
      "payable": false,
      "stateMutability": "nonpayable",
      "type": "function"
    },
    {
      "constant": false,
      "inputs": [],
      "name": "claimStoreOwnership",
      "outputs": [],
      "payable": false,
      "stateMutability": "nonpayable",
      "type": "function"
    },
    {
      "constant": false,
      "inputs": [
        {
          "internalType": "contract IDarknodePayment",
          "name": "_darknodePayment",
          "type": "address"
        }
      ],
      "name": "updateDarknodePayment",
      "outputs": [],
      "payable": false,
      "stateMutability": "nonpayable",
      "type": "function"
    },
    {
      "constant": false,
      "inputs": [
        {
          "internalType": "uint256",
          "name": "_nextMinimumBond",
          "type": "uint256"
        }
      ],
      "name": "updateMinimumBond",
      "outputs": [],
      "payable": false,
      "stateMutability": "nonpayable",
      "type": "function"
    },
    {
      "constant": false,
      "inputs": [
        {
          "internalType": "uint256",
          "name": "_nextMinimumPodSize",
          "type": "uint256"
        }
      ],
      "name": "updateMinimumPodSize",
      "outputs": [],
      "payable": false,
      "stateMutability": "nonpayable",
      "type": "function"
    },
    {
      "constant": false,
      "inputs": [
        {
          "internalType": "uint256",
          "name": "_nextMinimumEpochInterval",
          "type": "uint256"
        }
      ],
      "name": "updateMinimumEpochInterval",
      "outputs": [],
      "payable": false,
      "stateMutability": "nonpayable",
      "type": "function"
    },
    {
      "constant": false,
      "inputs": [
        {
          "internalType": "contract IDarknodeSlasher",
          "name": "_slasher",
          "type": "address"
        }
      ],
      "name": "updateSlasher",
      "outputs": [],
      "payable": false,
      "stateMutability": "nonpayable",
      "type": "function"
    },
    {
      "constant": false,
      "inputs": [
        {
          "internalType": "address",
          "name": "_guilty",
          "type": "address"
        },
        {
          "internalType": "address",
          "name": "_challenger",
          "type": "address"
        },
        {
          "internalType": "uint256",
          "name": "_percentage",
          "type": "uint256"
        }
      ],
      "name": "slash",
      "outputs": [],
      "payable": false,
      "stateMutability": "nonpayable",
      "type": "function"
    },
    {
      "constant": false,
      "inputs": [
        {
          "internalType": "address",
          "name": "_darknodeID",
          "type": "address"
        }
      ],
      "name": "refund",
      "outputs": [],
      "payable": false,
      "stateMutability": "nonpayable",
      "type": "function"
    },
    {
      "constant": true,
      "inputs": [
        {
          "internalType": "address",
          "name": "_darknodeID",
          "type": "address"
        }
      ],
      "name": "getDarknodeOperator",
      "outputs": [
        {
          "internalType": "address payable",
          "name": "",
          "type": "address"
        }
      ],
      "payable": false,
      "stateMutability": "view",
      "type": "function"
    },
    {
      "constant": true,
      "inputs": [
        {
          "internalType": "address",
          "name": "_darknodeID",
          "type": "address"
        }
      ],
      "name": "getDarknodeBond",
      "outputs": [
        {
          "internalType": "uint256",
          "name": "",
          "type": "uint256"
        }
      ],
      "payable": false,
      "stateMutability": "view",
      "type": "function"
    },
    {
      "constant": true,
      "inputs": [
        {
          "internalType": "address",
          "name": "_darknodeID",
          "type": "address"
        }
      ],
      "name": "getDarknodePublicKey",
      "outputs": [
        {
          "internalType": "bytes",
          "name": "",
          "type": "bytes"
        }
      ],
      "payable": false,
      "stateMutability": "view",
      "type": "function"
    },
    {
      "constant": true,
      "inputs": [
        {
          "internalType": "address",
          "name": "_start",
          "type": "address"
        },
        {
          "internalType": "uint256",
          "name": "_count",
          "type": "uint256"
        }
      ],
      "name": "getDarknodes",
      "outputs": [
        {
          "internalType": "address[]",
          "name": "",
          "type": "address[]"
        }
      ],
      "payable": false,
      "stateMutability": "view",
      "type": "function"
    },
    {
      "constant": true,
      "inputs": [
        {
          "internalType": "address",
          "name": "_start",
          "type": "address"
        },
        {
          "internalType": "uint256",
          "name": "_count",
          "type": "uint256"
        }
      ],
      "name": "getPreviousDarknodes",
      "outputs": [
        {
          "internalType": "address[]",
          "name": "",
          "type": "address[]"
        }
      ],
      "payable": false,
      "stateMutability": "view",
      "type": "function"
    },
    {
      "constant": true,
      "inputs": [
        {
          "internalType": "address",
          "name": "_darknodeID",
          "type": "address"
        }
      ],
      "name": "isPendingRegistration",
      "outputs": [
        {
          "internalType": "bool",
          "name": "",
          "type": "bool"
        }
      ],
      "payable": false,
      "stateMutability": "view",
      "type": "function"
    },
    {
      "constant": true,
      "inputs": [
        {
          "internalType": "address",
          "name": "_darknodeID",
          "type": "address"
        }
      ],
      "name": "isPendingDeregistration",
      "outputs": [
        {
          "internalType": "bool",
          "name": "",
          "type": "bool"
        }
      ],
      "payable": false,
      "stateMutability": "view",
      "type": "function"
    },
    {
      "constant": true,
      "inputs": [
        {
          "internalType": "address",
          "name": "_darknodeID",
          "type": "address"
        }
      ],
      "name": "isDeregistered",
      "outputs": [
        {
          "internalType": "bool",
          "name": "",
          "type": "bool"
        }
      ],
      "payable": false,
      "stateMutability": "view",
      "type": "function"
    },
    {
      "constant": true,
      "inputs": [
        {
          "internalType": "address",
          "name": "_darknodeID",
          "type": "address"
        }
      ],
      "name": "isDeregisterable",
      "outputs": [
        {
          "internalType": "bool",
          "name": "",
          "type": "bool"
        }
      ],
      "payable": false,
      "stateMutability": "view",
      "type": "function"
    },
    {
      "constant": true,
      "inputs": [
        {
          "internalType": "address",
          "name": "_darknodeID",
          "type": "address"
        }
      ],
      "name": "isRefunded",
      "outputs": [
        {
          "internalType": "bool",
          "name": "",
          "type": "bool"
        }
      ],
      "payable": false,
      "stateMutability": "view",
      "type": "function"
    },
    {
      "constant": true,
      "inputs": [
        {
          "internalType": "address",
          "name": "_darknodeID",
          "type": "address"
        }
      ],
      "name": "isRefundable",
      "outputs": [
        {
          "internalType": "bool",
          "name": "",
          "type": "bool"
        }
      ],
      "payable": false,
      "stateMutability": "view",
      "type": "function"
    },
    {
      "constant": true,
      "inputs": [
        {
          "internalType": "address",
          "name": "_darknodeID",
          "type": "address"
        }
      ],
      "name": "isRegistered",
      "outputs": [
        {
          "internalType": "bool",
          "name": "",
          "type": "bool"
        }
      ],
      "payable": false,
      "stateMutability": "view",
      "type": "function"
    },
    {
      "constant": true,
      "inputs": [
        {
          "internalType": "address",
          "name": "_darknodeID",
          "type": "address"
        }
      ],
      "name": "isRegisteredInPreviousEpoch",
      "outputs": [
        {
          "internalType": "bool",
          "name": "",
          "type": "bool"
        }
      ],
      "payable": false,
      "stateMutability": "view",
      "type": "function"
    }
  ],
  "bytecode": "0x6080604052613c1b806100136000396000f3fe608060405234801561001057600080fd5b50600436106103275760003560e01c806380a0c461116101b8578063ba0f5b2011610104578063e74f8239116100a2578063f65d901c1161007c578063f65d901c146109c7578063fa89401a146109ed578063ffa1ad7414610a13578063ffc9152e14610a1b57610327565b8063e74f82391461093f578063ec5325c114610975578063f2fde38b146109a157610327565b8063c4d66de8116100de578063c4d66de8146108e3578063c7dbc2be14610909578063e187892514610911578063e30c39781461093757610327565b8063ba0f5b2014610871578063c2250a9914610897578063c3c5a547146108bd57610327565b8063900cf0cf11610171578063aa7517e11161014b578063aa7517e114610833578063b13442711461083b578063b3139d3814610843578063b6b34c671461086957610327565b8063900cf0cf1461081b578063975057e71461082357806399ddebfb1461082b57610327565b806380a0c4611461072557806384ac33ec1461074257806384d2688c146107685780638a9b4067146108035780638da5cb5b1461080b5780638f32d59b1461081357610327565b80635aebd1cb11610277578063715018a61161023057806374fe29161161020a57806374fe29161461060357806376671808146106d15780637be266da146106d95780638020fc1f146106ff57610327565b8063715018a6146105cd57806371740d16146105d557806371b4133c146105dd57610327565b80635aebd1cb146105515780635cdaab481461057757806360a22fe41461059857806363b851b9146105a05780636fd689e8146105bd578063702c25ee146105c557610327565b806324b8fbf6116102e4578063455dc46d116102be578063455dc46d1461051357806345f02dc21461051b5780634e71e0c81461054157806355cacda51461054957610327565b806324b8fbf6146103f1578063303ee98914610471578063438460741461049757610327565b8063040fa0511461032c5780630847e9fa146103665780630ff9aafe146103805780631460e6031461039f57806316114acd146103a757806321a2ad3a146103cd575b600080fd5b6103526004803603602081101561034257600080fd5b50356001600160a01b0316610a41565b604080519115158252519081900360200190f35b61036e610ad5565b60408051918252519081900360200190f35b61039d6004803603602081101561039657600080fd5b5035610adb565b005b61036e610b27565b61039d600480360360208110156103bd57600080fd5b50356001600160a01b0316610b2d565b6103d5610c9e565b604080516001600160a01b039092168252519081900360200190f35b61039d6004803603604081101561040757600080fd5b6001600160a01b03823516919081019060408101602082013564010000000081111561043257600080fd5b82018360208201111561044457600080fd5b8035906020019184600183028401116401000000008311171561046657600080fd5b509092509050610cad565b6103526004803603602081101561048757600080fd5b50356001600160a01b0316610f57565b6104c3600480360360408110156104ad57600080fd5b506001600160a01b038135169060200135610fa5565b60408051602080825283518183015283519192839290830191858101910280838360005b838110156104ff5781810151838201526020016104e7565b505050509050019250505060405180910390f35b61036e610fc8565b6103d56004803603602081101561053157600080fd5b50356001600160a01b0316610fce565b61039d611051565b61036e6110d1565b6103526004803603602081101561056757600080fd5b50356001600160a01b03166110d7565b61057f611172565b6040805192835260208301919091528051918290030190f35b61036e61117b565b61039d600480360360208110156105b657600080fd5b5035611181565b61039d6111cd565b61036e611248565b61039d61124e565b61036e6112df565b61039d600480360360208110156105f357600080fd5b50356001600160a01b03166112e5565b61039d600480360360e081101561061957600080fd5b81019060208101813564010000000081111561063457600080fd5b82018360208201111561064657600080fd5b8035906020019184600183028401116401000000008311171561066857600080fd5b91908080601f016020809104026020016040519081016040528093929190818152602001838380828437600092019190915250929550506001600160a01b0383358116945060208401351692604081013592506060810135915060808101359060a001356113c5565b61057f611538565b610352600480360360208110156106ef57600080fd5b50356001600160a01b0316611541565b6103526004803603602081101561071557600080fd5b50356001600160a01b0316611566565b61039d6004803603602081101561073b57600080fd5b50356115f7565b61039d6004803603602081101561075857600080fd5b50356001600160a01b0316611643565b61078e6004803603602081101561077e57600080fd5b50356001600160a01b0316611755565b6040805160208082528351818301528351919283929083019185019080838360005b838110156107c85781810151838201526020016107b0565b50505050905090810190601f1680156107f55780820380516001836020036101000a031916815260200191505b509250505060405180910390f35b6103d561189a565b6103d56118a9565b6103526118b9565b61039d6118df565b6103d5611be1565b61036e611bf0565b61036e611bf6565b6103d5611bfc565b61039d6004803603602081101561085957600080fd5b50356001600160a01b0316611c0b565b6103d5611cb9565b61036e6004803603602081101561088757600080fd5b50356001600160a01b0316611cc8565b61039d600480360360208110156108ad57600080fd5b50356001600160a01b0316611d19565b610352600480360360208110156108d357600080fd5b50356001600160a01b0316611e1c565b61039d600480360360208110156108f957600080fd5b50356001600160a01b0316611e41565b61036e611eed565b6103526004803603602081101561092757600080fd5b50356001600160a01b0316611ef3565b6103d5611f86565b61039d6004803603606081101561095557600080fd5b506001600160a01b03813581169160208101359091169060400135611f95565b6104c36004803603604081101561098b57600080fd5b506001600160a01b0381351690602001356124d5565b61039d600480360360208110156109b757600080fd5b50356001600160a01b03166124ee565b61039d600480360360208110156109dd57600080fd5b50356001600160a01b03166125df565b61039d60048036036020811015610a0357600080fd5b50356001600160a01b031661264a565b61078e612901565b61035260048036036020811015610a3157600080fd5b50356001600160a01b031661298f565b607854604080516338b5f19360e21b81526001600160a01b03848116600483015291516000938493169163e2d7c64c916024808301926020929190829003018186803b158015610a9057600080fd5b505afa158015610aa4573d6000803e3d6000fd5b505050506040513d6020811015610aba57600080fd5b505190508015801590610ace575060745481115b9392505050565b606a5481565b610ae36118b9565b610b22576040805162461bcd60e51b815260206004820181905260248201526000805160206139ba833981519152604482015290519081900360640190fd5b607055565b60695481565b610b356118b9565b610b74576040805162461bcd60e51b815260206004820181905260248201526000805160206139ba833981519152604482015290519081900360640190fd5b6001600160a01b03811660009081526067602052604090205460ff1615610bcc5760405162461bcd60e51b815260040180806020018281038252602a81526020018061386d602a913960400191505060405180910390fd5b6001600160a01b038116610c0c5760405133904780156108fc02916000818181858888f19350505050158015610c06573d6000803e3d6000fd5b50610c9b565b604080516370a0823160e01b81523060048201529051610c9b9133916001600160a01b038516916370a08231916024808301926020929190829003018186803b158015610c5857600080fd5b505afa158015610c6c573d6000803e3d6000fd5b505050506040513d6020811015610c8257600080fd5b50516001600160a01b038416919063ffffffff612a9e16565b50565b607b546001600160a01b031681565b82610cb78161298f565b610cf25760405162461bcd60e51b81526004018080602001828103825260368152602001806138f16036913960400191505060405180910390fd5b6001600160a01b038416610d375760405162461bcd60e51b8152600401808060200182810382526031815260200180613bb66031913960400191505060405180910390fd5b607754607854606c54604080516323b872dd60e01b81523360048201526001600160a01b03938416602482015260448101929092525191909216916323b872dd9160648083019260209291908290030181600087803b158015610d9957600080fd5b505af1158015610dad573d6000803e3d6000fd5b505050506040513d6020811015610dc357600080fd5b5051610e005760405162461bcd60e51b81526004018080602001828103825260268152602001806138cb6026913960400191505060405180910390fd5b607854606c54606e546074546001600160a01b039093169263a85ef579928892339289918991610e359163ffffffff612af016565b60006040518863ffffffff1660e01b815260040180886001600160a01b03166001600160a01b03168152602001876001600160a01b03166001600160a01b03168152602001868152602001806020018481526020018381526020018281038252868682818152602001925080828437600081840152601f19601f82011690508083019250505098505050505050505050600060405180830381600087803b158015610edf57600080fd5b505af1158015610ef3573d6000803e3d6000fd5b5050606a54610f0c92509050600163ffffffff612af016565b606a55606c5460408051918252516001600160a01b0386169133917f7c56cb7f63b6922d24414bf7c2b2c40c7ea1ea637c3f400efa766a85ecf2f0939181900360200190a350505050565b6078546040805162c985b760e11b81526001600160a01b0384811660048301529151600093849316916301930b6e916024808301926020929190829003018186803b158015610a9057600080fd5b60608180610fb25750606b545b610fbe84826001612b4a565b9150505b92915050565b60725481565b6078546040805163b68d931960e01b81526001600160a01b0384811660048301529151600093929092169163b68d931991602480820192602092909190829003018186803b15801561101f57600080fd5b505afa158015611033573d6000803e3d6000fd5b505050506040513d602081101561104957600080fd5b505192915050565b6066546001600160a01b0316611065612d8b565b6001600160a01b0316146110aa5760405162461bcd60e51b815260040180806020018281038252602a815260200180613a9f602a913960400191505060405180910390fd5b6066546110bf906001600160a01b0316612d8f565b606680546001600160a01b0319169055565b606e5481565b60006110e282611566565b8015610fc25750606f546076546078546040805162c985b760e11b81526001600160a01b038781166004830152915194909303939116916301930b6e916024808301926020929190829003018186803b15801561113e57600080fd5b505afa158015611152573d6000803e3d6000fd5b505050506040513d602081101561116857600080fd5b5051111592915050565b60755460765482565b60705481565b6111896118b9565b6111c8576040805162461bcd60e51b815260206004820181905260248201526000805160206139ba833981519152604482015290519081900360640190fd5b607255565b607860009054906101000a90046001600160a01b03166001600160a01b0316634e71e0c86040518163ffffffff1660e01b8152600401600060405180830381600087803b15801561121d57600080fd5b505af1158015611231573d6000803e3d6000fd5b5050505061123d612e30565b606a55606955606b55565b60715481565b6112566118b9565b611295576040805162461bcd60e51b815260206004820181905260248201526000805160206139ba833981519152604482015290519081900360640190fd5b6033546040516000916001600160a01b0316907f8be0079c531659141344cd1fd0a4f28419497f9722a3daafe3b4186f6b6457e0908390a3603380546001600160a01b0319169055565b606b5481565b6112ed6118b9565b61132c576040805162461bcd60e51b815260206004820181905260248201526000805160206139ba833981519152604482015290519081900360640190fd5b6001600160a01b0381166113715760405162461bcd60e51b8152600401808060200182810382526032815260200180613a6d6032913960400191505060405180910390fd5b607980546001600160a01b038381166001600160a01b03198316179283905560405191811692169082907fe3e25a79a5ba7c894fcc55794b2712e225537e89f777b9b9df307cc5504ba0e990600090a35050565b600054610100900460ff16806113de57506113de612fb0565b806113ec575060005460ff16155b6114275760405162461bcd60e51b815260040180806020018281038252602e815260200180613a3f602e913960400191505060405180910390fd5b600054610100900460ff16158015611452576000805460ff1961ff0019909116610100171660011790555b61145b33612fb6565b61146433611e41565b87516114779060689060208b01906137ae565b50607880546001600160a01b038089166001600160a01b03199283161790925560778054928a1692909116919091179055606c8590556070859055606d8490556071849055606e8390556072839055606f8290556040805180820182524360001901408082524260209092018290526073819055607491909155905181907faf2fc4796f2932ce294c3684deffe5098d3ef65dc2dd64efa80ef94eed88b01e90600090a250801561152e576000805461ff00191690555b5050505050505050565b60735460745482565b6040805180820190915260755481526076546020820152600090610fc290839061304c565b6078546040805162c985b760e11b81526001600160a01b0384811660048301529151600093849316916301930b6e916024808301926020929190829003018186803b1580156115b457600080fd5b505afa1580156115c8573d6000803e3d6000fd5b505050506040513d60208110156115de57600080fd5b505190508015801590610ace5750607454101592915050565b6115ff6118b9565b61163e576040805162461bcd60e51b815260206004820181905260248201526000805160206139ba833981519152604482015290519081900360640190fd5b607155565b8061164d81611ef3565b6116885760405162461bcd60e51b81526004018080602001828103825260288152602001806139506028913960400191505060405180910390fd5b6078546040805163b68d931960e01b81526001600160a01b038086166004830152915185933393169163b68d9319916024808301926020929190829003018186803b1580156116d657600080fd5b505afa1580156116ea573d6000803e3d6000fd5b505050506040513d602081101561170057600080fd5b50516001600160a01b0316146117475760405162461bcd60e51b81526004018080602001828103825260288152602001806139da6028913960400191505060405180910390fd5b61175083613187565b505050565b60785460408051630ee594a560e41b81526001600160a01b0384811660048301529151606093929092169163ee594a5091602480820192600092909190829003018186803b1580156117a657600080fd5b505afa1580156117ba573d6000803e3d6000fd5b505050506040513d6000823e601f3d908101601f1916820160405260208110156117e357600080fd5b810190808051604051939291908464010000000082111561180357600080fd5b90830190602082018581111561181857600080fd5b825164010000000081118282018810171561183257600080fd5b82525081516020918201929091019080838360005b8381101561185f578181015183820152602001611847565b50505050905090810190601f16801561188c5780820380516001836020036101000a031916815260200191505b506040525050509050919050565b6077546001600160a01b031681565b6033546001600160a01b03165b90565b6033546000906001600160a01b03166118d0612d8b565b6001600160a01b031614905090565b60765461193d576118ee6118a9565b6001600160a01b0316336001600160a01b03161461193d5760405162461bcd60e51b81526004018080602001828103825260348152602001806138976034913960400191505060405180910390fd5b606e546074546119529163ffffffff612af016565b4210156119905760405162461bcd60e51b815260040180806020018281038252602f815260200180613b87602f913960400191505060405180910390fd5b60738054607555607480546076556040805180820190915260001943014080825242602090920182905292839055905560698054606b55606a549055606c5460705414611a1b57607054606c81905560408051828152602081019290925280517f7c77c94944e9e4e5b0d46f1297127d060020792687cd743401d782346c68f6559281900390910190a15b606d5460715414611a6a57607154606d81905560408051828152602081019290925280517f6d520e46e5714982ddf8cb6216bcb3e1c1d5b79d337afc305335f819394f5d6a9281900390910190a15b606e5460725414611ab957607254606e81905560408051828152602081019290925280517fb218cde2730b79a0667ddf869466ee66a12ef56fe65fa4986a590f8a7108c9de9281900390910190a15b607a54607b546001600160a01b03908116911614611b2557607b54607a80546001600160a01b0319166001600160a01b0392831690811791829055604051909291909116907f933228a1c3ba8fadd3ce47a9db5b898be647f89af99ba7c1b9a655f59ea306c890600090a35b6079546001600160a01b031615611bb357607960009054906101000a90046001600160a01b03166001600160a01b031663b3a2af696040518163ffffffff1660e01b8152600401602060405180830381600087803b158015611b8657600080fd5b505af1158015611b9a573d6000803e3d6000fd5b505050506040513d6020811015611bb057600080fd5b50505b60405181907faf2fc4796f2932ce294c3684deffe5098d3ef65dc2dd64efa80ef94eed88b01e90600090a250565b6078546001600160a01b031681565b606f5481565b606c5481565b607a546001600160a01b031681565b611c136118b9565b611c52576040805162461bcd60e51b815260206004820181905260248201526000805160206139ba833981519152604482015290519081900360640190fd5b6001600160a01b038116611c975760405162461bcd60e51b81526004018080602001828103825260298152602001806139276029913960400191505060405180910390fd5b607b80546001600160a01b0319166001600160a01b0392909216919091179055565b6079546001600160a01b031681565b6078546040805163cad4135760e01b81526001600160a01b0384811660048301529151600093929092169163cad4135791602480820192602092909190829003018186803b15801561101f57600080fd5b611d216118b9565b611d60576040805162461bcd60e51b815260206004820181905260248201526000805160206139ba833981519152604482015290519081900360640190fd5b6078546040805163f2fde38b60e01b81526001600160a01b0384811660048301529151919092169163f2fde38b91602480830192600092919082900301818387803b158015611dae57600080fd5b505af1158015611dc2573d6000803e3d6000fd5b50505050806001600160a01b0316636fd689e86040518163ffffffff1660e01b8152600401600060405180830381600087803b158015611e0157600080fd5b505af1158015611e15573d6000803e3d6000fd5b5050505050565b6040805180820190915260735481526074546020820152600090610fc290839061304c565b600054610100900460ff1680611e5a5750611e5a612fb0565b80611e68575060005460ff16155b611ea35760405162461bcd60e51b815260040180806020018281038252602e815260200180613a3f602e913960400191505060405180910390fd5b600054610100900460ff16158015611ece576000805460ff1961ff0019909116610100171660011790555b611ed782612fb6565b8015611ee9576000805461ff00191690555b5050565b606d5481565b6078546040805162c985b760e11b81526001600160a01b0384811660048301529151600093849316916301930b6e916024808301926020929190829003018186803b158015611f4157600080fd5b505afa158015611f55573d6000803e3d6000fd5b505050506040513d6020811015611f6b57600080fd5b50519050611f7883611e1c565b8015610ace57501592915050565b6066546001600160a01b031681565b607a546001600160a01b03163314611fde5760405162461bcd60e51b81526004018080602001828103825260218152602001806139786021913960400191505060405180910390fd5b82611fe881611e1c565b6120235760405162461bcd60e51b8152600401808060200182810382526022815260200180613b136022913960400191505060405180910390fd5b60648211156120635760405162461bcd60e51b8152600401808060200182810382526021815260200180613af26021913960400191505060405180910390fd5b61206c84611ef3565b1561207a5761207a84613187565b6078546040805163cad4135760e01b81526001600160a01b0387811660048301529151600093929092169163cad4135791602480820192602092909190829003018186803b1580156120cb57600080fd5b505afa1580156120df573d6000803e3d6000fd5b505050506040513d60208110156120f557600080fd5b50519050600061211c8461211084606463ffffffff6132ef16565b9063ffffffff61333116565b9050600061213182600263ffffffff6132ef16565b90506000612145838363ffffffff61338a16565b9050811561240e576078546001600160a01b031663fbc402fc8961216f878763ffffffff61338a16565b6040518363ffffffff1660e01b815260040180836001600160a01b03166001600160a01b0316815260200182815260200192505050600060405180830381600087803b1580156121be57600080fd5b505af11580156121d2573d6000803e3d6000fd5b50506079546001600160a01b03161515915061222190505760405162461bcd60e51b8152600401808060200182810382526029815260200180613ac96029913960400191505060405180910390fd5b6077546079546040805163975057e760e01b815290516001600160a01b039384169363a9059cbb93169163975057e7916004808301926020929190829003018186803b15801561227057600080fd5b505afa158015612284573d6000803e3d6000fd5b505050506040513d602081101561229a57600080fd5b5051604080516001600160e01b031960e085901b1681526001600160a01b039092166004830152602482018590525160448083019260209291908290030181600087803b1580156122ea57600080fd5b505af11580156122fe573d6000803e3d6000fd5b505050506040513d602081101561231457600080fd5b50516123515760405162461bcd60e51b8152600401808060200182810382526028815260200180613b356028913960400191505060405180910390fd5b6077546040805163a9059cbb60e01b81526001600160a01b038a81166004830152602482018690529151919092169163a9059cbb9160448083019260209291908290030181600087803b1580156123a757600080fd5b505af11580156123bb573d6000803e3d6000fd5b505050506040513d60208110156123d157600080fd5b505161240e5760405162461bcd60e51b8152600401808060200182810382526028815260200180613b356028913960400191505060405180910390fd5b6078546040805163b68d931960e01b81526001600160a01b038b8116600483018190529251818c16949091169163b68d9319916024808301926020929190829003018186803b15801561246057600080fd5b505afa158015612474573d6000803e3d6000fd5b505050506040513d602081101561248a57600080fd5b5051604080518a815290516001600160a01b03909216917fb43e0cc88b4d6ae901c6c99d1b58769cb8c9ded8e6f20a0d3712d09bf9e1ea779181900360200190a45050505050505050565b606081806124e257506069545b610fbe84826000612b4a565b6124f66118b9565b612535576040805162461bcd60e51b815260206004820181905260248201526000805160206139ba833981519152604482015290519081900360640190fd5b61253d6118a9565b6001600160a01b0316816001600160a01b03161415801561256c57506066546001600160a01b03828116911614155b6125bd576040805162461bcd60e51b815260206004820152601c60248201527f436c61696d61626c653a20696e76616c6964206e6577206f776e657200000000604482015290519081900360640190fd5b606680546001600160a01b0319166001600160a01b0392909216919091179055565b6125e76118b9565b612626576040805162461bcd60e51b815260206004820181905260248201526000805160206139ba833981519152604482015290519081900360640190fd5b6001600160a01b03166000908152606760205260409020805460ff19166001179055565b80612654816110d7565b61268f5760405162461bcd60e51b815260040180806020018281038252603d815260200180613a02603d913960400191505060405180910390fd5b6078546040805163b68d931960e01b81526001600160a01b0385811660048301529151600093929092169163b68d931991602480820192602092909190829003018186803b1580156126e057600080fd5b505afa1580156126f4573d6000803e3d6000fd5b505050506040513d602081101561270a57600080fd5b50516078546040805163cad4135760e01b81526001600160a01b0387811660048301529151939450600093919092169163cad41357916024808301926020929190829003018186803b15801561275f57600080fd5b505afa158015612773573d6000803e3d6000fd5b505050506040513d602081101561278957600080fd5b5051607854604080516320da21c960e11b81526001600160a01b03888116600483015291519394509116916341b443929160248082019260009290919082900301818387803b1580156127db57600080fd5b505af11580156127ef573d6000803e3d6000fd5b50506077546040805163a9059cbb60e01b81526001600160a01b03878116600483015260248201879052915191909216935063a9059cbb925060448083019260209291908290030181600087803b15801561284957600080fd5b505af115801561285d573d6000803e3d6000fd5b505050506040513d602081101561287357600080fd5b50516128b05760405162461bcd60e51b81526004018080602001828103825260268152602001806138cb6026913960400191505060405180910390fd5b836001600160a01b0316826001600160a01b03167f3eeec3803912dfbf607c8488e8aee15f415e51c9936250a5142642c9e470c128836040518082815260200191505060405180910390a350505050565b6068805460408051602060026001851615610100026000190190941693909304601f810184900484028201840190925281815292918301828280156129875780601f1061295c57610100808354040283529160200191612987565b820191906000526020600020905b81548152906001019060200180831161296a57829003601f168201915b505050505081565b607854604080516338b5f19360e21b81526001600160a01b03848116600483015291516000938493169163e2d7c64c916024808301926020929190829003018186803b1580156129de57600080fd5b505afa1580156129f2573d6000803e3d6000fd5b505050506040513d6020811015612a0857600080fd5b50516078546040805162c985b760e11b81526001600160a01b038781166004830152915193945060009391909216916301930b6e916024808301926020929190829003018186803b158015612a5c57600080fd5b505afa158015612a70573d6000803e3d6000fd5b505050506040513d6020811015612a8657600080fd5b5051905081158015612a96575080155b949350505050565b604080516001600160a01b038416602482015260448082018490528251808303909101815260649091019091526020810180516001600160e01b031663a9059cbb60e01b1790526117509084906133cc565b600082820183811015610ace576040805162461bcd60e51b815260206004820152601b60248201527f536166654d6174683a206164646974696f6e206f766572666c6f770000000000604482015290519081900360640190fd5b60608280612b5757506069545b606081604051908082528060200260200182016040528015612b83578160200160208202803883390190505b5090506000866001600160a01b038116612c1457607860009054906101000a90046001600160a01b03166001600160a01b0316631bce6ff36040518163ffffffff1660e01b815260040160206040518083038186803b158015612be557600080fd5b505afa158015612bf9573d6000803e3d6000fd5b505050506040513d6020811015612c0f57600080fd5b505190505b83821015612d7f576001600160a01b038116612c2f57612d7f565b60008615612c4757612c4082611541565b9050612c53565b612c5082611e1c565b90505b80612cda57607854604080516355b9f18b60e11b81526001600160a01b0385811660048301529151919092169163ab73e316916024808301926020929190829003018186803b158015612ca557600080fd5b505afa158015612cb9573d6000803e3d6000fd5b505050506040513d6020811015612ccf57600080fd5b50519150612c149050565b81848481518110612ce757fe5b6001600160a01b03928316602091820292909201810191909152607854604080516355b9f18b60e11b815286851660048201529051919093169263ab73e316926024808301939192829003018186803b158015612d4357600080fd5b505afa158015612d57573d6000803e3d6000fd5b505050506040513d6020811015612d6d57600080fd5b5051600193909301929150612c149050565b50909695505050505050565b3390565b6001600160a01b038116612dd45760405162461bcd60e51b81526004018080602001828103825260268152602001806138476026913960400191505060405180910390fd5b6033546040516001600160a01b038084169216907f8be0079c531659141344cd1fd0a4f28419497f9722a3daafe3b4186f6b6457e090600090a3603380546001600160a01b0319166001600160a01b0392909216919091179055565b60785460408051631bce6ff360e01b815290516000928392839283928392839283926001600160a01b031691631bce6ff3916004808301926020929190829003018186803b158015612e8157600080fd5b505afa158015612e95573d6000803e3d6000fd5b505050506040513d6020811015612eab57600080fd5b505190505b6001600160a01b038116612ec357612fa3565b612ecc81611541565b15612ed8576001840193505b612ee181611e1c565b15612eed576001830192505b612ef681611e1c565b8015612f085750612f0681610f57565b155b80612f175750612f1781610a41565b15612f23576001820191505b607854604080516355b9f18b60e11b81526001600160a01b0384811660048301529151919092169163ab73e316916024808301926020929190829003018186803b158015612f7057600080fd5b505afa158015612f84573d6000803e3d6000fd5b505050506040513d6020811015612f9a57600080fd5b50519050612eb0565b5091945092509050909192565b303b1590565b600054610100900460ff1680612fcf5750612fcf612fb0565b80612fdd575060005460ff16155b6130185760405162461bcd60e51b815260040180806020018281038252602e815260200180613a3f602e913960400191505060405180910390fd5b600054610100900460ff16158015613043576000805460ff1961ff0019909116610100171660011790555b611ed78261358a565b607854604080516338b5f19360e21b81526001600160a01b03858116600483015291516000938493169163e2d7c64c916024808301926020929190829003018186803b15801561309b57600080fd5b505afa1580156130af573d6000803e3d6000fd5b505050506040513d60208110156130c557600080fd5b50516078546040805162c985b760e11b81526001600160a01b038881166004830152915193945060009391909216916301930b6e916024808301926020929190829003018186803b15801561311957600080fd5b505afa15801561312d573d6000803e3d6000fd5b505050506040513d602081101561314357600080fd5b505190506000821580159061315c575084602001518311155b905060008215806131705750856020015183115b905081801561317c5750805b979650505050505050565b6078546040805163b68d931960e01b81526001600160a01b0384811660048301529151600093929092169163b68d931991602480820192602092909190829003018186803b1580156131d857600080fd5b505afa1580156131ec573d6000803e3d6000fd5b505050506040513d602081101561320257600080fd5b5051607854606e546074549293506001600160a01b0390911691633ac39d4b9185916132339163ffffffff612af016565b6040518363ffffffff1660e01b815260040180836001600160a01b03166001600160a01b0316815260200182815260200192505050600060405180830381600087803b15801561328257600080fd5b505af1158015613296573d6000803e3d6000fd5b5050606a546132af92509050600163ffffffff61338a16565b606a556040516001600160a01b0380841691908316907ff73268ea792d9dbf3e21a95ec9711f0b535c5f6c99f6b4f54f6766838086b84290600090a35050565b6000610ace83836040518060400160405280601a81526020017f536166654d6174683a206469766973696f6e206279207a65726f00000000000081525061367b565b60008261334057506000610fc2565b8282028284828161334d57fe5b0414610ace5760405162461bcd60e51b81526004018080602001828103825260218152602001806139996021913960400191505060405180910390fd5b6000610ace83836040518060400160405280601e81526020017f536166654d6174683a207375627472616374696f6e206f766572666c6f77000081525061371d565b6133de826001600160a01b0316613777565b61342f576040805162461bcd60e51b815260206004820152601f60248201527f5361666545524332303a2063616c6c20746f206e6f6e2d636f6e747261637400604482015290519081900360640190fd5b60006060836001600160a01b0316836040518082805190602001908083835b6020831061346d5780518252601f19909201916020918201910161344e565b6001836020036101000a0380198251168184511680821785525050505050509050019150506000604051808303816000865af19150503d80600081146134cf576040519150601f19603f3d011682016040523d82523d6000602084013e6134d4565b606091505b50915091508161352b576040805162461bcd60e51b815260206004820181905260248201527f5361666545524332303a206c6f772d6c6576656c2063616c6c206661696c6564604482015290519081900360640190fd5b8051156135845780806020019051602081101561354757600080fd5b50516135845760405162461bcd60e51b815260040180806020018281038252602a815260200180613b5d602a913960400191505060405180910390fd5b50505050565b600054610100900460ff16806135a357506135a3612fb0565b806135b1575060005460ff16155b6135ec5760405162461bcd60e51b815260040180806020018281038252602e815260200180613a3f602e913960400191505060405180910390fd5b600054610100900460ff16158015613617576000805460ff1961ff0019909116610100171660011790555b603380546001600160a01b0319166001600160a01b0384811691909117918290556040519116906000907f8be0079c531659141344cd1fd0a4f28419497f9722a3daafe3b4186f6b6457e0908290a38015611ee9576000805461ff00191690555050565b600081836137075760405162461bcd60e51b81526004018080602001828103825283818151815260200191508051906020019080838360005b838110156136cc5781810151838201526020016136b4565b50505050905090810190601f1680156136f95780820380516001836020036101000a031916815260200191505b509250505060405180910390fd5b50600083858161371357fe5b0495945050505050565b6000818484111561376f5760405162461bcd60e51b81526020600482018181528351602484015283519092839260449091019190850190808383600083156136cc5781810151838201526020016136b4565b505050900390565b6000813f7fc5d2460186f7233c927e7db2dcc703c0e500b653ca82273b7bfad8045d85a4708115801590612a965750141592915050565b828054600181600116156101000203166002900490600052602060002090601f016020900481019282601f106137ef57805160ff191683800117855561381c565b8280016001018555821561381c579182015b8281111561381c578251825591602001919060010190613801565b5061382892915061382c565b5090565b6118b691905b80821115613828576000815560010161383256fe4f776e61626c653a206e6577206f776e657220697320746865207a65726f206164647265737343616e5265636c61696d546f6b656e733a20746f6b656e206973206e6f74207265636f76657261626c654461726b6e6f646552656769737472793a206e6f7420617574686f72697a656420746f2063616c6c2066697273742065706f63684461726b6e6f646552656769737472793a20626f6e64207472616e73666572206661696c65644461726b6e6f646552656769737472793a206d75737420626520726566756e646564206f72206e6576657220726567697374657265644461726b6e6f646552656769737472793a20696e76616c696420736c617368657220616464726573734461726b6e6f646552656769737472793a206d757374206265206465726567697374657261626c654461726b6e6f646552656769737472793a206d75737420626520736c6173686572536166654d6174683a206d756c7469706c69636174696f6e206f766572666c6f774f776e61626c653a2063616c6c6572206973206e6f7420746865206f776e65724461726b6e6f646552656769737472793a206d757374206265206461726b6e6f6465206f776e65724461726b6e6f646552656769737472793a206d7573742062652064657265676973746572656420666f72206174206c65617374206f6e652065706f6368436f6e747261637420696e7374616e63652068617320616c7265616479206265656e20696e697469616c697a65644461726b6e6f646552656769737472793a20696e76616c6964204461726b6e6f6465205061796d656e742061646472657373436c61696d61626c653a2063616c6c6572206973206e6f74207468652070656e64696e67206f776e65724461726b6e6f646552656769737472793a20696e76616c6964207061796d656e7420616464726573734461726b6e6f646552656769737472793a20696e76616c69642070657263656e744461726b6e6f646552656769737472793a20696e76616c6964206461726b6e6f64654461726b6e6f646552656769737472793a20726577617264207472616e73666572206661696c65645361666545524332303a204552433230206f7065726174696f6e20646964206e6f7420737563636565644461726b6e6f646552656769737472793a2065706f636820696e74657276616c20686173206e6f74207061737365644461726b6e6f646552656769737472793a206461726b6e6f646520616464726573732063616e6e6f74206265207a65726fa265627a7a72315820cbdabc4152ba7bccca1631a125b79da2d1673b793f383da473f45408d0c7454964736f6c63430005100032",
  "source": "pragma solidity 0.5.16;\n\nimport \"@openzeppelin/contracts-ethereum-package/contracts/math/SafeMath.sol\";\nimport \"@openzeppelin/upgrades/contracts/upgradeability/InitializableAdminUpgradeabilityProxy.sol\";\nimport \"@openzeppelin/upgrades/contracts/Initializable.sol\";\n\nimport \"../RenToken/RenToken.sol\";\nimport \"./DarknodeRegistryStore.sol\";\nimport \"../Governance/Claimable.sol\";\nimport \"../libraries/CanReclaimTokens.sol\";\n\ninterface IDarknodePaymentStore {}\n\ninterface IDarknodePayment {\n    function changeCycle() external returns (uint256);\n    function store() external view returns (IDarknodePaymentStore);\n}\n\ninterface IDarknodeSlasher {}\n\ncontract DarknodeRegistryStateV1 {\n    using SafeMath for uint256;\n\n    string public VERSION; // Passed in as a constructor parameter.\n\n    /// @notice Darknode pods are shuffled after a fixed number of blocks.\n    /// An Epoch stores an epoch hash used as an (insecure) RNG seed, and the\n    /// blocknumber which restricts when the next epoch can be called.\n    struct Epoch {\n        uint256 epochhash;\n        uint256 blocktime;\n    }\n\n    uint256 public numDarknodes;\n    uint256 public numDarknodesNextEpoch;\n    uint256 public numDarknodesPreviousEpoch;\n\n    /// Variables used to parameterize behavior.\n    uint256 public minimumBond;\n    uint256 public minimumPodSize;\n    uint256 public minimumEpochInterval;\n    uint256 public deregistrationInterval;\n\n    /// When one of the above variables is modified, it is only updated when the\n    /// next epoch is called. These variables store the values for the next\n    /// epoch.\n    uint256 public nextMinimumBond;\n    uint256 public nextMinimumPodSize;\n    uint256 public nextMinimumEpochInterval;\n\n    /// The current and previous epoch.\n    Epoch public currentEpoch;\n    Epoch public previousEpoch;\n\n    /// REN ERC20 contract used to transfer bonds.\n    RenToken public ren;\n\n    /// Darknode Registry Store is the storage contract for darknodes.\n    DarknodeRegistryStore public store;\n\n    /// The Darknode Payment contract for changing cycle.\n    IDarknodePayment public darknodePayment;\n\n    /// Darknode Slasher allows darknodes to vote on bond slashing.\n    IDarknodeSlasher public slasher;\n    IDarknodeSlasher public nextSlasher;\n}\n\n/// @notice DarknodeRegistry is responsible for the registration and\n/// deregistration of Darknodes.\ncontract DarknodeRegistryLogicV1 is\n    Claimable,\n    CanReclaimTokens,\n    DarknodeRegistryStateV1\n{\n    /// @notice Emitted when a darknode is registered.\n    /// @param _darknodeOperator The owner of the darknode.\n    /// @param _darknodeID The ID of the darknode that was registered.\n    /// @param _bond The amount of REN that was transferred as bond.\n    event LogDarknodeRegistered(\n        address indexed _darknodeOperator,\n        address indexed _darknodeID,\n        uint256 _bond\n    );\n\n    /// @notice Emitted when a darknode is deregistered.\n    /// @param _darknodeOperator The owner of the darknode.\n    /// @param _darknodeID The ID of the darknode that was deregistered.\n    event LogDarknodeDeregistered(\n        address indexed _darknodeOperator,\n        address indexed _darknodeID\n    );\n\n    /// @notice Emitted when a refund has been made.\n    /// @param _darknodeOperator The owner of the darknode.\n    /// @param _amount The amount of REN that was refunded.\n    event LogDarknodeRefunded(\n        address indexed _darknodeOperator,\n        address indexed _darknodeID,\n        uint256 _amount\n    );\n\n    /// @notice Emitted when a darknode's bond is slashed.\n    /// @param _darknodeOperator The owner of the darknode.\n    /// @param _darknodeID The ID of the darknode that was slashed.\n    /// @param _challenger The address of the account that submitted the challenge.\n    /// @param _percentage The total percentage  of bond slashed.\n    event LogDarknodeSlashed(\n        address indexed _darknodeOperator,\n        address indexed _darknodeID,\n        address indexed _challenger,\n        uint256 _percentage\n    );\n\n    /// @notice Emitted when a new epoch has begun.\n    event LogNewEpoch(uint256 indexed epochhash);\n\n    /// @notice Emitted when a constructor parameter has been updated.\n    event LogMinimumBondUpdated(\n        uint256 _previousMinimumBond,\n        uint256 _nextMinimumBond\n    );\n    event LogMinimumPodSizeUpdated(\n        uint256 _previousMinimumPodSize,\n        uint256 _nextMinimumPodSize\n    );\n    event LogMinimumEpochIntervalUpdated(\n        uint256 _previousMinimumEpochInterval,\n        uint256 _nextMinimumEpochInterval\n    );\n    event LogSlasherUpdated(\n        address indexed _previousSlasher,\n        address indexed _nextSlasher\n    );\n    event LogDarknodePaymentUpdated(\n        IDarknodePayment indexed _previousDarknodePayment,\n        IDarknodePayment indexed _nextDarknodePayment\n    );\n\n    /// @notice Restrict a function to the owner that registered the darknode.\n    modifier onlyDarknodeOperator(address _darknodeID) {\n        require(\n            store.darknodeOperator(_darknodeID) == msg.sender,\n            \"DarknodeRegistry: must be darknode owner\"\n        );\n        _;\n    }\n\n    /// @notice Restrict a function to unregistered darknodes.\n    modifier onlyRefunded(address _darknodeID) {\n        require(\n            isRefunded(_darknodeID),\n            \"DarknodeRegistry: must be refunded or never registered\"\n        );\n        _;\n    }\n\n    /// @notice Restrict a function to refundable darknodes.\n    modifier onlyRefundable(address _darknodeID) {\n        require(\n            isRefundable(_darknodeID),\n            \"DarknodeRegistry: must be deregistered for at least one epoch\"\n        );\n        _;\n    }\n\n    /// @notice Restrict a function to registered nodes without a pending\n    /// deregistration.\n    modifier onlyDeregisterable(address _darknodeID) {\n        require(\n            isDeregisterable(_darknodeID),\n            \"DarknodeRegistry: must be deregisterable\"\n        );\n        _;\n    }\n\n    /// @notice Restrict a function to the Slasher contract.\n    modifier onlySlasher() {\n        require(\n            address(slasher) == msg.sender,\n            \"DarknodeRegistry: must be slasher\"\n        );\n        _;\n    }\n\n    /// @notice Restrict a function to registered nodes without a pending\n    /// deregistration.\n    modifier onlyDarknode(address _darknodeID) {\n        require(\n            isRegistered(_darknodeID),\n            \"DarknodeRegistry: invalid darknode\"\n        );\n        _;\n    }\n\n    /// @notice The contract constructor.\n    ///\n    /// @param _VERSION A string defining the contract version.\n    /// @param _renAddress The address of the RenToken contract.\n    /// @param _storeAddress The address of the DarknodeRegistryStore contract.\n    /// @param _minimumBond The minimum bond amount that can be submitted by a\n    ///        Darknode.\n    /// @param _minimumPodSize The minimum size of a Darknode pod.\n    /// @param _minimumEpochIntervalSeconds The minimum number of seconds between epochs.\n    function initialize(\n        string memory _VERSION,\n        RenToken _renAddress,\n        DarknodeRegistryStore _storeAddress,\n        uint256 _minimumBond,\n        uint256 _minimumPodSize,\n        uint256 _minimumEpochIntervalSeconds,\n        uint256 _deregistrationIntervalSeconds\n    ) public initializer {\n        Claimable.initialize(msg.sender);\n        CanReclaimTokens.initialize(msg.sender);\n        VERSION = _VERSION;\n\n        store = _storeAddress;\n        ren = _renAddress;\n\n        minimumBond = _minimumBond;\n        nextMinimumBond = minimumBond;\n\n        minimumPodSize = _minimumPodSize;\n        nextMinimumPodSize = minimumPodSize;\n\n        minimumEpochInterval = _minimumEpochIntervalSeconds;\n        nextMinimumEpochInterval = minimumEpochInterval;\n        deregistrationInterval = _deregistrationIntervalSeconds;\n\n        uint256 epochhash = uint256(blockhash(block.number - 1));\n        currentEpoch = Epoch({\n            epochhash: epochhash,\n            blocktime: block.timestamp\n        });\n        emit LogNewEpoch(epochhash);\n    }\n\n    /// @notice Register a darknode and transfer the bond to this contract.\n    /// Before registering, the bond transfer must be approved in the REN\n    /// contract. The caller must provide a public encryption key for the\n    /// darknode. The darknode will remain pending registration until the next\n    /// epoch. Only after this period can the darknode be deregistered. The\n    /// caller of this method will be stored as the owner of the darknode.\n    ///\n    /// @param _darknodeID The darknode ID that will be registered.\n    /// @param _publicKey The public key of the darknode. It is stored to allow\n    ///        other darknodes and traders to encrypt messages to the trader.\n    function register(address _darknodeID, bytes calldata _publicKey)\n        external\n        onlyRefunded(_darknodeID)\n    {\n        require(\n            _darknodeID != address(0),\n            \"DarknodeRegistry: darknode address cannot be zero\"\n        );\n\n        // Use the current minimum bond as the darknode's bond and transfer bond to store\n        require(\n            ren.transferFrom(msg.sender, address(store), minimumBond),\n            \"DarknodeRegistry: bond transfer failed\"\n        );\n\n        // Flag this darknode for registration\n        store.appendDarknode(\n            _darknodeID,\n            msg.sender,\n            minimumBond,\n            _publicKey,\n            currentEpoch.blocktime.add(minimumEpochInterval),\n            0\n        );\n\n        numDarknodesNextEpoch = numDarknodesNextEpoch.add(1);\n\n        // Emit an event.\n        emit LogDarknodeRegistered(msg.sender, _darknodeID, minimumBond);\n    }\n\n    /// @notice Deregister a darknode. The darknode will not be deregistered\n    /// until the end of the epoch. After another epoch, the bond can be\n    /// refunded by calling the refund method.\n    /// @param _darknodeID The darknode ID that will be deregistered. The caller\n    ///        of this method store.darknodeRegisteredAt(_darknodeID) must be\n    //         the owner of this darknode.\n    function deregister(address _darknodeID)\n        external\n        onlyDeregisterable(_darknodeID)\n        onlyDarknodeOperator(_darknodeID)\n    {\n        deregisterDarknode(_darknodeID);\n    }\n\n    /// @notice Progress the epoch if it is possible to do so. This captures\n    /// the current timestamp and current blockhash and overrides the current\n    /// epoch.\n    function epoch() external {\n        if (previousEpoch.blocktime == 0) {\n            // The first epoch must be called by the owner of the contract\n            require(\n                msg.sender == owner(),\n                \"DarknodeRegistry: not authorized to call first epoch\"\n            );\n        }\n\n        // Require that the epoch interval has passed\n        require(\n            block.timestamp >= currentEpoch.blocktime.add(minimumEpochInterval),\n            \"DarknodeRegistry: epoch interval has not passed\"\n        );\n        uint256 epochhash = uint256(blockhash(block.number - 1));\n\n        // Update the epoch hash and timestamp\n        previousEpoch = currentEpoch;\n        currentEpoch = Epoch({\n            epochhash: epochhash,\n            blocktime: block.timestamp\n        });\n\n        // Update the registry information\n        numDarknodesPreviousEpoch = numDarknodes;\n        numDarknodes = numDarknodesNextEpoch;\n\n        // If any update functions have been called, update the values now\n        if (nextMinimumBond != minimumBond) {\n            minimumBond = nextMinimumBond;\n            emit LogMinimumBondUpdated(minimumBond, nextMinimumBond);\n        }\n        if (nextMinimumPodSize != minimumPodSize) {\n            minimumPodSize = nextMinimumPodSize;\n            emit LogMinimumPodSizeUpdated(minimumPodSize, nextMinimumPodSize);\n        }\n        if (nextMinimumEpochInterval != minimumEpochInterval) {\n            minimumEpochInterval = nextMinimumEpochInterval;\n            emit LogMinimumEpochIntervalUpdated(\n                minimumEpochInterval,\n                nextMinimumEpochInterval\n            );\n        }\n        if (nextSlasher != slasher) {\n            slasher = nextSlasher;\n            emit LogSlasherUpdated(address(slasher), address(nextSlasher));\n        }\n        if (address(darknodePayment) != address(0x0)) {\n            darknodePayment.changeCycle();\n        }\n\n        // Emit an event\n        emit LogNewEpoch(epochhash);\n    }\n\n    /// @notice Allows the contract owner to initiate an ownership transfer of\n    /// the DarknodeRegistryStore.\n    /// @param _newOwner The address to transfer the ownership to.\n    function transferStoreOwnership(DarknodeRegistryLogicV1 _newOwner)\n        external\n        onlyOwner\n    {\n        store.transferOwnership(address(_newOwner));\n        _newOwner.claimStoreOwnership();\n    }\n\n    /// @notice Claims ownership of the store passed in to the constructor.\n    /// `transferStoreOwnership` must have previously been called when\n    /// transferring from another Darknode Registry.\n    function claimStoreOwnership() external {\n        store.claimOwnership();\n\n        // Sync state with new store.\n        // Note: numDarknodesPreviousEpoch is set to 0 for a newly deployed DNR.\n        (\n            numDarknodesPreviousEpoch,\n            numDarknodes,\n            numDarknodesNextEpoch\n        ) = getDarknodeCountFromEpochs();\n    }\n\n    /// @notice Allows the contract owner to update the address of the\n    /// darknode payment contract.\n    /// @param _darknodePayment The address of the Darknode Payment\n    /// contract.\n    function updateDarknodePayment(IDarknodePayment _darknodePayment)\n        external\n        onlyOwner\n    {\n        require(\n            address(_darknodePayment) != address(0x0),\n            \"DarknodeRegistry: invalid Darknode Payment address\"\n        );\n        IDarknodePayment previousDarknodePayment = darknodePayment;\n        darknodePayment = _darknodePayment;\n        emit LogDarknodePaymentUpdated(\n            previousDarknodePayment,\n            darknodePayment\n        );\n    }\n\n    /// @notice Allows the contract owner to update the minimum bond.\n    /// @param _nextMinimumBond The minimum bond amount that can be submitted by\n    ///        a darknode.\n    function updateMinimumBond(uint256 _nextMinimumBond) external onlyOwner {\n        // Will be updated next epoch\n        nextMinimumBond = _nextMinimumBond;\n    }\n\n    /// @notice Allows the contract owner to update the minimum pod size.\n    /// @param _nextMinimumPodSize The minimum size of a pod.\n    function updateMinimumPodSize(uint256 _nextMinimumPodSize)\n        external\n        onlyOwner\n    {\n        // Will be updated next epoch\n        nextMinimumPodSize = _nextMinimumPodSize;\n    }\n\n    /// @notice Allows the contract owner to update the minimum epoch interval.\n    /// @param _nextMinimumEpochInterval The minimum number of blocks between epochs.\n    function updateMinimumEpochInterval(uint256 _nextMinimumEpochInterval)\n        external\n        onlyOwner\n    {\n        // Will be updated next epoch\n        nextMinimumEpochInterval = _nextMinimumEpochInterval;\n    }\n\n    /// @notice Allow the contract owner to update the DarknodeSlasher contract\n    /// address.\n    /// @param _slasher The new slasher address.\n    function updateSlasher(IDarknodeSlasher _slasher) external onlyOwner {\n        require(\n            address(_slasher) != address(0),\n            \"DarknodeRegistry: invalid slasher address\"\n        );\n        nextSlasher = _slasher;\n    }\n\n    /// @notice Allow the DarknodeSlasher contract to slash a portion of darknode's\n    ///         bond and deregister it.\n    /// @param _guilty The guilty prover whose bond is being slashed.\n    /// @param _challenger The challenger who should receive a portion of the bond as reward.\n    /// @param _percentage The total percentage  of bond to be slashed.\n    function slash(address _guilty, address _challenger, uint256 _percentage)\n        external\n        onlySlasher\n        onlyDarknode(_guilty)\n    {\n        require(_percentage <= 100, \"DarknodeRegistry: invalid percent\");\n\n        // If the darknode has not been deregistered then deregister it\n        if (isDeregisterable(_guilty)) {\n            deregisterDarknode(_guilty);\n        }\n\n        uint256 totalBond = store.darknodeBond(_guilty);\n        uint256 penalty = totalBond.div(100).mul(_percentage);\n        uint256 challengerReward = penalty.div(2);\n        uint256 darknodePaymentReward = penalty.sub(challengerReward);\n        if (challengerReward > 0) {\n            // Slash the bond of the failed prover\n            store.updateDarknodeBond(_guilty, totalBond.sub(penalty));\n\n            // Distribute the remaining bond into the darknode payment reward pool\n            require(\n                address(darknodePayment) != address(0x0),\n                \"DarknodeRegistry: invalid payment address\"\n            );\n            require(\n                ren.transfer(\n                    address(darknodePayment.store()),\n                    darknodePaymentReward\n                ),\n                \"DarknodeRegistry: reward transfer failed\"\n            );\n            require(\n                ren.transfer(_challenger, challengerReward),\n                \"DarknodeRegistry: reward transfer failed\"\n            );\n        }\n\n        emit LogDarknodeSlashed(\n            store.darknodeOperator(_guilty),\n            _guilty,\n            _challenger,\n            _percentage\n        );\n    }\n\n    /// @notice Refund the bond of a deregistered darknode. This will make the\n    /// darknode available for registration again. Anyone can call this function\n    /// but the bond will always be refunded to the darknode operator.\n    ///\n    /// @param _darknodeID The darknode ID that will be refunded.\n    function refund(address _darknodeID) external onlyRefundable(_darknodeID) {\n        address darknodeOperator = store.darknodeOperator(_darknodeID);\n\n        // Remember the bond amount\n        uint256 amount = store.darknodeBond(_darknodeID);\n\n        // Erase the darknode from the registry\n        store.removeDarknode(_darknodeID);\n\n        // Refund the operator by transferring REN\n        require(\n            ren.transfer(darknodeOperator, amount),\n            \"DarknodeRegistry: bond transfer failed\"\n        );\n\n        // Emit an event.\n        emit LogDarknodeRefunded(darknodeOperator, _darknodeID, amount);\n    }\n\n    /// @notice Retrieves the address of the account that registered a darknode.\n    /// @param _darknodeID The ID of the darknode to retrieve the owner for.\n    function getDarknodeOperator(address _darknodeID)\n        external\n        view\n        returns (address payable)\n    {\n        return store.darknodeOperator(_darknodeID);\n    }\n\n    /// @notice Retrieves the bond amount of a darknode in 10^-18 REN.\n    /// @param _darknodeID The ID of the darknode to retrieve the bond for.\n    function getDarknodeBond(address _darknodeID)\n        external\n        view\n        returns (uint256)\n    {\n        return store.darknodeBond(_darknodeID);\n    }\n\n    /// @notice Retrieves the encryption public key of the darknode.\n    /// @param _darknodeID The ID of the darknode to retrieve the public key for.\n    function getDarknodePublicKey(address _darknodeID)\n        external\n        view\n        returns (bytes memory)\n    {\n        return store.darknodePublicKey(_darknodeID);\n    }\n\n    /// @notice Retrieves a list of darknodes which are registered for the\n    /// current epoch.\n    /// @param _start A darknode ID used as an offset for the list. If _start is\n    ///        0x0, the first dark node will be used. _start won't be\n    ///        included it is not registered for the epoch.\n    /// @param _count The number of darknodes to retrieve starting from _start.\n    ///        If _count is 0, all of the darknodes from _start are\n    ///        retrieved. If _count is more than the remaining number of\n    ///        registered darknodes, the rest of the list will contain\n    ///        0x0s.\n    function getDarknodes(address _start, uint256 _count)\n        external\n        view\n        returns (address[] memory)\n    {\n        uint256 count = _count;\n        if (count == 0) {\n            count = numDarknodes;\n        }\n        return getDarknodesFromEpochs(_start, count, false);\n    }\n\n    /// @notice Retrieves a list of darknodes which were registered for the\n    /// previous epoch. See `getDarknodes` for the parameter documentation.\n    function getPreviousDarknodes(address _start, uint256 _count)\n        external\n        view\n        returns (address[] memory)\n    {\n        uint256 count = _count;\n        if (count == 0) {\n            count = numDarknodesPreviousEpoch;\n        }\n        return getDarknodesFromEpochs(_start, count, true);\n    }\n\n    /// @notice Returns whether a darknode is scheduled to become registered\n    /// at next epoch.\n    /// @param _darknodeID The ID of the darknode to return.\n    function isPendingRegistration(address _darknodeID)\n        public\n        view\n        returns (bool)\n    {\n        uint256 registeredAt = store.darknodeRegisteredAt(_darknodeID);\n        return registeredAt != 0 && registeredAt > currentEpoch.blocktime;\n    }\n\n    /// @notice Returns if a darknode is in the pending deregistered state. In\n    /// this state a darknode is still considered registered.\n    function isPendingDeregistration(address _darknodeID)\n        public\n        view\n        returns (bool)\n    {\n        uint256 deregisteredAt = store.darknodeDeregisteredAt(_darknodeID);\n        return deregisteredAt != 0 && deregisteredAt > currentEpoch.blocktime;\n    }\n\n    /// @notice Returns if a darknode is in the deregistered state.\n    function isDeregistered(address _darknodeID) public view returns (bool) {\n        uint256 deregisteredAt = store.darknodeDeregisteredAt(_darknodeID);\n        return deregisteredAt != 0 && deregisteredAt <= currentEpoch.blocktime;\n    }\n\n    /// @notice Returns if a darknode can be deregistered. This is true if the\n    /// darknodes is in the registered state and has not attempted to\n    /// deregister yet.\n    function isDeregisterable(address _darknodeID) public view returns (bool) {\n        uint256 deregisteredAt = store.darknodeDeregisteredAt(_darknodeID);\n        // The Darknode is currently in the registered state and has not been\n        // transitioned to the pending deregistration, or deregistered, state\n        return isRegistered(_darknodeID) && deregisteredAt == 0;\n    }\n\n    /// @notice Returns if a darknode is in the refunded state. This is true\n    /// for darknodes that have never been registered, or darknodes that have\n    /// been deregistered and refunded.\n    function isRefunded(address _darknodeID) public view returns (bool) {\n        uint256 registeredAt = store.darknodeRegisteredAt(_darknodeID);\n        uint256 deregisteredAt = store.darknodeDeregisteredAt(_darknodeID);\n        return registeredAt == 0 && deregisteredAt == 0;\n    }\n\n    /// @notice Returns if a darknode is refundable. This is true for darknodes\n    /// that have been in the deregistered state for one full epoch.\n    function isRefundable(address _darknodeID) public view returns (bool) {\n        return\n            isDeregistered(_darknodeID) &&\n            store.darknodeDeregisteredAt(_darknodeID) <=\n            (previousEpoch.blocktime - deregistrationInterval);\n    }\n\n    /// @notice Returns if a darknode is in the registered state.\n    function isRegistered(address _darknodeID) public view returns (bool) {\n        return isRegisteredInEpoch(_darknodeID, currentEpoch);\n    }\n\n    /// @notice Returns if a darknode was in the registered state last epoch.\n    function isRegisteredInPreviousEpoch(address _darknodeID)\n        public\n        view\n        returns (bool)\n    {\n        return isRegisteredInEpoch(_darknodeID, previousEpoch);\n    }\n\n    /// @notice Returns if a darknode was in the registered state for a given\n    /// epoch.\n    /// @param _darknodeID The ID of the darknode.\n    /// @param _epoch One of currentEpoch, previousEpoch.\n    function isRegisteredInEpoch(address _darknodeID, Epoch memory _epoch)\n        private\n        view\n        returns (bool)\n    {\n        uint256 registeredAt = store.darknodeRegisteredAt(_darknodeID);\n        uint256 deregisteredAt = store.darknodeDeregisteredAt(_darknodeID);\n        bool registered = registeredAt != 0 && registeredAt <= _epoch.blocktime;\n        bool notDeregistered = deregisteredAt == 0 ||\n            deregisteredAt > _epoch.blocktime;\n        // The Darknode has been registered and has not yet been deregistered,\n        // although it might be pending deregistration\n        return registered && notDeregistered;\n    }\n\n    /// @notice Returns a list of darknodes registered for either the current\n    /// or the previous epoch. See `getDarknodes` for documentation on the\n    /// parameters `_start` and `_count`.\n    /// @param _usePreviousEpoch If true, use the previous epoch, otherwise use\n    ///        the current epoch.\n    function getDarknodesFromEpochs(\n        address _start,\n        uint256 _count,\n        bool _usePreviousEpoch\n    ) private view returns (address[] memory) {\n        uint256 count = _count;\n        if (count == 0) {\n            count = numDarknodes;\n        }\n\n        address[] memory nodes = new address[](count);\n\n        // Begin with the first node in the list\n        uint256 n = 0;\n        address next = _start;\n        if (next == address(0)) {\n            next = store.begin();\n        }\n\n        // Iterate until all registered Darknodes have been collected\n        while (n < count) {\n            if (next == address(0)) {\n                break;\n            }\n            // Only include Darknodes that are currently registered\n            bool includeNext;\n            if (_usePreviousEpoch) {\n                includeNext = isRegisteredInPreviousEpoch(next);\n            } else {\n                includeNext = isRegistered(next);\n            }\n            if (!includeNext) {\n                next = store.next(next);\n                continue;\n            }\n            nodes[n] = next;\n            next = store.next(next);\n            n += 1;\n        }\n        return nodes;\n    }\n\n    /// Private function called by `deregister` and `slash`\n    function deregisterDarknode(address _darknodeID) private {\n        address darknodeOperator = store.darknodeOperator(_darknodeID);\n\n        // Flag the darknode for deregistration\n        store.updateDarknodeDeregisteredAt(\n            _darknodeID,\n            currentEpoch.blocktime.add(minimumEpochInterval)\n        );\n        numDarknodesNextEpoch = numDarknodesNextEpoch.sub(1);\n\n        // Emit an event\n        emit LogDarknodeDeregistered(darknodeOperator, _darknodeID);\n    }\n\n    function getDarknodeCountFromEpochs()\n        private\n        view\n        returns (uint256, uint256, uint256)\n    {\n        // Begin with the first node in the list\n        uint256 nPreviousEpoch = 0;\n        uint256 nCurrentEpoch = 0;\n        uint256 nNextEpoch = 0;\n        address next = store.begin();\n\n        // Iterate until all registered Darknodes have been collected\n        while (true) {\n            // End of darknode list.\n            if (next == address(0)) {\n                break;\n            }\n\n            if (isRegisteredInPreviousEpoch(next)) {\n                nPreviousEpoch += 1;\n            }\n\n            if (isRegistered(next)) {\n                nCurrentEpoch += 1;\n            }\n\n            // Darknode is registered and has not deregistered, or is pending\n            // becoming registered.\n            if (\n                ((isRegistered(next) && !isPendingDeregistration(next)) ||\n                    isPendingRegistration(next))\n            ) {\n                nNextEpoch += 1;\n            }\n            next = store.next(next);\n        }\n        return (nPreviousEpoch, nCurrentEpoch, nNextEpoch);\n    }\n}\n\n/* solium-disable-next-line no-empty-blocks */\ncontract DarknodeRegistryProxy is InitializableAdminUpgradeabilityProxy {}\n",
  "sourcePath": "/home/noah/github/renproject/ren-sol/contracts/DarknodeRegistry/DarknodeRegistry.sol",
  "compiler": {
    "name": "solc",
    "version": "0.5.16+commit.9c3226ce.Emscripten.clang"
  },
  "schemaVersion": "3.0.23",
  "updatedAt": "2020-03-30T04:16:04.838Z",
  "networkType": "ethereum",
  "devdoc": {
    "methods": {
      "deregister(address)": {
        "params": {
          "_darknodeID": "The darknode ID that will be deregistered. The caller        of this method store.darknodeRegisteredAt(_darknodeID) must be"
        }
      },
      "getDarknodeBond(address)": {
        "params": {
          "_darknodeID": "The ID of the darknode to retrieve the bond for."
        }
      },
      "getDarknodeOperator(address)": {
        "params": {
          "_darknodeID": "The ID of the darknode to retrieve the owner for."
        }
      },
      "getDarknodePublicKey(address)": {
        "params": {
          "_darknodeID": "The ID of the darknode to retrieve the public key for."
        }
      },
      "getDarknodes(address,uint256)": {
        "params": {
          "_count": "The number of darknodes to retrieve starting from _start.        If _count is 0, all of the darknodes from _start are        retrieved. If _count is more than the remaining number of        registered darknodes, the rest of the list will contain        0x0s.",
          "_start": "A darknode ID used as an offset for the list. If _start is        0x0, the first dark node will be used. _start won't be        included it is not registered for the epoch."
        }
      },
      "initialize(string,address,address,uint256,uint256,uint256,uint256)": {
        "params": {
          "_VERSION": "A string defining the contract version.",
          "_minimumBond": "The minimum bond amount that can be submitted by a        Darknode.",
          "_minimumEpochIntervalSeconds": "The minimum number of seconds between epochs.",
          "_minimumPodSize": "The minimum size of a Darknode pod.",
          "_renAddress": "The address of the RenToken contract.",
          "_storeAddress": "The address of the DarknodeRegistryStore contract."
        }
      },
      "isOwner()": {
        "details": "Returns true if the caller is the current owner."
      },
      "isPendingRegistration(address)": {
        "params": {
          "_darknodeID": "The ID of the darknode to return."
        }
      },
      "owner()": {
        "details": "Returns the address of the current owner."
      },
      "refund(address)": {
        "params": {
          "_darknodeID": "The darknode ID that will be refunded."
        }
      },
      "register(address,bytes)": {
        "params": {
          "_darknodeID": "The darknode ID that will be registered.",
          "_publicKey": "The public key of the darknode. It is stored to allow        other darknodes and traders to encrypt messages to the trader."
        }
      },
      "renounceOwnership()": {
        "details": "Leaves the contract without owner. It will not be possible to call `onlyOwner` functions anymore. Can only be called by the current owner.     * > Note: Renouncing ownership will leave the contract without an owner, thereby removing any functionality that is only available to the owner."
      },
      "slash(address,address,uint256)": {
        "params": {
          "_challenger": "The challenger who should receive a portion of the bond as reward.",
          "_guilty": "The guilty prover whose bond is being slashed.",
          "_percentage": "The total percentage  of bond to be slashed."
        }
      },
      "transferStoreOwnership(address)": {
        "params": {
          "_newOwner": "The address to transfer the ownership to."
        }
      },
      "updateDarknodePayment(address)": {
        "params": {
          "_darknodePayment": "The address of the Darknode Payment contract."
        }
      },
      "updateMinimumBond(uint256)": {
        "params": {
          "_nextMinimumBond": "The minimum bond amount that can be submitted by        a darknode."
        }
      },
      "updateMinimumEpochInterval(uint256)": {
        "params": {
          "_nextMinimumEpochInterval": "The minimum number of blocks between epochs."
        }
      },
      "updateMinimumPodSize(uint256)": {
        "params": {
          "_nextMinimumPodSize": "The minimum size of a pod."
        }
      },
      "updateSlasher(address)": {
        "params": {
          "_slasher": "The new slasher address."
        }
      }
    }
  },
  "userdoc": {
    "methods": {
      "claimStoreOwnership()": {
        "notice": "Claims ownership of the store passed in to the constructor. `transferStoreOwnership` must have previously been called when transferring from another Darknode Registry."
      },
      "deregister(address)": {
        "notice": "Deregister a darknode. The darknode will not be deregistered until the end of the epoch. After another epoch, the bond can be refunded by calling the refund method."
      },
      "epoch()": {
        "notice": "Progress the epoch if it is possible to do so. This captures the current timestamp and current blockhash and overrides the current epoch."
      },
      "getDarknodeBond(address)": {
        "notice": "Retrieves the bond amount of a darknode in 10^-18 REN."
      },
      "getDarknodeOperator(address)": {
        "notice": "Retrieves the address of the account that registered a darknode."
      },
      "getDarknodePublicKey(address)": {
        "notice": "Retrieves the encryption public key of the darknode."
      },
      "getDarknodes(address,uint256)": {
        "notice": "Retrieves a list of darknodes which are registered for the current epoch."
      },
      "getPreviousDarknodes(address,uint256)": {
        "notice": "Retrieves a list of darknodes which were registered for the previous epoch. See `getDarknodes` for the parameter documentation."
      },
      "initialize(string,address,address,uint256,uint256,uint256,uint256)": {
        "notice": "The contract constructor. "
      },
      "isDeregisterable(address)": {
        "notice": "Returns if a darknode can be deregistered. This is true if the darknodes is in the registered state and has not attempted to deregister yet."
      },
      "isDeregistered(address)": {
        "notice": "Returns if a darknode is in the deregistered state."
      },
      "isPendingDeregistration(address)": {
        "notice": "Returns if a darknode is in the pending deregistered state. In this state a darknode is still considered registered."
      },
      "isPendingRegistration(address)": {
        "notice": "Returns whether a darknode is scheduled to become registered at next epoch."
      },
      "isRefundable(address)": {
        "notice": "Returns if a darknode is refundable. This is true for darknodes that have been in the deregistered state for one full epoch."
      },
      "isRefunded(address)": {
        "notice": "Returns if a darknode is in the refunded state. This is true for darknodes that have never been registered, or darknodes that have been deregistered and refunded."
      },
      "isRegistered(address)": {
        "notice": "Returns if a darknode is in the registered state."
      },
      "isRegisteredInPreviousEpoch(address)": {
        "notice": "Returns if a darknode was in the registered state last epoch."
      },
      "recoverTokens(address)": {
        "notice": "Allow the owner of the contract to recover funds accidentally sent to the contract. To withdraw ETH, the token should be set to `0x0`."
      },
      "refund(address)": {
        "notice": "Refund the bond of a deregistered darknode. This will make the darknode available for registration again. Anyone can call this function but the bond will always be refunded to the darknode operator. "
      },
      "register(address,bytes)": {
        "notice": "Register a darknode and transfer the bond to this contract. Before registering, the bond transfer must be approved in the REN contract. The caller must provide a public encryption key for the darknode. The darknode will remain pending registration until the next epoch. Only after this period can the darknode be deregistered. The caller of this method will be stored as the owner of the darknode. "
      },
      "slash(address,address,uint256)": {
        "notice": "Allow the DarknodeSlasher contract to slash a portion of darknode's         bond and deregister it."
      },
      "transferStoreOwnership(address)": {
        "notice": "Allows the contract owner to initiate an ownership transfer of the DarknodeRegistryStore."
      },
      "updateDarknodePayment(address)": {
        "notice": "Allows the contract owner to update the address of the darknode payment contract."
      },
      "updateMinimumBond(uint256)": {
        "notice": "Allows the contract owner to update the minimum bond."
      },
      "updateMinimumEpochInterval(uint256)": {
        "notice": "Allows the contract owner to update the minimum epoch interval."
      },
      "updateMinimumPodSize(uint256)": {
        "notice": "Allows the contract owner to update the minimum pod size."
      },
      "updateSlasher(address)": {
        "notice": "Allow the contract owner to update the DarknodeSlasher contract address."
      }
    },
    "notice": "DarknodeRegistry is responsible for the registration and deregistration of Darknodes."
  }
}