{
  "contractName": "GatewayRegistry",
  "abi": [
    {
      "inputs": [],
      "payable": false,
      "stateMutability": "nonpayable",
      "type": "constructor"
    },
    {
      "anonymous": false,
      "inputs": [
        {
          "indexed": false,
          "internalType": "string",
          "name": "_symbol",
          "type": "string"
        },
        {
          "indexed": true,
          "internalType": "string",
          "name": "_indexedSymbol",
          "type": "string"
        },
        {
          "indexed": true,
          "internalType": "address",
          "name": "_token",
          "type": "address"
        },
        {
          "indexed": true,
          "internalType": "address",
          "name": "_gatewayContract",
          "type": "address"
        }
      ],
      "name": "LogGatewayDeregistered",
      "type": "event"
    },
    {
      "anonymous": false,
      "inputs": [
        {
          "indexed": false,
          "internalType": "string",
          "name": "_symbol",
          "type": "string"
        },
        {
          "indexed": true,
          "internalType": "string",
          "name": "_indexedSymbol",
          "type": "string"
        },
        {
          "indexed": true,
          "internalType": "address",
          "name": "_token",
          "type": "address"
        },
        {
          "indexed": true,
          "internalType": "address",
          "name": "_gatewayContract",
          "type": "address"
        }
      ],
      "name": "LogGatewayRegistered",
      "type": "event"
    },
    {
      "anonymous": false,
      "inputs": [
        {
          "indexed": true,
          "internalType": "address",
          "name": "_token",
          "type": "address"
        },
        {
          "indexed": true,
          "internalType": "address",
          "name": "_currentGatewayContract",
          "type": "address"
        },
        {
          "indexed": true,
          "internalType": "address",
          "name": "_newGatewayContract",
          "type": "address"
        }
      ],
      "name": "LogGatewayUpdated",
      "type": "event"
    },
    {
      "anonymous": false,
      "inputs": [
        {
          "indexed": true,
          "internalType": "address",
          "name": "previousOwner",
          "type": "address"
        },
        {
          "indexed": true,
          "internalType": "address",
          "name": "newOwner",
          "type": "address"
        }
      ],
      "name": "OwnershipTransferred",
      "type": "event"
    },
    {
      "constant": false,
      "inputs": [
        {
          "internalType": "address",
          "name": "_token",
          "type": "address"
        }
      ],
      "name": "blacklistRecoverableToken",
      "outputs": [],
      "payable": false,
      "stateMutability": "nonpayable",
      "type": "function"
    },
    {
      "constant": false,
      "inputs": [],
      "name": "claimOwnership",
      "outputs": [],
      "payable": false,
      "stateMutability": "nonpayable",
      "type": "function"
    },
    {
      "constant": false,
      "inputs": [
        {
          "internalType": "address",
          "name": "_nextOwner",
          "type": "address"
        }
      ],
      "name": "initialize",
      "outputs": [],
      "payable": false,
      "stateMutability": "nonpayable",
      "type": "function"
    },
    {
      "constant": true,
      "inputs": [],
      "name": "isOwner",
      "outputs": [
        {
          "internalType": "bool",
          "name": "",
          "type": "bool"
        }
      ],
      "payable": false,
      "stateMutability": "view",
      "type": "function"
    },
    {
      "constant": true,
      "inputs": [],
      "name": "owner",
      "outputs": [
        {
          "internalType": "address",
          "name": "",
          "type": "address"
        }
      ],
      "payable": false,
      "stateMutability": "view",
      "type": "function"
    },
    {
      "constant": true,
      "inputs": [],
      "name": "pendingOwner",
      "outputs": [
        {
          "internalType": "address",
          "name": "",
          "type": "address"
        }
      ],
      "payable": false,
      "stateMutability": "view",
      "type": "function"
    },
    {
      "constant": false,
      "inputs": [
        {
          "internalType": "address",
          "name": "_token",
          "type": "address"
        }
      ],
      "name": "recoverTokens",
      "outputs": [],
      "payable": false,
      "stateMutability": "nonpayable",
      "type": "function"
    },
    {
      "constant": false,
      "inputs": [],
      "name": "renounceOwnership",
      "outputs": [],
      "payable": false,
      "stateMutability": "nonpayable",
      "type": "function"
    },
    {
      "constant": false,
      "inputs": [
        {
          "internalType": "address",
          "name": "newOwner",
          "type": "address"
        }
      ],
      "name": "transferOwnership",
      "outputs": [],
      "payable": false,
      "stateMutability": "nonpayable",
      "type": "function"
    },
    {
      "constant": false,
      "inputs": [
        {
          "internalType": "string",
          "name": "_symbol",
          "type": "string"
        },
        {
          "internalType": "address",
          "name": "_token",
          "type": "address"
        },
        {
          "internalType": "address",
          "name": "_gatewayContract",
          "type": "address"
        }
      ],
      "name": "setGateway",
      "outputs": [],
      "payable": false,
      "stateMutability": "nonpayable",
      "type": "function"
    },
    {
      "constant": false,
      "inputs": [
        {
          "internalType": "address",
          "name": "_token",
          "type": "address"
        },
        {
          "internalType": "address",
          "name": "_newGatewayContract",
          "type": "address"
        }
      ],
      "name": "updateGateway",
      "outputs": [],
      "payable": false,
      "stateMutability": "nonpayable",
      "type": "function"
    },
    {
      "constant": false,
      "inputs": [
        {
          "internalType": "string",
          "name": "_symbol",
          "type": "string"
        }
      ],
      "name": "removeGateway",
      "outputs": [],
      "payable": false,
      "stateMutability": "nonpayable",
      "type": "function"
    },
    {
      "constant": true,
      "inputs": [
        {
          "internalType": "address",
          "name": "_start",
          "type": "address"
        },
        {
          "internalType": "uint256",
          "name": "_count",
          "type": "uint256"
        }
      ],
      "name": "getGateways",
      "outputs": [
        {
          "internalType": "address[]",
          "name": "",
          "type": "address[]"
        }
      ],
      "payable": false,
      "stateMutability": "view",
      "type": "function"
    },
    {
      "constant": true,
      "inputs": [
        {
          "internalType": "address",
          "name": "_start",
          "type": "address"
        },
        {
          "internalType": "uint256",
          "name": "_count",
          "type": "uint256"
        }
      ],
      "name": "getRenTokens",
      "outputs": [
        {
          "internalType": "address[]",
          "name": "",
          "type": "address[]"
        }
      ],
      "payable": false,
      "stateMutability": "view",
      "type": "function"
    },
    {
      "constant": true,
      "inputs": [
        {
          "internalType": "address",
          "name": "_token",
          "type": "address"
        }
      ],
      "name": "getGatewayByToken",
      "outputs": [
        {
          "internalType": "contract IGateway",
          "name": "",
          "type": "address"
        }
      ],
      "payable": false,
      "stateMutability": "view",
      "type": "function"
    },
    {
      "constant": true,
      "inputs": [
        {
          "internalType": "string",
          "name": "_tokenSymbol",
          "type": "string"
        }
      ],
      "name": "getGatewayBySymbol",
      "outputs": [
        {
          "internalType": "contract IGateway",
          "name": "",
          "type": "address"
        }
      ],
      "payable": false,
      "stateMutability": "view",
      "type": "function"
    },
    {
      "constant": true,
      "inputs": [
        {
          "internalType": "string",
          "name": "_tokenSymbol",
          "type": "string"
        }
      ],
      "name": "getTokenBySymbol",
      "outputs": [
        {
          "internalType": "contract IERC20",
          "name": "",
          "type": "address"
        }
      ],
      "payable": false,
      "stateMutability": "view",
      "type": "function"
    },
    {
      "constant": true,
      "inputs": [
        {
          "internalType": "string",
          "name": "_tokenSymbol",
          "type": "string"
        }
      ],
      "name": "symbolIsValid",
      "outputs": [
        {
          "internalType": "bool",
          "name": "",
          "type": "bool"
        }
      ],
      "payable": false,
      "stateMutability": "pure",
      "type": "function"
    }
  ],
  "bytecode": "0x608060405260006068553480156200001657600080fd5b506200002d336200004960201b620013861760201c565b62000043336200011360201b62000de11760201c565b620002ce565b600054610100900460ff16806200006e57506200006e6001600160e01b03620001c616565b806200007d575060005460ff16155b620000ba5760405162461bcd60e51b815260040180806020018281038252602e81526020018062001fda602e913960400191505060405180910390fd5b600054610100900460ff16158015620000e6576000805460ff1961ff0019909116610100171660011790555b620000fc82620001cc60201b620019191760201c565b80156200010f576000805461ff00191690555b5050565b600054610100900460ff1680620001385750620001386001600160e01b03620001c616565b8062000147575060005460ff16155b620001845760405162461bcd60e51b815260040180806020018281038252602e81526020018062001fda602e913960400191505060405180910390fd5b600054610100900460ff16158015620001b0576000805460ff1961ff0019909116610100171660011790555b620000fc826200004960201b620013861760201c565b303b1590565b600054610100900460ff1680620001f15750620001f16001600160e01b03620001c616565b8062000200575060005460ff16155b6200023d5760405162461bcd60e51b815260040180806020018281038252602e81526020018062001fda602e913960400191505060405180910390fd5b600054610100900460ff1615801562000269576000805460ff1961ff0019909116610100171660011790555b603380546001600160a01b0319166001600160a01b0384811691909117918290556040519116906000907f8be0079c531659141344cd1fd0a4f28419497f9722a3daafe3b4186f6b6457e0908290a380156200010f576000805461ff00191690555050565b611cfc80620002de6000396000f3fe608060405234801561001057600080fd5b50600436106101165760003560e01c8063b3d0403e116100a2578063e30c397811610071578063e30c397814610488578063efa74f1f14610490578063f2fde38b146104fe578063f4146ba214610524578063f65d901c1461055057610116565b8063b3d0403e14610339578063c4d66de8146103b8578063cf4f775c146103de578063d14230d61461045a57610116565b8063715018a6116100e9578063715018a6146101fb5780638028c92e146102035780638da5cb5b146102715780638f32d59b14610279578063920966a81461029557610116565b806316114acd1461011b5780631b95e305146101435780634e71e0c81461018557806364936b1e1461018d575b600080fd5b6101416004803603602081101561013157600080fd5b50356001600160a01b0316610576565b005b6101696004803603602081101561015957600080fd5b50356001600160a01b03166106e7565b604080516001600160a01b039092168252519081900360200190f35b610141610708565b610169600480360360208110156101a357600080fd5b810190602081018135600160201b8111156101bd57600080fd5b8201836020820111156101cf57600080fd5b803590602001918460018302840111600160201b831117156101f057600080fd5b509092509050610788565b6101416107d8565b6101416004803603602081101561021957600080fd5b810190602081018135600160201b81111561023357600080fd5b82018360208201111561024557600080fd5b803590602001918460018302840111600160201b8311171561026657600080fd5b509092509050610869565b610169610a37565b610281610a46565b604080519115158252519081900360200190f35b610281600480360360208110156102ab57600080fd5b810190602081018135600160201b8111156102c557600080fd5b8201836020820111156102d757600080fd5b803590602001918460018302840111600160201b831117156102f857600080fd5b91908080601f016020809104026020016040519081016040528093929190818152602001838380828437600092019190915250929550610a6c945050505050565b6101416004803603606081101561034f57600080fd5b810190602081018135600160201b81111561036957600080fd5b82018360208201111561037b57600080fd5b803590602001918460018302840111600160201b8311171561039c57600080fd5b91935091506001600160a01b0381358116916020013516610b03565b610141600480360360208110156103ce57600080fd5b50356001600160a01b0316610de1565b61040a600480360360408110156103f457600080fd5b506001600160a01b038135169060200135610e8d565b60408051602080825283518183015283519192839290830191858101910280838360005b8381101561044657818101518382015260200161042e565b505050509050019250505060405180910390f35b6101416004803603604081101561047057600080fd5b506001600160a01b0381358116916020013516610eb1565b610169610fc4565b610169600480360360208110156104a657600080fd5b810190602081018135600160201b8111156104c057600080fd5b8201836020820111156104d257600080fd5b803590602001918460018302840111600160201b831117156104f357600080fd5b509092509050610fd3565b6101416004803603602081101561051457600080fd5b50356001600160a01b031661100d565b61040a6004803603604081101561053a57600080fd5b506001600160a01b0381351690602001356110fe565b6101416004803603602081101561056657600080fd5b50356001600160a01b0316611112565b61057e610a46565b6105bd576040805162461bcd60e51b81526020600482018190526024820152600080516020611bab833981519152604482015290519081900360640190fd5b6001600160a01b03811660009081526067602052604090205460ff16156106155760405162461bcd60e51b815260040180806020018281038252602a815260200180611b07602a913960400191505060405180910390fd5b6001600160a01b0381166106555760405133904780156108fc02916000818181858888f1935050505015801561064f573d6000803e3d6000fd5b506106e4565b604080516370a0823160e01b815230600482015290516106e49133916001600160a01b038516916370a08231916024808301926020929190829003018186803b1580156106a157600080fd5b505afa1580156106b5573d6000803e3d6000fd5b505050506040513d60208110156106cb57600080fd5b50516001600160a01b038416919063ffffffff61117d16565b50565b6001600160a01b038082166000908152606b6020526040902054165b919050565b6066546001600160a01b031661071c6111d4565b6001600160a01b0316146107615760405162461bcd60e51b815260040180806020018281038252602a815260200180611c24602a913960400191505060405180910390fd5b606654610776906001600160a01b03166111d8565b606680546001600160a01b0319169055565b6000606b6000606c8585604051808383808284379190910194855250506040805160209481900385019020546001600160a01b039081168652938501959095525050910160002054169392505050565b6107e0610a46565b61081f576040805162461bcd60e51b81526020600482018190526024820152600080516020611bab833981519152604482015290519081900360640190fd5b6033546040516000916001600160a01b0316907f8be0079c531659141344cd1fd0a4f28419497f9722a3daafe3b4186f6b6457e0908390a3603380546001600160a01b0319169055565b610871610a46565b6108b0576040805162461bcd60e51b81526020600482018190526024820152600080516020611bab833981519152604482015290519081900360640190fd5b6000606c83836040518083838082843791909101948552505060405192839003602001909220546001600160a01b031692505050806109205760405162461bcd60e51b8152600401808060200182810382526026815260200180611c4e6026913960400191505060405180910390fd5b6001600160a01b038082166000908152606b60205260409081902080546001600160a01b031981169091559051911690606c9085908590808383808284379190910194855250506040519283900360200190922080546001600160a01b0319169055506109909050606982611279565b61099b606a83611279565b606880546000190190556040516001600160a01b038083169190841690869086908083838082843760408051939091018390038320602080855284018c905295507fea98e49727cf7c3a8c3926a036a6d41047c9b766d9109f22962950f37a2094aa94508b93508a92915081908101848480828437600083820152604051601f909101601f19169092018290039550909350505050a450505050565b6033546001600160a01b031690565b6033546000906001600160a01b0316610a5d6111d4565b6001600160a01b031614905090565b6000805b8251811015610afa576000838281518110610a8757fe5b016020015160f81c905060418110801590610aa65750605a8160ff1611155b80610ac4575060618160ff1610158015610ac45750607a8160ff1611155b80610ae2575060308160ff1610158015610ae2575060398160ff1611155b610af157600092505050610703565b50600101610a70565b50600192915050565b610b0b610a46565b610b4a576040805162461bcd60e51b81526020600482018190526024820152600080516020611bab833981519152604482015290519081900360640190fd5b610b8984848080601f016020809104026020016040519081016040528093929190818152602001838380828437600092019190915250610a6c92505050565b610bc45760405162461bcd60e51b815260040180806020018281038252602c815260200180611b56602c913960400191505060405180910390fd5b610bcf60698261134e565b15610c0b5760405162461bcd60e51b815260040180806020018281038252602b815260200180611bcb602b913960400191505060405180910390fd5b6001600160a01b038281166000908152606b60205260409020541615610c625760405162461bcd60e51b8152600401808060200182810382526029815260200180611b826029913960400191505060405180910390fd5b60006001600160a01b0316606c85856040518083838082843791909101948552505060405192839003602001909220546001600160a01b0316929092149150610cde90505760405162461bcd60e51b815260040180806020018281038252602a815260200180611c9e602a913960400191505060405180910390fd5b610ce960698261136d565b610cf4606a8361136d565b81606c85856040518083838082843791909101948552505060408051938490036020908101852080546001600160a01b039788166001600160a01b0319918216179091558887166000818152606b9093529290912080549688169690911686179055606880546001019055928892508791508083838082843760408051939091018390038320602080855284018c905295507fd433aae9ea620c1976ff88f75c629f477dbffe6bf277edad8a31c983117ab32a94508b93508a92915081908101848480828437600083820152604051601f909101601f19169092018290039550909350505050a450505050565b600054610100900460ff1680610dfa5750610dfa611380565b80610e08575060005460ff16155b610e435760405162461bcd60e51b815260040180806020018281038252602e815260200180611bf6602e913960400191505060405180910390fd5b600054610100900460ff16158015610e6e576000805460ff1961ff0019909116610100171660011790555b610e7782611386565b8015610e89576000805461ff00191690555b5050565b6060610eaa606a848415610ea15784610ea5565b6068545b61141c565b9392505050565b610eb9610a46565b610ef8576040805162461bcd60e51b81526020600482018190526024820152600080516020611bab833981519152604482015290519081900360640190fd5b6001600160a01b038083166000908152606b60205260409020541680610f4f5760405162461bcd60e51b8152600401808060200182810382526025815260200180611b316025913960400191505060405180910390fd5b610f5a606982611279565b610f6560698361136d565b6001600160a01b038381166000818152606b602052604080822080546001600160a01b03191687861690811790915590519093851692917f2dc9e208c924a5b14066ecb7121b371da427e696ad69456ed07a52cd2a710d9991a4505050565b6066546001600160a01b031681565b6000606c83836040518083838082843791909101948552505060405192839003602001909220546001600160a01b03169250505092915050565b611015610a46565b611054576040805162461bcd60e51b81526020600482018190526024820152600080516020611bab833981519152604482015290519081900360640190fd5b61105c610a37565b6001600160a01b0316816001600160a01b03161415801561108b57506066546001600160a01b03828116911614155b6110dc576040805162461bcd60e51b815260206004820152601c60248201527f436c61696d61626c653a20696e76616c6964206e6577206f776e657200000000604482015290519081900360640190fd5b606680546001600160a01b0319166001600160a01b0392909216919091179055565b6060610eaa6069848415610ea15784610ea5565b61111a610a46565b611159576040805162461bcd60e51b81526020600482018190526024820152600080516020611bab833981519152604482015290519081900360640190fd5b6001600160a01b03166000908152606760205260409020805460ff19166001179055565b604080516001600160a01b038416602482015260448082018490528251808303909101815260649091019091526020810180516001600160e01b031663a9059cbb60e01b1790526111cf908490611590565b505050565b3390565b6001600160a01b03811661121d5760405162461bcd60e51b8152600401808060200182810382526026815260200180611ae16026913960400191505060405180910390fd5b6033546040516001600160a01b038084169216907f8be0079c531659141344cd1fd0a4f28419497f9722a3daafe3b4186f6b6457e090600090a3603380546001600160a01b0319166001600160a01b0392909216919091179055565b611283828261134e565b6112ce576040805162461bcd60e51b8152602060048201526017602482015276131a5b9ad959131a5cdd0e881b9bdd081a5b881b1a5cdd604a1b604482015290519081900360640190fd5b6001600160a01b0390811660008181526020939093526040808420805460018083018054610100938490048816808a52868a209093018054919098166001600160a01b031991821681179098559688529387208054610100600160a81b031916919092021790559190935280546001600160a81b03191690558154169055565b6001600160a01b03166000908152602091909152604090205460ff1690565b610e898261137a8461174e565b83611770565b303b1590565b600054610100900460ff168061139f575061139f611380565b806113ad575060005460ff16155b6113e85760405162461bcd60e51b815260040180806020018281038252602e815260200180611bf6602e913960400191505060405180910390fd5b600054610100900460ff16158015611413576000805460ff1961ff0019909116610100171660011790555b610e7782611919565b606060008211611473576040805162461bcd60e51b815260206004820152601960248201527f4c696e6b65644c6973743a20696e76616c696420636f756e7400000000000000604482015290519081900360640190fd5b61147d848461134e565b8061148f57506001600160a01b038316155b6114da576040805162461bcd60e51b8152602060048201526017602482015276131a5b9ad959131a5cdd0e881b9bdd081a5b881b1a5cdd604a1b604482015290519081900360640190fd5b606082604051908082528060200260200182016040528015611506578160200160208202803883390190505b5090506000846001600160a01b0381166115265761152387611a0a565b90505b84821015611585576001600160a01b03811661154157611585565b8083838151811061154e57fe5b60200260200101906001600160a01b031690816001600160a01b0316815250506115788782611a29565b9050600182019150611526565b509095945050505050565b6115a2826001600160a01b0316611aa4565b6115f3576040805162461bcd60e51b815260206004820152601f60248201527f5361666545524332303a2063616c6c20746f206e6f6e2d636f6e747261637400604482015290519081900360640190fd5b60006060836001600160a01b0316836040518082805190602001908083835b602083106116315780518252601f199092019160209182019101611612565b6001836020036101000a0380198251168184511680821785525050505050509050019150506000604051808303816000865af19150503d8060008114611693576040519150601f19603f3d011682016040523d82523d6000602084013e611698565b606091505b5091509150816116ef576040805162461bcd60e51b815260206004820181905260248201527f5361666545524332303a206c6f772d6c6576656c2063616c6c206661696c6564604482015290519081900360640190fd5b8051156117485780806020019051602081101561170b57600080fd5b50516117485760405162461bcd60e51b815260040180806020018281038252602a815260200180611c74602a913960400191505060405180910390fd5b50505050565b60008080526020829052604090205461010090046001600160a01b0316919050565b6001600160a01b0381166117cb576040805162461bcd60e51b815260206004820152601b60248201527f4c696e6b65644c6973743a20696e76616c696420616464726573730000000000604482015290519081900360640190fd5b6117d5838261134e565b15611827576040805162461bcd60e51b815260206004820152601b60248201527f4c696e6b65644c6973743a20616c726561647920696e206c6973740000000000604482015290519081900360640190fd5b611831838361134e565b8061184357506001600160a01b038216155b61188e576040805162461bcd60e51b8152602060048201526017602482015276131a5b9ad959131a5cdd0e881b9bdd081a5b881b1a5cdd604a1b604482015290519081900360640190fd5b6001600160a01b0391821660008181526020949094526040808520600190810180549486168088528388208054610100600160a81b03199081166101009788021782558185018054989099166001600160a01b031998891681179099558354909716821790925595875291862080549094169285029290921790925591909252815460ff1916179055565b600054610100900460ff16806119325750611932611380565b80611940575060005460ff16155b61197b5760405162461bcd60e51b815260040180806020018281038252602e815260200180611bf6602e913960400191505060405180910390fd5b600054610100900460ff161580156119a6576000805460ff1961ff0019909116610100171660011790555b603380546001600160a01b0319166001600160a01b0384811691909117918290556040519116906000907f8be0079c531659141344cd1fd0a4f28419497f9722a3daafe3b4186f6b6457e0908290a38015610e89576000805461ff00191690555050565b600080805260209190915260409020600101546001600160a01b031690565b6000611a35838361134e565b611a80576040805162461bcd60e51b8152602060048201526017602482015276131a5b9ad959131a5cdd0e881b9bdd081a5b881b1a5cdd604a1b604482015290519081900360640190fd5b506001600160a01b0390811660009081526020929092526040909120600101541690565b6000813f7fc5d2460186f7233c927e7db2dcc703c0e500b653ca82273b7bfad8045d85a4708115801590611ad85750808214155b94935050505056fe4f776e61626c653a206e6577206f776e657220697320746865207a65726f206164647265737343616e5265636c61696d546f6b656e733a20746f6b656e206973206e6f74207265636f76657261626c654761746577617952656769737472793a20746f6b656e206e6f7420726567697374657265644761746577617952656769737472793a2073796d626f6c206d75737420626520616c7068616e756d657269634761746577617952656769737472793a20746f6b656e20616c726561647920726567697374657265644f776e61626c653a2063616c6c6572206973206e6f7420746865206f776e65724761746577617952656769737472793a206761746577617920616c72656164792072656769737465726564436f6e747261637420696e7374616e63652068617320616c7265616479206265656e20696e697469616c697a6564436c61696d61626c653a2063616c6c6572206973206e6f74207468652070656e64696e67206f776e65724761746577617952656769737472793a2073796d626f6c206e6f7420726567697374657265645361666545524332303a204552433230206f7065726174696f6e20646964206e6f7420737563636565644761746577617952656769737472793a2073796d626f6c20616c72656164792072656769737465726564a265627a7a72315820363a2b2193642196a91960c35988429f73b2e8f1bf8d13bfee46242b040dc82f64736f6c63430005100032436f6e747261637420696e7374616e63652068617320616c7265616479206265656e20696e697469616c697a6564",
  "source": "pragma solidity 0.5.16;\n\nimport \"../Governance/Claimable.sol\";\nimport \"./RenERC20.sol\";\nimport \"../libraries/LinkedList.sol\";\nimport \"./interfaces/IGateway.sol\";\nimport \"../libraries/CanReclaimTokens.sol\";\n\n/// @notice GatewayRegistry is a mapping from assets to their associated\n/// RenERC20 and Gateway contracts.\ncontract GatewayRegistry is Claimable, CanReclaimTokens {\n    constructor() public {\n        Claimable.initialize(msg.sender);\n        CanReclaimTokens.initialize(msg.sender);\n    }\n\n    /// @dev The symbol is included twice because strings have to be hashed\n    /// first in order to be used as a log index/topic.\n    event LogGatewayRegistered(\n        string _symbol,\n        string indexed _indexedSymbol,\n        address indexed _token,\n        address indexed _gatewayContract\n    );\n    event LogGatewayDeregistered(\n        string _symbol,\n        string indexed _indexedSymbol,\n        address indexed _token,\n        address indexed _gatewayContract\n    );\n    event LogGatewayUpdated(\n        address indexed _token,\n        address indexed _currentGatewayContract,\n        address indexed _newGatewayContract\n    );\n\n    /// @notice The number of gateways registered.\n    uint256 numGatewayContracts = 0;\n\n    /// @notice A list of gateway contracts.\n    LinkedList.List private gatewayContractList;\n\n    /// @notice A list of ren token contracts.\n    LinkedList.List private renTokenList;\n\n    /// @notice A map of token addresses to canonical gateway contract addresses.\n    mapping(address => address) private gatewayByToken;\n\n    /// @notice A map of token symbols to token addresses.\n    mapping(string => address) private tokenBySymbol;\n\n    /// @notice Allow the owner to set the Gateway contract for a given\n    ///         RenERC20 token contract.\n    ///\n    /// @param _token The address of the RenERC20 token contract.\n    /// @param _gatewayContract The address of the Gateway contract.\n    function setGateway(string calldata _symbol, address _token, address _gatewayContract)\n        external\n        onlyOwner\n    {\n        require(symbolIsValid(_symbol), \"GatewayRegistry: symbol must be alphanumeric\");\n\n        // Check that token, Gateway and symbol haven't already been registered.\n        require(\n            !LinkedList.isInList(gatewayContractList, _gatewayContract),\n            \"GatewayRegistry: gateway already registered\"\n        );\n        require(\n            gatewayByToken[_token] == address(0x0),\n            \"GatewayRegistry: token already registered\"\n        );\n        require(\n            tokenBySymbol[_symbol] == address(0x0),\n            \"GatewayRegistry: symbol already registered\"\n        );\n\n        // Add to list of gateways.\n        LinkedList.append(gatewayContractList, _gatewayContract);\n\n        // Add to list of ren tokens.\n        LinkedList.append(renTokenList, _token);\n\n        tokenBySymbol[_symbol] = _token;\n        gatewayByToken[_token] = _gatewayContract;\n        numGatewayContracts += 1;\n\n        emit LogGatewayRegistered(_symbol, _symbol, _token, _gatewayContract);\n    }\n\n    /// @notice Allow the owner to update the Gateway contract for a given\n    ///         RenERC20 contract.\n    ///\n    /// @param _token The address of the RenERC20 contract.\n    /// @param _newGatewayContract The updated address of the Gateway contract.\n    function updateGateway(address _token, address _newGatewayContract)\n        external\n        onlyOwner\n    {\n        // Check that token, Gateway are registered\n        address currentGateway = gatewayByToken[_token];\n        require(\n            currentGateway != address(0x0),\n            \"GatewayRegistry: token not registered\"\n        );\n\n        // Remove to list of Gateway contracts.\n        LinkedList.remove(gatewayContractList, currentGateway);\n\n        // Add to list of RenERC20 tokens.\n        LinkedList.append(gatewayContractList, _newGatewayContract);\n\n        gatewayByToken[_token] = _newGatewayContract;\n\n        emit LogGatewayUpdated(_token, currentGateway, _newGatewayContract);\n    }\n\n    /// @notice Allows the owner to remove the Gateway contract for a given\n    ///         RenERC20 contract.\n    ///\n    /// @param _symbol The symbol of the token to deregister.\n    function removeGateway(string calldata _symbol) external onlyOwner {\n        // Look up token address\n        address tokenAddress = tokenBySymbol[_symbol];\n        require(\n            tokenAddress != address(0x0),\n            \"GatewayRegistry: symbol not registered\"\n        );\n\n        // Look up Gateway contract address\n        address gatewayAddress = gatewayByToken[tokenAddress];\n\n        // Remove token and Gateway contract\n        delete gatewayByToken[tokenAddress];\n        delete tokenBySymbol[_symbol];\n        LinkedList.remove(gatewayContractList, gatewayAddress);\n        LinkedList.remove(renTokenList, tokenAddress);\n        numGatewayContracts -= 1;\n\n        emit LogGatewayDeregistered(\n            _symbol,\n            _symbol,\n            tokenAddress,\n            gatewayAddress\n        );\n    }\n\n    /// @dev To get all the registered Gateway contracts use count = 0.\n    function getGateways(address _start, uint256 _count)\n        external\n        view\n        returns (address[] memory)\n    {\n        return\n            LinkedList.elements(\n                gatewayContractList,\n                _start,\n                _count == 0 ? numGatewayContracts : _count\n            );\n    }\n\n    /// @dev To get all the registered RenERC20 tokens use count = 0.\n    function getRenTokens(address _start, uint256 _count)\n        external\n        view\n        returns (address[] memory)\n    {\n        return\n            LinkedList.elements(\n                renTokenList,\n                _start,\n                _count == 0 ? numGatewayContracts : _count\n            );\n    }\n\n    /// @notice Returns the Gateway contract for the given RenERC20 token\n    ///         address.\n    ///\n    /// @param _token The address of the RenERC20 token contract.\n    function getGatewayByToken(address _token)\n        external\n        view\n        returns (IGateway)\n    {\n        return IGateway(gatewayByToken[_token]);\n    }\n\n    /// @notice Returns the Gateway contract for the given RenERC20 token\n    ///         symbol.\n    ///\n    /// @param _tokenSymbol The symbol of the RenERC20 token contract.\n    function getGatewayBySymbol(string calldata _tokenSymbol)\n        external\n        view\n        returns (IGateway)\n    {\n        return IGateway(gatewayByToken[tokenBySymbol[_tokenSymbol]]);\n    }\n\n    /// @notice Returns the RenERC20 address for the given token symbol.\n    ///\n    /// @param _tokenSymbol The symbol of the RenERC20 token contract to\n    ///        lookup.\n    function getTokenBySymbol(string calldata _tokenSymbol)\n        external\n        view\n        returns (IERC20)\n    {\n        return IERC20(tokenBySymbol[_tokenSymbol]);\n    }\n\n    function symbolIsValid(string memory _tokenSymbol) public pure returns (bool) {\n        for (uint i = 0; i < bytes(_tokenSymbol).length; i++) {\n            uint8 char = uint8(bytes(_tokenSymbol)[i]);\n            if (!(\n                (char >= 65 && char <= 90) ||\n                (char >= 97 && char <= 122) ||\n                (char >= 48 && char <= 57)\n            )) {\n                return false;\n            }\n        }\n        return true;\n    }\n}\n",
  "sourcePath": "/home/noah/github/renproject/ren-sol/contracts/Gateway/GatewayRegistry.sol",
  "compiler": {
    "name": "solc",
    "version": "0.5.16+commit.9c3226ce.Emscripten.clang"
  },
  "schemaVersion": "3.0.23",
  "updatedAt": "2020-03-30T04:17:17.117Z",
  "networkType": "ethereum",
  "devdoc": {
    "methods": {
      "getGatewayBySymbol(string)": {
        "params": {
          "_tokenSymbol": "The symbol of the RenERC20 token contract."
        }
      },
      "getGatewayByToken(address)": {
        "params": {
          "_token": "The address of the RenERC20 token contract."
        }
      },
      "getGateways(address,uint256)": {
        "details": "To get all the registered Gateway contracts use count = 0."
      },
      "getRenTokens(address,uint256)": {
        "details": "To get all the registered RenERC20 tokens use count = 0."
      },
      "getTokenBySymbol(string)": {
        "params": {
          "_tokenSymbol": "The symbol of the RenERC20 token contract to        lookup."
        }
      },
      "isOwner()": {
        "details": "Returns true if the caller is the current owner."
      },
      "owner()": {
        "details": "Returns the address of the current owner."
      },
      "removeGateway(string)": {
        "params": {
          "_symbol": "The symbol of the token to deregister."
        }
      },
      "renounceOwnership()": {
        "details": "Leaves the contract without owner. It will not be possible to call `onlyOwner` functions anymore. Can only be called by the current owner.     * > Note: Renouncing ownership will leave the contract without an owner, thereby removing any functionality that is only available to the owner."
      },
      "setGateway(string,address,address)": {
        "params": {
          "_gatewayContract": "The address of the Gateway contract.",
          "_token": "The address of the RenERC20 token contract."
        }
      },
      "updateGateway(address,address)": {
        "params": {
          "_newGatewayContract": "The updated address of the Gateway contract.",
          "_token": "The address of the RenERC20 contract."
        }
      }
    }
  },
  "userdoc": {
    "methods": {
      "getGatewayBySymbol(string)": {
        "notice": "Returns the Gateway contract for the given RenERC20 token         symbol. "
      },
      "getGatewayByToken(address)": {
        "notice": "Returns the Gateway contract for the given RenERC20 token         address. "
      },
      "getTokenBySymbol(string)": {
        "notice": "Returns the RenERC20 address for the given token symbol. "
      },
      "recoverTokens(address)": {
        "notice": "Allow the owner of the contract to recover funds accidentally sent to the contract. To withdraw ETH, the token should be set to `0x0`."
      },
      "removeGateway(string)": {
        "notice": "Allows the owner to remove the Gateway contract for a given         RenERC20 contract. "
      },
      "setGateway(string,address,address)": {
        "notice": "Allow the owner to set the Gateway contract for a given         RenERC20 token contract. "
      },
      "updateGateway(address,address)": {
        "notice": "Allow the owner to update the Gateway contract for a given         RenERC20 contract. "
      }
    },
    "notice": "GatewayRegistry is a mapping from assets to their associated RenERC20 and Gateway contracts."
  }
}