{
  "contractName": "GatewayLogicV1",
  "abi": [
    {
      "anonymous": false,
      "inputs": [
        {
          "indexed": false,
          "internalType": "bytes",
          "name": "_to",
          "type": "bytes"
        },
        {
          "indexed": false,
          "internalType": "uint256",
          "name": "_amount",
          "type": "uint256"
        },
        {
          "indexed": true,
          "internalType": "uint256",
          "name": "_n",
          "type": "uint256"
        },
        {
          "indexed": true,
          "internalType": "bytes",
          "name": "_indexedTo",
          "type": "bytes"
        }
      ],
      "name": "LogBurn",
      "type": "event"
    },
    {
      "anonymous": false,
      "inputs": [
        {
          "indexed": true,
          "internalType": "address",
          "name": "_to",
          "type": "address"
        },
        {
          "indexed": false,
          "internalType": "uint256",
          "name": "_amount",
          "type": "uint256"
        },
        {
          "indexed": true,
          "internalType": "uint256",
          "name": "_n",
          "type": "uint256"
        },
        {
          "indexed": true,
          "internalType": "bytes32",
          "name": "_signedMessageHash",
          "type": "bytes32"
        }
      ],
      "name": "LogMint",
      "type": "event"
    },
    {
      "anonymous": false,
      "inputs": [
        {
          "indexed": true,
          "internalType": "address",
          "name": "_newMintAuthority",
          "type": "address"
        }
      ],
      "name": "LogMintAuthorityUpdated",
      "type": "event"
    },
    {
      "anonymous": false,
      "inputs": [
        {
          "indexed": true,
          "internalType": "address",
          "name": "previousOwner",
          "type": "address"
        },
        {
          "indexed": true,
          "internalType": "address",
          "name": "newOwner",
          "type": "address"
        }
      ],
      "name": "OwnershipTransferred",
      "type": "event"
    },
    {
      "constant": false,
      "inputs": [
        {
          "internalType": "address",
          "name": "_token",
          "type": "address"
        }
      ],
      "name": "blacklistRecoverableToken",
      "outputs": [],
      "payable": false,
      "stateMutability": "nonpayable",
      "type": "function"
    },
    {
      "constant": true,
      "inputs": [],
      "name": "burnFee",
      "outputs": [
        {
          "internalType": "uint16",
          "name": "",
          "type": "uint16"
        }
      ],
      "payable": false,
      "stateMutability": "view",
      "type": "function"
    },
    {
      "constant": false,
      "inputs": [],
      "name": "claimOwnership",
      "outputs": [],
      "payable": false,
      "stateMutability": "nonpayable",
      "type": "function"
    },
    {
      "constant": true,
      "inputs": [],
      "name": "feeRecipient",
      "outputs": [
        {
          "internalType": "address",
          "name": "",
          "type": "address"
        }
      ],
      "payable": false,
      "stateMutability": "view",
      "type": "function"
    },
    {
      "constant": true,
      "inputs": [],
      "name": "isOwner",
      "outputs": [
        {
          "internalType": "bool",
          "name": "",
          "type": "bool"
        }
      ],
      "payable": false,
      "stateMutability": "view",
      "type": "function"
    },
    {
      "constant": true,
      "inputs": [],
      "name": "minimumBurnAmount",
      "outputs": [
        {
          "internalType": "uint256",
          "name": "",
          "type": "uint256"
        }
      ],
      "payable": false,
      "stateMutability": "view",
      "type": "function"
    },
    {
      "constant": true,
      "inputs": [],
      "name": "mintAuthority",
      "outputs": [
        {
          "internalType": "address",
          "name": "",
          "type": "address"
        }
      ],
      "payable": false,
      "stateMutability": "view",
      "type": "function"
    },
    {
      "constant": true,
      "inputs": [],
      "name": "mintFee",
      "outputs": [
        {
          "internalType": "uint16",
          "name": "",
          "type": "uint16"
        }
      ],
      "payable": false,
      "stateMutability": "view",
      "type": "function"
    },
    {
      "constant": true,
      "inputs": [],
      "name": "nextN",
      "outputs": [
        {
          "internalType": "uint256",
          "name": "",
          "type": "uint256"
        }
      ],
      "payable": false,
      "stateMutability": "view",
      "type": "function"
    },
    {
      "constant": true,
      "inputs": [],
      "name": "owner",
      "outputs": [
        {
          "internalType": "address",
          "name": "",
          "type": "address"
        }
      ],
      "payable": false,
      "stateMutability": "view",
      "type": "function"
    },
    {
      "constant": true,
      "inputs": [],
      "name": "pendingOwner",
      "outputs": [
        {
          "internalType": "address",
          "name": "",
          "type": "address"
        }
      ],
      "payable": false,
      "stateMutability": "view",
      "type": "function"
    },
    {
      "constant": false,
      "inputs": [
        {
          "internalType": "address",
          "name": "_token",
          "type": "address"
        }
      ],
      "name": "recoverTokens",
      "outputs": [],
      "payable": false,
      "stateMutability": "nonpayable",
      "type": "function"
    },
    {
      "constant": false,
      "inputs": [],
      "name": "renounceOwnership",
      "outputs": [],
      "payable": false,
      "stateMutability": "nonpayable",
      "type": "function"
    },
    {
      "constant": true,
      "inputs": [
        {
          "internalType": "bytes32",
          "name": "",
          "type": "bytes32"
        }
      ],
      "name": "status",
      "outputs": [
        {
          "internalType": "bool",
          "name": "",
          "type": "bool"
        }
      ],
      "payable": false,
      "stateMutability": "view",
      "type": "function"
    },
    {
      "constant": true,
      "inputs": [],
      "name": "token",
      "outputs": [
        {
          "internalType": "contract RenERC20LogicV1",
          "name": "",
          "type": "address"
        }
      ],
      "payable": false,
      "stateMutability": "view",
      "type": "function"
    },
    {
      "constant": false,
      "inputs": [
        {
          "internalType": "address",
          "name": "newOwner",
          "type": "address"
        }
      ],
      "name": "transferOwnership",
      "outputs": [],
      "payable": false,
      "stateMutability": "nonpayable",
      "type": "function"
    },
    {
      "constant": false,
      "inputs": [
        {
          "internalType": "contract RenERC20LogicV1",
          "name": "_token",
          "type": "address"
        },
        {
          "internalType": "address",
          "name": "_feeRecipient",
          "type": "address"
        },
        {
          "internalType": "address",
          "name": "_mintAuthority",
          "type": "address"
        },
        {
          "internalType": "uint16",
          "name": "_mintFee",
          "type": "uint16"
        },
        {
          "internalType": "uint16",
          "name": "_burnFee",
          "type": "uint16"
        },
        {
          "internalType": "uint256",
          "name": "_minimumBurnAmount",
          "type": "uint256"
        }
      ],
      "name": "initialize",
      "outputs": [],
      "payable": false,
      "stateMutability": "nonpayable",
      "type": "function"
    },
    {
      "constant": false,
      "inputs": [
        {
          "internalType": "address",
          "name": "_nextOwner",
          "type": "address"
        }
      ],
      "name": "initialize",
      "outputs": [],
      "payable": false,
      "stateMutability": "nonpayable",
      "type": "function"
    },
    {
      "constant": false,
      "inputs": [],
      "name": "claimTokenOwnership",
      "outputs": [],
      "payable": false,
      "stateMutability": "nonpayable",
      "type": "function"
    },
    {
      "constant": false,
      "inputs": [
        {
          "internalType": "contract GatewayLogicV1",
          "name": "_nextTokenOwner",
          "type": "address"
        }
      ],
      "name": "transferTokenOwnership",
      "outputs": [],
      "payable": false,
      "stateMutability": "nonpayable",
      "type": "function"
    },
    {
      "constant": false,
      "inputs": [
        {
          "internalType": "address",
          "name": "_nextMintAuthority",
          "type": "address"
        }
      ],
      "name": "updateMintAuthority",
      "outputs": [],
      "payable": false,
      "stateMutability": "nonpayable",
      "type": "function"
    },
    {
      "constant": false,
      "inputs": [
        {
          "internalType": "uint256",
          "name": "_minimumBurnAmount",
          "type": "uint256"
        }
      ],
      "name": "updateMinimumBurnAmount",
      "outputs": [],
      "payable": false,
      "stateMutability": "nonpayable",
      "type": "function"
    },
    {
      "constant": false,
      "inputs": [
        {
          "internalType": "address",
          "name": "_nextFeeRecipient",
          "type": "address"
        }
      ],
      "name": "updateFeeRecipient",
      "outputs": [],
      "payable": false,
      "stateMutability": "nonpayable",
      "type": "function"
    },
    {
      "constant": false,
      "inputs": [
        {
          "internalType": "uint16",
          "name": "_nextMintFee",
          "type": "uint16"
        }
      ],
      "name": "updateMintFee",
      "outputs": [],
      "payable": false,
      "stateMutability": "nonpayable",
      "type": "function"
    },
    {
      "constant": false,
      "inputs": [
        {
          "internalType": "uint16",
          "name": "_nextBurnFee",
          "type": "uint16"
        }
      ],
      "name": "updateBurnFee",
      "outputs": [],
      "payable": false,
      "stateMutability": "nonpayable",
      "type": "function"
    },
    {
      "constant": false,
      "inputs": [
        {
          "internalType": "bytes32",
          "name": "_pHash",
          "type": "bytes32"
        },
        {
          "internalType": "uint256",
          "name": "_amountUnderlying",
          "type": "uint256"
        },
        {
          "internalType": "bytes32",
          "name": "_nHash",
          "type": "bytes32"
        },
        {
          "internalType": "bytes",
          "name": "_sig",
          "type": "bytes"
        }
      ],
      "name": "mint",
      "outputs": [
        {
          "internalType": "uint256",
          "name": "",
          "type": "uint256"
        }
      ],
      "payable": false,
      "stateMutability": "nonpayable",
      "type": "function"
    },
    {
      "constant": false,
      "inputs": [
        {
          "internalType": "bytes",
          "name": "_to",
          "type": "bytes"
        },
        {
          "internalType": "uint256",
          "name": "_amount",
          "type": "uint256"
        }
      ],
      "name": "burn",
      "outputs": [
        {
          "internalType": "uint256",
          "name": "",
          "type": "uint256"
        }
      ],
      "payable": false,
      "stateMutability": "nonpayable",
      "type": "function"
    },
    {
      "constant": true,
      "inputs": [
        {
          "internalType": "bytes32",
          "name": "_signedMessageHash",
          "type": "bytes32"
        },
        {
          "internalType": "bytes",
          "name": "_sig",
          "type": "bytes"
        }
      ],
      "name": "verifySignature",
      "outputs": [
        {
          "internalType": "bool",
          "name": "",
          "type": "bool"
        }
      ],
      "payable": false,
      "stateMutability": "view",
      "type": "function"
    },
    {
      "constant": true,
      "inputs": [
        {
          "internalType": "bytes32",
          "name": "_pHash",
          "type": "bytes32"
        },
        {
          "internalType": "uint256",
          "name": "_amount",
          "type": "uint256"
        },
        {
          "internalType": "address",
          "name": "_to",
          "type": "address"
        },
        {
          "internalType": "bytes32",
          "name": "_nHash",
          "type": "bytes32"
        }
      ],
      "name": "hashForSignature",
      "outputs": [
        {
          "internalType": "bytes32",
          "name": "",
          "type": "bytes32"
        }
      ],
      "payable": false,
      "stateMutability": "view",
      "type": "function"
    }
  ],
  "bytecode": "0x60806040526000606d556129c5806100186000396000f3fe608060405234801561001057600080fd5b50600436106101cf5760003560e01c8063715018a611610104578063c4d66de8116100a2578063f2fde38b11610071578063f2fde38b14610657578063f65d901c1461067d578063fc0c546a146106a3578063fce589d8146106ab576101cf565b8063c4d66de814610556578063daca6f781461057c578063e30c397814610629578063f160d36914610631576101cf565b80639340b21e116100de5780639340b21e146104ee57806394c238ac146104f6578063a2999beb146104fe578063aa4df9ad1461054e576101cf565b8063715018a6146104d65780638da5cb5b146104de5780638f32d59b146104e6576101cf565b80633a521b8d116101715780635219a5661161014b5780635219a5661461042b57806352ad0d5e1461046357806359c9176c146104945780635cc66106146104b5576101cf565b80633a521b8d146103e257806346904840146103ff5780634e71e0c814610423576101cf565b8063159ab14d116101ad578063159ab14d1461022357806316114acd146102ee57806321e6b53d1461031457806338463cff1461033a576101cf565b80630130a33b146101d457806310731a65146101fc57806313966db514610204575b600080fd5b6101fa600480360360208110156101ea57600080fd5b50356001600160a01b03166106b3565b005b6101fa6107b4565b61020c61081e565b6040805161ffff9092168252519081900360200190f35b6102dc6004803603608081101561023957600080fd5b8135916020810135916040820135919081019060808101606082013564010000000081111561026757600080fd5b82018360208201111561027957600080fd5b8035906020019184600183028401116401000000008311171561029b57600080fd5b91908080601f01602080910402602001604051908101604052809392919081815260200183838082843760009201919091525092955061082f945050505050565b60408051918252519081900360200190f35b6101fa6004803603602081101561030457600080fd5b50356001600160a01b0316610c8d565b6101fa6004803603602081101561032a57600080fd5b50356001600160a01b0316610dfe565b6102dc6004803603604081101561035057600080fd5b81019060208101813564010000000081111561036b57600080fd5b82018360208201111561037d57600080fd5b8035906020019184600183028401116401000000008311171561039f57600080fd5b91908080601f0160208091040260200160405190810160405280939291908181526020018383808284376000920191909152509295505091359250610f01915050565b6101fa600480360360208110156103f857600080fd5b503561127d565b6104076112c9565b604080516001600160a01b039092168252519081900360200190f35b6101fa6112d8565b6102dc6004803603608081101561044157600080fd5b508035906020810135906001600160a01b036040820135169060600135611358565b6104806004803603602081101561047957600080fd5b50356113a8565b604080519115158252519081900360200190f35b6101fa600480360360208110156104aa57600080fd5b503561ffff166113bd565b6101fa600480360360208110156104cb57600080fd5b503561ffff16611426565b6101fa61148f565b610407611520565b61048061152f565b610407611555565b6102dc611564565b6101fa600480360360c081101561051457600080fd5b506001600160a01b03813581169160208101358216916040820135169061ffff606082013581169160808101359091169060a0013561156a565b6102dc61168a565b6101fa6004803603602081101561056c57600080fd5b50356001600160a01b0316611690565b6104806004803603604081101561059257600080fd5b813591908101906040810160208201356401000000008111156105b457600080fd5b8201836020820111156105c657600080fd5b803590602001918460018302840111640100000000831117156105e857600080fd5b91908080601f01602080910402602001604051908101604052809392919081815260200183838082843760009201919091525092955061173c945050505050565b610407611760565b6101fa6004803603602081101561064757600080fd5b50356001600160a01b031661176f565b6101fa6004803603602081101561066d57600080fd5b50356001600160a01b031661181d565b6101fa6004803603602081101561069357600080fd5b50356001600160a01b031661190e565b610407611979565b61020c611988565b606a546001600160a01b03163314806106e457506106cf611520565b6001600160a01b0316336001600160a01b0316145b61071f5760405162461bcd60e51b815260040180806020018281038252603281526020018061277d6032913960400191505060405180910390fd5b6001600160a01b0381166107645760405162461bcd60e51b81526004018080602001828103825260348152602001806127e36034913960400191505060405180910390fd5b606a80546001600160a01b0319166001600160a01b0383811691909117918290556040519116907ff0f08e606c1dd3a2c220ada53422fd9fe0aa75614b27db0549f649de3ad2072a90600090a250565b606960009054906101000a90046001600160a01b03166001600160a01b0316634e71e0c86040518163ffffffff1660e01b8152600401600060405180830381600087803b15801561080457600080fd5b505af1158015610818573d6000803e3d6000fd5b50505050565b606b54600160a01b900461ffff1681565b60008061083e86863387611358565b6000818152606c602052604090205490915060ff161561088f5760405162461bcd60e51b815260040180806020018281038252602181526020018061291e6021913960400191505060405180910390fd5b610899818461173c565b6109d35761094f604051806060016040528060238152602001612730602391396108c288611999565b6040518060400160405280600a8152602001690161030b6b7bab73a1d160b51b8152506108ee89611b07565b6040518060400160405280600e81526020016d0161036b9b39739b2b73232b91d160951b81525061091e33611bc8565b6040518060400160405280600a815260200169016102fb72430b9b41d160b51b81525061094a8c611999565b611d3b565b60405162461bcd60e51b81526004018080602001828103825283818151815260200191508051906020019080838360005b83811015610998578181015183820152602001610980565b50505050905090810190601f1680156109c55780820380516001836020036101000a031916815260200191505b509250505060405180910390fd5b6000818152606c60209081526040808320805460ff1916600117905560695481516350b9d97b60e11b8152600481018a905291516001600160a01b039091169263a173b2f69260248082019391829003018186803b158015610a3457600080fd5b505afa158015610a48573d6000803e3d6000fd5b505050506040513d6020811015610a5e57600080fd5b5051606b54909150600090610a939061271090610a87908590600160a01b900461ffff16611fb8565b9063ffffffff61201816565b90506000610ae1826040518060400160405280601b81526020017f476174657761793a20666565206578636565647320616d6f756e7400000000008152508561205a9092919063ffffffff16565b606954604080516340c10f1960e01b81523360048201526024810184905290519293506001600160a01b03909116916340c10f199160448082019260009290919082900301818387803b158015610b3757600080fd5b505af1158015610b4b573d6000803e3d6000fd5b5050606954606b54604080516340c10f1960e01b81526001600160a01b0392831660048201526024810188905290519190921693506340c10f199250604480830192600092919082900301818387803b158015610ba757600080fd5b505af1158015610bbb573d6000803e3d6000fd5b5050606954604080516375a1c7e160e11b8152600481018690529051600094506001600160a01b03909216925063eb438fc2916024808301926020929190829003018186803b158015610c0d57600080fd5b505afa158015610c21573d6000803e3d6000fd5b505050506040513d6020811015610c3757600080fd5b5051606d54604080518381529051929350879233917fa58ba939eb08dab7eaf8ad09c16e7405ee88e5153e15da62d5481296a9f727fa919081900360200190a450606d8054600101905598975050505050505050565b610c9561152f565b610cd4576040805162461bcd60e51b81526020600482018190526024820152600080516020612884833981519152604482015290519081900360640190fd5b6001600160a01b03811660009081526067602052604090205460ff1615610d2c5760405162461bcd60e51b815260040180806020018281038252602a815260200180612753602a913960400191505060405180910390fd5b6001600160a01b038116610d6c5760405133904780156108fc02916000818181858888f19350505050158015610d66573d6000803e3d6000fd5b50610dfb565b604080516370a0823160e01b81523060048201529051610dfb9133916001600160a01b038516916370a08231916024808301926020929190829003018186803b158015610db857600080fd5b505afa158015610dcc573d6000803e3d6000fd5b505050506040513d6020811015610de257600080fd5b50516001600160a01b038416919063ffffffff6120b416565b50565b610e0661152f565b610e45576040805162461bcd60e51b81526020600482018190526024820152600080516020612884833981519152604482015290519081900360640190fd5b6069546040805163f2fde38b60e01b81526001600160a01b0384811660048301529151919092169163f2fde38b91602480830192600092919082900301818387803b158015610e9357600080fd5b505af1158015610ea7573d6000803e3d6000fd5b50505050806001600160a01b03166310731a656040518163ffffffff1660e01b8152600401600060405180830381600087803b158015610ee657600080fd5b505af1158015610efa573d6000803e3d6000fd5b5050505050565b6000825160001415610f5a576040805162461bcd60e51b815260206004820152601c60248201527f476174657761793a20746f206164647265737320697320656d70747900000000604482015290519081900360640190fd5b606b54600090610f7e9061271090610a87908690600160b01b900461ffff16611fb8565b90506000610fcc826040518060400160405280601b81526020017f476174657761793a20666565206578636565647320616d6f756e7400000000008152508661205a9092919063ffffffff16565b606954604080516375a1c7e160e11b81526004810184905290519293506000926001600160a01b039092169163eb438fc291602480820192602092909190829003018186803b15801561101e57600080fd5b505afa158015611032573d6000803e3d6000fd5b505050506040513d602081101561104857600080fd5b505160695460408051632770a7eb60e21b81523360048201526024810189905290519293506001600160a01b0390911691639dc29fac9160448082019260009290919082900301818387803b1580156110a057600080fd5b505af11580156110b4573d6000803e3d6000fd5b5050606954606b54604080516340c10f1960e01b81526001600160a01b0392831660048201526024810189905290519190921693506340c10f199250604480830192600092919082900301818387803b15801561111057600080fd5b505af1158015611124573d6000803e3d6000fd5b5050505060685481116111685760405162461bcd60e51b81526004018080602001828103825260348152602001806127af6034913960400191505060405180910390fd5b856040518082805190602001908083835b602083106111985780518252601f199092019160209182019101611179565b6001836020036101000a0380198251168184511680821785525050505050509050019150506040518091039020606d547f1619fc95050ffb8c94c9077c82b3e1ebbf8d571b6234241c55ba0aaf40da019e88846040518080602001838152602001828103825284818151815260200191508051906020019080838360005b8381101561122e578181015183820152602001611216565b50505050905090810190601f16801561125b5780820380516001836020036101000a031916815260200191505b50935050505060405180910390a3606d80546001019055925050505b92915050565b61128561152f565b6112c4576040805162461bcd60e51b81526020600482018190526024820152600080516020612884833981519152604482015290519081900360640190fd5b606855565b606b546001600160a01b031681565b6066546001600160a01b03166112ec61210b565b6001600160a01b0316146113315760405162461bcd60e51b815260040180806020018281038252602a8152602001806128d2602a913960400191505060405180910390fd5b606654611346906001600160a01b031661210f565b606680546001600160a01b0319169055565b60695460408051602080820197909752808201959095526001600160a01b0391821660608601529216608084015260a0808401919091528151808403909101815260c09092019052805191012090565b606c6020526000908152604090205460ff1681565b6113c561152f565b611404576040805162461bcd60e51b81526020600482018190526024820152600080516020612884833981519152604482015290519081900360640190fd5b606b805461ffff909216600160b01b0261ffff60b01b19909216919091179055565b61142e61152f565b61146d576040805162461bcd60e51b81526020600482018190526024820152600080516020612884833981519152604482015290519081900360640190fd5b606b805461ffff909216600160a01b0261ffff60a01b19909216919091179055565b61149761152f565b6114d6576040805162461bcd60e51b81526020600482018190526024820152600080516020612884833981519152604482015290519081900360640190fd5b6033546040516000916001600160a01b0316907f8be0079c531659141344cd1fd0a4f28419497f9722a3daafe3b4186f6b6457e0908390a3603380546001600160a01b0319169055565b6033546001600160a01b031690565b6033546000906001600160a01b031661154661210b565b6001600160a01b031614905090565b606a546001600160a01b031681565b60685481565b600054610100900460ff168061158357506115836121b0565b80611591575060005460ff16155b6115cc5760405162461bcd60e51b815260040180806020018281038252602e8152602001806128a4602e913960400191505060405180910390fd5b600054610100900460ff161580156115f7576000805460ff1961ff0019909116610100171660011790555b611600336121b6565b61160933611690565b6068829055606980546001600160a01b0389166001600160a01b0319909116179055606b805461ffff858116600160b01b0261ffff60b01b19918816600160a01b0261ffff60a01b199093169290921716179055611666856106b3565b61166f8661176f565b8015611681576000805461ff00191690555b50505050505050565b606d5481565b600054610100900460ff16806116a957506116a96121b0565b806116b7575060005460ff16155b6116f25760405162461bcd60e51b815260040180806020018281038252602e8152602001806128a4602e913960400191505060405180910390fd5b600054610100900460ff1615801561171d576000805460ff1961ff0019909116610100171660011790555b611726826121b6565b8015611738576000805461ff00191690555b5050565b6000611748838361224c565b606a546001600160a01b039182169116149392505050565b6066546001600160a01b031681565b61177761152f565b6117b6576040805162461bcd60e51b81526020600482018190526024820152600080516020612884833981519152604482015290519081900360640190fd5b6001600160a01b0381166117fb5760405162461bcd60e51b815260040180806020018281038252602481526020018061283f6024913960400191505060405180910390fd5b606b80546001600160a01b0319166001600160a01b0392909216919091179055565b61182561152f565b611864576040805162461bcd60e51b81526020600482018190526024820152600080516020612884833981519152604482015290519081900360640190fd5b61186c611520565b6001600160a01b0316816001600160a01b03161415801561189b57506066546001600160a01b03828116911614155b6118ec576040805162461bcd60e51b815260206004820152601c60248201527f436c61696d61626c653a20696e76616c6964206e6577206f776e657200000000604482015290519081900360640190fd5b606680546001600160a01b0319166001600160a01b0392909216919091179055565b61191661152f565b611955576040805162461bcd60e51b81526020600482018190526024820152600080516020612884833981519152604482015290519081900360640190fd5b6001600160a01b03166000908152606760205260409020805460ff19166001179055565b6069546001600160a01b031681565b606b54600160b01b900461ffff1681565b604080518082018252601081526f181899199a1a9b1b9c1cb0b131b232b360811b60208201528151604280825260808201909352606092839190602082018180388339019050509050600360fc1b816000815181106119f457fe5b60200101906001600160f81b031916908160001a905350600f60fb1b81600181518110611a1d57fe5b60200101906001600160f81b031916908160001a90535060005b6020811015611afd57826004868360208110611a4f57fe5b1a60f81b6001600160f81b031916901c60f81c60ff1681518110611a6f57fe5b602001015160f81c60f81b828260020260020181518110611a8c57fe5b60200101906001600160f81b031916908160001a90535082858260208110611ab057fe5b825191901a600f16908110611ac157fe5b602001015160f81c60f81b828260020260030181518110611ade57fe5b60200101906001600160f81b031916908160001a905350600101611a37565b509150505b919050565b606081611b2c57506040805180820190915260018152600360fc1b6020820152611b02565b8160005b8115611b4457600101600a82049150611b30565b6060816040519080825280601f01601f191660200182016040528015611b71576020820181803883390190505b50905060001982015b8515611bbf57600a860660300160f81b82828060019003935081518110611b9d57fe5b60200101906001600160f81b031916908160001a905350600a86049550611b7a565b50949350505050565b604080518082018252601081526f181899199a1a9b1b9c1cb0b131b232b360811b60208201528151602a80825260608281019094526001600160a01b03851692918491602082018180388339019050509050600360fc1b81600081518110611c2c57fe5b60200101906001600160f81b031916908160001a905350600f60fb1b81600181518110611c5557fe5b60200101906001600160f81b031916908160001a90535060005b6014811015611bbf578260048583600c0160208110611c8a57fe5b1a60f81b6001600160f81b031916901c60f81c60ff1681518110611caa57fe5b602001015160f81c60f81b828260020260020181518110611cc757fe5b60200101906001600160f81b031916908160001a905350828482600c0160208110611cee57fe5b825191901a600f16908110611cff57fe5b602001015160f81c60f81b828260020260030181518110611d1c57fe5b60200101906001600160f81b031916908160001a905350600101611c6f565b606088888888888888886040516020018089805190602001908083835b60208310611d775780518252601f199092019160209182019101611d58565b51815160209384036101000a60001901801990921691161790528b5191909301928b0191508083835b60208310611dbf5780518252601f199092019160209182019101611da0565b51815160209384036101000a60001901801990921691161790528a5191909301928a0191508083835b60208310611e075780518252601f199092019160209182019101611de8565b51815160209384036101000a600019018019909216911617905289519190930192890191508083835b60208310611e4f5780518252601f199092019160209182019101611e30565b51815160209384036101000a600019018019909216911617905288519190930192880191508083835b60208310611e975780518252601f199092019160209182019101611e78565b51815160209384036101000a600019018019909216911617905287519190930192870191508083835b60208310611edf5780518252601f199092019160209182019101611ec0565b51815160209384036101000a600019018019909216911617905286519190930192860191508083835b60208310611f275780518252601f199092019160209182019101611f08565b51815160209384036101000a600019018019909216911617905285519190930192850191508083835b60208310611f6f5780518252601f199092019160209182019101611f50565b6001836020036101000a03801982511681845116808217855250505050505090500198505050505050505050604051602081830303815290604052905098975050505050505050565b600082611fc757506000611277565b82820282848281611fd457fe5b04146120115760405162461bcd60e51b81526004018080602001828103825260218152602001806128636021913960400191505060405180910390fd5b9392505050565b600061201183836040518060400160405280601a81526020017f536166654d6174683a206469766973696f6e206279207a65726f0000000000008152506123bf565b600081848411156120ac5760405162461bcd60e51b8152602060048201818152835160248401528351909283926044909101919085019080838360008315610998578181015183820152602001610980565b505050900390565b604080516001600160a01b038416602482015260448082018490528251808303909101815260649091019091526020810180516001600160e01b031663a9059cbb60e01b179052612106908490612424565b505050565b3390565b6001600160a01b0381166121545760405162461bcd60e51b815260040180806020018281038252602681526020018061270a6026913960400191505060405180910390fd5b6033546040516001600160a01b038084169216907f8be0079c531659141344cd1fd0a4f28419497f9722a3daafe3b4186f6b6457e090600090a3603380546001600160a01b0319166001600160a01b0392909216919091179055565b303b1590565b600054610100900460ff16806121cf57506121cf6121b0565b806121dd575060005460ff16155b6122185760405162461bcd60e51b815260040180806020018281038252602e8152602001806128a4602e913960400191505060405180910390fd5b600054610100900460ff16158015612243576000805460ff1961ff0019909116610100171660011790555b611726826125dc565b6000815160411461228e5760405162461bcd60e51b81526004018080602001828103825260228152602001806128fc6022913960400191505060405180910390fd5b60208201516040830151606084015160001a7f7fffffffffffffffffffffffffffffff5d576e7357a4501ddfe92f46681b20a08211156122ff5760405162461bcd60e51b815260040180806020018281038252602881526020018061293f6028913960400191505060405180910390fd5b8060ff16601b1415801561231757508060ff16601c14155b156123535760405162461bcd60e51b81526004018080602001828103825260288152602001806128176028913960400191505060405180910390fd5b6040805160008152602080820180845289905260ff8416828401526060820186905260808201859052915160019260a0808401939192601f1981019281900390910190855afa1580156123aa573d6000803e3d6000fd5b5050604051601f190151979650505050505050565b6000818361240e5760405162461bcd60e51b8152602060048201818152835160248401528351909283926044909101919085019080838360008315610998578181015183820152602001610980565b50600083858161241a57fe5b0495945050505050565b612436826001600160a01b03166126cd565b612487576040805162461bcd60e51b815260206004820152601f60248201527f5361666545524332303a2063616c6c20746f206e6f6e2d636f6e747261637400604482015290519081900360640190fd5b60006060836001600160a01b0316836040518082805190602001908083835b602083106124c55780518252601f1990920191602091820191016124a6565b6001836020036101000a0380198251168184511680821785525050505050509050019150506000604051808303816000865af19150503d8060008114612527576040519150601f19603f3d011682016040523d82523d6000602084013e61252c565b606091505b509150915081612583576040805162461bcd60e51b815260206004820181905260248201527f5361666545524332303a206c6f772d6c6576656c2063616c6c206661696c6564604482015290519081900360640190fd5b8051156108185780806020019051602081101561259f57600080fd5b50516108185760405162461bcd60e51b815260040180806020018281038252602a815260200180612967602a913960400191505060405180910390fd5b600054610100900460ff16806125f557506125f56121b0565b80612603575060005460ff16155b61263e5760405162461bcd60e51b815260040180806020018281038252602e8152602001806128a4602e913960400191505060405180910390fd5b600054610100900460ff16158015612669576000805460ff1961ff0019909116610100171660011790555b603380546001600160a01b0319166001600160a01b0384811691909117918290556040519116906000907f8be0079c531659141344cd1fd0a4f28419497f9722a3daafe3b4186f6b6457e0908290a38015611738576000805461ff00191690555050565b6000813f7fc5d2460186f7233c927e7db2dcc703c0e500b653ca82273b7bfad8045d85a47081158015906127015750808214155b94935050505056fe4f776e61626c653a206e6577206f776e657220697320746865207a65726f2061646472657373476174657761793a20696e76616c6964207369676e61747572652e2070486173683a2043616e5265636c61696d546f6b656e733a20746f6b656e206973206e6f74207265636f76657261626c65476174657761793a2063616c6c6572206973206e6f7420746865206f776e6572206f72206d696e7420617574686f72697479476174657761793a20616d6f756e74206973206c657373207468616e20746865206d696e696d756d206275726e20616d6f756e74476174657761793a206d696e74417574686f726974792063616e6e6f742062652073657420746f2061646472657373207a65726f45434453413a207369676e61747572652e7620697320696e207468652077726f6e672072616e6765476174657761793a2066656520726563697069656e742063616e6e6f7420626520307830536166654d6174683a206d756c7469706c69636174696f6e206f766572666c6f774f776e61626c653a2063616c6c6572206973206e6f7420746865206f776e6572436f6e747261637420696e7374616e63652068617320616c7265616479206265656e20696e697469616c697a6564436c61696d61626c653a2063616c6c6572206973206e6f74207468652070656e64696e67206f776e657245434453413a207369676e6174757265206c656e67746820697320696e76616c6964476174657761793a206e6f6e6365206861736820616c7265616479207370656e7445434453413a207369676e61747572652e7320697320696e207468652077726f6e672072616e67655361666545524332303a204552433230206f7065726174696f6e20646964206e6f742073756363656564a265627a7a72315820a382da80064078bf2e75abc57b45a4f13e860cb3d41caeab9dd51e476bce30b764736f6c63430005100032",
  "source": "pragma solidity 0.5.16;\n\nimport \"@openzeppelin/upgrades/contracts/Initializable.sol\";\nimport \"@openzeppelin/contracts-ethereum-package/contracts/math/SafeMath.sol\";\nimport \"@openzeppelin/contracts-ethereum-package/contracts/cryptography/ECDSA.sol\";\nimport \"@openzeppelin/upgrades/contracts/upgradeability/InitializableAdminUpgradeabilityProxy.sol\";\n\nimport \"../Governance/Claimable.sol\";\nimport \"../libraries/String.sol\";\nimport \"./RenERC20.sol\";\nimport \"./interfaces/IGateway.sol\";\nimport \"../libraries/CanReclaimTokens.sol\";\n\ncontract GatewayStateV1 {\n    uint256 constant BIPS_DENOMINATOR = 10000;\n    uint256 public minimumBurnAmount;\n\n    /// @notice Each Gateway is tied to a specific RenERC20 token.\n    RenERC20LogicV1 public token;\n\n    /// @notice The mintAuthority is an address that can sign mint requests.\n    address public mintAuthority;\n\n    /// @dev feeRecipient is assumed to be an address (or a contract) that can\n    /// accept erc20 payments it cannot be 0x0.\n    /// @notice When tokens are mint or burnt, a portion of the tokens are\n    /// forwarded to a fee recipient.\n    address public feeRecipient;\n\n    /// @notice The mint fee in bips.\n    uint16 public mintFee;\n\n    /// @notice The burn fee in bips.\n    uint16 public burnFee;\n\n    /// @notice Each signature can only be seen once.\n    mapping(bytes32 => bool) public status;\n\n    // LogMint and LogBurn contain a unique `n` that identifies\n    // the mint or burn event.\n    uint256 public nextN = 0;\n}\n\n/// @notice Gateway handles verifying mint and burn requests. A mintAuthority\n/// approves new assets to be minted by providing a digital signature. An owner\n/// of an asset can request for it to be burnt.\ncontract GatewayLogicV1 is\n    Initializable,\n    Claimable,\n    CanReclaimTokens,\n    IGateway,\n    GatewayStateV1\n{\n    using SafeMath for uint256;\n\n    event LogMintAuthorityUpdated(address indexed _newMintAuthority);\n    event LogMint(\n        address indexed _to,\n        uint256 _amount,\n        uint256 indexed _n,\n        bytes32 indexed _signedMessageHash\n    );\n    event LogBurn(\n        bytes _to,\n        uint256 _amount,\n        uint256 indexed _n,\n        bytes indexed _indexedTo\n    );\n\n    /// @notice Only allow the Darknode Payment contract.\n    modifier onlyOwnerOrMintAuthority() {\n        require(\n            msg.sender == mintAuthority || msg.sender == owner(),\n            \"Gateway: caller is not the owner or mint authority\"\n        );\n        _;\n    }\n\n    /// @param _token The RenERC20 this Gateway is responsible for.\n    /// @param _feeRecipient The recipient of burning and minting fees.\n    /// @param _mintAuthority The address of the key that can sign mint\n    ///        requests.\n    /// @param _mintFee The amount subtracted each mint request and\n    ///        forwarded to the feeRecipient. In BIPS.\n    /// @param _burnFee The amount subtracted each burn request and\n    ///        forwarded to the feeRecipient. In BIPS.\n    function initialize(\n        RenERC20LogicV1 _token,\n        address _feeRecipient,\n        address _mintAuthority,\n        uint16 _mintFee,\n        uint16 _burnFee,\n        uint256 _minimumBurnAmount\n    ) public initializer {\n        Claimable.initialize(msg.sender);\n        CanReclaimTokens.initialize(msg.sender);\n        minimumBurnAmount = _minimumBurnAmount;\n        token = _token;\n        mintFee = _mintFee;\n        burnFee = _burnFee;\n        updateMintAuthority(_mintAuthority);\n        updateFeeRecipient(_feeRecipient);\n    }\n\n    // Public functions ////////////////////////////////////////////////////////\n\n    /// @notice Claims ownership of the token passed in to the constructor.\n    /// `transferStoreOwnership` must have previously been called.\n    /// Anyone can call this function.\n    function claimTokenOwnership() public {\n        token.claimOwnership();\n    }\n\n    /// @notice Allow the owner to update the owner of the RenERC20 token.\n    function transferTokenOwnership(GatewayLogicV1 _nextTokenOwner)\n        public\n        onlyOwner\n    {\n        token.transferOwnership(address(_nextTokenOwner));\n        _nextTokenOwner.claimTokenOwnership();\n    }\n\n    /// @notice Allow the owner to update the fee recipient.\n    ///\n    /// @param _nextMintAuthority The address to start paying fees to.\n    function updateMintAuthority(address _nextMintAuthority)\n        public\n        onlyOwnerOrMintAuthority\n    {\n        // The mint authority should not be set to 0, which is the result\n        // returned by ecrecover for an invalid signature.\n        require(\n            _nextMintAuthority != address(0),\n            \"Gateway: mintAuthority cannot be set to address zero\"\n        );\n        mintAuthority = _nextMintAuthority;\n        emit LogMintAuthorityUpdated(mintAuthority);\n    }\n\n    /// @notice Allow the owner to update the minimum burn amount.\n    ///\n    /// @param _minimumBurnAmount The new min burn amount.\n    function updateMinimumBurnAmount(uint256 _minimumBurnAmount)\n        public\n        onlyOwner\n    {\n        minimumBurnAmount = _minimumBurnAmount;\n    }\n\n    /// @notice Allow the owner to update the fee recipient.\n    ///\n    /// @param _nextFeeRecipient The address to start paying fees to.\n    function updateFeeRecipient(address _nextFeeRecipient) public onlyOwner {\n        // 'mint' and 'burn' will fail if the feeRecipient is 0x0\n        require(\n            _nextFeeRecipient != address(0x0),\n            \"Gateway: fee recipient cannot be 0x0\"\n        );\n\n        feeRecipient = _nextFeeRecipient;\n    }\n\n    /// @notice Allow the owner to update the 'mint' fee.\n    ///\n    /// @param _nextMintFee The new fee for minting and burning.\n    function updateMintFee(uint16 _nextMintFee) public onlyOwner {\n        mintFee = _nextMintFee;\n    }\n\n    /// @notice Allow the owner to update the burn fee.\n    ///\n    /// @param _nextBurnFee The new fee for minting and burning.\n    function updateBurnFee(uint16 _nextBurnFee) public onlyOwner {\n        burnFee = _nextBurnFee;\n    }\n\n    /// @notice mint verifies a mint approval signature from RenVM and creates\n    ///         tokens after taking a fee for the `_feeRecipient`.\n    ///\n    /// @param _pHash (payload hash) The hash of the payload associated with the\n    ///        mint.\n    /// @param _amountUnderlying The amount of the token being minted, in its smallest\n    ///        value. (e.g. satoshis for BTC).\n    /// @param _nHash (nonce hash) The hash of the nonce, amount and pHash.\n    /// @param _sig The signature of the hash of the following values:\n    ///        (pHash, amount, msg.sender, nHash), signed by the mintAuthority.\n    function mint(\n        bytes32 _pHash,\n        uint256 _amountUnderlying,\n        bytes32 _nHash,\n        bytes memory _sig\n    ) public returns (uint256) {\n        // Verify signature\n        bytes32 signedMessageHash = hashForSignature(\n            _pHash,\n            _amountUnderlying,\n            msg.sender,\n            _nHash\n        );\n        require(\n            status[signedMessageHash] == false,\n            \"Gateway: nonce hash already spent\"\n        );\n        if (!verifySignature(signedMessageHash, _sig)) {\n            // Return a detailed string containing the hash and recovered\n            // signer. This is somewhat costly but is only run in the revert\n            // branch.\n            revert(\n                String.add8(\n                    \"Gateway: invalid signature. pHash: \",\n                    String.fromBytes32(_pHash),\n                    \", amount: \",\n                    String.fromUint(_amountUnderlying),\n                    \", msg.sender: \",\n                    String.fromAddress(msg.sender),\n                    \", _nHash: \",\n                    String.fromBytes32(_nHash)\n                )\n            );\n        }\n        status[signedMessageHash] = true;\n\n        uint256 amountScaled = token.fromUnderlying(_amountUnderlying);\n\n        // Mint `amount - fee` for the recipient and mint `fee` for the minter\n        uint256 absoluteFeeScaled = amountScaled.mul(mintFee).div(\n            BIPS_DENOMINATOR\n        );\n        uint256 receivedAmountScaled = amountScaled.sub(\n            absoluteFeeScaled,\n            \"Gateway: fee exceeds amount\"\n        );\n\n        // Mint amount minus the fee\n        token.mint(msg.sender, receivedAmountScaled);\n        // Mint the fee\n        token.mint(feeRecipient, absoluteFeeScaled);\n\n        // Emit a log with a unique identifier 'n'.\n        uint256 receivedAmountUnderlying = token.toUnderlying(\n            receivedAmountScaled\n        );\n        emit LogMint(\n            msg.sender,\n            receivedAmountUnderlying,\n            nextN,\n            signedMessageHash\n        );\n        nextN += 1;\n\n        return receivedAmountScaled;\n    }\n\n    /// @notice burn destroys tokens after taking a fee for the `_feeRecipient`,\n    ///         allowing the associated assets to be released on their native\n    ///         chain.\n    ///\n    /// @param _to The address to receive the un-bridged asset. The format of\n    ///        this address should be of the destination chain.\n    ///        For example, when burning to Bitcoin, _to should be a\n    ///        Bitcoin address.\n    /// @param _amount The amount of the token being burnt, in its\n    ///        smallest value. (e.g. satoshis for BTC)\n    function burn(bytes memory _to, uint256 _amount) public returns (uint256) {\n        // The recipient must not be empty. Better validation is possible,\n        // but would need to be customized for each destination ledger.\n        require(_to.length != 0, \"Gateway: to address is empty\");\n\n        // Calculate fee, subtract it from amount being burnt.\n        uint256 fee = _amount.mul(burnFee).div(BIPS_DENOMINATOR);\n        uint256 amountAfterFee = _amount.sub(\n            fee,\n            \"Gateway: fee exceeds amount\"\n        );\n\n        // If the scaled token can represent more precision than the underlying\n        // token, the difference is lost. This won't exceed 1 sat, so is\n        // negligible compared to burning and transaction fees.\n        uint256 amountAfterFeeUnderlying = token.toUnderlying(amountAfterFee);\n\n        // Burn the whole amount, and then re-mint the fee.\n        token.burn(msg.sender, _amount);\n        token.mint(feeRecipient, fee);\n\n        require(\n            // Must be strictly greater, to that the release transaction is of\n            // at least one unit.\n            amountAfterFeeUnderlying > minimumBurnAmount,\n            \"Gateway: amount is less than the minimum burn amount\"\n        );\n\n        emit LogBurn(_to, amountAfterFeeUnderlying, nextN, _to);\n        nextN += 1;\n\n        return amountAfterFeeUnderlying;\n    }\n\n    /// @notice verifySignature checks the the provided signature matches the provided\n    /// parameters.\n    function verifySignature(bytes32 _signedMessageHash, bytes memory _sig)\n        public\n        view\n        returns (bool)\n    {\n        return mintAuthority == ECDSA.recover(_signedMessageHash, _sig);\n    }\n\n    /// @notice hashForSignature hashes the parameters so that they can be signed.\n    function hashForSignature(\n        bytes32 _pHash,\n        uint256 _amount,\n        address _to,\n        bytes32 _nHash\n    ) public view returns (bytes32) {\n        return\n            keccak256(abi.encode(_pHash, _amount, address(token), _to, _nHash));\n    }\n}\n\n/* solium-disable-next-line no-empty-blocks */\n// contract GatewayProxy is InitializableAdminUpgradeabilityProxy {}\n\n/// @dev The following duplicates are not necessary for deploying BTCGateway or\n/// ZECGateway contracts, but are used to track deployments.\n\n/* solium-disable-next-line no-empty-blocks */\ncontract BTCGateway is InitializableAdminUpgradeabilityProxy {}\n\n/* solium-disable-next-line no-empty-blocks */\ncontract ZECGateway is InitializableAdminUpgradeabilityProxy {}\n\n/* solium-disable-next-line no-empty-blocks */\ncontract BCHGateway is InitializableAdminUpgradeabilityProxy {}\n",
  "sourcePath": "/home/noah/github/renproject/ren-sol/contracts/Gateway/Gateway.sol",
  "compiler": {
    "name": "solc",
    "version": "0.5.16+commit.9c3226ce.Emscripten.clang"
  },
  "schemaVersion": "3.0.23",
  "updatedAt": "2020-03-30T04:17:17.167Z",
  "networkType": "ethereum",
  "devdoc": {
    "methods": {
      "burn(bytes,uint256)": {
        "params": {
          "_amount": "The amount of the token being burnt, in its        smallest value. (e.g. satoshis for BTC)",
          "_to": "The address to receive the un-bridged asset. The format of        this address should be of the destination chain.        For example, when burning to Bitcoin, _to should be a        Bitcoin address."
        }
      },
      "initialize(address,address,address,uint16,uint16,uint256)": {
        "params": {
          "_burnFee": "The amount subtracted each burn request and        forwarded to the feeRecipient. In BIPS.",
          "_feeRecipient": "The recipient of burning and minting fees.",
          "_mintAuthority": "The address of the key that can sign mint        requests.",
          "_mintFee": "The amount subtracted each mint request and        forwarded to the feeRecipient. In BIPS.",
          "_token": "The RenERC20 this Gateway is responsible for."
        }
      },
      "isOwner()": {
        "details": "Returns true if the caller is the current owner."
      },
      "mint(bytes32,uint256,bytes32,bytes)": {
        "params": {
          "_amountUnderlying": "The amount of the token being minted, in its smallest        value. (e.g. satoshis for BTC).",
          "_nHash": "(nonce hash) The hash of the nonce, amount and pHash.",
          "_pHash": "(payload hash) The hash of the payload associated with the        mint.",
          "_sig": "The signature of the hash of the following values:        (pHash, amount, msg.sender, nHash), signed by the mintAuthority."
        }
      },
      "owner()": {
        "details": "Returns the address of the current owner."
      },
      "renounceOwnership()": {
        "details": "Leaves the contract without owner. It will not be possible to call `onlyOwner` functions anymore. Can only be called by the current owner.     * > Note: Renouncing ownership will leave the contract without an owner, thereby removing any functionality that is only available to the owner."
      },
      "updateBurnFee(uint16)": {
        "params": {
          "_nextBurnFee": "The new fee for minting and burning."
        }
      },
      "updateFeeRecipient(address)": {
        "params": {
          "_nextFeeRecipient": "The address to start paying fees to."
        }
      },
      "updateMinimumBurnAmount(uint256)": {
        "params": {
          "_minimumBurnAmount": "The new min burn amount."
        }
      },
      "updateMintAuthority(address)": {
        "params": {
          "_nextMintAuthority": "The address to start paying fees to."
        }
      },
      "updateMintFee(uint16)": {
        "params": {
          "_nextMintFee": "The new fee for minting and burning."
        }
      }
    }
  },
  "userdoc": {
    "methods": {
      "burn(bytes,uint256)": {
        "notice": "burn destroys tokens after taking a fee for the `_feeRecipient`,         allowing the associated assets to be released on their native         chain. "
      },
      "claimTokenOwnership()": {
        "notice": "Claims ownership of the token passed in to the constructor. `transferStoreOwnership` must have previously been called. Anyone can call this function."
      },
      "hashForSignature(bytes32,uint256,address,bytes32)": {
        "notice": "hashForSignature hashes the parameters so that they can be signed."
      },
      "mint(bytes32,uint256,bytes32,bytes)": {
        "notice": "mint verifies a mint approval signature from RenVM and creates         tokens after taking a fee for the `_feeRecipient`. "
      },
      "recoverTokens(address)": {
        "notice": "Allow the owner of the contract to recover funds accidentally sent to the contract. To withdraw ETH, the token should be set to `0x0`."
      },
      "transferTokenOwnership(address)": {
        "notice": "Allow the owner to update the owner of the RenERC20 token."
      },
      "updateBurnFee(uint16)": {
        "notice": "Allow the owner to update the burn fee. "
      },
      "updateFeeRecipient(address)": {
        "notice": "Allow the owner to update the fee recipient. "
      },
      "updateMinimumBurnAmount(uint256)": {
        "notice": "Allow the owner to update the minimum burn amount. "
      },
      "updateMintAuthority(address)": {
        "notice": "Allow the owner to update the fee recipient. "
      },
      "updateMintFee(uint16)": {
        "notice": "Allow the owner to update the 'mint' fee. "
      },
      "verifySignature(bytes32,bytes)": {
        "notice": "verifySignature checks the the provided signature matches the provided parameters."
      }
    },
    "notice": "Gateway handles verifying mint and burn requests. A mintAuthority approves new assets to be minted by providing a digital signature. An owner of an asset can request for it to be burnt."
  }
}