{
  "contractName": "ProtocolProxy",
  "abi": [
    {
      "anonymous": false,
      "inputs": [
        {
          "indexed": false,
          "internalType": "address",
          "name": "previousAdmin",
          "type": "address"
        },
        {
          "indexed": false,
          "internalType": "address",
          "name": "newAdmin",
          "type": "address"
        }
      ],
      "name": "AdminChanged",
      "type": "event"
    },
    {
      "anonymous": false,
      "inputs": [
        {
          "indexed": true,
          "internalType": "address",
          "name": "implementation",
          "type": "address"
        }
      ],
      "name": "Upgraded",
      "type": "event"
    },
    {
      "payable": true,
      "stateMutability": "payable",
      "type": "fallback"
    },
    {
      "constant": false,
      "inputs": [],
      "name": "admin",
      "outputs": [
        {
          "internalType": "address",
          "name": "",
          "type": "address"
        }
      ],
      "payable": false,
      "stateMutability": "nonpayable",
      "type": "function"
    },
    {
      "constant": false,
      "inputs": [
        {
          "internalType": "address",
          "name": "newAdmin",
          "type": "address"
        }
      ],
      "name": "changeAdmin",
      "outputs": [],
      "payable": false,
      "stateMutability": "nonpayable",
      "type": "function"
    },
    {
      "constant": false,
      "inputs": [],
      "name": "implementation",
      "outputs": [
        {
          "internalType": "address",
          "name": "",
          "type": "address"
        }
      ],
      "payable": false,
      "stateMutability": "nonpayable",
      "type": "function"
    },
    {
      "constant": false,
      "inputs": [
        {
          "internalType": "address",
          "name": "_logic",
          "type": "address"
        },
        {
          "internalType": "address",
          "name": "_admin",
          "type": "address"
        },
        {
          "internalType": "bytes",
          "name": "_data",
          "type": "bytes"
        }
      ],
      "name": "initialize",
      "outputs": [],
      "payable": true,
      "stateMutability": "payable",
      "type": "function"
    },
    {
      "constant": false,
      "inputs": [
        {
          "internalType": "address",
          "name": "_logic",
          "type": "address"
        },
        {
          "internalType": "bytes",
          "name": "_data",
          "type": "bytes"
        }
      ],
      "name": "initialize",
      "outputs": [],
      "payable": true,
      "stateMutability": "payable",
      "type": "function"
    },
    {
      "constant": false,
      "inputs": [
        {
          "internalType": "address",
          "name": "newImplementation",
          "type": "address"
        }
      ],
      "name": "upgradeTo",
      "outputs": [],
      "payable": false,
      "stateMutability": "nonpayable",
      "type": "function"
    },
    {
      "constant": false,
      "inputs": [
        {
          "internalType": "address",
          "name": "newImplementation",
          "type": "address"
        },
        {
          "internalType": "bytes",
          "name": "data",
          "type": "bytes"
        }
      ],
      "name": "upgradeToAndCall",
      "outputs": [],
      "payable": true,
      "stateMutability": "payable",
      "type": "function"
    }
  ],
  "bytecode": "0x608060405234801561001057600080fd5b5061097c806100206000396000f3fe6080604052600436106100705760003560e01c80638f2839701161004e5780638f2839701461015e578063cf7a1d7714610191578063d1f5789414610250578063f851a4401461030657610070565b80633659cfe61461007a5780634f1ef286146100ad5780635c60da1b1461012d575b61007861031b565b005b34801561008657600080fd5b506100786004803603602081101561009d57600080fd5b50356001600160a01b0316610335565b610078600480360360408110156100c357600080fd5b6001600160a01b0382351691908101906040810160208201356401000000008111156100ee57600080fd5b82018360208201111561010057600080fd5b8035906020019184600183028401116401000000008311171561012257600080fd5b50909250905061036f565b34801561013957600080fd5b5061014261041c565b604080516001600160a01b039092168252519081900360200190f35b34801561016a57600080fd5b506100786004803603602081101561018157600080fd5b50356001600160a01b0316610459565b610078600480360360608110156101a757600080fd5b6001600160a01b0382358116926020810135909116918101906060810160408201356401000000008111156101db57600080fd5b8201836020820111156101ed57600080fd5b8035906020019184600183028401116401000000008311171561020f57600080fd5b91908080601f016020809104026020016040519081016040528093929190818152602001838380828437600092019190915250929550610513945050505050565b6100786004803603604081101561026657600080fd5b6001600160a01b03823516919081019060408101602082013564010000000081111561029157600080fd5b8201836020820111156102a357600080fd5b803590602001918460018302840111640100000000831117156102c557600080fd5b91908080601f016020809104026020016040519081016040528093929190818152602001838380828437600092019190915250929550610599945050505050565b34801561031257600080fd5b506101426106d9565b610323610704565b61033361032e610764565b610789565b565b61033d6107ad565b6001600160a01b0316336001600160a01b031614156103645761035f816107d2565b61036c565b61036c61031b565b50565b6103776107ad565b6001600160a01b0316336001600160a01b0316141561040f57610399836107d2565b6000836001600160a01b031683836040518083838082843760405192019450600093509091505080830381855af49150503d80600081146103f6576040519150601f19603f3d011682016040523d82523d6000602084013e6103fb565b606091505b505090508061040957600080fd5b50610417565b61041761031b565b505050565b60006104266107ad565b6001600160a01b0316336001600160a01b0316141561044e57610447610764565b9050610456565b61045661031b565b90565b6104616107ad565b6001600160a01b0316336001600160a01b03161415610364576001600160a01b0381166104bf5760405162461bcd60e51b81526004018080602001828103825260368152602001806108d76036913960400191505060405180910390fd5b7f7e644d79422f17c01e4894b5f4f588d331ebfa28653d42ae832dc59e38c9798f6104e86107ad565b604080516001600160a01b03928316815291841660208301528051918290030190a161035f81610812565b600061051d610764565b6001600160a01b03161461053057600080fd5b61053a8382610599565b604080517232b4b8189c9b1b97383937bc3c9730b236b4b760691b815290519081900360130190207fb53127684a568b3173ae13b9f8a6016e243e63b6e8ee1178d6a717850b5d61036000199091011461059057fe5b61041782610812565b60006105a3610764565b6001600160a01b0316146105b657600080fd5b604080517f656970313936372e70726f78792e696d706c656d656e746174696f6e000000008152905190819003601c0190207f360894a13ba1a3210667c828492db98dca3e2076cc3735a920a3ca505d382bbc6000199091011461061657fe5b61061f82610836565b8051156106d5576000826001600160a01b0316826040518082805190602001908083835b602083106106625780518252601f199092019160209182019101610643565b6001836020036101000a038019825116818451168082178552505050505050905001915050600060405180830381855af49150503d80600081146106c2576040519150601f19603f3d011682016040523d82523d6000602084013e6106c7565b606091505b505090508061041757600080fd5b5050565b60006106e36107ad565b6001600160a01b0316336001600160a01b0316141561044e576104476107ad565b61070c6107ad565b6001600160a01b0316336001600160a01b0316141561075c5760405162461bcd60e51b81526004018080602001828103825260328152602001806108a56032913960400191505060405180910390fd5b610333610333565b7f360894a13ba1a3210667c828492db98dca3e2076cc3735a920a3ca505d382bbc5490565b3660008037600080366000845af43d6000803e8080156107a8573d6000f35b3d6000fd5b7fb53127684a568b3173ae13b9f8a6016e243e63b6e8ee1178d6a717850b5d61035490565b6107db81610836565b6040516001600160a01b038216907fbc7cd75a20ee27fd9adebab32041f755214dbc6bffa90cc0225b39da2e5c2d3b90600090a250565b7fb53127684a568b3173ae13b9f8a6016e243e63b6e8ee1178d6a717850b5d610355565b61083f8161089e565b61087a5760405162461bcd60e51b815260040180806020018281038252603b81526020018061090d603b913960400191505060405180910390fd5b7f360894a13ba1a3210667c828492db98dca3e2076cc3735a920a3ca505d382bbc55565b3b15159056fe43616e6e6f742063616c6c2066616c6c6261636b2066756e6374696f6e2066726f6d207468652070726f78792061646d696e43616e6e6f74206368616e6765207468652061646d696e206f6620612070726f787920746f20746865207a65726f206164647265737343616e6e6f742073657420612070726f787920696d706c656d656e746174696f6e20746f2061206e6f6e2d636f6e74726163742061646472657373a265627a7a723158201c2654e6fc4a82986dca89b7df7fcac88ef1a1a8268595c1367d6b28546489be64736f6c63430005100032",
  "source": "pragma solidity 0.5.16;\n\nimport \"@openzeppelin/upgrades/contracts/upgradeability/InitializableAdminUpgradeabilityProxy.sol\";\nimport \"@openzeppelin/upgrades/contracts/Initializable.sol\";\nimport \"@openzeppelin/contracts-ethereum-package/contracts/token/ERC20/IERC20.sol\";\nimport \"@openzeppelin/contracts-ethereum-package/contracts/token/ERC20/IERC20.sol\";\nimport \"@openzeppelin/contracts-ethereum-package/contracts/ownership/Ownable.sol\";\n\nimport \"../DarknodePayment/DarknodePayment.sol\";\nimport \"../DarknodePayment/DarknodePaymentStore.sol\";\nimport \"../DarknodeRegistry/DarknodeRegistry.sol\";\nimport \"../DarknodeRegistry/DarknodeRegistryStore.sol\";\nimport \"../DarknodeSlasher/DarknodeSlasher.sol\";\nimport \"../RenToken/RenToken.sol\";\nimport \"../Gateway/GatewayRegistry.sol\";\nimport \"../Gateway/interfaces/IGatewayRegistry.sol\";\nimport \"../Gateway/interfaces/IGateway.sol\";\nimport \"../Governance/Claimable.sol\";\n\n/// @notice ProtocolStateV1 stores the values used by Protocol as a\n/// separate contract to reduce the risk of memory slots being moved.\ncontract ProtocolStateV1 {\n    /**\n    *\n    * NOTICE: New variables should be added to a new contract ProtocolStateV2,\n    * not added to ProtocolStateV1. ProtocolStateV1 should not be changed once\n    * the Protocol contract has been deployed. ProtocolLogicV1 should then inherit\n    * both ProtocolStateV1 and ProtocolStateV2.\n    *\n    */\n\n    // These are all private so that the getter interfaced can be changed\n    // if necessary.\n\n    // DarknodeRegistry also points to RenToken, DarknodeRegistryStore and\n    // DarknodePayment, which in turn points to DarknodePaymentStore.\n    DarknodeRegistryLogicV1 internal _darknodeRegistry;\n\n    // GatewayRegistry is used to access the Gateways and RenERC20s.\n    GatewayRegistry internal _gatewayRegistry;\n}\n\n/// @notice ProtocolLogicV1 implements the getter functions for the Protocol proxy\n/// as well as onlyOwner functions for updating the values in ProtocolState.\ncontract ProtocolLogicV1 is\n    Initializable,\n    Claimable,\n    ProtocolStateV1,\n    IGatewayRegistry\n{\n    function initialize(address _nextOwner) public initializer {\n        Claimable.initialize(_nextOwner);\n    }\n\n    // Darknode contracts\n\n    function darknodeRegistry() public view returns (DarknodeRegistryLogicV1) {\n        return ProtocolStateV1._darknodeRegistry;\n    }\n\n    function darknodeRegistryStore()\n        public\n        view\n        returns (DarknodeRegistryStore)\n    {\n        return darknodeRegistry().store();\n    }\n\n    function renToken() public view returns (RenToken) {\n        return darknodeRegistry().ren();\n    }\n\n    function darknodePayment() public view returns (DarknodePayment) {\n        return\n            DarknodePayment(\n                _payableAddress(address(darknodeRegistry().darknodePayment()))\n            );\n    }\n\n    function darknodePaymentStore() public view returns (DarknodePaymentStore) {\n        return darknodePayment().store();\n    }\n\n    function darknodeSlasher() public view returns (DarknodeSlasher) {\n        return\n            DarknodeSlasher(\n                _payableAddress(address(darknodeRegistry().slasher()))\n            );\n    }\n\n    // Gateway contracts\n\n    function gatewayRegistry() public view returns (GatewayRegistry) {\n        return ProtocolStateV1._gatewayRegistry;\n    }\n\n    function getGateways(address _start, uint256 _count)\n        external\n        view\n        returns (address[] memory)\n    {\n        return gatewayRegistry().getGateways(_start, _count);\n    }\n\n    function getRenTokens(address _start, uint256 _count)\n        external\n        view\n        returns (address[] memory)\n    {\n        return gatewayRegistry().getRenTokens(_start, _count);\n    }\n\n    function getGatewayByToken(address _tokenAddress)\n        external\n        view\n        returns (IGateway)\n    {\n        return gatewayRegistry().getGatewayByToken(_tokenAddress);\n    }\n\n    function getGatewayBySymbol(string calldata _tokenSymbol)\n        external\n        view\n        returns (IGateway)\n    {\n        return gatewayRegistry().getGatewayBySymbol(_tokenSymbol);\n    }\n\n    function getTokenBySymbol(string calldata _tokenSymbol)\n        external\n        view\n        returns (IERC20)\n    {\n        return gatewayRegistry().getTokenBySymbol(_tokenSymbol);\n    }\n\n    // Only owner //////////////////////////////////////////////////////////////\n\n    /// @notice Update the address of DarknodeRegistry. This could affect the\n    /// addresses of DarknodeRegistryStore, DarknodePayment,\n    /// DarknodePaymentStore and DarknodeSlasher.\n    function _updateDarknodeRegistry(\n        DarknodeRegistryLogicV1 _newDarknodeRegistry\n    ) public onlyOwner {\n        ProtocolStateV1._darknodeRegistry = _newDarknodeRegistry;\n    }\n\n    /// @notice Update the address of GatewayRegistry. This could affect the\n    /// addresses of all of the gateways and tokens.\n    function _updateGatewayRegistry(GatewayRegistry _newGatewayRegistry)\n        public\n        onlyOwner\n    {\n        ProtocolStateV1._gatewayRegistry = _newGatewayRegistry;\n    }\n\n    // Internal functions //////////////////////////////////////////////////////\n\n    // Cast an address to a payable address\n    function _payableAddress(address a)\n        internal\n        pure\n        returns (address payable)\n    {\n        return address(uint160(address(a)));\n    }\n}\n\n/// @notice Protocol is a directory of the current contract addresses.\n/* solium-disable-next-line no-empty-blocks */\ncontract ProtocolProxy is InitializableAdminUpgradeabilityProxy {}\n",
  "sourcePath": "/home/noah/github/renproject/ren-sol/contracts/Protocol/Protocol.sol",
  "compiler": {
    "name": "solc",
    "version": "0.5.16+commit.9c3226ce.Emscripten.clang"
  },
  "schemaVersion": "3.0.23",
  "updatedAt": "2020-03-30T04:17:17.331Z",
  "networkType": "ethereum",
  "devdoc": {
    "methods": {
      "admin()": {
        "return": "The address of the proxy admin."
      },
      "changeAdmin(address)": {
        "details": "Changes the admin of the proxy. Only the current admin can call this function.",
        "params": {
          "newAdmin": "Address to transfer proxy administration to."
        }
      },
      "implementation()": {
        "return": "The address of the implementation."
      },
      "initialize(address,address,bytes)": {
        "params": {
          "_admin": "Address of the proxy administrator.",
          "_data": "Data to send as msg.data to the implementation to initialize the proxied contract. It should include the signature and the parameters of the function to be called, as described in https://solidity.readthedocs.io/en/v0.4.24/abi-spec.html#function-selector-and-argument-encoding. This parameter is optional, if no data is given the initialization call to proxied contract will be skipped.",
          "_logic": "address of the initial implementation."
        }
      },
      "initialize(address,bytes)": {
        "details": "Contract initializer.",
        "params": {
          "_data": "Data to send as msg.data to the implementation to initialize the proxied contract. It should include the signature and the parameters of the function to be called, as described in https://solidity.readthedocs.io/en/v0.4.24/abi-spec.html#function-selector-and-argument-encoding. This parameter is optional, if no data is given the initialization call to proxied contract will be skipped.",
          "_logic": "Address of the initial implementation."
        }
      },
      "upgradeTo(address)": {
        "details": "Upgrade the backing implementation of the proxy. Only the admin can call this function.",
        "params": {
          "newImplementation": "Address of the new implementation."
        }
      },
      "upgradeToAndCall(address,bytes)": {
        "details": "Upgrade the backing implementation of the proxy and call a function on the new implementation. This is useful to initialize the proxied contract.",
        "params": {
          "data": "Data to send as msg.data in the low level call. It should include the signature and the parameters of the function to be called, as described in https://solidity.readthedocs.io/en/v0.4.24/abi-spec.html#function-selector-and-argument-encoding.",
          "newImplementation": "Address of the new implementation."
        }
      }
    }
  },
  "userdoc": {
    "methods": {
      "initialize(address,address,bytes)": {
        "notice": "Contract initializer."
      }
    },
    "notice": "Protocol is a directory of the current contract addresses."
  }
}