{
  "contractName": "ProtocolLogicV1",
  "abi": [
    {
      "anonymous": false,
      "inputs": [
        {
          "indexed": false,
          "internalType": "string",
          "name": "_symbol",
          "type": "string"
        },
        {
          "indexed": true,
          "internalType": "string",
          "name": "_indexedSymbol",
          "type": "string"
        },
        {
          "indexed": true,
          "internalType": "address",
          "name": "_tokenAddress",
          "type": "address"
        },
        {
          "indexed": true,
          "internalType": "address",
          "name": "_gatewayAddress",
          "type": "address"
        }
      ],
      "name": "LogGatewayDeregistered",
      "type": "event"
    },
    {
      "anonymous": false,
      "inputs": [
        {
          "indexed": false,
          "internalType": "string",
          "name": "_symbol",
          "type": "string"
        },
        {
          "indexed": true,
          "internalType": "string",
          "name": "_indexedSymbol",
          "type": "string"
        },
        {
          "indexed": true,
          "internalType": "address",
          "name": "_tokenAddress",
          "type": "address"
        },
        {
          "indexed": true,
          "internalType": "address",
          "name": "_gatewayAddress",
          "type": "address"
        }
      ],
      "name": "LogGatewayRegistered",
      "type": "event"
    },
    {
      "anonymous": false,
      "inputs": [
        {
          "indexed": true,
          "internalType": "address",
          "name": "_tokenAddress",
          "type": "address"
        },
        {
          "indexed": true,
          "internalType": "address",
          "name": "_currentGatewayAddress",
          "type": "address"
        },
        {
          "indexed": true,
          "internalType": "address",
          "name": "_newGatewayAddress",
          "type": "address"
        }
      ],
      "name": "LogGatewayUpdated",
      "type": "event"
    },
    {
      "anonymous": false,
      "inputs": [
        {
          "indexed": true,
          "internalType": "address",
          "name": "previousOwner",
          "type": "address"
        },
        {
          "indexed": true,
          "internalType": "address",
          "name": "newOwner",
          "type": "address"
        }
      ],
      "name": "OwnershipTransferred",
      "type": "event"
    },
    {
      "constant": false,
      "inputs": [],
      "name": "claimOwnership",
      "outputs": [],
      "payable": false,
      "stateMutability": "nonpayable",
      "type": "function"
    },
    {
      "constant": true,
      "inputs": [],
      "name": "isOwner",
      "outputs": [
        {
          "internalType": "bool",
          "name": "",
          "type": "bool"
        }
      ],
      "payable": false,
      "stateMutability": "view",
      "type": "function"
    },
    {
      "constant": true,
      "inputs": [],
      "name": "owner",
      "outputs": [
        {
          "internalType": "address",
          "name": "",
          "type": "address"
        }
      ],
      "payable": false,
      "stateMutability": "view",
      "type": "function"
    },
    {
      "constant": true,
      "inputs": [],
      "name": "pendingOwner",
      "outputs": [
        {
          "internalType": "address",
          "name": "",
          "type": "address"
        }
      ],
      "payable": false,
      "stateMutability": "view",
      "type": "function"
    },
    {
      "constant": false,
      "inputs": [],
      "name": "renounceOwnership",
      "outputs": [],
      "payable": false,
      "stateMutability": "nonpayable",
      "type": "function"
    },
    {
      "constant": false,
      "inputs": [
        {
          "internalType": "address",
          "name": "newOwner",
          "type": "address"
        }
      ],
      "name": "transferOwnership",
      "outputs": [],
      "payable": false,
      "stateMutability": "nonpayable",
      "type": "function"
    },
    {
      "constant": false,
      "inputs": [
        {
          "internalType": "address",
          "name": "_nextOwner",
          "type": "address"
        }
      ],
      "name": "initialize",
      "outputs": [],
      "payable": false,
      "stateMutability": "nonpayable",
      "type": "function"
    },
    {
      "constant": true,
      "inputs": [],
      "name": "darknodeRegistry",
      "outputs": [
        {
          "internalType": "contract DarknodeRegistryLogicV1",
          "name": "",
          "type": "address"
        }
      ],
      "payable": false,
      "stateMutability": "view",
      "type": "function"
    },
    {
      "constant": true,
      "inputs": [],
      "name": "darknodeRegistryStore",
      "outputs": [
        {
          "internalType": "contract DarknodeRegistryStore",
          "name": "",
          "type": "address"
        }
      ],
      "payable": false,
      "stateMutability": "view",
      "type": "function"
    },
    {
      "constant": true,
      "inputs": [],
      "name": "renToken",
      "outputs": [
        {
          "internalType": "contract RenToken",
          "name": "",
          "type": "address"
        }
      ],
      "payable": false,
      "stateMutability": "view",
      "type": "function"
    },
    {
      "constant": true,
      "inputs": [],
      "name": "darknodePayment",
      "outputs": [
        {
          "internalType": "contract DarknodePayment",
          "name": "",
          "type": "address"
        }
      ],
      "payable": false,
      "stateMutability": "view",
      "type": "function"
    },
    {
      "constant": true,
      "inputs": [],
      "name": "darknodePaymentStore",
      "outputs": [
        {
          "internalType": "contract DarknodePaymentStore",
          "name": "",
          "type": "address"
        }
      ],
      "payable": false,
      "stateMutability": "view",
      "type": "function"
    },
    {
      "constant": true,
      "inputs": [],
      "name": "darknodeSlasher",
      "outputs": [
        {
          "internalType": "contract DarknodeSlasher",
          "name": "",
          "type": "address"
        }
      ],
      "payable": false,
      "stateMutability": "view",
      "type": "function"
    },
    {
      "constant": true,
      "inputs": [],
      "name": "gatewayRegistry",
      "outputs": [
        {
          "internalType": "contract GatewayRegistry",
          "name": "",
          "type": "address"
        }
      ],
      "payable": false,
      "stateMutability": "view",
      "type": "function"
    },
    {
      "constant": true,
      "inputs": [
        {
          "internalType": "address",
          "name": "_start",
          "type": "address"
        },
        {
          "internalType": "uint256",
          "name": "_count",
          "type": "uint256"
        }
      ],
      "name": "getGateways",
      "outputs": [
        {
          "internalType": "address[]",
          "name": "",
          "type": "address[]"
        }
      ],
      "payable": false,
      "stateMutability": "view",
      "type": "function"
    },
    {
      "constant": true,
      "inputs": [
        {
          "internalType": "address",
          "name": "_start",
          "type": "address"
        },
        {
          "internalType": "uint256",
          "name": "_count",
          "type": "uint256"
        }
      ],
      "name": "getRenTokens",
      "outputs": [
        {
          "internalType": "address[]",
          "name": "",
          "type": "address[]"
        }
      ],
      "payable": false,
      "stateMutability": "view",
      "type": "function"
    },
    {
      "constant": true,
      "inputs": [
        {
          "internalType": "address",
          "name": "_tokenAddress",
          "type": "address"
        }
      ],
      "name": "getGatewayByToken",
      "outputs": [
        {
          "internalType": "contract IGateway",
          "name": "",
          "type": "address"
        }
      ],
      "payable": false,
      "stateMutability": "view",
      "type": "function"
    },
    {
      "constant": true,
      "inputs": [
        {
          "internalType": "string",
          "name": "_tokenSymbol",
          "type": "string"
        }
      ],
      "name": "getGatewayBySymbol",
      "outputs": [
        {
          "internalType": "contract IGateway",
          "name": "",
          "type": "address"
        }
      ],
      "payable": false,
      "stateMutability": "view",
      "type": "function"
    },
    {
      "constant": true,
      "inputs": [
        {
          "internalType": "string",
          "name": "_tokenSymbol",
          "type": "string"
        }
      ],
      "name": "getTokenBySymbol",
      "outputs": [
        {
          "internalType": "contract IERC20",
          "name": "",
          "type": "address"
        }
      ],
      "payable": false,
      "stateMutability": "view",
      "type": "function"
    },
    {
      "constant": false,
      "inputs": [
        {
          "internalType": "contract DarknodeRegistryLogicV1",
          "name": "_newDarknodeRegistry",
          "type": "address"
        }
      ],
      "name": "_updateDarknodeRegistry",
      "outputs": [],
      "payable": false,
      "stateMutability": "nonpayable",
      "type": "function"
    },
    {
      "constant": false,
      "inputs": [
        {
          "internalType": "contract GatewayRegistry",
          "name": "_newGatewayRegistry",
          "type": "address"
        }
      ],
      "name": "_updateGatewayRegistry",
      "outputs": [],
      "payable": false,
      "stateMutability": "nonpayable",
      "type": "function"
    }
  ],
  "bytecode": "0x6080604052610fcb806100136000396000f3fe608060405234801561001057600080fd5b50600436106101375760003560e01c8063b6b34c67116100b8578063d693452e1161007c578063d693452e1461031c578063e30c397814610324578063ec2c62ff1461032c578063efa74f1f14610352578063f2fde38b146103c2578063f4146ba2146103e857610137565b8063b6b34c6714610262578063bcfe9fe51461026a578063c425960614610272578063c4d66de81461027a578063cf4f775c146102a057610137565b8063715018a6116100ff578063715018a6146102265780638da5cb5b1461022e5780638f32d59b14610236578063981a58e9146102525780639e45e0d01461025a57610137565b8063179091a41461013c5780631b95e3051461016457806334246f9b146101a65780634e71e0c8146101ae57806364936b1e146101b6575b600080fd5b6101626004803603602081101561015257600080fd5b50356001600160a01b0316610414565b005b61018a6004803603602081101561017a57600080fd5b50356001600160a01b031661047d565b604080516001600160a01b039092168252519081900360200190f35b61018a61050e565b610162610581565b61018a600480360360208110156101cc57600080fd5b8101906020810181356401000000008111156101e757600080fd5b8201836020820111156101f957600080fd5b8035906020019184600183028401116401000000008311171561021b57600080fd5b509092509050610601565b6101626106ac565b61018a61073d565b61023e61074c565b604080519115158252519081900360200190f35b61018a610772565b61018a6107b4565b61018a6107c3565b61018a61083e565b61018a610848565b6101626004803603602081101561029057600080fd5b50356001600160a01b031661088d565b6102cc600480360360408110156102b657600080fd5b506001600160a01b038135169060200135610939565b60408051602080825283518183015283519192839290830191858101910280838360005b838110156103085781810151838201526020016102f0565b505050509050019250505060405180910390f35b61018a610a71565b61018a610a80565b6101626004803603602081101561034257600080fd5b50356001600160a01b0316610a8f565b61018a6004803603602081101561036857600080fd5b81019060208101813564010000000081111561038357600080fd5b82018360208201111561039557600080fd5b803590602001918460018302840111640100000000831117156103b757600080fd5b509092509050610af8565b610162600480360360208110156103d857600080fd5b50356001600160a01b0316610b70565b6102cc600480360360408110156103fe57600080fd5b506001600160a01b038135169060200135610c61565b61041c61074c565b61045b576040805162461bcd60e51b81526020600482018190526024820152600080516020610f1f833981519152604482015290519081900360640190fd5b606780546001600160a01b0319166001600160a01b0392909216919091179055565b6000610487610a71565b6001600160a01b0316631b95e305836040518263ffffffff1660e01b815260040180826001600160a01b03166001600160a01b0316815260200191505060206040518083038186803b1580156104dc57600080fd5b505afa1580156104f0573d6000803e3d6000fd5b505050506040513d602081101561050657600080fd5b505192915050565b60006105186107b4565b6001600160a01b0316638a9b40676040518163ffffffff1660e01b815260040160206040518083038186803b15801561055057600080fd5b505afa158015610564573d6000803e3d6000fd5b505050506040513d602081101561057a57600080fd5b5051905090565b6066546001600160a01b0316610595610cc8565b6001600160a01b0316146105da5760405162461bcd60e51b815260040180806020018281038252602a815260200180610f6d602a913960400191505060405180910390fd5b6066546105ef906001600160a01b0316610ccc565b606680546001600160a01b0319169055565b600061060b610a71565b6001600160a01b03166364936b1e84846040518363ffffffff1660e01b815260040180806020018281038252848482818152602001925080828437600083820152604051601f909101601f191690920195506020945090925050508083038186803b15801561067957600080fd5b505afa15801561068d573d6000803e3d6000fd5b505050506040513d60208110156106a357600080fd5b50519392505050565b6106b461074c565b6106f3576040805162461bcd60e51b81526020600482018190526024820152600080516020610f1f833981519152604482015290519081900360640190fd5b6033546040516000916001600160a01b0316907f8be0079c531659141344cd1fd0a4f28419497f9722a3daafe3b4186f6b6457e0908390a3603380546001600160a01b0319169055565b6033546001600160a01b031690565b6033546000906001600160a01b0316610763610cc8565b6001600160a01b031614905090565b600061077c6107b4565b6001600160a01b031663975057e76040518163ffffffff1660e01b815260040160206040518083038186803b15801561055057600080fd5b6067546001600160a01b031690565b60006108396107d06107b4565b6001600160a01b031663b6b34c676040518163ffffffff1660e01b815260040160206040518083038186803b15801561080857600080fd5b505afa15801561081c573d6000803e3d6000fd5b505050506040513d602081101561083257600080fd5b5051610d6d565b905090565b600061077c6107c3565b60006108396108556107b4565b6001600160a01b031663b13442716040518163ffffffff1660e01b815260040160206040518083038186803b15801561080857600080fd5b600054610100900460ff16806108a657506108a6610d70565b806108b4575060005460ff16155b6108ef5760405162461bcd60e51b815260040180806020018281038252602e815260200180610f3f602e913960400191505060405180910390fd5b600054610100900460ff1615801561091a576000805460ff1961ff0019909116610100171660011790555b61092382610d76565b8015610935576000805461ff00191690555b5050565b6060610943610a71565b6001600160a01b031663cf4f775c84846040518363ffffffff1660e01b815260040180836001600160a01b03166001600160a01b031681526020018281526020019250505060006040518083038186803b1580156109a057600080fd5b505afa1580156109b4573d6000803e3d6000fd5b505050506040513d6000823e601f3d908101601f1916820160405260208110156109dd57600080fd5b81019080805160405193929190846401000000008211156109fd57600080fd5b908301906020820185811115610a1257600080fd5b8251866020820283011164010000000082111715610a2f57600080fd5b82525081516020918201928201910280838360005b83811015610a5c578181015183820152602001610a44565b50505050905001604052505050905092915050565b6068546001600160a01b031690565b6066546001600160a01b031681565b610a9761074c565b610ad6576040805162461bcd60e51b81526020600482018190526024820152600080516020610f1f833981519152604482015290519081900360640190fd5b606880546001600160a01b0319166001600160a01b0392909216919091179055565b6000610b02610a71565b6001600160a01b031663efa74f1f84846040518363ffffffff1660e01b815260040180806020018281038252848482818152602001925080828437600083820152604051601f909101601f191690920195506020945090925050508083038186803b15801561067957600080fd5b610b7861074c565b610bb7576040805162461bcd60e51b81526020600482018190526024820152600080516020610f1f833981519152604482015290519081900360640190fd5b610bbf61073d565b6001600160a01b0316816001600160a01b031614158015610bee57506066546001600160a01b03828116911614155b610c3f576040805162461bcd60e51b815260206004820152601c60248201527f436c61696d61626c653a20696e76616c6964206e6577206f776e657200000000604482015290519081900360640190fd5b606680546001600160a01b0319166001600160a01b0392909216919091179055565b6060610c6b610a71565b6001600160a01b031663f4146ba284846040518363ffffffff1660e01b815260040180836001600160a01b03166001600160a01b031681526020018281526020019250505060006040518083038186803b1580156109a057600080fd5b3390565b6001600160a01b038116610d115760405162461bcd60e51b8152600401808060200182810382526026815260200180610ef96026913960400191505060405180910390fd5b6033546040516001600160a01b038084169216907f8be0079c531659141344cd1fd0a4f28419497f9722a3daafe3b4186f6b6457e090600090a3603380546001600160a01b0319166001600160a01b0392909216919091179055565b90565b303b1590565b600054610100900460ff1680610d8f5750610d8f610d70565b80610d9d575060005460ff16155b610dd85760405162461bcd60e51b815260040180806020018281038252602e815260200180610f3f602e913960400191505060405180910390fd5b600054610100900460ff16158015610e03576000805460ff1961ff0019909116610100171660011790555b61092382600054610100900460ff1680610e205750610e20610d70565b80610e2e575060005460ff16155b610e695760405162461bcd60e51b815260040180806020018281038252602e815260200180610f3f602e913960400191505060405180910390fd5b600054610100900460ff16158015610e94576000805460ff1961ff0019909116610100171660011790555b603380546001600160a01b0319166001600160a01b0384811691909117918290556040519116906000907f8be0079c531659141344cd1fd0a4f28419497f9722a3daafe3b4186f6b6457e0908290a38015610935576000805461ff0019169055505056fe4f776e61626c653a206e6577206f776e657220697320746865207a65726f20616464726573734f776e61626c653a2063616c6c6572206973206e6f7420746865206f776e6572436f6e747261637420696e7374616e63652068617320616c7265616479206265656e20696e697469616c697a6564436c61696d61626c653a2063616c6c6572206973206e6f74207468652070656e64696e67206f776e6572a265627a7a72315820f710abd6bf71787c1987dc02e296c31684df34649481e4c6da3cdf0229692e4464736f6c63430005100032",
  "source": "pragma solidity 0.5.16;\n\nimport \"@openzeppelin/upgrades/contracts/upgradeability/InitializableAdminUpgradeabilityProxy.sol\";\nimport \"@openzeppelin/upgrades/contracts/Initializable.sol\";\nimport \"@openzeppelin/contracts-ethereum-package/contracts/token/ERC20/IERC20.sol\";\nimport \"@openzeppelin/contracts-ethereum-package/contracts/token/ERC20/IERC20.sol\";\nimport \"@openzeppelin/contracts-ethereum-package/contracts/ownership/Ownable.sol\";\n\nimport \"../DarknodePayment/DarknodePayment.sol\";\nimport \"../DarknodePayment/DarknodePaymentStore.sol\";\nimport \"../DarknodeRegistry/DarknodeRegistry.sol\";\nimport \"../DarknodeRegistry/DarknodeRegistryStore.sol\";\nimport \"../DarknodeSlasher/DarknodeSlasher.sol\";\nimport \"../RenToken/RenToken.sol\";\nimport \"../Gateway/GatewayRegistry.sol\";\nimport \"../Gateway/interfaces/IGatewayRegistry.sol\";\nimport \"../Gateway/interfaces/IGateway.sol\";\nimport \"../Governance/Claimable.sol\";\n\n/// @notice ProtocolStateV1 stores the values used by Protocol as a\n/// separate contract to reduce the risk of memory slots being moved.\ncontract ProtocolStateV1 {\n    /**\n    *\n    * NOTICE: New variables should be added to a new contract ProtocolStateV2,\n    * not added to ProtocolStateV1. ProtocolStateV1 should not be changed once\n    * the Protocol contract has been deployed. ProtocolLogicV1 should then inherit\n    * both ProtocolStateV1 and ProtocolStateV2.\n    *\n    */\n\n    // These are all private so that the getter interfaced can be changed\n    // if necessary.\n\n    // DarknodeRegistry also points to RenToken, DarknodeRegistryStore and\n    // DarknodePayment, which in turn points to DarknodePaymentStore.\n    DarknodeRegistryLogicV1 internal _darknodeRegistry;\n\n    // GatewayRegistry is used to access the Gateways and RenERC20s.\n    GatewayRegistry internal _gatewayRegistry;\n}\n\n/// @notice ProtocolLogicV1 implements the getter functions for the Protocol proxy\n/// as well as onlyOwner functions for updating the values in ProtocolState.\ncontract ProtocolLogicV1 is\n    Initializable,\n    Claimable,\n    ProtocolStateV1,\n    IGatewayRegistry\n{\n    function initialize(address _nextOwner) public initializer {\n        Claimable.initialize(_nextOwner);\n    }\n\n    // Darknode contracts\n\n    function darknodeRegistry() public view returns (DarknodeRegistryLogicV1) {\n        return ProtocolStateV1._darknodeRegistry;\n    }\n\n    function darknodeRegistryStore()\n        public\n        view\n        returns (DarknodeRegistryStore)\n    {\n        return darknodeRegistry().store();\n    }\n\n    function renToken() public view returns (RenToken) {\n        return darknodeRegistry().ren();\n    }\n\n    function darknodePayment() public view returns (DarknodePayment) {\n        return\n            DarknodePayment(\n                _payableAddress(address(darknodeRegistry().darknodePayment()))\n            );\n    }\n\n    function darknodePaymentStore() public view returns (DarknodePaymentStore) {\n        return darknodePayment().store();\n    }\n\n    function darknodeSlasher() public view returns (DarknodeSlasher) {\n        return\n            DarknodeSlasher(\n                _payableAddress(address(darknodeRegistry().slasher()))\n            );\n    }\n\n    // Gateway contracts\n\n    function gatewayRegistry() public view returns (GatewayRegistry) {\n        return ProtocolStateV1._gatewayRegistry;\n    }\n\n    function getGateways(address _start, uint256 _count)\n        external\n        view\n        returns (address[] memory)\n    {\n        return gatewayRegistry().getGateways(_start, _count);\n    }\n\n    function getRenTokens(address _start, uint256 _count)\n        external\n        view\n        returns (address[] memory)\n    {\n        return gatewayRegistry().getRenTokens(_start, _count);\n    }\n\n    function getGatewayByToken(address _tokenAddress)\n        external\n        view\n        returns (IGateway)\n    {\n        return gatewayRegistry().getGatewayByToken(_tokenAddress);\n    }\n\n    function getGatewayBySymbol(string calldata _tokenSymbol)\n        external\n        view\n        returns (IGateway)\n    {\n        return gatewayRegistry().getGatewayBySymbol(_tokenSymbol);\n    }\n\n    function getTokenBySymbol(string calldata _tokenSymbol)\n        external\n        view\n        returns (IERC20)\n    {\n        return gatewayRegistry().getTokenBySymbol(_tokenSymbol);\n    }\n\n    // Only owner //////////////////////////////////////////////////////////////\n\n    /// @notice Update the address of DarknodeRegistry. This could affect the\n    /// addresses of DarknodeRegistryStore, DarknodePayment,\n    /// DarknodePaymentStore and DarknodeSlasher.\n    function _updateDarknodeRegistry(\n        DarknodeRegistryLogicV1 _newDarknodeRegistry\n    ) public onlyOwner {\n        ProtocolStateV1._darknodeRegistry = _newDarknodeRegistry;\n    }\n\n    /// @notice Update the address of GatewayRegistry. This could affect the\n    /// addresses of all of the gateways and tokens.\n    function _updateGatewayRegistry(GatewayRegistry _newGatewayRegistry)\n        public\n        onlyOwner\n    {\n        ProtocolStateV1._gatewayRegistry = _newGatewayRegistry;\n    }\n\n    // Internal functions //////////////////////////////////////////////////////\n\n    // Cast an address to a payable address\n    function _payableAddress(address a)\n        internal\n        pure\n        returns (address payable)\n    {\n        return address(uint160(address(a)));\n    }\n}\n\n/// @notice Protocol is a directory of the current contract addresses.\n/* solium-disable-next-line no-empty-blocks */\ncontract ProtocolProxy is InitializableAdminUpgradeabilityProxy {}\n",
  "sourcePath": "/home/noah/github/renproject/ren-sol/contracts/Protocol/Protocol.sol",
  "compiler": {
    "name": "solc",
    "version": "0.5.16+commit.9c3226ce.Emscripten.clang"
  },
  "schemaVersion": "3.0.23",
  "updatedAt": "2020-03-30T04:17:17.322Z",
  "networkType": "ethereum",
  "devdoc": {
    "methods": {
      "isOwner()": {
        "details": "Returns true if the caller is the current owner."
      },
      "owner()": {
        "details": "Returns the address of the current owner."
      },
      "renounceOwnership()": {
        "details": "Leaves the contract without owner. It will not be possible to call `onlyOwner` functions anymore. Can only be called by the current owner.     * > Note: Renouncing ownership will leave the contract without an owner, thereby removing any functionality that is only available to the owner."
      }
    }
  },
  "userdoc": {
    "methods": {
      "_updateDarknodeRegistry(address)": {
        "notice": "Update the address of DarknodeRegistry. This could affect the addresses of DarknodeRegistryStore, DarknodePayment, DarknodePaymentStore and DarknodeSlasher."
      },
      "_updateGatewayRegistry(address)": {
        "notice": "Update the address of GatewayRegistry. This could affect the addresses of all of the gateways and tokens."
      }
    },
    "notice": "ProtocolLogicV1 implements the getter functions for the Protocol proxy as well as onlyOwner functions for updating the values in ProtocolState."
  }
}