{
  "contractName": "RenToken",
  "abi": [
    {
      "inputs": [],
      "payable": false,
      "stateMutability": "nonpayable",
      "type": "constructor"
    },
    {
      "anonymous": false,
      "inputs": [
        {
          "indexed": true,
          "internalType": "address",
          "name": "owner",
          "type": "address"
        },
        {
          "indexed": true,
          "internalType": "address",
          "name": "spender",
          "type": "address"
        },
        {
          "indexed": false,
          "internalType": "uint256",
          "name": "value",
          "type": "uint256"
        }
      ],
      "name": "Approval",
      "type": "event"
    },
    {
      "anonymous": false,
      "inputs": [
        {
          "indexed": true,
          "internalType": "address",
          "name": "previousOwner",
          "type": "address"
        },
        {
          "indexed": true,
          "internalType": "address",
          "name": "newOwner",
          "type": "address"
        }
      ],
      "name": "OwnershipTransferred",
      "type": "event"
    },
    {
      "anonymous": false,
      "inputs": [
        {
          "indexed": false,
          "internalType": "address",
          "name": "account",
          "type": "address"
        }
      ],
      "name": "Paused",
      "type": "event"
    },
    {
      "anonymous": false,
      "inputs": [
        {
          "indexed": true,
          "internalType": "address",
          "name": "account",
          "type": "address"
        }
      ],
      "name": "PauserAdded",
      "type": "event"
    },
    {
      "anonymous": false,
      "inputs": [
        {
          "indexed": true,
          "internalType": "address",
          "name": "account",
          "type": "address"
        }
      ],
      "name": "PauserRemoved",
      "type": "event"
    },
    {
      "anonymous": false,
      "inputs": [
        {
          "indexed": true,
          "internalType": "address",
          "name": "from",
          "type": "address"
        },
        {
          "indexed": true,
          "internalType": "address",
          "name": "to",
          "type": "address"
        },
        {
          "indexed": false,
          "internalType": "uint256",
          "name": "value",
          "type": "uint256"
        }
      ],
      "name": "Transfer",
      "type": "event"
    },
    {
      "anonymous": false,
      "inputs": [
        {
          "indexed": false,
          "internalType": "address",
          "name": "account",
          "type": "address"
        }
      ],
      "name": "Unpaused",
      "type": "event"
    },
    {
      "constant": true,
      "inputs": [],
      "name": "INITIAL_SUPPLY",
      "outputs": [
        {
          "internalType": "uint256",
          "name": "",
          "type": "uint256"
        }
      ],
      "payable": false,
      "stateMutability": "view",
      "type": "function"
    },
    {
      "constant": false,
      "inputs": [
        {
          "internalType": "address",
          "name": "account",
          "type": "address"
        }
      ],
      "name": "addPauser",
      "outputs": [],
      "payable": false,
      "stateMutability": "nonpayable",
      "type": "function"
    },
    {
      "constant": true,
      "inputs": [
        {
          "internalType": "address",
          "name": "owner",
          "type": "address"
        },
        {
          "internalType": "address",
          "name": "spender",
          "type": "address"
        }
      ],
      "name": "allowance",
      "outputs": [
        {
          "internalType": "uint256",
          "name": "",
          "type": "uint256"
        }
      ],
      "payable": false,
      "stateMutability": "view",
      "type": "function"
    },
    {
      "constant": false,
      "inputs": [
        {
          "internalType": "address",
          "name": "spender",
          "type": "address"
        },
        {
          "internalType": "uint256",
          "name": "value",
          "type": "uint256"
        }
      ],
      "name": "approve",
      "outputs": [
        {
          "internalType": "bool",
          "name": "",
          "type": "bool"
        }
      ],
      "payable": false,
      "stateMutability": "nonpayable",
      "type": "function"
    },
    {
      "constant": true,
      "inputs": [
        {
          "internalType": "address",
          "name": "account",
          "type": "address"
        }
      ],
      "name": "balanceOf",
      "outputs": [
        {
          "internalType": "uint256",
          "name": "",
          "type": "uint256"
        }
      ],
      "payable": false,
      "stateMutability": "view",
      "type": "function"
    },
    {
      "constant": false,
      "inputs": [
        {
          "internalType": "uint256",
          "name": "amount",
          "type": "uint256"
        }
      ],
      "name": "burn",
      "outputs": [],
      "payable": false,
      "stateMutability": "nonpayable",
      "type": "function"
    },
    {
      "constant": false,
      "inputs": [
        {
          "internalType": "address",
          "name": "account",
          "type": "address"
        },
        {
          "internalType": "uint256",
          "name": "amount",
          "type": "uint256"
        }
      ],
      "name": "burnFrom",
      "outputs": [],
      "payable": false,
      "stateMutability": "nonpayable",
      "type": "function"
    },
    {
      "constant": true,
      "inputs": [],
      "name": "decimals",
      "outputs": [
        {
          "internalType": "uint8",
          "name": "",
          "type": "uint8"
        }
      ],
      "payable": false,
      "stateMutability": "view",
      "type": "function"
    },
    {
      "constant": false,
      "inputs": [
        {
          "internalType": "address",
          "name": "spender",
          "type": "address"
        },
        {
          "internalType": "uint256",
          "name": "subtractedValue",
          "type": "uint256"
        }
      ],
      "name": "decreaseAllowance",
      "outputs": [
        {
          "internalType": "bool",
          "name": "",
          "type": "bool"
        }
      ],
      "payable": false,
      "stateMutability": "nonpayable",
      "type": "function"
    },
    {
      "constant": false,
      "inputs": [
        {
          "internalType": "address",
          "name": "spender",
          "type": "address"
        },
        {
          "internalType": "uint256",
          "name": "addedValue",
          "type": "uint256"
        }
      ],
      "name": "increaseAllowance",
      "outputs": [
        {
          "internalType": "bool",
          "name": "",
          "type": "bool"
        }
      ],
      "payable": false,
      "stateMutability": "nonpayable",
      "type": "function"
    },
    {
      "constant": false,
      "inputs": [
        {
          "internalType": "string",
          "name": "name",
          "type": "string"
        },
        {
          "internalType": "string",
          "name": "symbol",
          "type": "string"
        },
        {
          "internalType": "uint8",
          "name": "decimals",
          "type": "uint8"
        }
      ],
      "name": "initialize",
      "outputs": [],
      "payable": false,
      "stateMutability": "nonpayable",
      "type": "function"
    },
    {
      "constant": false,
      "inputs": [
        {
          "internalType": "address",
          "name": "sender",
          "type": "address"
        }
      ],
      "name": "initialize",
      "outputs": [],
      "payable": false,
      "stateMutability": "nonpayable",
      "type": "function"
    },
    {
      "constant": true,
      "inputs": [],
      "name": "isOwner",
      "outputs": [
        {
          "internalType": "bool",
          "name": "",
          "type": "bool"
        }
      ],
      "payable": false,
      "stateMutability": "view",
      "type": "function"
    },
    {
      "constant": true,
      "inputs": [
        {
          "internalType": "address",
          "name": "account",
          "type": "address"
        }
      ],
      "name": "isPauser",
      "outputs": [
        {
          "internalType": "bool",
          "name": "",
          "type": "bool"
        }
      ],
      "payable": false,
      "stateMutability": "view",
      "type": "function"
    },
    {
      "constant": true,
      "inputs": [],
      "name": "name",
      "outputs": [
        {
          "internalType": "string",
          "name": "",
          "type": "string"
        }
      ],
      "payable": false,
      "stateMutability": "view",
      "type": "function"
    },
    {
      "constant": true,
      "inputs": [],
      "name": "owner",
      "outputs": [
        {
          "internalType": "address",
          "name": "",
          "type": "address"
        }
      ],
      "payable": false,
      "stateMutability": "view",
      "type": "function"
    },
    {
      "constant": false,
      "inputs": [],
      "name": "pause",
      "outputs": [],
      "payable": false,
      "stateMutability": "nonpayable",
      "type": "function"
    },
    {
      "constant": true,
      "inputs": [],
      "name": "paused",
      "outputs": [
        {
          "internalType": "bool",
          "name": "",
          "type": "bool"
        }
      ],
      "payable": false,
      "stateMutability": "view",
      "type": "function"
    },
    {
      "constant": false,
      "inputs": [],
      "name": "renounceOwnership",
      "outputs": [],
      "payable": false,
      "stateMutability": "nonpayable",
      "type": "function"
    },
    {
      "constant": false,
      "inputs": [],
      "name": "renouncePauser",
      "outputs": [],
      "payable": false,
      "stateMutability": "nonpayable",
      "type": "function"
    },
    {
      "constant": true,
      "inputs": [],
      "name": "symbol",
      "outputs": [
        {
          "internalType": "string",
          "name": "",
          "type": "string"
        }
      ],
      "payable": false,
      "stateMutability": "view",
      "type": "function"
    },
    {
      "constant": true,
      "inputs": [],
      "name": "totalSupply",
      "outputs": [
        {
          "internalType": "uint256",
          "name": "",
          "type": "uint256"
        }
      ],
      "payable": false,
      "stateMutability": "view",
      "type": "function"
    },
    {
      "constant": false,
      "inputs": [
        {
          "internalType": "address",
          "name": "to",
          "type": "address"
        },
        {
          "internalType": "uint256",
          "name": "value",
          "type": "uint256"
        }
      ],
      "name": "transfer",
      "outputs": [
        {
          "internalType": "bool",
          "name": "",
          "type": "bool"
        }
      ],
      "payable": false,
      "stateMutability": "nonpayable",
      "type": "function"
    },
    {
      "constant": false,
      "inputs": [
        {
          "internalType": "address",
          "name": "from",
          "type": "address"
        },
        {
          "internalType": "address",
          "name": "to",
          "type": "address"
        },
        {
          "internalType": "uint256",
          "name": "value",
          "type": "uint256"
        }
      ],
      "name": "transferFrom",
      "outputs": [
        {
          "internalType": "bool",
          "name": "",
          "type": "bool"
        }
      ],
      "payable": false,
      "stateMutability": "nonpayable",
      "type": "function"
    },
    {
      "constant": false,
      "inputs": [
        {
          "internalType": "address",
          "name": "newOwner",
          "type": "address"
        }
      ],
      "name": "transferOwnership",
      "outputs": [],
      "payable": false,
      "stateMutability": "nonpayable",
      "type": "function"
    },
    {
      "constant": false,
      "inputs": [],
      "name": "unpause",
      "outputs": [],
      "payable": false,
      "stateMutability": "nonpayable",
      "type": "function"
    },
    {
      "constant": false,
      "inputs": [
        {
          "internalType": "address",
          "name": "beneficiary",
          "type": "address"
        },
        {
          "internalType": "uint256",
          "name": "amount",
          "type": "uint256"
        }
      ],
      "name": "transferTokens",
      "outputs": [
        {
          "internalType": "bool",
          "name": "",
          "type": "bool"
        }
      ],
      "payable": false,
      "stateMutability": "nonpayable",
      "type": "function"
    }
  ],
  "bytecode": "0x60806040523480156200001157600080fd5b506200002833620000b460201b62000e1f1760201c565b62000077604051806040016040528060038152602001622922a760e91b815250604051806040016040528060038152602001622922a760e91b81525060126200017e60201b6200074d1760201c565b6200008d336200026f60201b62001a1b1760201c565b620000ae336b033b2e3c9fd0803ce80000006001600160e01b036200037116565b6200088a565b600054610100900460ff1680620000d95750620000d96001600160e01b036200047616565b80620000e8575060005460ff16155b620001255760405162461bcd60e51b815260040180806020018281038252602e8152602001806200262c602e913960400191505060405180910390fd5b600054610100900460ff1615801562000151576000805460ff1961ff0019909116610100171660011790555b62000167826200047d60201b620014821760201c565b80156200017a576000805461ff00191690555b5050565b600054610100900460ff1680620001a35750620001a36001600160e01b036200047616565b80620001b2575060005460ff16155b620001ef5760405162461bcd60e51b815260040180806020018281038252602e8152602001806200262c602e913960400191505060405180910390fd5b600054610100900460ff161580156200021b576000805460ff1961ff0019909116610100171660011790555b835162000230906066906020870190620007e8565b50825162000246906067906020860190620007e8565b506068805460ff191660ff8416179055801562000269576000805461ff00191690555b50505050565b600054610100900460ff1680620002945750620002946001600160e01b036200047616565b80620002a3575060005460ff16155b620002e05760405162461bcd60e51b815260040180806020018281038252602e8152602001806200262c602e913960400191505060405180910390fd5b600054610100900460ff161580156200030c576000805460ff1961ff0019909116610100171660011790555b603380546001600160a01b0319166001600160a01b0384811691909117918290556040519116906000907f8be0079c531659141344cd1fd0a4f28419497f9722a3daafe3b4186f6b6457e0908290a380156200017a576000805461ff00191690555050565b6001600160a01b038216620003cd576040805162461bcd60e51b815260206004820152601f60248201527f45524332303a206d696e7420746f20746865207a65726f206164647265737300604482015290519081900360640190fd5b620003e981609d546200055160201b6200175c1790919060201c565b609d556001600160a01b0382166000908152609b60209081526040909120546200041e9183906200175c62000551821b17901c565b6001600160a01b0383166000818152609b602090815260408083209490945583518581529351929391927fddf252ad1be2c89b69c2b068fc378daa952ba7f163c4a11628f55a4df523b3ef9281900390910190a35050565b303b155b90565b600054610100900460ff1680620004a25750620004a26001600160e01b036200047616565b80620004b1575060005460ff16155b620004ee5760405162461bcd60e51b815260040180806020018281038252602e8152602001806200262c602e913960400191505060405180910390fd5b600054610100900460ff161580156200051a576000805460ff1961ff0019909116610100171660011790555b6200053082620005b360201b620018e01760201c565b610103805460ff1916905580156200017a576000805461ff00191690555050565b600082820183811015620005ac576040805162461bcd60e51b815260206004820152601b60248201527f536166654d6174683a206164646974696f6e206f766572666c6f770000000000604482015290519081900360640190fd5b9392505050565b600054610100900460ff1680620005d85750620005d86001600160e01b036200047616565b80620005e7575060005460ff16155b620006245760405162461bcd60e51b815260040180806020018281038252602e8152602001806200262c602e913960400191505060405180910390fd5b600054610100900460ff1615801562000650576000805460ff1961ff0019909116610100171660011790555b62000664826001600160e01b036200067d16565b620001675762000167826001600160e01b03620006a016565b60006200069a8260d0620006f260201b6200115b1790919060201c565b92915050565b620006bb8160d06200075b60201b6200185f1790919060201c565b6040516001600160a01b038216907f6719d08c1888103bea251a4ed56406bd0c3e69723c8a1686e017e7bbe159b6f890600090a250565b60006001600160a01b0382166200073b5760405162461bcd60e51b81526004018080602001828103825260228152602001806200260a6022913960400191505060405180910390fd5b506001600160a01b03166000908152602091909152604090205460ff1690565b6200077082826001600160e01b03620006f216565b15620007c3576040805162461bcd60e51b815260206004820152601f60248201527f526f6c65733a206163636f756e7420616c72656164792068617320726f6c6500604482015290519081900360640190fd5b6001600160a01b0316600090815260209190915260409020805460ff19166001179055565b828054600181600116156101000203166002900490600052602060002090601f016020900481019282601f106200082b57805160ff19168380011785556200085b565b828001600101855582156200085b579182015b828111156200085b5782518255916020019190600101906200083e565b50620008699291506200086d565b5090565b6200047a91905b8082111562000869576000815560010162000874565b611d70806200089a6000396000f3fe608060405234801561001057600080fd5b50600436106101a95760003560e01c806370a08231116100f957806395d89b4111610097578063bec3fa1711610071578063bec3fa17146105b0578063c4d66de8146105dc578063dd62ed3e14610602578063f2fde38b14610630576101a9565b806395d89b4114610550578063a457c2d714610558578063a9059cbb14610584576101a9565b806382dc1ec4116100d357806382dc1ec4146104f65780638456cb591461051c5780638da5cb5b146105245780638f32d59b14610548576101a9565b806370a082311461049c578063715018a6146104c257806379cc6790146104ca576101a9565b8063313ce5671161016657806342966c681161014057806342966c681461044957806346fbf68e146104665780635c975abb1461048c5780636ef8d66d14610494576101a9565b8063313ce567146103f757806339509351146104155780633f4ba83a14610441576101a9565b806306fdde03146101ae578063095ea7b31461022b5780631624f6c61461026b57806318160ddd1461039f57806323b872dd146103b95780632ff2e9dc146103ef575b600080fd5b6101b6610656565b6040805160208082528351818301528351919283929083019185019080838360005b838110156101f05781810151838201526020016101d8565b50505050905090810190601f16801561021d5780820380516001836020036101000a031916815260200191505b509250505060405180910390f35b6102576004803603604081101561024157600080fd5b506001600160a01b0381351690602001356106ed565b604080519115158252519081900360200190f35b61039d6004803603606081101561028157600080fd5b81019060208101813564010000000081111561029c57600080fd5b8201836020820111156102ae57600080fd5b803590602001918460018302840111640100000000831117156102d057600080fd5b91908080601f016020809104026020016040519081016040528093929190818152602001838380828437600092019190915250929594936020810193503591505064010000000081111561032357600080fd5b82018360208201111561033557600080fd5b8035906020019184600183028401116401000000008311171561035757600080fd5b91908080601f0160208091040260200160405190810160405280939291908181526020018383808284376000920191909152509295505050903560ff16915061074d9050565b005b6103a7610829565b60408051918252519081900360200190f35b610257600480360360608110156103cf57600080fd5b506001600160a01b0381358116916020810135909116906040013561082f565b6103a7610891565b6103ff6108a1565b6040805160ff9092168252519081900360200190f35b6102576004803603604081101561042b57600080fd5b506001600160a01b0381351690602001356108aa565b61039d610903565b61039d6004803603602081101561045f57600080fd5b50356109ee565b6102576004803603602081101561047c57600080fd5b50356001600160a01b0316610a02565b610257610a1b565b61039d610a25565b6103a7600480360360208110156104b257600080fd5b50356001600160a01b0316610a37565b61039d610a52565b61039d600480360360408110156104e057600080fd5b506001600160a01b038135169060200135610af5565b61039d6004803603602081101561050c57600080fd5b50356001600160a01b0316610b03565b61039d610b52565b61052c610c1b565b604080516001600160a01b039092168252519081900360200190f35b610257610c2a565b6101b6610c50565b6102576004803603604081101561056e57600080fd5b506001600160a01b038135169060200135610cb1565b6102576004803603604081101561059a57600080fd5b506001600160a01b038135169060200135610d0a565b610257600480360360408110156105c657600080fd5b506001600160a01b038135169060200135610d63565b61039d600480360360208110156105f257600080fd5b50356001600160a01b0316610e1f565b6103a76004803603604081101561061857600080fd5b506001600160a01b0381358116916020013516610eca565b61039d6004803603602081101561064657600080fd5b50356001600160a01b0316610ef5565b60668054604080516020601f60026000196101006001881615020190951694909404938401819004810282018101909252828152606093909290918301828280156106e25780601f106106b7576101008083540402835291602001916106e2565b820191906000526020600020905b8154815290600101906020018083116106c557829003601f168201915b505050505090505b90565b6101035460009060ff161561073c576040805162461bcd60e51b815260206004820152601060248201526f14185d5cd8589b194e881c185d5cd95960821b604482015290519081900360640190fd5b6107468383610f57565b9392505050565b600054610100900460ff16806107665750610766610f74565b80610774575060005460ff16155b6107af5760405162461bcd60e51b815260040180806020018281038252602e815260200180611c5b602e913960400191505060405180910390fd5b600054610100900460ff161580156107da576000805460ff1961ff0019909116610100171660011790555b83516107ed906066906020870190611983565b508251610801906067906020860190611983565b506068805460ff191660ff84161790558015610823576000805461ff00191690555b50505050565b609d5490565b6101035460009060ff161561087e576040805162461bcd60e51b815260206004820152601060248201526f14185d5cd8589b194e881c185d5cd95960821b604482015290519081900360640190fd5b610889848484610f7a565b949350505050565b6b033b2e3c9fd0803ce800000081565b60685460ff1690565b6101035460009060ff16156108f9576040805162461bcd60e51b815260206004820152601060248201526f14185d5cd8589b194e881c185d5cd95960821b604482015290519081900360640190fd5b6107468383611007565b61091361090e61105b565b610a02565b61094e5760405162461bcd60e51b8152600401808060200182810382526030815260200180611b526030913960400191505060405180910390fd5b6101035460ff1661099d576040805162461bcd60e51b815260206004820152601460248201527314185d5cd8589b194e881b9bdd081c185d5cd95960621b604482015290519081900360640190fd5b610103805460ff191690557f5db9ee0a495bf2e6ff9c91a7834c1ba4fdd244a5e8aa4e537bd38aeae4b073aa6109d161105b565b604080516001600160a01b039092168252519081900360200190a1565b6109ff6109f961105b565b8261105f565b50565b6000610a1560d08363ffffffff61115b16565b92915050565b6101035460ff1690565b610a35610a3061105b565b6111c2565b565b6001600160a01b03166000908152609b602052604090205490565b610a5a610c2a565b610aab576040805162461bcd60e51b815260206004820181905260248201527f4f776e61626c653a2063616c6c6572206973206e6f7420746865206f776e6572604482015290519081900360640190fd5b6033546040516000916001600160a01b0316907f8be0079c531659141344cd1fd0a4f28419497f9722a3daafe3b4186f6b6457e0908390a3603380546001600160a01b0319169055565b610aff828261120a565b5050565b610b0e61090e61105b565b610b495760405162461bcd60e51b8152600401808060200182810382526030815260200180611b526030913960400191505060405180910390fd5b6109ff8161125e565b610b5d61090e61105b565b610b985760405162461bcd60e51b8152600401808060200182810382526030815260200180611b526030913960400191505060405180910390fd5b6101035460ff1615610be4576040805162461bcd60e51b815260206004820152601060248201526f14185d5cd8589b194e881c185d5cd95960821b604482015290519081900360640190fd5b610103805460ff191660011790557f62e78cea01bee320cd4e420270b5ea74000d11b0c9f74754ebdbfc544b05a2586109d161105b565b6033546001600160a01b031690565b6033546000906001600160a01b0316610c4161105b565b6001600160a01b031614905090565b60678054604080516020601f60026000196101006001881615020190951694909404938401819004810282018101909252828152606093909290918301828280156106e25780601f106106b7576101008083540402835291602001916106e2565b6101035460009060ff1615610d00576040805162461bcd60e51b815260206004820152601060248201526f14185d5cd8589b194e881c185d5cd95960821b604482015290519081900360640190fd5b61074683836112a6565b6101035460009060ff1615610d59576040805162461bcd60e51b815260206004820152601060248201526f14185d5cd8589b194e881c185d5cd95960821b604482015290519081900360640190fd5b6107468383611314565b6000610d6d610c2a565b610dbe576040805162461bcd60e51b815260206004820181905260248201527f4f776e61626c653a2063616c6c6572206973206e6f7420746865206f776e6572604482015290519081900360640190fd5b60008211610dcb57600080fd5b610dd6338484611324565b6040805183815290516001600160a01b0385169133917fddf252ad1be2c89b69c2b068fc378daa952ba7f163c4a11628f55a4df523b3ef9181900360200190a350600192915050565b600054610100900460ff1680610e385750610e38610f74565b80610e46575060005460ff16155b610e815760405162461bcd60e51b815260040180806020018281038252602e815260200180611c5b602e913960400191505060405180910390fd5b600054610100900460ff16158015610eac576000805460ff1961ff0019909116610100171660011790555b610eb582611482565b8015610aff576000805461ff00191690555050565b6001600160a01b039182166000908152609c6020908152604080832093909416825291909152205490565b610efd610c2a565b610f4e576040805162461bcd60e51b815260206004820181905260248201527f4f776e61626c653a2063616c6c6572206973206e6f7420746865206f776e6572604482015290519081900360640190fd5b6109ff81611538565b6000610f6b610f6461105b565b84846115d9565b50600192915050565b303b1590565b6000610f87848484611324565b610ffd84610f9361105b565b610ff885604051806060016040528060288152602001611c11602891396001600160a01b038a166000908152609c6020526040812090610fd161105b565b6001600160a01b03168152602081019190915260400160002054919063ffffffff6116c516565b6115d9565b5060019392505050565b6000610f6b61101461105b565b84610ff885609c600061102561105b565b6001600160a01b03908116825260208083019390935260409182016000908120918c16815292529020549063ffffffff61175c16565b3390565b6001600160a01b0382166110a45760405162461bcd60e51b8152600401808060200182810382526021815260200180611cad6021913960400191505060405180910390fd5b6110e781604051806060016040528060228152602001611b30602291396001600160a01b0385166000908152609b6020526040902054919063ffffffff6116c516565b6001600160a01b0383166000908152609b6020526040902055609d54611113908263ffffffff6117b616565b609d556040805182815290516000916001600160a01b038516917fddf252ad1be2c89b69c2b068fc378daa952ba7f163c4a11628f55a4df523b3ef9181900360200190a35050565b60006001600160a01b0382166111a25760405162461bcd60e51b8152600401808060200182810382526022815260200180611c396022913960400191505060405180910390fd5b506001600160a01b03166000908152602091909152604090205460ff1690565b6111d360d08263ffffffff6117f816565b6040516001600160a01b038216907fcd265ebaf09df2871cc7bd4133404a235ba12eff2041bb89d9c714a2621c7c7e90600090a250565b611214828261105f565b610aff8261122061105b565b610ff884604051806060016040528060248152602001611c89602491396001600160a01b0388166000908152609c6020526040812090610fd161105b565b61126f60d08263ffffffff61185f16565b6040516001600160a01b038216907f6719d08c1888103bea251a4ed56406bd0c3e69723c8a1686e017e7bbe159b6f890600090a250565b6000610f6b6112b361105b565b84610ff885604051806060016040528060258152602001611d1760259139609c60006112dd61105b565b6001600160a01b03908116825260208083019390935260409182016000908120918d1681529252902054919063ffffffff6116c516565b6000610f6b61132161105b565b84845b6001600160a01b0383166113695760405162461bcd60e51b8152600401808060200182810382526025815260200180611cce6025913960400191505060405180910390fd5b6001600160a01b0382166113ae5760405162461bcd60e51b8152600401808060200182810382526023815260200180611b0d6023913960400191505060405180910390fd5b6113f181604051806060016040528060268152602001611bca602691396001600160a01b0386166000908152609b6020526040902054919063ffffffff6116c516565b6001600160a01b038085166000908152609b60205260408082209390935590841681522054611426908263ffffffff61175c16565b6001600160a01b038084166000818152609b602090815260409182902094909455805185815290519193928716927fddf252ad1be2c89b69c2b068fc378daa952ba7f163c4a11628f55a4df523b3ef92918290030190a3505050565b600054610100900460ff168061149b575061149b610f74565b806114a9575060005460ff16155b6114e45760405162461bcd60e51b815260040180806020018281038252602e815260200180611c5b602e913960400191505060405180910390fd5b600054610100900460ff1615801561150f576000805460ff1961ff0019909116610100171660011790555b611518826118e0565b610103805460ff191690558015610aff576000805461ff00191690555050565b6001600160a01b03811661157d5760405162461bcd60e51b8152600401808060200182810382526026815260200180611b826026913960400191505060405180910390fd5b6033546040516001600160a01b038084169216907f8be0079c531659141344cd1fd0a4f28419497f9722a3daafe3b4186f6b6457e090600090a3603380546001600160a01b0319166001600160a01b0392909216919091179055565b6001600160a01b03831661161e5760405162461bcd60e51b8152600401808060200182810382526024815260200180611cf36024913960400191505060405180910390fd5b6001600160a01b0382166116635760405162461bcd60e51b8152600401808060200182810382526022815260200180611ba86022913960400191505060405180910390fd5b6001600160a01b038084166000818152609c6020908152604080832094871680845294825291829020859055815185815291517f8c5be1e5ebec7d5bd14f71427d1e84f3dd0314c0f7b2291e5b200ac8c7c3b9259281900390910190a3505050565b600081848411156117545760405162461bcd60e51b81526004018080602001828103825283818151815260200191508051906020019080838360005b83811015611719578181015183820152602001611701565b50505050905090810190601f1680156117465780820380516001836020036101000a031916815260200191505b509250505060405180910390fd5b505050900390565b600082820183811015610746576040805162461bcd60e51b815260206004820152601b60248201527f536166654d6174683a206164646974696f6e206f766572666c6f770000000000604482015290519081900360640190fd5b600061074683836040518060400160405280601e81526020017f536166654d6174683a207375627472616374696f6e206f766572666c6f7700008152506116c5565b611802828261115b565b61183d5760405162461bcd60e51b8152600401808060200182810382526021815260200180611bf06021913960400191505060405180910390fd5b6001600160a01b0316600090815260209190915260409020805460ff19169055565b611869828261115b565b156118bb576040805162461bcd60e51b815260206004820152601f60248201527f526f6c65733a206163636f756e7420616c72656164792068617320726f6c6500604482015290519081900360640190fd5b6001600160a01b0316600090815260209190915260409020805460ff19166001179055565b600054610100900460ff16806118f957506118f9610f74565b80611907575060005460ff16155b6119425760405162461bcd60e51b815260040180806020018281038252602e815260200180611c5b602e913960400191505060405180910390fd5b600054610100900460ff1615801561196d576000805460ff1961ff0019909116610100171660011790555b61197682610a02565b610eb557610eb58261125e565b828054600181600116156101000203166002900490600052602060002090601f016020900481019282601f106119c457805160ff19168380011785556119f1565b828001600101855582156119f1579182015b828111156119f15782518255916020019190600101906119d6565b506119fd929150611a01565b5090565b6106ea91905b808211156119fd5760008155600101611a07565b600054610100900460ff1680611a345750611a34610f74565b80611a42575060005460ff16155b611a7d5760405162461bcd60e51b815260040180806020018281038252602e815260200180611c5b602e913960400191505060405180910390fd5b600054610100900460ff16158015611aa8576000805460ff1961ff0019909116610100171660011790555b603380546001600160a01b0319166001600160a01b0384811691909117918290556040519116906000907f8be0079c531659141344cd1fd0a4f28419497f9722a3daafe3b4186f6b6457e0908290a38015610aff576000805461ff0019169055505056fe45524332303a207472616e7366657220746f20746865207a65726f206164647265737345524332303a206275726e20616d6f756e7420657863656564732062616c616e6365506175736572526f6c653a2063616c6c657220646f6573206e6f742068617665207468652050617573657220726f6c654f776e61626c653a206e6577206f776e657220697320746865207a65726f206164647265737345524332303a20617070726f766520746f20746865207a65726f206164647265737345524332303a207472616e7366657220616d6f756e7420657863656564732062616c616e6365526f6c65733a206163636f756e7420646f6573206e6f74206861766520726f6c6545524332303a207472616e7366657220616d6f756e74206578636565647320616c6c6f77616e6365526f6c65733a206163636f756e7420697320746865207a65726f2061646472657373436f6e747261637420696e7374616e63652068617320616c7265616479206265656e20696e697469616c697a656445524332303a206275726e20616d6f756e74206578636565647320616c6c6f77616e636545524332303a206275726e2066726f6d20746865207a65726f206164647265737345524332303a207472616e736665722066726f6d20746865207a65726f206164647265737345524332303a20617070726f76652066726f6d20746865207a65726f206164647265737345524332303a2064656372656173656420616c6c6f77616e63652062656c6f77207a65726fa265627a7a723158208968254e38f025d36f6749ca455a7a2e82f68ffe61a36e09e29120f37d8d10fe64736f6c63430005100032526f6c65733a206163636f756e7420697320746865207a65726f2061646472657373436f6e747261637420696e7374616e63652068617320616c7265616479206265656e20696e697469616c697a6564",
  "source": "pragma solidity 0.5.16;\n\nimport \"@openzeppelin/contracts-ethereum-package/contracts/ownership/Ownable.sol\";\nimport \"@openzeppelin/contracts-ethereum-package/contracts/token/ERC20/ERC20Detailed.sol\";\nimport \"@openzeppelin/contracts-ethereum-package/contracts/token/ERC20/ERC20Pausable.sol\";\nimport \"@openzeppelin/contracts-ethereum-package/contracts/token/ERC20/ERC20Burnable.sol\";\n\ncontract RenToken is Ownable, ERC20Detailed, ERC20Pausable, ERC20Burnable {\n    string private constant _name = \"REN\";\n    string private constant _symbol = \"REN\";\n    uint8 private constant _decimals = 18;\n\n    uint256 public constant INITIAL_SUPPLY = 1000000000 *\n        10**uint256(_decimals);\n\n    /// @notice The RenToken Constructor.\n    constructor() public {\n        ERC20Pausable.initialize(msg.sender);\n        ERC20Detailed.initialize(_name, _symbol, _decimals);\n        Ownable.initialize(msg.sender);\n        _mint(msg.sender, INITIAL_SUPPLY);\n    }\n\n    function transferTokens(address beneficiary, uint256 amount)\n        public\n        onlyOwner\n        returns (bool)\n    {\n        // Note: The deployed version has no revert reason\n        /* solium-disable-next-line error-reason */\n        require(amount > 0);\n\n        _transfer(msg.sender, beneficiary, amount);\n        emit Transfer(msg.sender, beneficiary, amount);\n\n        return true;\n    }\n}\n",
  "sourcePath": "/home/noah/github/renproject/ren-sol/contracts/RenToken/RenToken.sol",
  "compiler": {
    "name": "solc",
    "version": "0.5.16+commit.9c3226ce.Emscripten.clang"
  },
  "schemaVersion": "3.0.23",
  "updatedAt": "2020-03-30T04:16:04.683Z",
  "networkType": "ethereum",
  "devdoc": {
    "methods": {
      "allowance(address,address)": {
        "details": "See {IERC20-allowance}."
      },
      "balanceOf(address)": {
        "details": "See {IERC20-balanceOf}."
      },
      "burn(uint256)": {
        "details": "Destroys `amount` tokens from the caller.     * See {ERC20-_burn}."
      },
      "burnFrom(address,uint256)": {
        "details": "See {ERC20-_burnFrom}."
      },
      "decimals()": {
        "details": "Returns the number of decimals used to get its user representation. For example, if `decimals` equals `2`, a balance of `505` tokens should be displayed to a user as `5,05` (`505 / 10 ** 2`).     * Tokens usually opt for a value of 18, imitating the relationship between Ether and Wei.     * NOTE: This information is only used for _display_ purposes: it in no way affects any of the arithmetic of the contract, including {IERC20-balanceOf} and {IERC20-transfer}."
      },
      "initialize(string,string,uint8)": {
        "details": "Sets the values for `name`, `symbol`, and `decimals`. All three of these values are immutable: they can only be set once during construction."
      },
      "isOwner()": {
        "details": "Returns true if the caller is the current owner."
      },
      "name()": {
        "details": "Returns the name of the token."
      },
      "owner()": {
        "details": "Returns the address of the current owner."
      },
      "pause()": {
        "details": "Called by a pauser to pause, triggers stopped state."
      },
      "paused()": {
        "details": "Returns true if the contract is paused, and false otherwise."
      },
      "renounceOwnership()": {
        "details": "Leaves the contract without owner. It will not be possible to call `onlyOwner` functions anymore. Can only be called by the current owner.     * > Note: Renouncing ownership will leave the contract without an owner, thereby removing any functionality that is only available to the owner."
      },
      "symbol()": {
        "details": "Returns the symbol of the token, usually a shorter version of the name."
      },
      "totalSupply()": {
        "details": "See {IERC20-totalSupply}."
      },
      "transferOwnership(address)": {
        "details": "Transfers ownership of the contract to a new account (`newOwner`). Can only be called by the current owner."
      },
      "unpause()": {
        "details": "Called by a pauser to unpause, returns to normal state."
      }
    }
  },
  "userdoc": {
    "methods": {
      "constructor": "The RenToken Constructor."
    }
  }
}